{
	"src/BattleVictoryNFT.sol": {
		"BattleVictoryNFT": {
			"abi": [
				{
					"inputs": [],
					"stateMutability": "nonpayable",
					"type": "constructor"
				},
				{
					"anonymous": false,
					"inputs": [
						{
							"indexed": true,
							"internalType": "address",
							"name": "owner",
							"type": "address"
						},
						{
							"indexed": true,
							"internalType": "address",
							"name": "approved",
							"type": "address"
						},
						{
							"indexed": true,
							"internalType": "uint256",
							"name": "tokenId",
							"type": "uint256"
						}
					],
					"name": "Approval",
					"type": "event"
				},
				{
					"anonymous": false,
					"inputs": [
						{
							"indexed": true,
							"internalType": "address",
							"name": "owner",
							"type": "address"
						},
						{
							"indexed": true,
							"internalType": "address",
							"name": "operator",
							"type": "address"
						},
						{
							"indexed": false,
							"internalType": "bool",
							"name": "approved",
							"type": "bool"
						}
					],
					"name": "ApprovalForAll",
					"type": "event"
				},
				{
					"anonymous": false,
					"inputs": [
						{
							"indexed": true,
							"internalType": "address",
							"name": "from",
							"type": "address"
						},
						{
							"indexed": true,
							"internalType": "address",
							"name": "to",
							"type": "address"
						},
						{
							"indexed": true,
							"internalType": "uint256",
							"name": "tokenId",
							"type": "uint256"
						}
					],
					"name": "Transfer",
					"type": "event"
				},
				{
					"inputs": [
						{
							"internalType": "address",
							"name": "to",
							"type": "address"
						},
						{
							"internalType": "uint256",
							"name": "tokenId",
							"type": "uint256"
						}
					],
					"name": "approve",
					"outputs": [],
					"stateMutability": "nonpayable",
					"type": "function"
				},
				{
					"inputs": [
						{
							"internalType": "address",
							"name": "account",
							"type": "address"
						}
					],
					"name": "balanceOf",
					"outputs": [
						{
							"internalType": "uint256",
							"name": "",
							"type": "uint256"
						}
					],
					"stateMutability": "view",
					"type": "function"
				},
				{
					"inputs": [
						{
							"internalType": "uint256",
							"name": "tokenId",
							"type": "uint256"
						}
					],
					"name": "getApproved",
					"outputs": [
						{
							"internalType": "address",
							"name": "",
							"type": "address"
						}
					],
					"stateMutability": "view",
					"type": "function"
				},
				{
					"inputs": [],
					"name": "getLastTokenId",
					"outputs": [
						{
							"internalType": "uint256",
							"name": "",
							"type": "uint256"
						}
					],
					"stateMutability": "view",
					"type": "function"
				},
				{
					"inputs": [
						{
							"internalType": "uint256",
							"name": "tokenId",
							"type": "uint256"
						}
					],
					"name": "getTokenURI",
					"outputs": [
						{
							"internalType": "string",
							"name": "",
							"type": "string"
						}
					],
					"stateMutability": "view",
					"type": "function"
				},
				{
					"inputs": [
						{
							"internalType": "address",
							"name": "player",
							"type": "address"
						},
						{
							"internalType": "address",
							"name": "operator",
							"type": "address"
						}
					],
					"name": "isApprovedForAll",
					"outputs": [
						{
							"internalType": "bool",
							"name": "",
							"type": "bool"
						}
					],
					"stateMutability": "view",
					"type": "function"
				},
				{
					"inputs": [
						{
							"internalType": "address",
							"name": "recipient",
							"type": "address"
						},
						{
							"internalType": "string",
							"name": "metadataUri",
							"type": "string"
						}
					],
					"name": "mintBattleNFT",
					"outputs": [
						{
							"internalType": "uint256",
							"name": "",
							"type": "uint256"
						}
					],
					"stateMutability": "nonpayable",
					"type": "function"
				},
				{
					"inputs": [],
					"name": "name",
					"outputs": [
						{
							"internalType": "string",
							"name": "",
							"type": "string"
						}
					],
					"stateMutability": "view",
					"type": "function"
				},
				{
					"inputs": [],
					"name": "owner",
					"outputs": [
						{
							"internalType": "address",
							"name": "",
							"type": "address"
						}
					],
					"stateMutability": "view",
					"type": "function"
				},
				{
					"inputs": [
						{
							"internalType": "uint256",
							"name": "tokenId",
							"type": "uint256"
						}
					],
					"name": "ownerOf",
					"outputs": [
						{
							"internalType": "address",
							"name": "",
							"type": "address"
						}
					],
					"stateMutability": "view",
					"type": "function"
				},
				{
					"inputs": [
						{
							"internalType": "address",
							"name": "operator",
							"type": "address"
						},
						{
							"internalType": "bool",
							"name": "approved",
							"type": "bool"
						}
					],
					"name": "setApprovalForAll",
					"outputs": [],
					"stateMutability": "nonpayable",
					"type": "function"
				},
				{
					"inputs": [],
					"name": "symbol",
					"outputs": [
						{
							"internalType": "string",
							"name": "",
							"type": "string"
						}
					],
					"stateMutability": "view",
					"type": "function"
				},
				{
					"inputs": [
						{
							"internalType": "uint256",
							"name": "tokenId",
							"type": "uint256"
						},
						{
							"internalType": "address",
							"name": "sender",
							"type": "address"
						},
						{
							"internalType": "address",
							"name": "recipient",
							"type": "address"
						}
					],
					"name": "transfer",
					"outputs": [
						{
							"internalType": "bool",
							"name": "",
							"type": "bool"
						}
					],
					"stateMutability": "nonpayable",
					"type": "function"
				},
				{
					"inputs": [
						{
							"internalType": "address",
							"name": "from",
							"type": "address"
						},
						{
							"internalType": "address",
							"name": "to",
							"type": "address"
						},
						{
							"internalType": "uint256",
							"name": "tokenId",
							"type": "uint256"
						}
					],
					"name": "transferFrom",
					"outputs": [],
					"stateMutability": "nonpayable",
					"type": "function"
				}
			],
			"devdoc": {
				"kind": "dev",
				"methods": {},
				"version": 1
			},
			"evm": {
				"assembly": "    /* \"src/BattleVictoryNFT.sol\":61:4743  contract BattleVictoryNFT {... */\n  mstore(0x40, 0x80)\n    /* \"src/BattleVictoryNFT.sol\":127:168  string public name = \"Battle Victory NFT\" */\n  mload(0x40)\n  dup1\n  0x40\n  add\n  0x40\n  mstore\n  dup1\n  0x12\n  dup2\n  mstore\n  0x20\n  add\n  0x426174746c6520566963746f7279204e46540000000000000000000000000000\n  dup2\n  mstore\n  pop\n  0x01\n  swap1\n  dup2\n  tag_1\n  swap2\n  swap1\n  tag_2\n  jump\t// in\ntag_1:\n  pop\n    /* \"src/BattleVictoryNFT.sol\":175:205  string public symbol = \"BVNFT\" */\n  mload(0x40)\n  dup1\n  0x40\n  add\n  0x40\n  mstore\n  dup1\n  0x05\n  dup2\n  mstore\n  0x20\n  add\n  0x42564e4654000000000000000000000000000000000000000000000000000000\n  dup2\n  mstore\n  pop\n  0x02\n  swap1\n  dup2\n  tag_3\n  swap2\n  swap1\n  tag_2\n  jump\t// in\ntag_3:\n  pop\n    /* \"src/BattleVictoryNFT.sol\":244:245  1 */\n  0x01\n    /* \"src/BattleVictoryNFT.sol\":214:245  uint256 private nextTokenId = 1 */\n  0x03\n  sstore\n    /* \"src/BattleVictoryNFT.sol\":1012:1063  constructor() {... */\n  callvalue\n  dup1\n  iszero\n  tag_4\n  jumpi\n  revert(0x00, 0x00)\ntag_4:\n  pop\n    /* \"src/BattleVictoryNFT.sol\":1045:1055  msg.sender */\n  caller\n    /* \"src/BattleVictoryNFT.sol\":1037:1042  owner */\n  0x00\n  0x00\n    /* \"src/BattleVictoryNFT.sol\":1037:1055  owner = msg.sender */\n  0x0100\n  exp\n  dup2\n  sload\n  dup2\n  0xffffffffffffffffffffffffffffffffffffffff\n  mul\n  not\n  and\n  swap1\n  dup4\n  0xffffffffffffffffffffffffffffffffffffffff\n  and\n  mul\n  or\n  swap1\n  sstore\n  pop\n    /* \"src/BattleVictoryNFT.sol\":61:4743  contract BattleVictoryNFT {... */\n  jump(tag_7)\n    /* \"#utility.yul\":7:106   */\ntag_8:\n    /* \"#utility.yul\":59:65   */\n  0x00\n    /* \"#utility.yul\":93:98   */\n  dup2\n    /* \"#utility.yul\":87:99   */\n  mload\n    /* \"#utility.yul\":77:99   */\n  swap1\n  pop\n    /* \"#utility.yul\":7:106   */\n  swap2\n  swap1\n  pop\n  jump\t// out\n    /* \"#utility.yul\":112:292   */\ntag_9:\n    /* \"#utility.yul\":160:237   */\n  0x4e487b7100000000000000000000000000000000000000000000000000000000\n    /* \"#utility.yul\":157:158   */\n  0x00\n    /* \"#utility.yul\":150:238   */\n  mstore\n    /* \"#utility.yul\":257:261   */\n  0x41\n    /* \"#utility.yul\":254:255   */\n  0x04\n    /* \"#utility.yul\":247:262   */\n  mstore\n    /* \"#utility.yul\":281:285   */\n  0x24\n    /* \"#utility.yul\":278:279   */\n  0x00\n    /* \"#utility.yul\":271:286   */\n  revert\n    /* \"#utility.yul\":298:478   */\ntag_10:\n    /* \"#utility.yul\":346:423   */\n  0x4e487b7100000000000000000000000000000000000000000000000000000000\n    /* \"#utility.yul\":343:344   */\n  0x00\n    /* \"#utility.yul\":336:424   */\n  mstore\n    /* \"#utility.yul\":443:447   */\n  0x22\n    /* \"#utility.yul\":440:441   */\n  0x04\n    /* \"#utility.yul\":433:448   */\n  mstore\n    /* \"#utility.yul\":467:471   */\n  0x24\n    /* \"#utility.yul\":464:465   */\n  0x00\n    /* \"#utility.yul\":457:472   */\n  revert\n    /* \"#utility.yul\":484:804   */\ntag_11:\n    /* \"#utility.yul\":528:534   */\n  0x00\n    /* \"#utility.yul\":565:566   */\n  0x02\n    /* \"#utility.yul\":559:563   */\n  dup3\n    /* \"#utility.yul\":555:567   */\n  div\n    /* \"#utility.yul\":545:567   */\n  swap1\n  pop\n    /* \"#utility.yul\":612:613   */\n  0x01\n    /* \"#utility.yul\":606:610   */\n  dup3\n    /* \"#utility.yul\":602:614   */\n  and\n    /* \"#utility.yul\":633:651   */\n  dup1\n    /* \"#utility.yul\":623:704   */\n  tag_33\n  jumpi\n    /* \"#utility.yul\":689:693   */\n  0x7f\n    /* \"#utility.yul\":681:687   */\n  dup3\n    /* \"#utility.yul\":677:694   */\n  and\n    /* \"#utility.yul\":667:694   */\n  swap2\n  pop\n    /* \"#utility.yul\":623:704   */\ntag_33:\n    /* \"#utility.yul\":751:753   */\n  0x20\n    /* \"#utility.yul\":743:749   */\n  dup3\n    /* \"#utility.yul\":740:754   */\n  lt\n    /* \"#utility.yul\":720:738   */\n  dup2\n    /* \"#utility.yul\":717:755   */\n  sub\n    /* \"#utility.yul\":714:798   */\n  tag_34\n  jumpi\n    /* \"#utility.yul\":770:788   */\n  tag_35\n  tag_10\n  jump\t// in\ntag_35:\n    /* \"#utility.yul\":714:798   */\ntag_34:\n    /* \"#utility.yul\":535:804   */\n  pop\n    /* \"#utility.yul\":484:804   */\n  swap2\n  swap1\n  pop\n  jump\t// out\n    /* \"#utility.yul\":810:951   */\ntag_12:\n    /* \"#utility.yul\":859:863   */\n  0x00\n    /* \"#utility.yul\":882:885   */\n  dup2\n    /* \"#utility.yul\":874:885   */\n  swap1\n  pop\n    /* \"#utility.yul\":905:908   */\n  dup2\n    /* \"#utility.yul\":902:903   */\n  0x00\n    /* \"#utility.yul\":895:909   */\n  mstore\n    /* \"#utility.yul\":939:943   */\n  0x20\n    /* \"#utility.yul\":936:937   */\n  0x00\n    /* \"#utility.yul\":926:944   */\n  keccak256\n    /* \"#utility.yul\":918:944   */\n  swap1\n  pop\n    /* \"#utility.yul\":810:951   */\n  swap2\n  swap1\n  pop\n  jump\t// out\n    /* \"#utility.yul\":957:1050   */\ntag_13:\n    /* \"#utility.yul\":994:1000   */\n  0x00\n    /* \"#utility.yul\":1041:1043   */\n  0x20\n    /* \"#utility.yul\":1036:1038   */\n  0x1f\n    /* \"#utility.yul\":1029:1034   */\n  dup4\n    /* \"#utility.yul\":1025:1039   */\n  add\n    /* \"#utility.yul\":1021:1044   */\n  div\n    /* \"#utility.yul\":1011:1044   */\n  swap1\n  pop\n    /* \"#utility.yul\":957:1050   */\n  swap2\n  swap1\n  pop\n  jump\t// out\n    /* \"#utility.yul\":1056:1163   */\ntag_14:\n    /* \"#utility.yul\":1100:1108   */\n  0x00\n    /* \"#utility.yul\":1150:1155   */\n  dup3\n    /* \"#utility.yul\":1144:1148   */\n  dup3\n    /* \"#utility.yul\":1140:1156   */\n  shl\n    /* \"#utility.yul\":1119:1156   */\n  swap1\n  pop\n    /* \"#utility.yul\":1056:1163   */\n  swap3\n  swap2\n  pop\n  pop\n  jump\t// out\n    /* \"#utility.yul\":1169:1562   */\ntag_15:\n    /* \"#utility.yul\":1238:1244   */\n  0x00\n    /* \"#utility.yul\":1288:1289   */\n  0x08\n    /* \"#utility.yul\":1276:1286   */\n  dup4\n    /* \"#utility.yul\":1272:1290   */\n  mul\n    /* \"#utility.yul\":1311:1408   */\n  tag_40\n    /* \"#utility.yul\":1341:1407   */\n  0xffffffffffffffffffffffffffffffffffffffffffffffffffffffffffffffff\n    /* \"#utility.yul\":1330:1339   */\n  dup3\n    /* \"#utility.yul\":1311:1408   */\n  tag_14\n  jump\t// in\ntag_40:\n    /* \"#utility.yul\":1429:1468   */\n  tag_41\n    /* \"#utility.yul\":1459:1467   */\n  dup7\n    /* \"#utility.yul\":1448:1457   */\n  dup4\n    /* \"#utility.yul\":1429:1468   */\n  tag_14\n  jump\t// in\ntag_41:\n    /* \"#utility.yul\":1417:1468   */\n  swap6\n  pop\n    /* \"#utility.yul\":1501:1505   */\n  dup1\n    /* \"#utility.yul\":1497:1506   */\n  not\n    /* \"#utility.yul\":1490:1495   */\n  dup5\n    /* \"#utility.yul\":1486:1507   */\n  and\n    /* \"#utility.yul\":1477:1507   */\n  swap4\n  pop\n    /* \"#utility.yul\":1550:1554   */\n  dup1\n    /* \"#utility.yul\":1540:1548   */\n  dup7\n    /* \"#utility.yul\":1536:1555   */\n  and\n    /* \"#utility.yul\":1529:1534   */\n  dup5\n    /* \"#utility.yul\":1526:1556   */\n  or\n    /* \"#utility.yul\":1516:1556   */\n  swap3\n  pop\n    /* \"#utility.yul\":1245:1562   */\n  pop\n  pop\n    /* \"#utility.yul\":1169:1562   */\n  swap4\n  swap3\n  pop\n  pop\n  pop\n  jump\t// out\n    /* \"#utility.yul\":1568:1645   */\ntag_16:\n    /* \"#utility.yul\":1605:1612   */\n  0x00\n    /* \"#utility.yul\":1634:1639   */\n  dup2\n    /* \"#utility.yul\":1623:1639   */\n  swap1\n  pop\n    /* \"#utility.yul\":1568:1645   */\n  swap2\n  swap1\n  pop\n  jump\t// out\n    /* \"#utility.yul\":1651:1711   */\ntag_17:\n    /* \"#utility.yul\":1679:1682   */\n  0x00\n    /* \"#utility.yul\":1700:1705   */\n  dup2\n    /* \"#utility.yul\":1693:1705   */\n  swap1\n  pop\n    /* \"#utility.yul\":1651:1711   */\n  swap2\n  swap1\n  pop\n  jump\t// out\n    /* \"#utility.yul\":1717:1859   */\ntag_18:\n    /* \"#utility.yul\":1767:1776   */\n  0x00\n    /* \"#utility.yul\":1800:1853   */\n  tag_45\n    /* \"#utility.yul\":1818:1852   */\n  tag_46\n    /* \"#utility.yul\":1827:1851   */\n  tag_47\n    /* \"#utility.yul\":1845:1850   */\n  dup5\n    /* \"#utility.yul\":1827:1851   */\n  tag_16\n  jump\t// in\ntag_47:\n    /* \"#utility.yul\":1818:1852   */\n  tag_17\n  jump\t// in\ntag_46:\n    /* \"#utility.yul\":1800:1853   */\n  tag_16\n  jump\t// in\ntag_45:\n    /* \"#utility.yul\":1787:1853   */\n  swap1\n  pop\n    /* \"#utility.yul\":1717:1859   */\n  swap2\n  swap1\n  pop\n  jump\t// out\n    /* \"#utility.yul\":1865:1940   */\ntag_19:\n    /* \"#utility.yul\":1908:1911   */\n  0x00\n    /* \"#utility.yul\":1929:1934   */\n  dup2\n    /* \"#utility.yul\":1922:1934   */\n  swap1\n  pop\n    /* \"#utility.yul\":1865:1940   */\n  swap2\n  swap1\n  pop\n  jump\t// out\n    /* \"#utility.yul\":1946:2215   */\ntag_20:\n    /* \"#utility.yul\":2056:2095   */\n  tag_50\n    /* \"#utility.yul\":2087:2094   */\n  dup4\n    /* \"#utility.yul\":2056:2095   */\n  tag_18\n  jump\t// in\ntag_50:\n    /* \"#utility.yul\":2117:2208   */\n  tag_51\n    /* \"#utility.yul\":2166:2207   */\n  tag_52\n    /* \"#utility.yul\":2190:2206   */\n  dup3\n    /* \"#utility.yul\":2166:2207   */\n  tag_19\n  jump\t// in\ntag_52:\n    /* \"#utility.yul\":2158:2164   */\n  dup5\n    /* \"#utility.yul\":2151:2155   */\n  dup5\n    /* \"#utility.yul\":2145:2156   */\n  sload\n    /* \"#utility.yul\":2117:2208   */\n  tag_15\n  jump\t// in\ntag_51:\n    /* \"#utility.yul\":2111:2115   */\n  dup3\n    /* \"#utility.yul\":2104:2209   */\n  sstore\n    /* \"#utility.yul\":2022:2215   */\n  pop\n    /* \"#utility.yul\":1946:2215   */\n  pop\n  pop\n  pop\n  jump\t// out\n    /* \"#utility.yul\":2221:2294   */\ntag_21:\n    /* \"#utility.yul\":2266:2269   */\n  0x00\n    /* \"#utility.yul\":2287:2288   */\n  0x00\n    /* \"#utility.yul\":2280:2288   */\n  swap1\n  pop\n    /* \"#utility.yul\":2221:2294   */\n  swap1\n  jump\t// out\n    /* \"#utility.yul\":2300:2489   */\ntag_22:\n    /* \"#utility.yul\":2377:2409   */\n  tag_55\n  tag_21\n  jump\t// in\ntag_55:\n    /* \"#utility.yul\":2418:2483   */\n  tag_56\n    /* \"#utility.yul\":2476:2482   */\n  dup2\n    /* \"#utility.yul\":2468:2474   */\n  dup5\n    /* \"#utility.yul\":2462:2466   */\n  dup5\n    /* \"#utility.yul\":2418:2483   */\n  tag_20\n  jump\t// in\ntag_56:\n    /* \"#utility.yul\":2353:2489   */\n  pop\n    /* \"#utility.yul\":2300:2489   */\n  pop\n  pop\n  jump\t// out\n    /* \"#utility.yul\":2495:2681   */\ntag_23:\n    /* \"#utility.yul\":2555:2675   */\ntag_58:\n    /* \"#utility.yul\":2572:2575   */\n  dup2\n    /* \"#utility.yul\":2565:2570   */\n  dup2\n    /* \"#utility.yul\":2562:2576   */\n  lt\n    /* \"#utility.yul\":2555:2675   */\n  iszero\n  tag_60\n  jumpi\n    /* \"#utility.yul\":2626:2665   */\n  tag_61\n    /* \"#utility.yul\":2663:2664   */\n  0x00\n    /* \"#utility.yul\":2656:2661   */\n  dup3\n    /* \"#utility.yul\":2626:2665   */\n  tag_22\n  jump\t// in\ntag_61:\n    /* \"#utility.yul\":2599:2600   */\n  0x01\n    /* \"#utility.yul\":2592:2597   */\n  dup2\n    /* \"#utility.yul\":2588:2601   */\n  add\n    /* \"#utility.yul\":2579:2601   */\n  swap1\n  pop\n    /* \"#utility.yul\":2555:2675   */\n  jump(tag_58)\ntag_60:\n    /* \"#utility.yul\":2495:2681   */\n  pop\n  pop\n  jump\t// out\n    /* \"#utility.yul\":2687:3230   */\ntag_24:\n    /* \"#utility.yul\":2788:2790   */\n  0x1f\n    /* \"#utility.yul\":2783:2786   */\n  dup3\n    /* \"#utility.yul\":2780:2791   */\n  gt\n    /* \"#utility.yul\":2777:3223   */\n  iszero\n  tag_63\n  jumpi\n    /* \"#utility.yul\":2822:2860   */\n  tag_64\n    /* \"#utility.yul\":2854:2859   */\n  dup2\n    /* \"#utility.yul\":2822:2860   */\n  tag_12\n  jump\t// in\ntag_64:\n    /* \"#utility.yul\":2906:2935   */\n  tag_65\n    /* \"#utility.yul\":2924:2934   */\n  dup5\n    /* \"#utility.yul\":2906:2935   */\n  tag_13\n  jump\t// in\ntag_65:\n    /* \"#utility.yul\":2896:2904   */\n  dup2\n    /* \"#utility.yul\":2892:2936   */\n  add\n    /* \"#utility.yul\":3089:3091   */\n  0x20\n    /* \"#utility.yul\":3077:3087   */\n  dup6\n    /* \"#utility.yul\":3074:3092   */\n  lt\n    /* \"#utility.yul\":3071:3120   */\n  iszero\n  tag_66\n  jumpi\n    /* \"#utility.yul\":3110:3118   */\n  dup2\n    /* \"#utility.yul\":3095:3118   */\n  swap1\n  pop\n    /* \"#utility.yul\":3071:3120   */\ntag_66:\n    /* \"#utility.yul\":3133:3213   */\n  tag_67\n    /* \"#utility.yul\":3189:3211   */\n  tag_68\n    /* \"#utility.yul\":3207:3210   */\n  dup6\n    /* \"#utility.yul\":3189:3211   */\n  tag_13\n  jump\t// in\ntag_68:\n    /* \"#utility.yul\":3179:3187   */\n  dup4\n    /* \"#utility.yul\":3175:3212   */\n  add\n    /* \"#utility.yul\":3162:3173   */\n  dup3\n    /* \"#utility.yul\":3133:3213   */\n  tag_23\n  jump\t// in\ntag_67:\n    /* \"#utility.yul\":2792:3223   */\n  pop\n  pop\n    /* \"#utility.yul\":2777:3223   */\ntag_63:\n    /* \"#utility.yul\":2687:3230   */\n  pop\n  pop\n  pop\n  jump\t// out\n    /* \"#utility.yul\":3236:3353   */\ntag_25:\n    /* \"#utility.yul\":3290:3298   */\n  0x00\n    /* \"#utility.yul\":3340:3345   */\n  dup3\n    /* \"#utility.yul\":3334:3338   */\n  dup3\n    /* \"#utility.yul\":3330:3346   */\n  shr\n    /* \"#utility.yul\":3309:3346   */\n  swap1\n  pop\n    /* \"#utility.yul\":3236:3353   */\n  swap3\n  swap2\n  pop\n  pop\n  jump\t// out\n    /* \"#utility.yul\":3359:3528   */\ntag_26:\n    /* \"#utility.yul\":3403:3409   */\n  0x00\n    /* \"#utility.yul\":3436:3487   */\n  tag_71\n    /* \"#utility.yul\":3484:3485   */\n  0x00\n    /* \"#utility.yul\":3480:3486   */\n  not\n    /* \"#utility.yul\":3472:3477   */\n  dup5\n    /* \"#utility.yul\":3469:3470   */\n  0x08\n    /* \"#utility.yul\":3465:3478   */\n  mul\n    /* \"#utility.yul\":3436:3487   */\n  tag_25\n  jump\t// in\ntag_71:\n    /* \"#utility.yul\":3432:3488   */\n  not\n    /* \"#utility.yul\":3517:3521   */\n  dup1\n    /* \"#utility.yul\":3511:3515   */\n  dup4\n    /* \"#utility.yul\":3507:3522   */\n  and\n    /* \"#utility.yul\":3497:3522   */\n  swap2\n  pop\n    /* \"#utility.yul\":3410:3528   */\n  pop\n    /* \"#utility.yul\":3359:3528   */\n  swap3\n  swap2\n  pop\n  pop\n  jump\t// out\n    /* \"#utility.yul\":3533:3828   */\ntag_27:\n    /* \"#utility.yul\":3609:3613   */\n  0x00\n    /* \"#utility.yul\":3755:3784   */\n  tag_73\n    /* \"#utility.yul\":3780:3783   */\n  dup4\n    /* \"#utility.yul\":3774:3778   */\n  dup4\n    /* \"#utility.yul\":3755:3784   */\n  tag_26\n  jump\t// in\ntag_73:\n    /* \"#utility.yul\":3747:3784   */\n  swap2\n  pop\n    /* \"#utility.yul\":3817:3820   */\n  dup3\n    /* \"#utility.yul\":3814:3815   */\n  0x02\n    /* \"#utility.yul\":3810:3821   */\n  mul\n    /* \"#utility.yul\":3804:3808   */\n  dup3\n    /* \"#utility.yul\":3801:3822   */\n  or\n    /* \"#utility.yul\":3793:3822   */\n  swap1\n  pop\n    /* \"#utility.yul\":3533:3828   */\n  swap3\n  swap2\n  pop\n  pop\n  jump\t// out\n    /* \"#utility.yul\":3833:5228   */\ntag_2:\n    /* \"#utility.yul\":3950:3987   */\n  tag_75\n    /* \"#utility.yul\":3983:3986   */\n  dup3\n    /* \"#utility.yul\":3950:3987   */\n  tag_8\n  jump\t// in\ntag_75:\n    /* \"#utility.yul\":4052:4070   */\n  0xffffffffffffffff\n    /* \"#utility.yul\":4044:4050   */\n  dup2\n    /* \"#utility.yul\":4041:4071   */\n  gt\n    /* \"#utility.yul\":4038:4094   */\n  iszero\n  tag_76\n  jumpi\n    /* \"#utility.yul\":4074:4092   */\n  tag_77\n  tag_9\n  jump\t// in\ntag_77:\n    /* \"#utility.yul\":4038:4094   */\ntag_76:\n    /* \"#utility.yul\":4118:4156   */\n  tag_78\n    /* \"#utility.yul\":4150:4154   */\n  dup3\n    /* \"#utility.yul\":4144:4155   */\n  sload\n    /* \"#utility.yul\":4118:4156   */\n  tag_11\n  jump\t// in\ntag_78:\n    /* \"#utility.yul\":4203:4270   */\n  tag_79\n    /* \"#utility.yul\":4263:4269   */\n  dup3\n    /* \"#utility.yul\":4255:4261   */\n  dup3\n    /* \"#utility.yul\":4249:4253   */\n  dup6\n    /* \"#utility.yul\":4203:4270   */\n  tag_24\n  jump\t// in\ntag_79:\n    /* \"#utility.yul\":4297:4298   */\n  0x00\n    /* \"#utility.yul\":4321:4325   */\n  0x20\n    /* \"#utility.yul\":4308:4325   */\n  swap1\n  pop\n    /* \"#utility.yul\":4353:4355   */\n  0x1f\n    /* \"#utility.yul\":4345:4351   */\n  dup4\n    /* \"#utility.yul\":4342:4356   */\n  gt\n    /* \"#utility.yul\":4370:4371   */\n  0x01\n    /* \"#utility.yul\":4365:4983   */\n  dup2\n  eq\n  tag_81\n  jumpi\n    /* \"#utility.yul\":5027:5028   */\n  0x00\n    /* \"#utility.yul\":5044:5050   */\n  dup5\n    /* \"#utility.yul\":5041:5118   */\n  iszero\n  tag_82\n  jumpi\n    /* \"#utility.yul\":5093:5102   */\n  dup3\n    /* \"#utility.yul\":5088:5091   */\n  dup8\n    /* \"#utility.yul\":5084:5103   */\n  add\n    /* \"#utility.yul\":5078:5104   */\n  mload\n    /* \"#utility.yul\":5069:5104   */\n  swap1\n  pop\n    /* \"#utility.yul\":5041:5118   */\ntag_82:\n    /* \"#utility.yul\":5144:5211   */\n  tag_83\n    /* \"#utility.yul\":5204:5210   */\n  dup6\n    /* \"#utility.yul\":5197:5202   */\n  dup3\n    /* \"#utility.yul\":5144:5211   */\n  tag_27\n  jump\t// in\ntag_83:\n    /* \"#utility.yul\":5138:5142   */\n  dup7\n    /* \"#utility.yul\":5131:5212   */\n  sstore\n    /* \"#utility.yul\":5000:5222   */\n  pop\n    /* \"#utility.yul\":4335:5222   */\n  jump(tag_80)\n    /* \"#utility.yul\":4365:4983   */\ntag_81:\n    /* \"#utility.yul\":4417:4421   */\n  0x1f\n    /* \"#utility.yul\":4413:4422   */\n  not\n    /* \"#utility.yul\":4405:4411   */\n  dup5\n    /* \"#utility.yul\":4401:4423   */\n  and\n    /* \"#utility.yul\":4451:4488   */\n  tag_84\n    /* \"#utility.yul\":4483:4487   */\n  dup7\n    /* \"#utility.yul\":4451:4488   */\n  tag_12\n  jump\t// in\ntag_84:\n    /* \"#utility.yul\":4510:4511   */\n  0x00\n    /* \"#utility.yul\":4524:4732   */\ntag_85:\n    /* \"#utility.yul\":4538:4545   */\n  dup3\n    /* \"#utility.yul\":4535:4536   */\n  dup2\n    /* \"#utility.yul\":4532:4546   */\n  lt\n    /* \"#utility.yul\":4524:4732   */\n  iszero\n  tag_87\n  jumpi\n    /* \"#utility.yul\":4617:4626   */\n  dup5\n    /* \"#utility.yul\":4612:4615   */\n  dup10\n    /* \"#utility.yul\":4608:4627   */\n  add\n    /* \"#utility.yul\":4602:4628   */\n  mload\n    /* \"#utility.yul\":4594:4600   */\n  dup3\n    /* \"#utility.yul\":4587:4629   */\n  sstore\n    /* \"#utility.yul\":4668:4669   */\n  0x01\n    /* \"#utility.yul\":4660:4666   */\n  dup3\n    /* \"#utility.yul\":4656:4670   */\n  add\n    /* \"#utility.yul\":4646:4670   */\n  swap2\n  pop\n    /* \"#utility.yul\":4715:4717   */\n  0x20\n    /* \"#utility.yul\":4704:4713   */\n  dup6\n    /* \"#utility.yul\":4700:4718   */\n  add\n    /* \"#utility.yul\":4687:4718   */\n  swap5\n  pop\n    /* \"#utility.yul\":4561:4565   */\n  0x20\n    /* \"#utility.yul\":4558:4559   */\n  dup2\n    /* \"#utility.yul\":4554:4566   */\n  add\n    /* \"#utility.yul\":4549:4566   */\n  swap1\n  pop\n    /* \"#utility.yul\":4524:4732   */\n  jump(tag_85)\ntag_87:\n    /* \"#utility.yul\":4760:4766   */\n  dup7\n    /* \"#utility.yul\":4751:4758   */\n  dup4\n    /* \"#utility.yul\":4748:4767   */\n  lt\n    /* \"#utility.yul\":4745:4924   */\n  iszero\n  tag_88\n  jumpi\n    /* \"#utility.yul\":4818:4827   */\n  dup5\n    /* \"#utility.yul\":4813:4816   */\n  dup10\n    /* \"#utility.yul\":4809:4828   */\n  add\n    /* \"#utility.yul\":4803:4829   */\n  mload\n    /* \"#utility.yul\":4861:4909   */\n  tag_89\n    /* \"#utility.yul\":4903:4907   */\n  0x1f\n    /* \"#utility.yul\":4895:4901   */\n  dup10\n    /* \"#utility.yul\":4891:4908   */\n  and\n    /* \"#utility.yul\":4880:4889   */\n  dup3\n    /* \"#utility.yul\":4861:4909   */\n  tag_26\n  jump\t// in\ntag_89:\n    /* \"#utility.yul\":4853:4859   */\n  dup4\n    /* \"#utility.yul\":4846:4910   */\n  sstore\n    /* \"#utility.yul\":4768:4924   */\n  pop\n    /* \"#utility.yul\":4745:4924   */\ntag_88:\n    /* \"#utility.yul\":4970:4971   */\n  0x01\n    /* \"#utility.yul\":4966:4967   */\n  0x02\n    /* \"#utility.yul\":4958:4964   */\n  dup9\n    /* \"#utility.yul\":4954:4968   */\n  mul\n    /* \"#utility.yul\":4950:4972   */\n  add\n    /* \"#utility.yul\":4944:4948   */\n  dup9\n    /* \"#utility.yul\":4937:4973   */\n  sstore\n    /* \"#utility.yul\":4372:4983   */\n  pop\n  pop\n  pop\n    /* \"#utility.yul\":4335:5222   */\ntag_80:\n  pop\n    /* \"#utility.yul\":3925:5228   */\n  pop\n  pop\n  pop\n    /* \"#utility.yul\":3833:5228   */\n  pop\n  pop\n  jump\t// out\n    /* \"src/BattleVictoryNFT.sol\":61:4743  contract BattleVictoryNFT {... */\ntag_7:\n  dataSize(sub_0)\n  dup1\n  dataOffset(sub_0)\n  0x00\n  codecopy\n  0x00\n  return\nstop\n\nsub_0: assembly {\n        /* \"src/BattleVictoryNFT.sol\":61:4743  contract BattleVictoryNFT {... */\n      mstore(0x40, 0x80)\n      callvalue\n      dup1\n      iszero\n      tag_1\n      jumpi\n      revert(0x00, 0x00)\n    tag_1:\n      pop\n      jumpi(tag_2, lt(calldatasize, 0x04))\n      shr(0xe0, calldataload(0x00))\n      dup1\n      0x83c4c00d\n      gt\n      tag_17\n      jumpi\n      dup1\n      0xa02cdee7\n      gt\n      tag_18\n      jumpi\n      dup1\n      0xa02cdee7\n      eq\n      tag_13\n      jumpi\n      dup1\n      0xa22cb465\n      eq\n      tag_14\n      jumpi\n      dup1\n      0xccb570e3\n      eq\n      tag_15\n      jumpi\n      dup1\n      0xe985e9c5\n      eq\n      tag_16\n      jumpi\n      jump(tag_2)\n    tag_18:\n      dup1\n      0x83c4c00d\n      eq\n      tag_10\n      jumpi\n      dup1\n      0x8da5cb5b\n      eq\n      tag_11\n      jumpi\n      dup1\n      0x95d89b41\n      eq\n      tag_12\n      jumpi\n      jump(tag_2)\n    tag_17:\n      dup1\n      0x23b872dd\n      gt\n      tag_19\n      jumpi\n      dup1\n      0x23b872dd\n      eq\n      tag_6\n      jumpi\n      dup1\n      0x3bb3a24d\n      eq\n      tag_7\n      jumpi\n      dup1\n      0x6352211e\n      eq\n      tag_8\n      jumpi\n      dup1\n      0x70a08231\n      eq\n      tag_9\n      jumpi\n      jump(tag_2)\n    tag_19:\n      dup1\n      0x06fdde03\n      eq\n      tag_3\n      jumpi\n      dup1\n      0x081812fc\n      eq\n      tag_4\n      jumpi\n      dup1\n      0x095ea7b3\n      eq\n      tag_5\n      jumpi\n    tag_2:\n      revert(0x00, 0x00)\n        /* \"src/BattleVictoryNFT.sol\":127:168  string public name = \"Battle Victory NFT\" */\n    tag_3:\n      tag_20\n      tag_21\n      jump\t// in\n    tag_20:\n      mload(0x40)\n      tag_22\n      swap2\n      swap1\n      tag_23\n      jump\t// in\n    tag_22:\n      mload(0x40)\n      dup1\n      swap2\n      sub\n      swap1\n      return\n        /* \"src/BattleVictoryNFT.sol\":3795:3990  function getApproved(uint256 tokenId) public view returns (address) {... */\n    tag_4:\n      tag_24\n      0x04\n      dup1\n      calldatasize\n      sub\n      dup2\n      add\n      swap1\n      tag_25\n      swap2\n      swap1\n      tag_26\n      jump\t// in\n    tag_25:\n      tag_27\n      jump\t// in\n    tag_24:\n      mload(0x40)\n      tag_28\n      swap2\n      swap1\n      tag_29\n      jump\t// in\n    tag_28:\n      mload(0x40)\n      dup1\n      swap2\n      sub\n      swap1\n      return\n        /* \"src/BattleVictoryNFT.sol\":3205:3497  function approve(address to, uint256 tokenId) public {... */\n    tag_5:\n      tag_30\n      0x04\n      dup1\n      calldatasize\n      sub\n      dup2\n      add\n      swap1\n      tag_31\n      swap2\n      swap1\n      tag_32\n      jump\t// in\n    tag_31:\n      tag_33\n      jump\t// in\n    tag_30:\n      stop\n        /* \"src/BattleVictoryNFT.sol\":4240:4740  function transferFrom(address from, address to, uint256 tokenId) public {... */\n    tag_6:\n      tag_34\n      0x04\n      dup1\n      calldatasize\n      sub\n      dup2\n      add\n      swap1\n      tag_35\n      swap2\n      swap1\n      tag_36\n      jump\t// in\n    tag_35:\n      tag_37\n      jump\t// in\n    tag_34:\n      stop\n        /* \"src/BattleVictoryNFT.sol\":1330:1526  function getTokenURI(uint256 tokenId) public view returns (string memory) {... */\n    tag_7:\n      tag_38\n      0x04\n      dup1\n      calldatasize\n      sub\n      dup2\n      add\n      swap1\n      tag_39\n      swap2\n      swap1\n      tag_26\n      jump\t// in\n    tag_39:\n      tag_40\n      jump\t// in\n    tag_38:\n      mload(0x40)\n      tag_41\n      swap2\n      swap1\n      tag_23\n      jump\t// in\n    tag_41:\n      mload(0x40)\n      dup1\n      swap2\n      sub\n      swap1\n      return\n        /* \"src/BattleVictoryNFT.sol\":1561:1781  function ownerOf(uint256 tokenId) public view returns (address) {... */\n    tag_8:\n      tag_42\n      0x04\n      dup1\n      calldatasize\n      sub\n      dup2\n      add\n      swap1\n      tag_43\n      swap2\n      swap1\n      tag_26\n      jump\t// in\n    tag_43:\n      tag_44\n      jump\t// in\n    tag_42:\n      mload(0x40)\n      tag_45\n      swap2\n      swap1\n      tag_29\n      jump\t// in\n    tag_45:\n      mload(0x40)\n      dup1\n      swap2\n      sub\n      swap1\n      return\n        /* \"src/BattleVictoryNFT.sol\":1818:1987  function balanceOf(address account) public view returns (uint256) {... */\n    tag_9:\n      tag_46\n      0x04\n      dup1\n      calldatasize\n      sub\n      dup2\n      add\n      swap1\n      tag_47\n      swap2\n      swap1\n      tag_48\n      jump\t// in\n    tag_47:\n      tag_49\n      jump\t// in\n    tag_46:\n      mload(0x40)\n      tag_50\n      swap2\n      swap1\n      tag_51\n      jump\t// in\n    tag_50:\n      mload(0x40)\n      dup1\n      swap2\n      sub\n      swap1\n      return\n        /* \"src/BattleVictoryNFT.sol\":1203:1300  function getLastTokenId() public view returns (uint256) {... */\n    tag_10:\n      tag_52\n      tag_53\n      jump\t// in\n    tag_52:\n      mload(0x40)\n      tag_54\n      swap2\n      swap1\n      tag_51\n      jump\t// in\n    tag_54:\n      mload(0x40)\n      dup1\n      swap2\n      sub\n      swap1\n      return\n        /* \"src/BattleVictoryNFT.sol\":94:114  address public owner */\n    tag_11:\n      tag_55\n      tag_56\n      jump\t// in\n    tag_55:\n      mload(0x40)\n      tag_57\n      swap2\n      swap1\n      tag_29\n      jump\t// in\n    tag_57:\n      mload(0x40)\n      dup1\n      swap2\n      sub\n      swap1\n      return\n        /* \"src/BattleVictoryNFT.sol\":175:205  string public symbol = \"BVNFT\" */\n    tag_12:\n      tag_58\n      tag_59\n      jump\t// in\n    tag_58:\n      mload(0x40)\n      tag_60\n      swap2\n      swap1\n      tag_23\n      jump\t// in\n    tag_60:\n      mload(0x40)\n      dup1\n      swap2\n      sub\n      swap1\n      return\n        /* \"src/BattleVictoryNFT.sol\":2684:3166  function mintBattleNFT(... */\n    tag_13:\n      tag_61\n      0x04\n      dup1\n      calldatasize\n      sub\n      dup2\n      add\n      swap1\n      tag_62\n      swap2\n      swap1\n      tag_63\n      jump\t// in\n    tag_62:\n      tag_64\n      jump\t// in\n    tag_61:\n      mload(0x40)\n      tag_65\n      swap2\n      swap1\n      tag_51\n      jump\t// in\n    tag_65:\n      mload(0x40)\n      dup1\n      swap2\n      sub\n      swap1\n      return\n        /* \"src/BattleVictoryNFT.sol\":3550:3748  function setApprovalForAll(address operator, bool approved) public {... */\n    tag_14:\n      tag_66\n      0x04\n      dup1\n      calldatasize\n      sub\n      dup2\n      add\n      swap1\n      tag_67\n      swap2\n      swap1\n      tag_68\n      jump\t// in\n    tag_67:\n      tag_69\n      jump\t// in\n    tag_66:\n      stop\n        /* \"src/BattleVictoryNFT.sol\":2018:2655  function transfer(... */\n    tag_15:\n      tag_70\n      0x04\n      dup1\n      calldatasize\n      sub\n      dup2\n      add\n      swap1\n      tag_71\n      swap2\n      swap1\n      tag_72\n      jump\t// in\n    tag_71:\n      tag_73\n      jump\t// in\n    tag_70:\n      mload(0x40)\n      tag_74\n      swap2\n      swap1\n      tag_75\n      jump\t// in\n    tag_74:\n      mload(0x40)\n      dup1\n      swap2\n      sub\n      swap1\n      return\n        /* \"src/BattleVictoryNFT.sol\":4044:4192  function isApprovedForAll(address player, address operator) public view returns (bool) {... */\n    tag_16:\n      tag_76\n      0x04\n      dup1\n      calldatasize\n      sub\n      dup2\n      add\n      swap1\n      tag_77\n      swap2\n      swap1\n      tag_78\n      jump\t// in\n    tag_77:\n      tag_79\n      jump\t// in\n    tag_76:\n      mload(0x40)\n      tag_80\n      swap2\n      swap1\n      tag_75\n      jump\t// in\n    tag_80:\n      mload(0x40)\n      dup1\n      swap2\n      sub\n      swap1\n      return\n        /* \"src/BattleVictoryNFT.sol\":127:168  string public name = \"Battle Victory NFT\" */\n    tag_21:\n      0x01\n      dup1\n      sload\n      tag_81\n      swap1\n      tag_82\n      jump\t// in\n    tag_81:\n      dup1\n      0x1f\n      add\n      0x20\n      dup1\n      swap2\n      div\n      mul\n      0x20\n      add\n      mload(0x40)\n      swap1\n      dup2\n      add\n      0x40\n      mstore\n      dup1\n      swap3\n      swap2\n      swap1\n      dup2\n      dup2\n      mstore\n      0x20\n      add\n      dup3\n      dup1\n      sload\n      tag_83\n      swap1\n      tag_82\n      jump\t// in\n    tag_83:\n      dup1\n      iszero\n      tag_84\n      jumpi\n      dup1\n      0x1f\n      lt\n      tag_85\n      jumpi\n      0x0100\n      dup1\n      dup4\n      sload\n      div\n      mul\n      dup4\n      mstore\n      swap2\n      0x20\n      add\n      swap2\n      jump(tag_84)\n    tag_85:\n      dup3\n      add\n      swap2\n      swap1\n      0x00\n      mstore\n      keccak256(0x00, 0x20)\n      swap1\n    tag_86:\n      dup2\n      sload\n      dup2\n      mstore\n      swap1\n      0x01\n      add\n      swap1\n      0x20\n      add\n      dup1\n      dup4\n      gt\n      tag_86\n      jumpi\n      dup3\n      swap1\n      sub\n      0x1f\n      and\n      dup3\n      add\n      swap2\n    tag_84:\n      pop\n      pop\n      pop\n      pop\n      pop\n      dup2\n      jump\t// out\n        /* \"src/BattleVictoryNFT.sol\":3795:3990  function getApproved(uint256 tokenId) public view returns (address) {... */\n    tag_27:\n        /* \"src/BattleVictoryNFT.sol\":3854:3861  address */\n      0x00\n        /* \"src/BattleVictoryNFT.sol\":3914:3915  0 */\n      0x00\n        /* \"src/BattleVictoryNFT.sol\":3882:3916  tokenOwners[tokenId] != address(0) */\n      0xffffffffffffffffffffffffffffffffffffffff\n      and\n        /* \"src/BattleVictoryNFT.sol\":3882:3893  tokenOwners */\n      0x04\n        /* \"src/BattleVictoryNFT.sol\":3882:3902  tokenOwners[tokenId] */\n      0x00\n        /* \"src/BattleVictoryNFT.sol\":3894:3901  tokenId */\n      dup5\n        /* \"src/BattleVictoryNFT.sol\":3882:3902  tokenOwners[tokenId] */\n      dup2\n      mstore\n      0x20\n      add\n      swap1\n      dup2\n      mstore\n      0x20\n      add\n      0x00\n      keccak256\n      0x00\n      swap1\n      sload\n      swap1\n      0x0100\n      exp\n      swap1\n      div\n      0xffffffffffffffffffffffffffffffffffffffff\n      and\n        /* \"src/BattleVictoryNFT.sol\":3882:3916  tokenOwners[tokenId] != address(0) */\n      0xffffffffffffffffffffffffffffffffffffffff\n      and\n      sub\n        /* \"src/BattleVictoryNFT.sol\":3874:3941  require(tokenOwners[tokenId] != address(0), \"Token does not exist\") */\n      tag_88\n      jumpi\n      mload(0x40)\n      0x08c379a000000000000000000000000000000000000000000000000000000000\n      dup2\n      mstore\n      0x04\n      add\n      tag_89\n      swap1\n      tag_90\n      jump\t// in\n    tag_89:\n      mload(0x40)\n      dup1\n      swap2\n      sub\n      swap1\n      revert\n    tag_88:\n        /* \"src/BattleVictoryNFT.sol\":3959:3973  tokenApprovals */\n      0x07\n        /* \"src/BattleVictoryNFT.sol\":3959:3982  tokenApprovals[tokenId] */\n      0x00\n        /* \"src/BattleVictoryNFT.sol\":3974:3981  tokenId */\n      dup4\n        /* \"src/BattleVictoryNFT.sol\":3959:3982  tokenApprovals[tokenId] */\n      dup2\n      mstore\n      0x20\n      add\n      swap1\n      dup2\n      mstore\n      0x20\n      add\n      0x00\n      keccak256\n      0x00\n      swap1\n      sload\n      swap1\n      0x0100\n      exp\n      swap1\n      div\n      0xffffffffffffffffffffffffffffffffffffffff\n      and\n        /* \"src/BattleVictoryNFT.sol\":3952:3982  return tokenApprovals[tokenId] */\n      swap1\n      pop\n        /* \"src/BattleVictoryNFT.sol\":3795:3990  function getApproved(uint256 tokenId) public view returns (address) {... */\n      swap2\n      swap1\n      pop\n      jump\t// out\n        /* \"src/BattleVictoryNFT.sol\":3205:3497  function approve(address to, uint256 tokenId) public {... */\n    tag_33:\n        /* \"src/BattleVictoryNFT.sol\":3269:3283  address player */\n      0x00\n        /* \"src/BattleVictoryNFT.sol\":3286:3297  tokenOwners */\n      0x04\n        /* \"src/BattleVictoryNFT.sol\":3286:3306  tokenOwners[tokenId] */\n      0x00\n        /* \"src/BattleVictoryNFT.sol\":3298:3305  tokenId */\n      dup4\n        /* \"src/BattleVictoryNFT.sol\":3286:3306  tokenOwners[tokenId] */\n      dup2\n      mstore\n      0x20\n      add\n      swap1\n      dup2\n      mstore\n      0x20\n      add\n      0x00\n      keccak256\n      0x00\n      swap1\n      sload\n      swap1\n      0x0100\n      exp\n      swap1\n      div\n      0xffffffffffffffffffffffffffffffffffffffff\n      and\n        /* \"src/BattleVictoryNFT.sol\":3269:3306  address player = tokenOwners[tokenId] */\n      swap1\n      pop\n        /* \"src/BattleVictoryNFT.sol\":3339:3345  player */\n      dup1\n        /* \"src/BattleVictoryNFT.sol\":3325:3345  msg.sender == player */\n      0xffffffffffffffffffffffffffffffffffffffff\n      and\n        /* \"src/BattleVictoryNFT.sol\":3325:3335  msg.sender */\n      caller\n        /* \"src/BattleVictoryNFT.sol\":3325:3345  msg.sender == player */\n      0xffffffffffffffffffffffffffffffffffffffff\n      and\n      eq\n        /* \"src/BattleVictoryNFT.sol\":3325:3386  msg.sender == player || operatorApprovals[player][msg.sender] */\n      dup1\n      tag_92\n      jumpi\n      pop\n        /* \"src/BattleVictoryNFT.sol\":3349:3366  operatorApprovals */\n      0x08\n        /* \"src/BattleVictoryNFT.sol\":3349:3374  operatorApprovals[player] */\n      0x00\n        /* \"src/BattleVictoryNFT.sol\":3367:3373  player */\n      dup3\n        /* \"src/BattleVictoryNFT.sol\":3349:3374  operatorApprovals[player] */\n      0xffffffffffffffffffffffffffffffffffffffff\n      and\n      0xffffffffffffffffffffffffffffffffffffffff\n      and\n      dup2\n      mstore\n      0x20\n      add\n      swap1\n      dup2\n      mstore\n      0x20\n      add\n      0x00\n      keccak256\n        /* \"src/BattleVictoryNFT.sol\":3349:3386  operatorApprovals[player][msg.sender] */\n      0x00\n        /* \"src/BattleVictoryNFT.sol\":3375:3385  msg.sender */\n      caller\n        /* \"src/BattleVictoryNFT.sol\":3349:3386  operatorApprovals[player][msg.sender] */\n      0xffffffffffffffffffffffffffffffffffffffff\n      and\n      0xffffffffffffffffffffffffffffffffffffffff\n      and\n      dup2\n      mstore\n      0x20\n      add\n      swap1\n      dup2\n      mstore\n      0x20\n      add\n      0x00\n      keccak256\n      0x00\n      swap1\n      sload\n      swap1\n      0x0100\n      exp\n      swap1\n      div\n      0xff\n      and\n        /* \"src/BattleVictoryNFT.sol\":3325:3386  msg.sender == player || operatorApprovals[player][msg.sender] */\n    tag_92:\n        /* \"src/BattleVictoryNFT.sol\":3317:3405  require(msg.sender == player || operatorApprovals[player][msg.sender], \"Not authorized\") */\n      tag_93\n      jumpi\n      mload(0x40)\n      0x08c379a000000000000000000000000000000000000000000000000000000000\n      dup2\n      mstore\n      0x04\n      add\n      tag_94\n      swap1\n      tag_95\n      jump\t// in\n    tag_94:\n      mload(0x40)\n      dup1\n      swap2\n      sub\n      swap1\n      revert\n    tag_93:\n        /* \"src/BattleVictoryNFT.sol\":3442:3444  to */\n      dup3\n        /* \"src/BattleVictoryNFT.sol\":3416:3430  tokenApprovals */\n      0x07\n        /* \"src/BattleVictoryNFT.sol\":3416:3439  tokenApprovals[tokenId] */\n      0x00\n        /* \"src/BattleVictoryNFT.sol\":3431:3438  tokenId */\n      dup5\n        /* \"src/BattleVictoryNFT.sol\":3416:3439  tokenApprovals[tokenId] */\n      dup2\n      mstore\n      0x20\n      add\n      swap1\n      dup2\n      mstore\n      0x20\n      add\n      0x00\n      keccak256\n      0x00\n        /* \"src/BattleVictoryNFT.sol\":3416:3444  tokenApprovals[tokenId] = to */\n      0x0100\n      exp\n      dup2\n      sload\n      dup2\n      0xffffffffffffffffffffffffffffffffffffffff\n      mul\n      not\n      and\n      swap1\n      dup4\n      0xffffffffffffffffffffffffffffffffffffffff\n      and\n      mul\n      or\n      swap1\n      sstore\n      pop\n        /* \"src/BattleVictoryNFT.sol\":3481:3488  tokenId */\n      dup2\n        /* \"src/BattleVictoryNFT.sol\":3477:3479  to */\n      dup4\n        /* \"src/BattleVictoryNFT.sol\":3460:3489  Approval(player, to, tokenId) */\n      0xffffffffffffffffffffffffffffffffffffffff\n      and\n        /* \"src/BattleVictoryNFT.sol\":3469:3475  player */\n      dup3\n        /* \"src/BattleVictoryNFT.sol\":3460:3489  Approval(player, to, tokenId) */\n      0xffffffffffffffffffffffffffffffffffffffff\n      and\n      0x8c5be1e5ebec7d5bd14f71427d1e84f3dd0314c0f7b2291e5b200ac8c7c3b925\n      mload(0x40)\n      mload(0x40)\n      dup1\n      swap2\n      sub\n      swap1\n      log4\n        /* \"src/BattleVictoryNFT.sol\":3258:3497  {... */\n      pop\n        /* \"src/BattleVictoryNFT.sol\":3205:3497  function approve(address to, uint256 tokenId) public {... */\n      pop\n      pop\n      jump\t// out\n        /* \"src/BattleVictoryNFT.sol\":4240:4740  function transferFrom(address from, address to, uint256 tokenId) public {... */\n    tag_37:\n        /* \"src/BattleVictoryNFT.sol\":4355:4359  from */\n      dup3\n        /* \"src/BattleVictoryNFT.sol\":4331:4359  tokenOwners[tokenId] == from */\n      0xffffffffffffffffffffffffffffffffffffffff\n      and\n        /* \"src/BattleVictoryNFT.sol\":4331:4342  tokenOwners */\n      0x04\n        /* \"src/BattleVictoryNFT.sol\":4331:4351  tokenOwners[tokenId] */\n      0x00\n        /* \"src/BattleVictoryNFT.sol\":4343:4350  tokenId */\n      dup4\n        /* \"src/BattleVictoryNFT.sol\":4331:4351  tokenOwners[tokenId] */\n      dup2\n      mstore\n      0x20\n      add\n      swap1\n      dup2\n      mstore\n      0x20\n      add\n      0x00\n      keccak256\n      0x00\n      swap1\n      sload\n      swap1\n      0x0100\n      exp\n      swap1\n      div\n      0xffffffffffffffffffffffffffffffffffffffff\n      and\n        /* \"src/BattleVictoryNFT.sol\":4331:4359  tokenOwners[tokenId] == from */\n      0xffffffffffffffffffffffffffffffffffffffff\n      and\n      eq\n        /* \"src/BattleVictoryNFT.sol\":4323:4377  require(tokenOwners[tokenId] == from, \"Not the owner\") */\n      tag_97\n      jumpi\n      mload(0x40)\n      0x08c379a000000000000000000000000000000000000000000000000000000000\n      dup2\n      mstore\n      0x04\n      add\n      tag_98\n      swap1\n      tag_99\n      jump\t// in\n    tag_98:\n      mload(0x40)\n      dup1\n      swap2\n      sub\n      swap1\n      revert\n    tag_97:\n        /* \"src/BattleVictoryNFT.sol\":4424:4428  from */\n      dup3\n        /* \"src/BattleVictoryNFT.sol\":4410:4428  msg.sender == from */\n      0xffffffffffffffffffffffffffffffffffffffff\n      and\n        /* \"src/BattleVictoryNFT.sol\":4410:4420  msg.sender */\n      caller\n        /* \"src/BattleVictoryNFT.sol\":4410:4428  msg.sender == from */\n      0xffffffffffffffffffffffffffffffffffffffff\n      and\n      eq\n        /* \"src/BattleVictoryNFT.sol\":4410:4469  msg.sender == from || msg.sender == tokenApprovals[tokenId] */\n      dup1\n      tag_100\n      jumpi\n      pop\n        /* \"src/BattleVictoryNFT.sol\":4446:4460  tokenApprovals */\n      0x07\n        /* \"src/BattleVictoryNFT.sol\":4446:4469  tokenApprovals[tokenId] */\n      0x00\n        /* \"src/BattleVictoryNFT.sol\":4461:4468  tokenId */\n      dup3\n        /* \"src/BattleVictoryNFT.sol\":4446:4469  tokenApprovals[tokenId] */\n      dup2\n      mstore\n      0x20\n      add\n      swap1\n      dup2\n      mstore\n      0x20\n      add\n      0x00\n      keccak256\n      0x00\n      swap1\n      sload\n      swap1\n      0x0100\n      exp\n      swap1\n      div\n      0xffffffffffffffffffffffffffffffffffffffff\n      and\n        /* \"src/BattleVictoryNFT.sol\":4432:4469  msg.sender == tokenApprovals[tokenId] */\n      0xffffffffffffffffffffffffffffffffffffffff\n      and\n        /* \"src/BattleVictoryNFT.sol\":4432:4442  msg.sender */\n      caller\n        /* \"src/BattleVictoryNFT.sol\":4432:4469  msg.sender == tokenApprovals[tokenId] */\n      0xffffffffffffffffffffffffffffffffffffffff\n      and\n      eq\n        /* \"src/BattleVictoryNFT.sol\":4410:4469  msg.sender == from || msg.sender == tokenApprovals[tokenId] */\n    tag_100:\n        /* \"src/BattleVictoryNFT.sol\":4410:4508  msg.sender == from || msg.sender == tokenApprovals[tokenId] || operatorApprovals[from][msg.sender] */\n      dup1\n      tag_101\n      jumpi\n      pop\n        /* \"src/BattleVictoryNFT.sol\":4473:4490  operatorApprovals */\n      0x08\n        /* \"src/BattleVictoryNFT.sol\":4473:4496  operatorApprovals[from] */\n      0x00\n        /* \"src/BattleVictoryNFT.sol\":4491:4495  from */\n      dup5\n        /* \"src/BattleVictoryNFT.sol\":4473:4496  operatorApprovals[from] */\n      0xffffffffffffffffffffffffffffffffffffffff\n      and\n      0xffffffffffffffffffffffffffffffffffffffff\n      and\n      dup2\n      mstore\n      0x20\n      add\n      swap1\n      dup2\n      mstore\n      0x20\n      add\n      0x00\n      keccak256\n        /* \"src/BattleVictoryNFT.sol\":4473:4508  operatorApprovals[from][msg.sender] */\n      0x00\n        /* \"src/BattleVictoryNFT.sol\":4497:4507  msg.sender */\n      caller\n        /* \"src/BattleVictoryNFT.sol\":4473:4508  operatorApprovals[from][msg.sender] */\n      0xffffffffffffffffffffffffffffffffffffffff\n      and\n      0xffffffffffffffffffffffffffffffffffffffff\n      and\n      dup2\n      mstore\n      0x20\n      add\n      swap1\n      dup2\n      mstore\n      0x20\n      add\n      0x00\n      keccak256\n      0x00\n      swap1\n      sload\n      swap1\n      0x0100\n      exp\n      swap1\n      div\n      0xff\n      and\n        /* \"src/BattleVictoryNFT.sol\":4410:4508  msg.sender == from || msg.sender == tokenApprovals[tokenId] || operatorApprovals[from][msg.sender] */\n    tag_101:\n        /* \"src/BattleVictoryNFT.sol\":4388:4550  require(... */\n      tag_102\n      jumpi\n      mload(0x40)\n      0x08c379a000000000000000000000000000000000000000000000000000000000\n      dup2\n      mstore\n      0x04\n      add\n      tag_103\n      swap1\n      tag_95\n      jump\t// in\n    tag_103:\n      mload(0x40)\n      dup1\n      swap2\n      sub\n      swap1\n      revert\n    tag_102:\n        /* \"src/BattleVictoryNFT.sol\":4597:4598  0 */\n      0x00\n        /* \"src/BattleVictoryNFT.sol\":4563:4577  tokenApprovals */\n      0x07\n        /* \"src/BattleVictoryNFT.sol\":4563:4586  tokenApprovals[tokenId] */\n      0x00\n        /* \"src/BattleVictoryNFT.sol\":4578:4585  tokenId */\n      dup4\n        /* \"src/BattleVictoryNFT.sol\":4563:4586  tokenApprovals[tokenId] */\n      dup2\n      mstore\n      0x20\n      add\n      swap1\n      dup2\n      mstore\n      0x20\n      add\n      0x00\n      keccak256\n      0x00\n        /* \"src/BattleVictoryNFT.sol\":4563:4599  tokenApprovals[tokenId] = address(0) */\n      0x0100\n      exp\n      dup2\n      sload\n      dup2\n      0xffffffffffffffffffffffffffffffffffffffff\n      mul\n      not\n      and\n      swap1\n      dup4\n      0xffffffffffffffffffffffffffffffffffffffff\n      and\n      mul\n      or\n      swap1\n      sstore\n      pop\n        /* \"src/BattleVictoryNFT.sol\":4610:4618  balances */\n      0x06\n        /* \"src/BattleVictoryNFT.sol\":4610:4624  balances[from] */\n      0x00\n        /* \"src/BattleVictoryNFT.sol\":4619:4623  from */\n      dup5\n        /* \"src/BattleVictoryNFT.sol\":4610:4624  balances[from] */\n      0xffffffffffffffffffffffffffffffffffffffff\n      and\n      0xffffffffffffffffffffffffffffffffffffffff\n      and\n      dup2\n      mstore\n      0x20\n      add\n      swap1\n      dup2\n      mstore\n      0x20\n      add\n      0x00\n      keccak256\n      0x00\n        /* \"src/BattleVictoryNFT.sol\":4610:4626  balances[from]-- */\n      dup2\n      sload\n      dup1\n      swap3\n      swap2\n      swap1\n      tag_104\n      swap1\n      tag_105\n      jump\t// in\n    tag_104:\n      swap2\n      swap1\n      pop\n      sstore\n      pop\n        /* \"src/BattleVictoryNFT.sol\":4637:4645  balances */\n      0x06\n        /* \"src/BattleVictoryNFT.sol\":4637:4649  balances[to] */\n      0x00\n        /* \"src/BattleVictoryNFT.sol\":4646:4648  to */\n      dup4\n        /* \"src/BattleVictoryNFT.sol\":4637:4649  balances[to] */\n      0xffffffffffffffffffffffffffffffffffffffff\n      and\n      0xffffffffffffffffffffffffffffffffffffffff\n      and\n      dup2\n      mstore\n      0x20\n      add\n      swap1\n      dup2\n      mstore\n      0x20\n      add\n      0x00\n      keccak256\n      0x00\n        /* \"src/BattleVictoryNFT.sol\":4637:4651  balances[to]++ */\n      dup2\n      sload\n      dup1\n      swap3\n      swap2\n      swap1\n      tag_106\n      swap1\n      tag_107\n      jump\t// in\n    tag_106:\n      swap2\n      swap1\n      pop\n      sstore\n      pop\n        /* \"src/BattleVictoryNFT.sol\":4685:4687  to */\n      dup2\n        /* \"src/BattleVictoryNFT.sol\":4662:4673  tokenOwners */\n      0x04\n        /* \"src/BattleVictoryNFT.sol\":4662:4682  tokenOwners[tokenId] */\n      0x00\n        /* \"src/BattleVictoryNFT.sol\":4674:4681  tokenId */\n      dup4\n        /* \"src/BattleVictoryNFT.sol\":4662:4682  tokenOwners[tokenId] */\n      dup2\n      mstore\n      0x20\n      add\n      swap1\n      dup2\n      mstore\n      0x20\n      add\n      0x00\n      keccak256\n      0x00\n        /* \"src/BattleVictoryNFT.sol\":4662:4687  tokenOwners[tokenId] = to */\n      0x0100\n      exp\n      dup2\n      sload\n      dup2\n      0xffffffffffffffffffffffffffffffffffffffff\n      mul\n      not\n      and\n      swap1\n      dup4\n      0xffffffffffffffffffffffffffffffffffffffff\n      and\n      mul\n      or\n      swap1\n      sstore\n      pop\n        /* \"src/BattleVictoryNFT.sol\":4724:4731  tokenId */\n      dup1\n        /* \"src/BattleVictoryNFT.sol\":4720:4722  to */\n      dup3\n        /* \"src/BattleVictoryNFT.sol\":4705:4732  Transfer(from, to, tokenId) */\n      0xffffffffffffffffffffffffffffffffffffffff\n      and\n        /* \"src/BattleVictoryNFT.sol\":4714:4718  from */\n      dup5\n        /* \"src/BattleVictoryNFT.sol\":4705:4732  Transfer(from, to, tokenId) */\n      0xffffffffffffffffffffffffffffffffffffffff\n      and\n      0xddf252ad1be2c89b69c2b068fc378daa952ba7f163c4a11628f55a4df523b3ef\n      mload(0x40)\n      mload(0x40)\n      dup1\n      swap2\n      sub\n      swap1\n      log4\n        /* \"src/BattleVictoryNFT.sol\":4240:4740  function transferFrom(address from, address to, uint256 tokenId) public {... */\n      pop\n      pop\n      pop\n      jump\t// out\n        /* \"src/BattleVictoryNFT.sol\":1330:1526  function getTokenURI(uint256 tokenId) public view returns (string memory) {... */\n    tag_40:\n        /* \"src/BattleVictoryNFT.sol\":1389:1402  string memory */\n      0x60\n        /* \"src/BattleVictoryNFT.sol\":1455:1456  0 */\n      0x00\n        /* \"src/BattleVictoryNFT.sol\":1423:1457  tokenOwners[tokenId] != address(0) */\n      0xffffffffffffffffffffffffffffffffffffffff\n      and\n        /* \"src/BattleVictoryNFT.sol\":1423:1434  tokenOwners */\n      0x04\n        /* \"src/BattleVictoryNFT.sol\":1423:1443  tokenOwners[tokenId] */\n      0x00\n        /* \"src/BattleVictoryNFT.sol\":1435:1442  tokenId */\n      dup5\n        /* \"src/BattleVictoryNFT.sol\":1423:1443  tokenOwners[tokenId] */\n      dup2\n      mstore\n      0x20\n      add\n      swap1\n      dup2\n      mstore\n      0x20\n      add\n      0x00\n      keccak256\n      0x00\n      swap1\n      sload\n      swap1\n      0x0100\n      exp\n      swap1\n      div\n      0xffffffffffffffffffffffffffffffffffffffff\n      and\n        /* \"src/BattleVictoryNFT.sol\":1423:1457  tokenOwners[tokenId] != address(0) */\n      0xffffffffffffffffffffffffffffffffffffffff\n      and\n      sub\n        /* \"src/BattleVictoryNFT.sol\":1415:1482  require(tokenOwners[tokenId] != address(0), \"Token does not exist\") */\n      tag_109\n      jumpi\n      mload(0x40)\n      0x08c379a000000000000000000000000000000000000000000000000000000000\n      dup2\n      mstore\n      0x04\n      add\n      tag_110\n      swap1\n      tag_90\n      jump\t// in\n    tag_110:\n      mload(0x40)\n      dup1\n      swap2\n      sub\n      swap1\n      revert\n    tag_109:\n        /* \"src/BattleVictoryNFT.sol\":1500:1509  tokenURIs */\n      0x05\n        /* \"src/BattleVictoryNFT.sol\":1500:1518  tokenURIs[tokenId] */\n      0x00\n        /* \"src/BattleVictoryNFT.sol\":1510:1517  tokenId */\n      dup4\n        /* \"src/BattleVictoryNFT.sol\":1500:1518  tokenURIs[tokenId] */\n      dup2\n      mstore\n      0x20\n      add\n      swap1\n      dup2\n      mstore\n      0x20\n      add\n      0x00\n      keccak256\n        /* \"src/BattleVictoryNFT.sol\":1493:1518  return tokenURIs[tokenId] */\n      dup1\n      sload\n      tag_111\n      swap1\n      tag_82\n      jump\t// in\n    tag_111:\n      dup1\n      0x1f\n      add\n      0x20\n      dup1\n      swap2\n      div\n      mul\n      0x20\n      add\n      mload(0x40)\n      swap1\n      dup2\n      add\n      0x40\n      mstore\n      dup1\n      swap3\n      swap2\n      swap1\n      dup2\n      dup2\n      mstore\n      0x20\n      add\n      dup3\n      dup1\n      sload\n      tag_112\n      swap1\n      tag_82\n      jump\t// in\n    tag_112:\n      dup1\n      iszero\n      tag_113\n      jumpi\n      dup1\n      0x1f\n      lt\n      tag_114\n      jumpi\n      0x0100\n      dup1\n      dup4\n      sload\n      div\n      mul\n      dup4\n      mstore\n      swap2\n      0x20\n      add\n      swap2\n      jump(tag_113)\n    tag_114:\n      dup3\n      add\n      swap2\n      swap1\n      0x00\n      mstore\n      keccak256(0x00, 0x20)\n      swap1\n    tag_115:\n      dup2\n      sload\n      dup2\n      mstore\n      swap1\n      0x01\n      add\n      swap1\n      0x20\n      add\n      dup1\n      dup4\n      gt\n      tag_115\n      jumpi\n      dup3\n      swap1\n      sub\n      0x1f\n      and\n      dup3\n      add\n      swap2\n    tag_113:\n      pop\n      pop\n      pop\n      pop\n      pop\n      swap1\n      pop\n        /* \"src/BattleVictoryNFT.sol\":1330:1526  function getTokenURI(uint256 tokenId) public view returns (string memory) {... */\n      swap2\n      swap1\n      pop\n      jump\t// out\n        /* \"src/BattleVictoryNFT.sol\":1561:1781  function ownerOf(uint256 tokenId) public view returns (address) {... */\n    tag_44:\n        /* \"src/BattleVictoryNFT.sol\":1616:1623  address */\n      0x00\n        /* \"src/BattleVictoryNFT.sol\":1636:1654  address tokenOwner */\n      0x00\n        /* \"src/BattleVictoryNFT.sol\":1657:1668  tokenOwners */\n      0x04\n        /* \"src/BattleVictoryNFT.sol\":1657:1677  tokenOwners[tokenId] */\n      0x00\n        /* \"src/BattleVictoryNFT.sol\":1669:1676  tokenId */\n      dup5\n        /* \"src/BattleVictoryNFT.sol\":1657:1677  tokenOwners[tokenId] */\n      dup2\n      mstore\n      0x20\n      add\n      swap1\n      dup2\n      mstore\n      0x20\n      add\n      0x00\n      keccak256\n      0x00\n      swap1\n      sload\n      swap1\n      0x0100\n      exp\n      swap1\n      div\n      0xffffffffffffffffffffffffffffffffffffffff\n      and\n        /* \"src/BattleVictoryNFT.sol\":1636:1677  address tokenOwner = tokenOwners[tokenId] */\n      swap1\n      pop\n        /* \"src/BattleVictoryNFT.sol\":1718:1719  0 */\n      0x00\n        /* \"src/BattleVictoryNFT.sol\":1696:1720  tokenOwner != address(0) */\n      0xffffffffffffffffffffffffffffffffffffffff\n      and\n        /* \"src/BattleVictoryNFT.sol\":1696:1706  tokenOwner */\n      dup2\n        /* \"src/BattleVictoryNFT.sol\":1696:1720  tokenOwner != address(0) */\n      0xffffffffffffffffffffffffffffffffffffffff\n      and\n      sub\n        /* \"src/BattleVictoryNFT.sol\":1688:1745  require(tokenOwner != address(0), \"Token does not exist\") */\n      tag_117\n      jumpi\n      mload(0x40)\n      0x08c379a000000000000000000000000000000000000000000000000000000000\n      dup2\n      mstore\n      0x04\n      add\n      tag_118\n      swap1\n      tag_90\n      jump\t// in\n    tag_118:\n      mload(0x40)\n      dup1\n      swap2\n      sub\n      swap1\n      revert\n    tag_117:\n        /* \"src/BattleVictoryNFT.sol\":1763:1773  tokenOwner */\n      dup1\n        /* \"src/BattleVictoryNFT.sol\":1756:1773  return tokenOwner */\n      swap2\n      pop\n      pop\n        /* \"src/BattleVictoryNFT.sol\":1561:1781  function ownerOf(uint256 tokenId) public view returns (address) {... */\n      swap2\n      swap1\n      pop\n      jump\t// out\n        /* \"src/BattleVictoryNFT.sol\":1818:1987  function balanceOf(address account) public view returns (uint256) {... */\n    tag_49:\n        /* \"src/BattleVictoryNFT.sol\":1875:1882  uint256 */\n      0x00\n        /* \"src/BattleVictoryNFT.sol\":1922:1923  0 */\n      0x00\n        /* \"src/BattleVictoryNFT.sol\":1903:1924  account != address(0) */\n      0xffffffffffffffffffffffffffffffffffffffff\n      and\n        /* \"src/BattleVictoryNFT.sol\":1903:1910  account */\n      dup3\n        /* \"src/BattleVictoryNFT.sol\":1903:1924  account != address(0) */\n      0xffffffffffffffffffffffffffffffffffffffff\n      and\n      sub\n        /* \"src/BattleVictoryNFT.sol\":1895:1944  require(account != address(0), \"Invalid address\") */\n      tag_120\n      jumpi\n      mload(0x40)\n      0x08c379a000000000000000000000000000000000000000000000000000000000\n      dup2\n      mstore\n      0x04\n      add\n      tag_121\n      swap1\n      tag_122\n      jump\t// in\n    tag_121:\n      mload(0x40)\n      dup1\n      swap2\n      sub\n      swap1\n      revert\n    tag_120:\n        /* \"src/BattleVictoryNFT.sol\":1962:1970  balances */\n      0x06\n        /* \"src/BattleVictoryNFT.sol\":1962:1979  balances[account] */\n      0x00\n        /* \"src/BattleVictoryNFT.sol\":1971:1978  account */\n      dup4\n        /* \"src/BattleVictoryNFT.sol\":1962:1979  balances[account] */\n      0xffffffffffffffffffffffffffffffffffffffff\n      and\n      0xffffffffffffffffffffffffffffffffffffffff\n      and\n      dup2\n      mstore\n      0x20\n      add\n      swap1\n      dup2\n      mstore\n      0x20\n      add\n      0x00\n      keccak256\n      sload\n        /* \"src/BattleVictoryNFT.sol\":1955:1979  return balances[account] */\n      swap1\n      pop\n        /* \"src/BattleVictoryNFT.sol\":1818:1987  function balanceOf(address account) public view returns (uint256) {... */\n      swap2\n      swap1\n      pop\n      jump\t// out\n        /* \"src/BattleVictoryNFT.sol\":1203:1300  function getLastTokenId() public view returns (uint256) {... */\n    tag_53:\n        /* \"src/BattleVictoryNFT.sol\":1250:1257  uint256 */\n      0x00\n        /* \"src/BattleVictoryNFT.sol\":1291:1292  1 */\n      0x01\n        /* \"src/BattleVictoryNFT.sol\":1277:1288  nextTokenId */\n      sload(0x03)\n        /* \"src/BattleVictoryNFT.sol\":1277:1292  nextTokenId - 1 */\n      tag_124\n      swap2\n      swap1\n      tag_125\n      jump\t// in\n    tag_124:\n        /* \"src/BattleVictoryNFT.sol\":1270:1292  return nextTokenId - 1 */\n      swap1\n      pop\n        /* \"src/BattleVictoryNFT.sol\":1203:1300  function getLastTokenId() public view returns (uint256) {... */\n      swap1\n      jump\t// out\n        /* \"src/BattleVictoryNFT.sol\":94:114  address public owner */\n    tag_56:\n      0x00\n      0x00\n      swap1\n      sload\n      swap1\n      0x0100\n      exp\n      swap1\n      div\n      0xffffffffffffffffffffffffffffffffffffffff\n      and\n      dup2\n      jump\t// out\n        /* \"src/BattleVictoryNFT.sol\":175:205  string public symbol = \"BVNFT\" */\n    tag_59:\n      0x02\n      dup1\n      sload\n      tag_126\n      swap1\n      tag_82\n      jump\t// in\n    tag_126:\n      dup1\n      0x1f\n      add\n      0x20\n      dup1\n      swap2\n      div\n      mul\n      0x20\n      add\n      mload(0x40)\n      swap1\n      dup2\n      add\n      0x40\n      mstore\n      dup1\n      swap3\n      swap2\n      swap1\n      dup2\n      dup2\n      mstore\n      0x20\n      add\n      dup3\n      dup1\n      sload\n      tag_127\n      swap1\n      tag_82\n      jump\t// in\n    tag_127:\n      dup1\n      iszero\n      tag_128\n      jumpi\n      dup1\n      0x1f\n      lt\n      tag_129\n      jumpi\n      0x0100\n      dup1\n      dup4\n      sload\n      div\n      mul\n      dup4\n      mstore\n      swap2\n      0x20\n      add\n      swap2\n      jump(tag_128)\n    tag_129:\n      dup3\n      add\n      swap2\n      swap1\n      0x00\n      mstore\n      keccak256(0x00, 0x20)\n      swap1\n    tag_130:\n      dup2\n      sload\n      dup2\n      mstore\n      swap1\n      0x01\n      add\n      swap1\n      0x20\n      add\n      dup1\n      dup4\n      gt\n      tag_130\n      jumpi\n      dup3\n      swap1\n      sub\n      0x1f\n      and\n      dup3\n      add\n      swap2\n    tag_128:\n      pop\n      pop\n      pop\n      pop\n      pop\n      dup2\n      jump\t// out\n        /* \"src/BattleVictoryNFT.sol\":2684:3166  function mintBattleNFT(... */\n    tag_64:\n        /* \"src/BattleVictoryNFT.sol\":2804:2811  uint256 */\n      0x00\n        /* \"src/BattleVictoryNFT.sol\":1125:1130  owner */\n      0x00\n      0x00\n      swap1\n      sload\n      swap1\n      0x0100\n      exp\n      swap1\n      div\n      0xffffffffffffffffffffffffffffffffffffffff\n      and\n        /* \"src/BattleVictoryNFT.sol\":1111:1130  msg.sender == owner */\n      0xffffffffffffffffffffffffffffffffffffffff\n      and\n        /* \"src/BattleVictoryNFT.sol\":1111:1121  msg.sender */\n      caller\n        /* \"src/BattleVictoryNFT.sol\":1111:1130  msg.sender == owner */\n      0xffffffffffffffffffffffffffffffffffffffff\n      and\n      eq\n        /* \"src/BattleVictoryNFT.sol\":1103:1149  require(msg.sender == owner, \"Not authorized\") */\n      tag_132\n      jumpi\n      mload(0x40)\n      0x08c379a000000000000000000000000000000000000000000000000000000000\n      dup2\n      mstore\n      0x04\n      add\n      tag_133\n      swap1\n      tag_95\n      jump\t// in\n    tag_133:\n      mload(0x40)\n      dup1\n      swap2\n      sub\n      swap1\n      revert\n    tag_132:\n        /* \"src/BattleVictoryNFT.sol\":2853:2854  0 */\n      0x00\n        /* \"src/BattleVictoryNFT.sol\":2832:2855  recipient != address(0) */\n      0xffffffffffffffffffffffffffffffffffffffff\n      and\n        /* \"src/BattleVictoryNFT.sol\":2832:2841  recipient */\n      dup4\n        /* \"src/BattleVictoryNFT.sol\":2832:2855  recipient != address(0) */\n      0xffffffffffffffffffffffffffffffffffffffff\n      and\n      sub\n        /* \"src/BattleVictoryNFT.sol\":2824:2877  require(recipient != address(0), \"Invalid recipient\") */\n      tag_135\n      jumpi\n      mload(0x40)\n      0x08c379a000000000000000000000000000000000000000000000000000000000\n      dup2\n      mstore\n      0x04\n      add\n      tag_136\n      swap1\n      tag_137\n      jump\t// in\n    tag_136:\n      mload(0x40)\n      dup1\n      swap2\n      sub\n      swap1\n      revert\n    tag_135:\n        /* \"src/BattleVictoryNFT.sol\":2890:2907  uint256 currentId */\n      0x00\n        /* \"src/BattleVictoryNFT.sol\":2910:2921  nextTokenId */\n      sload(0x03)\n        /* \"src/BattleVictoryNFT.sol\":2890:2921  uint256 currentId = nextTokenId */\n      swap1\n      pop\n        /* \"src/BattleVictoryNFT.sol\":2932:2943  nextTokenId */\n      0x03\n      0x00\n        /* \"src/BattleVictoryNFT.sol\":2932:2945  nextTokenId++ */\n      dup2\n      sload\n      dup1\n      swap3\n      swap2\n      swap1\n      tag_138\n      swap1\n      tag_107\n      jump\t// in\n    tag_138:\n      swap2\n      swap1\n      pop\n      sstore\n      pop\n        /* \"src/BattleVictoryNFT.sol\":2983:2992  recipient */\n      dup4\n        /* \"src/BattleVictoryNFT.sol\":2958:2969  tokenOwners */\n      0x04\n        /* \"src/BattleVictoryNFT.sol\":2958:2980  tokenOwners[currentId] */\n      0x00\n        /* \"src/BattleVictoryNFT.sol\":2970:2979  currentId */\n      dup4\n        /* \"src/BattleVictoryNFT.sol\":2958:2980  tokenOwners[currentId] */\n      dup2\n      mstore\n      0x20\n      add\n      swap1\n      dup2\n      mstore\n      0x20\n      add\n      0x00\n      keccak256\n      0x00\n        /* \"src/BattleVictoryNFT.sol\":2958:2992  tokenOwners[currentId] = recipient */\n      0x0100\n      exp\n      dup2\n      sload\n      dup2\n      0xffffffffffffffffffffffffffffffffffffffff\n      mul\n      not\n      and\n      swap1\n      dup4\n      0xffffffffffffffffffffffffffffffffffffffff\n      and\n      mul\n      or\n      swap1\n      sstore\n      pop\n        /* \"src/BattleVictoryNFT.sol\":3003:3011  balances */\n      0x06\n        /* \"src/BattleVictoryNFT.sol\":3003:3022  balances[recipient] */\n      0x00\n        /* \"src/BattleVictoryNFT.sol\":3012:3021  recipient */\n      dup6\n        /* \"src/BattleVictoryNFT.sol\":3003:3022  balances[recipient] */\n      0xffffffffffffffffffffffffffffffffffffffff\n      and\n      0xffffffffffffffffffffffffffffffffffffffff\n      and\n      dup2\n      mstore\n      0x20\n      add\n      swap1\n      dup2\n      mstore\n      0x20\n      add\n      0x00\n      keccak256\n      0x00\n        /* \"src/BattleVictoryNFT.sol\":3003:3024  balances[recipient]++ */\n      dup2\n      sload\n      dup1\n      swap3\n      swap2\n      swap1\n      tag_139\n      swap1\n      tag_107\n      jump\t// in\n    tag_139:\n      swap2\n      swap1\n      pop\n      sstore\n      pop\n        /* \"src/BattleVictoryNFT.sol\":3058:3069  metadataUri */\n      dup3\n        /* \"src/BattleVictoryNFT.sol\":3035:3044  tokenURIs */\n      0x05\n        /* \"src/BattleVictoryNFT.sol\":3035:3055  tokenURIs[currentId] */\n      0x00\n        /* \"src/BattleVictoryNFT.sol\":3045:3054  currentId */\n      dup4\n        /* \"src/BattleVictoryNFT.sol\":3035:3055  tokenURIs[currentId] */\n      dup2\n      mstore\n      0x20\n      add\n      swap1\n      dup2\n      mstore\n      0x20\n      add\n      0x00\n      keccak256\n        /* \"src/BattleVictoryNFT.sol\":3035:3069  tokenURIs[currentId] = metadataUri */\n      swap1\n      dup2\n      tag_140\n      swap2\n      swap1\n      tag_141\n      jump\t// in\n    tag_140:\n      pop\n        /* \"src/BattleVictoryNFT.sol\":3119:3128  currentId */\n      dup1\n        /* \"src/BattleVictoryNFT.sol\":3108:3117  recipient */\n      dup5\n        /* \"src/BattleVictoryNFT.sol\":3087:3129  Transfer(address(0), recipient, currentId) */\n      0xffffffffffffffffffffffffffffffffffffffff\n      and\n        /* \"src/BattleVictoryNFT.sol\":3104:3105  0 */\n      0x00\n        /* \"src/BattleVictoryNFT.sol\":3087:3129  Transfer(address(0), recipient, currentId) */\n      0xffffffffffffffffffffffffffffffffffffffff\n      and\n      0xddf252ad1be2c89b69c2b068fc378daa952ba7f163c4a11628f55a4df523b3ef\n      mload(0x40)\n      mload(0x40)\n      dup1\n      swap2\n      sub\n      swap1\n      log4\n        /* \"src/BattleVictoryNFT.sol\":3149:3158  currentId */\n      dup1\n        /* \"src/BattleVictoryNFT.sol\":3142:3158  return currentId */\n      swap2\n      pop\n      pop\n        /* \"src/BattleVictoryNFT.sol\":2684:3166  function mintBattleNFT(... */\n      swap3\n      swap2\n      pop\n      pop\n      jump\t// out\n        /* \"src/BattleVictoryNFT.sol\":3550:3748  function setApprovalForAll(address operator, bool approved) public {... */\n    tag_69:\n        /* \"src/BattleVictoryNFT.sol\":3670:3678  approved */\n      dup1\n        /* \"src/BattleVictoryNFT.sol\":3628:3645  operatorApprovals */\n      0x08\n        /* \"src/BattleVictoryNFT.sol\":3628:3657  operatorApprovals[msg.sender] */\n      0x00\n        /* \"src/BattleVictoryNFT.sol\":3646:3656  msg.sender */\n      caller\n        /* \"src/BattleVictoryNFT.sol\":3628:3657  operatorApprovals[msg.sender] */\n      0xffffffffffffffffffffffffffffffffffffffff\n      and\n      0xffffffffffffffffffffffffffffffffffffffff\n      and\n      dup2\n      mstore\n      0x20\n      add\n      swap1\n      dup2\n      mstore\n      0x20\n      add\n      0x00\n      keccak256\n        /* \"src/BattleVictoryNFT.sol\":3628:3667  operatorApprovals[msg.sender][operator] */\n      0x00\n        /* \"src/BattleVictoryNFT.sol\":3658:3666  operator */\n      dup5\n        /* \"src/BattleVictoryNFT.sol\":3628:3667  operatorApprovals[msg.sender][operator] */\n      0xffffffffffffffffffffffffffffffffffffffff\n      and\n      0xffffffffffffffffffffffffffffffffffffffff\n      and\n      dup2\n      mstore\n      0x20\n      add\n      swap1\n      dup2\n      mstore\n      0x20\n      add\n      0x00\n      keccak256\n      0x00\n        /* \"src/BattleVictoryNFT.sol\":3628:3678  operatorApprovals[msg.sender][operator] = approved */\n      0x0100\n      exp\n      dup2\n      sload\n      dup2\n      0xff\n      mul\n      not\n      and\n      swap1\n      dup4\n      iszero\n      iszero\n      mul\n      or\n      swap1\n      sstore\n      pop\n        /* \"src/BattleVictoryNFT.sol\":3721:3729  operator */\n      dup2\n        /* \"src/BattleVictoryNFT.sol\":3694:3740  ApprovalForAll(msg.sender, operator, approved) */\n      0xffffffffffffffffffffffffffffffffffffffff\n      and\n        /* \"src/BattleVictoryNFT.sol\":3709:3719  msg.sender */\n      caller\n        /* \"src/BattleVictoryNFT.sol\":3694:3740  ApprovalForAll(msg.sender, operator, approved) */\n      0xffffffffffffffffffffffffffffffffffffffff\n      and\n      0x17307eab39ab6107e8899845ad3d59bd9653f200f220920489ca2b5937696c31\n        /* \"src/BattleVictoryNFT.sol\":3731:3739  approved */\n      dup4\n        /* \"src/BattleVictoryNFT.sol\":3694:3740  ApprovalForAll(msg.sender, operator, approved) */\n      mload(0x40)\n      tag_143\n      swap2\n      swap1\n      tag_75\n      jump\t// in\n    tag_143:\n      mload(0x40)\n      dup1\n      swap2\n      sub\n      swap1\n      log3\n        /* \"src/BattleVictoryNFT.sol\":3550:3748  function setApprovalForAll(address operator, bool approved) public {... */\n      pop\n      pop\n      jump\t// out\n        /* \"src/BattleVictoryNFT.sol\":2018:2655  function transfer(... */\n    tag_73:\n        /* \"src/BattleVictoryNFT.sol\":2138:2142  bool */\n      0x00\n        /* \"src/BattleVictoryNFT.sol\":2177:2183  sender */\n      dup3\n        /* \"src/BattleVictoryNFT.sol\":2163:2183  msg.sender == sender */\n      0xffffffffffffffffffffffffffffffffffffffff\n      and\n        /* \"src/BattleVictoryNFT.sol\":2163:2173  msg.sender */\n      caller\n        /* \"src/BattleVictoryNFT.sol\":2163:2183  msg.sender == sender */\n      0xffffffffffffffffffffffffffffffffffffffff\n      and\n      eq\n        /* \"src/BattleVictoryNFT.sol\":2155:2202  require(msg.sender == sender, \"Not authorized\") */\n      tag_145\n      jumpi\n      mload(0x40)\n      0x08c379a000000000000000000000000000000000000000000000000000000000\n      dup2\n      mstore\n      0x04\n      add\n      tag_146\n      swap1\n      tag_95\n      jump\t// in\n    tag_146:\n      mload(0x40)\n      dup1\n      swap2\n      sub\n      swap1\n      revert\n    tag_145:\n        /* \"src/BattleVictoryNFT.sol\":2245:2251  sender */\n      dup3\n        /* \"src/BattleVictoryNFT.sol\":2221:2251  tokenOwners[tokenId] == sender */\n      0xffffffffffffffffffffffffffffffffffffffff\n      and\n        /* \"src/BattleVictoryNFT.sol\":2221:2232  tokenOwners */\n      0x04\n        /* \"src/BattleVictoryNFT.sol\":2221:2241  tokenOwners[tokenId] */\n      0x00\n        /* \"src/BattleVictoryNFT.sol\":2233:2240  tokenId */\n      dup7\n        /* \"src/BattleVictoryNFT.sol\":2221:2241  tokenOwners[tokenId] */\n      dup2\n      mstore\n      0x20\n      add\n      swap1\n      dup2\n      mstore\n      0x20\n      add\n      0x00\n      keccak256\n      0x00\n      swap1\n      sload\n      swap1\n      0x0100\n      exp\n      swap1\n      div\n      0xffffffffffffffffffffffffffffffffffffffff\n      and\n        /* \"src/BattleVictoryNFT.sol\":2221:2251  tokenOwners[tokenId] == sender */\n      0xffffffffffffffffffffffffffffffffffffffff\n      and\n      eq\n        /* \"src/BattleVictoryNFT.sol\":2213:2269  require(tokenOwners[tokenId] == sender, \"Not the owner\") */\n      tag_147\n      jumpi\n      mload(0x40)\n      0x08c379a000000000000000000000000000000000000000000000000000000000\n      dup2\n      mstore\n      0x04\n      add\n      tag_148\n      swap1\n      tag_99\n      jump\t// in\n    tag_148:\n      mload(0x40)\n      dup1\n      swap2\n      sub\n      swap1\n      revert\n    tag_147:\n        /* \"src/BattleVictoryNFT.sol\":2309:2310  0 */\n      0x00\n        /* \"src/BattleVictoryNFT.sol\":2288:2311  recipient != address(0) */\n      0xffffffffffffffffffffffffffffffffffffffff\n      and\n        /* \"src/BattleVictoryNFT.sol\":2288:2297  recipient */\n      dup3\n        /* \"src/BattleVictoryNFT.sol\":2288:2311  recipient != address(0) */\n      0xffffffffffffffffffffffffffffffffffffffff\n      and\n      sub\n        /* \"src/BattleVictoryNFT.sol\":2280:2333  require(recipient != address(0), \"Invalid recipient\") */\n      tag_149\n      jumpi\n      mload(0x40)\n      0x08c379a000000000000000000000000000000000000000000000000000000000\n      dup2\n      mstore\n      0x04\n      add\n      tag_150\n      swap1\n      tag_137\n      jump\t// in\n    tag_150:\n      mload(0x40)\n      dup1\n      swap2\n      sub\n      swap1\n      revert\n    tag_149:\n        /* \"src/BattleVictoryNFT.sol\":2408:2409  0 */\n      0x00\n        /* \"src/BattleVictoryNFT.sol\":2374:2388  tokenApprovals */\n      0x07\n        /* \"src/BattleVictoryNFT.sol\":2374:2397  tokenApprovals[tokenId] */\n      0x00\n        /* \"src/BattleVictoryNFT.sol\":2389:2396  tokenId */\n      dup7\n        /* \"src/BattleVictoryNFT.sol\":2374:2397  tokenApprovals[tokenId] */\n      dup2\n      mstore\n      0x20\n      add\n      swap1\n      dup2\n      mstore\n      0x20\n      add\n      0x00\n      keccak256\n      0x00\n        /* \"src/BattleVictoryNFT.sol\":2374:2410  tokenApprovals[tokenId] = address(0) */\n      0x0100\n      exp\n      dup2\n      sload\n      dup2\n      0xffffffffffffffffffffffffffffffffffffffff\n      mul\n      not\n      and\n      swap1\n      dup4\n      0xffffffffffffffffffffffffffffffffffffffff\n      and\n      mul\n      or\n      swap1\n      sstore\n      pop\n        /* \"src/BattleVictoryNFT.sol\":2451:2459  balances */\n      0x06\n        /* \"src/BattleVictoryNFT.sol\":2451:2467  balances[sender] */\n      0x00\n        /* \"src/BattleVictoryNFT.sol\":2460:2466  sender */\n      dup5\n        /* \"src/BattleVictoryNFT.sol\":2451:2467  balances[sender] */\n      0xffffffffffffffffffffffffffffffffffffffff\n      and\n      0xffffffffffffffffffffffffffffffffffffffff\n      and\n      dup2\n      mstore\n      0x20\n      add\n      swap1\n      dup2\n      mstore\n      0x20\n      add\n      0x00\n      keccak256\n      0x00\n        /* \"src/BattleVictoryNFT.sol\":2451:2469  balances[sender]-- */\n      dup2\n      sload\n      dup1\n      swap3\n      swap2\n      swap1\n      tag_151\n      swap1\n      tag_105\n      jump\t// in\n    tag_151:\n      swap2\n      swap1\n      pop\n      sstore\n      pop\n        /* \"src/BattleVictoryNFT.sol\":2480:2488  balances */\n      0x06\n        /* \"src/BattleVictoryNFT.sol\":2480:2499  balances[recipient] */\n      0x00\n        /* \"src/BattleVictoryNFT.sol\":2489:2498  recipient */\n      dup4\n        /* \"src/BattleVictoryNFT.sol\":2480:2499  balances[recipient] */\n      0xffffffffffffffffffffffffffffffffffffffff\n      and\n      0xffffffffffffffffffffffffffffffffffffffff\n      and\n      dup2\n      mstore\n      0x20\n      add\n      swap1\n      dup2\n      mstore\n      0x20\n      add\n      0x00\n      keccak256\n      0x00\n        /* \"src/BattleVictoryNFT.sol\":2480:2501  balances[recipient]++ */\n      dup2\n      sload\n      dup1\n      swap3\n      swap2\n      swap1\n      tag_152\n      swap1\n      tag_107\n      jump\t// in\n    tag_152:\n      swap2\n      swap1\n      pop\n      sstore\n      pop\n        /* \"src/BattleVictoryNFT.sol\":2562:2571  recipient */\n      dup2\n        /* \"src/BattleVictoryNFT.sol\":2539:2550  tokenOwners */\n      0x04\n        /* \"src/BattleVictoryNFT.sol\":2539:2559  tokenOwners[tokenId] */\n      0x00\n        /* \"src/BattleVictoryNFT.sol\":2551:2558  tokenId */\n      dup7\n        /* \"src/BattleVictoryNFT.sol\":2539:2559  tokenOwners[tokenId] */\n      dup2\n      mstore\n      0x20\n      add\n      swap1\n      dup2\n      mstore\n      0x20\n      add\n      0x00\n      keccak256\n      0x00\n        /* \"src/BattleVictoryNFT.sol\":2539:2571  tokenOwners[tokenId] = recipient */\n      0x0100\n      exp\n      dup2\n      sload\n      dup2\n      0xffffffffffffffffffffffffffffffffffffffff\n      mul\n      not\n      and\n      swap1\n      dup4\n      0xffffffffffffffffffffffffffffffffffffffff\n      and\n      mul\n      or\n      swap1\n      sstore\n      pop\n        /* \"src/BattleVictoryNFT.sol\":2617:2624  tokenId */\n      dup4\n        /* \"src/BattleVictoryNFT.sol\":2606:2615  recipient */\n      dup3\n        /* \"src/BattleVictoryNFT.sol\":2589:2625  Transfer(sender, recipient, tokenId) */\n      0xffffffffffffffffffffffffffffffffffffffff\n      and\n        /* \"src/BattleVictoryNFT.sol\":2598:2604  sender */\n      dup5\n        /* \"src/BattleVictoryNFT.sol\":2589:2625  Transfer(sender, recipient, tokenId) */\n      0xffffffffffffffffffffffffffffffffffffffff\n      and\n      0xddf252ad1be2c89b69c2b068fc378daa952ba7f163c4a11628f55a4df523b3ef\n      mload(0x40)\n      mload(0x40)\n      dup1\n      swap2\n      sub\n      swap1\n      log4\n        /* \"src/BattleVictoryNFT.sol\":2643:2647  true */\n      0x01\n        /* \"src/BattleVictoryNFT.sol\":2636:2647  return true */\n      swap1\n      pop\n        /* \"src/BattleVictoryNFT.sol\":2018:2655  function transfer(... */\n      swap4\n      swap3\n      pop\n      pop\n      pop\n      jump\t// out\n        /* \"src/BattleVictoryNFT.sol\":4044:4192  function isApprovedForAll(address player, address operator) public view returns (bool) {... */\n    tag_79:\n        /* \"src/BattleVictoryNFT.sol\":4125:4129  bool */\n      0x00\n        /* \"src/BattleVictoryNFT.sol\":4149:4166  operatorApprovals */\n      0x08\n        /* \"src/BattleVictoryNFT.sol\":4149:4174  operatorApprovals[player] */\n      0x00\n        /* \"src/BattleVictoryNFT.sol\":4167:4173  player */\n      dup5\n        /* \"src/BattleVictoryNFT.sol\":4149:4174  operatorApprovals[player] */\n      0xffffffffffffffffffffffffffffffffffffffff\n      and\n      0xffffffffffffffffffffffffffffffffffffffff\n      and\n      dup2\n      mstore\n      0x20\n      add\n      swap1\n      dup2\n      mstore\n      0x20\n      add\n      0x00\n      keccak256\n        /* \"src/BattleVictoryNFT.sol\":4149:4184  operatorApprovals[player][operator] */\n      0x00\n        /* \"src/BattleVictoryNFT.sol\":4175:4183  operator */\n      dup4\n        /* \"src/BattleVictoryNFT.sol\":4149:4184  operatorApprovals[player][operator] */\n      0xffffffffffffffffffffffffffffffffffffffff\n      and\n      0xffffffffffffffffffffffffffffffffffffffff\n      and\n      dup2\n      mstore\n      0x20\n      add\n      swap1\n      dup2\n      mstore\n      0x20\n      add\n      0x00\n      keccak256\n      0x00\n      swap1\n      sload\n      swap1\n      0x0100\n      exp\n      swap1\n      div\n      0xff\n      and\n        /* \"src/BattleVictoryNFT.sol\":4142:4184  return operatorApprovals[player][operator] */\n      swap1\n      pop\n        /* \"src/BattleVictoryNFT.sol\":4044:4192  function isApprovedForAll(address player, address operator) public view returns (bool) {... */\n      swap3\n      swap2\n      pop\n      pop\n      jump\t// out\n        /* \"#utility.yul\":7:106   */\n    tag_154:\n        /* \"#utility.yul\":59:65   */\n      0x00\n        /* \"#utility.yul\":93:98   */\n      dup2\n        /* \"#utility.yul\":87:99   */\n      mload\n        /* \"#utility.yul\":77:99   */\n      swap1\n      pop\n        /* \"#utility.yul\":7:106   */\n      swap2\n      swap1\n      pop\n      jump\t// out\n        /* \"#utility.yul\":112:281   */\n    tag_155:\n        /* \"#utility.yul\":196:207   */\n      0x00\n        /* \"#utility.yul\":230:236   */\n      dup3\n        /* \"#utility.yul\":225:228   */\n      dup3\n        /* \"#utility.yul\":218:237   */\n      mstore\n        /* \"#utility.yul\":270:274   */\n      0x20\n        /* \"#utility.yul\":265:268   */\n      dup3\n        /* \"#utility.yul\":261:275   */\n      add\n        /* \"#utility.yul\":246:275   */\n      swap1\n      pop\n        /* \"#utility.yul\":112:281   */\n      swap3\n      swap2\n      pop\n      pop\n      jump\t// out\n        /* \"#utility.yul\":287:426   */\n    tag_156:\n        /* \"#utility.yul\":376:382   */\n      dup3\n        /* \"#utility.yul\":371:374   */\n      dup2\n        /* \"#utility.yul\":366:369   */\n      dup4\n        /* \"#utility.yul\":360:383   */\n      mcopy\n        /* \"#utility.yul\":417:418   */\n      0x00\n        /* \"#utility.yul\":408:414   */\n      dup4\n        /* \"#utility.yul\":403:406   */\n      dup4\n        /* \"#utility.yul\":399:415   */\n      add\n        /* \"#utility.yul\":392:419   */\n      mstore\n        /* \"#utility.yul\":287:426   */\n      pop\n      pop\n      pop\n      jump\t// out\n        /* \"#utility.yul\":432:534   */\n    tag_157:\n        /* \"#utility.yul\":473:479   */\n      0x00\n        /* \"#utility.yul\":524:526   */\n      0x1f\n        /* \"#utility.yul\":520:527   */\n      not\n        /* \"#utility.yul\":515:517   */\n      0x1f\n        /* \"#utility.yul\":508:513   */\n      dup4\n        /* \"#utility.yul\":504:518   */\n      add\n        /* \"#utility.yul\":500:528   */\n      and\n        /* \"#utility.yul\":490:528   */\n      swap1\n      pop\n        /* \"#utility.yul\":432:534   */\n      swap2\n      swap1\n      pop\n      jump\t// out\n        /* \"#utility.yul\":540:917   */\n    tag_158:\n        /* \"#utility.yul\":628:631   */\n      0x00\n        /* \"#utility.yul\":656:695   */\n      tag_217\n        /* \"#utility.yul\":689:694   */\n      dup3\n        /* \"#utility.yul\":656:695   */\n      tag_154\n      jump\t// in\n    tag_217:\n        /* \"#utility.yul\":711:782   */\n      tag_218\n        /* \"#utility.yul\":775:781   */\n      dup2\n        /* \"#utility.yul\":770:773   */\n      dup6\n        /* \"#utility.yul\":711:782   */\n      tag_155\n      jump\t// in\n    tag_218:\n        /* \"#utility.yul\":704:782   */\n      swap4\n      pop\n        /* \"#utility.yul\":791:856   */\n      tag_219\n        /* \"#utility.yul\":849:855   */\n      dup2\n        /* \"#utility.yul\":844:847   */\n      dup6\n        /* \"#utility.yul\":837:841   */\n      0x20\n        /* \"#utility.yul\":830:835   */\n      dup7\n        /* \"#utility.yul\":826:842   */\n      add\n        /* \"#utility.yul\":791:856   */\n      tag_156\n      jump\t// in\n    tag_219:\n        /* \"#utility.yul\":881:910   */\n      tag_220\n        /* \"#utility.yul\":903:909   */\n      dup2\n        /* \"#utility.yul\":881:910   */\n      tag_157\n      jump\t// in\n    tag_220:\n        /* \"#utility.yul\":876:879   */\n      dup5\n        /* \"#utility.yul\":872:911   */\n      add\n        /* \"#utility.yul\":865:911   */\n      swap2\n      pop\n        /* \"#utility.yul\":632:917   */\n      pop\n        /* \"#utility.yul\":540:917   */\n      swap3\n      swap2\n      pop\n      pop\n      jump\t// out\n        /* \"#utility.yul\":923:1236   */\n    tag_23:\n        /* \"#utility.yul\":1036:1040   */\n      0x00\n        /* \"#utility.yul\":1074:1076   */\n      0x20\n        /* \"#utility.yul\":1063:1072   */\n      dup3\n        /* \"#utility.yul\":1059:1077   */\n      add\n        /* \"#utility.yul\":1051:1077   */\n      swap1\n      pop\n        /* \"#utility.yul\":1123:1132   */\n      dup2\n        /* \"#utility.yul\":1117:1121   */\n      dup2\n        /* \"#utility.yul\":1113:1133   */\n      sub\n        /* \"#utility.yul\":1109:1110   */\n      0x00\n        /* \"#utility.yul\":1098:1107   */\n      dup4\n        /* \"#utility.yul\":1094:1111   */\n      add\n        /* \"#utility.yul\":1087:1134   */\n      mstore\n        /* \"#utility.yul\":1151:1229   */\n      tag_222\n        /* \"#utility.yul\":1224:1228   */\n      dup2\n        /* \"#utility.yul\":1215:1221   */\n      dup5\n        /* \"#utility.yul\":1151:1229   */\n      tag_158\n      jump\t// in\n    tag_222:\n        /* \"#utility.yul\":1143:1229   */\n      swap1\n      pop\n        /* \"#utility.yul\":923:1236   */\n      swap3\n      swap2\n      pop\n      pop\n      jump\t// out\n        /* \"#utility.yul\":1242:1317   */\n    tag_159:\n        /* \"#utility.yul\":1275:1281   */\n      0x00\n        /* \"#utility.yul\":1308:1310   */\n      0x40\n        /* \"#utility.yul\":1302:1311   */\n      mload\n        /* \"#utility.yul\":1292:1311   */\n      swap1\n      pop\n        /* \"#utility.yul\":1242:1317   */\n      swap1\n      jump\t// out\n        /* \"#utility.yul\":1323:1440   */\n    tag_160:\n        /* \"#utility.yul\":1432:1433   */\n      0x00\n        /* \"#utility.yul\":1429:1430   */\n      0x00\n        /* \"#utility.yul\":1422:1434   */\n      revert\n        /* \"#utility.yul\":1446:1563   */\n    tag_161:\n        /* \"#utility.yul\":1555:1556   */\n      0x00\n        /* \"#utility.yul\":1552:1553   */\n      0x00\n        /* \"#utility.yul\":1545:1557   */\n      revert\n        /* \"#utility.yul\":1569:1646   */\n    tag_162:\n        /* \"#utility.yul\":1606:1613   */\n      0x00\n        /* \"#utility.yul\":1635:1640   */\n      dup2\n        /* \"#utility.yul\":1624:1640   */\n      swap1\n      pop\n        /* \"#utility.yul\":1569:1646   */\n      swap2\n      swap1\n      pop\n      jump\t// out\n        /* \"#utility.yul\":1652:1774   */\n    tag_163:\n        /* \"#utility.yul\":1725:1749   */\n      tag_228\n        /* \"#utility.yul\":1743:1748   */\n      dup2\n        /* \"#utility.yul\":1725:1749   */\n      tag_162\n      jump\t// in\n    tag_228:\n        /* \"#utility.yul\":1718:1723   */\n      dup2\n        /* \"#utility.yul\":1715:1750   */\n      eq\n        /* \"#utility.yul\":1705:1768   */\n      tag_229\n      jumpi\n        /* \"#utility.yul\":1764:1765   */\n      0x00\n        /* \"#utility.yul\":1761:1762   */\n      0x00\n        /* \"#utility.yul\":1754:1766   */\n      revert\n        /* \"#utility.yul\":1705:1768   */\n    tag_229:\n        /* \"#utility.yul\":1652:1774   */\n      pop\n      jump\t// out\n        /* \"#utility.yul\":1780:1919   */\n    tag_164:\n        /* \"#utility.yul\":1826:1831   */\n      0x00\n        /* \"#utility.yul\":1864:1870   */\n      dup2\n        /* \"#utility.yul\":1851:1871   */\n      calldataload\n        /* \"#utility.yul\":1842:1871   */\n      swap1\n      pop\n        /* \"#utility.yul\":1880:1913   */\n      tag_231\n        /* \"#utility.yul\":1907:1912   */\n      dup2\n        /* \"#utility.yul\":1880:1913   */\n      tag_163\n      jump\t// in\n    tag_231:\n        /* \"#utility.yul\":1780:1919   */\n      swap3\n      swap2\n      pop\n      pop\n      jump\t// out\n        /* \"#utility.yul\":1925:2254   */\n    tag_26:\n        /* \"#utility.yul\":1984:1990   */\n      0x00\n        /* \"#utility.yul\":2033:2035   */\n      0x20\n        /* \"#utility.yul\":2021:2030   */\n      dup3\n        /* \"#utility.yul\":2012:2019   */\n      dup5\n        /* \"#utility.yul\":2008:2031   */\n      sub\n        /* \"#utility.yul\":2004:2036   */\n      slt\n        /* \"#utility.yul\":2001:2120   */\n      iszero\n      tag_233\n      jumpi\n        /* \"#utility.yul\":2039:2118   */\n      tag_234\n      tag_160\n      jump\t// in\n    tag_234:\n        /* \"#utility.yul\":2001:2120   */\n    tag_233:\n        /* \"#utility.yul\":2159:2160   */\n      0x00\n        /* \"#utility.yul\":2184:2237   */\n      tag_235\n        /* \"#utility.yul\":2229:2236   */\n      dup5\n        /* \"#utility.yul\":2220:2226   */\n      dup3\n        /* \"#utility.yul\":2209:2218   */\n      dup6\n        /* \"#utility.yul\":2205:2227   */\n      add\n        /* \"#utility.yul\":2184:2237   */\n      tag_164\n      jump\t// in\n    tag_235:\n        /* \"#utility.yul\":2174:2237   */\n      swap2\n      pop\n        /* \"#utility.yul\":2130:2247   */\n      pop\n        /* \"#utility.yul\":1925:2254   */\n      swap3\n      swap2\n      pop\n      pop\n      jump\t// out\n        /* \"#utility.yul\":2260:2386   */\n    tag_165:\n        /* \"#utility.yul\":2297:2304   */\n      0x00\n        /* \"#utility.yul\":2337:2379   */\n      0xffffffffffffffffffffffffffffffffffffffff\n        /* \"#utility.yul\":2330:2335   */\n      dup3\n        /* \"#utility.yul\":2326:2380   */\n      and\n        /* \"#utility.yul\":2315:2380   */\n      swap1\n      pop\n        /* \"#utility.yul\":2260:2386   */\n      swap2\n      swap1\n      pop\n      jump\t// out\n        /* \"#utility.yul\":2392:2488   */\n    tag_166:\n        /* \"#utility.yul\":2429:2436   */\n      0x00\n        /* \"#utility.yul\":2458:2482   */\n      tag_238\n        /* \"#utility.yul\":2476:2481   */\n      dup3\n        /* \"#utility.yul\":2458:2482   */\n      tag_165\n      jump\t// in\n    tag_238:\n        /* \"#utility.yul\":2447:2482   */\n      swap1\n      pop\n        /* \"#utility.yul\":2392:2488   */\n      swap2\n      swap1\n      pop\n      jump\t// out\n        /* \"#utility.yul\":2494:2612   */\n    tag_167:\n        /* \"#utility.yul\":2581:2605   */\n      tag_240\n        /* \"#utility.yul\":2599:2604   */\n      dup2\n        /* \"#utility.yul\":2581:2605   */\n      tag_166\n      jump\t// in\n    tag_240:\n        /* \"#utility.yul\":2576:2579   */\n      dup3\n        /* \"#utility.yul\":2569:2606   */\n      mstore\n        /* \"#utility.yul\":2494:2612   */\n      pop\n      pop\n      jump\t// out\n        /* \"#utility.yul\":2618:2840   */\n    tag_29:\n        /* \"#utility.yul\":2711:2715   */\n      0x00\n        /* \"#utility.yul\":2749:2751   */\n      0x20\n        /* \"#utility.yul\":2738:2747   */\n      dup3\n        /* \"#utility.yul\":2734:2752   */\n      add\n        /* \"#utility.yul\":2726:2752   */\n      swap1\n      pop\n        /* \"#utility.yul\":2762:2833   */\n      tag_242\n        /* \"#utility.yul\":2830:2831   */\n      0x00\n        /* \"#utility.yul\":2819:2828   */\n      dup4\n        /* \"#utility.yul\":2815:2832   */\n      add\n        /* \"#utility.yul\":2806:2812   */\n      dup5\n        /* \"#utility.yul\":2762:2833   */\n      tag_167\n      jump\t// in\n    tag_242:\n        /* \"#utility.yul\":2618:2840   */\n      swap3\n      swap2\n      pop\n      pop\n      jump\t// out\n        /* \"#utility.yul\":2846:2968   */\n    tag_168:\n        /* \"#utility.yul\":2919:2943   */\n      tag_244\n        /* \"#utility.yul\":2937:2942   */\n      dup2\n        /* \"#utility.yul\":2919:2943   */\n      tag_166\n      jump\t// in\n    tag_244:\n        /* \"#utility.yul\":2912:2917   */\n      dup2\n        /* \"#utility.yul\":2909:2944   */\n      eq\n        /* \"#utility.yul\":2899:2962   */\n      tag_245\n      jumpi\n        /* \"#utility.yul\":2958:2959   */\n      0x00\n        /* \"#utility.yul\":2955:2956   */\n      0x00\n        /* \"#utility.yul\":2948:2960   */\n      revert\n        /* \"#utility.yul\":2899:2962   */\n    tag_245:\n        /* \"#utility.yul\":2846:2968   */\n      pop\n      jump\t// out\n        /* \"#utility.yul\":2974:3113   */\n    tag_169:\n        /* \"#utility.yul\":3020:3025   */\n      0x00\n        /* \"#utility.yul\":3058:3064   */\n      dup2\n        /* \"#utility.yul\":3045:3065   */\n      calldataload\n        /* \"#utility.yul\":3036:3065   */\n      swap1\n      pop\n        /* \"#utility.yul\":3074:3107   */\n      tag_247\n        /* \"#utility.yul\":3101:3106   */\n      dup2\n        /* \"#utility.yul\":3074:3107   */\n      tag_168\n      jump\t// in\n    tag_247:\n        /* \"#utility.yul\":2974:3113   */\n      swap3\n      swap2\n      pop\n      pop\n      jump\t// out\n        /* \"#utility.yul\":3119:3593   */\n    tag_32:\n        /* \"#utility.yul\":3187:3193   */\n      0x00\n        /* \"#utility.yul\":3195:3201   */\n      0x00\n        /* \"#utility.yul\":3244:3246   */\n      0x40\n        /* \"#utility.yul\":3232:3241   */\n      dup4\n        /* \"#utility.yul\":3223:3230   */\n      dup6\n        /* \"#utility.yul\":3219:3242   */\n      sub\n        /* \"#utility.yul\":3215:3247   */\n      slt\n        /* \"#utility.yul\":3212:3331   */\n      iszero\n      tag_249\n      jumpi\n        /* \"#utility.yul\":3250:3329   */\n      tag_250\n      tag_160\n      jump\t// in\n    tag_250:\n        /* \"#utility.yul\":3212:3331   */\n    tag_249:\n        /* \"#utility.yul\":3370:3371   */\n      0x00\n        /* \"#utility.yul\":3395:3448   */\n      tag_251\n        /* \"#utility.yul\":3440:3447   */\n      dup6\n        /* \"#utility.yul\":3431:3437   */\n      dup3\n        /* \"#utility.yul\":3420:3429   */\n      dup7\n        /* \"#utility.yul\":3416:3438   */\n      add\n        /* \"#utility.yul\":3395:3448   */\n      tag_169\n      jump\t// in\n    tag_251:\n        /* \"#utility.yul\":3385:3448   */\n      swap3\n      pop\n        /* \"#utility.yul\":3341:3458   */\n      pop\n        /* \"#utility.yul\":3497:3499   */\n      0x20\n        /* \"#utility.yul\":3523:3576   */\n      tag_252\n        /* \"#utility.yul\":3568:3575   */\n      dup6\n        /* \"#utility.yul\":3559:3565   */\n      dup3\n        /* \"#utility.yul\":3548:3557   */\n      dup7\n        /* \"#utility.yul\":3544:3566   */\n      add\n        /* \"#utility.yul\":3523:3576   */\n      tag_164\n      jump\t// in\n    tag_252:\n        /* \"#utility.yul\":3513:3576   */\n      swap2\n      pop\n        /* \"#utility.yul\":3468:3586   */\n      pop\n        /* \"#utility.yul\":3119:3593   */\n      swap3\n      pop\n      swap3\n      swap1\n      pop\n      jump\t// out\n        /* \"#utility.yul\":3599:4218   */\n    tag_36:\n        /* \"#utility.yul\":3676:3682   */\n      0x00\n        /* \"#utility.yul\":3684:3690   */\n      0x00\n        /* \"#utility.yul\":3692:3698   */\n      0x00\n        /* \"#utility.yul\":3741:3743   */\n      0x60\n        /* \"#utility.yul\":3729:3738   */\n      dup5\n        /* \"#utility.yul\":3720:3727   */\n      dup7\n        /* \"#utility.yul\":3716:3739   */\n      sub\n        /* \"#utility.yul\":3712:3744   */\n      slt\n        /* \"#utility.yul\":3709:3828   */\n      iszero\n      tag_254\n      jumpi\n        /* \"#utility.yul\":3747:3826   */\n      tag_255\n      tag_160\n      jump\t// in\n    tag_255:\n        /* \"#utility.yul\":3709:3828   */\n    tag_254:\n        /* \"#utility.yul\":3867:3868   */\n      0x00\n        /* \"#utility.yul\":3892:3945   */\n      tag_256\n        /* \"#utility.yul\":3937:3944   */\n      dup7\n        /* \"#utility.yul\":3928:3934   */\n      dup3\n        /* \"#utility.yul\":3917:3926   */\n      dup8\n        /* \"#utility.yul\":3913:3935   */\n      add\n        /* \"#utility.yul\":3892:3945   */\n      tag_169\n      jump\t// in\n    tag_256:\n        /* \"#utility.yul\":3882:3945   */\n      swap4\n      pop\n        /* \"#utility.yul\":3838:3955   */\n      pop\n        /* \"#utility.yul\":3994:3996   */\n      0x20\n        /* \"#utility.yul\":4020:4073   */\n      tag_257\n        /* \"#utility.yul\":4065:4072   */\n      dup7\n        /* \"#utility.yul\":4056:4062   */\n      dup3\n        /* \"#utility.yul\":4045:4054   */\n      dup8\n        /* \"#utility.yul\":4041:4063   */\n      add\n        /* \"#utility.yul\":4020:4073   */\n      tag_169\n      jump\t// in\n    tag_257:\n        /* \"#utility.yul\":4010:4073   */\n      swap3\n      pop\n        /* \"#utility.yul\":3965:4083   */\n      pop\n        /* \"#utility.yul\":4122:4124   */\n      0x40\n        /* \"#utility.yul\":4148:4201   */\n      tag_258\n        /* \"#utility.yul\":4193:4200   */\n      dup7\n        /* \"#utility.yul\":4184:4190   */\n      dup3\n        /* \"#utility.yul\":4173:4182   */\n      dup8\n        /* \"#utility.yul\":4169:4191   */\n      add\n        /* \"#utility.yul\":4148:4201   */\n      tag_164\n      jump\t// in\n    tag_258:\n        /* \"#utility.yul\":4138:4201   */\n      swap2\n      pop\n        /* \"#utility.yul\":4093:4211   */\n      pop\n        /* \"#utility.yul\":3599:4218   */\n      swap3\n      pop\n      swap3\n      pop\n      swap3\n      jump\t// out\n        /* \"#utility.yul\":4224:4553   */\n    tag_48:\n        /* \"#utility.yul\":4283:4289   */\n      0x00\n        /* \"#utility.yul\":4332:4334   */\n      0x20\n        /* \"#utility.yul\":4320:4329   */\n      dup3\n        /* \"#utility.yul\":4311:4318   */\n      dup5\n        /* \"#utility.yul\":4307:4330   */\n      sub\n        /* \"#utility.yul\":4303:4335   */\n      slt\n        /* \"#utility.yul\":4300:4419   */\n      iszero\n      tag_260\n      jumpi\n        /* \"#utility.yul\":4338:4417   */\n      tag_261\n      tag_160\n      jump\t// in\n    tag_261:\n        /* \"#utility.yul\":4300:4419   */\n    tag_260:\n        /* \"#utility.yul\":4458:4459   */\n      0x00\n        /* \"#utility.yul\":4483:4536   */\n      tag_262\n        /* \"#utility.yul\":4528:4535   */\n      dup5\n        /* \"#utility.yul\":4519:4525   */\n      dup3\n        /* \"#utility.yul\":4508:4517   */\n      dup6\n        /* \"#utility.yul\":4504:4526   */\n      add\n        /* \"#utility.yul\":4483:4536   */\n      tag_169\n      jump\t// in\n    tag_262:\n        /* \"#utility.yul\":4473:4536   */\n      swap2\n      pop\n        /* \"#utility.yul\":4429:4546   */\n      pop\n        /* \"#utility.yul\":4224:4553   */\n      swap3\n      swap2\n      pop\n      pop\n      jump\t// out\n        /* \"#utility.yul\":4559:4677   */\n    tag_170:\n        /* \"#utility.yul\":4646:4670   */\n      tag_264\n        /* \"#utility.yul\":4664:4669   */\n      dup2\n        /* \"#utility.yul\":4646:4670   */\n      tag_162\n      jump\t// in\n    tag_264:\n        /* \"#utility.yul\":4641:4644   */\n      dup3\n        /* \"#utility.yul\":4634:4671   */\n      mstore\n        /* \"#utility.yul\":4559:4677   */\n      pop\n      pop\n      jump\t// out\n        /* \"#utility.yul\":4683:4905   */\n    tag_51:\n        /* \"#utility.yul\":4776:4780   */\n      0x00\n        /* \"#utility.yul\":4814:4816   */\n      0x20\n        /* \"#utility.yul\":4803:4812   */\n      dup3\n        /* \"#utility.yul\":4799:4817   */\n      add\n        /* \"#utility.yul\":4791:4817   */\n      swap1\n      pop\n        /* \"#utility.yul\":4827:4898   */\n      tag_266\n        /* \"#utility.yul\":4895:4896   */\n      0x00\n        /* \"#utility.yul\":4884:4893   */\n      dup4\n        /* \"#utility.yul\":4880:4897   */\n      add\n        /* \"#utility.yul\":4871:4877   */\n      dup5\n        /* \"#utility.yul\":4827:4898   */\n      tag_170\n      jump\t// in\n    tag_266:\n        /* \"#utility.yul\":4683:4905   */\n      swap3\n      swap2\n      pop\n      pop\n      jump\t// out\n        /* \"#utility.yul\":4911:5028   */\n    tag_171:\n        /* \"#utility.yul\":5020:5021   */\n      0x00\n        /* \"#utility.yul\":5017:5018   */\n      0x00\n        /* \"#utility.yul\":5010:5022   */\n      revert\n        /* \"#utility.yul\":5034:5151   */\n    tag_172:\n        /* \"#utility.yul\":5143:5144   */\n      0x00\n        /* \"#utility.yul\":5140:5141   */\n      0x00\n        /* \"#utility.yul\":5133:5145   */\n      revert\n        /* \"#utility.yul\":5157:5337   */\n    tag_173:\n        /* \"#utility.yul\":5205:5282   */\n      0x4e487b7100000000000000000000000000000000000000000000000000000000\n        /* \"#utility.yul\":5202:5203   */\n      0x00\n        /* \"#utility.yul\":5195:5283   */\n      mstore\n        /* \"#utility.yul\":5302:5306   */\n      0x41\n        /* \"#utility.yul\":5299:5300   */\n      0x04\n        /* \"#utility.yul\":5292:5307   */\n      mstore\n        /* \"#utility.yul\":5326:5330   */\n      0x24\n        /* \"#utility.yul\":5323:5324   */\n      0x00\n        /* \"#utility.yul\":5316:5331   */\n      revert\n        /* \"#utility.yul\":5343:5624   */\n    tag_174:\n        /* \"#utility.yul\":5426:5453   */\n      tag_271\n        /* \"#utility.yul\":5448:5452   */\n      dup3\n        /* \"#utility.yul\":5426:5453   */\n      tag_157\n      jump\t// in\n    tag_271:\n        /* \"#utility.yul\":5418:5424   */\n      dup2\n        /* \"#utility.yul\":5414:5454   */\n      add\n        /* \"#utility.yul\":5556:5562   */\n      dup2\n        /* \"#utility.yul\":5544:5554   */\n      dup2\n        /* \"#utility.yul\":5541:5563   */\n      lt\n        /* \"#utility.yul\":5520:5538   */\n      0xffffffffffffffff\n        /* \"#utility.yul\":5508:5518   */\n      dup3\n        /* \"#utility.yul\":5505:5539   */\n      gt\n        /* \"#utility.yul\":5502:5564   */\n      or\n        /* \"#utility.yul\":5499:5587   */\n      iszero\n      tag_272\n      jumpi\n        /* \"#utility.yul\":5567:5585   */\n      tag_273\n      tag_173\n      jump\t// in\n    tag_273:\n        /* \"#utility.yul\":5499:5587   */\n    tag_272:\n        /* \"#utility.yul\":5607:5617   */\n      dup1\n        /* \"#utility.yul\":5603:5605   */\n      0x40\n        /* \"#utility.yul\":5596:5618   */\n      mstore\n        /* \"#utility.yul\":5386:5624   */\n      pop\n        /* \"#utility.yul\":5343:5624   */\n      pop\n      pop\n      jump\t// out\n        /* \"#utility.yul\":5630:5759   */\n    tag_175:\n        /* \"#utility.yul\":5664:5670   */\n      0x00\n        /* \"#utility.yul\":5691:5711   */\n      tag_275\n      tag_159\n      jump\t// in\n    tag_275:\n        /* \"#utility.yul\":5681:5711   */\n      swap1\n      pop\n        /* \"#utility.yul\":5720:5753   */\n      tag_276\n        /* \"#utility.yul\":5748:5752   */\n      dup3\n        /* \"#utility.yul\":5740:5746   */\n      dup3\n        /* \"#utility.yul\":5720:5753   */\n      tag_174\n      jump\t// in\n    tag_276:\n        /* \"#utility.yul\":5630:5759   */\n      swap2\n      swap1\n      pop\n      jump\t// out\n        /* \"#utility.yul\":5765:6073   */\n    tag_176:\n        /* \"#utility.yul\":5827:5831   */\n      0x00\n        /* \"#utility.yul\":5917:5935   */\n      0xffffffffffffffff\n        /* \"#utility.yul\":5909:5915   */\n      dup3\n        /* \"#utility.yul\":5906:5936   */\n      gt\n        /* \"#utility.yul\":5903:5959   */\n      iszero\n      tag_278\n      jumpi\n        /* \"#utility.yul\":5939:5957   */\n      tag_279\n      tag_173\n      jump\t// in\n    tag_279:\n        /* \"#utility.yul\":5903:5959   */\n    tag_278:\n        /* \"#utility.yul\":5977:6006   */\n      tag_280\n        /* \"#utility.yul\":5999:6005   */\n      dup3\n        /* \"#utility.yul\":5977:6006   */\n      tag_157\n      jump\t// in\n    tag_280:\n        /* \"#utility.yul\":5969:6006   */\n      swap1\n      pop\n        /* \"#utility.yul\":6061:6065   */\n      0x20\n        /* \"#utility.yul\":6055:6059   */\n      dup2\n        /* \"#utility.yul\":6051:6066   */\n      add\n        /* \"#utility.yul\":6043:6066   */\n      swap1\n      pop\n        /* \"#utility.yul\":5765:6073   */\n      swap2\n      swap1\n      pop\n      jump\t// out\n        /* \"#utility.yul\":6079:6227   */\n    tag_177:\n        /* \"#utility.yul\":6177:6183   */\n      dup3\n        /* \"#utility.yul\":6172:6175   */\n      dup2\n        /* \"#utility.yul\":6167:6170   */\n      dup4\n        /* \"#utility.yul\":6154:6184   */\n      calldatacopy\n        /* \"#utility.yul\":6218:6219   */\n      0x00\n        /* \"#utility.yul\":6209:6215   */\n      dup4\n        /* \"#utility.yul\":6204:6207   */\n      dup4\n        /* \"#utility.yul\":6200:6216   */\n      add\n        /* \"#utility.yul\":6193:6220   */\n      mstore\n        /* \"#utility.yul\":6079:6227   */\n      pop\n      pop\n      pop\n      jump\t// out\n        /* \"#utility.yul\":6233:6658   */\n    tag_178:\n        /* \"#utility.yul\":6311:6316   */\n      0x00\n        /* \"#utility.yul\":6336:6402   */\n      tag_283\n        /* \"#utility.yul\":6352:6401   */\n      tag_284\n        /* \"#utility.yul\":6394:6400   */\n      dup5\n        /* \"#utility.yul\":6352:6401   */\n      tag_176\n      jump\t// in\n    tag_284:\n        /* \"#utility.yul\":6336:6402   */\n      tag_175\n      jump\t// in\n    tag_283:\n        /* \"#utility.yul\":6327:6402   */\n      swap1\n      pop\n        /* \"#utility.yul\":6425:6431   */\n      dup3\n        /* \"#utility.yul\":6418:6423   */\n      dup2\n        /* \"#utility.yul\":6411:6432   */\n      mstore\n        /* \"#utility.yul\":6463:6467   */\n      0x20\n        /* \"#utility.yul\":6456:6461   */\n      dup2\n        /* \"#utility.yul\":6452:6468   */\n      add\n        /* \"#utility.yul\":6501:6504   */\n      dup5\n        /* \"#utility.yul\":6492:6498   */\n      dup5\n        /* \"#utility.yul\":6487:6490   */\n      dup5\n        /* \"#utility.yul\":6483:6499   */\n      add\n        /* \"#utility.yul\":6480:6505   */\n      gt\n        /* \"#utility.yul\":6477:6589   */\n      iszero\n      tag_285\n      jumpi\n        /* \"#utility.yul\":6508:6587   */\n      tag_286\n      tag_172\n      jump\t// in\n    tag_286:\n        /* \"#utility.yul\":6477:6589   */\n    tag_285:\n        /* \"#utility.yul\":6598:6652   */\n      tag_287\n        /* \"#utility.yul\":6645:6651   */\n      dup5\n        /* \"#utility.yul\":6640:6643   */\n      dup3\n        /* \"#utility.yul\":6635:6638   */\n      dup6\n        /* \"#utility.yul\":6598:6652   */\n      tag_177\n      jump\t// in\n    tag_287:\n        /* \"#utility.yul\":6317:6658   */\n      pop\n        /* \"#utility.yul\":6233:6658   */\n      swap4\n      swap3\n      pop\n      pop\n      pop\n      jump\t// out\n        /* \"#utility.yul\":6678:7018   */\n    tag_179:\n        /* \"#utility.yul\":6734:6739   */\n      0x00\n        /* \"#utility.yul\":6783:6786   */\n      dup3\n        /* \"#utility.yul\":6776:6780   */\n      0x1f\n        /* \"#utility.yul\":6768:6774   */\n      dup4\n        /* \"#utility.yul\":6764:6781   */\n      add\n        /* \"#utility.yul\":6760:6787   */\n      slt\n        /* \"#utility.yul\":6750:6872   */\n      tag_289\n      jumpi\n        /* \"#utility.yul\":6791:6870   */\n      tag_290\n      tag_171\n      jump\t// in\n    tag_290:\n        /* \"#utility.yul\":6750:6872   */\n    tag_289:\n        /* \"#utility.yul\":6908:6914   */\n      dup2\n        /* \"#utility.yul\":6895:6915   */\n      calldataload\n        /* \"#utility.yul\":6933:7012   */\n      tag_291\n        /* \"#utility.yul\":7008:7011   */\n      dup5\n        /* \"#utility.yul\":7000:7006   */\n      dup3\n        /* \"#utility.yul\":6993:6997   */\n      0x20\n        /* \"#utility.yul\":6985:6991   */\n      dup7\n        /* \"#utility.yul\":6981:6998   */\n      add\n        /* \"#utility.yul\":6933:7012   */\n      tag_178\n      jump\t// in\n    tag_291:\n        /* \"#utility.yul\":6924:7012   */\n      swap2\n      pop\n        /* \"#utility.yul\":6740:7018   */\n      pop\n        /* \"#utility.yul\":6678:7018   */\n      swap3\n      swap2\n      pop\n      pop\n      jump\t// out\n        /* \"#utility.yul\":7024:7678   */\n    tag_63:\n        /* \"#utility.yul\":7102:7108   */\n      0x00\n        /* \"#utility.yul\":7110:7116   */\n      0x00\n        /* \"#utility.yul\":7159:7161   */\n      0x40\n        /* \"#utility.yul\":7147:7156   */\n      dup4\n        /* \"#utility.yul\":7138:7145   */\n      dup6\n        /* \"#utility.yul\":7134:7157   */\n      sub\n        /* \"#utility.yul\":7130:7162   */\n      slt\n        /* \"#utility.yul\":7127:7246   */\n      iszero\n      tag_293\n      jumpi\n        /* \"#utility.yul\":7165:7244   */\n      tag_294\n      tag_160\n      jump\t// in\n    tag_294:\n        /* \"#utility.yul\":7127:7246   */\n    tag_293:\n        /* \"#utility.yul\":7285:7286   */\n      0x00\n        /* \"#utility.yul\":7310:7363   */\n      tag_295\n        /* \"#utility.yul\":7355:7362   */\n      dup6\n        /* \"#utility.yul\":7346:7352   */\n      dup3\n        /* \"#utility.yul\":7335:7344   */\n      dup7\n        /* \"#utility.yul\":7331:7353   */\n      add\n        /* \"#utility.yul\":7310:7363   */\n      tag_169\n      jump\t// in\n    tag_295:\n        /* \"#utility.yul\":7300:7363   */\n      swap3\n      pop\n        /* \"#utility.yul\":7256:7373   */\n      pop\n        /* \"#utility.yul\":7440:7442   */\n      0x20\n        /* \"#utility.yul\":7429:7438   */\n      dup4\n        /* \"#utility.yul\":7425:7443   */\n      add\n        /* \"#utility.yul\":7412:7444   */\n      calldataload\n        /* \"#utility.yul\":7471:7489   */\n      0xffffffffffffffff\n        /* \"#utility.yul\":7463:7469   */\n      dup2\n        /* \"#utility.yul\":7460:7490   */\n      gt\n        /* \"#utility.yul\":7457:7574   */\n      iszero\n      tag_296\n      jumpi\n        /* \"#utility.yul\":7493:7572   */\n      tag_297\n      tag_161\n      jump\t// in\n    tag_297:\n        /* \"#utility.yul\":7457:7574   */\n    tag_296:\n        /* \"#utility.yul\":7598:7661   */\n      tag_298\n        /* \"#utility.yul\":7653:7660   */\n      dup6\n        /* \"#utility.yul\":7644:7650   */\n      dup3\n        /* \"#utility.yul\":7633:7642   */\n      dup7\n        /* \"#utility.yul\":7629:7651   */\n      add\n        /* \"#utility.yul\":7598:7661   */\n      tag_179\n      jump\t// in\n    tag_298:\n        /* \"#utility.yul\":7588:7661   */\n      swap2\n      pop\n        /* \"#utility.yul\":7383:7671   */\n      pop\n        /* \"#utility.yul\":7024:7678   */\n      swap3\n      pop\n      swap3\n      swap1\n      pop\n      jump\t// out\n        /* \"#utility.yul\":7684:7774   */\n    tag_180:\n        /* \"#utility.yul\":7718:7725   */\n      0x00\n        /* \"#utility.yul\":7761:7766   */\n      dup2\n        /* \"#utility.yul\":7754:7767   */\n      iszero\n        /* \"#utility.yul\":7747:7768   */\n      iszero\n        /* \"#utility.yul\":7736:7768   */\n      swap1\n      pop\n        /* \"#utility.yul\":7684:7774   */\n      swap2\n      swap1\n      pop\n      jump\t// out\n        /* \"#utility.yul\":7780:7896   */\n    tag_181:\n        /* \"#utility.yul\":7850:7871   */\n      tag_301\n        /* \"#utility.yul\":7865:7870   */\n      dup2\n        /* \"#utility.yul\":7850:7871   */\n      tag_180\n      jump\t// in\n    tag_301:\n        /* \"#utility.yul\":7843:7848   */\n      dup2\n        /* \"#utility.yul\":7840:7872   */\n      eq\n        /* \"#utility.yul\":7830:7890   */\n      tag_302\n      jumpi\n        /* \"#utility.yul\":7886:7887   */\n      0x00\n        /* \"#utility.yul\":7883:7884   */\n      0x00\n        /* \"#utility.yul\":7876:7888   */\n      revert\n        /* \"#utility.yul\":7830:7890   */\n    tag_302:\n        /* \"#utility.yul\":7780:7896   */\n      pop\n      jump\t// out\n        /* \"#utility.yul\":7902:8035   */\n    tag_182:\n        /* \"#utility.yul\":7945:7950   */\n      0x00\n        /* \"#utility.yul\":7983:7989   */\n      dup2\n        /* \"#utility.yul\":7970:7990   */\n      calldataload\n        /* \"#utility.yul\":7961:7990   */\n      swap1\n      pop\n        /* \"#utility.yul\":7999:8029   */\n      tag_304\n        /* \"#utility.yul\":8023:8028   */\n      dup2\n        /* \"#utility.yul\":7999:8029   */\n      tag_181\n      jump\t// in\n    tag_304:\n        /* \"#utility.yul\":7902:8035   */\n      swap3\n      swap2\n      pop\n      pop\n      jump\t// out\n        /* \"#utility.yul\":8041:8509   */\n    tag_68:\n        /* \"#utility.yul\":8106:8112   */\n      0x00\n        /* \"#utility.yul\":8114:8120   */\n      0x00\n        /* \"#utility.yul\":8163:8165   */\n      0x40\n        /* \"#utility.yul\":8151:8160   */\n      dup4\n        /* \"#utility.yul\":8142:8149   */\n      dup6\n        /* \"#utility.yul\":8138:8161   */\n      sub\n        /* \"#utility.yul\":8134:8166   */\n      slt\n        /* \"#utility.yul\":8131:8250   */\n      iszero\n      tag_306\n      jumpi\n        /* \"#utility.yul\":8169:8248   */\n      tag_307\n      tag_160\n      jump\t// in\n    tag_307:\n        /* \"#utility.yul\":8131:8250   */\n    tag_306:\n        /* \"#utility.yul\":8289:8290   */\n      0x00\n        /* \"#utility.yul\":8314:8367   */\n      tag_308\n        /* \"#utility.yul\":8359:8366   */\n      dup6\n        /* \"#utility.yul\":8350:8356   */\n      dup3\n        /* \"#utility.yul\":8339:8348   */\n      dup7\n        /* \"#utility.yul\":8335:8357   */\n      add\n        /* \"#utility.yul\":8314:8367   */\n      tag_169\n      jump\t// in\n    tag_308:\n        /* \"#utility.yul\":8304:8367   */\n      swap3\n      pop\n        /* \"#utility.yul\":8260:8377   */\n      pop\n        /* \"#utility.yul\":8416:8418   */\n      0x20\n        /* \"#utility.yul\":8442:8492   */\n      tag_309\n        /* \"#utility.yul\":8484:8491   */\n      dup6\n        /* \"#utility.yul\":8475:8481   */\n      dup3\n        /* \"#utility.yul\":8464:8473   */\n      dup7\n        /* \"#utility.yul\":8460:8482   */\n      add\n        /* \"#utility.yul\":8442:8492   */\n      tag_182\n      jump\t// in\n    tag_309:\n        /* \"#utility.yul\":8432:8492   */\n      swap2\n      pop\n        /* \"#utility.yul\":8387:8502   */\n      pop\n        /* \"#utility.yul\":8041:8509   */\n      swap3\n      pop\n      swap3\n      swap1\n      pop\n      jump\t// out\n        /* \"#utility.yul\":8515:9134   */\n    tag_72:\n        /* \"#utility.yul\":8592:8598   */\n      0x00\n        /* \"#utility.yul\":8600:8606   */\n      0x00\n        /* \"#utility.yul\":8608:8614   */\n      0x00\n        /* \"#utility.yul\":8657:8659   */\n      0x60\n        /* \"#utility.yul\":8645:8654   */\n      dup5\n        /* \"#utility.yul\":8636:8643   */\n      dup7\n        /* \"#utility.yul\":8632:8655   */\n      sub\n        /* \"#utility.yul\":8628:8660   */\n      slt\n        /* \"#utility.yul\":8625:8744   */\n      iszero\n      tag_311\n      jumpi\n        /* \"#utility.yul\":8663:8742   */\n      tag_312\n      tag_160\n      jump\t// in\n    tag_312:\n        /* \"#utility.yul\":8625:8744   */\n    tag_311:\n        /* \"#utility.yul\":8783:8784   */\n      0x00\n        /* \"#utility.yul\":8808:8861   */\n      tag_313\n        /* \"#utility.yul\":8853:8860   */\n      dup7\n        /* \"#utility.yul\":8844:8850   */\n      dup3\n        /* \"#utility.yul\":8833:8842   */\n      dup8\n        /* \"#utility.yul\":8829:8851   */\n      add\n        /* \"#utility.yul\":8808:8861   */\n      tag_164\n      jump\t// in\n    tag_313:\n        /* \"#utility.yul\":8798:8861   */\n      swap4\n      pop\n        /* \"#utility.yul\":8754:8871   */\n      pop\n        /* \"#utility.yul\":8910:8912   */\n      0x20\n        /* \"#utility.yul\":8936:8989   */\n      tag_314\n        /* \"#utility.yul\":8981:8988   */\n      dup7\n        /* \"#utility.yul\":8972:8978   */\n      dup3\n        /* \"#utility.yul\":8961:8970   */\n      dup8\n        /* \"#utility.yul\":8957:8979   */\n      add\n        /* \"#utility.yul\":8936:8989   */\n      tag_169\n      jump\t// in\n    tag_314:\n        /* \"#utility.yul\":8926:8989   */\n      swap3\n      pop\n        /* \"#utility.yul\":8881:8999   */\n      pop\n        /* \"#utility.yul\":9038:9040   */\n      0x40\n        /* \"#utility.yul\":9064:9117   */\n      tag_315\n        /* \"#utility.yul\":9109:9116   */\n      dup7\n        /* \"#utility.yul\":9100:9106   */\n      dup3\n        /* \"#utility.yul\":9089:9098   */\n      dup8\n        /* \"#utility.yul\":9085:9107   */\n      add\n        /* \"#utility.yul\":9064:9117   */\n      tag_169\n      jump\t// in\n    tag_315:\n        /* \"#utility.yul\":9054:9117   */\n      swap2\n      pop\n        /* \"#utility.yul\":9009:9127   */\n      pop\n        /* \"#utility.yul\":8515:9134   */\n      swap3\n      pop\n      swap3\n      pop\n      swap3\n      jump\t// out\n        /* \"#utility.yul\":9140:9249   */\n    tag_183:\n        /* \"#utility.yul\":9221:9242   */\n      tag_317\n        /* \"#utility.yul\":9236:9241   */\n      dup2\n        /* \"#utility.yul\":9221:9242   */\n      tag_180\n      jump\t// in\n    tag_317:\n        /* \"#utility.yul\":9216:9219   */\n      dup3\n        /* \"#utility.yul\":9209:9243   */\n      mstore\n        /* \"#utility.yul\":9140:9249   */\n      pop\n      pop\n      jump\t// out\n        /* \"#utility.yul\":9255:9465   */\n    tag_75:\n        /* \"#utility.yul\":9342:9346   */\n      0x00\n        /* \"#utility.yul\":9380:9382   */\n      0x20\n        /* \"#utility.yul\":9369:9378   */\n      dup3\n        /* \"#utility.yul\":9365:9383   */\n      add\n        /* \"#utility.yul\":9357:9383   */\n      swap1\n      pop\n        /* \"#utility.yul\":9393:9458   */\n      tag_319\n        /* \"#utility.yul\":9455:9456   */\n      0x00\n        /* \"#utility.yul\":9444:9453   */\n      dup4\n        /* \"#utility.yul\":9440:9457   */\n      add\n        /* \"#utility.yul\":9431:9437   */\n      dup5\n        /* \"#utility.yul\":9393:9458   */\n      tag_183\n      jump\t// in\n    tag_319:\n        /* \"#utility.yul\":9255:9465   */\n      swap3\n      swap2\n      pop\n      pop\n      jump\t// out\n        /* \"#utility.yul\":9471:9945   */\n    tag_78:\n        /* \"#utility.yul\":9539:9545   */\n      0x00\n        /* \"#utility.yul\":9547:9553   */\n      0x00\n        /* \"#utility.yul\":9596:9598   */\n      0x40\n        /* \"#utility.yul\":9584:9593   */\n      dup4\n        /* \"#utility.yul\":9575:9582   */\n      dup6\n        /* \"#utility.yul\":9571:9594   */\n      sub\n        /* \"#utility.yul\":9567:9599   */\n      slt\n        /* \"#utility.yul\":9564:9683   */\n      iszero\n      tag_321\n      jumpi\n        /* \"#utility.yul\":9602:9681   */\n      tag_322\n      tag_160\n      jump\t// in\n    tag_322:\n        /* \"#utility.yul\":9564:9683   */\n    tag_321:\n        /* \"#utility.yul\":9722:9723   */\n      0x00\n        /* \"#utility.yul\":9747:9800   */\n      tag_323\n        /* \"#utility.yul\":9792:9799   */\n      dup6\n        /* \"#utility.yul\":9783:9789   */\n      dup3\n        /* \"#utility.yul\":9772:9781   */\n      dup7\n        /* \"#utility.yul\":9768:9790   */\n      add\n        /* \"#utility.yul\":9747:9800   */\n      tag_169\n      jump\t// in\n    tag_323:\n        /* \"#utility.yul\":9737:9800   */\n      swap3\n      pop\n        /* \"#utility.yul\":9693:9810   */\n      pop\n        /* \"#utility.yul\":9849:9851   */\n      0x20\n        /* \"#utility.yul\":9875:9928   */\n      tag_324\n        /* \"#utility.yul\":9920:9927   */\n      dup6\n        /* \"#utility.yul\":9911:9917   */\n      dup3\n        /* \"#utility.yul\":9900:9909   */\n      dup7\n        /* \"#utility.yul\":9896:9918   */\n      add\n        /* \"#utility.yul\":9875:9928   */\n      tag_169\n      jump\t// in\n    tag_324:\n        /* \"#utility.yul\":9865:9928   */\n      swap2\n      pop\n        /* \"#utility.yul\":9820:9938   */\n      pop\n        /* \"#utility.yul\":9471:9945   */\n      swap3\n      pop\n      swap3\n      swap1\n      pop\n      jump\t// out\n        /* \"#utility.yul\":9951:10131   */\n    tag_184:\n        /* \"#utility.yul\":9999:10076   */\n      0x4e487b7100000000000000000000000000000000000000000000000000000000\n        /* \"#utility.yul\":9996:9997   */\n      0x00\n        /* \"#utility.yul\":9989:10077   */\n      mstore\n        /* \"#utility.yul\":10096:10100   */\n      0x22\n        /* \"#utility.yul\":10093:10094   */\n      0x04\n        /* \"#utility.yul\":10086:10101   */\n      mstore\n        /* \"#utility.yul\":10120:10124   */\n      0x24\n        /* \"#utility.yul\":10117:10118   */\n      0x00\n        /* \"#utility.yul\":10110:10125   */\n      revert\n        /* \"#utility.yul\":10137:10457   */\n    tag_82:\n        /* \"#utility.yul\":10181:10187   */\n      0x00\n        /* \"#utility.yul\":10218:10219   */\n      0x02\n        /* \"#utility.yul\":10212:10216   */\n      dup3\n        /* \"#utility.yul\":10208:10220   */\n      div\n        /* \"#utility.yul\":10198:10220   */\n      swap1\n      pop\n        /* \"#utility.yul\":10265:10266   */\n      0x01\n        /* \"#utility.yul\":10259:10263   */\n      dup3\n        /* \"#utility.yul\":10255:10267   */\n      and\n        /* \"#utility.yul\":10286:10304   */\n      dup1\n        /* \"#utility.yul\":10276:10357   */\n      tag_327\n      jumpi\n        /* \"#utility.yul\":10342:10346   */\n      0x7f\n        /* \"#utility.yul\":10334:10340   */\n      dup3\n        /* \"#utility.yul\":10330:10347   */\n      and\n        /* \"#utility.yul\":10320:10347   */\n      swap2\n      pop\n        /* \"#utility.yul\":10276:10357   */\n    tag_327:\n        /* \"#utility.yul\":10404:10406   */\n      0x20\n        /* \"#utility.yul\":10396:10402   */\n      dup3\n        /* \"#utility.yul\":10393:10407   */\n      lt\n        /* \"#utility.yul\":10373:10391   */\n      dup2\n        /* \"#utility.yul\":10370:10408   */\n      sub\n        /* \"#utility.yul\":10367:10451   */\n      tag_328\n      jumpi\n        /* \"#utility.yul\":10423:10441   */\n      tag_329\n      tag_184\n      jump\t// in\n    tag_329:\n        /* \"#utility.yul\":10367:10451   */\n    tag_328:\n        /* \"#utility.yul\":10188:10457   */\n      pop\n        /* \"#utility.yul\":10137:10457   */\n      swap2\n      swap1\n      pop\n      jump\t// out\n        /* \"#utility.yul\":10463:10633   */\n    tag_185:\n        /* \"#utility.yul\":10603:10625   */\n      0x546f6b656e20646f6573206e6f74206578697374000000000000000000000000\n        /* \"#utility.yul\":10599:10600   */\n      0x00\n        /* \"#utility.yul\":10591:10597   */\n      dup3\n        /* \"#utility.yul\":10587:10601   */\n      add\n        /* \"#utility.yul\":10580:10626   */\n      mstore\n        /* \"#utility.yul\":10463:10633   */\n      pop\n      jump\t// out\n        /* \"#utility.yul\":10639:11005   */\n    tag_186:\n        /* \"#utility.yul\":10781:10784   */\n      0x00\n        /* \"#utility.yul\":10802:10869   */\n      tag_332\n        /* \"#utility.yul\":10866:10868   */\n      0x14\n        /* \"#utility.yul\":10861:10864   */\n      dup4\n        /* \"#utility.yul\":10802:10869   */\n      tag_155\n      jump\t// in\n    tag_332:\n        /* \"#utility.yul\":10795:10869   */\n      swap2\n      pop\n        /* \"#utility.yul\":10878:10971   */\n      tag_333\n        /* \"#utility.yul\":10967:10970   */\n      dup3\n        /* \"#utility.yul\":10878:10971   */\n      tag_185\n      jump\t// in\n    tag_333:\n        /* \"#utility.yul\":10996:10998   */\n      0x20\n        /* \"#utility.yul\":10991:10994   */\n      dup3\n        /* \"#utility.yul\":10987:10999   */\n      add\n        /* \"#utility.yul\":10980:10999   */\n      swap1\n      pop\n        /* \"#utility.yul\":10639:11005   */\n      swap2\n      swap1\n      pop\n      jump\t// out\n        /* \"#utility.yul\":11011:11430   */\n    tag_90:\n        /* \"#utility.yul\":11177:11181   */\n      0x00\n        /* \"#utility.yul\":11215:11217   */\n      0x20\n        /* \"#utility.yul\":11204:11213   */\n      dup3\n        /* \"#utility.yul\":11200:11218   */\n      add\n        /* \"#utility.yul\":11192:11218   */\n      swap1\n      pop\n        /* \"#utility.yul\":11264:11273   */\n      dup2\n        /* \"#utility.yul\":11258:11262   */\n      dup2\n        /* \"#utility.yul\":11254:11274   */\n      sub\n        /* \"#utility.yul\":11250:11251   */\n      0x00\n        /* \"#utility.yul\":11239:11248   */\n      dup4\n        /* \"#utility.yul\":11235:11252   */\n      add\n        /* \"#utility.yul\":11228:11275   */\n      mstore\n        /* \"#utility.yul\":11292:11423   */\n      tag_335\n        /* \"#utility.yul\":11418:11422   */\n      dup2\n        /* \"#utility.yul\":11292:11423   */\n      tag_186\n      jump\t// in\n    tag_335:\n        /* \"#utility.yul\":11284:11423   */\n      swap1\n      pop\n        /* \"#utility.yul\":11011:11430   */\n      swap2\n      swap1\n      pop\n      jump\t// out\n        /* \"#utility.yul\":11436:11600   */\n    tag_187:\n        /* \"#utility.yul\":11576:11592   */\n      0x4e6f7420617574686f72697a6564000000000000000000000000000000000000\n        /* \"#utility.yul\":11572:11573   */\n      0x00\n        /* \"#utility.yul\":11564:11570   */\n      dup3\n        /* \"#utility.yul\":11560:11574   */\n      add\n        /* \"#utility.yul\":11553:11593   */\n      mstore\n        /* \"#utility.yul\":11436:11600   */\n      pop\n      jump\t// out\n        /* \"#utility.yul\":11606:11972   */\n    tag_188:\n        /* \"#utility.yul\":11748:11751   */\n      0x00\n        /* \"#utility.yul\":11769:11836   */\n      tag_338\n        /* \"#utility.yul\":11833:11835   */\n      0x0e\n        /* \"#utility.yul\":11828:11831   */\n      dup4\n        /* \"#utility.yul\":11769:11836   */\n      tag_155\n      jump\t// in\n    tag_338:\n        /* \"#utility.yul\":11762:11836   */\n      swap2\n      pop\n        /* \"#utility.yul\":11845:11938   */\n      tag_339\n        /* \"#utility.yul\":11934:11937   */\n      dup3\n        /* \"#utility.yul\":11845:11938   */\n      tag_187\n      jump\t// in\n    tag_339:\n        /* \"#utility.yul\":11963:11965   */\n      0x20\n        /* \"#utility.yul\":11958:11961   */\n      dup3\n        /* \"#utility.yul\":11954:11966   */\n      add\n        /* \"#utility.yul\":11947:11966   */\n      swap1\n      pop\n        /* \"#utility.yul\":11606:11972   */\n      swap2\n      swap1\n      pop\n      jump\t// out\n        /* \"#utility.yul\":11978:12397   */\n    tag_95:\n        /* \"#utility.yul\":12144:12148   */\n      0x00\n        /* \"#utility.yul\":12182:12184   */\n      0x20\n        /* \"#utility.yul\":12171:12180   */\n      dup3\n        /* \"#utility.yul\":12167:12185   */\n      add\n        /* \"#utility.yul\":12159:12185   */\n      swap1\n      pop\n        /* \"#utility.yul\":12231:12240   */\n      dup2\n        /* \"#utility.yul\":12225:12229   */\n      dup2\n        /* \"#utility.yul\":12221:12241   */\n      sub\n        /* \"#utility.yul\":12217:12218   */\n      0x00\n        /* \"#utility.yul\":12206:12215   */\n      dup4\n        /* \"#utility.yul\":12202:12219   */\n      add\n        /* \"#utility.yul\":12195:12242   */\n      mstore\n        /* \"#utility.yul\":12259:12390   */\n      tag_341\n        /* \"#utility.yul\":12385:12389   */\n      dup2\n        /* \"#utility.yul\":12259:12390   */\n      tag_188\n      jump\t// in\n    tag_341:\n        /* \"#utility.yul\":12251:12390   */\n      swap1\n      pop\n        /* \"#utility.yul\":11978:12397   */\n      swap2\n      swap1\n      pop\n      jump\t// out\n        /* \"#utility.yul\":12403:12566   */\n    tag_189:\n        /* \"#utility.yul\":12543:12558   */\n      0x4e6f7420746865206f776e657200000000000000000000000000000000000000\n        /* \"#utility.yul\":12539:12540   */\n      0x00\n        /* \"#utility.yul\":12531:12537   */\n      dup3\n        /* \"#utility.yul\":12527:12541   */\n      add\n        /* \"#utility.yul\":12520:12559   */\n      mstore\n        /* \"#utility.yul\":12403:12566   */\n      pop\n      jump\t// out\n        /* \"#utility.yul\":12572:12938   */\n    tag_190:\n        /* \"#utility.yul\":12714:12717   */\n      0x00\n        /* \"#utility.yul\":12735:12802   */\n      tag_344\n        /* \"#utility.yul\":12799:12801   */\n      0x0d\n        /* \"#utility.yul\":12794:12797   */\n      dup4\n        /* \"#utility.yul\":12735:12802   */\n      tag_155\n      jump\t// in\n    tag_344:\n        /* \"#utility.yul\":12728:12802   */\n      swap2\n      pop\n        /* \"#utility.yul\":12811:12904   */\n      tag_345\n        /* \"#utility.yul\":12900:12903   */\n      dup3\n        /* \"#utility.yul\":12811:12904   */\n      tag_189\n      jump\t// in\n    tag_345:\n        /* \"#utility.yul\":12929:12931   */\n      0x20\n        /* \"#utility.yul\":12924:12927   */\n      dup3\n        /* \"#utility.yul\":12920:12932   */\n      add\n        /* \"#utility.yul\":12913:12932   */\n      swap1\n      pop\n        /* \"#utility.yul\":12572:12938   */\n      swap2\n      swap1\n      pop\n      jump\t// out\n        /* \"#utility.yul\":12944:13363   */\n    tag_99:\n        /* \"#utility.yul\":13110:13114   */\n      0x00\n        /* \"#utility.yul\":13148:13150   */\n      0x20\n        /* \"#utility.yul\":13137:13146   */\n      dup3\n        /* \"#utility.yul\":13133:13151   */\n      add\n        /* \"#utility.yul\":13125:13151   */\n      swap1\n      pop\n        /* \"#utility.yul\":13197:13206   */\n      dup2\n        /* \"#utility.yul\":13191:13195   */\n      dup2\n        /* \"#utility.yul\":13187:13207   */\n      sub\n        /* \"#utility.yul\":13183:13184   */\n      0x00\n        /* \"#utility.yul\":13172:13181   */\n      dup4\n        /* \"#utility.yul\":13168:13185   */\n      add\n        /* \"#utility.yul\":13161:13208   */\n      mstore\n        /* \"#utility.yul\":13225:13356   */\n      tag_347\n        /* \"#utility.yul\":13351:13355   */\n      dup2\n        /* \"#utility.yul\":13225:13356   */\n      tag_190\n      jump\t// in\n    tag_347:\n        /* \"#utility.yul\":13217:13356   */\n      swap1\n      pop\n        /* \"#utility.yul\":12944:13363   */\n      swap2\n      swap1\n      pop\n      jump\t// out\n        /* \"#utility.yul\":13369:13549   */\n    tag_191:\n        /* \"#utility.yul\":13417:13494   */\n      0x4e487b7100000000000000000000000000000000000000000000000000000000\n        /* \"#utility.yul\":13414:13415   */\n      0x00\n        /* \"#utility.yul\":13407:13495   */\n      mstore\n        /* \"#utility.yul\":13514:13518   */\n      0x11\n        /* \"#utility.yul\":13511:13512   */\n      0x04\n        /* \"#utility.yul\":13504:13519   */\n      mstore\n        /* \"#utility.yul\":13538:13542   */\n      0x24\n        /* \"#utility.yul\":13535:13536   */\n      0x00\n        /* \"#utility.yul\":13528:13543   */\n      revert\n        /* \"#utility.yul\":13555:13726   */\n    tag_105:\n        /* \"#utility.yul\":13594:13597   */\n      0x00\n        /* \"#utility.yul\":13617:13641   */\n      tag_350\n        /* \"#utility.yul\":13635:13640   */\n      dup3\n        /* \"#utility.yul\":13617:13641   */\n      tag_162\n      jump\t// in\n    tag_350:\n        /* \"#utility.yul\":13608:13641   */\n      swap2\n      pop\n        /* \"#utility.yul\":13663:13667   */\n      0x00\n        /* \"#utility.yul\":13656:13661   */\n      dup3\n        /* \"#utility.yul\":13653:13668   */\n      sub\n        /* \"#utility.yul\":13650:13691   */\n      tag_351\n      jumpi\n        /* \"#utility.yul\":13671:13689   */\n      tag_352\n      tag_191\n      jump\t// in\n    tag_352:\n        /* \"#utility.yul\":13650:13691   */\n    tag_351:\n        /* \"#utility.yul\":13718:13719   */\n      0x01\n        /* \"#utility.yul\":13711:13716   */\n      dup3\n        /* \"#utility.yul\":13707:13720   */\n      sub\n        /* \"#utility.yul\":13700:13720   */\n      swap1\n      pop\n        /* \"#utility.yul\":13555:13726   */\n      swap2\n      swap1\n      pop\n      jump\t// out\n        /* \"#utility.yul\":13732:13965   */\n    tag_107:\n        /* \"#utility.yul\":13771:13774   */\n      0x00\n        /* \"#utility.yul\":13794:13818   */\n      tag_354\n        /* \"#utility.yul\":13812:13817   */\n      dup3\n        /* \"#utility.yul\":13794:13818   */\n      tag_162\n      jump\t// in\n    tag_354:\n        /* \"#utility.yul\":13785:13818   */\n      swap2\n      pop\n        /* \"#utility.yul\":13840:13906   */\n      0xffffffffffffffffffffffffffffffffffffffffffffffffffffffffffffffff\n        /* \"#utility.yul\":13833:13838   */\n      dup3\n        /* \"#utility.yul\":13830:13907   */\n      sub\n        /* \"#utility.yul\":13827:13930   */\n      tag_355\n      jumpi\n        /* \"#utility.yul\":13910:13928   */\n      tag_356\n      tag_191\n      jump\t// in\n    tag_356:\n        /* \"#utility.yul\":13827:13930   */\n    tag_355:\n        /* \"#utility.yul\":13957:13958   */\n      0x01\n        /* \"#utility.yul\":13950:13955   */\n      dup3\n        /* \"#utility.yul\":13946:13959   */\n      add\n        /* \"#utility.yul\":13939:13959   */\n      swap1\n      pop\n        /* \"#utility.yul\":13732:13965   */\n      swap2\n      swap1\n      pop\n      jump\t// out\n        /* \"#utility.yul\":13971:14136   */\n    tag_192:\n        /* \"#utility.yul\":14111:14128   */\n      0x496e76616c696420616464726573730000000000000000000000000000000000\n        /* \"#utility.yul\":14107:14108   */\n      0x00\n        /* \"#utility.yul\":14099:14105   */\n      dup3\n        /* \"#utility.yul\":14095:14109   */\n      add\n        /* \"#utility.yul\":14088:14129   */\n      mstore\n        /* \"#utility.yul\":13971:14136   */\n      pop\n      jump\t// out\n        /* \"#utility.yul\":14142:14508   */\n    tag_193:\n        /* \"#utility.yul\":14284:14287   */\n      0x00\n        /* \"#utility.yul\":14305:14372   */\n      tag_359\n        /* \"#utility.yul\":14369:14371   */\n      0x0f\n        /* \"#utility.yul\":14364:14367   */\n      dup4\n        /* \"#utility.yul\":14305:14372   */\n      tag_155\n      jump\t// in\n    tag_359:\n        /* \"#utility.yul\":14298:14372   */\n      swap2\n      pop\n        /* \"#utility.yul\":14381:14474   */\n      tag_360\n        /* \"#utility.yul\":14470:14473   */\n      dup3\n        /* \"#utility.yul\":14381:14474   */\n      tag_192\n      jump\t// in\n    tag_360:\n        /* \"#utility.yul\":14499:14501   */\n      0x20\n        /* \"#utility.yul\":14494:14497   */\n      dup3\n        /* \"#utility.yul\":14490:14502   */\n      add\n        /* \"#utility.yul\":14483:14502   */\n      swap1\n      pop\n        /* \"#utility.yul\":14142:14508   */\n      swap2\n      swap1\n      pop\n      jump\t// out\n        /* \"#utility.yul\":14514:14933   */\n    tag_122:\n        /* \"#utility.yul\":14680:14684   */\n      0x00\n        /* \"#utility.yul\":14718:14720   */\n      0x20\n        /* \"#utility.yul\":14707:14716   */\n      dup3\n        /* \"#utility.yul\":14703:14721   */\n      add\n        /* \"#utility.yul\":14695:14721   */\n      swap1\n      pop\n        /* \"#utility.yul\":14767:14776   */\n      dup2\n        /* \"#utility.yul\":14761:14765   */\n      dup2\n        /* \"#utility.yul\":14757:14777   */\n      sub\n        /* \"#utility.yul\":14753:14754   */\n      0x00\n        /* \"#utility.yul\":14742:14751   */\n      dup4\n        /* \"#utility.yul\":14738:14755   */\n      add\n        /* \"#utility.yul\":14731:14778   */\n      mstore\n        /* \"#utility.yul\":14795:14926   */\n      tag_362\n        /* \"#utility.yul\":14921:14925   */\n      dup2\n        /* \"#utility.yul\":14795:14926   */\n      tag_193\n      jump\t// in\n    tag_362:\n        /* \"#utility.yul\":14787:14926   */\n      swap1\n      pop\n        /* \"#utility.yul\":14514:14933   */\n      swap2\n      swap1\n      pop\n      jump\t// out\n        /* \"#utility.yul\":14939:15133   */\n    tag_125:\n        /* \"#utility.yul\":14979:14983   */\n      0x00\n        /* \"#utility.yul\":14999:15019   */\n      tag_364\n        /* \"#utility.yul\":15017:15018   */\n      dup3\n        /* \"#utility.yul\":14999:15019   */\n      tag_162\n      jump\t// in\n    tag_364:\n        /* \"#utility.yul\":14994:15019   */\n      swap2\n      pop\n        /* \"#utility.yul\":15033:15053   */\n      tag_365\n        /* \"#utility.yul\":15051:15052   */\n      dup4\n        /* \"#utility.yul\":15033:15053   */\n      tag_162\n      jump\t// in\n    tag_365:\n        /* \"#utility.yul\":15028:15053   */\n      swap3\n      pop\n        /* \"#utility.yul\":15077:15078   */\n      dup3\n        /* \"#utility.yul\":15074:15075   */\n      dup3\n        /* \"#utility.yul\":15070:15079   */\n      sub\n        /* \"#utility.yul\":15062:15079   */\n      swap1\n      pop\n        /* \"#utility.yul\":15101:15102   */\n      dup2\n        /* \"#utility.yul\":15095:15099   */\n      dup2\n        /* \"#utility.yul\":15092:15103   */\n      gt\n        /* \"#utility.yul\":15089:15126   */\n      iszero\n      tag_366\n      jumpi\n        /* \"#utility.yul\":15106:15124   */\n      tag_367\n      tag_191\n      jump\t// in\n    tag_367:\n        /* \"#utility.yul\":15089:15126   */\n    tag_366:\n        /* \"#utility.yul\":14939:15133   */\n      swap3\n      swap2\n      pop\n      pop\n      jump\t// out\n        /* \"#utility.yul\":15139:15306   */\n    tag_194:\n        /* \"#utility.yul\":15279:15298   */\n      0x496e76616c696420726563697069656e74000000000000000000000000000000\n        /* \"#utility.yul\":15275:15276   */\n      0x00\n        /* \"#utility.yul\":15267:15273   */\n      dup3\n        /* \"#utility.yul\":15263:15277   */\n      add\n        /* \"#utility.yul\":15256:15299   */\n      mstore\n        /* \"#utility.yul\":15139:15306   */\n      pop\n      jump\t// out\n        /* \"#utility.yul\":15312:15678   */\n    tag_195:\n        /* \"#utility.yul\":15454:15457   */\n      0x00\n        /* \"#utility.yul\":15475:15542   */\n      tag_370\n        /* \"#utility.yul\":15539:15541   */\n      0x11\n        /* \"#utility.yul\":15534:15537   */\n      dup4\n        /* \"#utility.yul\":15475:15542   */\n      tag_155\n      jump\t// in\n    tag_370:\n        /* \"#utility.yul\":15468:15542   */\n      swap2\n      pop\n        /* \"#utility.yul\":15551:15644   */\n      tag_371\n        /* \"#utility.yul\":15640:15643   */\n      dup3\n        /* \"#utility.yul\":15551:15644   */\n      tag_194\n      jump\t// in\n    tag_371:\n        /* \"#utility.yul\":15669:15671   */\n      0x20\n        /* \"#utility.yul\":15664:15667   */\n      dup3\n        /* \"#utility.yul\":15660:15672   */\n      add\n        /* \"#utility.yul\":15653:15672   */\n      swap1\n      pop\n        /* \"#utility.yul\":15312:15678   */\n      swap2\n      swap1\n      pop\n      jump\t// out\n        /* \"#utility.yul\":15684:16103   */\n    tag_137:\n        /* \"#utility.yul\":15850:15854   */\n      0x00\n        /* \"#utility.yul\":15888:15890   */\n      0x20\n        /* \"#utility.yul\":15877:15886   */\n      dup3\n        /* \"#utility.yul\":15873:15891   */\n      add\n        /* \"#utility.yul\":15865:15891   */\n      swap1\n      pop\n        /* \"#utility.yul\":15937:15946   */\n      dup2\n        /* \"#utility.yul\":15931:15935   */\n      dup2\n        /* \"#utility.yul\":15927:15947   */\n      sub\n        /* \"#utility.yul\":15923:15924   */\n      0x00\n        /* \"#utility.yul\":15912:15921   */\n      dup4\n        /* \"#utility.yul\":15908:15925   */\n      add\n        /* \"#utility.yul\":15901:15948   */\n      mstore\n        /* \"#utility.yul\":15965:16096   */\n      tag_373\n        /* \"#utility.yul\":16091:16095   */\n      dup2\n        /* \"#utility.yul\":15965:16096   */\n      tag_195\n      jump\t// in\n    tag_373:\n        /* \"#utility.yul\":15957:16096   */\n      swap1\n      pop\n        /* \"#utility.yul\":15684:16103   */\n      swap2\n      swap1\n      pop\n      jump\t// out\n        /* \"#utility.yul\":16109:16250   */\n    tag_196:\n        /* \"#utility.yul\":16158:16162   */\n      0x00\n        /* \"#utility.yul\":16181:16184   */\n      dup2\n        /* \"#utility.yul\":16173:16184   */\n      swap1\n      pop\n        /* \"#utility.yul\":16204:16207   */\n      dup2\n        /* \"#utility.yul\":16201:16202   */\n      0x00\n        /* \"#utility.yul\":16194:16208   */\n      mstore\n        /* \"#utility.yul\":16238:16242   */\n      0x20\n        /* \"#utility.yul\":16235:16236   */\n      0x00\n        /* \"#utility.yul\":16225:16243   */\n      keccak256\n        /* \"#utility.yul\":16217:16243   */\n      swap1\n      pop\n        /* \"#utility.yul\":16109:16250   */\n      swap2\n      swap1\n      pop\n      jump\t// out\n        /* \"#utility.yul\":16256:16349   */\n    tag_197:\n        /* \"#utility.yul\":16293:16299   */\n      0x00\n        /* \"#utility.yul\":16340:16342   */\n      0x20\n        /* \"#utility.yul\":16335:16337   */\n      0x1f\n        /* \"#utility.yul\":16328:16333   */\n      dup4\n        /* \"#utility.yul\":16324:16338   */\n      add\n        /* \"#utility.yul\":16320:16343   */\n      div\n        /* \"#utility.yul\":16310:16343   */\n      swap1\n      pop\n        /* \"#utility.yul\":16256:16349   */\n      swap2\n      swap1\n      pop\n      jump\t// out\n        /* \"#utility.yul\":16355:16462   */\n    tag_198:\n        /* \"#utility.yul\":16399:16407   */\n      0x00\n        /* \"#utility.yul\":16449:16454   */\n      dup3\n        /* \"#utility.yul\":16443:16447   */\n      dup3\n        /* \"#utility.yul\":16439:16455   */\n      shl\n        /* \"#utility.yul\":16418:16455   */\n      swap1\n      pop\n        /* \"#utility.yul\":16355:16462   */\n      swap3\n      swap2\n      pop\n      pop\n      jump\t// out\n        /* \"#utility.yul\":16468:16861   */\n    tag_199:\n        /* \"#utility.yul\":16537:16543   */\n      0x00\n        /* \"#utility.yul\":16587:16588   */\n      0x08\n        /* \"#utility.yul\":16575:16585   */\n      dup4\n        /* \"#utility.yul\":16571:16589   */\n      mul\n        /* \"#utility.yul\":16610:16707   */\n      tag_378\n        /* \"#utility.yul\":16640:16706   */\n      0xffffffffffffffffffffffffffffffffffffffffffffffffffffffffffffffff\n        /* \"#utility.yul\":16629:16638   */\n      dup3\n        /* \"#utility.yul\":16610:16707   */\n      tag_198\n      jump\t// in\n    tag_378:\n        /* \"#utility.yul\":16728:16767   */\n      tag_379\n        /* \"#utility.yul\":16758:16766   */\n      dup7\n        /* \"#utility.yul\":16747:16756   */\n      dup4\n        /* \"#utility.yul\":16728:16767   */\n      tag_198\n      jump\t// in\n    tag_379:\n        /* \"#utility.yul\":16716:16767   */\n      swap6\n      pop\n        /* \"#utility.yul\":16800:16804   */\n      dup1\n        /* \"#utility.yul\":16796:16805   */\n      not\n        /* \"#utility.yul\":16789:16794   */\n      dup5\n        /* \"#utility.yul\":16785:16806   */\n      and\n        /* \"#utility.yul\":16776:16806   */\n      swap4\n      pop\n        /* \"#utility.yul\":16849:16853   */\n      dup1\n        /* \"#utility.yul\":16839:16847   */\n      dup7\n        /* \"#utility.yul\":16835:16854   */\n      and\n        /* \"#utility.yul\":16828:16833   */\n      dup5\n        /* \"#utility.yul\":16825:16855   */\n      or\n        /* \"#utility.yul\":16815:16855   */\n      swap3\n      pop\n        /* \"#utility.yul\":16544:16861   */\n      pop\n      pop\n        /* \"#utility.yul\":16468:16861   */\n      swap4\n      swap3\n      pop\n      pop\n      pop\n      jump\t// out\n        /* \"#utility.yul\":16867:16927   */\n    tag_200:\n        /* \"#utility.yul\":16895:16898   */\n      0x00\n        /* \"#utility.yul\":16916:16921   */\n      dup2\n        /* \"#utility.yul\":16909:16921   */\n      swap1\n      pop\n        /* \"#utility.yul\":16867:16927   */\n      swap2\n      swap1\n      pop\n      jump\t// out\n        /* \"#utility.yul\":16933:17075   */\n    tag_201:\n        /* \"#utility.yul\":16983:16992   */\n      0x00\n        /* \"#utility.yul\":17016:17069   */\n      tag_382\n        /* \"#utility.yul\":17034:17068   */\n      tag_383\n        /* \"#utility.yul\":17043:17067   */\n      tag_384\n        /* \"#utility.yul\":17061:17066   */\n      dup5\n        /* \"#utility.yul\":17043:17067   */\n      tag_162\n      jump\t// in\n    tag_384:\n        /* \"#utility.yul\":17034:17068   */\n      tag_200\n      jump\t// in\n    tag_383:\n        /* \"#utility.yul\":17016:17069   */\n      tag_162\n      jump\t// in\n    tag_382:\n        /* \"#utility.yul\":17003:17069   */\n      swap1\n      pop\n        /* \"#utility.yul\":16933:17075   */\n      swap2\n      swap1\n      pop\n      jump\t// out\n        /* \"#utility.yul\":17081:17156   */\n    tag_202:\n        /* \"#utility.yul\":17124:17127   */\n      0x00\n        /* \"#utility.yul\":17145:17150   */\n      dup2\n        /* \"#utility.yul\":17138:17150   */\n      swap1\n      pop\n        /* \"#utility.yul\":17081:17156   */\n      swap2\n      swap1\n      pop\n      jump\t// out\n        /* \"#utility.yul\":17162:17431   */\n    tag_203:\n        /* \"#utility.yul\":17272:17311   */\n      tag_387\n        /* \"#utility.yul\":17303:17310   */\n      dup4\n        /* \"#utility.yul\":17272:17311   */\n      tag_201\n      jump\t// in\n    tag_387:\n        /* \"#utility.yul\":17333:17424   */\n      tag_388\n        /* \"#utility.yul\":17382:17423   */\n      tag_389\n        /* \"#utility.yul\":17406:17422   */\n      dup3\n        /* \"#utility.yul\":17382:17423   */\n      tag_202\n      jump\t// in\n    tag_389:\n        /* \"#utility.yul\":17374:17380   */\n      dup5\n        /* \"#utility.yul\":17367:17371   */\n      dup5\n        /* \"#utility.yul\":17361:17372   */\n      sload\n        /* \"#utility.yul\":17333:17424   */\n      tag_199\n      jump\t// in\n    tag_388:\n        /* \"#utility.yul\":17327:17331   */\n      dup3\n        /* \"#utility.yul\":17320:17425   */\n      sstore\n        /* \"#utility.yul\":17238:17431   */\n      pop\n        /* \"#utility.yul\":17162:17431   */\n      pop\n      pop\n      pop\n      jump\t// out\n        /* \"#utility.yul\":17437:17510   */\n    tag_204:\n        /* \"#utility.yul\":17482:17485   */\n      0x00\n        /* \"#utility.yul\":17503:17504   */\n      0x00\n        /* \"#utility.yul\":17496:17504   */\n      swap1\n      pop\n        /* \"#utility.yul\":17437:17510   */\n      swap1\n      jump\t// out\n        /* \"#utility.yul\":17516:17705   */\n    tag_205:\n        /* \"#utility.yul\":17593:17625   */\n      tag_392\n      tag_204\n      jump\t// in\n    tag_392:\n        /* \"#utility.yul\":17634:17699   */\n      tag_393\n        /* \"#utility.yul\":17692:17698   */\n      dup2\n        /* \"#utility.yul\":17684:17690   */\n      dup5\n        /* \"#utility.yul\":17678:17682   */\n      dup5\n        /* \"#utility.yul\":17634:17699   */\n      tag_203\n      jump\t// in\n    tag_393:\n        /* \"#utility.yul\":17569:17705   */\n      pop\n        /* \"#utility.yul\":17516:17705   */\n      pop\n      pop\n      jump\t// out\n        /* \"#utility.yul\":17711:17897   */\n    tag_206:\n        /* \"#utility.yul\":17771:17891   */\n    tag_395:\n        /* \"#utility.yul\":17788:17791   */\n      dup2\n        /* \"#utility.yul\":17781:17786   */\n      dup2\n        /* \"#utility.yul\":17778:17792   */\n      lt\n        /* \"#utility.yul\":17771:17891   */\n      iszero\n      tag_397\n      jumpi\n        /* \"#utility.yul\":17842:17881   */\n      tag_398\n        /* \"#utility.yul\":17879:17880   */\n      0x00\n        /* \"#utility.yul\":17872:17877   */\n      dup3\n        /* \"#utility.yul\":17842:17881   */\n      tag_205\n      jump\t// in\n    tag_398:\n        /* \"#utility.yul\":17815:17816   */\n      0x01\n        /* \"#utility.yul\":17808:17813   */\n      dup2\n        /* \"#utility.yul\":17804:17817   */\n      add\n        /* \"#utility.yul\":17795:17817   */\n      swap1\n      pop\n        /* \"#utility.yul\":17771:17891   */\n      jump(tag_395)\n    tag_397:\n        /* \"#utility.yul\":17711:17897   */\n      pop\n      pop\n      jump\t// out\n        /* \"#utility.yul\":17903:18446   */\n    tag_207:\n        /* \"#utility.yul\":18004:18006   */\n      0x1f\n        /* \"#utility.yul\":17999:18002   */\n      dup3\n        /* \"#utility.yul\":17996:18007   */\n      gt\n        /* \"#utility.yul\":17993:18439   */\n      iszero\n      tag_400\n      jumpi\n        /* \"#utility.yul\":18038:18076   */\n      tag_401\n        /* \"#utility.yul\":18070:18075   */\n      dup2\n        /* \"#utility.yul\":18038:18076   */\n      tag_196\n      jump\t// in\n    tag_401:\n        /* \"#utility.yul\":18122:18151   */\n      tag_402\n        /* \"#utility.yul\":18140:18150   */\n      dup5\n        /* \"#utility.yul\":18122:18151   */\n      tag_197\n      jump\t// in\n    tag_402:\n        /* \"#utility.yul\":18112:18120   */\n      dup2\n        /* \"#utility.yul\":18108:18152   */\n      add\n        /* \"#utility.yul\":18305:18307   */\n      0x20\n        /* \"#utility.yul\":18293:18303   */\n      dup6\n        /* \"#utility.yul\":18290:18308   */\n      lt\n        /* \"#utility.yul\":18287:18336   */\n      iszero\n      tag_403\n      jumpi\n        /* \"#utility.yul\":18326:18334   */\n      dup2\n        /* \"#utility.yul\":18311:18334   */\n      swap1\n      pop\n        /* \"#utility.yul\":18287:18336   */\n    tag_403:\n        /* \"#utility.yul\":18349:18429   */\n      tag_404\n        /* \"#utility.yul\":18405:18427   */\n      tag_405\n        /* \"#utility.yul\":18423:18426   */\n      dup6\n        /* \"#utility.yul\":18405:18427   */\n      tag_197\n      jump\t// in\n    tag_405:\n        /* \"#utility.yul\":18395:18403   */\n      dup4\n        /* \"#utility.yul\":18391:18428   */\n      add\n        /* \"#utility.yul\":18378:18389   */\n      dup3\n        /* \"#utility.yul\":18349:18429   */\n      tag_206\n      jump\t// in\n    tag_404:\n        /* \"#utility.yul\":18008:18439   */\n      pop\n      pop\n        /* \"#utility.yul\":17993:18439   */\n    tag_400:\n        /* \"#utility.yul\":17903:18446   */\n      pop\n      pop\n      pop\n      jump\t// out\n        /* \"#utility.yul\":18452:18569   */\n    tag_208:\n        /* \"#utility.yul\":18506:18514   */\n      0x00\n        /* \"#utility.yul\":18556:18561   */\n      dup3\n        /* \"#utility.yul\":18550:18554   */\n      dup3\n        /* \"#utility.yul\":18546:18562   */\n      shr\n        /* \"#utility.yul\":18525:18562   */\n      swap1\n      pop\n        /* \"#utility.yul\":18452:18569   */\n      swap3\n      swap2\n      pop\n      pop\n      jump\t// out\n        /* \"#utility.yul\":18575:18744   */\n    tag_209:\n        /* \"#utility.yul\":18619:18625   */\n      0x00\n        /* \"#utility.yul\":18652:18703   */\n      tag_408\n        /* \"#utility.yul\":18700:18701   */\n      0x00\n        /* \"#utility.yul\":18696:18702   */\n      not\n        /* \"#utility.yul\":18688:18693   */\n      dup5\n        /* \"#utility.yul\":18685:18686   */\n      0x08\n        /* \"#utility.yul\":18681:18694   */\n      mul\n        /* \"#utility.yul\":18652:18703   */\n      tag_208\n      jump\t// in\n    tag_408:\n        /* \"#utility.yul\":18648:18704   */\n      not\n        /* \"#utility.yul\":18733:18737   */\n      dup1\n        /* \"#utility.yul\":18727:18731   */\n      dup4\n        /* \"#utility.yul\":18723:18738   */\n      and\n        /* \"#utility.yul\":18713:18738   */\n      swap2\n      pop\n        /* \"#utility.yul\":18626:18744   */\n      pop\n        /* \"#utility.yul\":18575:18744   */\n      swap3\n      swap2\n      pop\n      pop\n      jump\t// out\n        /* \"#utility.yul\":18749:19044   */\n    tag_210:\n        /* \"#utility.yul\":18825:18829   */\n      0x00\n        /* \"#utility.yul\":18971:19000   */\n      tag_410\n        /* \"#utility.yul\":18996:18999   */\n      dup4\n        /* \"#utility.yul\":18990:18994   */\n      dup4\n        /* \"#utility.yul\":18971:19000   */\n      tag_209\n      jump\t// in\n    tag_410:\n        /* \"#utility.yul\":18963:19000   */\n      swap2\n      pop\n        /* \"#utility.yul\":19033:19036   */\n      dup3\n        /* \"#utility.yul\":19030:19031   */\n      0x02\n        /* \"#utility.yul\":19026:19037   */\n      mul\n        /* \"#utility.yul\":19020:19024   */\n      dup3\n        /* \"#utility.yul\":19017:19038   */\n      or\n        /* \"#utility.yul\":19009:19038   */\n      swap1\n      pop\n        /* \"#utility.yul\":18749:19044   */\n      swap3\n      swap2\n      pop\n      pop\n      jump\t// out\n        /* \"#utility.yul\":19049:20444   */\n    tag_141:\n        /* \"#utility.yul\":19166:19203   */\n      tag_412\n        /* \"#utility.yul\":19199:19202   */\n      dup3\n        /* \"#utility.yul\":19166:19203   */\n      tag_154\n      jump\t// in\n    tag_412:\n        /* \"#utility.yul\":19268:19286   */\n      0xffffffffffffffff\n        /* \"#utility.yul\":19260:19266   */\n      dup2\n        /* \"#utility.yul\":19257:19287   */\n      gt\n        /* \"#utility.yul\":19254:19310   */\n      iszero\n      tag_413\n      jumpi\n        /* \"#utility.yul\":19290:19308   */\n      tag_414\n      tag_173\n      jump\t// in\n    tag_414:\n        /* \"#utility.yul\":19254:19310   */\n    tag_413:\n        /* \"#utility.yul\":19334:19372   */\n      tag_415\n        /* \"#utility.yul\":19366:19370   */\n      dup3\n        /* \"#utility.yul\":19360:19371   */\n      sload\n        /* \"#utility.yul\":19334:19372   */\n      tag_82\n      jump\t// in\n    tag_415:\n        /* \"#utility.yul\":19419:19486   */\n      tag_416\n        /* \"#utility.yul\":19479:19485   */\n      dup3\n        /* \"#utility.yul\":19471:19477   */\n      dup3\n        /* \"#utility.yul\":19465:19469   */\n      dup6\n        /* \"#utility.yul\":19419:19486   */\n      tag_207\n      jump\t// in\n    tag_416:\n        /* \"#utility.yul\":19513:19514   */\n      0x00\n        /* \"#utility.yul\":19537:19541   */\n      0x20\n        /* \"#utility.yul\":19524:19541   */\n      swap1\n      pop\n        /* \"#utility.yul\":19569:19571   */\n      0x1f\n        /* \"#utility.yul\":19561:19567   */\n      dup4\n        /* \"#utility.yul\":19558:19572   */\n      gt\n        /* \"#utility.yul\":19586:19587   */\n      0x01\n        /* \"#utility.yul\":19581:20199   */\n      dup2\n      eq\n      tag_418\n      jumpi\n        /* \"#utility.yul\":20243:20244   */\n      0x00\n        /* \"#utility.yul\":20260:20266   */\n      dup5\n        /* \"#utility.yul\":20257:20334   */\n      iszero\n      tag_419\n      jumpi\n        /* \"#utility.yul\":20309:20318   */\n      dup3\n        /* \"#utility.yul\":20304:20307   */\n      dup8\n        /* \"#utility.yul\":20300:20319   */\n      add\n        /* \"#utility.yul\":20294:20320   */\n      mload\n        /* \"#utility.yul\":20285:20320   */\n      swap1\n      pop\n        /* \"#utility.yul\":20257:20334   */\n    tag_419:\n        /* \"#utility.yul\":20360:20427   */\n      tag_420\n        /* \"#utility.yul\":20420:20426   */\n      dup6\n        /* \"#utility.yul\":20413:20418   */\n      dup3\n        /* \"#utility.yul\":20360:20427   */\n      tag_210\n      jump\t// in\n    tag_420:\n        /* \"#utility.yul\":20354:20358   */\n      dup7\n        /* \"#utility.yul\":20347:20428   */\n      sstore\n        /* \"#utility.yul\":20216:20438   */\n      pop\n        /* \"#utility.yul\":19551:20438   */\n      jump(tag_417)\n        /* \"#utility.yul\":19581:20199   */\n    tag_418:\n        /* \"#utility.yul\":19633:19637   */\n      0x1f\n        /* \"#utility.yul\":19629:19638   */\n      not\n        /* \"#utility.yul\":19621:19627   */\n      dup5\n        /* \"#utility.yul\":19617:19639   */\n      and\n        /* \"#utility.yul\":19667:19704   */\n      tag_421\n        /* \"#utility.yul\":19699:19703   */\n      dup7\n        /* \"#utility.yul\":19667:19704   */\n      tag_196\n      jump\t// in\n    tag_421:\n        /* \"#utility.yul\":19726:19727   */\n      0x00\n        /* \"#utility.yul\":19740:19948   */\n    tag_422:\n        /* \"#utility.yul\":19754:19761   */\n      dup3\n        /* \"#utility.yul\":19751:19752   */\n      dup2\n        /* \"#utility.yul\":19748:19762   */\n      lt\n        /* \"#utility.yul\":19740:19948   */\n      iszero\n      tag_424\n      jumpi\n        /* \"#utility.yul\":19833:19842   */\n      dup5\n        /* \"#utility.yul\":19828:19831   */\n      dup10\n        /* \"#utility.yul\":19824:19843   */\n      add\n        /* \"#utility.yul\":19818:19844   */\n      mload\n        /* \"#utility.yul\":19810:19816   */\n      dup3\n        /* \"#utility.yul\":19803:19845   */\n      sstore\n        /* \"#utility.yul\":19884:19885   */\n      0x01\n        /* \"#utility.yul\":19876:19882   */\n      dup3\n        /* \"#utility.yul\":19872:19886   */\n      add\n        /* \"#utility.yul\":19862:19886   */\n      swap2\n      pop\n        /* \"#utility.yul\":19931:19933   */\n      0x20\n        /* \"#utility.yul\":19920:19929   */\n      dup6\n        /* \"#utility.yul\":19916:19934   */\n      add\n        /* \"#utility.yul\":19903:19934   */\n      swap5\n      pop\n        /* \"#utility.yul\":19777:19781   */\n      0x20\n        /* \"#utility.yul\":19774:19775   */\n      dup2\n        /* \"#utility.yul\":19770:19782   */\n      add\n        /* \"#utility.yul\":19765:19782   */\n      swap1\n      pop\n        /* \"#utility.yul\":19740:19948   */\n      jump(tag_422)\n    tag_424:\n        /* \"#utility.yul\":19976:19982   */\n      dup7\n        /* \"#utility.yul\":19967:19974   */\n      dup4\n        /* \"#utility.yul\":19964:19983   */\n      lt\n        /* \"#utility.yul\":19961:20140   */\n      iszero\n      tag_425\n      jumpi\n        /* \"#utility.yul\":20034:20043   */\n      dup5\n        /* \"#utility.yul\":20029:20032   */\n      dup10\n        /* \"#utility.yul\":20025:20044   */\n      add\n        /* \"#utility.yul\":20019:20045   */\n      mload\n        /* \"#utility.yul\":20077:20125   */\n      tag_426\n        /* \"#utility.yul\":20119:20123   */\n      0x1f\n        /* \"#utility.yul\":20111:20117   */\n      dup10\n        /* \"#utility.yul\":20107:20124   */\n      and\n        /* \"#utility.yul\":20096:20105   */\n      dup3\n        /* \"#utility.yul\":20077:20125   */\n      tag_209\n      jump\t// in\n    tag_426:\n        /* \"#utility.yul\":20069:20075   */\n      dup4\n        /* \"#utility.yul\":20062:20126   */\n      sstore\n        /* \"#utility.yul\":19984:20140   */\n      pop\n        /* \"#utility.yul\":19961:20140   */\n    tag_425:\n        /* \"#utility.yul\":20186:20187   */\n      0x01\n        /* \"#utility.yul\":20182:20183   */\n      0x02\n        /* \"#utility.yul\":20174:20180   */\n      dup9\n        /* \"#utility.yul\":20170:20184   */\n      mul\n        /* \"#utility.yul\":20166:20188   */\n      add\n        /* \"#utility.yul\":20160:20164   */\n      dup9\n        /* \"#utility.yul\":20153:20189   */\n      sstore\n        /* \"#utility.yul\":19588:20199   */\n      pop\n      pop\n      pop\n        /* \"#utility.yul\":19551:20438   */\n    tag_417:\n      pop\n        /* \"#utility.yul\":19141:20444   */\n      pop\n      pop\n      pop\n        /* \"#utility.yul\":19049:20444   */\n      pop\n      pop\n      jump\t// out\n\n    auxdata: 0xa2646970667358221220c2905a6d4ee0220e775b46a47506edcbcba6b813eab3ce26b472a023cc3f44cc64736f6c634300081e0033\n}\n",
				"bytecode": {
					"linkReferences": {},
					"object": "60806040526040518060400160405280601281526020017f426174746c6520566963746f7279204e46540000000000000000000000000000815250600190816100489190610320565b506040518060400160405280600581526020017f42564e46540000000000000000000000000000000000000000000000000000008152506002908161008d9190610320565b50600160035534801561009e575f5ffd5b50335f5f6101000a81548173ffffffffffffffffffffffffffffffffffffffff021916908373ffffffffffffffffffffffffffffffffffffffff1602179055506103ef565b5f81519050919050565b7f4e487b71000000000000000000000000000000000000000000000000000000005f52604160045260245ffd5b7f4e487b71000000000000000000000000000000000000000000000000000000005f52602260045260245ffd5b5f600282049050600182168061015e57607f821691505b6020821081036101715761017061011a565b5b50919050565b5f819050815f5260205f209050919050565b5f6020601f8301049050919050565b5f82821b905092915050565b5f600883026101d37fffffffffffffffffffffffffffffffffffffffffffffffffffffffffffffffff82610198565b6101dd8683610198565b95508019841693508086168417925050509392505050565b5f819050919050565b5f819050919050565b5f61022161021c610217846101f5565b6101fe565b6101f5565b9050919050565b5f819050919050565b61023a83610207565b61024e61024682610228565b8484546101a4565b825550505050565b5f5f905090565b610265610256565b610270818484610231565b505050565b5b81811015610293576102885f8261025d565b600181019050610276565b5050565b601f8211156102d8576102a981610177565b6102b284610189565b810160208510156102c1578190505b6102d56102cd85610189565b830182610275565b50505b505050565b5f82821c905092915050565b5f6102f85f19846008026102dd565b1980831691505092915050565b5f61031083836102e9565b9150826002028217905092915050565b610329826100e3565b67ffffffffffffffff811115610342576103416100ed565b5b61034c8254610147565b610357828285610297565b5f60209050601f831160018114610388575f8415610376578287015190505b6103808582610305565b8655506103e7565b601f19841661039686610177565b5f5b828110156103bd57848901518255600182019150602085019450602081019050610398565b868310156103da57848901516103d6601f8916826102e9565b8355505b6001600288020188555050505b505050505050565b611f1d806103fc5f395ff3fe608060405234801561000f575f5ffd5b50600436106100e8575f3560e01c806383c4c00d1161008a578063a02cdee711610064578063a02cdee71461025c578063a22cb4651461028c578063ccb570e3146102a8578063e985e9c5146102d8576100e8565b806383c4c00d146102025780638da5cb5b1461022057806395d89b411461023e576100e8565b806323b872dd116100c657806323b872dd146101565780633bb3a24d146101725780636352211e146101a257806370a08231146101d2576100e8565b806306fdde03146100ec578063081812fc1461010a578063095ea7b31461013a575b5f5ffd5b6100f4610308565b60405161010191906114a4565b60405180910390f35b610124600480360381019061011f9190611508565b610394565b6040516101319190611572565b60405180910390f35b610154600480360381019061014f91906115b5565b61046b565b005b610170600480360381019061016b91906115f3565b610648565b005b61018c60048036038101906101879190611508565b6109e8565b60405161019991906114a4565b60405180910390f35b6101bc60048036038101906101b79190611508565b610b27565b6040516101c99190611572565b60405180910390f35b6101ec60048036038101906101e79190611643565b610bd3565b6040516101f9919061167d565b60405180910390f35b61020a610c87565b604051610217919061167d565b60405180910390f35b610228610c9c565b6040516102359190611572565b60405180910390f35b610246610cc0565b60405161025391906114a4565b60405180910390f35b610276600480360381019061027191906117c2565b610d4c565b604051610283919061167d565b60405180910390f35b6102a660048036038101906102a19190611851565b610f8b565b005b6102c260048036038101906102bd919061188f565b611083565b6040516102cf91906118ee565b60405180910390f35b6102f260048036038101906102ed9190611907565b6113a6565b6040516102ff91906118ee565b60405180910390f35b6001805461031590611972565b80601f016020809104026020016040519081016040528092919081815260200182805461034190611972565b801561038c5780601f106103635761010080835404028352916020019161038c565b820191905f5260205f20905b81548152906001019060200180831161036f57829003601f168201915b505050505081565b5f5f73ffffffffffffffffffffffffffffffffffffffff1660045f8481526020019081526020015f205f9054906101000a900473ffffffffffffffffffffffffffffffffffffffff1673ffffffffffffffffffffffffffffffffffffffff1603610433576040517f08c379a000000000000000000000000000000000000000000000000000000000815260040161042a906119ec565b60405180910390fd5b60075f8381526020019081526020015f205f9054906101000a900473ffffffffffffffffffffffffffffffffffffffff169050919050565b5f60045f8381526020019081526020015f205f9054906101000a900473ffffffffffffffffffffffffffffffffffffffff1690508073ffffffffffffffffffffffffffffffffffffffff163373ffffffffffffffffffffffffffffffffffffffff16148061055a575060085f8273ffffffffffffffffffffffffffffffffffffffff1673ffffffffffffffffffffffffffffffffffffffff1681526020019081526020015f205f3373ffffffffffffffffffffffffffffffffffffffff1673ffffffffffffffffffffffffffffffffffffffff1681526020019081526020015f205f9054906101000a900460ff165b610599576040517f08c379a000000000000000000000000000000000000000000000000000000000815260040161059090611a54565b60405180910390fd5b8260075f8481526020019081526020015f205f6101000a81548173ffffffffffffffffffffffffffffffffffffffff021916908373ffffffffffffffffffffffffffffffffffffffff160217905550818373ffffffffffffffffffffffffffffffffffffffff168273ffffffffffffffffffffffffffffffffffffffff167f8c5be1e5ebec7d5bd14f71427d1e84f3dd0314c0f7b2291e5b200ac8c7c3b92560405160405180910390a4505050565b8273ffffffffffffffffffffffffffffffffffffffff1660045f8381526020019081526020015f205f9054906101000a900473ffffffffffffffffffffffffffffffffffffffff1673ffffffffffffffffffffffffffffffffffffffff16146106e6576040517f08c379a00000000000000000000000000000000000000000000000000000000081526004016106dd90611abc565b60405180910390fd5b8273ffffffffffffffffffffffffffffffffffffffff163373ffffffffffffffffffffffffffffffffffffffff16148061077b575060075f8281526020019081526020015f205f9054906101000a900473ffffffffffffffffffffffffffffffffffffffff1673ffffffffffffffffffffffffffffffffffffffff163373ffffffffffffffffffffffffffffffffffffffff16145b80610807575060085f8473ffffffffffffffffffffffffffffffffffffffff1673ffffffffffffffffffffffffffffffffffffffff1681526020019081526020015f205f3373ffffffffffffffffffffffffffffffffffffffff1673ffffffffffffffffffffffffffffffffffffffff1681526020019081526020015f205f9054906101000a900460ff165b610846576040517f08c379a000000000000000000000000000000000000000000000000000000000815260040161083d90611a54565b60405180910390fd5b5f60075f8381526020019081526020015f205f6101000a81548173ffffffffffffffffffffffffffffffffffffffff021916908373ffffffffffffffffffffffffffffffffffffffff16021790555060065f8473ffffffffffffffffffffffffffffffffffffffff1673ffffffffffffffffffffffffffffffffffffffff1681526020019081526020015f205f8154809291906108e290611b07565b919050555060065f8373ffffffffffffffffffffffffffffffffffffffff1673ffffffffffffffffffffffffffffffffffffffff1681526020019081526020015f205f81548092919061093490611b2e565b91905055508160045f8381526020019081526020015f205f6101000a81548173ffffffffffffffffffffffffffffffffffffffff021916908373ffffffffffffffffffffffffffffffffffffffff160217905550808273ffffffffffffffffffffffffffffffffffffffff168473ffffffffffffffffffffffffffffffffffffffff167fddf252ad1be2c89b69c2b068fc378daa952ba7f163c4a11628f55a4df523b3ef60405160405180910390a4505050565b60605f73ffffffffffffffffffffffffffffffffffffffff1660045f8481526020019081526020015f205f9054906101000a900473ffffffffffffffffffffffffffffffffffffffff1673ffffffffffffffffffffffffffffffffffffffff1603610a88576040517f08c379a0000000000000000000000000000000000000000000000000000000008152600401610a7f906119ec565b60405180910390fd5b60055f8381526020019081526020015f208054610aa490611972565b80601f0160208091040260200160405190810160405280929190818152602001828054610ad090611972565b8015610b1b5780601f10610af257610100808354040283529160200191610b1b565b820191905f5260205f20905b815481529060010190602001808311610afe57829003601f168201915b50505050509050919050565b5f5f60045f8481526020019081526020015f205f9054906101000a900473ffffffffffffffffffffffffffffffffffffffff1690505f73ffffffffffffffffffffffffffffffffffffffff168173ffffffffffffffffffffffffffffffffffffffff1603610bca576040517f08c379a0000000000000000000000000000000000000000000000000000000008152600401610bc1906119ec565b60405180910390fd5b80915050919050565b5f5f73ffffffffffffffffffffffffffffffffffffffff168273ffffffffffffffffffffffffffffffffffffffff1603610c42576040517f08c379a0000000000000000000000000000000000000000000000000000000008152600401610c3990611bbf565b60405180910390fd5b60065f8373ffffffffffffffffffffffffffffffffffffffff1673ffffffffffffffffffffffffffffffffffffffff1681526020019081526020015f20549050919050565b5f6001600354610c979190611bdd565b905090565b5f5f9054906101000a900473ffffffffffffffffffffffffffffffffffffffff1681565b60028054610ccd90611972565b80601f0160208091040260200160405190810160405280929190818152602001828054610cf990611972565b8015610d445780601f10610d1b57610100808354040283529160200191610d44565b820191905f5260205f20905b815481529060010190602001808311610d2757829003601f168201915b505050505081565b5f5f5f9054906101000a900473ffffffffffffffffffffffffffffffffffffffff1673ffffffffffffffffffffffffffffffffffffffff163373ffffffffffffffffffffffffffffffffffffffff1614610ddb576040517f08c379a0000000000000000000000000000000000000000000000000000000008152600401610dd290611a54565b60405180910390fd5b5f73ffffffffffffffffffffffffffffffffffffffff168373ffffffffffffffffffffffffffffffffffffffff1603610e49576040517f08c379a0000000000000000000000000000000000000000000000000000000008152600401610e4090611c5a565b60405180910390fd5b5f600354905060035f815480929190610e6190611b2e565b91905055508360045f8381526020019081526020015f205f6101000a81548173ffffffffffffffffffffffffffffffffffffffff021916908373ffffffffffffffffffffffffffffffffffffffff16021790555060065f8573ffffffffffffffffffffffffffffffffffffffff1673ffffffffffffffffffffffffffffffffffffffff1681526020019081526020015f205f815480929190610f0290611b2e565b91905055508260055f8381526020019081526020015f209081610f259190611e18565b50808473ffffffffffffffffffffffffffffffffffffffff165f73ffffffffffffffffffffffffffffffffffffffff167fddf252ad1be2c89b69c2b068fc378daa952ba7f163c4a11628f55a4df523b3ef60405160405180910390a48091505092915050565b8060085f3373ffffffffffffffffffffffffffffffffffffffff1673ffffffffffffffffffffffffffffffffffffffff1681526020019081526020015f205f8473ffffffffffffffffffffffffffffffffffffffff1673ffffffffffffffffffffffffffffffffffffffff1681526020019081526020015f205f6101000a81548160ff0219169083151502179055508173ffffffffffffffffffffffffffffffffffffffff163373ffffffffffffffffffffffffffffffffffffffff167f17307eab39ab6107e8899845ad3d59bd9653f200f220920489ca2b5937696c318360405161107791906118ee565b60405180910390a35050565b5f8273ffffffffffffffffffffffffffffffffffffffff163373ffffffffffffffffffffffffffffffffffffffff16146110f2576040517f08c379a00000000000000000000000000000000000000000000000000000000081526004016110e990611a54565b60405180910390fd5b8273ffffffffffffffffffffffffffffffffffffffff1660045f8681526020019081526020015f205f9054906101000a900473ffffffffffffffffffffffffffffffffffffffff1673ffffffffffffffffffffffffffffffffffffffff1614611190576040517f08c379a000000000000000000000000000000000000000000000000000000000815260040161118790611abc565b60405180910390fd5b5f73ffffffffffffffffffffffffffffffffffffffff168273ffffffffffffffffffffffffffffffffffffffff16036111fe576040517f08c379a00000000000000000000000000000000000000000000000000000000081526004016111f590611c5a565b60405180910390fd5b5f60075f8681526020019081526020015f205f6101000a81548173ffffffffffffffffffffffffffffffffffffffff021916908373ffffffffffffffffffffffffffffffffffffffff16021790555060065f8473ffffffffffffffffffffffffffffffffffffffff1673ffffffffffffffffffffffffffffffffffffffff1681526020019081526020015f205f81548092919061129a90611b07565b919050555060065f8373ffffffffffffffffffffffffffffffffffffffff1673ffffffffffffffffffffffffffffffffffffffff1681526020019081526020015f205f8154809291906112ec90611b2e565b91905055508160045f8681526020019081526020015f205f6101000a81548173ffffffffffffffffffffffffffffffffffffffff021916908373ffffffffffffffffffffffffffffffffffffffff160217905550838273ffffffffffffffffffffffffffffffffffffffff168473ffffffffffffffffffffffffffffffffffffffff167fddf252ad1be2c89b69c2b068fc378daa952ba7f163c4a11628f55a4df523b3ef60405160405180910390a4600190509392505050565b5f60085f8473ffffffffffffffffffffffffffffffffffffffff1673ffffffffffffffffffffffffffffffffffffffff1681526020019081526020015f205f8373ffffffffffffffffffffffffffffffffffffffff1673ffffffffffffffffffffffffffffffffffffffff1681526020019081526020015f205f9054906101000a900460ff16905092915050565b5f81519050919050565b5f82825260208201905092915050565b8281835e5f83830152505050565b5f601f19601f8301169050919050565b5f61147682611434565b611480818561143e565b935061149081856020860161144e565b6114998161145c565b840191505092915050565b5f6020820190508181035f8301526114bc818461146c565b905092915050565b5f604051905090565b5f5ffd5b5f5ffd5b5f819050919050565b6114e7816114d5565b81146114f1575f5ffd5b50565b5f81359050611502816114de565b92915050565b5f6020828403121561151d5761151c6114cd565b5b5f61152a848285016114f4565b91505092915050565b5f73ffffffffffffffffffffffffffffffffffffffff82169050919050565b5f61155c82611533565b9050919050565b61156c81611552565b82525050565b5f6020820190506115855f830184611563565b92915050565b61159481611552565b811461159e575f5ffd5b50565b5f813590506115af8161158b565b92915050565b5f5f604083850312156115cb576115ca6114cd565b5b5f6115d8858286016115a1565b92505060206115e9858286016114f4565b9150509250929050565b5f5f5f6060848603121561160a576116096114cd565b5b5f611617868287016115a1565b9350506020611628868287016115a1565b9250506040611639868287016114f4565b9150509250925092565b5f60208284031215611658576116576114cd565b5b5f611665848285016115a1565b91505092915050565b611677816114d5565b82525050565b5f6020820190506116905f83018461166e565b92915050565b5f5ffd5b5f5ffd5b7f4e487b71000000000000000000000000000000000000000000000000000000005f52604160045260245ffd5b6116d48261145c565b810181811067ffffffffffffffff821117156116f3576116f261169e565b5b80604052505050565b5f6117056114c4565b905061171182826116cb565b919050565b5f67ffffffffffffffff8211156117305761172f61169e565b5b6117398261145c565b9050602081019050919050565b828183375f83830152505050565b5f61176661176184611716565b6116fc565b9050828152602081018484840111156117825761178161169a565b5b61178d848285611746565b509392505050565b5f82601f8301126117a9576117a8611696565b5b81356117b9848260208601611754565b91505092915050565b5f5f604083850312156117d8576117d76114cd565b5b5f6117e5858286016115a1565b925050602083013567ffffffffffffffff811115611806576118056114d1565b5b61181285828601611795565b9150509250929050565b5f8115159050919050565b6118308161181c565b811461183a575f5ffd5b50565b5f8135905061184b81611827565b92915050565b5f5f60408385031215611867576118666114cd565b5b5f611874858286016115a1565b92505060206118858582860161183d565b9150509250929050565b5f5f5f606084860312156118a6576118a56114cd565b5b5f6118b3868287016114f4565b93505060206118c4868287016115a1565b92505060406118d5868287016115a1565b9150509250925092565b6118e88161181c565b82525050565b5f6020820190506119015f8301846118df565b92915050565b5f5f6040838503121561191d5761191c6114cd565b5b5f61192a858286016115a1565b925050602061193b858286016115a1565b9150509250929050565b7f4e487b71000000000000000000000000000000000000000000000000000000005f52602260045260245ffd5b5f600282049050600182168061198957607f821691505b60208210810361199c5761199b611945565b5b50919050565b7f546f6b656e20646f6573206e6f742065786973740000000000000000000000005f82015250565b5f6119d660148361143e565b91506119e1826119a2565b602082019050919050565b5f6020820190508181035f830152611a03816119ca565b9050919050565b7f4e6f7420617574686f72697a65640000000000000000000000000000000000005f82015250565b5f611a3e600e8361143e565b9150611a4982611a0a565b602082019050919050565b5f6020820190508181035f830152611a6b81611a32565b9050919050565b7f4e6f7420746865206f776e6572000000000000000000000000000000000000005f82015250565b5f611aa6600d8361143e565b9150611ab182611a72565b602082019050919050565b5f6020820190508181035f830152611ad381611a9a565b9050919050565b7f4e487b71000000000000000000000000000000000000000000000000000000005f52601160045260245ffd5b5f611b11826114d5565b91505f8203611b2357611b22611ada565b5b600182039050919050565b5f611b38826114d5565b91507fffffffffffffffffffffffffffffffffffffffffffffffffffffffffffffffff8203611b6a57611b69611ada565b5b600182019050919050565b7f496e76616c6964206164647265737300000000000000000000000000000000005f82015250565b5f611ba9600f8361143e565b9150611bb482611b75565b602082019050919050565b5f6020820190508181035f830152611bd681611b9d565b9050919050565b5f611be7826114d5565b9150611bf2836114d5565b9250828203905081811115611c0a57611c09611ada565b5b92915050565b7f496e76616c696420726563697069656e740000000000000000000000000000005f82015250565b5f611c4460118361143e565b9150611c4f82611c10565b602082019050919050565b5f6020820190508181035f830152611c7181611c38565b9050919050565b5f819050815f5260205f209050919050565b5f6020601f8301049050919050565b5f82821b905092915050565b5f60088302611cd47fffffffffffffffffffffffffffffffffffffffffffffffffffffffffffffffff82611c99565b611cde8683611c99565b95508019841693508086168417925050509392505050565b5f819050919050565b5f611d19611d14611d0f846114d5565b611cf6565b6114d5565b9050919050565b5f819050919050565b611d3283611cff565b611d46611d3e82611d20565b848454611ca5565b825550505050565b5f5f905090565b611d5d611d4e565b611d68818484611d29565b505050565b5b81811015611d8b57611d805f82611d55565b600181019050611d6e565b5050565b601f821115611dd057611da181611c78565b611daa84611c8a565b81016020851015611db9578190505b611dcd611dc585611c8a565b830182611d6d565b50505b505050565b5f82821c905092915050565b5f611df05f1984600802611dd5565b1980831691505092915050565b5f611e088383611de1565b9150826002028217905092915050565b611e2182611434565b67ffffffffffffffff811115611e3a57611e3961169e565b5b611e448254611972565b611e4f828285611d8f565b5f60209050601f831160018114611e80575f8415611e6e578287015190505b611e788582611dfd565b865550611edf565b601f198416611e8e86611c78565b5f5b82811015611eb557848901518255600182019150602085019450602081019050611e90565b86831015611ed25784890151611ece601f891682611de1565b8355505b6001600288020188555050505b50505050505056fea2646970667358221220c2905a6d4ee0220e775b46a47506edcbcba6b813eab3ce26b472a023cc3f44cc64736f6c634300081e0033",
					"opcodes": "PUSH1 0x80 PUSH1 0x40 MSTORE PUSH1 0x40 MLOAD DUP1 PUSH1 0x40 ADD PUSH1 0x40 MSTORE DUP1 PUSH1 0x12 DUP2 MSTORE PUSH1 0x20 ADD PUSH32 0x426174746C6520566963746F7279204E46540000000000000000000000000000 DUP2 MSTORE POP PUSH1 0x1 SWAP1 DUP2 PUSH2 0x48 SWAP2 SWAP1 PUSH2 0x320 JUMP JUMPDEST POP PUSH1 0x40 MLOAD DUP1 PUSH1 0x40 ADD PUSH1 0x40 MSTORE DUP1 PUSH1 0x5 DUP2 MSTORE PUSH1 0x20 ADD PUSH32 0x42564E4654000000000000000000000000000000000000000000000000000000 DUP2 MSTORE POP PUSH1 0x2 SWAP1 DUP2 PUSH2 0x8D SWAP2 SWAP1 PUSH2 0x320 JUMP JUMPDEST POP PUSH1 0x1 PUSH1 0x3 SSTORE CALLVALUE DUP1 ISZERO PUSH2 0x9E JUMPI PUSH0 PUSH0 REVERT JUMPDEST POP CALLER PUSH0 PUSH0 PUSH2 0x100 EXP DUP2 SLOAD DUP2 PUSH20 0xFFFFFFFFFFFFFFFFFFFFFFFFFFFFFFFFFFFFFFFF MUL NOT AND SWAP1 DUP4 PUSH20 0xFFFFFFFFFFFFFFFFFFFFFFFFFFFFFFFFFFFFFFFF AND MUL OR SWAP1 SSTORE POP PUSH2 0x3EF JUMP JUMPDEST PUSH0 DUP2 MLOAD SWAP1 POP SWAP2 SWAP1 POP JUMP JUMPDEST PUSH32 0x4E487B7100000000000000000000000000000000000000000000000000000000 PUSH0 MSTORE PUSH1 0x41 PUSH1 0x4 MSTORE PUSH1 0x24 PUSH0 REVERT JUMPDEST PUSH32 0x4E487B7100000000000000000000000000000000000000000000000000000000 PUSH0 MSTORE PUSH1 0x22 PUSH1 0x4 MSTORE PUSH1 0x24 PUSH0 REVERT JUMPDEST PUSH0 PUSH1 0x2 DUP3 DIV SWAP1 POP PUSH1 0x1 DUP3 AND DUP1 PUSH2 0x15E JUMPI PUSH1 0x7F DUP3 AND SWAP2 POP JUMPDEST PUSH1 0x20 DUP3 LT DUP2 SUB PUSH2 0x171 JUMPI PUSH2 0x170 PUSH2 0x11A JUMP JUMPDEST JUMPDEST POP SWAP2 SWAP1 POP JUMP JUMPDEST PUSH0 DUP2 SWAP1 POP DUP2 PUSH0 MSTORE PUSH1 0x20 PUSH0 KECCAK256 SWAP1 POP SWAP2 SWAP1 POP JUMP JUMPDEST PUSH0 PUSH1 0x20 PUSH1 0x1F DUP4 ADD DIV SWAP1 POP SWAP2 SWAP1 POP JUMP JUMPDEST PUSH0 DUP3 DUP3 SHL SWAP1 POP SWAP3 SWAP2 POP POP JUMP JUMPDEST PUSH0 PUSH1 0x8 DUP4 MUL PUSH2 0x1D3 PUSH32 0xFFFFFFFFFFFFFFFFFFFFFFFFFFFFFFFFFFFFFFFFFFFFFFFFFFFFFFFFFFFFFFFF DUP3 PUSH2 0x198 JUMP JUMPDEST PUSH2 0x1DD DUP7 DUP4 PUSH2 0x198 JUMP JUMPDEST SWAP6 POP DUP1 NOT DUP5 AND SWAP4 POP DUP1 DUP7 AND DUP5 OR SWAP3 POP POP POP SWAP4 SWAP3 POP POP POP JUMP JUMPDEST PUSH0 DUP2 SWAP1 POP SWAP2 SWAP1 POP JUMP JUMPDEST PUSH0 DUP2 SWAP1 POP SWAP2 SWAP1 POP JUMP JUMPDEST PUSH0 PUSH2 0x221 PUSH2 0x21C PUSH2 0x217 DUP5 PUSH2 0x1F5 JUMP JUMPDEST PUSH2 0x1FE JUMP JUMPDEST PUSH2 0x1F5 JUMP JUMPDEST SWAP1 POP SWAP2 SWAP1 POP JUMP JUMPDEST PUSH0 DUP2 SWAP1 POP SWAP2 SWAP1 POP JUMP JUMPDEST PUSH2 0x23A DUP4 PUSH2 0x207 JUMP JUMPDEST PUSH2 0x24E PUSH2 0x246 DUP3 PUSH2 0x228 JUMP JUMPDEST DUP5 DUP5 SLOAD PUSH2 0x1A4 JUMP JUMPDEST DUP3 SSTORE POP POP POP POP JUMP JUMPDEST PUSH0 PUSH0 SWAP1 POP SWAP1 JUMP JUMPDEST PUSH2 0x265 PUSH2 0x256 JUMP JUMPDEST PUSH2 0x270 DUP2 DUP5 DUP5 PUSH2 0x231 JUMP JUMPDEST POP POP POP JUMP JUMPDEST JUMPDEST DUP2 DUP2 LT ISZERO PUSH2 0x293 JUMPI PUSH2 0x288 PUSH0 DUP3 PUSH2 0x25D JUMP JUMPDEST PUSH1 0x1 DUP2 ADD SWAP1 POP PUSH2 0x276 JUMP JUMPDEST POP POP JUMP JUMPDEST PUSH1 0x1F DUP3 GT ISZERO PUSH2 0x2D8 JUMPI PUSH2 0x2A9 DUP2 PUSH2 0x177 JUMP JUMPDEST PUSH2 0x2B2 DUP5 PUSH2 0x189 JUMP JUMPDEST DUP2 ADD PUSH1 0x20 DUP6 LT ISZERO PUSH2 0x2C1 JUMPI DUP2 SWAP1 POP JUMPDEST PUSH2 0x2D5 PUSH2 0x2CD DUP6 PUSH2 0x189 JUMP JUMPDEST DUP4 ADD DUP3 PUSH2 0x275 JUMP JUMPDEST POP POP JUMPDEST POP POP POP JUMP JUMPDEST PUSH0 DUP3 DUP3 SHR SWAP1 POP SWAP3 SWAP2 POP POP JUMP JUMPDEST PUSH0 PUSH2 0x2F8 PUSH0 NOT DUP5 PUSH1 0x8 MUL PUSH2 0x2DD JUMP JUMPDEST NOT DUP1 DUP4 AND SWAP2 POP POP SWAP3 SWAP2 POP POP JUMP JUMPDEST PUSH0 PUSH2 0x310 DUP4 DUP4 PUSH2 0x2E9 JUMP JUMPDEST SWAP2 POP DUP3 PUSH1 0x2 MUL DUP3 OR SWAP1 POP SWAP3 SWAP2 POP POP JUMP JUMPDEST PUSH2 0x329 DUP3 PUSH2 0xE3 JUMP JUMPDEST PUSH8 0xFFFFFFFFFFFFFFFF DUP2 GT ISZERO PUSH2 0x342 JUMPI PUSH2 0x341 PUSH2 0xED JUMP JUMPDEST JUMPDEST PUSH2 0x34C DUP3 SLOAD PUSH2 0x147 JUMP JUMPDEST PUSH2 0x357 DUP3 DUP3 DUP6 PUSH2 0x297 JUMP JUMPDEST PUSH0 PUSH1 0x20 SWAP1 POP PUSH1 0x1F DUP4 GT PUSH1 0x1 DUP2 EQ PUSH2 0x388 JUMPI PUSH0 DUP5 ISZERO PUSH2 0x376 JUMPI DUP3 DUP8 ADD MLOAD SWAP1 POP JUMPDEST PUSH2 0x380 DUP6 DUP3 PUSH2 0x305 JUMP JUMPDEST DUP7 SSTORE POP PUSH2 0x3E7 JUMP JUMPDEST PUSH1 0x1F NOT DUP5 AND PUSH2 0x396 DUP7 PUSH2 0x177 JUMP JUMPDEST PUSH0 JUMPDEST DUP3 DUP2 LT ISZERO PUSH2 0x3BD JUMPI DUP5 DUP10 ADD MLOAD DUP3 SSTORE PUSH1 0x1 DUP3 ADD SWAP2 POP PUSH1 0x20 DUP6 ADD SWAP5 POP PUSH1 0x20 DUP2 ADD SWAP1 POP PUSH2 0x398 JUMP JUMPDEST DUP7 DUP4 LT ISZERO PUSH2 0x3DA JUMPI DUP5 DUP10 ADD MLOAD PUSH2 0x3D6 PUSH1 0x1F DUP10 AND DUP3 PUSH2 0x2E9 JUMP JUMPDEST DUP4 SSTORE POP JUMPDEST PUSH1 0x1 PUSH1 0x2 DUP9 MUL ADD DUP9 SSTORE POP POP POP JUMPDEST POP POP POP POP POP POP JUMP JUMPDEST PUSH2 0x1F1D DUP1 PUSH2 0x3FC PUSH0 CODECOPY PUSH0 RETURN INVALID PUSH1 0x80 PUSH1 0x40 MSTORE CALLVALUE DUP1 ISZERO PUSH2 0xF JUMPI PUSH0 PUSH0 REVERT JUMPDEST POP PUSH1 0x4 CALLDATASIZE LT PUSH2 0xE8 JUMPI PUSH0 CALLDATALOAD PUSH1 0xE0 SHR DUP1 PUSH4 0x83C4C00D GT PUSH2 0x8A JUMPI DUP1 PUSH4 0xA02CDEE7 GT PUSH2 0x64 JUMPI DUP1 PUSH4 0xA02CDEE7 EQ PUSH2 0x25C JUMPI DUP1 PUSH4 0xA22CB465 EQ PUSH2 0x28C JUMPI DUP1 PUSH4 0xCCB570E3 EQ PUSH2 0x2A8 JUMPI DUP1 PUSH4 0xE985E9C5 EQ PUSH2 0x2D8 JUMPI PUSH2 0xE8 JUMP JUMPDEST DUP1 PUSH4 0x83C4C00D EQ PUSH2 0x202 JUMPI DUP1 PUSH4 0x8DA5CB5B EQ PUSH2 0x220 JUMPI DUP1 PUSH4 0x95D89B41 EQ PUSH2 0x23E JUMPI PUSH2 0xE8 JUMP JUMPDEST DUP1 PUSH4 0x23B872DD GT PUSH2 0xC6 JUMPI DUP1 PUSH4 0x23B872DD EQ PUSH2 0x156 JUMPI DUP1 PUSH4 0x3BB3A24D EQ PUSH2 0x172 JUMPI DUP1 PUSH4 0x6352211E EQ PUSH2 0x1A2 JUMPI DUP1 PUSH4 0x70A08231 EQ PUSH2 0x1D2 JUMPI PUSH2 0xE8 JUMP JUMPDEST DUP1 PUSH4 0x6FDDE03 EQ PUSH2 0xEC JUMPI DUP1 PUSH4 0x81812FC EQ PUSH2 0x10A JUMPI DUP1 PUSH4 0x95EA7B3 EQ PUSH2 0x13A JUMPI JUMPDEST PUSH0 PUSH0 REVERT JUMPDEST PUSH2 0xF4 PUSH2 0x308 JUMP JUMPDEST PUSH1 0x40 MLOAD PUSH2 0x101 SWAP2 SWAP1 PUSH2 0x14A4 JUMP JUMPDEST PUSH1 0x40 MLOAD DUP1 SWAP2 SUB SWAP1 RETURN JUMPDEST PUSH2 0x124 PUSH1 0x4 DUP1 CALLDATASIZE SUB DUP2 ADD SWAP1 PUSH2 0x11F SWAP2 SWAP1 PUSH2 0x1508 JUMP JUMPDEST PUSH2 0x394 JUMP JUMPDEST PUSH1 0x40 MLOAD PUSH2 0x131 SWAP2 SWAP1 PUSH2 0x1572 JUMP JUMPDEST PUSH1 0x40 MLOAD DUP1 SWAP2 SUB SWAP1 RETURN JUMPDEST PUSH2 0x154 PUSH1 0x4 DUP1 CALLDATASIZE SUB DUP2 ADD SWAP1 PUSH2 0x14F SWAP2 SWAP1 PUSH2 0x15B5 JUMP JUMPDEST PUSH2 0x46B JUMP JUMPDEST STOP JUMPDEST PUSH2 0x170 PUSH1 0x4 DUP1 CALLDATASIZE SUB DUP2 ADD SWAP1 PUSH2 0x16B SWAP2 SWAP1 PUSH2 0x15F3 JUMP JUMPDEST PUSH2 0x648 JUMP JUMPDEST STOP JUMPDEST PUSH2 0x18C PUSH1 0x4 DUP1 CALLDATASIZE SUB DUP2 ADD SWAP1 PUSH2 0x187 SWAP2 SWAP1 PUSH2 0x1508 JUMP JUMPDEST PUSH2 0x9E8 JUMP JUMPDEST PUSH1 0x40 MLOAD PUSH2 0x199 SWAP2 SWAP1 PUSH2 0x14A4 JUMP JUMPDEST PUSH1 0x40 MLOAD DUP1 SWAP2 SUB SWAP1 RETURN JUMPDEST PUSH2 0x1BC PUSH1 0x4 DUP1 CALLDATASIZE SUB DUP2 ADD SWAP1 PUSH2 0x1B7 SWAP2 SWAP1 PUSH2 0x1508 JUMP JUMPDEST PUSH2 0xB27 JUMP JUMPDEST PUSH1 0x40 MLOAD PUSH2 0x1C9 SWAP2 SWAP1 PUSH2 0x1572 JUMP JUMPDEST PUSH1 0x40 MLOAD DUP1 SWAP2 SUB SWAP1 RETURN JUMPDEST PUSH2 0x1EC PUSH1 0x4 DUP1 CALLDATASIZE SUB DUP2 ADD SWAP1 PUSH2 0x1E7 SWAP2 SWAP1 PUSH2 0x1643 JUMP JUMPDEST PUSH2 0xBD3 JUMP JUMPDEST PUSH1 0x40 MLOAD PUSH2 0x1F9 SWAP2 SWAP1 PUSH2 0x167D JUMP JUMPDEST PUSH1 0x40 MLOAD DUP1 SWAP2 SUB SWAP1 RETURN JUMPDEST PUSH2 0x20A PUSH2 0xC87 JUMP JUMPDEST PUSH1 0x40 MLOAD PUSH2 0x217 SWAP2 SWAP1 PUSH2 0x167D JUMP JUMPDEST PUSH1 0x40 MLOAD DUP1 SWAP2 SUB SWAP1 RETURN JUMPDEST PUSH2 0x228 PUSH2 0xC9C JUMP JUMPDEST PUSH1 0x40 MLOAD PUSH2 0x235 SWAP2 SWAP1 PUSH2 0x1572 JUMP JUMPDEST PUSH1 0x40 MLOAD DUP1 SWAP2 SUB SWAP1 RETURN JUMPDEST PUSH2 0x246 PUSH2 0xCC0 JUMP JUMPDEST PUSH1 0x40 MLOAD PUSH2 0x253 SWAP2 SWAP1 PUSH2 0x14A4 JUMP JUMPDEST PUSH1 0x40 MLOAD DUP1 SWAP2 SUB SWAP1 RETURN JUMPDEST PUSH2 0x276 PUSH1 0x4 DUP1 CALLDATASIZE SUB DUP2 ADD SWAP1 PUSH2 0x271 SWAP2 SWAP1 PUSH2 0x17C2 JUMP JUMPDEST PUSH2 0xD4C JUMP JUMPDEST PUSH1 0x40 MLOAD PUSH2 0x283 SWAP2 SWAP1 PUSH2 0x167D JUMP JUMPDEST PUSH1 0x40 MLOAD DUP1 SWAP2 SUB SWAP1 RETURN JUMPDEST PUSH2 0x2A6 PUSH1 0x4 DUP1 CALLDATASIZE SUB DUP2 ADD SWAP1 PUSH2 0x2A1 SWAP2 SWAP1 PUSH2 0x1851 JUMP JUMPDEST PUSH2 0xF8B JUMP JUMPDEST STOP JUMPDEST PUSH2 0x2C2 PUSH1 0x4 DUP1 CALLDATASIZE SUB DUP2 ADD SWAP1 PUSH2 0x2BD SWAP2 SWAP1 PUSH2 0x188F JUMP JUMPDEST PUSH2 0x1083 JUMP JUMPDEST PUSH1 0x40 MLOAD PUSH2 0x2CF SWAP2 SWAP1 PUSH2 0x18EE JUMP JUMPDEST PUSH1 0x40 MLOAD DUP1 SWAP2 SUB SWAP1 RETURN JUMPDEST PUSH2 0x2F2 PUSH1 0x4 DUP1 CALLDATASIZE SUB DUP2 ADD SWAP1 PUSH2 0x2ED SWAP2 SWAP1 PUSH2 0x1907 JUMP JUMPDEST PUSH2 0x13A6 JUMP JUMPDEST PUSH1 0x40 MLOAD PUSH2 0x2FF SWAP2 SWAP1 PUSH2 0x18EE JUMP JUMPDEST PUSH1 0x40 MLOAD DUP1 SWAP2 SUB SWAP1 RETURN JUMPDEST PUSH1 0x1 DUP1 SLOAD PUSH2 0x315 SWAP1 PUSH2 0x1972 JUMP JUMPDEST DUP1 PUSH1 0x1F ADD PUSH1 0x20 DUP1 SWAP2 DIV MUL PUSH1 0x20 ADD PUSH1 0x40 MLOAD SWAP1 DUP2 ADD PUSH1 0x40 MSTORE DUP1 SWAP3 SWAP2 SWAP1 DUP2 DUP2 MSTORE PUSH1 0x20 ADD DUP3 DUP1 SLOAD PUSH2 0x341 SWAP1 PUSH2 0x1972 JUMP JUMPDEST DUP1 ISZERO PUSH2 0x38C JUMPI DUP1 PUSH1 0x1F LT PUSH2 0x363 JUMPI PUSH2 0x100 DUP1 DUP4 SLOAD DIV MUL DUP4 MSTORE SWAP2 PUSH1 0x20 ADD SWAP2 PUSH2 0x38C JUMP JUMPDEST DUP3 ADD SWAP2 SWAP1 PUSH0 MSTORE PUSH1 0x20 PUSH0 KECCAK256 SWAP1 JUMPDEST DUP2 SLOAD DUP2 MSTORE SWAP1 PUSH1 0x1 ADD SWAP1 PUSH1 0x20 ADD DUP1 DUP4 GT PUSH2 0x36F JUMPI DUP3 SWAP1 SUB PUSH1 0x1F AND DUP3 ADD SWAP2 JUMPDEST POP POP POP POP POP DUP2 JUMP JUMPDEST PUSH0 PUSH0 PUSH20 0xFFFFFFFFFFFFFFFFFFFFFFFFFFFFFFFFFFFFFFFF AND PUSH1 0x4 PUSH0 DUP5 DUP2 MSTORE PUSH1 0x20 ADD SWAP1 DUP2 MSTORE PUSH1 0x20 ADD PUSH0 KECCAK256 PUSH0 SWAP1 SLOAD SWAP1 PUSH2 0x100 EXP SWAP1 DIV PUSH20 0xFFFFFFFFFFFFFFFFFFFFFFFFFFFFFFFFFFFFFFFF AND PUSH20 0xFFFFFFFFFFFFFFFFFFFFFFFFFFFFFFFFFFFFFFFF AND SUB PUSH2 0x433 JUMPI PUSH1 0x40 MLOAD PUSH32 0x8C379A000000000000000000000000000000000000000000000000000000000 DUP2 MSTORE PUSH1 0x4 ADD PUSH2 0x42A SWAP1 PUSH2 0x19EC JUMP JUMPDEST PUSH1 0x40 MLOAD DUP1 SWAP2 SUB SWAP1 REVERT JUMPDEST PUSH1 0x7 PUSH0 DUP4 DUP2 MSTORE PUSH1 0x20 ADD SWAP1 DUP2 MSTORE PUSH1 0x20 ADD PUSH0 KECCAK256 PUSH0 SWAP1 SLOAD SWAP1 PUSH2 0x100 EXP SWAP1 DIV PUSH20 0xFFFFFFFFFFFFFFFFFFFFFFFFFFFFFFFFFFFFFFFF AND SWAP1 POP SWAP2 SWAP1 POP JUMP JUMPDEST PUSH0 PUSH1 0x4 PUSH0 DUP4 DUP2 MSTORE PUSH1 0x20 ADD SWAP1 DUP2 MSTORE PUSH1 0x20 ADD PUSH0 KECCAK256 PUSH0 SWAP1 SLOAD SWAP1 PUSH2 0x100 EXP SWAP1 DIV PUSH20 0xFFFFFFFFFFFFFFFFFFFFFFFFFFFFFFFFFFFFFFFF AND SWAP1 POP DUP1 PUSH20 0xFFFFFFFFFFFFFFFFFFFFFFFFFFFFFFFFFFFFFFFF AND CALLER PUSH20 0xFFFFFFFFFFFFFFFFFFFFFFFFFFFFFFFFFFFFFFFF AND EQ DUP1 PUSH2 0x55A JUMPI POP PUSH1 0x8 PUSH0 DUP3 PUSH20 0xFFFFFFFFFFFFFFFFFFFFFFFFFFFFFFFFFFFFFFFF AND PUSH20 0xFFFFFFFFFFFFFFFFFFFFFFFFFFFFFFFFFFFFFFFF AND DUP2 MSTORE PUSH1 0x20 ADD SWAP1 DUP2 MSTORE PUSH1 0x20 ADD PUSH0 KECCAK256 PUSH0 CALLER PUSH20 0xFFFFFFFFFFFFFFFFFFFFFFFFFFFFFFFFFFFFFFFF AND PUSH20 0xFFFFFFFFFFFFFFFFFFFFFFFFFFFFFFFFFFFFFFFF AND DUP2 MSTORE PUSH1 0x20 ADD SWAP1 DUP2 MSTORE PUSH1 0x20 ADD PUSH0 KECCAK256 PUSH0 SWAP1 SLOAD SWAP1 PUSH2 0x100 EXP SWAP1 DIV PUSH1 0xFF AND JUMPDEST PUSH2 0x599 JUMPI PUSH1 0x40 MLOAD PUSH32 0x8C379A000000000000000000000000000000000000000000000000000000000 DUP2 MSTORE PUSH1 0x4 ADD PUSH2 0x590 SWAP1 PUSH2 0x1A54 JUMP JUMPDEST PUSH1 0x40 MLOAD DUP1 SWAP2 SUB SWAP1 REVERT JUMPDEST DUP3 PUSH1 0x7 PUSH0 DUP5 DUP2 MSTORE PUSH1 0x20 ADD SWAP1 DUP2 MSTORE PUSH1 0x20 ADD PUSH0 KECCAK256 PUSH0 PUSH2 0x100 EXP DUP2 SLOAD DUP2 PUSH20 0xFFFFFFFFFFFFFFFFFFFFFFFFFFFFFFFFFFFFFFFF MUL NOT AND SWAP1 DUP4 PUSH20 0xFFFFFFFFFFFFFFFFFFFFFFFFFFFFFFFFFFFFFFFF AND MUL OR SWAP1 SSTORE POP DUP2 DUP4 PUSH20 0xFFFFFFFFFFFFFFFFFFFFFFFFFFFFFFFFFFFFFFFF AND DUP3 PUSH20 0xFFFFFFFFFFFFFFFFFFFFFFFFFFFFFFFFFFFFFFFF AND PUSH32 0x8C5BE1E5EBEC7D5BD14F71427D1E84F3DD0314C0F7B2291E5B200AC8C7C3B925 PUSH1 0x40 MLOAD PUSH1 0x40 MLOAD DUP1 SWAP2 SUB SWAP1 LOG4 POP POP POP JUMP JUMPDEST DUP3 PUSH20 0xFFFFFFFFFFFFFFFFFFFFFFFFFFFFFFFFFFFFFFFF AND PUSH1 0x4 PUSH0 DUP4 DUP2 MSTORE PUSH1 0x20 ADD SWAP1 DUP2 MSTORE PUSH1 0x20 ADD PUSH0 KECCAK256 PUSH0 SWAP1 SLOAD SWAP1 PUSH2 0x100 EXP SWAP1 DIV PUSH20 0xFFFFFFFFFFFFFFFFFFFFFFFFFFFFFFFFFFFFFFFF AND PUSH20 0xFFFFFFFFFFFFFFFFFFFFFFFFFFFFFFFFFFFFFFFF AND EQ PUSH2 0x6E6 JUMPI PUSH1 0x40 MLOAD PUSH32 0x8C379A000000000000000000000000000000000000000000000000000000000 DUP2 MSTORE PUSH1 0x4 ADD PUSH2 0x6DD SWAP1 PUSH2 0x1ABC JUMP JUMPDEST PUSH1 0x40 MLOAD DUP1 SWAP2 SUB SWAP1 REVERT JUMPDEST DUP3 PUSH20 0xFFFFFFFFFFFFFFFFFFFFFFFFFFFFFFFFFFFFFFFF AND CALLER PUSH20 0xFFFFFFFFFFFFFFFFFFFFFFFFFFFFFFFFFFFFFFFF AND EQ DUP1 PUSH2 0x77B JUMPI POP PUSH1 0x7 PUSH0 DUP3 DUP2 MSTORE PUSH1 0x20 ADD SWAP1 DUP2 MSTORE PUSH1 0x20 ADD PUSH0 KECCAK256 PUSH0 SWAP1 SLOAD SWAP1 PUSH2 0x100 EXP SWAP1 DIV PUSH20 0xFFFFFFFFFFFFFFFFFFFFFFFFFFFFFFFFFFFFFFFF AND PUSH20 0xFFFFFFFFFFFFFFFFFFFFFFFFFFFFFFFFFFFFFFFF AND CALLER PUSH20 0xFFFFFFFFFFFFFFFFFFFFFFFFFFFFFFFFFFFFFFFF AND EQ JUMPDEST DUP1 PUSH2 0x807 JUMPI POP PUSH1 0x8 PUSH0 DUP5 PUSH20 0xFFFFFFFFFFFFFFFFFFFFFFFFFFFFFFFFFFFFFFFF AND PUSH20 0xFFFFFFFFFFFFFFFFFFFFFFFFFFFFFFFFFFFFFFFF AND DUP2 MSTORE PUSH1 0x20 ADD SWAP1 DUP2 MSTORE PUSH1 0x20 ADD PUSH0 KECCAK256 PUSH0 CALLER PUSH20 0xFFFFFFFFFFFFFFFFFFFFFFFFFFFFFFFFFFFFFFFF AND PUSH20 0xFFFFFFFFFFFFFFFFFFFFFFFFFFFFFFFFFFFFFFFF AND DUP2 MSTORE PUSH1 0x20 ADD SWAP1 DUP2 MSTORE PUSH1 0x20 ADD PUSH0 KECCAK256 PUSH0 SWAP1 SLOAD SWAP1 PUSH2 0x100 EXP SWAP1 DIV PUSH1 0xFF AND JUMPDEST PUSH2 0x846 JUMPI PUSH1 0x40 MLOAD PUSH32 0x8C379A000000000000000000000000000000000000000000000000000000000 DUP2 MSTORE PUSH1 0x4 ADD PUSH2 0x83D SWAP1 PUSH2 0x1A54 JUMP JUMPDEST PUSH1 0x40 MLOAD DUP1 SWAP2 SUB SWAP1 REVERT JUMPDEST PUSH0 PUSH1 0x7 PUSH0 DUP4 DUP2 MSTORE PUSH1 0x20 ADD SWAP1 DUP2 MSTORE PUSH1 0x20 ADD PUSH0 KECCAK256 PUSH0 PUSH2 0x100 EXP DUP2 SLOAD DUP2 PUSH20 0xFFFFFFFFFFFFFFFFFFFFFFFFFFFFFFFFFFFFFFFF MUL NOT AND SWAP1 DUP4 PUSH20 0xFFFFFFFFFFFFFFFFFFFFFFFFFFFFFFFFFFFFFFFF AND MUL OR SWAP1 SSTORE POP PUSH1 0x6 PUSH0 DUP5 PUSH20 0xFFFFFFFFFFFFFFFFFFFFFFFFFFFFFFFFFFFFFFFF AND PUSH20 0xFFFFFFFFFFFFFFFFFFFFFFFFFFFFFFFFFFFFFFFF AND DUP2 MSTORE PUSH1 0x20 ADD SWAP1 DUP2 MSTORE PUSH1 0x20 ADD PUSH0 KECCAK256 PUSH0 DUP2 SLOAD DUP1 SWAP3 SWAP2 SWAP1 PUSH2 0x8E2 SWAP1 PUSH2 0x1B07 JUMP JUMPDEST SWAP2 SWAP1 POP SSTORE POP PUSH1 0x6 PUSH0 DUP4 PUSH20 0xFFFFFFFFFFFFFFFFFFFFFFFFFFFFFFFFFFFFFFFF AND PUSH20 0xFFFFFFFFFFFFFFFFFFFFFFFFFFFFFFFFFFFFFFFF AND DUP2 MSTORE PUSH1 0x20 ADD SWAP1 DUP2 MSTORE PUSH1 0x20 ADD PUSH0 KECCAK256 PUSH0 DUP2 SLOAD DUP1 SWAP3 SWAP2 SWAP1 PUSH2 0x934 SWAP1 PUSH2 0x1B2E JUMP JUMPDEST SWAP2 SWAP1 POP SSTORE POP DUP2 PUSH1 0x4 PUSH0 DUP4 DUP2 MSTORE PUSH1 0x20 ADD SWAP1 DUP2 MSTORE PUSH1 0x20 ADD PUSH0 KECCAK256 PUSH0 PUSH2 0x100 EXP DUP2 SLOAD DUP2 PUSH20 0xFFFFFFFFFFFFFFFFFFFFFFFFFFFFFFFFFFFFFFFF MUL NOT AND SWAP1 DUP4 PUSH20 0xFFFFFFFFFFFFFFFFFFFFFFFFFFFFFFFFFFFFFFFF AND MUL OR SWAP1 SSTORE POP DUP1 DUP3 PUSH20 0xFFFFFFFFFFFFFFFFFFFFFFFFFFFFFFFFFFFFFFFF AND DUP5 PUSH20 0xFFFFFFFFFFFFFFFFFFFFFFFFFFFFFFFFFFFFFFFF AND PUSH32 0xDDF252AD1BE2C89B69C2B068FC378DAA952BA7F163C4A11628F55A4DF523B3EF PUSH1 0x40 MLOAD PUSH1 0x40 MLOAD DUP1 SWAP2 SUB SWAP1 LOG4 POP POP POP JUMP JUMPDEST PUSH1 0x60 PUSH0 PUSH20 0xFFFFFFFFFFFFFFFFFFFFFFFFFFFFFFFFFFFFFFFF AND PUSH1 0x4 PUSH0 DUP5 DUP2 MSTORE PUSH1 0x20 ADD SWAP1 DUP2 MSTORE PUSH1 0x20 ADD PUSH0 KECCAK256 PUSH0 SWAP1 SLOAD SWAP1 PUSH2 0x100 EXP SWAP1 DIV PUSH20 0xFFFFFFFFFFFFFFFFFFFFFFFFFFFFFFFFFFFFFFFF AND PUSH20 0xFFFFFFFFFFFFFFFFFFFFFFFFFFFFFFFFFFFFFFFF AND SUB PUSH2 0xA88 JUMPI PUSH1 0x40 MLOAD PUSH32 0x8C379A000000000000000000000000000000000000000000000000000000000 DUP2 MSTORE PUSH1 0x4 ADD PUSH2 0xA7F SWAP1 PUSH2 0x19EC JUMP JUMPDEST PUSH1 0x40 MLOAD DUP1 SWAP2 SUB SWAP1 REVERT JUMPDEST PUSH1 0x5 PUSH0 DUP4 DUP2 MSTORE PUSH1 0x20 ADD SWAP1 DUP2 MSTORE PUSH1 0x20 ADD PUSH0 KECCAK256 DUP1 SLOAD PUSH2 0xAA4 SWAP1 PUSH2 0x1972 JUMP JUMPDEST DUP1 PUSH1 0x1F ADD PUSH1 0x20 DUP1 SWAP2 DIV MUL PUSH1 0x20 ADD PUSH1 0x40 MLOAD SWAP1 DUP2 ADD PUSH1 0x40 MSTORE DUP1 SWAP3 SWAP2 SWAP1 DUP2 DUP2 MSTORE PUSH1 0x20 ADD DUP3 DUP1 SLOAD PUSH2 0xAD0 SWAP1 PUSH2 0x1972 JUMP JUMPDEST DUP1 ISZERO PUSH2 0xB1B JUMPI DUP1 PUSH1 0x1F LT PUSH2 0xAF2 JUMPI PUSH2 0x100 DUP1 DUP4 SLOAD DIV MUL DUP4 MSTORE SWAP2 PUSH1 0x20 ADD SWAP2 PUSH2 0xB1B JUMP JUMPDEST DUP3 ADD SWAP2 SWAP1 PUSH0 MSTORE PUSH1 0x20 PUSH0 KECCAK256 SWAP1 JUMPDEST DUP2 SLOAD DUP2 MSTORE SWAP1 PUSH1 0x1 ADD SWAP1 PUSH1 0x20 ADD DUP1 DUP4 GT PUSH2 0xAFE JUMPI DUP3 SWAP1 SUB PUSH1 0x1F AND DUP3 ADD SWAP2 JUMPDEST POP POP POP POP POP SWAP1 POP SWAP2 SWAP1 POP JUMP JUMPDEST PUSH0 PUSH0 PUSH1 0x4 PUSH0 DUP5 DUP2 MSTORE PUSH1 0x20 ADD SWAP1 DUP2 MSTORE PUSH1 0x20 ADD PUSH0 KECCAK256 PUSH0 SWAP1 SLOAD SWAP1 PUSH2 0x100 EXP SWAP1 DIV PUSH20 0xFFFFFFFFFFFFFFFFFFFFFFFFFFFFFFFFFFFFFFFF AND SWAP1 POP PUSH0 PUSH20 0xFFFFFFFFFFFFFFFFFFFFFFFFFFFFFFFFFFFFFFFF AND DUP2 PUSH20 0xFFFFFFFFFFFFFFFFFFFFFFFFFFFFFFFFFFFFFFFF AND SUB PUSH2 0xBCA JUMPI PUSH1 0x40 MLOAD PUSH32 0x8C379A000000000000000000000000000000000000000000000000000000000 DUP2 MSTORE PUSH1 0x4 ADD PUSH2 0xBC1 SWAP1 PUSH2 0x19EC JUMP JUMPDEST PUSH1 0x40 MLOAD DUP1 SWAP2 SUB SWAP1 REVERT JUMPDEST DUP1 SWAP2 POP POP SWAP2 SWAP1 POP JUMP JUMPDEST PUSH0 PUSH0 PUSH20 0xFFFFFFFFFFFFFFFFFFFFFFFFFFFFFFFFFFFFFFFF AND DUP3 PUSH20 0xFFFFFFFFFFFFFFFFFFFFFFFFFFFFFFFFFFFFFFFF AND SUB PUSH2 0xC42 JUMPI PUSH1 0x40 MLOAD PUSH32 0x8C379A000000000000000000000000000000000000000000000000000000000 DUP2 MSTORE PUSH1 0x4 ADD PUSH2 0xC39 SWAP1 PUSH2 0x1BBF JUMP JUMPDEST PUSH1 0x40 MLOAD DUP1 SWAP2 SUB SWAP1 REVERT JUMPDEST PUSH1 0x6 PUSH0 DUP4 PUSH20 0xFFFFFFFFFFFFFFFFFFFFFFFFFFFFFFFFFFFFFFFF AND PUSH20 0xFFFFFFFFFFFFFFFFFFFFFFFFFFFFFFFFFFFFFFFF AND DUP2 MSTORE PUSH1 0x20 ADD SWAP1 DUP2 MSTORE PUSH1 0x20 ADD PUSH0 KECCAK256 SLOAD SWAP1 POP SWAP2 SWAP1 POP JUMP JUMPDEST PUSH0 PUSH1 0x1 PUSH1 0x3 SLOAD PUSH2 0xC97 SWAP2 SWAP1 PUSH2 0x1BDD JUMP JUMPDEST SWAP1 POP SWAP1 JUMP JUMPDEST PUSH0 PUSH0 SWAP1 SLOAD SWAP1 PUSH2 0x100 EXP SWAP1 DIV PUSH20 0xFFFFFFFFFFFFFFFFFFFFFFFFFFFFFFFFFFFFFFFF AND DUP2 JUMP JUMPDEST PUSH1 0x2 DUP1 SLOAD PUSH2 0xCCD SWAP1 PUSH2 0x1972 JUMP JUMPDEST DUP1 PUSH1 0x1F ADD PUSH1 0x20 DUP1 SWAP2 DIV MUL PUSH1 0x20 ADD PUSH1 0x40 MLOAD SWAP1 DUP2 ADD PUSH1 0x40 MSTORE DUP1 SWAP3 SWAP2 SWAP1 DUP2 DUP2 MSTORE PUSH1 0x20 ADD DUP3 DUP1 SLOAD PUSH2 0xCF9 SWAP1 PUSH2 0x1972 JUMP JUMPDEST DUP1 ISZERO PUSH2 0xD44 JUMPI DUP1 PUSH1 0x1F LT PUSH2 0xD1B JUMPI PUSH2 0x100 DUP1 DUP4 SLOAD DIV MUL DUP4 MSTORE SWAP2 PUSH1 0x20 ADD SWAP2 PUSH2 0xD44 JUMP JUMPDEST DUP3 ADD SWAP2 SWAP1 PUSH0 MSTORE PUSH1 0x20 PUSH0 KECCAK256 SWAP1 JUMPDEST DUP2 SLOAD DUP2 MSTORE SWAP1 PUSH1 0x1 ADD SWAP1 PUSH1 0x20 ADD DUP1 DUP4 GT PUSH2 0xD27 JUMPI DUP3 SWAP1 SUB PUSH1 0x1F AND DUP3 ADD SWAP2 JUMPDEST POP POP POP POP POP DUP2 JUMP JUMPDEST PUSH0 PUSH0 PUSH0 SWAP1 SLOAD SWAP1 PUSH2 0x100 EXP SWAP1 DIV PUSH20 0xFFFFFFFFFFFFFFFFFFFFFFFFFFFFFFFFFFFFFFFF AND PUSH20 0xFFFFFFFFFFFFFFFFFFFFFFFFFFFFFFFFFFFFFFFF AND CALLER PUSH20 0xFFFFFFFFFFFFFFFFFFFFFFFFFFFFFFFFFFFFFFFF AND EQ PUSH2 0xDDB JUMPI PUSH1 0x40 MLOAD PUSH32 0x8C379A000000000000000000000000000000000000000000000000000000000 DUP2 MSTORE PUSH1 0x4 ADD PUSH2 0xDD2 SWAP1 PUSH2 0x1A54 JUMP JUMPDEST PUSH1 0x40 MLOAD DUP1 SWAP2 SUB SWAP1 REVERT JUMPDEST PUSH0 PUSH20 0xFFFFFFFFFFFFFFFFFFFFFFFFFFFFFFFFFFFFFFFF AND DUP4 PUSH20 0xFFFFFFFFFFFFFFFFFFFFFFFFFFFFFFFFFFFFFFFF AND SUB PUSH2 0xE49 JUMPI PUSH1 0x40 MLOAD PUSH32 0x8C379A000000000000000000000000000000000000000000000000000000000 DUP2 MSTORE PUSH1 0x4 ADD PUSH2 0xE40 SWAP1 PUSH2 0x1C5A JUMP JUMPDEST PUSH1 0x40 MLOAD DUP1 SWAP2 SUB SWAP1 REVERT JUMPDEST PUSH0 PUSH1 0x3 SLOAD SWAP1 POP PUSH1 0x3 PUSH0 DUP2 SLOAD DUP1 SWAP3 SWAP2 SWAP1 PUSH2 0xE61 SWAP1 PUSH2 0x1B2E JUMP JUMPDEST SWAP2 SWAP1 POP SSTORE POP DUP4 PUSH1 0x4 PUSH0 DUP4 DUP2 MSTORE PUSH1 0x20 ADD SWAP1 DUP2 MSTORE PUSH1 0x20 ADD PUSH0 KECCAK256 PUSH0 PUSH2 0x100 EXP DUP2 SLOAD DUP2 PUSH20 0xFFFFFFFFFFFFFFFFFFFFFFFFFFFFFFFFFFFFFFFF MUL NOT AND SWAP1 DUP4 PUSH20 0xFFFFFFFFFFFFFFFFFFFFFFFFFFFFFFFFFFFFFFFF AND MUL OR SWAP1 SSTORE POP PUSH1 0x6 PUSH0 DUP6 PUSH20 0xFFFFFFFFFFFFFFFFFFFFFFFFFFFFFFFFFFFFFFFF AND PUSH20 0xFFFFFFFFFFFFFFFFFFFFFFFFFFFFFFFFFFFFFFFF AND DUP2 MSTORE PUSH1 0x20 ADD SWAP1 DUP2 MSTORE PUSH1 0x20 ADD PUSH0 KECCAK256 PUSH0 DUP2 SLOAD DUP1 SWAP3 SWAP2 SWAP1 PUSH2 0xF02 SWAP1 PUSH2 0x1B2E JUMP JUMPDEST SWAP2 SWAP1 POP SSTORE POP DUP3 PUSH1 0x5 PUSH0 DUP4 DUP2 MSTORE PUSH1 0x20 ADD SWAP1 DUP2 MSTORE PUSH1 0x20 ADD PUSH0 KECCAK256 SWAP1 DUP2 PUSH2 0xF25 SWAP2 SWAP1 PUSH2 0x1E18 JUMP JUMPDEST POP DUP1 DUP5 PUSH20 0xFFFFFFFFFFFFFFFFFFFFFFFFFFFFFFFFFFFFFFFF AND PUSH0 PUSH20 0xFFFFFFFFFFFFFFFFFFFFFFFFFFFFFFFFFFFFFFFF AND PUSH32 0xDDF252AD1BE2C89B69C2B068FC378DAA952BA7F163C4A11628F55A4DF523B3EF PUSH1 0x40 MLOAD PUSH1 0x40 MLOAD DUP1 SWAP2 SUB SWAP1 LOG4 DUP1 SWAP2 POP POP SWAP3 SWAP2 POP POP JUMP JUMPDEST DUP1 PUSH1 0x8 PUSH0 CALLER PUSH20 0xFFFFFFFFFFFFFFFFFFFFFFFFFFFFFFFFFFFFFFFF AND PUSH20 0xFFFFFFFFFFFFFFFFFFFFFFFFFFFFFFFFFFFFFFFF AND DUP2 MSTORE PUSH1 0x20 ADD SWAP1 DUP2 MSTORE PUSH1 0x20 ADD PUSH0 KECCAK256 PUSH0 DUP5 PUSH20 0xFFFFFFFFFFFFFFFFFFFFFFFFFFFFFFFFFFFFFFFF AND PUSH20 0xFFFFFFFFFFFFFFFFFFFFFFFFFFFFFFFFFFFFFFFF AND DUP2 MSTORE PUSH1 0x20 ADD SWAP1 DUP2 MSTORE PUSH1 0x20 ADD PUSH0 KECCAK256 PUSH0 PUSH2 0x100 EXP DUP2 SLOAD DUP2 PUSH1 0xFF MUL NOT AND SWAP1 DUP4 ISZERO ISZERO MUL OR SWAP1 SSTORE POP DUP2 PUSH20 0xFFFFFFFFFFFFFFFFFFFFFFFFFFFFFFFFFFFFFFFF AND CALLER PUSH20 0xFFFFFFFFFFFFFFFFFFFFFFFFFFFFFFFFFFFFFFFF AND PUSH32 0x17307EAB39AB6107E8899845AD3D59BD9653F200F220920489CA2B5937696C31 DUP4 PUSH1 0x40 MLOAD PUSH2 0x1077 SWAP2 SWAP1 PUSH2 0x18EE JUMP JUMPDEST PUSH1 0x40 MLOAD DUP1 SWAP2 SUB SWAP1 LOG3 POP POP JUMP JUMPDEST PUSH0 DUP3 PUSH20 0xFFFFFFFFFFFFFFFFFFFFFFFFFFFFFFFFFFFFFFFF AND CALLER PUSH20 0xFFFFFFFFFFFFFFFFFFFFFFFFFFFFFFFFFFFFFFFF AND EQ PUSH2 0x10F2 JUMPI PUSH1 0x40 MLOAD PUSH32 0x8C379A000000000000000000000000000000000000000000000000000000000 DUP2 MSTORE PUSH1 0x4 ADD PUSH2 0x10E9 SWAP1 PUSH2 0x1A54 JUMP JUMPDEST PUSH1 0x40 MLOAD DUP1 SWAP2 SUB SWAP1 REVERT JUMPDEST DUP3 PUSH20 0xFFFFFFFFFFFFFFFFFFFFFFFFFFFFFFFFFFFFFFFF AND PUSH1 0x4 PUSH0 DUP7 DUP2 MSTORE PUSH1 0x20 ADD SWAP1 DUP2 MSTORE PUSH1 0x20 ADD PUSH0 KECCAK256 PUSH0 SWAP1 SLOAD SWAP1 PUSH2 0x100 EXP SWAP1 DIV PUSH20 0xFFFFFFFFFFFFFFFFFFFFFFFFFFFFFFFFFFFFFFFF AND PUSH20 0xFFFFFFFFFFFFFFFFFFFFFFFFFFFFFFFFFFFFFFFF AND EQ PUSH2 0x1190 JUMPI PUSH1 0x40 MLOAD PUSH32 0x8C379A000000000000000000000000000000000000000000000000000000000 DUP2 MSTORE PUSH1 0x4 ADD PUSH2 0x1187 SWAP1 PUSH2 0x1ABC JUMP JUMPDEST PUSH1 0x40 MLOAD DUP1 SWAP2 SUB SWAP1 REVERT JUMPDEST PUSH0 PUSH20 0xFFFFFFFFFFFFFFFFFFFFFFFFFFFFFFFFFFFFFFFF AND DUP3 PUSH20 0xFFFFFFFFFFFFFFFFFFFFFFFFFFFFFFFFFFFFFFFF AND SUB PUSH2 0x11FE JUMPI PUSH1 0x40 MLOAD PUSH32 0x8C379A000000000000000000000000000000000000000000000000000000000 DUP2 MSTORE PUSH1 0x4 ADD PUSH2 0x11F5 SWAP1 PUSH2 0x1C5A JUMP JUMPDEST PUSH1 0x40 MLOAD DUP1 SWAP2 SUB SWAP1 REVERT JUMPDEST PUSH0 PUSH1 0x7 PUSH0 DUP7 DUP2 MSTORE PUSH1 0x20 ADD SWAP1 DUP2 MSTORE PUSH1 0x20 ADD PUSH0 KECCAK256 PUSH0 PUSH2 0x100 EXP DUP2 SLOAD DUP2 PUSH20 0xFFFFFFFFFFFFFFFFFFFFFFFFFFFFFFFFFFFFFFFF MUL NOT AND SWAP1 DUP4 PUSH20 0xFFFFFFFFFFFFFFFFFFFFFFFFFFFFFFFFFFFFFFFF AND MUL OR SWAP1 SSTORE POP PUSH1 0x6 PUSH0 DUP5 PUSH20 0xFFFFFFFFFFFFFFFFFFFFFFFFFFFFFFFFFFFFFFFF AND PUSH20 0xFFFFFFFFFFFFFFFFFFFFFFFFFFFFFFFFFFFFFFFF AND DUP2 MSTORE PUSH1 0x20 ADD SWAP1 DUP2 MSTORE PUSH1 0x20 ADD PUSH0 KECCAK256 PUSH0 DUP2 SLOAD DUP1 SWAP3 SWAP2 SWAP1 PUSH2 0x129A SWAP1 PUSH2 0x1B07 JUMP JUMPDEST SWAP2 SWAP1 POP SSTORE POP PUSH1 0x6 PUSH0 DUP4 PUSH20 0xFFFFFFFFFFFFFFFFFFFFFFFFFFFFFFFFFFFFFFFF AND PUSH20 0xFFFFFFFFFFFFFFFFFFFFFFFFFFFFFFFFFFFFFFFF AND DUP2 MSTORE PUSH1 0x20 ADD SWAP1 DUP2 MSTORE PUSH1 0x20 ADD PUSH0 KECCAK256 PUSH0 DUP2 SLOAD DUP1 SWAP3 SWAP2 SWAP1 PUSH2 0x12EC SWAP1 PUSH2 0x1B2E JUMP JUMPDEST SWAP2 SWAP1 POP SSTORE POP DUP2 PUSH1 0x4 PUSH0 DUP7 DUP2 MSTORE PUSH1 0x20 ADD SWAP1 DUP2 MSTORE PUSH1 0x20 ADD PUSH0 KECCAK256 PUSH0 PUSH2 0x100 EXP DUP2 SLOAD DUP2 PUSH20 0xFFFFFFFFFFFFFFFFFFFFFFFFFFFFFFFFFFFFFFFF MUL NOT AND SWAP1 DUP4 PUSH20 0xFFFFFFFFFFFFFFFFFFFFFFFFFFFFFFFFFFFFFFFF AND MUL OR SWAP1 SSTORE POP DUP4 DUP3 PUSH20 0xFFFFFFFFFFFFFFFFFFFFFFFFFFFFFFFFFFFFFFFF AND DUP5 PUSH20 0xFFFFFFFFFFFFFFFFFFFFFFFFFFFFFFFFFFFFFFFF AND PUSH32 0xDDF252AD1BE2C89B69C2B068FC378DAA952BA7F163C4A11628F55A4DF523B3EF PUSH1 0x40 MLOAD PUSH1 0x40 MLOAD DUP1 SWAP2 SUB SWAP1 LOG4 PUSH1 0x1 SWAP1 POP SWAP4 SWAP3 POP POP POP JUMP JUMPDEST PUSH0 PUSH1 0x8 PUSH0 DUP5 PUSH20 0xFFFFFFFFFFFFFFFFFFFFFFFFFFFFFFFFFFFFFFFF AND PUSH20 0xFFFFFFFFFFFFFFFFFFFFFFFFFFFFFFFFFFFFFFFF AND DUP2 MSTORE PUSH1 0x20 ADD SWAP1 DUP2 MSTORE PUSH1 0x20 ADD PUSH0 KECCAK256 PUSH0 DUP4 PUSH20 0xFFFFFFFFFFFFFFFFFFFFFFFFFFFFFFFFFFFFFFFF AND PUSH20 0xFFFFFFFFFFFFFFFFFFFFFFFFFFFFFFFFFFFFFFFF AND DUP2 MSTORE PUSH1 0x20 ADD SWAP1 DUP2 MSTORE PUSH1 0x20 ADD PUSH0 KECCAK256 PUSH0 SWAP1 SLOAD SWAP1 PUSH2 0x100 EXP SWAP1 DIV PUSH1 0xFF AND SWAP1 POP SWAP3 SWAP2 POP POP JUMP JUMPDEST PUSH0 DUP2 MLOAD SWAP1 POP SWAP2 SWAP1 POP JUMP JUMPDEST PUSH0 DUP3 DUP3 MSTORE PUSH1 0x20 DUP3 ADD SWAP1 POP SWAP3 SWAP2 POP POP JUMP JUMPDEST DUP3 DUP2 DUP4 MCOPY PUSH0 DUP4 DUP4 ADD MSTORE POP POP POP JUMP JUMPDEST PUSH0 PUSH1 0x1F NOT PUSH1 0x1F DUP4 ADD AND SWAP1 POP SWAP2 SWAP1 POP JUMP JUMPDEST PUSH0 PUSH2 0x1476 DUP3 PUSH2 0x1434 JUMP JUMPDEST PUSH2 0x1480 DUP2 DUP6 PUSH2 0x143E JUMP JUMPDEST SWAP4 POP PUSH2 0x1490 DUP2 DUP6 PUSH1 0x20 DUP7 ADD PUSH2 0x144E JUMP JUMPDEST PUSH2 0x1499 DUP2 PUSH2 0x145C JUMP JUMPDEST DUP5 ADD SWAP2 POP POP SWAP3 SWAP2 POP POP JUMP JUMPDEST PUSH0 PUSH1 0x20 DUP3 ADD SWAP1 POP DUP2 DUP2 SUB PUSH0 DUP4 ADD MSTORE PUSH2 0x14BC DUP2 DUP5 PUSH2 0x146C JUMP JUMPDEST SWAP1 POP SWAP3 SWAP2 POP POP JUMP JUMPDEST PUSH0 PUSH1 0x40 MLOAD SWAP1 POP SWAP1 JUMP JUMPDEST PUSH0 PUSH0 REVERT JUMPDEST PUSH0 PUSH0 REVERT JUMPDEST PUSH0 DUP2 SWAP1 POP SWAP2 SWAP1 POP JUMP JUMPDEST PUSH2 0x14E7 DUP2 PUSH2 0x14D5 JUMP JUMPDEST DUP2 EQ PUSH2 0x14F1 JUMPI PUSH0 PUSH0 REVERT JUMPDEST POP JUMP JUMPDEST PUSH0 DUP2 CALLDATALOAD SWAP1 POP PUSH2 0x1502 DUP2 PUSH2 0x14DE JUMP JUMPDEST SWAP3 SWAP2 POP POP JUMP JUMPDEST PUSH0 PUSH1 0x20 DUP3 DUP5 SUB SLT ISZERO PUSH2 0x151D JUMPI PUSH2 0x151C PUSH2 0x14CD JUMP JUMPDEST JUMPDEST PUSH0 PUSH2 0x152A DUP5 DUP3 DUP6 ADD PUSH2 0x14F4 JUMP JUMPDEST SWAP2 POP POP SWAP3 SWAP2 POP POP JUMP JUMPDEST PUSH0 PUSH20 0xFFFFFFFFFFFFFFFFFFFFFFFFFFFFFFFFFFFFFFFF DUP3 AND SWAP1 POP SWAP2 SWAP1 POP JUMP JUMPDEST PUSH0 PUSH2 0x155C DUP3 PUSH2 0x1533 JUMP JUMPDEST SWAP1 POP SWAP2 SWAP1 POP JUMP JUMPDEST PUSH2 0x156C DUP2 PUSH2 0x1552 JUMP JUMPDEST DUP3 MSTORE POP POP JUMP JUMPDEST PUSH0 PUSH1 0x20 DUP3 ADD SWAP1 POP PUSH2 0x1585 PUSH0 DUP4 ADD DUP5 PUSH2 0x1563 JUMP JUMPDEST SWAP3 SWAP2 POP POP JUMP JUMPDEST PUSH2 0x1594 DUP2 PUSH2 0x1552 JUMP JUMPDEST DUP2 EQ PUSH2 0x159E JUMPI PUSH0 PUSH0 REVERT JUMPDEST POP JUMP JUMPDEST PUSH0 DUP2 CALLDATALOAD SWAP1 POP PUSH2 0x15AF DUP2 PUSH2 0x158B JUMP JUMPDEST SWAP3 SWAP2 POP POP JUMP JUMPDEST PUSH0 PUSH0 PUSH1 0x40 DUP4 DUP6 SUB SLT ISZERO PUSH2 0x15CB JUMPI PUSH2 0x15CA PUSH2 0x14CD JUMP JUMPDEST JUMPDEST PUSH0 PUSH2 0x15D8 DUP6 DUP3 DUP7 ADD PUSH2 0x15A1 JUMP JUMPDEST SWAP3 POP POP PUSH1 0x20 PUSH2 0x15E9 DUP6 DUP3 DUP7 ADD PUSH2 0x14F4 JUMP JUMPDEST SWAP2 POP POP SWAP3 POP SWAP3 SWAP1 POP JUMP JUMPDEST PUSH0 PUSH0 PUSH0 PUSH1 0x60 DUP5 DUP7 SUB SLT ISZERO PUSH2 0x160A JUMPI PUSH2 0x1609 PUSH2 0x14CD JUMP JUMPDEST JUMPDEST PUSH0 PUSH2 0x1617 DUP7 DUP3 DUP8 ADD PUSH2 0x15A1 JUMP JUMPDEST SWAP4 POP POP PUSH1 0x20 PUSH2 0x1628 DUP7 DUP3 DUP8 ADD PUSH2 0x15A1 JUMP JUMPDEST SWAP3 POP POP PUSH1 0x40 PUSH2 0x1639 DUP7 DUP3 DUP8 ADD PUSH2 0x14F4 JUMP JUMPDEST SWAP2 POP POP SWAP3 POP SWAP3 POP SWAP3 JUMP JUMPDEST PUSH0 PUSH1 0x20 DUP3 DUP5 SUB SLT ISZERO PUSH2 0x1658 JUMPI PUSH2 0x1657 PUSH2 0x14CD JUMP JUMPDEST JUMPDEST PUSH0 PUSH2 0x1665 DUP5 DUP3 DUP6 ADD PUSH2 0x15A1 JUMP JUMPDEST SWAP2 POP POP SWAP3 SWAP2 POP POP JUMP JUMPDEST PUSH2 0x1677 DUP2 PUSH2 0x14D5 JUMP JUMPDEST DUP3 MSTORE POP POP JUMP JUMPDEST PUSH0 PUSH1 0x20 DUP3 ADD SWAP1 POP PUSH2 0x1690 PUSH0 DUP4 ADD DUP5 PUSH2 0x166E JUMP JUMPDEST SWAP3 SWAP2 POP POP JUMP JUMPDEST PUSH0 PUSH0 REVERT JUMPDEST PUSH0 PUSH0 REVERT JUMPDEST PUSH32 0x4E487B7100000000000000000000000000000000000000000000000000000000 PUSH0 MSTORE PUSH1 0x41 PUSH1 0x4 MSTORE PUSH1 0x24 PUSH0 REVERT JUMPDEST PUSH2 0x16D4 DUP3 PUSH2 0x145C JUMP JUMPDEST DUP2 ADD DUP2 DUP2 LT PUSH8 0xFFFFFFFFFFFFFFFF DUP3 GT OR ISZERO PUSH2 0x16F3 JUMPI PUSH2 0x16F2 PUSH2 0x169E JUMP JUMPDEST JUMPDEST DUP1 PUSH1 0x40 MSTORE POP POP POP JUMP JUMPDEST PUSH0 PUSH2 0x1705 PUSH2 0x14C4 JUMP JUMPDEST SWAP1 POP PUSH2 0x1711 DUP3 DUP3 PUSH2 0x16CB JUMP JUMPDEST SWAP2 SWAP1 POP JUMP JUMPDEST PUSH0 PUSH8 0xFFFFFFFFFFFFFFFF DUP3 GT ISZERO PUSH2 0x1730 JUMPI PUSH2 0x172F PUSH2 0x169E JUMP JUMPDEST JUMPDEST PUSH2 0x1739 DUP3 PUSH2 0x145C JUMP JUMPDEST SWAP1 POP PUSH1 0x20 DUP2 ADD SWAP1 POP SWAP2 SWAP1 POP JUMP JUMPDEST DUP3 DUP2 DUP4 CALLDATACOPY PUSH0 DUP4 DUP4 ADD MSTORE POP POP POP JUMP JUMPDEST PUSH0 PUSH2 0x1766 PUSH2 0x1761 DUP5 PUSH2 0x1716 JUMP JUMPDEST PUSH2 0x16FC JUMP JUMPDEST SWAP1 POP DUP3 DUP2 MSTORE PUSH1 0x20 DUP2 ADD DUP5 DUP5 DUP5 ADD GT ISZERO PUSH2 0x1782 JUMPI PUSH2 0x1781 PUSH2 0x169A JUMP JUMPDEST JUMPDEST PUSH2 0x178D DUP5 DUP3 DUP6 PUSH2 0x1746 JUMP JUMPDEST POP SWAP4 SWAP3 POP POP POP JUMP JUMPDEST PUSH0 DUP3 PUSH1 0x1F DUP4 ADD SLT PUSH2 0x17A9 JUMPI PUSH2 0x17A8 PUSH2 0x1696 JUMP JUMPDEST JUMPDEST DUP2 CALLDATALOAD PUSH2 0x17B9 DUP5 DUP3 PUSH1 0x20 DUP7 ADD PUSH2 0x1754 JUMP JUMPDEST SWAP2 POP POP SWAP3 SWAP2 POP POP JUMP JUMPDEST PUSH0 PUSH0 PUSH1 0x40 DUP4 DUP6 SUB SLT ISZERO PUSH2 0x17D8 JUMPI PUSH2 0x17D7 PUSH2 0x14CD JUMP JUMPDEST JUMPDEST PUSH0 PUSH2 0x17E5 DUP6 DUP3 DUP7 ADD PUSH2 0x15A1 JUMP JUMPDEST SWAP3 POP POP PUSH1 0x20 DUP4 ADD CALLDATALOAD PUSH8 0xFFFFFFFFFFFFFFFF DUP2 GT ISZERO PUSH2 0x1806 JUMPI PUSH2 0x1805 PUSH2 0x14D1 JUMP JUMPDEST JUMPDEST PUSH2 0x1812 DUP6 DUP3 DUP7 ADD PUSH2 0x1795 JUMP JUMPDEST SWAP2 POP POP SWAP3 POP SWAP3 SWAP1 POP JUMP JUMPDEST PUSH0 DUP2 ISZERO ISZERO SWAP1 POP SWAP2 SWAP1 POP JUMP JUMPDEST PUSH2 0x1830 DUP2 PUSH2 0x181C JUMP JUMPDEST DUP2 EQ PUSH2 0x183A JUMPI PUSH0 PUSH0 REVERT JUMPDEST POP JUMP JUMPDEST PUSH0 DUP2 CALLDATALOAD SWAP1 POP PUSH2 0x184B DUP2 PUSH2 0x1827 JUMP JUMPDEST SWAP3 SWAP2 POP POP JUMP JUMPDEST PUSH0 PUSH0 PUSH1 0x40 DUP4 DUP6 SUB SLT ISZERO PUSH2 0x1867 JUMPI PUSH2 0x1866 PUSH2 0x14CD JUMP JUMPDEST JUMPDEST PUSH0 PUSH2 0x1874 DUP6 DUP3 DUP7 ADD PUSH2 0x15A1 JUMP JUMPDEST SWAP3 POP POP PUSH1 0x20 PUSH2 0x1885 DUP6 DUP3 DUP7 ADD PUSH2 0x183D JUMP JUMPDEST SWAP2 POP POP SWAP3 POP SWAP3 SWAP1 POP JUMP JUMPDEST PUSH0 PUSH0 PUSH0 PUSH1 0x60 DUP5 DUP7 SUB SLT ISZERO PUSH2 0x18A6 JUMPI PUSH2 0x18A5 PUSH2 0x14CD JUMP JUMPDEST JUMPDEST PUSH0 PUSH2 0x18B3 DUP7 DUP3 DUP8 ADD PUSH2 0x14F4 JUMP JUMPDEST SWAP4 POP POP PUSH1 0x20 PUSH2 0x18C4 DUP7 DUP3 DUP8 ADD PUSH2 0x15A1 JUMP JUMPDEST SWAP3 POP POP PUSH1 0x40 PUSH2 0x18D5 DUP7 DUP3 DUP8 ADD PUSH2 0x15A1 JUMP JUMPDEST SWAP2 POP POP SWAP3 POP SWAP3 POP SWAP3 JUMP JUMPDEST PUSH2 0x18E8 DUP2 PUSH2 0x181C JUMP JUMPDEST DUP3 MSTORE POP POP JUMP JUMPDEST PUSH0 PUSH1 0x20 DUP3 ADD SWAP1 POP PUSH2 0x1901 PUSH0 DUP4 ADD DUP5 PUSH2 0x18DF JUMP JUMPDEST SWAP3 SWAP2 POP POP JUMP JUMPDEST PUSH0 PUSH0 PUSH1 0x40 DUP4 DUP6 SUB SLT ISZERO PUSH2 0x191D JUMPI PUSH2 0x191C PUSH2 0x14CD JUMP JUMPDEST JUMPDEST PUSH0 PUSH2 0x192A DUP6 DUP3 DUP7 ADD PUSH2 0x15A1 JUMP JUMPDEST SWAP3 POP POP PUSH1 0x20 PUSH2 0x193B DUP6 DUP3 DUP7 ADD PUSH2 0x15A1 JUMP JUMPDEST SWAP2 POP POP SWAP3 POP SWAP3 SWAP1 POP JUMP JUMPDEST PUSH32 0x4E487B7100000000000000000000000000000000000000000000000000000000 PUSH0 MSTORE PUSH1 0x22 PUSH1 0x4 MSTORE PUSH1 0x24 PUSH0 REVERT JUMPDEST PUSH0 PUSH1 0x2 DUP3 DIV SWAP1 POP PUSH1 0x1 DUP3 AND DUP1 PUSH2 0x1989 JUMPI PUSH1 0x7F DUP3 AND SWAP2 POP JUMPDEST PUSH1 0x20 DUP3 LT DUP2 SUB PUSH2 0x199C JUMPI PUSH2 0x199B PUSH2 0x1945 JUMP JUMPDEST JUMPDEST POP SWAP2 SWAP1 POP JUMP JUMPDEST PUSH32 0x546F6B656E20646F6573206E6F74206578697374000000000000000000000000 PUSH0 DUP3 ADD MSTORE POP JUMP JUMPDEST PUSH0 PUSH2 0x19D6 PUSH1 0x14 DUP4 PUSH2 0x143E JUMP JUMPDEST SWAP2 POP PUSH2 0x19E1 DUP3 PUSH2 0x19A2 JUMP JUMPDEST PUSH1 0x20 DUP3 ADD SWAP1 POP SWAP2 SWAP1 POP JUMP JUMPDEST PUSH0 PUSH1 0x20 DUP3 ADD SWAP1 POP DUP2 DUP2 SUB PUSH0 DUP4 ADD MSTORE PUSH2 0x1A03 DUP2 PUSH2 0x19CA JUMP JUMPDEST SWAP1 POP SWAP2 SWAP1 POP JUMP JUMPDEST PUSH32 0x4E6F7420617574686F72697A6564000000000000000000000000000000000000 PUSH0 DUP3 ADD MSTORE POP JUMP JUMPDEST PUSH0 PUSH2 0x1A3E PUSH1 0xE DUP4 PUSH2 0x143E JUMP JUMPDEST SWAP2 POP PUSH2 0x1A49 DUP3 PUSH2 0x1A0A JUMP JUMPDEST PUSH1 0x20 DUP3 ADD SWAP1 POP SWAP2 SWAP1 POP JUMP JUMPDEST PUSH0 PUSH1 0x20 DUP3 ADD SWAP1 POP DUP2 DUP2 SUB PUSH0 DUP4 ADD MSTORE PUSH2 0x1A6B DUP2 PUSH2 0x1A32 JUMP JUMPDEST SWAP1 POP SWAP2 SWAP1 POP JUMP JUMPDEST PUSH32 0x4E6F7420746865206F776E657200000000000000000000000000000000000000 PUSH0 DUP3 ADD MSTORE POP JUMP JUMPDEST PUSH0 PUSH2 0x1AA6 PUSH1 0xD DUP4 PUSH2 0x143E JUMP JUMPDEST SWAP2 POP PUSH2 0x1AB1 DUP3 PUSH2 0x1A72 JUMP JUMPDEST PUSH1 0x20 DUP3 ADD SWAP1 POP SWAP2 SWAP1 POP JUMP JUMPDEST PUSH0 PUSH1 0x20 DUP3 ADD SWAP1 POP DUP2 DUP2 SUB PUSH0 DUP4 ADD MSTORE PUSH2 0x1AD3 DUP2 PUSH2 0x1A9A JUMP JUMPDEST SWAP1 POP SWAP2 SWAP1 POP JUMP JUMPDEST PUSH32 0x4E487B7100000000000000000000000000000000000000000000000000000000 PUSH0 MSTORE PUSH1 0x11 PUSH1 0x4 MSTORE PUSH1 0x24 PUSH0 REVERT JUMPDEST PUSH0 PUSH2 0x1B11 DUP3 PUSH2 0x14D5 JUMP JUMPDEST SWAP2 POP PUSH0 DUP3 SUB PUSH2 0x1B23 JUMPI PUSH2 0x1B22 PUSH2 0x1ADA JUMP JUMPDEST JUMPDEST PUSH1 0x1 DUP3 SUB SWAP1 POP SWAP2 SWAP1 POP JUMP JUMPDEST PUSH0 PUSH2 0x1B38 DUP3 PUSH2 0x14D5 JUMP JUMPDEST SWAP2 POP PUSH32 0xFFFFFFFFFFFFFFFFFFFFFFFFFFFFFFFFFFFFFFFFFFFFFFFFFFFFFFFFFFFFFFFF DUP3 SUB PUSH2 0x1B6A JUMPI PUSH2 0x1B69 PUSH2 0x1ADA JUMP JUMPDEST JUMPDEST PUSH1 0x1 DUP3 ADD SWAP1 POP SWAP2 SWAP1 POP JUMP JUMPDEST PUSH32 0x496E76616C696420616464726573730000000000000000000000000000000000 PUSH0 DUP3 ADD MSTORE POP JUMP JUMPDEST PUSH0 PUSH2 0x1BA9 PUSH1 0xF DUP4 PUSH2 0x143E JUMP JUMPDEST SWAP2 POP PUSH2 0x1BB4 DUP3 PUSH2 0x1B75 JUMP JUMPDEST PUSH1 0x20 DUP3 ADD SWAP1 POP SWAP2 SWAP1 POP JUMP JUMPDEST PUSH0 PUSH1 0x20 DUP3 ADD SWAP1 POP DUP2 DUP2 SUB PUSH0 DUP4 ADD MSTORE PUSH2 0x1BD6 DUP2 PUSH2 0x1B9D JUMP JUMPDEST SWAP1 POP SWAP2 SWAP1 POP JUMP JUMPDEST PUSH0 PUSH2 0x1BE7 DUP3 PUSH2 0x14D5 JUMP JUMPDEST SWAP2 POP PUSH2 0x1BF2 DUP4 PUSH2 0x14D5 JUMP JUMPDEST SWAP3 POP DUP3 DUP3 SUB SWAP1 POP DUP2 DUP2 GT ISZERO PUSH2 0x1C0A JUMPI PUSH2 0x1C09 PUSH2 0x1ADA JUMP JUMPDEST JUMPDEST SWAP3 SWAP2 POP POP JUMP JUMPDEST PUSH32 0x496E76616C696420726563697069656E74000000000000000000000000000000 PUSH0 DUP3 ADD MSTORE POP JUMP JUMPDEST PUSH0 PUSH2 0x1C44 PUSH1 0x11 DUP4 PUSH2 0x143E JUMP JUMPDEST SWAP2 POP PUSH2 0x1C4F DUP3 PUSH2 0x1C10 JUMP JUMPDEST PUSH1 0x20 DUP3 ADD SWAP1 POP SWAP2 SWAP1 POP JUMP JUMPDEST PUSH0 PUSH1 0x20 DUP3 ADD SWAP1 POP DUP2 DUP2 SUB PUSH0 DUP4 ADD MSTORE PUSH2 0x1C71 DUP2 PUSH2 0x1C38 JUMP JUMPDEST SWAP1 POP SWAP2 SWAP1 POP JUMP JUMPDEST PUSH0 DUP2 SWAP1 POP DUP2 PUSH0 MSTORE PUSH1 0x20 PUSH0 KECCAK256 SWAP1 POP SWAP2 SWAP1 POP JUMP JUMPDEST PUSH0 PUSH1 0x20 PUSH1 0x1F DUP4 ADD DIV SWAP1 POP SWAP2 SWAP1 POP JUMP JUMPDEST PUSH0 DUP3 DUP3 SHL SWAP1 POP SWAP3 SWAP2 POP POP JUMP JUMPDEST PUSH0 PUSH1 0x8 DUP4 MUL PUSH2 0x1CD4 PUSH32 0xFFFFFFFFFFFFFFFFFFFFFFFFFFFFFFFFFFFFFFFFFFFFFFFFFFFFFFFFFFFFFFFF DUP3 PUSH2 0x1C99 JUMP JUMPDEST PUSH2 0x1CDE DUP7 DUP4 PUSH2 0x1C99 JUMP JUMPDEST SWAP6 POP DUP1 NOT DUP5 AND SWAP4 POP DUP1 DUP7 AND DUP5 OR SWAP3 POP POP POP SWAP4 SWAP3 POP POP POP JUMP JUMPDEST PUSH0 DUP2 SWAP1 POP SWAP2 SWAP1 POP JUMP JUMPDEST PUSH0 PUSH2 0x1D19 PUSH2 0x1D14 PUSH2 0x1D0F DUP5 PUSH2 0x14D5 JUMP JUMPDEST PUSH2 0x1CF6 JUMP JUMPDEST PUSH2 0x14D5 JUMP JUMPDEST SWAP1 POP SWAP2 SWAP1 POP JUMP JUMPDEST PUSH0 DUP2 SWAP1 POP SWAP2 SWAP1 POP JUMP JUMPDEST PUSH2 0x1D32 DUP4 PUSH2 0x1CFF JUMP JUMPDEST PUSH2 0x1D46 PUSH2 0x1D3E DUP3 PUSH2 0x1D20 JUMP JUMPDEST DUP5 DUP5 SLOAD PUSH2 0x1CA5 JUMP JUMPDEST DUP3 SSTORE POP POP POP POP JUMP JUMPDEST PUSH0 PUSH0 SWAP1 POP SWAP1 JUMP JUMPDEST PUSH2 0x1D5D PUSH2 0x1D4E JUMP JUMPDEST PUSH2 0x1D68 DUP2 DUP5 DUP5 PUSH2 0x1D29 JUMP JUMPDEST POP POP POP JUMP JUMPDEST JUMPDEST DUP2 DUP2 LT ISZERO PUSH2 0x1D8B JUMPI PUSH2 0x1D80 PUSH0 DUP3 PUSH2 0x1D55 JUMP JUMPDEST PUSH1 0x1 DUP2 ADD SWAP1 POP PUSH2 0x1D6E JUMP JUMPDEST POP POP JUMP JUMPDEST PUSH1 0x1F DUP3 GT ISZERO PUSH2 0x1DD0 JUMPI PUSH2 0x1DA1 DUP2 PUSH2 0x1C78 JUMP JUMPDEST PUSH2 0x1DAA DUP5 PUSH2 0x1C8A JUMP JUMPDEST DUP2 ADD PUSH1 0x20 DUP6 LT ISZERO PUSH2 0x1DB9 JUMPI DUP2 SWAP1 POP JUMPDEST PUSH2 0x1DCD PUSH2 0x1DC5 DUP6 PUSH2 0x1C8A JUMP JUMPDEST DUP4 ADD DUP3 PUSH2 0x1D6D JUMP JUMPDEST POP POP JUMPDEST POP POP POP JUMP JUMPDEST PUSH0 DUP3 DUP3 SHR SWAP1 POP SWAP3 SWAP2 POP POP JUMP JUMPDEST PUSH0 PUSH2 0x1DF0 PUSH0 NOT DUP5 PUSH1 0x8 MUL PUSH2 0x1DD5 JUMP JUMPDEST NOT DUP1 DUP4 AND SWAP2 POP POP SWAP3 SWAP2 POP POP JUMP JUMPDEST PUSH0 PUSH2 0x1E08 DUP4 DUP4 PUSH2 0x1DE1 JUMP JUMPDEST SWAP2 POP DUP3 PUSH1 0x2 MUL DUP3 OR SWAP1 POP SWAP3 SWAP2 POP POP JUMP JUMPDEST PUSH2 0x1E21 DUP3 PUSH2 0x1434 JUMP JUMPDEST PUSH8 0xFFFFFFFFFFFFFFFF DUP2 GT ISZERO PUSH2 0x1E3A JUMPI PUSH2 0x1E39 PUSH2 0x169E JUMP JUMPDEST JUMPDEST PUSH2 0x1E44 DUP3 SLOAD PUSH2 0x1972 JUMP JUMPDEST PUSH2 0x1E4F DUP3 DUP3 DUP6 PUSH2 0x1D8F JUMP JUMPDEST PUSH0 PUSH1 0x20 SWAP1 POP PUSH1 0x1F DUP4 GT PUSH1 0x1 DUP2 EQ PUSH2 0x1E80 JUMPI PUSH0 DUP5 ISZERO PUSH2 0x1E6E JUMPI DUP3 DUP8 ADD MLOAD SWAP1 POP JUMPDEST PUSH2 0x1E78 DUP6 DUP3 PUSH2 0x1DFD JUMP JUMPDEST DUP7 SSTORE POP PUSH2 0x1EDF JUMP JUMPDEST PUSH1 0x1F NOT DUP5 AND PUSH2 0x1E8E DUP7 PUSH2 0x1C78 JUMP JUMPDEST PUSH0 JUMPDEST DUP3 DUP2 LT ISZERO PUSH2 0x1EB5 JUMPI DUP5 DUP10 ADD MLOAD DUP3 SSTORE PUSH1 0x1 DUP3 ADD SWAP2 POP PUSH1 0x20 DUP6 ADD SWAP5 POP PUSH1 0x20 DUP2 ADD SWAP1 POP PUSH2 0x1E90 JUMP JUMPDEST DUP7 DUP4 LT ISZERO PUSH2 0x1ED2 JUMPI DUP5 DUP10 ADD MLOAD PUSH2 0x1ECE PUSH1 0x1F DUP10 AND DUP3 PUSH2 0x1DE1 JUMP JUMPDEST DUP4 SSTORE POP JUMPDEST PUSH1 0x1 PUSH1 0x2 DUP9 MUL ADD DUP9 SSTORE POP POP POP JUMPDEST POP POP POP POP POP POP JUMP INVALID LOG2 PUSH5 0x6970667358 0x22 SLT KECCAK256 0xC2 SWAP1 GAS PUSH14 0x4EE0220E775B46A47506EDCBCBA6 0xB8 SGT 0xEA 0xB3 0xCE 0x26 0xB4 PUSH19 0xA023CC3F44CC64736F6C634300081E00330000 "
				},
				"gasEstimates": {
					"creation": {
						"codeDepositCost": "1593000",
						"executionCost": "infinite",
						"totalCost": "infinite"
					},
					"external": {
						"approve(address,uint256)": "31541",
						"balanceOf(address)": "2952",
						"getApproved(uint256)": "5143",
						"getLastTokenId()": "infinite",
						"getTokenURI(uint256)": "infinite",
						"isApprovedForAll(address,address)": "infinite",
						"mintBattleNFT(address,string)": "infinite",
						"name()": "infinite",
						"owner()": "2552",
						"ownerOf(uint256)": "3007",
						"setApprovalForAll(address,bool)": "infinite",
						"symbol()": "infinite",
						"transfer(uint256,address,address)": "infinite",
						"transferFrom(address,address,uint256)": "infinite"
					}
				},
				"methodIdentifiers": {
					"approve(address,uint256)": "095ea7b3",
					"balanceOf(address)": "70a08231",
					"getApproved(uint256)": "081812fc",
					"getLastTokenId()": "83c4c00d",
					"getTokenURI(uint256)": "3bb3a24d",
					"isApprovedForAll(address,address)": "e985e9c5",
					"mintBattleNFT(address,string)": "a02cdee7",
					"name()": "06fdde03",
					"owner()": "8da5cb5b",
					"ownerOf(uint256)": "6352211e",
					"setApprovalForAll(address,bool)": "a22cb465",
					"symbol()": "95d89b41",
					"transfer(uint256,address,address)": "ccb570e3",
					"transferFrom(address,address,uint256)": "23b872dd"
				}
			},
			"storageLayout": {
				"storage": [
					{
						"astId": 3,
						"contract": "src/BattleVictoryNFT.sol:BattleVictoryNFT",
						"label": "owner",
						"offset": 0,
						"slot": "0",
						"type": "t_address"
					},
					{
						"astId": 6,
						"contract": "src/BattleVictoryNFT.sol:BattleVictoryNFT",
						"label": "name",
						"offset": 0,
						"slot": "1",
						"type": "t_string_storage"
					},
					{
						"astId": 9,
						"contract": "src/BattleVictoryNFT.sol:BattleVictoryNFT",
						"label": "symbol",
						"offset": 0,
						"slot": "2",
						"type": "t_string_storage"
					},
					{
						"astId": 12,
						"contract": "src/BattleVictoryNFT.sol:BattleVictoryNFT",
						"label": "nextTokenId",
						"offset": 0,
						"slot": "3",
						"type": "t_uint256"
					},
					{
						"astId": 16,
						"contract": "src/BattleVictoryNFT.sol:BattleVictoryNFT",
						"label": "tokenOwners",
						"offset": 0,
						"slot": "4",
						"type": "t_mapping(t_uint256,t_address)"
					},
					{
						"astId": 20,
						"contract": "src/BattleVictoryNFT.sol:BattleVictoryNFT",
						"label": "tokenURIs",
						"offset": 0,
						"slot": "5",
						"type": "t_mapping(t_uint256,t_string_storage)"
					},
					{
						"astId": 24,
						"contract": "src/BattleVictoryNFT.sol:BattleVictoryNFT",
						"label": "balances",
						"offset": 0,
						"slot": "6",
						"type": "t_mapping(t_address,t_uint256)"
					},
					{
						"astId": 28,
						"contract": "src/BattleVictoryNFT.sol:BattleVictoryNFT",
						"label": "tokenApprovals",
						"offset": 0,
						"slot": "7",
						"type": "t_mapping(t_uint256,t_address)"
					},
					{
						"astId": 34,
						"contract": "src/BattleVictoryNFT.sol:BattleVictoryNFT",
						"label": "operatorApprovals",
						"offset": 0,
						"slot": "8",
						"type": "t_mapping(t_address,t_mapping(t_address,t_bool))"
					}
				],
				"types": {
					"t_address": {
						"encoding": "inplace",
						"label": "address",
						"numberOfBytes": "20"
					},
					"t_bool": {
						"encoding": "inplace",
						"label": "bool",
						"numberOfBytes": "1"
					},
					"t_mapping(t_address,t_bool)": {
						"encoding": "mapping",
						"key": "t_address",
						"label": "mapping(address => bool)",
						"numberOfBytes": "32",
						"value": "t_bool"
					},
					"t_mapping(t_address,t_mapping(t_address,t_bool))": {
						"encoding": "mapping",
						"key": "t_address",
						"label": "mapping(address => mapping(address => bool))",
						"numberOfBytes": "32",
						"value": "t_mapping(t_address,t_bool)"
					},
					"t_mapping(t_address,t_uint256)": {
						"encoding": "mapping",
						"key": "t_address",
						"label": "mapping(address => uint256)",
						"numberOfBytes": "32",
						"value": "t_uint256"
					},
					"t_mapping(t_uint256,t_address)": {
						"encoding": "mapping",
						"key": "t_uint256",
						"label": "mapping(uint256 => address)",
						"numberOfBytes": "32",
						"value": "t_address"
					},
					"t_mapping(t_uint256,t_string_storage)": {
						"encoding": "mapping",
						"key": "t_uint256",
						"label": "mapping(uint256 => string)",
						"numberOfBytes": "32",
						"value": "t_string_storage"
					},
					"t_string_storage": {
						"encoding": "bytes",
						"label": "string",
						"numberOfBytes": "32"
					},
					"t_uint256": {
						"encoding": "inplace",
						"label": "uint256",
						"numberOfBytes": "32"
					}
				}
			},
			"userdoc": {
				"kind": "user",
				"methods": {},
				"version": 1
			}
		}
	}
}