{
	"src/BattleVictoryNFT.sol": {
		"BattleVictoryNFT": {
			"abi": [
				{
					"inputs": [],
					"stateMutability": "nonpayable",
					"type": "constructor"
				},
				{
					"anonymous": false,
					"inputs": [
						{
							"indexed": true,
							"internalType": "address",
							"name": "owner",
							"type": "address"
						},
						{
							"indexed": true,
							"internalType": "address",
							"name": "approved",
							"type": "address"
						},
						{
							"indexed": true,
							"internalType": "uint256",
							"name": "tokenId",
							"type": "uint256"
						}
					],
					"name": "Approval",
					"type": "event"
				},
				{
					"anonymous": false,
					"inputs": [
						{
							"indexed": true,
							"internalType": "address",
							"name": "owner",
							"type": "address"
						},
						{
							"indexed": true,
							"internalType": "address",
							"name": "operator",
							"type": "address"
						},
						{
							"indexed": false,
							"internalType": "bool",
							"name": "approved",
							"type": "bool"
						}
					],
					"name": "ApprovalForAll",
					"type": "event"
				},
				{
					"anonymous": false,
					"inputs": [
						{
							"indexed": true,
							"internalType": "uint256",
							"name": "tokenId",
							"type": "uint256"
						},
						{
							"indexed": false,
							"internalType": "string",
							"name": "newUri",
							"type": "string"
						}
					],
					"name": "MetadataUpdate",
					"type": "event"
				},
				{
					"anonymous": false,
					"inputs": [
						{
							"indexed": true,
							"internalType": "address",
							"name": "from",
							"type": "address"
						},
						{
							"indexed": true,
							"internalType": "address",
							"name": "to",
							"type": "address"
						},
						{
							"indexed": true,
							"internalType": "uint256",
							"name": "tokenId",
							"type": "uint256"
						}
					],
					"name": "Transfer",
					"type": "event"
				},
				{
					"inputs": [
						{
							"internalType": "address",
							"name": "to",
							"type": "address"
						},
						{
							"internalType": "uint256",
							"name": "tokenId",
							"type": "uint256"
						}
					],
					"name": "approve",
					"outputs": [],
					"stateMutability": "nonpayable",
					"type": "function"
				},
				{
					"inputs": [
						{
							"internalType": "address",
							"name": "account",
							"type": "address"
						}
					],
					"name": "balanceOf",
					"outputs": [
						{
							"internalType": "uint256",
							"name": "",
							"type": "uint256"
						}
					],
					"stateMutability": "view",
					"type": "function"
				},
				{
					"inputs": [
						{
							"internalType": "uint256",
							"name": "tokenId",
							"type": "uint256"
						}
					],
					"name": "getApproved",
					"outputs": [
						{
							"internalType": "address",
							"name": "",
							"type": "address"
						}
					],
					"stateMutability": "view",
					"type": "function"
				},
				{
					"inputs": [],
					"name": "getLastTokenId",
					"outputs": [
						{
							"internalType": "uint256",
							"name": "",
							"type": "uint256"
						}
					],
					"stateMutability": "view",
					"type": "function"
				},
				{
					"inputs": [
						{
							"internalType": "uint256",
							"name": "tokenId",
							"type": "uint256"
						}
					],
					"name": "getTokenURI",
					"outputs": [
						{
							"internalType": "string",
							"name": "",
							"type": "string"
						}
					],
					"stateMutability": "view",
					"type": "function"
				},
				{
					"inputs": [
						{
							"internalType": "address",
							"name": "tokenOwner",
							"type": "address"
						},
						{
							"internalType": "address",
							"name": "operator",
							"type": "address"
						}
					],
					"name": "isApprovedForAll",
					"outputs": [
						{
							"internalType": "bool",
							"name": "",
							"type": "bool"
						}
					],
					"stateMutability": "view",
					"type": "function"
				},
				{
					"inputs": [
						{
							"internalType": "address[]",
							"name": "recipients",
							"type": "address[]"
						},
						{
							"internalType": "string[]",
							"name": "metadataUris",
							"type": "string[]"
						}
					],
					"name": "mintBatch",
					"outputs": [
						{
							"internalType": "uint256[]",
							"name": "",
							"type": "uint256[]"
						}
					],
					"stateMutability": "nonpayable",
					"type": "function"
				},
				{
					"inputs": [
						{
							"internalType": "address",
							"name": "recipient",
							"type": "address"
						},
						{
							"internalType": "string",
							"name": "metadataUri",
							"type": "string"
						}
					],
					"name": "mintBattleNFT",
					"outputs": [
						{
							"internalType": "uint256",
							"name": "",
							"type": "uint256"
						}
					],
					"stateMutability": "nonpayable",
					"type": "function"
				},
				{
					"inputs": [],
					"name": "name",
					"outputs": [
						{
							"internalType": "string",
							"name": "",
							"type": "string"
						}
					],
					"stateMutability": "view",
					"type": "function"
				},
				{
					"inputs": [],
					"name": "owner",
					"outputs": [
						{
							"internalType": "address",
							"name": "",
							"type": "address"
						}
					],
					"stateMutability": "view",
					"type": "function"
				},
				{
					"inputs": [
						{
							"internalType": "uint256",
							"name": "tokenId",
							"type": "uint256"
						}
					],
					"name": "ownerOf",
					"outputs": [
						{
							"internalType": "address",
							"name": "",
							"type": "address"
						}
					],
					"stateMutability": "view",
					"type": "function"
				},
				{
					"inputs": [
						{
							"internalType": "address",
							"name": "from",
							"type": "address"
						},
						{
							"internalType": "address",
							"name": "to",
							"type": "address"
						},
						{
							"internalType": "uint256",
							"name": "tokenId",
							"type": "uint256"
						}
					],
					"name": "safeTransferFrom",
					"outputs": [],
					"stateMutability": "nonpayable",
					"type": "function"
				},
				{
					"inputs": [
						{
							"internalType": "address",
							"name": "operator",
							"type": "address"
						},
						{
							"internalType": "bool",
							"name": "approved",
							"type": "bool"
						}
					],
					"name": "setApprovalForAll",
					"outputs": [],
					"stateMutability": "nonpayable",
					"type": "function"
				},
				{
					"inputs": [],
					"name": "symbol",
					"outputs": [
						{
							"internalType": "string",
							"name": "",
							"type": "string"
						}
					],
					"stateMutability": "view",
					"type": "function"
				},
				{
					"inputs": [],
					"name": "totalSupply",
					"outputs": [
						{
							"internalType": "uint256",
							"name": "",
							"type": "uint256"
						}
					],
					"stateMutability": "view",
					"type": "function"
				},
				{
					"inputs": [
						{
							"internalType": "uint256",
							"name": "tokenId",
							"type": "uint256"
						},
						{
							"internalType": "address",
							"name": "sender",
							"type": "address"
						},
						{
							"internalType": "address",
							"name": "recipient",
							"type": "address"
						}
					],
					"name": "transfer",
					"outputs": [
						{
							"internalType": "bool",
							"name": "",
							"type": "bool"
						}
					],
					"stateMutability": "nonpayable",
					"type": "function"
				},
				{
					"inputs": [
						{
							"internalType": "address",
							"name": "from",
							"type": "address"
						},
						{
							"internalType": "address",
							"name": "to",
							"type": "address"
						},
						{
							"internalType": "uint256",
							"name": "tokenId",
							"type": "uint256"
						}
					],
					"name": "transferFrom",
					"outputs": [],
					"stateMutability": "nonpayable",
					"type": "function"
				},
				{
					"inputs": [
						{
							"internalType": "uint256",
							"name": "tokenId",
							"type": "uint256"
						},
						{
							"internalType": "string",
							"name": "newUri",
							"type": "string"
						}
					],
					"name": "updateTokenURI",
					"outputs": [],
					"stateMutability": "nonpayable",
					"type": "function"
				}
			],
			"devdoc": {
				"details": "ERC721-compliant NFT contract for battle victories",
				"kind": "dev",
				"methods": {
					"approve(address,uint256)": {
						"details": "Approve a token for transfer",
						"params": {
							"to": "Address to approve",
							"tokenId": "Token ID to approve"
						}
					},
					"balanceOf(address)": {
						"details": "Get balance of an address",
						"params": {
							"account": "The address to check"
						},
						"returns": {
							"_0": "uint256 Number of tokens owned"
						}
					},
					"getApproved(uint256)": {
						"details": "Get approved address for token",
						"params": {
							"tokenId": "Token ID"
						},
						"returns": {
							"_0": "address The approved address"
						}
					},
					"getLastTokenId()": {
						"details": "Get the last token ID that was minted",
						"returns": {
							"_0": "uint256 Last token ID"
						}
					},
					"getTokenURI(uint256)": {
						"details": "Get token URI metadata",
						"params": {
							"tokenId": "The token ID"
						},
						"returns": {
							"_0": "string The metadata URI"
						}
					},
					"isApprovedForAll(address,address)": {
						"details": "Check if operator is approved for all tokens",
						"params": {
							"operator": "Operator's address",
							"tokenOwner": "Owner's address"
						},
						"returns": {
							"_0": "bool True if approved for all"
						}
					},
					"mintBatch(address[],string[])": {
						"details": "Batch mint multiple NFTs",
						"params": {
							"metadataUris": "Array of metadata URIs",
							"recipients": "Array of recipient addresses"
						},
						"returns": {
							"_0": "uint256[] Array of minted token IDs"
						}
					},
					"mintBattleNFT(address,string)": {
						"details": "Mint a new battle victory NFT",
						"params": {
							"metadataUri": "The metadata URI for the NFT",
							"recipient": "The address to receive the NFT"
						},
						"returns": {
							"_0": "uint256 The minted token ID"
						}
					},
					"ownerOf(uint256)": {
						"details": "Get owner of a token",
						"params": {
							"tokenId": "The token ID"
						},
						"returns": {
							"_0": "address The owner's address"
						}
					},
					"safeTransferFrom(address,address,uint256)": {
						"details": "Safe transfer from (checks recipient is valid contract or EOA)",
						"params": {
							"from": "Source address",
							"to": "Destination address",
							"tokenId": "Token ID to transfer"
						}
					},
					"setApprovalForAll(address,bool)": {
						"details": "Set operator approval for all tokens",
						"params": {
							"approved": "Whether to approve or revoke",
							"operator": "Address of operator"
						}
					},
					"totalSupply()": {
						"details": "Get total supply of NFTs minted",
						"returns": {
							"_0": "uint256 Total tokens minted"
						}
					},
					"transfer(uint256,address,address)": {
						"details": "Transfer a token between addresses",
						"params": {
							"recipient": "The recipient's address",
							"sender": "The sender's address (must be msg.sender)",
							"tokenId": "The token ID"
						},
						"returns": {
							"_0": "bool True on success"
						}
					},
					"transferFrom(address,address,uint256)": {
						"details": "Transfer from one address to another (ERC721 standard)",
						"params": {
							"from": "Source address",
							"to": "Destination address",
							"tokenId": "Token ID to transfer"
						}
					},
					"updateTokenURI(uint256,string)": {
						"details": "Update metadata URI for a token",
						"params": {
							"newUri": "New metadata URI",
							"tokenId": "Token ID"
						}
					}
				},
				"title": "BattleVictoryNFT",
				"version": 1
			},
			"evm": {
				"assembly": "    /* \"src/BattleVictoryNFT.sol\":209:9720  contract BattleVictoryNFT {... */\n  mstore(0x40, 0x80)\n    /* \"src/BattleVictoryNFT.sol\":461:502  string public name = \"Battle Victory NFT\" */\n  mload(0x40)\n  dup1\n  0x40\n  add\n  0x40\n  mstore\n  dup1\n  0x12\n  dup2\n  mstore\n  0x20\n  add\n  0x426174746c6520566963746f7279204e46540000000000000000000000000000\n  dup2\n  mstore\n  pop\n  0x01\n  swap1\n  dup2\n  tag_1\n  swap2\n  swap1\n  tag_2\n  jump\t// in\ntag_1:\n  pop\n    /* \"src/BattleVictoryNFT.sol\":509:539  string public symbol = \"BVNFT\" */\n  mload(0x40)\n  dup1\n  0x40\n  add\n  0x40\n  mstore\n  dup1\n  0x05\n  dup2\n  mstore\n  0x20\n  add\n  0x42564e4654000000000000000000000000000000000000000000000000000000\n  dup2\n  mstore\n  pop\n  0x02\n  swap1\n  dup2\n  tag_3\n  swap2\n  swap1\n  tag_2\n  jump\t// in\ntag_3:\n  pop\n    /* \"src/BattleVictoryNFT.sol\":578:579  1 */\n  0x01\n    /* \"src/BattleVictoryNFT.sol\":548:579  uint256 private nextTokenId = 1 */\n  0x03\n  sstore\n    /* \"src/BattleVictoryNFT.sol\":2197:2248  constructor() {... */\n  callvalue\n  dup1\n  iszero\n  tag_4\n  jumpi\n  0x00\n  dup1\n  revert\ntag_4:\n  pop\n    /* \"src/BattleVictoryNFT.sol\":2230:2240  msg.sender */\n  caller\n    /* \"src/BattleVictoryNFT.sol\":2222:2227  owner */\n  0x00\n  dup1\n    /* \"src/BattleVictoryNFT.sol\":2222:2240  owner = msg.sender */\n  0x0100\n  exp\n  dup2\n  sload\n  dup2\n  0xffffffffffffffffffffffffffffffffffffffff\n  mul\n  not\n  and\n  swap1\n  dup4\n  0xffffffffffffffffffffffffffffffffffffffff\n  and\n  mul\n  or\n  swap1\n  sstore\n  pop\n    /* \"src/BattleVictoryNFT.sol\":209:9720  contract BattleVictoryNFT {... */\n  jump(tag_7)\n    /* \"#utility.yul\":7:106   */\ntag_8:\n    /* \"#utility.yul\":59:65   */\n  0x00\n    /* \"#utility.yul\":93:98   */\n  dup2\n    /* \"#utility.yul\":87:99   */\n  mload\n    /* \"#utility.yul\":77:99   */\n  swap1\n  pop\n    /* \"#utility.yul\":7:106   */\n  swap2\n  swap1\n  pop\n  jump\t// out\n    /* \"#utility.yul\":112:292   */\ntag_9:\n    /* \"#utility.yul\":160:237   */\n  0x4e487b7100000000000000000000000000000000000000000000000000000000\n    /* \"#utility.yul\":157:158   */\n  0x00\n    /* \"#utility.yul\":150:238   */\n  mstore\n    /* \"#utility.yul\":257:261   */\n  0x41\n    /* \"#utility.yul\":254:255   */\n  0x04\n    /* \"#utility.yul\":247:262   */\n  mstore\n    /* \"#utility.yul\":281:285   */\n  0x24\n    /* \"#utility.yul\":278:279   */\n  0x00\n    /* \"#utility.yul\":271:286   */\n  revert\n    /* \"#utility.yul\":298:478   */\ntag_10:\n    /* \"#utility.yul\":346:423   */\n  0x4e487b7100000000000000000000000000000000000000000000000000000000\n    /* \"#utility.yul\":343:344   */\n  0x00\n    /* \"#utility.yul\":336:424   */\n  mstore\n    /* \"#utility.yul\":443:447   */\n  0x22\n    /* \"#utility.yul\":440:441   */\n  0x04\n    /* \"#utility.yul\":433:448   */\n  mstore\n    /* \"#utility.yul\":467:471   */\n  0x24\n    /* \"#utility.yul\":464:465   */\n  0x00\n    /* \"#utility.yul\":457:472   */\n  revert\n    /* \"#utility.yul\":484:804   */\ntag_11:\n    /* \"#utility.yul\":528:534   */\n  0x00\n    /* \"#utility.yul\":565:566   */\n  0x02\n    /* \"#utility.yul\":559:563   */\n  dup3\n    /* \"#utility.yul\":555:567   */\n  div\n    /* \"#utility.yul\":545:567   */\n  swap1\n  pop\n    /* \"#utility.yul\":612:613   */\n  0x01\n    /* \"#utility.yul\":606:610   */\n  dup3\n    /* \"#utility.yul\":602:614   */\n  and\n    /* \"#utility.yul\":633:651   */\n  dup1\n    /* \"#utility.yul\":623:704   */\n  tag_33\n  jumpi\n    /* \"#utility.yul\":689:693   */\n  0x7f\n    /* \"#utility.yul\":681:687   */\n  dup3\n    /* \"#utility.yul\":677:694   */\n  and\n    /* \"#utility.yul\":667:694   */\n  swap2\n  pop\n    /* \"#utility.yul\":623:704   */\ntag_33:\n    /* \"#utility.yul\":751:753   */\n  0x20\n    /* \"#utility.yul\":743:749   */\n  dup3\n    /* \"#utility.yul\":740:754   */\n  lt\n    /* \"#utility.yul\":720:738   */\n  dup2\n    /* \"#utility.yul\":717:755   */\n  sub\n    /* \"#utility.yul\":714:798   */\n  tag_34\n  jumpi\n    /* \"#utility.yul\":770:788   */\n  tag_35\n  tag_10\n  jump\t// in\ntag_35:\n    /* \"#utility.yul\":714:798   */\ntag_34:\n    /* \"#utility.yul\":535:804   */\n  pop\n    /* \"#utility.yul\":484:804   */\n  swap2\n  swap1\n  pop\n  jump\t// out\n    /* \"#utility.yul\":810:951   */\ntag_12:\n    /* \"#utility.yul\":859:863   */\n  0x00\n    /* \"#utility.yul\":882:885   */\n  dup2\n    /* \"#utility.yul\":874:885   */\n  swap1\n  pop\n    /* \"#utility.yul\":905:908   */\n  dup2\n    /* \"#utility.yul\":902:903   */\n  0x00\n    /* \"#utility.yul\":895:909   */\n  mstore\n    /* \"#utility.yul\":939:943   */\n  0x20\n    /* \"#utility.yul\":936:937   */\n  0x00\n    /* \"#utility.yul\":926:944   */\n  keccak256\n    /* \"#utility.yul\":918:944   */\n  swap1\n  pop\n    /* \"#utility.yul\":810:951   */\n  swap2\n  swap1\n  pop\n  jump\t// out\n    /* \"#utility.yul\":957:1050   */\ntag_13:\n    /* \"#utility.yul\":994:1000   */\n  0x00\n    /* \"#utility.yul\":1041:1043   */\n  0x20\n    /* \"#utility.yul\":1036:1038   */\n  0x1f\n    /* \"#utility.yul\":1029:1034   */\n  dup4\n    /* \"#utility.yul\":1025:1039   */\n  add\n    /* \"#utility.yul\":1021:1044   */\n  div\n    /* \"#utility.yul\":1011:1044   */\n  swap1\n  pop\n    /* \"#utility.yul\":957:1050   */\n  swap2\n  swap1\n  pop\n  jump\t// out\n    /* \"#utility.yul\":1056:1163   */\ntag_14:\n    /* \"#utility.yul\":1100:1108   */\n  0x00\n    /* \"#utility.yul\":1150:1155   */\n  dup3\n    /* \"#utility.yul\":1144:1148   */\n  dup3\n    /* \"#utility.yul\":1140:1156   */\n  shl\n    /* \"#utility.yul\":1119:1156   */\n  swap1\n  pop\n    /* \"#utility.yul\":1056:1163   */\n  swap3\n  swap2\n  pop\n  pop\n  jump\t// out\n    /* \"#utility.yul\":1169:1562   */\ntag_15:\n    /* \"#utility.yul\":1238:1244   */\n  0x00\n    /* \"#utility.yul\":1288:1289   */\n  0x08\n    /* \"#utility.yul\":1276:1286   */\n  dup4\n    /* \"#utility.yul\":1272:1290   */\n  mul\n    /* \"#utility.yul\":1311:1408   */\n  tag_40\n    /* \"#utility.yul\":1341:1407   */\n  0xffffffffffffffffffffffffffffffffffffffffffffffffffffffffffffffff\n    /* \"#utility.yul\":1330:1339   */\n  dup3\n    /* \"#utility.yul\":1311:1408   */\n  tag_14\n  jump\t// in\ntag_40:\n    /* \"#utility.yul\":1429:1468   */\n  tag_41\n    /* \"#utility.yul\":1459:1467   */\n  dup7\n    /* \"#utility.yul\":1448:1457   */\n  dup4\n    /* \"#utility.yul\":1429:1468   */\n  tag_14\n  jump\t// in\ntag_41:\n    /* \"#utility.yul\":1417:1468   */\n  swap6\n  pop\n    /* \"#utility.yul\":1501:1505   */\n  dup1\n    /* \"#utility.yul\":1497:1506   */\n  not\n    /* \"#utility.yul\":1490:1495   */\n  dup5\n    /* \"#utility.yul\":1486:1507   */\n  and\n    /* \"#utility.yul\":1477:1507   */\n  swap4\n  pop\n    /* \"#utility.yul\":1550:1554   */\n  dup1\n    /* \"#utility.yul\":1540:1548   */\n  dup7\n    /* \"#utility.yul\":1536:1555   */\n  and\n    /* \"#utility.yul\":1529:1534   */\n  dup5\n    /* \"#utility.yul\":1526:1556   */\n  or\n    /* \"#utility.yul\":1516:1556   */\n  swap3\n  pop\n    /* \"#utility.yul\":1245:1562   */\n  pop\n  pop\n    /* \"#utility.yul\":1169:1562   */\n  swap4\n  swap3\n  pop\n  pop\n  pop\n  jump\t// out\n    /* \"#utility.yul\":1568:1645   */\ntag_16:\n    /* \"#utility.yul\":1605:1612   */\n  0x00\n    /* \"#utility.yul\":1634:1639   */\n  dup2\n    /* \"#utility.yul\":1623:1639   */\n  swap1\n  pop\n    /* \"#utility.yul\":1568:1645   */\n  swap2\n  swap1\n  pop\n  jump\t// out\n    /* \"#utility.yul\":1651:1711   */\ntag_17:\n    /* \"#utility.yul\":1679:1682   */\n  0x00\n    /* \"#utility.yul\":1700:1705   */\n  dup2\n    /* \"#utility.yul\":1693:1705   */\n  swap1\n  pop\n    /* \"#utility.yul\":1651:1711   */\n  swap2\n  swap1\n  pop\n  jump\t// out\n    /* \"#utility.yul\":1717:1859   */\ntag_18:\n    /* \"#utility.yul\":1767:1776   */\n  0x00\n    /* \"#utility.yul\":1800:1853   */\n  tag_45\n    /* \"#utility.yul\":1818:1852   */\n  tag_46\n    /* \"#utility.yul\":1827:1851   */\n  tag_47\n    /* \"#utility.yul\":1845:1850   */\n  dup5\n    /* \"#utility.yul\":1827:1851   */\n  tag_16\n  jump\t// in\ntag_47:\n    /* \"#utility.yul\":1818:1852   */\n  tag_17\n  jump\t// in\ntag_46:\n    /* \"#utility.yul\":1800:1853   */\n  tag_16\n  jump\t// in\ntag_45:\n    /* \"#utility.yul\":1787:1853   */\n  swap1\n  pop\n    /* \"#utility.yul\":1717:1859   */\n  swap2\n  swap1\n  pop\n  jump\t// out\n    /* \"#utility.yul\":1865:1940   */\ntag_19:\n    /* \"#utility.yul\":1908:1911   */\n  0x00\n    /* \"#utility.yul\":1929:1934   */\n  dup2\n    /* \"#utility.yul\":1922:1934   */\n  swap1\n  pop\n    /* \"#utility.yul\":1865:1940   */\n  swap2\n  swap1\n  pop\n  jump\t// out\n    /* \"#utility.yul\":1946:2215   */\ntag_20:\n    /* \"#utility.yul\":2056:2095   */\n  tag_50\n    /* \"#utility.yul\":2087:2094   */\n  dup4\n    /* \"#utility.yul\":2056:2095   */\n  tag_18\n  jump\t// in\ntag_50:\n    /* \"#utility.yul\":2117:2208   */\n  tag_51\n    /* \"#utility.yul\":2166:2207   */\n  tag_52\n    /* \"#utility.yul\":2190:2206   */\n  dup3\n    /* \"#utility.yul\":2166:2207   */\n  tag_19\n  jump\t// in\ntag_52:\n    /* \"#utility.yul\":2158:2164   */\n  dup5\n    /* \"#utility.yul\":2151:2155   */\n  dup5\n    /* \"#utility.yul\":2145:2156   */\n  sload\n    /* \"#utility.yul\":2117:2208   */\n  tag_15\n  jump\t// in\ntag_51:\n    /* \"#utility.yul\":2111:2115   */\n  dup3\n    /* \"#utility.yul\":2104:2209   */\n  sstore\n    /* \"#utility.yul\":2022:2215   */\n  pop\n    /* \"#utility.yul\":1946:2215   */\n  pop\n  pop\n  pop\n  jump\t// out\n    /* \"#utility.yul\":2221:2294   */\ntag_21:\n    /* \"#utility.yul\":2266:2269   */\n  0x00\n    /* \"#utility.yul\":2221:2294   */\n  swap1\n  jump\t// out\n    /* \"#utility.yul\":2300:2489   */\ntag_22:\n    /* \"#utility.yul\":2377:2409   */\n  tag_55\n  tag_21\n  jump\t// in\ntag_55:\n    /* \"#utility.yul\":2418:2483   */\n  tag_56\n    /* \"#utility.yul\":2476:2482   */\n  dup2\n    /* \"#utility.yul\":2468:2474   */\n  dup5\n    /* \"#utility.yul\":2462:2466   */\n  dup5\n    /* \"#utility.yul\":2418:2483   */\n  tag_20\n  jump\t// in\ntag_56:\n    /* \"#utility.yul\":2353:2489   */\n  pop\n    /* \"#utility.yul\":2300:2489   */\n  pop\n  pop\n  jump\t// out\n    /* \"#utility.yul\":2495:2681   */\ntag_23:\n    /* \"#utility.yul\":2555:2675   */\ntag_58:\n    /* \"#utility.yul\":2572:2575   */\n  dup2\n    /* \"#utility.yul\":2565:2570   */\n  dup2\n    /* \"#utility.yul\":2562:2576   */\n  lt\n    /* \"#utility.yul\":2555:2675   */\n  iszero\n  tag_60\n  jumpi\n    /* \"#utility.yul\":2626:2665   */\n  tag_61\n    /* \"#utility.yul\":2663:2664   */\n  0x00\n    /* \"#utility.yul\":2656:2661   */\n  dup3\n    /* \"#utility.yul\":2626:2665   */\n  tag_22\n  jump\t// in\ntag_61:\n    /* \"#utility.yul\":2599:2600   */\n  0x01\n    /* \"#utility.yul\":2592:2597   */\n  dup2\n    /* \"#utility.yul\":2588:2601   */\n  add\n    /* \"#utility.yul\":2579:2601   */\n  swap1\n  pop\n    /* \"#utility.yul\":2555:2675   */\n  jump(tag_58)\ntag_60:\n    /* \"#utility.yul\":2495:2681   */\n  pop\n  pop\n  jump\t// out\n    /* \"#utility.yul\":2687:3230   */\ntag_24:\n    /* \"#utility.yul\":2788:2790   */\n  0x1f\n    /* \"#utility.yul\":2783:2786   */\n  dup3\n    /* \"#utility.yul\":2780:2791   */\n  gt\n    /* \"#utility.yul\":2777:3223   */\n  iszero\n  tag_63\n  jumpi\n    /* \"#utility.yul\":2822:2860   */\n  tag_64\n    /* \"#utility.yul\":2854:2859   */\n  dup2\n    /* \"#utility.yul\":2822:2860   */\n  tag_12\n  jump\t// in\ntag_64:\n    /* \"#utility.yul\":2906:2935   */\n  tag_65\n    /* \"#utility.yul\":2924:2934   */\n  dup5\n    /* \"#utility.yul\":2906:2935   */\n  tag_13\n  jump\t// in\ntag_65:\n    /* \"#utility.yul\":2896:2904   */\n  dup2\n    /* \"#utility.yul\":2892:2936   */\n  add\n    /* \"#utility.yul\":3089:3091   */\n  0x20\n    /* \"#utility.yul\":3077:3087   */\n  dup6\n    /* \"#utility.yul\":3074:3092   */\n  lt\n    /* \"#utility.yul\":3071:3120   */\n  iszero\n  tag_66\n  jumpi\n    /* \"#utility.yul\":3110:3118   */\n  dup2\n    /* \"#utility.yul\":3095:3118   */\n  swap1\n  pop\n    /* \"#utility.yul\":3071:3120   */\ntag_66:\n    /* \"#utility.yul\":3133:3213   */\n  tag_67\n    /* \"#utility.yul\":3189:3211   */\n  tag_68\n    /* \"#utility.yul\":3207:3210   */\n  dup6\n    /* \"#utility.yul\":3189:3211   */\n  tag_13\n  jump\t// in\ntag_68:\n    /* \"#utility.yul\":3179:3187   */\n  dup4\n    /* \"#utility.yul\":3175:3212   */\n  add\n    /* \"#utility.yul\":3162:3173   */\n  dup3\n    /* \"#utility.yul\":3133:3213   */\n  tag_23\n  jump\t// in\ntag_67:\n    /* \"#utility.yul\":2792:3223   */\n  pop\n  pop\n    /* \"#utility.yul\":2777:3223   */\ntag_63:\n    /* \"#utility.yul\":2687:3230   */\n  pop\n  pop\n  pop\n  jump\t// out\n    /* \"#utility.yul\":3236:3353   */\ntag_25:\n    /* \"#utility.yul\":3290:3298   */\n  0x00\n    /* \"#utility.yul\":3340:3345   */\n  dup3\n    /* \"#utility.yul\":3334:3338   */\n  dup3\n    /* \"#utility.yul\":3330:3346   */\n  shr\n    /* \"#utility.yul\":3309:3346   */\n  swap1\n  pop\n    /* \"#utility.yul\":3236:3353   */\n  swap3\n  swap2\n  pop\n  pop\n  jump\t// out\n    /* \"#utility.yul\":3359:3528   */\ntag_26:\n    /* \"#utility.yul\":3403:3409   */\n  0x00\n    /* \"#utility.yul\":3436:3487   */\n  tag_71\n    /* \"#utility.yul\":3484:3485   */\n  0x00\n    /* \"#utility.yul\":3480:3486   */\n  not\n    /* \"#utility.yul\":3472:3477   */\n  dup5\n    /* \"#utility.yul\":3469:3470   */\n  0x08\n    /* \"#utility.yul\":3465:3478   */\n  mul\n    /* \"#utility.yul\":3436:3487   */\n  tag_25\n  jump\t// in\ntag_71:\n    /* \"#utility.yul\":3432:3488   */\n  not\n    /* \"#utility.yul\":3517:3521   */\n  dup1\n    /* \"#utility.yul\":3511:3515   */\n  dup4\n    /* \"#utility.yul\":3507:3522   */\n  and\n    /* \"#utility.yul\":3497:3522   */\n  swap2\n  pop\n    /* \"#utility.yul\":3410:3528   */\n  pop\n    /* \"#utility.yul\":3359:3528   */\n  swap3\n  swap2\n  pop\n  pop\n  jump\t// out\n    /* \"#utility.yul\":3533:3828   */\ntag_27:\n    /* \"#utility.yul\":3609:3613   */\n  0x00\n    /* \"#utility.yul\":3755:3784   */\n  tag_73\n    /* \"#utility.yul\":3780:3783   */\n  dup4\n    /* \"#utility.yul\":3774:3778   */\n  dup4\n    /* \"#utility.yul\":3755:3784   */\n  tag_26\n  jump\t// in\ntag_73:\n    /* \"#utility.yul\":3747:3784   */\n  swap2\n  pop\n    /* \"#utility.yul\":3817:3820   */\n  dup3\n    /* \"#utility.yul\":3814:3815   */\n  0x02\n    /* \"#utility.yul\":3810:3821   */\n  mul\n    /* \"#utility.yul\":3804:3808   */\n  dup3\n    /* \"#utility.yul\":3801:3822   */\n  or\n    /* \"#utility.yul\":3793:3822   */\n  swap1\n  pop\n    /* \"#utility.yul\":3533:3828   */\n  swap3\n  swap2\n  pop\n  pop\n  jump\t// out\n    /* \"#utility.yul\":3833:5228   */\ntag_2:\n    /* \"#utility.yul\":3950:3987   */\n  tag_75\n    /* \"#utility.yul\":3983:3986   */\n  dup3\n    /* \"#utility.yul\":3950:3987   */\n  tag_8\n  jump\t// in\ntag_75:\n    /* \"#utility.yul\":4052:4070   */\n  0xffffffffffffffff\n    /* \"#utility.yul\":4044:4050   */\n  dup2\n    /* \"#utility.yul\":4041:4071   */\n  gt\n    /* \"#utility.yul\":4038:4094   */\n  iszero\n  tag_76\n  jumpi\n    /* \"#utility.yul\":4074:4092   */\n  tag_77\n  tag_9\n  jump\t// in\ntag_77:\n    /* \"#utility.yul\":4038:4094   */\ntag_76:\n    /* \"#utility.yul\":4118:4156   */\n  tag_78\n    /* \"#utility.yul\":4150:4154   */\n  dup3\n    /* \"#utility.yul\":4144:4155   */\n  sload\n    /* \"#utility.yul\":4118:4156   */\n  tag_11\n  jump\t// in\ntag_78:\n    /* \"#utility.yul\":4203:4270   */\n  tag_79\n    /* \"#utility.yul\":4263:4269   */\n  dup3\n    /* \"#utility.yul\":4255:4261   */\n  dup3\n    /* \"#utility.yul\":4249:4253   */\n  dup6\n    /* \"#utility.yul\":4203:4270   */\n  tag_24\n  jump\t// in\ntag_79:\n    /* \"#utility.yul\":4297:4298   */\n  0x00\n    /* \"#utility.yul\":4321:4325   */\n  0x20\n    /* \"#utility.yul\":4308:4325   */\n  swap1\n  pop\n    /* \"#utility.yul\":4353:4355   */\n  0x1f\n    /* \"#utility.yul\":4345:4351   */\n  dup4\n    /* \"#utility.yul\":4342:4356   */\n  gt\n    /* \"#utility.yul\":4370:4371   */\n  0x01\n    /* \"#utility.yul\":4365:4983   */\n  dup2\n  eq\n  tag_81\n  jumpi\n    /* \"#utility.yul\":5027:5028   */\n  0x00\n    /* \"#utility.yul\":5044:5050   */\n  dup5\n    /* \"#utility.yul\":5041:5118   */\n  iszero\n  tag_82\n  jumpi\n    /* \"#utility.yul\":5093:5102   */\n  dup3\n    /* \"#utility.yul\":5088:5091   */\n  dup8\n    /* \"#utility.yul\":5084:5103   */\n  add\n    /* \"#utility.yul\":5078:5104   */\n  mload\n    /* \"#utility.yul\":5069:5104   */\n  swap1\n  pop\n    /* \"#utility.yul\":5041:5118   */\ntag_82:\n    /* \"#utility.yul\":5144:5211   */\n  tag_83\n    /* \"#utility.yul\":5204:5210   */\n  dup6\n    /* \"#utility.yul\":5197:5202   */\n  dup3\n    /* \"#utility.yul\":5144:5211   */\n  tag_27\n  jump\t// in\ntag_83:\n    /* \"#utility.yul\":5138:5142   */\n  dup7\n    /* \"#utility.yul\":5131:5212   */\n  sstore\n    /* \"#utility.yul\":5000:5222   */\n  pop\n    /* \"#utility.yul\":4335:5222   */\n  jump(tag_80)\n    /* \"#utility.yul\":4365:4983   */\ntag_81:\n    /* \"#utility.yul\":4417:4421   */\n  0x1f\n    /* \"#utility.yul\":4413:4422   */\n  not\n    /* \"#utility.yul\":4405:4411   */\n  dup5\n    /* \"#utility.yul\":4401:4423   */\n  and\n    /* \"#utility.yul\":4451:4488   */\n  tag_84\n    /* \"#utility.yul\":4483:4487   */\n  dup7\n    /* \"#utility.yul\":4451:4488   */\n  tag_12\n  jump\t// in\ntag_84:\n    /* \"#utility.yul\":4510:4511   */\n  0x00\n    /* \"#utility.yul\":4524:4732   */\ntag_85:\n    /* \"#utility.yul\":4538:4545   */\n  dup3\n    /* \"#utility.yul\":4535:4536   */\n  dup2\n    /* \"#utility.yul\":4532:4546   */\n  lt\n    /* \"#utility.yul\":4524:4732   */\n  iszero\n  tag_87\n  jumpi\n    /* \"#utility.yul\":4617:4626   */\n  dup5\n    /* \"#utility.yul\":4612:4615   */\n  dup10\n    /* \"#utility.yul\":4608:4627   */\n  add\n    /* \"#utility.yul\":4602:4628   */\n  mload\n    /* \"#utility.yul\":4594:4600   */\n  dup3\n    /* \"#utility.yul\":4587:4629   */\n  sstore\n    /* \"#utility.yul\":4668:4669   */\n  0x01\n    /* \"#utility.yul\":4660:4666   */\n  dup3\n    /* \"#utility.yul\":4656:4670   */\n  add\n    /* \"#utility.yul\":4646:4670   */\n  swap2\n  pop\n    /* \"#utility.yul\":4715:4717   */\n  0x20\n    /* \"#utility.yul\":4704:4713   */\n  dup6\n    /* \"#utility.yul\":4700:4718   */\n  add\n    /* \"#utility.yul\":4687:4718   */\n  swap5\n  pop\n    /* \"#utility.yul\":4561:4565   */\n  0x20\n    /* \"#utility.yul\":4558:4559   */\n  dup2\n    /* \"#utility.yul\":4554:4566   */\n  add\n    /* \"#utility.yul\":4549:4566   */\n  swap1\n  pop\n    /* \"#utility.yul\":4524:4732   */\n  jump(tag_85)\ntag_87:\n    /* \"#utility.yul\":4760:4766   */\n  dup7\n    /* \"#utility.yul\":4751:4758   */\n  dup4\n    /* \"#utility.yul\":4748:4767   */\n  lt\n    /* \"#utility.yul\":4745:4924   */\n  iszero\n  tag_88\n  jumpi\n    /* \"#utility.yul\":4818:4827   */\n  dup5\n    /* \"#utility.yul\":4813:4816   */\n  dup10\n    /* \"#utility.yul\":4809:4828   */\n  add\n    /* \"#utility.yul\":4803:4829   */\n  mload\n    /* \"#utility.yul\":4861:4909   */\n  tag_89\n    /* \"#utility.yul\":4903:4907   */\n  0x1f\n    /* \"#utility.yul\":4895:4901   */\n  dup10\n    /* \"#utility.yul\":4891:4908   */\n  and\n    /* \"#utility.yul\":4880:4889   */\n  dup3\n    /* \"#utility.yul\":4861:4909   */\n  tag_26\n  jump\t// in\ntag_89:\n    /* \"#utility.yul\":4853:4859   */\n  dup4\n    /* \"#utility.yul\":4846:4910   */\n  sstore\n    /* \"#utility.yul\":4768:4924   */\n  pop\n    /* \"#utility.yul\":4745:4924   */\ntag_88:\n    /* \"#utility.yul\":4970:4971   */\n  0x01\n    /* \"#utility.yul\":4966:4967   */\n  0x02\n    /* \"#utility.yul\":4958:4964   */\n  dup9\n    /* \"#utility.yul\":4954:4968   */\n  mul\n    /* \"#utility.yul\":4950:4972   */\n  add\n    /* \"#utility.yul\":4944:4948   */\n  dup9\n    /* \"#utility.yul\":4937:4973   */\n  sstore\n    /* \"#utility.yul\":4372:4983   */\n  pop\n  pop\n  pop\n    /* \"#utility.yul\":4335:5222   */\ntag_80:\n  pop\n    /* \"#utility.yul\":3925:5228   */\n  pop\n  pop\n  pop\n    /* \"#utility.yul\":3833:5228   */\n  pop\n  pop\n  jump\t// out\n    /* \"src/BattleVictoryNFT.sol\":209:9720  contract BattleVictoryNFT {... */\ntag_7:\n  dataSize(sub_0)\n  dup1\n  dataOffset(sub_0)\n  0x00\n  codecopy\n  0x00\n  return\nstop\n\nsub_0: assembly {\n        /* \"src/BattleVictoryNFT.sol\":209:9720  contract BattleVictoryNFT {... */\n      mstore(0x40, 0x80)\n      callvalue\n      dup1\n      iszero\n      tag_1\n      jumpi\n      0x00\n      dup1\n      revert\n    tag_1:\n      pop\n      jumpi(tag_2, lt(calldatasize, 0x04))\n      shr(0xe0, calldataload(0x00))\n      dup1\n      0x70a08231\n      gt\n      tag_21\n      jumpi\n      dup1\n      0x95d89b41\n      gt\n      tag_22\n      jumpi\n      dup1\n      0x95d89b41\n      eq\n      tag_16\n      jumpi\n      dup1\n      0xa02cdee7\n      eq\n      tag_17\n      jumpi\n      dup1\n      0xa22cb465\n      eq\n      tag_18\n      jumpi\n      dup1\n      0xccb570e3\n      eq\n      tag_19\n      jumpi\n      dup1\n      0xe985e9c5\n      eq\n      tag_20\n      jumpi\n      jump(tag_2)\n    tag_22:\n      dup1\n      0x70a08231\n      eq\n      tag_12\n      jumpi\n      dup1\n      0x83c4c00d\n      eq\n      tag_13\n      jumpi\n      dup1\n      0x8da5cb5b\n      eq\n      tag_14\n      jumpi\n      dup1\n      0x924cff6d\n      eq\n      tag_15\n      jumpi\n      jump(tag_2)\n    tag_21:\n      dup1\n      0x18e97fd1\n      gt\n      tag_23\n      jumpi\n      dup1\n      0x18e97fd1\n      eq\n      tag_7\n      jumpi\n      dup1\n      0x23b872dd\n      eq\n      tag_8\n      jumpi\n      dup1\n      0x3bb3a24d\n      eq\n      tag_9\n      jumpi\n      dup1\n      0x42842e0e\n      eq\n      tag_10\n      jumpi\n      dup1\n      0x6352211e\n      eq\n      tag_11\n      jumpi\n      jump(tag_2)\n    tag_23:\n      dup1\n      0x06fdde03\n      eq\n      tag_3\n      jumpi\n      dup1\n      0x081812fc\n      eq\n      tag_4\n      jumpi\n      dup1\n      0x095ea7b3\n      eq\n      tag_5\n      jumpi\n      dup1\n      0x18160ddd\n      eq\n      tag_6\n      jumpi\n    tag_2:\n      0x00\n      dup1\n      revert\n        /* \"src/BattleVictoryNFT.sol\":461:502  string public name = \"Battle Victory NFT\" */\n    tag_3:\n      tag_24\n      tag_25\n      jump\t// in\n    tag_24:\n      mload(0x40)\n      tag_26\n      swap2\n      swap1\n      tag_27\n      jump\t// in\n    tag_26:\n      mload(0x40)\n      dup1\n      swap2\n      sub\n      swap1\n      return\n        /* \"src/BattleVictoryNFT.sol\":7509:7647  function getApproved(uint256 tokenId) public view tokenExists(tokenId) returns (address) {... */\n    tag_4:\n      tag_28\n      0x04\n      dup1\n      calldatasize\n      sub\n      dup2\n      add\n      swap1\n      tag_29\n      swap2\n      swap1\n      tag_30\n      jump\t// in\n    tag_29:\n      tag_31\n      jump\t// in\n    tag_28:\n      mload(0x40)\n      tag_32\n      swap2\n      swap1\n      tag_33\n      jump\t// in\n    tag_32:\n      mload(0x40)\n      dup1\n      swap2\n      sub\n      swap1\n      return\n        /* \"src/BattleVictoryNFT.sol\":6483:6922  function approve(address to, uint256 tokenId) public tokenExists(tokenId) {... */\n    tag_5:\n      tag_34\n      0x04\n      dup1\n      calldatasize\n      sub\n      dup2\n      add\n      swap1\n      tag_35\n      swap2\n      swap1\n      tag_36\n      jump\t// in\n    tag_35:\n      tag_37\n      jump\t// in\n    tag_34:\n      stop\n        /* \"src/BattleVictoryNFT.sol\":2557:2651  function totalSupply() public view returns (uint256) {... */\n    tag_6:\n      tag_38\n      tag_39\n      jump\t// in\n    tag_38:\n      mload(0x40)\n      tag_40\n      swap2\n      swap1\n      tag_41\n      jump\t// in\n    tag_40:\n      mload(0x40)\n      dup1\n      swap2\n      sub\n      swap1\n      return\n        /* \"src/BattleVictoryNFT.sol\":9420:9717  function updateTokenURI(uint256 tokenId, string memory newUri) ... */\n    tag_7:\n      tag_42\n      0x04\n      dup1\n      calldatasize\n      sub\n      dup2\n      add\n      swap1\n      tag_43\n      swap2\n      swap1\n      tag_44\n      jump\t// in\n    tag_43:\n      tag_45\n      jump\t// in\n    tag_42:\n      stop\n        /* \"src/BattleVictoryNFT.sol\":8265:8933  function transferFrom(address from, address to, uint256 tokenId) ... */\n    tag_8:\n      tag_46\n      0x04\n      dup1\n      calldatasize\n      sub\n      dup2\n      add\n      swap1\n      tag_47\n      swap2\n      swap1\n      tag_48\n      jump\t// in\n    tag_47:\n      tag_49\n      jump\t// in\n    tag_46:\n      stop\n        /* \"src/BattleVictoryNFT.sol\":3001:3140  function getTokenURI(uint256 tokenId) public view tokenExists(tokenId) returns (string memory) {... */\n    tag_9:\n      tag_50\n      0x04\n      dup1\n      calldatasize\n      sub\n      dup2\n      add\n      swap1\n      tag_51\n      swap2\n      swap1\n      tag_30\n      jump\t// in\n    tag_51:\n      tag_52\n      jump\t// in\n    tag_50:\n      mload(0x40)\n      tag_53\n      swap2\n      swap1\n      tag_27\n      jump\t// in\n    tag_53:\n      mload(0x40)\n      dup1\n      swap2\n      sub\n      swap1\n      return\n        /* \"src/BattleVictoryNFT.sol\":9152:9278  function safeTransferFrom(address from, address to, uint256 tokenId) public {... */\n    tag_10:\n      tag_54\n      0x04\n      dup1\n      calldatasize\n      sub\n      dup2\n      add\n      swap1\n      tag_55\n      swap2\n      swap1\n      tag_48\n      jump\t// in\n    tag_55:\n      tag_56\n      jump\t// in\n    tag_54:\n      stop\n        /* \"src/BattleVictoryNFT.sol\":3280:3411  function ownerOf(uint256 tokenId) public view tokenExists(tokenId) returns (address) {... */\n    tag_11:\n      tag_57\n      0x04\n      dup1\n      calldatasize\n      sub\n      dup2\n      add\n      swap1\n      tag_58\n      swap2\n      swap1\n      tag_30\n      jump\t// in\n    tag_58:\n      tag_59\n      jump\t// in\n    tag_57:\n      mload(0x40)\n      tag_60\n      swap2\n      swap1\n      tag_33\n      jump\t// in\n    tag_60:\n      mload(0x40)\n      dup1\n      swap2\n      sub\n      swap1\n      return\n        /* \"src/BattleVictoryNFT.sol\":3567:3736  function balanceOf(address account) public view returns (uint256) {... */\n    tag_12:\n      tag_61\n      0x04\n      dup1\n      calldatasize\n      sub\n      dup2\n      add\n      swap1\n      tag_62\n      swap2\n      swap1\n      tag_63\n      jump\t// in\n    tag_62:\n      tag_64\n      jump\t// in\n    tag_61:\n      mload(0x40)\n      tag_65\n      swap2\n      swap1\n      tag_41\n      jump\t// in\n    tag_65:\n      mload(0x40)\n      dup1\n      swap2\n      sub\n      swap1\n      return\n        /* \"src/BattleVictoryNFT.sol\":2766:2863  function getLastTokenId() public view returns (uint256) {... */\n    tag_13:\n      tag_66\n      tag_67\n      jump\t// in\n    tag_66:\n      mload(0x40)\n      tag_68\n      swap2\n      swap1\n      tag_41\n      jump\t// in\n    tag_68:\n      mload(0x40)\n      dup1\n      swap2\n      sub\n      swap1\n      return\n        /* \"src/BattleVictoryNFT.sol\":428:448  address public owner */\n    tag_14:\n      tag_69\n      tag_70\n      jump\t// in\n    tag_69:\n      mload(0x40)\n      tag_71\n      swap2\n      swap1\n      tag_33\n      jump\t// in\n    tag_71:\n      mload(0x40)\n      dup1\n      swap2\n      sub\n      swap1\n      return\n        /* \"src/BattleVictoryNFT.sol\":5700:6335  function mintBatch(... */\n    tag_15:\n      tag_72\n      0x04\n      dup1\n      calldatasize\n      sub\n      dup2\n      add\n      swap1\n      tag_73\n      swap2\n      swap1\n      tag_74\n      jump\t// in\n    tag_73:\n      tag_75\n      jump\t// in\n    tag_72:\n      mload(0x40)\n      tag_76\n      swap2\n      swap1\n      tag_77\n      jump\t// in\n    tag_76:\n      mload(0x40)\n      dup1\n      swap2\n      sub\n      swap1\n      return\n        /* \"src/BattleVictoryNFT.sol\":509:539  string public symbol = \"BVNFT\" */\n    tag_16:\n      tag_78\n      tag_79\n      jump\t// in\n    tag_78:\n      mload(0x40)\n      tag_80\n      swap2\n      swap1\n      tag_27\n      jump\t// in\n    tag_80:\n      mload(0x40)\n      dup1\n      swap2\n      sub\n      swap1\n      return\n        /* \"src/BattleVictoryNFT.sol\":4909:5478  function mintBattleNFT(... */\n    tag_17:\n      tag_81\n      0x04\n      dup1\n      calldatasize\n      sub\n      dup2\n      add\n      swap1\n      tag_82\n      swap2\n      swap1\n      tag_83\n      jump\t// in\n    tag_82:\n      tag_84\n      jump\t// in\n    tag_81:\n      mload(0x40)\n      tag_85\n      swap2\n      swap1\n      tag_41\n      jump\t// in\n    tag_85:\n      mload(0x40)\n      dup1\n      swap2\n      sub\n      swap1\n      return\n        /* \"src/BattleVictoryNFT.sol\":7095:7362  function setApprovalForAll(address operator, bool approved) public {... */\n    tag_18:\n      tag_86\n      0x04\n      dup1\n      calldatasize\n      sub\n      dup2\n      add\n      swap1\n      tag_87\n      swap2\n      swap1\n      tag_88\n      jump\t// in\n    tag_87:\n      tag_89\n      jump\t// in\n    tag_86:\n      stop\n        /* \"src/BattleVictoryNFT.sol\":3996:4684  function transfer(... */\n    tag_19:\n      tag_90\n      0x04\n      dup1\n      calldatasize\n      sub\n      dup2\n      add\n      swap1\n      tag_91\n      swap2\n      swap1\n      tag_92\n      jump\t// in\n    tag_91:\n      tag_93\n      jump\t// in\n    tag_90:\n      mload(0x40)\n      tag_94\n      swap2\n      swap1\n      tag_95\n      jump\t// in\n    tag_94:\n      mload(0x40)\n      dup1\n      swap2\n      sub\n      swap1\n      return\n        /* \"src/BattleVictoryNFT.sol\":7862:8054  function isApprovedForAll(address tokenOwner, address operator) ... */\n    tag_20:\n      tag_96\n      0x04\n      dup1\n      calldatasize\n      sub\n      dup2\n      add\n      swap1\n      tag_97\n      swap2\n      swap1\n      tag_98\n      jump\t// in\n    tag_97:\n      tag_99\n      jump\t// in\n    tag_96:\n      mload(0x40)\n      tag_100\n      swap2\n      swap1\n      tag_95\n      jump\t// in\n    tag_100:\n      mload(0x40)\n      dup1\n      swap2\n      sub\n      swap1\n      return\n        /* \"src/BattleVictoryNFT.sol\":461:502  string public name = \"Battle Victory NFT\" */\n    tag_25:\n      0x01\n      dup1\n      sload\n      tag_101\n      swap1\n      tag_102\n      jump\t// in\n    tag_101:\n      dup1\n      0x1f\n      add\n      0x20\n      dup1\n      swap2\n      div\n      mul\n      0x20\n      add\n      mload(0x40)\n      swap1\n      dup2\n      add\n      0x40\n      mstore\n      dup1\n      swap3\n      swap2\n      swap1\n      dup2\n      dup2\n      mstore\n      0x20\n      add\n      dup3\n      dup1\n      sload\n      tag_103\n      swap1\n      tag_102\n      jump\t// in\n    tag_103:\n      dup1\n      iszero\n      tag_104\n      jumpi\n      dup1\n      0x1f\n      lt\n      tag_105\n      jumpi\n      0x0100\n      dup1\n      dup4\n      sload\n      div\n      mul\n      dup4\n      mstore\n      swap2\n      0x20\n      add\n      swap2\n      jump(tag_104)\n    tag_105:\n      dup3\n      add\n      swap2\n      swap1\n      0x00\n      mstore\n      keccak256(0x00, 0x20)\n      swap1\n    tag_106:\n      dup2\n      sload\n      dup2\n      mstore\n      swap1\n      0x01\n      add\n      swap1\n      0x20\n      add\n      dup1\n      dup4\n      gt\n      tag_106\n      jumpi\n      dup3\n      swap1\n      sub\n      0x1f\n      and\n      dup3\n      add\n      swap2\n    tag_104:\n      pop\n      pop\n      pop\n      pop\n      pop\n      dup2\n      jump\t// out\n        /* \"src/BattleVictoryNFT.sol\":7509:7647  function getApproved(uint256 tokenId) public view tokenExists(tokenId) returns (address) {... */\n    tag_31:\n        /* \"src/BattleVictoryNFT.sol\":7589:7596  address */\n      0x00\n        /* \"src/BattleVictoryNFT.sol\":7571:7578  tokenId */\n      dup2\n        /* \"src/BattleVictoryNFT.sol\":1960:1961  0 */\n      0x00\n        /* \"src/BattleVictoryNFT.sol\":1928:1962  tokenOwners[tokenId] != address(0) */\n      0xffffffffffffffffffffffffffffffffffffffff\n      and\n        /* \"src/BattleVictoryNFT.sol\":1928:1939  tokenOwners */\n      0x04\n        /* \"src/BattleVictoryNFT.sol\":1928:1948  tokenOwners[tokenId] */\n      0x00\n        /* \"src/BattleVictoryNFT.sol\":1940:1947  tokenId */\n      dup4\n        /* \"src/BattleVictoryNFT.sol\":1928:1948  tokenOwners[tokenId] */\n      dup2\n      mstore\n      0x20\n      add\n      swap1\n      dup2\n      mstore\n      0x20\n      add\n      0x00\n      keccak256\n      0x00\n      swap1\n      sload\n      swap1\n      0x0100\n      exp\n      swap1\n      div\n      0xffffffffffffffffffffffffffffffffffffffff\n      and\n        /* \"src/BattleVictoryNFT.sol\":1928:1962  tokenOwners[tokenId] != address(0) */\n      0xffffffffffffffffffffffffffffffffffffffff\n      and\n      sub\n        /* \"src/BattleVictoryNFT.sol\":1920:1987  require(tokenOwners[tokenId] != address(0), \"Token does not exist\") */\n      tag_108\n      jumpi\n      mload(0x40)\n      0x08c379a000000000000000000000000000000000000000000000000000000000\n      dup2\n      mstore\n      0x04\n      add\n      tag_109\n      swap1\n      tag_110\n      jump\t// in\n    tag_109:\n      mload(0x40)\n      dup1\n      swap2\n      sub\n      swap1\n      revert\n    tag_108:\n        /* \"src/BattleVictoryNFT.sol\":7616:7630  tokenApprovals */\n      0x07\n        /* \"src/BattleVictoryNFT.sol\":7616:7639  tokenApprovals[tokenId] */\n      0x00\n        /* \"src/BattleVictoryNFT.sol\":7631:7638  tokenId */\n      dup5\n        /* \"src/BattleVictoryNFT.sol\":7616:7639  tokenApprovals[tokenId] */\n      dup2\n      mstore\n      0x20\n      add\n      swap1\n      dup2\n      mstore\n      0x20\n      add\n      0x00\n      keccak256\n      0x00\n      swap1\n      sload\n      swap1\n      0x0100\n      exp\n      swap1\n      div\n      0xffffffffffffffffffffffffffffffffffffffff\n      and\n        /* \"src/BattleVictoryNFT.sol\":7609:7639  return tokenApprovals[tokenId] */\n      swap2\n      pop\n        /* \"src/BattleVictoryNFT.sol\":7509:7647  function getApproved(uint256 tokenId) public view tokenExists(tokenId) returns (address) {... */\n      pop\n      swap2\n      swap1\n      pop\n      jump\t// out\n        /* \"src/BattleVictoryNFT.sol\":6483:6922  function approve(address to, uint256 tokenId) public tokenExists(tokenId) {... */\n    tag_37:\n        /* \"src/BattleVictoryNFT.sol\":6548:6555  tokenId */\n      dup1\n        /* \"src/BattleVictoryNFT.sol\":1960:1961  0 */\n      0x00\n        /* \"src/BattleVictoryNFT.sol\":1928:1962  tokenOwners[tokenId] != address(0) */\n      0xffffffffffffffffffffffffffffffffffffffff\n      and\n        /* \"src/BattleVictoryNFT.sol\":1928:1939  tokenOwners */\n      0x04\n        /* \"src/BattleVictoryNFT.sol\":1928:1948  tokenOwners[tokenId] */\n      0x00\n        /* \"src/BattleVictoryNFT.sol\":1940:1947  tokenId */\n      dup4\n        /* \"src/BattleVictoryNFT.sol\":1928:1948  tokenOwners[tokenId] */\n      dup2\n      mstore\n      0x20\n      add\n      swap1\n      dup2\n      mstore\n      0x20\n      add\n      0x00\n      keccak256\n      0x00\n      swap1\n      sload\n      swap1\n      0x0100\n      exp\n      swap1\n      div\n      0xffffffffffffffffffffffffffffffffffffffff\n      and\n        /* \"src/BattleVictoryNFT.sol\":1928:1962  tokenOwners[tokenId] != address(0) */\n      0xffffffffffffffffffffffffffffffffffffffff\n      and\n      sub\n        /* \"src/BattleVictoryNFT.sol\":1920:1987  require(tokenOwners[tokenId] != address(0), \"Token does not exist\") */\n      tag_113\n      jumpi\n      mload(0x40)\n      0x08c379a000000000000000000000000000000000000000000000000000000000\n      dup2\n      mstore\n      0x04\n      add\n      tag_114\n      swap1\n      tag_110\n      jump\t// in\n    tag_114:\n      mload(0x40)\n      dup1\n      swap2\n      sub\n      swap1\n      revert\n    tag_113:\n        /* \"src/BattleVictoryNFT.sol\":6568:6586  address tokenOwner */\n      0x00\n        /* \"src/BattleVictoryNFT.sol\":6589:6600  tokenOwners */\n      0x04\n        /* \"src/BattleVictoryNFT.sol\":6589:6609  tokenOwners[tokenId] */\n      0x00\n        /* \"src/BattleVictoryNFT.sol\":6601:6608  tokenId */\n      dup5\n        /* \"src/BattleVictoryNFT.sol\":6589:6609  tokenOwners[tokenId] */\n      dup2\n      mstore\n      0x20\n      add\n      swap1\n      dup2\n      mstore\n      0x20\n      add\n      0x00\n      keccak256\n      0x00\n      swap1\n      sload\n      swap1\n      0x0100\n      exp\n      swap1\n      div\n      0xffffffffffffffffffffffffffffffffffffffff\n      and\n        /* \"src/BattleVictoryNFT.sol\":6568:6609  address tokenOwner = tokenOwners[tokenId] */\n      swap1\n      pop\n        /* \"src/BattleVictoryNFT.sol\":6656:6666  tokenOwner */\n      dup1\n        /* \"src/BattleVictoryNFT.sol\":6642:6666  msg.sender == tokenOwner */\n      0xffffffffffffffffffffffffffffffffffffffff\n      and\n        /* \"src/BattleVictoryNFT.sol\":6642:6652  msg.sender */\n      caller\n        /* \"src/BattleVictoryNFT.sol\":6642:6666  msg.sender == tokenOwner */\n      0xffffffffffffffffffffffffffffffffffffffff\n      and\n      eq\n        /* \"src/BattleVictoryNFT.sol\":6642:6711  msg.sender == tokenOwner || operatorApprovals[tokenOwner][msg.sender] */\n      dup1\n      tag_116\n      jumpi\n      pop\n        /* \"src/BattleVictoryNFT.sol\":6670:6687  operatorApprovals */\n      0x08\n        /* \"src/BattleVictoryNFT.sol\":6670:6699  operatorApprovals[tokenOwner] */\n      0x00\n        /* \"src/BattleVictoryNFT.sol\":6688:6698  tokenOwner */\n      dup3\n        /* \"src/BattleVictoryNFT.sol\":6670:6699  operatorApprovals[tokenOwner] */\n      0xffffffffffffffffffffffffffffffffffffffff\n      and\n      0xffffffffffffffffffffffffffffffffffffffff\n      and\n      dup2\n      mstore\n      0x20\n      add\n      swap1\n      dup2\n      mstore\n      0x20\n      add\n      0x00\n      keccak256\n        /* \"src/BattleVictoryNFT.sol\":6670:6711  operatorApprovals[tokenOwner][msg.sender] */\n      0x00\n        /* \"src/BattleVictoryNFT.sol\":6700:6710  msg.sender */\n      caller\n        /* \"src/BattleVictoryNFT.sol\":6670:6711  operatorApprovals[tokenOwner][msg.sender] */\n      0xffffffffffffffffffffffffffffffffffffffff\n      and\n      0xffffffffffffffffffffffffffffffffffffffff\n      and\n      dup2\n      mstore\n      0x20\n      add\n      swap1\n      dup2\n      mstore\n      0x20\n      add\n      0x00\n      keccak256\n      0x00\n      swap1\n      sload\n      swap1\n      0x0100\n      exp\n      swap1\n      div\n      0xff\n      and\n        /* \"src/BattleVictoryNFT.sol\":6642:6711  msg.sender == tokenOwner || operatorApprovals[tokenOwner][msg.sender] */\n    tag_116:\n        /* \"src/BattleVictoryNFT.sol\":6620:6764  require(... */\n      tag_117\n      jumpi\n      mload(0x40)\n      0x08c379a000000000000000000000000000000000000000000000000000000000\n      dup2\n      mstore\n      0x04\n      add\n      tag_118\n      swap1\n      tag_119\n      jump\t// in\n    tag_118:\n      mload(0x40)\n      dup1\n      swap2\n      sub\n      swap1\n      revert\n    tag_117:\n        /* \"src/BattleVictoryNFT.sol\":6789:6799  tokenOwner */\n      dup1\n        /* \"src/BattleVictoryNFT.sol\":6783:6799  to != tokenOwner */\n      0xffffffffffffffffffffffffffffffffffffffff\n      and\n        /* \"src/BattleVictoryNFT.sol\":6783:6785  to */\n      dup5\n        /* \"src/BattleVictoryNFT.sol\":6783:6799  to != tokenOwner */\n      0xffffffffffffffffffffffffffffffffffffffff\n      and\n      sub\n        /* \"src/BattleVictoryNFT.sol\":6775:6824  require(to != tokenOwner, \"Cannot approve owner\") */\n      tag_120\n      jumpi\n      mload(0x40)\n      0x08c379a000000000000000000000000000000000000000000000000000000000\n      dup2\n      mstore\n      0x04\n      add\n      tag_121\n      swap1\n      tag_122\n      jump\t// in\n    tag_121:\n      mload(0x40)\n      dup1\n      swap2\n      sub\n      swap1\n      revert\n    tag_120:\n        /* \"src/BattleVictoryNFT.sol\":6863:6865  to */\n      dup4\n        /* \"src/BattleVictoryNFT.sol\":6837:6851  tokenApprovals */\n      0x07\n        /* \"src/BattleVictoryNFT.sol\":6837:6860  tokenApprovals[tokenId] */\n      0x00\n        /* \"src/BattleVictoryNFT.sol\":6852:6859  tokenId */\n      dup6\n        /* \"src/BattleVictoryNFT.sol\":6837:6860  tokenApprovals[tokenId] */\n      dup2\n      mstore\n      0x20\n      add\n      swap1\n      dup2\n      mstore\n      0x20\n      add\n      0x00\n      keccak256\n      0x00\n        /* \"src/BattleVictoryNFT.sol\":6837:6865  tokenApprovals[tokenId] = to */\n      0x0100\n      exp\n      dup2\n      sload\n      dup2\n      0xffffffffffffffffffffffffffffffffffffffff\n      mul\n      not\n      and\n      swap1\n      dup4\n      0xffffffffffffffffffffffffffffffffffffffff\n      and\n      mul\n      or\n      swap1\n      sstore\n      pop\n        /* \"src/BattleVictoryNFT.sol\":6906:6913  tokenId */\n      dup3\n        /* \"src/BattleVictoryNFT.sol\":6902:6904  to */\n      dup5\n        /* \"src/BattleVictoryNFT.sol\":6881:6914  Approval(tokenOwner, to, tokenId) */\n      0xffffffffffffffffffffffffffffffffffffffff\n      and\n        /* \"src/BattleVictoryNFT.sol\":6890:6900  tokenOwner */\n      dup3\n        /* \"src/BattleVictoryNFT.sol\":6881:6914  Approval(tokenOwner, to, tokenId) */\n      0xffffffffffffffffffffffffffffffffffffffff\n      and\n      0x8c5be1e5ebec7d5bd14f71427d1e84f3dd0314c0f7b2291e5b200ac8c7c3b925\n      mload(0x40)\n      mload(0x40)\n      dup1\n      swap2\n      sub\n      swap1\n      log4\n        /* \"src/BattleVictoryNFT.sol\":6557:6922  {... */\n      pop\n        /* \"src/BattleVictoryNFT.sol\":6483:6922  function approve(address to, uint256 tokenId) public tokenExists(tokenId) {... */\n      pop\n      pop\n      pop\n      jump\t// out\n        /* \"src/BattleVictoryNFT.sol\":2557:2651  function totalSupply() public view returns (uint256) {... */\n    tag_39:\n        /* \"src/BattleVictoryNFT.sol\":2601:2608  uint256 */\n      0x00\n        /* \"src/BattleVictoryNFT.sol\":2642:2643  1 */\n      0x01\n        /* \"src/BattleVictoryNFT.sol\":2628:2639  nextTokenId */\n      sload(0x03)\n        /* \"src/BattleVictoryNFT.sol\":2628:2643  nextTokenId - 1 */\n      tag_124\n      swap2\n      swap1\n      tag_125\n      jump\t// in\n    tag_124:\n        /* \"src/BattleVictoryNFT.sol\":2621:2643  return nextTokenId - 1 */\n      swap1\n      pop\n        /* \"src/BattleVictoryNFT.sol\":2557:2651  function totalSupply() public view returns (uint256) {... */\n      swap1\n      jump\t// out\n        /* \"src/BattleVictoryNFT.sol\":9420:9717  function updateTokenURI(uint256 tokenId, string memory newUri) ... */\n    tag_45:\n        /* \"src/BattleVictoryNFT.sol\":1809:1814  owner */\n      0x00\n      dup1\n      sload\n      swap1\n      0x0100\n      exp\n      swap1\n      div\n      0xffffffffffffffffffffffffffffffffffffffff\n      and\n        /* \"src/BattleVictoryNFT.sol\":1795:1814  msg.sender == owner */\n      0xffffffffffffffffffffffffffffffffffffffff\n      and\n        /* \"src/BattleVictoryNFT.sol\":1795:1805  msg.sender */\n      caller\n        /* \"src/BattleVictoryNFT.sol\":1795:1814  msg.sender == owner */\n      0xffffffffffffffffffffffffffffffffffffffff\n      and\n      eq\n        /* \"src/BattleVictoryNFT.sol\":1787:1843  require(msg.sender == owner, \"Only owner can call this\") */\n      tag_127\n      jumpi\n      mload(0x40)\n      0x08c379a000000000000000000000000000000000000000000000000000000000\n      dup2\n      mstore\n      0x04\n      add\n      tag_128\n      swap1\n      tag_129\n      jump\t// in\n    tag_128:\n      mload(0x40)\n      dup1\n      swap2\n      sub\n      swap1\n      revert\n    tag_127:\n        /* \"src/BattleVictoryNFT.sol\":9542:9549  tokenId */\n      dup2\n        /* \"src/BattleVictoryNFT.sol\":1960:1961  0 */\n      0x00\n        /* \"src/BattleVictoryNFT.sol\":1928:1962  tokenOwners[tokenId] != address(0) */\n      0xffffffffffffffffffffffffffffffffffffffff\n      and\n        /* \"src/BattleVictoryNFT.sol\":1928:1939  tokenOwners */\n      0x04\n        /* \"src/BattleVictoryNFT.sol\":1928:1948  tokenOwners[tokenId] */\n      0x00\n        /* \"src/BattleVictoryNFT.sol\":1940:1947  tokenId */\n      dup4\n        /* \"src/BattleVictoryNFT.sol\":1928:1948  tokenOwners[tokenId] */\n      dup2\n      mstore\n      0x20\n      add\n      swap1\n      dup2\n      mstore\n      0x20\n      add\n      0x00\n      keccak256\n      0x00\n      swap1\n      sload\n      swap1\n      0x0100\n      exp\n      swap1\n      div\n      0xffffffffffffffffffffffffffffffffffffffff\n      and\n        /* \"src/BattleVictoryNFT.sol\":1928:1962  tokenOwners[tokenId] != address(0) */\n      0xffffffffffffffffffffffffffffffffffffffff\n      and\n      sub\n        /* \"src/BattleVictoryNFT.sol\":1920:1987  require(tokenOwners[tokenId] != address(0), \"Token does not exist\") */\n      tag_131\n      jumpi\n      mload(0x40)\n      0x08c379a000000000000000000000000000000000000000000000000000000000\n      dup2\n      mstore\n      0x04\n      add\n      tag_132\n      swap1\n      tag_110\n      jump\t// in\n    tag_132:\n      mload(0x40)\n      dup1\n      swap2\n      sub\n      swap1\n      revert\n    tag_131:\n        /* \"src/BattleVictoryNFT.sol\":9599:9600  0 */\n      0x00\n        /* \"src/BattleVictoryNFT.sol\":9582:9588  newUri */\n      dup3\n        /* \"src/BattleVictoryNFT.sol\":9576:9596  bytes(newUri).length */\n      mload\n        /* \"src/BattleVictoryNFT.sol\":9576:9600  bytes(newUri).length > 0 */\n      gt\n        /* \"src/BattleVictoryNFT.sol\":9568:9624  require(bytes(newUri).length > 0, \"URI cannot be empty\") */\n      tag_134\n      jumpi\n      mload(0x40)\n      0x08c379a000000000000000000000000000000000000000000000000000000000\n      dup2\n      mstore\n      0x04\n      add\n      tag_135\n      swap1\n      tag_136\n      jump\t// in\n    tag_135:\n      mload(0x40)\n      dup1\n      swap2\n      sub\n      swap1\n      revert\n    tag_134:\n        /* \"src/BattleVictoryNFT.sol\":9656:9662  newUri */\n      dup2\n        /* \"src/BattleVictoryNFT.sol\":9635:9644  tokenURIs */\n      0x05\n        /* \"src/BattleVictoryNFT.sol\":9635:9653  tokenURIs[tokenId] */\n      0x00\n        /* \"src/BattleVictoryNFT.sol\":9645:9652  tokenId */\n      dup6\n        /* \"src/BattleVictoryNFT.sol\":9635:9653  tokenURIs[tokenId] */\n      dup2\n      mstore\n      0x20\n      add\n      swap1\n      dup2\n      mstore\n      0x20\n      add\n      0x00\n      keccak256\n        /* \"src/BattleVictoryNFT.sol\":9635:9662  tokenURIs[tokenId] = newUri */\n      swap1\n      dup2\n      tag_137\n      swap2\n      swap1\n      tag_138\n      jump\t// in\n    tag_137:\n      pop\n        /* \"src/BattleVictoryNFT.sol\":9693:9700  tokenId */\n      dup3\n        /* \"src/BattleVictoryNFT.sol\":9678:9709  MetadataUpdate(tokenId, newUri) */\n      0xa7527b31563240d0f5f29d80c2f13916d38a7b2b19b892c43486ed47722f2ffb\n        /* \"src/BattleVictoryNFT.sol\":9702:9708  newUri */\n      dup4\n        /* \"src/BattleVictoryNFT.sol\":9678:9709  MetadataUpdate(tokenId, newUri) */\n      mload(0x40)\n      tag_139\n      swap2\n      swap1\n      tag_27\n      jump\t// in\n    tag_139:\n      mload(0x40)\n      dup1\n      swap2\n      sub\n      swap1\n      log2\n        /* \"src/BattleVictoryNFT.sol\":1854:1855  _ */\n      pop\n        /* \"src/BattleVictoryNFT.sol\":9420:9717  function updateTokenURI(uint256 tokenId, string memory newUri) ... */\n      pop\n      pop\n      jump\t// out\n        /* \"src/BattleVictoryNFT.sol\":8265:8933  function transferFrom(address from, address to, uint256 tokenId) ... */\n    tag_49:\n        /* \"src/BattleVictoryNFT.sol\":8369:8376  tokenId */\n      dup1\n        /* \"src/BattleVictoryNFT.sol\":1960:1961  0 */\n      0x00\n        /* \"src/BattleVictoryNFT.sol\":1928:1962  tokenOwners[tokenId] != address(0) */\n      0xffffffffffffffffffffffffffffffffffffffff\n      and\n        /* \"src/BattleVictoryNFT.sol\":1928:1939  tokenOwners */\n      0x04\n        /* \"src/BattleVictoryNFT.sol\":1928:1948  tokenOwners[tokenId] */\n      0x00\n        /* \"src/BattleVictoryNFT.sol\":1940:1947  tokenId */\n      dup4\n        /* \"src/BattleVictoryNFT.sol\":1928:1948  tokenOwners[tokenId] */\n      dup2\n      mstore\n      0x20\n      add\n      swap1\n      dup2\n      mstore\n      0x20\n      add\n      0x00\n      keccak256\n      0x00\n      swap1\n      sload\n      swap1\n      0x0100\n      exp\n      swap1\n      div\n      0xffffffffffffffffffffffffffffffffffffffff\n      and\n        /* \"src/BattleVictoryNFT.sol\":1928:1962  tokenOwners[tokenId] != address(0) */\n      0xffffffffffffffffffffffffffffffffffffffff\n      and\n      sub\n        /* \"src/BattleVictoryNFT.sol\":1920:1987  require(tokenOwners[tokenId] != address(0), \"Token does not exist\") */\n      tag_141\n      jumpi\n      mload(0x40)\n      0x08c379a000000000000000000000000000000000000000000000000000000000\n      dup2\n      mstore\n      0x04\n      add\n      tag_142\n      swap1\n      tag_110\n      jump\t// in\n    tag_142:\n      mload(0x40)\n      dup1\n      swap2\n      sub\n      swap1\n      revert\n    tag_141:\n        /* \"src/BattleVictoryNFT.sol\":8427:8431  from */\n      dup4\n        /* \"src/BattleVictoryNFT.sol\":8403:8431  tokenOwners[tokenId] == from */\n      0xffffffffffffffffffffffffffffffffffffffff\n      and\n        /* \"src/BattleVictoryNFT.sol\":8403:8414  tokenOwners */\n      0x04\n        /* \"src/BattleVictoryNFT.sol\":8403:8423  tokenOwners[tokenId] */\n      0x00\n        /* \"src/BattleVictoryNFT.sol\":8415:8422  tokenId */\n      dup5\n        /* \"src/BattleVictoryNFT.sol\":8403:8423  tokenOwners[tokenId] */\n      dup2\n      mstore\n      0x20\n      add\n      swap1\n      dup2\n      mstore\n      0x20\n      add\n      0x00\n      keccak256\n      0x00\n      swap1\n      sload\n      swap1\n      0x0100\n      exp\n      swap1\n      div\n      0xffffffffffffffffffffffffffffffffffffffff\n      and\n        /* \"src/BattleVictoryNFT.sol\":8403:8431  tokenOwners[tokenId] == from */\n      0xffffffffffffffffffffffffffffffffffffffff\n      and\n      eq\n        /* \"src/BattleVictoryNFT.sol\":8395:8465  require(tokenOwners[tokenId] == from, \"From address is not the owner\") */\n      tag_144\n      jumpi\n      mload(0x40)\n      0x08c379a000000000000000000000000000000000000000000000000000000000\n      dup2\n      mstore\n      0x04\n      add\n      tag_145\n      swap1\n      tag_146\n      jump\t// in\n    tag_145:\n      mload(0x40)\n      dup1\n      swap2\n      sub\n      swap1\n      revert\n    tag_144:\n        /* \"src/BattleVictoryNFT.sol\":8498:8499  0 */\n      0x00\n        /* \"src/BattleVictoryNFT.sol\":8484:8500  to != address(0) */\n      0xffffffffffffffffffffffffffffffffffffffff\n      and\n        /* \"src/BattleVictoryNFT.sol\":8484:8486  to */\n      dup4\n        /* \"src/BattleVictoryNFT.sol\":8484:8500  to != address(0) */\n      0xffffffffffffffffffffffffffffffffffffffff\n      and\n      sub\n        /* \"src/BattleVictoryNFT.sol\":8476:8530  require(to != address(0), \"Invalid recipient address\") */\n      tag_147\n      jumpi\n      mload(0x40)\n      0x08c379a000000000000000000000000000000000000000000000000000000000\n      dup2\n      mstore\n      0x04\n      add\n      tag_148\n      swap1\n      tag_149\n      jump\t// in\n    tag_148:\n      mload(0x40)\n      dup1\n      swap2\n      sub\n      swap1\n      revert\n    tag_147:\n        /* \"src/BattleVictoryNFT.sol\":8577:8581  from */\n      dup4\n        /* \"src/BattleVictoryNFT.sol\":8563:8581  msg.sender == from */\n      0xffffffffffffffffffffffffffffffffffffffff\n      and\n        /* \"src/BattleVictoryNFT.sol\":8563:8573  msg.sender */\n      caller\n        /* \"src/BattleVictoryNFT.sol\":8563:8581  msg.sender == from */\n      0xffffffffffffffffffffffffffffffffffffffff\n      and\n      eq\n        /* \"src/BattleVictoryNFT.sol\":8563:8636  msg.sender == from || ... */\n      dup1\n      tag_150\n      jumpi\n      pop\n        /* \"src/BattleVictoryNFT.sol\":8613:8627  tokenApprovals */\n      0x07\n        /* \"src/BattleVictoryNFT.sol\":8613:8636  tokenApprovals[tokenId] */\n      0x00\n        /* \"src/BattleVictoryNFT.sol\":8628:8635  tokenId */\n      dup4\n        /* \"src/BattleVictoryNFT.sol\":8613:8636  tokenApprovals[tokenId] */\n      dup2\n      mstore\n      0x20\n      add\n      swap1\n      dup2\n      mstore\n      0x20\n      add\n      0x00\n      keccak256\n      0x00\n      swap1\n      sload\n      swap1\n      0x0100\n      exp\n      swap1\n      div\n      0xffffffffffffffffffffffffffffffffffffffff\n      and\n        /* \"src/BattleVictoryNFT.sol\":8599:8636  msg.sender == tokenApprovals[tokenId] */\n      0xffffffffffffffffffffffffffffffffffffffff\n      and\n        /* \"src/BattleVictoryNFT.sol\":8599:8609  msg.sender */\n      caller\n        /* \"src/BattleVictoryNFT.sol\":8599:8636  msg.sender == tokenApprovals[tokenId] */\n      0xffffffffffffffffffffffffffffffffffffffff\n      and\n      eq\n        /* \"src/BattleVictoryNFT.sol\":8563:8636  msg.sender == from || ... */\n    tag_150:\n        /* \"src/BattleVictoryNFT.sol\":8563:8689  msg.sender == from || ... */\n      dup1\n      tag_151\n      jumpi\n      pop\n        /* \"src/BattleVictoryNFT.sol\":8654:8671  operatorApprovals */\n      0x08\n        /* \"src/BattleVictoryNFT.sol\":8654:8677  operatorApprovals[from] */\n      0x00\n        /* \"src/BattleVictoryNFT.sol\":8672:8676  from */\n      dup6\n        /* \"src/BattleVictoryNFT.sol\":8654:8677  operatorApprovals[from] */\n      0xffffffffffffffffffffffffffffffffffffffff\n      and\n      0xffffffffffffffffffffffffffffffffffffffff\n      and\n      dup2\n      mstore\n      0x20\n      add\n      swap1\n      dup2\n      mstore\n      0x20\n      add\n      0x00\n      keccak256\n        /* \"src/BattleVictoryNFT.sol\":8654:8689  operatorApprovals[from][msg.sender] */\n      0x00\n        /* \"src/BattleVictoryNFT.sol\":8678:8688  msg.sender */\n      caller\n        /* \"src/BattleVictoryNFT.sol\":8654:8689  operatorApprovals[from][msg.sender] */\n      0xffffffffffffffffffffffffffffffffffffffff\n      and\n      0xffffffffffffffffffffffffffffffffffffffff\n      and\n      dup2\n      mstore\n      0x20\n      add\n      swap1\n      dup2\n      mstore\n      0x20\n      add\n      0x00\n      keccak256\n      0x00\n      swap1\n      sload\n      swap1\n      0x0100\n      exp\n      swap1\n      div\n      0xff\n      and\n        /* \"src/BattleVictoryNFT.sol\":8563:8689  msg.sender == from || ... */\n    tag_151:\n        /* \"src/BattleVictoryNFT.sol\":8541:8743  require(... */\n      tag_152\n      jumpi\n      mload(0x40)\n      0x08c379a000000000000000000000000000000000000000000000000000000000\n      dup2\n      mstore\n      0x04\n      add\n      tag_153\n      swap1\n      tag_154\n      jump\t// in\n    tag_153:\n      mload(0x40)\n      dup1\n      swap2\n      sub\n      swap1\n      revert\n    tag_152:\n        /* \"src/BattleVictoryNFT.sol\":8790:8791  0 */\n      0x00\n        /* \"src/BattleVictoryNFT.sol\":8756:8770  tokenApprovals */\n      0x07\n        /* \"src/BattleVictoryNFT.sol\":8756:8779  tokenApprovals[tokenId] */\n      0x00\n        /* \"src/BattleVictoryNFT.sol\":8771:8778  tokenId */\n      dup5\n        /* \"src/BattleVictoryNFT.sol\":8756:8779  tokenApprovals[tokenId] */\n      dup2\n      mstore\n      0x20\n      add\n      swap1\n      dup2\n      mstore\n      0x20\n      add\n      0x00\n      keccak256\n      0x00\n        /* \"src/BattleVictoryNFT.sol\":8756:8792  tokenApprovals[tokenId] = address(0) */\n      0x0100\n      exp\n      dup2\n      sload\n      dup2\n      0xffffffffffffffffffffffffffffffffffffffff\n      mul\n      not\n      and\n      swap1\n      dup4\n      0xffffffffffffffffffffffffffffffffffffffff\n      and\n      mul\n      or\n      swap1\n      sstore\n      pop\n        /* \"src/BattleVictoryNFT.sol\":8803:8811  balances */\n      0x06\n        /* \"src/BattleVictoryNFT.sol\":8803:8817  balances[from] */\n      0x00\n        /* \"src/BattleVictoryNFT.sol\":8812:8816  from */\n      dup6\n        /* \"src/BattleVictoryNFT.sol\":8803:8817  balances[from] */\n      0xffffffffffffffffffffffffffffffffffffffff\n      and\n      0xffffffffffffffffffffffffffffffffffffffff\n      and\n      dup2\n      mstore\n      0x20\n      add\n      swap1\n      dup2\n      mstore\n      0x20\n      add\n      0x00\n      keccak256\n      0x00\n        /* \"src/BattleVictoryNFT.sol\":8803:8819  balances[from]-- */\n      dup2\n      sload\n      dup1\n      swap3\n      swap2\n      swap1\n      tag_155\n      swap1\n      tag_156\n      jump\t// in\n    tag_155:\n      swap2\n      swap1\n      pop\n      sstore\n      pop\n        /* \"src/BattleVictoryNFT.sol\":8830:8838  balances */\n      0x06\n        /* \"src/BattleVictoryNFT.sol\":8830:8842  balances[to] */\n      0x00\n        /* \"src/BattleVictoryNFT.sol\":8839:8841  to */\n      dup5\n        /* \"src/BattleVictoryNFT.sol\":8830:8842  balances[to] */\n      0xffffffffffffffffffffffffffffffffffffffff\n      and\n      0xffffffffffffffffffffffffffffffffffffffff\n      and\n      dup2\n      mstore\n      0x20\n      add\n      swap1\n      dup2\n      mstore\n      0x20\n      add\n      0x00\n      keccak256\n      0x00\n        /* \"src/BattleVictoryNFT.sol\":8830:8844  balances[to]++ */\n      dup2\n      sload\n      dup1\n      swap3\n      swap2\n      swap1\n      tag_157\n      swap1\n      tag_158\n      jump\t// in\n    tag_157:\n      swap2\n      swap1\n      pop\n      sstore\n      pop\n        /* \"src/BattleVictoryNFT.sol\":8878:8880  to */\n      dup3\n        /* \"src/BattleVictoryNFT.sol\":8855:8866  tokenOwners */\n      0x04\n        /* \"src/BattleVictoryNFT.sol\":8855:8875  tokenOwners[tokenId] */\n      0x00\n        /* \"src/BattleVictoryNFT.sol\":8867:8874  tokenId */\n      dup5\n        /* \"src/BattleVictoryNFT.sol\":8855:8875  tokenOwners[tokenId] */\n      dup2\n      mstore\n      0x20\n      add\n      swap1\n      dup2\n      mstore\n      0x20\n      add\n      0x00\n      keccak256\n      0x00\n        /* \"src/BattleVictoryNFT.sol\":8855:8880  tokenOwners[tokenId] = to */\n      0x0100\n      exp\n      dup2\n      sload\n      dup2\n      0xffffffffffffffffffffffffffffffffffffffff\n      mul\n      not\n      and\n      swap1\n      dup4\n      0xffffffffffffffffffffffffffffffffffffffff\n      and\n      mul\n      or\n      swap1\n      sstore\n      pop\n        /* \"src/BattleVictoryNFT.sol\":8917:8924  tokenId */\n      dup2\n        /* \"src/BattleVictoryNFT.sol\":8913:8915  to */\n      dup4\n        /* \"src/BattleVictoryNFT.sol\":8898:8925  Transfer(from, to, tokenId) */\n      0xffffffffffffffffffffffffffffffffffffffff\n      and\n        /* \"src/BattleVictoryNFT.sol\":8907:8911  from */\n      dup6\n        /* \"src/BattleVictoryNFT.sol\":8898:8925  Transfer(from, to, tokenId) */\n      0xffffffffffffffffffffffffffffffffffffffff\n      and\n      0xddf252ad1be2c89b69c2b068fc378daa952ba7f163c4a11628f55a4df523b3ef\n      mload(0x40)\n      mload(0x40)\n      dup1\n      swap2\n      sub\n      swap1\n      log4\n        /* \"src/BattleVictoryNFT.sol\":8265:8933  function transferFrom(address from, address to, uint256 tokenId) ... */\n      pop\n      pop\n      pop\n      pop\n      jump\t// out\n        /* \"src/BattleVictoryNFT.sol\":3001:3140  function getTokenURI(uint256 tokenId) public view tokenExists(tokenId) returns (string memory) {... */\n    tag_52:\n        /* \"src/BattleVictoryNFT.sol\":3081:3094  string memory */\n      0x60\n        /* \"src/BattleVictoryNFT.sol\":3063:3070  tokenId */\n      dup2\n        /* \"src/BattleVictoryNFT.sol\":1960:1961  0 */\n      0x00\n        /* \"src/BattleVictoryNFT.sol\":1928:1962  tokenOwners[tokenId] != address(0) */\n      0xffffffffffffffffffffffffffffffffffffffff\n      and\n        /* \"src/BattleVictoryNFT.sol\":1928:1939  tokenOwners */\n      0x04\n        /* \"src/BattleVictoryNFT.sol\":1928:1948  tokenOwners[tokenId] */\n      0x00\n        /* \"src/BattleVictoryNFT.sol\":1940:1947  tokenId */\n      dup4\n        /* \"src/BattleVictoryNFT.sol\":1928:1948  tokenOwners[tokenId] */\n      dup2\n      mstore\n      0x20\n      add\n      swap1\n      dup2\n      mstore\n      0x20\n      add\n      0x00\n      keccak256\n      0x00\n      swap1\n      sload\n      swap1\n      0x0100\n      exp\n      swap1\n      div\n      0xffffffffffffffffffffffffffffffffffffffff\n      and\n        /* \"src/BattleVictoryNFT.sol\":1928:1962  tokenOwners[tokenId] != address(0) */\n      0xffffffffffffffffffffffffffffffffffffffff\n      and\n      sub\n        /* \"src/BattleVictoryNFT.sol\":1920:1987  require(tokenOwners[tokenId] != address(0), \"Token does not exist\") */\n      tag_160\n      jumpi\n      mload(0x40)\n      0x08c379a000000000000000000000000000000000000000000000000000000000\n      dup2\n      mstore\n      0x04\n      add\n      tag_161\n      swap1\n      tag_110\n      jump\t// in\n    tag_161:\n      mload(0x40)\n      dup1\n      swap2\n      sub\n      swap1\n      revert\n    tag_160:\n        /* \"src/BattleVictoryNFT.sol\":3114:3123  tokenURIs */\n      0x05\n        /* \"src/BattleVictoryNFT.sol\":3114:3132  tokenURIs[tokenId] */\n      0x00\n        /* \"src/BattleVictoryNFT.sol\":3124:3131  tokenId */\n      dup5\n        /* \"src/BattleVictoryNFT.sol\":3114:3132  tokenURIs[tokenId] */\n      dup2\n      mstore\n      0x20\n      add\n      swap1\n      dup2\n      mstore\n      0x20\n      add\n      0x00\n      keccak256\n        /* \"src/BattleVictoryNFT.sol\":3107:3132  return tokenURIs[tokenId] */\n      dup1\n      sload\n      tag_163\n      swap1\n      tag_102\n      jump\t// in\n    tag_163:\n      dup1\n      0x1f\n      add\n      0x20\n      dup1\n      swap2\n      div\n      mul\n      0x20\n      add\n      mload(0x40)\n      swap1\n      dup2\n      add\n      0x40\n      mstore\n      dup1\n      swap3\n      swap2\n      swap1\n      dup2\n      dup2\n      mstore\n      0x20\n      add\n      dup3\n      dup1\n      sload\n      tag_164\n      swap1\n      tag_102\n      jump\t// in\n    tag_164:\n      dup1\n      iszero\n      tag_165\n      jumpi\n      dup1\n      0x1f\n      lt\n      tag_166\n      jumpi\n      0x0100\n      dup1\n      dup4\n      sload\n      div\n      mul\n      dup4\n      mstore\n      swap2\n      0x20\n      add\n      swap2\n      jump(tag_165)\n    tag_166:\n      dup3\n      add\n      swap2\n      swap1\n      0x00\n      mstore\n      keccak256(0x00, 0x20)\n      swap1\n    tag_167:\n      dup2\n      sload\n      dup2\n      mstore\n      swap1\n      0x01\n      add\n      swap1\n      0x20\n      add\n      dup1\n      dup4\n      gt\n      tag_167\n      jumpi\n      dup3\n      swap1\n      sub\n      0x1f\n      and\n      dup3\n      add\n      swap2\n    tag_165:\n      pop\n      pop\n      pop\n      pop\n      pop\n      swap2\n      pop\n        /* \"src/BattleVictoryNFT.sol\":3001:3140  function getTokenURI(uint256 tokenId) public view tokenExists(tokenId) returns (string memory) {... */\n      pop\n      swap2\n      swap1\n      pop\n      jump\t// out\n        /* \"src/BattleVictoryNFT.sol\":9152:9278  function safeTransferFrom(address from, address to, uint256 tokenId) public {... */\n    tag_56:\n        /* \"src/BattleVictoryNFT.sol\":9239:9270  transferFrom(from, to, tokenId) */\n      tag_169\n        /* \"src/BattleVictoryNFT.sol\":9252:9256  from */\n      dup4\n        /* \"src/BattleVictoryNFT.sol\":9258:9260  to */\n      dup4\n        /* \"src/BattleVictoryNFT.sol\":9262:9269  tokenId */\n      dup4\n        /* \"src/BattleVictoryNFT.sol\":9239:9251  transferFrom */\n      tag_49\n        /* \"src/BattleVictoryNFT.sol\":9239:9270  transferFrom(from, to, tokenId) */\n      jump\t// in\n    tag_169:\n        /* \"src/BattleVictoryNFT.sol\":9152:9278  function safeTransferFrom(address from, address to, uint256 tokenId) public {... */\n      pop\n      pop\n      pop\n      jump\t// out\n        /* \"src/BattleVictoryNFT.sol\":3280:3411  function ownerOf(uint256 tokenId) public view tokenExists(tokenId) returns (address) {... */\n    tag_59:\n        /* \"src/BattleVictoryNFT.sol\":3356:3363  address */\n      0x00\n        /* \"src/BattleVictoryNFT.sol\":3338:3345  tokenId */\n      dup2\n        /* \"src/BattleVictoryNFT.sol\":1960:1961  0 */\n      0x00\n        /* \"src/BattleVictoryNFT.sol\":1928:1962  tokenOwners[tokenId] != address(0) */\n      0xffffffffffffffffffffffffffffffffffffffff\n      and\n        /* \"src/BattleVictoryNFT.sol\":1928:1939  tokenOwners */\n      0x04\n        /* \"src/BattleVictoryNFT.sol\":1928:1948  tokenOwners[tokenId] */\n      0x00\n        /* \"src/BattleVictoryNFT.sol\":1940:1947  tokenId */\n      dup4\n        /* \"src/BattleVictoryNFT.sol\":1928:1948  tokenOwners[tokenId] */\n      dup2\n      mstore\n      0x20\n      add\n      swap1\n      dup2\n      mstore\n      0x20\n      add\n      0x00\n      keccak256\n      0x00\n      swap1\n      sload\n      swap1\n      0x0100\n      exp\n      swap1\n      div\n      0xffffffffffffffffffffffffffffffffffffffff\n      and\n        /* \"src/BattleVictoryNFT.sol\":1928:1962  tokenOwners[tokenId] != address(0) */\n      0xffffffffffffffffffffffffffffffffffffffff\n      and\n      sub\n        /* \"src/BattleVictoryNFT.sol\":1920:1987  require(tokenOwners[tokenId] != address(0), \"Token does not exist\") */\n      tag_171\n      jumpi\n      mload(0x40)\n      0x08c379a000000000000000000000000000000000000000000000000000000000\n      dup2\n      mstore\n      0x04\n      add\n      tag_172\n      swap1\n      tag_110\n      jump\t// in\n    tag_172:\n      mload(0x40)\n      dup1\n      swap2\n      sub\n      swap1\n      revert\n    tag_171:\n        /* \"src/BattleVictoryNFT.sol\":3383:3394  tokenOwners */\n      0x04\n        /* \"src/BattleVictoryNFT.sol\":3383:3403  tokenOwners[tokenId] */\n      0x00\n        /* \"src/BattleVictoryNFT.sol\":3395:3402  tokenId */\n      dup5\n        /* \"src/BattleVictoryNFT.sol\":3383:3403  tokenOwners[tokenId] */\n      dup2\n      mstore\n      0x20\n      add\n      swap1\n      dup2\n      mstore\n      0x20\n      add\n      0x00\n      keccak256\n      0x00\n      swap1\n      sload\n      swap1\n      0x0100\n      exp\n      swap1\n      div\n      0xffffffffffffffffffffffffffffffffffffffff\n      and\n        /* \"src/BattleVictoryNFT.sol\":3376:3403  return tokenOwners[tokenId] */\n      swap2\n      pop\n        /* \"src/BattleVictoryNFT.sol\":3280:3411  function ownerOf(uint256 tokenId) public view tokenExists(tokenId) returns (address) {... */\n      pop\n      swap2\n      swap1\n      pop\n      jump\t// out\n        /* \"src/BattleVictoryNFT.sol\":3567:3736  function balanceOf(address account) public view returns (uint256) {... */\n    tag_64:\n        /* \"src/BattleVictoryNFT.sol\":3624:3631  uint256 */\n      0x00\n        /* \"src/BattleVictoryNFT.sol\":3671:3672  0 */\n      dup1\n        /* \"src/BattleVictoryNFT.sol\":3652:3673  account != address(0) */\n      0xffffffffffffffffffffffffffffffffffffffff\n      and\n        /* \"src/BattleVictoryNFT.sol\":3652:3659  account */\n      dup3\n        /* \"src/BattleVictoryNFT.sol\":3652:3673  account != address(0) */\n      0xffffffffffffffffffffffffffffffffffffffff\n      and\n      sub\n        /* \"src/BattleVictoryNFT.sol\":3644:3693  require(account != address(0), \"Invalid address\") */\n      tag_175\n      jumpi\n      mload(0x40)\n      0x08c379a000000000000000000000000000000000000000000000000000000000\n      dup2\n      mstore\n      0x04\n      add\n      tag_176\n      swap1\n      tag_177\n      jump\t// in\n    tag_176:\n      mload(0x40)\n      dup1\n      swap2\n      sub\n      swap1\n      revert\n    tag_175:\n        /* \"src/BattleVictoryNFT.sol\":3711:3719  balances */\n      0x06\n        /* \"src/BattleVictoryNFT.sol\":3711:3728  balances[account] */\n      0x00\n        /* \"src/BattleVictoryNFT.sol\":3720:3727  account */\n      dup4\n        /* \"src/BattleVictoryNFT.sol\":3711:3728  balances[account] */\n      0xffffffffffffffffffffffffffffffffffffffff\n      and\n      0xffffffffffffffffffffffffffffffffffffffff\n      and\n      dup2\n      mstore\n      0x20\n      add\n      swap1\n      dup2\n      mstore\n      0x20\n      add\n      0x00\n      keccak256\n      sload\n        /* \"src/BattleVictoryNFT.sol\":3704:3728  return balances[account] */\n      swap1\n      pop\n        /* \"src/BattleVictoryNFT.sol\":3567:3736  function balanceOf(address account) public view returns (uint256) {... */\n      swap2\n      swap1\n      pop\n      jump\t// out\n        /* \"src/BattleVictoryNFT.sol\":2766:2863  function getLastTokenId() public view returns (uint256) {... */\n    tag_67:\n        /* \"src/BattleVictoryNFT.sol\":2813:2820  uint256 */\n      0x00\n        /* \"src/BattleVictoryNFT.sol\":2854:2855  1 */\n      0x01\n        /* \"src/BattleVictoryNFT.sol\":2840:2851  nextTokenId */\n      sload(0x03)\n        /* \"src/BattleVictoryNFT.sol\":2840:2855  nextTokenId - 1 */\n      tag_179\n      swap2\n      swap1\n      tag_125\n      jump\t// in\n    tag_179:\n        /* \"src/BattleVictoryNFT.sol\":2833:2855  return nextTokenId - 1 */\n      swap1\n      pop\n        /* \"src/BattleVictoryNFT.sol\":2766:2863  function getLastTokenId() public view returns (uint256) {... */\n      swap1\n      jump\t// out\n        /* \"src/BattleVictoryNFT.sol\":428:448  address public owner */\n    tag_70:\n      0x00\n      dup1\n      sload\n      swap1\n      0x0100\n      exp\n      swap1\n      div\n      0xffffffffffffffffffffffffffffffffffffffff\n      and\n      dup2\n      jump\t// out\n        /* \"src/BattleVictoryNFT.sol\":5700:6335  function mintBatch(... */\n    tag_75:\n        /* \"src/BattleVictoryNFT.sol\":5829:5845  uint256[] memory */\n      0x60\n        /* \"src/BattleVictoryNFT.sol\":1809:1814  owner */\n      0x00\n      dup1\n      sload\n      swap1\n      0x0100\n      exp\n      swap1\n      div\n      0xffffffffffffffffffffffffffffffffffffffff\n      and\n        /* \"src/BattleVictoryNFT.sol\":1795:1814  msg.sender == owner */\n      0xffffffffffffffffffffffffffffffffffffffff\n      and\n        /* \"src/BattleVictoryNFT.sol\":1795:1805  msg.sender */\n      caller\n        /* \"src/BattleVictoryNFT.sol\":1795:1814  msg.sender == owner */\n      0xffffffffffffffffffffffffffffffffffffffff\n      and\n      eq\n        /* \"src/BattleVictoryNFT.sol\":1787:1843  require(msg.sender == owner, \"Only owner can call this\") */\n      tag_181\n      jumpi\n      mload(0x40)\n      0x08c379a000000000000000000000000000000000000000000000000000000000\n      dup2\n      mstore\n      0x04\n      add\n      tag_182\n      swap1\n      tag_129\n      jump\t// in\n    tag_182:\n      mload(0x40)\n      dup1\n      swap2\n      sub\n      swap1\n      revert\n    tag_181:\n        /* \"src/BattleVictoryNFT.sol\":5887:5899  metadataUris */\n      dup2\n        /* \"src/BattleVictoryNFT.sol\":5887:5906  metadataUris.length */\n      mload\n        /* \"src/BattleVictoryNFT.sol\":5866:5876  recipients */\n      dup4\n        /* \"src/BattleVictoryNFT.sol\":5866:5883  recipients.length */\n      mload\n        /* \"src/BattleVictoryNFT.sol\":5866:5906  recipients.length == metadataUris.length */\n      eq\n        /* \"src/BattleVictoryNFT.sol\":5858:5939  require(recipients.length == metadataUris.length, \"Arrays must have same length\") */\n      tag_184\n      jumpi\n      mload(0x40)\n      0x08c379a000000000000000000000000000000000000000000000000000000000\n      dup2\n      mstore\n      0x04\n      add\n      tag_185\n      swap1\n      tag_186\n      jump\t// in\n    tag_185:\n      mload(0x40)\n      dup1\n      swap2\n      sub\n      swap1\n      revert\n    tag_184:\n        /* \"src/BattleVictoryNFT.sol\":5978:5979  0 */\n      0x00\n        /* \"src/BattleVictoryNFT.sol\":5958:5968  recipients */\n      dup4\n        /* \"src/BattleVictoryNFT.sol\":5958:5975  recipients.length */\n      mload\n        /* \"src/BattleVictoryNFT.sol\":5958:5979  recipients.length > 0 */\n      gt\n        /* \"src/BattleVictoryNFT.sol\":5950:6012  require(recipients.length > 0, \"Must mint at least one token\") */\n      tag_187\n      jumpi\n      mload(0x40)\n      0x08c379a000000000000000000000000000000000000000000000000000000000\n      dup2\n      mstore\n      0x04\n      add\n      tag_188\n      swap1\n      tag_189\n      jump\t// in\n    tag_188:\n      mload(0x40)\n      dup1\n      swap2\n      sub\n      swap1\n      revert\n    tag_187:\n        /* \"src/BattleVictoryNFT.sol\":6052:6055  100 */\n      0x64\n        /* \"src/BattleVictoryNFT.sol\":6031:6041  recipients */\n      dup4\n        /* \"src/BattleVictoryNFT.sol\":6031:6048  recipients.length */\n      mload\n        /* \"src/BattleVictoryNFT.sol\":6031:6055  recipients.length <= 100 */\n      gt\n      iszero\n        /* \"src/BattleVictoryNFT.sol\":6023:6080  require(recipients.length <= 100, \"Batch size too large\") */\n      tag_190\n      jumpi\n      mload(0x40)\n      0x08c379a000000000000000000000000000000000000000000000000000000000\n      dup2\n      mstore\n      0x04\n      add\n      tag_191\n      swap1\n      tag_192\n      jump\t// in\n    tag_191:\n      mload(0x40)\n      dup1\n      swap2\n      sub\n      swap1\n      revert\n    tag_190:\n        /* \"src/BattleVictoryNFT.sol\":6093:6118  uint256[] memory tokenIds */\n      0x00\n        /* \"src/BattleVictoryNFT.sol\":6135:6145  recipients */\n      dup4\n        /* \"src/BattleVictoryNFT.sol\":6135:6152  recipients.length */\n      mload\n        /* \"src/BattleVictoryNFT.sol\":6121:6153  new uint256[](recipients.length) */\n      0xffffffffffffffff\n      dup2\n      gt\n      iszero\n      tag_193\n      jumpi\n      tag_194\n      tag_195\n      jump\t// in\n    tag_194:\n    tag_193:\n      mload(0x40)\n      swap1\n      dup1\n      dup3\n      mstore\n      dup1\n      0x20\n      mul\n      0x20\n      add\n      dup3\n      add\n      0x40\n      mstore\n      dup1\n      iszero\n      tag_196\n      jumpi\n      dup2\n      0x20\n      add\n      0x20\n      dup3\n      mul\n      dup1\n      calldatasize\n      dup4\n      calldatacopy\n      dup1\n      dup3\n      add\n      swap2\n      pop\n      pop\n      swap1\n      pop\n    tag_196:\n      pop\n        /* \"src/BattleVictoryNFT.sol\":6093:6153  uint256[] memory tokenIds = new uint256[](recipients.length) */\n      swap1\n      pop\n        /* \"src/BattleVictoryNFT.sol\":6171:6180  uint256 i */\n      0x00\n        /* \"src/BattleVictoryNFT.sol\":6166:6300  for (uint256 i = 0; i < recipients.length; i++) {... */\n    tag_197:\n        /* \"src/BattleVictoryNFT.sol\":6190:6200  recipients */\n      dup5\n        /* \"src/BattleVictoryNFT.sol\":6190:6207  recipients.length */\n      mload\n        /* \"src/BattleVictoryNFT.sol\":6186:6187  i */\n      dup2\n        /* \"src/BattleVictoryNFT.sol\":6186:6207  i < recipients.length */\n      lt\n        /* \"src/BattleVictoryNFT.sol\":6166:6300  for (uint256 i = 0; i < recipients.length; i++) {... */\n      iszero\n      tag_198\n      jumpi\n        /* \"src/BattleVictoryNFT.sol\":6243:6288  mintBattleNFT(recipients[i], metadataUris[i]) */\n      tag_200\n        /* \"src/BattleVictoryNFT.sol\":6257:6267  recipients */\n      dup6\n        /* \"src/BattleVictoryNFT.sol\":6268:6269  i */\n      dup3\n        /* \"src/BattleVictoryNFT.sol\":6257:6270  recipients[i] */\n      dup2\n      mload\n      dup2\n      lt\n      tag_201\n      jumpi\n      tag_202\n      tag_203\n      jump\t// in\n    tag_202:\n    tag_201:\n      0x20\n      mul\n      0x20\n      add\n      add\n      mload\n        /* \"src/BattleVictoryNFT.sol\":6272:6284  metadataUris */\n      dup6\n        /* \"src/BattleVictoryNFT.sol\":6285:6286  i */\n      dup4\n        /* \"src/BattleVictoryNFT.sol\":6272:6287  metadataUris[i] */\n      dup2\n      mload\n      dup2\n      lt\n      tag_204\n      jumpi\n      tag_205\n      tag_203\n      jump\t// in\n    tag_205:\n    tag_204:\n      0x20\n      mul\n      0x20\n      add\n      add\n      mload\n        /* \"src/BattleVictoryNFT.sol\":6243:6256  mintBattleNFT */\n      tag_84\n        /* \"src/BattleVictoryNFT.sol\":6243:6288  mintBattleNFT(recipients[i], metadataUris[i]) */\n      jump\t// in\n    tag_200:\n        /* \"src/BattleVictoryNFT.sol\":6229:6237  tokenIds */\n      dup3\n        /* \"src/BattleVictoryNFT.sol\":6238:6239  i */\n      dup3\n        /* \"src/BattleVictoryNFT.sol\":6229:6240  tokenIds[i] */\n      dup2\n      mload\n      dup2\n      lt\n      tag_206\n      jumpi\n      tag_207\n      tag_203\n      jump\t// in\n    tag_207:\n    tag_206:\n      0x20\n      mul\n      0x20\n      add\n      add\n        /* \"src/BattleVictoryNFT.sol\":6229:6288  tokenIds[i] = mintBattleNFT(recipients[i], metadataUris[i]) */\n      dup2\n      dup2\n      mstore\n      pop\n      pop\n        /* \"src/BattleVictoryNFT.sol\":6209:6212  i++ */\n      dup1\n      dup1\n      tag_208\n      swap1\n      tag_158\n      jump\t// in\n    tag_208:\n      swap2\n      pop\n      pop\n        /* \"src/BattleVictoryNFT.sol\":6166:6300  for (uint256 i = 0; i < recipients.length; i++) {... */\n      jump(tag_197)\n    tag_198:\n      pop\n        /* \"src/BattleVictoryNFT.sol\":6319:6327  tokenIds */\n      dup1\n        /* \"src/BattleVictoryNFT.sol\":6312:6327  return tokenIds */\n      swap2\n      pop\n      pop\n        /* \"src/BattleVictoryNFT.sol\":5700:6335  function mintBatch(... */\n      swap3\n      swap2\n      pop\n      pop\n      jump\t// out\n        /* \"src/BattleVictoryNFT.sol\":509:539  string public symbol = \"BVNFT\" */\n    tag_79:\n      0x02\n      dup1\n      sload\n      tag_209\n      swap1\n      tag_102\n      jump\t// in\n    tag_209:\n      dup1\n      0x1f\n      add\n      0x20\n      dup1\n      swap2\n      div\n      mul\n      0x20\n      add\n      mload(0x40)\n      swap1\n      dup2\n      add\n      0x40\n      mstore\n      dup1\n      swap3\n      swap2\n      swap1\n      dup2\n      dup2\n      mstore\n      0x20\n      add\n      dup3\n      dup1\n      sload\n      tag_210\n      swap1\n      tag_102\n      jump\t// in\n    tag_210:\n      dup1\n      iszero\n      tag_211\n      jumpi\n      dup1\n      0x1f\n      lt\n      tag_212\n      jumpi\n      0x0100\n      dup1\n      dup4\n      sload\n      div\n      mul\n      dup4\n      mstore\n      swap2\n      0x20\n      add\n      swap2\n      jump(tag_211)\n    tag_212:\n      dup3\n      add\n      swap2\n      swap1\n      0x00\n      mstore\n      keccak256(0x00, 0x20)\n      swap1\n    tag_213:\n      dup2\n      sload\n      dup2\n      mstore\n      swap1\n      0x01\n      add\n      swap1\n      0x20\n      add\n      dup1\n      dup4\n      gt\n      tag_213\n      jumpi\n      dup3\n      swap1\n      sub\n      0x1f\n      and\n      dup3\n      add\n      swap2\n    tag_211:\n      pop\n      pop\n      pop\n      pop\n      pop\n      dup2\n      jump\t// out\n        /* \"src/BattleVictoryNFT.sol\":4909:5478  function mintBattleNFT(... */\n    tag_84:\n        /* \"src/BattleVictoryNFT.sol\":5029:5036  uint256 */\n      0x00\n        /* \"src/BattleVictoryNFT.sol\":1809:1814  owner */\n      dup1\n      0x00\n      swap1\n      sload\n      swap1\n      0x0100\n      exp\n      swap1\n      div\n      0xffffffffffffffffffffffffffffffffffffffff\n      and\n        /* \"src/BattleVictoryNFT.sol\":1795:1814  msg.sender == owner */\n      0xffffffffffffffffffffffffffffffffffffffff\n      and\n        /* \"src/BattleVictoryNFT.sol\":1795:1805  msg.sender */\n      caller\n        /* \"src/BattleVictoryNFT.sol\":1795:1814  msg.sender == owner */\n      0xffffffffffffffffffffffffffffffffffffffff\n      and\n      eq\n        /* \"src/BattleVictoryNFT.sol\":1787:1843  require(msg.sender == owner, \"Only owner can call this\") */\n      tag_215\n      jumpi\n      mload(0x40)\n      0x08c379a000000000000000000000000000000000000000000000000000000000\n      dup2\n      mstore\n      0x04\n      add\n      tag_216\n      swap1\n      tag_129\n      jump\t// in\n    tag_216:\n      mload(0x40)\n      dup1\n      swap2\n      sub\n      swap1\n      revert\n    tag_215:\n        /* \"src/BattleVictoryNFT.sol\":5078:5079  0 */\n      0x00\n        /* \"src/BattleVictoryNFT.sol\":5057:5080  recipient != address(0) */\n      0xffffffffffffffffffffffffffffffffffffffff\n      and\n        /* \"src/BattleVictoryNFT.sol\":5057:5066  recipient */\n      dup4\n        /* \"src/BattleVictoryNFT.sol\":5057:5080  recipient != address(0) */\n      0xffffffffffffffffffffffffffffffffffffffff\n      and\n      sub\n        /* \"src/BattleVictoryNFT.sol\":5049:5110  require(recipient != address(0), \"Invalid recipient address\") */\n      tag_218\n      jumpi\n      mload(0x40)\n      0x08c379a000000000000000000000000000000000000000000000000000000000\n      dup2\n      mstore\n      0x04\n      add\n      tag_219\n      swap1\n      tag_149\n      jump\t// in\n    tag_219:\n      mload(0x40)\n      dup1\n      swap2\n      sub\n      swap1\n      revert\n    tag_218:\n        /* \"src/BattleVictoryNFT.sol\":5157:5158  0 */\n      0x00\n        /* \"src/BattleVictoryNFT.sol\":5135:5146  metadataUri */\n      dup3\n        /* \"src/BattleVictoryNFT.sol\":5129:5154  bytes(metadataUri).length */\n      mload\n        /* \"src/BattleVictoryNFT.sol\":5129:5158  bytes(metadataUri).length > 0 */\n      gt\n        /* \"src/BattleVictoryNFT.sol\":5121:5191  require(bytes(metadataUri).length > 0, \"Metadata URI cannot be empty\") */\n      tag_220\n      jumpi\n      mload(0x40)\n      0x08c379a000000000000000000000000000000000000000000000000000000000\n      dup2\n      mstore\n      0x04\n      add\n      tag_221\n      swap1\n      tag_222\n      jump\t// in\n    tag_221:\n      mload(0x40)\n      dup1\n      swap2\n      sub\n      swap1\n      revert\n    tag_220:\n        /* \"src/BattleVictoryNFT.sol\":5204:5221  uint256 currentId */\n      0x00\n        /* \"src/BattleVictoryNFT.sol\":5224:5235  nextTokenId */\n      sload(0x03)\n        /* \"src/BattleVictoryNFT.sol\":5204:5235  uint256 currentId = nextTokenId */\n      swap1\n      pop\n        /* \"src/BattleVictoryNFT.sol\":5246:5257  nextTokenId */\n      0x03\n      0x00\n        /* \"src/BattleVictoryNFT.sol\":5246:5259  nextTokenId++ */\n      dup2\n      sload\n      dup1\n      swap3\n      swap2\n      swap1\n      tag_223\n      swap1\n      tag_158\n      jump\t// in\n    tag_223:\n      swap2\n      swap1\n      pop\n      sstore\n      pop\n        /* \"src/BattleVictoryNFT.sol\":5297:5306  recipient */\n      dup4\n        /* \"src/BattleVictoryNFT.sol\":5272:5283  tokenOwners */\n      0x04\n        /* \"src/BattleVictoryNFT.sol\":5272:5294  tokenOwners[currentId] */\n      0x00\n        /* \"src/BattleVictoryNFT.sol\":5284:5293  currentId */\n      dup4\n        /* \"src/BattleVictoryNFT.sol\":5272:5294  tokenOwners[currentId] */\n      dup2\n      mstore\n      0x20\n      add\n      swap1\n      dup2\n      mstore\n      0x20\n      add\n      0x00\n      keccak256\n      0x00\n        /* \"src/BattleVictoryNFT.sol\":5272:5306  tokenOwners[currentId] = recipient */\n      0x0100\n      exp\n      dup2\n      sload\n      dup2\n      0xffffffffffffffffffffffffffffffffffffffff\n      mul\n      not\n      and\n      swap1\n      dup4\n      0xffffffffffffffffffffffffffffffffffffffff\n      and\n      mul\n      or\n      swap1\n      sstore\n      pop\n        /* \"src/BattleVictoryNFT.sol\":5317:5325  balances */\n      0x06\n        /* \"src/BattleVictoryNFT.sol\":5317:5336  balances[recipient] */\n      0x00\n        /* \"src/BattleVictoryNFT.sol\":5326:5335  recipient */\n      dup6\n        /* \"src/BattleVictoryNFT.sol\":5317:5336  balances[recipient] */\n      0xffffffffffffffffffffffffffffffffffffffff\n      and\n      0xffffffffffffffffffffffffffffffffffffffff\n      and\n      dup2\n      mstore\n      0x20\n      add\n      swap1\n      dup2\n      mstore\n      0x20\n      add\n      0x00\n      keccak256\n      0x00\n        /* \"src/BattleVictoryNFT.sol\":5317:5338  balances[recipient]++ */\n      dup2\n      sload\n      dup1\n      swap3\n      swap2\n      swap1\n      tag_224\n      swap1\n      tag_158\n      jump\t// in\n    tag_224:\n      swap2\n      swap1\n      pop\n      sstore\n      pop\n        /* \"src/BattleVictoryNFT.sol\":5372:5383  metadataUri */\n      dup3\n        /* \"src/BattleVictoryNFT.sol\":5349:5358  tokenURIs */\n      0x05\n        /* \"src/BattleVictoryNFT.sol\":5349:5369  tokenURIs[currentId] */\n      0x00\n        /* \"src/BattleVictoryNFT.sol\":5359:5368  currentId */\n      dup4\n        /* \"src/BattleVictoryNFT.sol\":5349:5369  tokenURIs[currentId] */\n      dup2\n      mstore\n      0x20\n      add\n      swap1\n      dup2\n      mstore\n      0x20\n      add\n      0x00\n      keccak256\n        /* \"src/BattleVictoryNFT.sol\":5349:5383  tokenURIs[currentId] = metadataUri */\n      swap1\n      dup2\n      tag_225\n      swap2\n      swap1\n      tag_138\n      jump\t// in\n    tag_225:\n      pop\n        /* \"src/BattleVictoryNFT.sol\":5433:5442  currentId */\n      dup1\n        /* \"src/BattleVictoryNFT.sol\":5422:5431  recipient */\n      dup5\n        /* \"src/BattleVictoryNFT.sol\":5401:5443  Transfer(address(0), recipient, currentId) */\n      0xffffffffffffffffffffffffffffffffffffffff\n      and\n        /* \"src/BattleVictoryNFT.sol\":5418:5419  0 */\n      0x00\n        /* \"src/BattleVictoryNFT.sol\":5401:5443  Transfer(address(0), recipient, currentId) */\n      0xffffffffffffffffffffffffffffffffffffffff\n      and\n      0xddf252ad1be2c89b69c2b068fc378daa952ba7f163c4a11628f55a4df523b3ef\n      mload(0x40)\n      mload(0x40)\n      dup1\n      swap2\n      sub\n      swap1\n      log4\n        /* \"src/BattleVictoryNFT.sol\":5461:5470  currentId */\n      dup1\n        /* \"src/BattleVictoryNFT.sol\":5454:5470  return currentId */\n      swap2\n      pop\n      pop\n        /* \"src/BattleVictoryNFT.sol\":4909:5478  function mintBattleNFT(... */\n      swap3\n      swap2\n      pop\n      pop\n      jump\t// out\n        /* \"src/BattleVictoryNFT.sol\":7095:7362  function setApprovalForAll(address operator, bool approved) public {... */\n    tag_89:\n        /* \"src/BattleVictoryNFT.sol\":7193:7203  msg.sender */\n      caller\n        /* \"src/BattleVictoryNFT.sol\":7181:7203  operator != msg.sender */\n      0xffffffffffffffffffffffffffffffffffffffff\n      and\n        /* \"src/BattleVictoryNFT.sol\":7181:7189  operator */\n      dup3\n        /* \"src/BattleVictoryNFT.sol\":7181:7203  operator != msg.sender */\n      0xffffffffffffffffffffffffffffffffffffffff\n      and\n      sub\n        /* \"src/BattleVictoryNFT.sol\":7173:7231  require(operator != msg.sender, \"Cannot approve yourself\") */\n      tag_227\n      jumpi\n      mload(0x40)\n      0x08c379a000000000000000000000000000000000000000000000000000000000\n      dup2\n      mstore\n      0x04\n      add\n      tag_228\n      swap1\n      tag_229\n      jump\t// in\n    tag_228:\n      mload(0x40)\n      dup1\n      swap2\n      sub\n      swap1\n      revert\n    tag_227:\n        /* \"src/BattleVictoryNFT.sol\":7284:7292  approved */\n      dup1\n        /* \"src/BattleVictoryNFT.sol\":7242:7259  operatorApprovals */\n      0x08\n        /* \"src/BattleVictoryNFT.sol\":7242:7271  operatorApprovals[msg.sender] */\n      0x00\n        /* \"src/BattleVictoryNFT.sol\":7260:7270  msg.sender */\n      caller\n        /* \"src/BattleVictoryNFT.sol\":7242:7271  operatorApprovals[msg.sender] */\n      0xffffffffffffffffffffffffffffffffffffffff\n      and\n      0xffffffffffffffffffffffffffffffffffffffff\n      and\n      dup2\n      mstore\n      0x20\n      add\n      swap1\n      dup2\n      mstore\n      0x20\n      add\n      0x00\n      keccak256\n        /* \"src/BattleVictoryNFT.sol\":7242:7281  operatorApprovals[msg.sender][operator] */\n      0x00\n        /* \"src/BattleVictoryNFT.sol\":7272:7280  operator */\n      dup5\n        /* \"src/BattleVictoryNFT.sol\":7242:7281  operatorApprovals[msg.sender][operator] */\n      0xffffffffffffffffffffffffffffffffffffffff\n      and\n      0xffffffffffffffffffffffffffffffffffffffff\n      and\n      dup2\n      mstore\n      0x20\n      add\n      swap1\n      dup2\n      mstore\n      0x20\n      add\n      0x00\n      keccak256\n      0x00\n        /* \"src/BattleVictoryNFT.sol\":7242:7292  operatorApprovals[msg.sender][operator] = approved */\n      0x0100\n      exp\n      dup2\n      sload\n      dup2\n      0xff\n      mul\n      not\n      and\n      swap1\n      dup4\n      iszero\n      iszero\n      mul\n      or\n      swap1\n      sstore\n      pop\n        /* \"src/BattleVictoryNFT.sol\":7335:7343  operator */\n      dup2\n        /* \"src/BattleVictoryNFT.sol\":7308:7354  ApprovalForAll(msg.sender, operator, approved) */\n      0xffffffffffffffffffffffffffffffffffffffff\n      and\n        /* \"src/BattleVictoryNFT.sol\":7323:7333  msg.sender */\n      caller\n        /* \"src/BattleVictoryNFT.sol\":7308:7354  ApprovalForAll(msg.sender, operator, approved) */\n      0xffffffffffffffffffffffffffffffffffffffff\n      and\n      0x17307eab39ab6107e8899845ad3d59bd9653f200f220920489ca2b5937696c31\n        /* \"src/BattleVictoryNFT.sol\":7345:7353  approved */\n      dup4\n        /* \"src/BattleVictoryNFT.sol\":7308:7354  ApprovalForAll(msg.sender, operator, approved) */\n      mload(0x40)\n      tag_230\n      swap2\n      swap1\n      tag_95\n      jump\t// in\n    tag_230:\n      mload(0x40)\n      dup1\n      swap2\n      sub\n      swap1\n      log3\n        /* \"src/BattleVictoryNFT.sol\":7095:7362  function setApprovalForAll(address operator, bool approved) public {... */\n      pop\n      pop\n      jump\t// out\n        /* \"src/BattleVictoryNFT.sol\":3996:4684  function transfer(... */\n    tag_93:\n        /* \"src/BattleVictoryNFT.sol\":4137:4141  bool */\n      0x00\n        /* \"src/BattleVictoryNFT.sol\":4119:4126  tokenId */\n      dup4\n        /* \"src/BattleVictoryNFT.sol\":1960:1961  0 */\n      0x00\n        /* \"src/BattleVictoryNFT.sol\":1928:1962  tokenOwners[tokenId] != address(0) */\n      0xffffffffffffffffffffffffffffffffffffffff\n      and\n        /* \"src/BattleVictoryNFT.sol\":1928:1939  tokenOwners */\n      0x04\n        /* \"src/BattleVictoryNFT.sol\":1928:1948  tokenOwners[tokenId] */\n      0x00\n        /* \"src/BattleVictoryNFT.sol\":1940:1947  tokenId */\n      dup4\n        /* \"src/BattleVictoryNFT.sol\":1928:1948  tokenOwners[tokenId] */\n      dup2\n      mstore\n      0x20\n      add\n      swap1\n      dup2\n      mstore\n      0x20\n      add\n      0x00\n      keccak256\n      0x00\n      swap1\n      sload\n      swap1\n      0x0100\n      exp\n      swap1\n      div\n      0xffffffffffffffffffffffffffffffffffffffff\n      and\n        /* \"src/BattleVictoryNFT.sol\":1928:1962  tokenOwners[tokenId] != address(0) */\n      0xffffffffffffffffffffffffffffffffffffffff\n      and\n      sub\n        /* \"src/BattleVictoryNFT.sol\":1920:1987  require(tokenOwners[tokenId] != address(0), \"Token does not exist\") */\n      tag_232\n      jumpi\n      mload(0x40)\n      0x08c379a000000000000000000000000000000000000000000000000000000000\n      dup2\n      mstore\n      0x04\n      add\n      tag_233\n      swap1\n      tag_110\n      jump\t// in\n    tag_233:\n      mload(0x40)\n      dup1\n      swap2\n      sub\n      swap1\n      revert\n    tag_232:\n        /* \"src/BattleVictoryNFT.sol\":4176:4182  sender */\n      dup4\n        /* \"src/BattleVictoryNFT.sol\":4162:4182  msg.sender == sender */\n      0xffffffffffffffffffffffffffffffffffffffff\n      and\n        /* \"src/BattleVictoryNFT.sol\":4162:4172  msg.sender */\n      caller\n        /* \"src/BattleVictoryNFT.sol\":4162:4182  msg.sender == sender */\n      0xffffffffffffffffffffffffffffffffffffffff\n      and\n      eq\n        /* \"src/BattleVictoryNFT.sol\":4154:4213  require(msg.sender == sender, \"Not authorized to transfer\") */\n      tag_235\n      jumpi\n      mload(0x40)\n      0x08c379a000000000000000000000000000000000000000000000000000000000\n      dup2\n      mstore\n      0x04\n      add\n      tag_236\n      swap1\n      tag_154\n      jump\t// in\n    tag_236:\n      mload(0x40)\n      dup1\n      swap2\n      sub\n      swap1\n      revert\n    tag_235:\n        /* \"src/BattleVictoryNFT.sol\":4256:4262  sender */\n      dup4\n        /* \"src/BattleVictoryNFT.sol\":4232:4262  tokenOwners[tokenId] == sender */\n      0xffffffffffffffffffffffffffffffffffffffff\n      and\n        /* \"src/BattleVictoryNFT.sol\":4232:4243  tokenOwners */\n      0x04\n        /* \"src/BattleVictoryNFT.sol\":4232:4252  tokenOwners[tokenId] */\n      0x00\n        /* \"src/BattleVictoryNFT.sol\":4244:4251  tokenId */\n      dup8\n        /* \"src/BattleVictoryNFT.sol\":4232:4252  tokenOwners[tokenId] */\n      dup2\n      mstore\n      0x20\n      add\n      swap1\n      dup2\n      mstore\n      0x20\n      add\n      0x00\n      keccak256\n      0x00\n      swap1\n      sload\n      swap1\n      0x0100\n      exp\n      swap1\n      div\n      0xffffffffffffffffffffffffffffffffffffffff\n      and\n        /* \"src/BattleVictoryNFT.sol\":4232:4262  tokenOwners[tokenId] == sender */\n      0xffffffffffffffffffffffffffffffffffffffff\n      and\n      eq\n        /* \"src/BattleVictoryNFT.sol\":4224:4290  require(tokenOwners[tokenId] == sender, \"Sender is not the owner\") */\n      tag_237\n      jumpi\n      mload(0x40)\n      0x08c379a000000000000000000000000000000000000000000000000000000000\n      dup2\n      mstore\n      0x04\n      add\n      tag_238\n      swap1\n      tag_239\n      jump\t// in\n    tag_238:\n      mload(0x40)\n      dup1\n      swap2\n      sub\n      swap1\n      revert\n    tag_237:\n        /* \"src/BattleVictoryNFT.sol\":4330:4331  0 */\n      0x00\n        /* \"src/BattleVictoryNFT.sol\":4309:4332  recipient != address(0) */\n      0xffffffffffffffffffffffffffffffffffffffff\n      and\n        /* \"src/BattleVictoryNFT.sol\":4309:4318  recipient */\n      dup4\n        /* \"src/BattleVictoryNFT.sol\":4309:4332  recipient != address(0) */\n      0xffffffffffffffffffffffffffffffffffffffff\n      and\n      sub\n        /* \"src/BattleVictoryNFT.sol\":4301:4362  require(recipient != address(0), \"Invalid recipient address\") */\n      tag_240\n      jumpi\n      mload(0x40)\n      0x08c379a000000000000000000000000000000000000000000000000000000000\n      dup2\n      mstore\n      0x04\n      add\n      tag_241\n      swap1\n      tag_149\n      jump\t// in\n    tag_241:\n      mload(0x40)\n      dup1\n      swap2\n      sub\n      swap1\n      revert\n    tag_240:\n        /* \"src/BattleVictoryNFT.sol\":4437:4438  0 */\n      0x00\n        /* \"src/BattleVictoryNFT.sol\":4403:4417  tokenApprovals */\n      0x07\n        /* \"src/BattleVictoryNFT.sol\":4403:4426  tokenApprovals[tokenId] */\n      0x00\n        /* \"src/BattleVictoryNFT.sol\":4418:4425  tokenId */\n      dup8\n        /* \"src/BattleVictoryNFT.sol\":4403:4426  tokenApprovals[tokenId] */\n      dup2\n      mstore\n      0x20\n      add\n      swap1\n      dup2\n      mstore\n      0x20\n      add\n      0x00\n      keccak256\n      0x00\n        /* \"src/BattleVictoryNFT.sol\":4403:4439  tokenApprovals[tokenId] = address(0) */\n      0x0100\n      exp\n      dup2\n      sload\n      dup2\n      0xffffffffffffffffffffffffffffffffffffffff\n      mul\n      not\n      and\n      swap1\n      dup4\n      0xffffffffffffffffffffffffffffffffffffffff\n      and\n      mul\n      or\n      swap1\n      sstore\n      pop\n        /* \"src/BattleVictoryNFT.sol\":4480:4488  balances */\n      0x06\n        /* \"src/BattleVictoryNFT.sol\":4480:4496  balances[sender] */\n      0x00\n        /* \"src/BattleVictoryNFT.sol\":4489:4495  sender */\n      dup6\n        /* \"src/BattleVictoryNFT.sol\":4480:4496  balances[sender] */\n      0xffffffffffffffffffffffffffffffffffffffff\n      and\n      0xffffffffffffffffffffffffffffffffffffffff\n      and\n      dup2\n      mstore\n      0x20\n      add\n      swap1\n      dup2\n      mstore\n      0x20\n      add\n      0x00\n      keccak256\n      0x00\n        /* \"src/BattleVictoryNFT.sol\":4480:4498  balances[sender]-- */\n      dup2\n      sload\n      dup1\n      swap3\n      swap2\n      swap1\n      tag_242\n      swap1\n      tag_156\n      jump\t// in\n    tag_242:\n      swap2\n      swap1\n      pop\n      sstore\n      pop\n        /* \"src/BattleVictoryNFT.sol\":4509:4517  balances */\n      0x06\n        /* \"src/BattleVictoryNFT.sol\":4509:4528  balances[recipient] */\n      0x00\n        /* \"src/BattleVictoryNFT.sol\":4518:4527  recipient */\n      dup5\n        /* \"src/BattleVictoryNFT.sol\":4509:4528  balances[recipient] */\n      0xffffffffffffffffffffffffffffffffffffffff\n      and\n      0xffffffffffffffffffffffffffffffffffffffff\n      and\n      dup2\n      mstore\n      0x20\n      add\n      swap1\n      dup2\n      mstore\n      0x20\n      add\n      0x00\n      keccak256\n      0x00\n        /* \"src/BattleVictoryNFT.sol\":4509:4530  balances[recipient]++ */\n      dup2\n      sload\n      dup1\n      swap3\n      swap2\n      swap1\n      tag_243\n      swap1\n      tag_158\n      jump\t// in\n    tag_243:\n      swap2\n      swap1\n      pop\n      sstore\n      pop\n        /* \"src/BattleVictoryNFT.sol\":4591:4600  recipient */\n      dup3\n        /* \"src/BattleVictoryNFT.sol\":4568:4579  tokenOwners */\n      0x04\n        /* \"src/BattleVictoryNFT.sol\":4568:4588  tokenOwners[tokenId] */\n      0x00\n        /* \"src/BattleVictoryNFT.sol\":4580:4587  tokenId */\n      dup8\n        /* \"src/BattleVictoryNFT.sol\":4568:4588  tokenOwners[tokenId] */\n      dup2\n      mstore\n      0x20\n      add\n      swap1\n      dup2\n      mstore\n      0x20\n      add\n      0x00\n      keccak256\n      0x00\n        /* \"src/BattleVictoryNFT.sol\":4568:4600  tokenOwners[tokenId] = recipient */\n      0x0100\n      exp\n      dup2\n      sload\n      dup2\n      0xffffffffffffffffffffffffffffffffffffffff\n      mul\n      not\n      and\n      swap1\n      dup4\n      0xffffffffffffffffffffffffffffffffffffffff\n      and\n      mul\n      or\n      swap1\n      sstore\n      pop\n        /* \"src/BattleVictoryNFT.sol\":4646:4653  tokenId */\n      dup5\n        /* \"src/BattleVictoryNFT.sol\":4635:4644  recipient */\n      dup4\n        /* \"src/BattleVictoryNFT.sol\":4618:4654  Transfer(sender, recipient, tokenId) */\n      0xffffffffffffffffffffffffffffffffffffffff\n      and\n        /* \"src/BattleVictoryNFT.sol\":4627:4633  sender */\n      dup6\n        /* \"src/BattleVictoryNFT.sol\":4618:4654  Transfer(sender, recipient, tokenId) */\n      0xffffffffffffffffffffffffffffffffffffffff\n      and\n      0xddf252ad1be2c89b69c2b068fc378daa952ba7f163c4a11628f55a4df523b3ef\n      mload(0x40)\n      mload(0x40)\n      dup1\n      swap2\n      sub\n      swap1\n      log4\n        /* \"src/BattleVictoryNFT.sol\":4672:4676  true */\n      0x01\n        /* \"src/BattleVictoryNFT.sol\":4665:4676  return true */\n      swap2\n      pop\n        /* \"src/BattleVictoryNFT.sol\":3996:4684  function transfer(... */\n      pop\n      swap4\n      swap3\n      pop\n      pop\n      pop\n      jump\t// out\n        /* \"src/BattleVictoryNFT.sol\":7862:8054  function isApprovedForAll(address tokenOwner, address operator) ... */\n    tag_99:\n        /* \"src/BattleVictoryNFT.sol\":7977:7981  bool */\n      0x00\n        /* \"src/BattleVictoryNFT.sol\":8007:8024  operatorApprovals */\n      0x08\n        /* \"src/BattleVictoryNFT.sol\":8007:8036  operatorApprovals[tokenOwner] */\n      0x00\n        /* \"src/BattleVictoryNFT.sol\":8025:8035  tokenOwner */\n      dup5\n        /* \"src/BattleVictoryNFT.sol\":8007:8036  operatorApprovals[tokenOwner] */\n      0xffffffffffffffffffffffffffffffffffffffff\n      and\n      0xffffffffffffffffffffffffffffffffffffffff\n      and\n      dup2\n      mstore\n      0x20\n      add\n      swap1\n      dup2\n      mstore\n      0x20\n      add\n      0x00\n      keccak256\n        /* \"src/BattleVictoryNFT.sol\":8007:8046  operatorApprovals[tokenOwner][operator] */\n      0x00\n        /* \"src/BattleVictoryNFT.sol\":8037:8045  operator */\n      dup4\n        /* \"src/BattleVictoryNFT.sol\":8007:8046  operatorApprovals[tokenOwner][operator] */\n      0xffffffffffffffffffffffffffffffffffffffff\n      and\n      0xffffffffffffffffffffffffffffffffffffffff\n      and\n      dup2\n      mstore\n      0x20\n      add\n      swap1\n      dup2\n      mstore\n      0x20\n      add\n      0x00\n      keccak256\n      0x00\n      swap1\n      sload\n      swap1\n      0x0100\n      exp\n      swap1\n      div\n      0xff\n      and\n        /* \"src/BattleVictoryNFT.sol\":8000:8046  return operatorApprovals[tokenOwner][operator] */\n      swap1\n      pop\n        /* \"src/BattleVictoryNFT.sol\":7862:8054  function isApprovedForAll(address tokenOwner, address operator) ... */\n      swap3\n      swap2\n      pop\n      pop\n      jump\t// out\n        /* \"#utility.yul\":7:106   */\n    tag_245:\n        /* \"#utility.yul\":59:65   */\n      0x00\n        /* \"#utility.yul\":93:98   */\n      dup2\n        /* \"#utility.yul\":87:99   */\n      mload\n        /* \"#utility.yul\":77:99   */\n      swap1\n      pop\n        /* \"#utility.yul\":7:106   */\n      swap2\n      swap1\n      pop\n      jump\t// out\n        /* \"#utility.yul\":112:281   */\n    tag_246:\n        /* \"#utility.yul\":196:207   */\n      0x00\n        /* \"#utility.yul\":230:236   */\n      dup3\n        /* \"#utility.yul\":225:228   */\n      dup3\n        /* \"#utility.yul\":218:237   */\n      mstore\n        /* \"#utility.yul\":270:274   */\n      0x20\n        /* \"#utility.yul\":265:268   */\n      dup3\n        /* \"#utility.yul\":261:275   */\n      add\n        /* \"#utility.yul\":246:275   */\n      swap1\n      pop\n        /* \"#utility.yul\":112:281   */\n      swap3\n      swap2\n      pop\n      pop\n      jump\t// out\n        /* \"#utility.yul\":287:533   */\n    tag_247:\n        /* \"#utility.yul\":368:369   */\n      0x00\n        /* \"#utility.yul\":378:491   */\n    tag_339:\n        /* \"#utility.yul\":392:398   */\n      dup4\n        /* \"#utility.yul\":389:390   */\n      dup2\n        /* \"#utility.yul\":386:399   */\n      lt\n        /* \"#utility.yul\":378:491   */\n      iszero\n      tag_341\n      jumpi\n        /* \"#utility.yul\":477:478   */\n      dup1\n        /* \"#utility.yul\":472:475   */\n      dup3\n        /* \"#utility.yul\":468:479   */\n      add\n        /* \"#utility.yul\":462:480   */\n      mload\n        /* \"#utility.yul\":458:459   */\n      dup2\n        /* \"#utility.yul\":453:456   */\n      dup5\n        /* \"#utility.yul\":449:460   */\n      add\n        /* \"#utility.yul\":442:481   */\n      mstore\n        /* \"#utility.yul\":414:416   */\n      0x20\n        /* \"#utility.yul\":411:412   */\n      dup2\n        /* \"#utility.yul\":407:417   */\n      add\n        /* \"#utility.yul\":402:417   */\n      swap1\n      pop\n        /* \"#utility.yul\":378:491   */\n      jump(tag_339)\n    tag_341:\n        /* \"#utility.yul\":525:526   */\n      0x00\n        /* \"#utility.yul\":516:522   */\n      dup5\n        /* \"#utility.yul\":511:514   */\n      dup5\n        /* \"#utility.yul\":507:523   */\n      add\n        /* \"#utility.yul\":500:527   */\n      mstore\n        /* \"#utility.yul\":349:533   */\n      pop\n        /* \"#utility.yul\":287:533   */\n      pop\n      pop\n      pop\n      jump\t// out\n        /* \"#utility.yul\":539:641   */\n    tag_248:\n        /* \"#utility.yul\":580:586   */\n      0x00\n        /* \"#utility.yul\":631:633   */\n      0x1f\n        /* \"#utility.yul\":627:634   */\n      not\n        /* \"#utility.yul\":622:624   */\n      0x1f\n        /* \"#utility.yul\":615:620   */\n      dup4\n        /* \"#utility.yul\":611:625   */\n      add\n        /* \"#utility.yul\":607:635   */\n      and\n        /* \"#utility.yul\":597:635   */\n      swap1\n      pop\n        /* \"#utility.yul\":539:641   */\n      swap2\n      swap1\n      pop\n      jump\t// out\n        /* \"#utility.yul\":647:1024   */\n    tag_249:\n        /* \"#utility.yul\":735:738   */\n      0x00\n        /* \"#utility.yul\":763:802   */\n      tag_344\n        /* \"#utility.yul\":796:801   */\n      dup3\n        /* \"#utility.yul\":763:802   */\n      tag_245\n      jump\t// in\n    tag_344:\n        /* \"#utility.yul\":818:889   */\n      tag_345\n        /* \"#utility.yul\":882:888   */\n      dup2\n        /* \"#utility.yul\":877:880   */\n      dup6\n        /* \"#utility.yul\":818:889   */\n      tag_246\n      jump\t// in\n    tag_345:\n        /* \"#utility.yul\":811:889   */\n      swap4\n      pop\n        /* \"#utility.yul\":898:963   */\n      tag_346\n        /* \"#utility.yul\":956:962   */\n      dup2\n        /* \"#utility.yul\":951:954   */\n      dup6\n        /* \"#utility.yul\":944:948   */\n      0x20\n        /* \"#utility.yul\":937:942   */\n      dup7\n        /* \"#utility.yul\":933:949   */\n      add\n        /* \"#utility.yul\":898:963   */\n      tag_247\n      jump\t// in\n    tag_346:\n        /* \"#utility.yul\":988:1017   */\n      tag_347\n        /* \"#utility.yul\":1010:1016   */\n      dup2\n        /* \"#utility.yul\":988:1017   */\n      tag_248\n      jump\t// in\n    tag_347:\n        /* \"#utility.yul\":983:986   */\n      dup5\n        /* \"#utility.yul\":979:1018   */\n      add\n        /* \"#utility.yul\":972:1018   */\n      swap2\n      pop\n        /* \"#utility.yul\":739:1024   */\n      pop\n        /* \"#utility.yul\":647:1024   */\n      swap3\n      swap2\n      pop\n      pop\n      jump\t// out\n        /* \"#utility.yul\":1030:1343   */\n    tag_27:\n        /* \"#utility.yul\":1143:1147   */\n      0x00\n        /* \"#utility.yul\":1181:1183   */\n      0x20\n        /* \"#utility.yul\":1170:1179   */\n      dup3\n        /* \"#utility.yul\":1166:1184   */\n      add\n        /* \"#utility.yul\":1158:1184   */\n      swap1\n      pop\n        /* \"#utility.yul\":1230:1239   */\n      dup2\n        /* \"#utility.yul\":1224:1228   */\n      dup2\n        /* \"#utility.yul\":1220:1240   */\n      sub\n        /* \"#utility.yul\":1216:1217   */\n      0x00\n        /* \"#utility.yul\":1205:1214   */\n      dup4\n        /* \"#utility.yul\":1201:1218   */\n      add\n        /* \"#utility.yul\":1194:1241   */\n      mstore\n        /* \"#utility.yul\":1258:1336   */\n      tag_349\n        /* \"#utility.yul\":1331:1335   */\n      dup2\n        /* \"#utility.yul\":1322:1328   */\n      dup5\n        /* \"#utility.yul\":1258:1336   */\n      tag_249\n      jump\t// in\n    tag_349:\n        /* \"#utility.yul\":1250:1336   */\n      swap1\n      pop\n        /* \"#utility.yul\":1030:1343   */\n      swap3\n      swap2\n      pop\n      pop\n      jump\t// out\n        /* \"#utility.yul\":1349:1424   */\n    tag_250:\n        /* \"#utility.yul\":1382:1388   */\n      0x00\n        /* \"#utility.yul\":1415:1417   */\n      0x40\n        /* \"#utility.yul\":1409:1418   */\n      mload\n        /* \"#utility.yul\":1399:1418   */\n      swap1\n      pop\n        /* \"#utility.yul\":1349:1424   */\n      swap1\n      jump\t// out\n        /* \"#utility.yul\":1430:1547   */\n    tag_251:\n        /* \"#utility.yul\":1539:1540   */\n      0x00\n        /* \"#utility.yul\":1536:1537   */\n      dup1\n        /* \"#utility.yul\":1529:1541   */\n      revert\n        /* \"#utility.yul\":1553:1670   */\n    tag_252:\n        /* \"#utility.yul\":1662:1663   */\n      0x00\n        /* \"#utility.yul\":1659:1660   */\n      dup1\n        /* \"#utility.yul\":1652:1664   */\n      revert\n        /* \"#utility.yul\":1676:1753   */\n    tag_253:\n        /* \"#utility.yul\":1713:1720   */\n      0x00\n        /* \"#utility.yul\":1742:1747   */\n      dup2\n        /* \"#utility.yul\":1731:1747   */\n      swap1\n      pop\n        /* \"#utility.yul\":1676:1753   */\n      swap2\n      swap1\n      pop\n      jump\t// out\n        /* \"#utility.yul\":1759:1881   */\n    tag_254:\n        /* \"#utility.yul\":1832:1856   */\n      tag_355\n        /* \"#utility.yul\":1850:1855   */\n      dup2\n        /* \"#utility.yul\":1832:1856   */\n      tag_253\n      jump\t// in\n    tag_355:\n        /* \"#utility.yul\":1825:1830   */\n      dup2\n        /* \"#utility.yul\":1822:1857   */\n      eq\n        /* \"#utility.yul\":1812:1875   */\n      tag_356\n      jumpi\n        /* \"#utility.yul\":1871:1872   */\n      0x00\n        /* \"#utility.yul\":1868:1869   */\n      dup1\n        /* \"#utility.yul\":1861:1873   */\n      revert\n        /* \"#utility.yul\":1812:1875   */\n    tag_356:\n        /* \"#utility.yul\":1759:1881   */\n      pop\n      jump\t// out\n        /* \"#utility.yul\":1887:2026   */\n    tag_255:\n        /* \"#utility.yul\":1933:1938   */\n      0x00\n        /* \"#utility.yul\":1971:1977   */\n      dup2\n        /* \"#utility.yul\":1958:1978   */\n      calldataload\n        /* \"#utility.yul\":1949:1978   */\n      swap1\n      pop\n        /* \"#utility.yul\":1987:2020   */\n      tag_358\n        /* \"#utility.yul\":2014:2019   */\n      dup2\n        /* \"#utility.yul\":1987:2020   */\n      tag_254\n      jump\t// in\n    tag_358:\n        /* \"#utility.yul\":1887:2026   */\n      swap3\n      swap2\n      pop\n      pop\n      jump\t// out\n        /* \"#utility.yul\":2032:2361   */\n    tag_30:\n        /* \"#utility.yul\":2091:2097   */\n      0x00\n        /* \"#utility.yul\":2140:2142   */\n      0x20\n        /* \"#utility.yul\":2128:2137   */\n      dup3\n        /* \"#utility.yul\":2119:2126   */\n      dup5\n        /* \"#utility.yul\":2115:2138   */\n      sub\n        /* \"#utility.yul\":2111:2143   */\n      slt\n        /* \"#utility.yul\":2108:2227   */\n      iszero\n      tag_360\n      jumpi\n        /* \"#utility.yul\":2146:2225   */\n      tag_361\n      tag_251\n      jump\t// in\n    tag_361:\n        /* \"#utility.yul\":2108:2227   */\n    tag_360:\n        /* \"#utility.yul\":2266:2267   */\n      0x00\n        /* \"#utility.yul\":2291:2344   */\n      tag_362\n        /* \"#utility.yul\":2336:2343   */\n      dup5\n        /* \"#utility.yul\":2327:2333   */\n      dup3\n        /* \"#utility.yul\":2316:2325   */\n      dup6\n        /* \"#utility.yul\":2312:2334   */\n      add\n        /* \"#utility.yul\":2291:2344   */\n      tag_255\n      jump\t// in\n    tag_362:\n        /* \"#utility.yul\":2281:2344   */\n      swap2\n      pop\n        /* \"#utility.yul\":2237:2354   */\n      pop\n        /* \"#utility.yul\":2032:2361   */\n      swap3\n      swap2\n      pop\n      pop\n      jump\t// out\n        /* \"#utility.yul\":2367:2493   */\n    tag_256:\n        /* \"#utility.yul\":2404:2411   */\n      0x00\n        /* \"#utility.yul\":2444:2486   */\n      0xffffffffffffffffffffffffffffffffffffffff\n        /* \"#utility.yul\":2437:2442   */\n      dup3\n        /* \"#utility.yul\":2433:2487   */\n      and\n        /* \"#utility.yul\":2422:2487   */\n      swap1\n      pop\n        /* \"#utility.yul\":2367:2493   */\n      swap2\n      swap1\n      pop\n      jump\t// out\n        /* \"#utility.yul\":2499:2595   */\n    tag_257:\n        /* \"#utility.yul\":2536:2543   */\n      0x00\n        /* \"#utility.yul\":2565:2589   */\n      tag_365\n        /* \"#utility.yul\":2583:2588   */\n      dup3\n        /* \"#utility.yul\":2565:2589   */\n      tag_256\n      jump\t// in\n    tag_365:\n        /* \"#utility.yul\":2554:2589   */\n      swap1\n      pop\n        /* \"#utility.yul\":2499:2595   */\n      swap2\n      swap1\n      pop\n      jump\t// out\n        /* \"#utility.yul\":2601:2719   */\n    tag_258:\n        /* \"#utility.yul\":2688:2712   */\n      tag_367\n        /* \"#utility.yul\":2706:2711   */\n      dup2\n        /* \"#utility.yul\":2688:2712   */\n      tag_257\n      jump\t// in\n    tag_367:\n        /* \"#utility.yul\":2683:2686   */\n      dup3\n        /* \"#utility.yul\":2676:2713   */\n      mstore\n        /* \"#utility.yul\":2601:2719   */\n      pop\n      pop\n      jump\t// out\n        /* \"#utility.yul\":2725:2947   */\n    tag_33:\n        /* \"#utility.yul\":2818:2822   */\n      0x00\n        /* \"#utility.yul\":2856:2858   */\n      0x20\n        /* \"#utility.yul\":2845:2854   */\n      dup3\n        /* \"#utility.yul\":2841:2859   */\n      add\n        /* \"#utility.yul\":2833:2859   */\n      swap1\n      pop\n        /* \"#utility.yul\":2869:2940   */\n      tag_369\n        /* \"#utility.yul\":2937:2938   */\n      0x00\n        /* \"#utility.yul\":2926:2935   */\n      dup4\n        /* \"#utility.yul\":2922:2939   */\n      add\n        /* \"#utility.yul\":2913:2919   */\n      dup5\n        /* \"#utility.yul\":2869:2940   */\n      tag_258\n      jump\t// in\n    tag_369:\n        /* \"#utility.yul\":2725:2947   */\n      swap3\n      swap2\n      pop\n      pop\n      jump\t// out\n        /* \"#utility.yul\":2953:3075   */\n    tag_259:\n        /* \"#utility.yul\":3026:3050   */\n      tag_371\n        /* \"#utility.yul\":3044:3049   */\n      dup2\n        /* \"#utility.yul\":3026:3050   */\n      tag_257\n      jump\t// in\n    tag_371:\n        /* \"#utility.yul\":3019:3024   */\n      dup2\n        /* \"#utility.yul\":3016:3051   */\n      eq\n        /* \"#utility.yul\":3006:3069   */\n      tag_372\n      jumpi\n        /* \"#utility.yul\":3065:3066   */\n      0x00\n        /* \"#utility.yul\":3062:3063   */\n      dup1\n        /* \"#utility.yul\":3055:3067   */\n      revert\n        /* \"#utility.yul\":3006:3069   */\n    tag_372:\n        /* \"#utility.yul\":2953:3075   */\n      pop\n      jump\t// out\n        /* \"#utility.yul\":3081:3220   */\n    tag_260:\n        /* \"#utility.yul\":3127:3132   */\n      0x00\n        /* \"#utility.yul\":3165:3171   */\n      dup2\n        /* \"#utility.yul\":3152:3172   */\n      calldataload\n        /* \"#utility.yul\":3143:3172   */\n      swap1\n      pop\n        /* \"#utility.yul\":3181:3214   */\n      tag_374\n        /* \"#utility.yul\":3208:3213   */\n      dup2\n        /* \"#utility.yul\":3181:3214   */\n      tag_259\n      jump\t// in\n    tag_374:\n        /* \"#utility.yul\":3081:3220   */\n      swap3\n      swap2\n      pop\n      pop\n      jump\t// out\n        /* \"#utility.yul\":3226:3700   */\n    tag_36:\n        /* \"#utility.yul\":3294:3300   */\n      0x00\n        /* \"#utility.yul\":3302:3308   */\n      dup1\n        /* \"#utility.yul\":3351:3353   */\n      0x40\n        /* \"#utility.yul\":3339:3348   */\n      dup4\n        /* \"#utility.yul\":3330:3337   */\n      dup6\n        /* \"#utility.yul\":3326:3349   */\n      sub\n        /* \"#utility.yul\":3322:3354   */\n      slt\n        /* \"#utility.yul\":3319:3438   */\n      iszero\n      tag_376\n      jumpi\n        /* \"#utility.yul\":3357:3436   */\n      tag_377\n      tag_251\n      jump\t// in\n    tag_377:\n        /* \"#utility.yul\":3319:3438   */\n    tag_376:\n        /* \"#utility.yul\":3477:3478   */\n      0x00\n        /* \"#utility.yul\":3502:3555   */\n      tag_378\n        /* \"#utility.yul\":3547:3554   */\n      dup6\n        /* \"#utility.yul\":3538:3544   */\n      dup3\n        /* \"#utility.yul\":3527:3536   */\n      dup7\n        /* \"#utility.yul\":3523:3545   */\n      add\n        /* \"#utility.yul\":3502:3555   */\n      tag_260\n      jump\t// in\n    tag_378:\n        /* \"#utility.yul\":3492:3555   */\n      swap3\n      pop\n        /* \"#utility.yul\":3448:3565   */\n      pop\n        /* \"#utility.yul\":3604:3606   */\n      0x20\n        /* \"#utility.yul\":3630:3683   */\n      tag_379\n        /* \"#utility.yul\":3675:3682   */\n      dup6\n        /* \"#utility.yul\":3666:3672   */\n      dup3\n        /* \"#utility.yul\":3655:3664   */\n      dup7\n        /* \"#utility.yul\":3651:3673   */\n      add\n        /* \"#utility.yul\":3630:3683   */\n      tag_255\n      jump\t// in\n    tag_379:\n        /* \"#utility.yul\":3620:3683   */\n      swap2\n      pop\n        /* \"#utility.yul\":3575:3693   */\n      pop\n        /* \"#utility.yul\":3226:3700   */\n      swap3\n      pop\n      swap3\n      swap1\n      pop\n      jump\t// out\n        /* \"#utility.yul\":3706:3824   */\n    tag_261:\n        /* \"#utility.yul\":3793:3817   */\n      tag_381\n        /* \"#utility.yul\":3811:3816   */\n      dup2\n        /* \"#utility.yul\":3793:3817   */\n      tag_253\n      jump\t// in\n    tag_381:\n        /* \"#utility.yul\":3788:3791   */\n      dup3\n        /* \"#utility.yul\":3781:3818   */\n      mstore\n        /* \"#utility.yul\":3706:3824   */\n      pop\n      pop\n      jump\t// out\n        /* \"#utility.yul\":3830:4052   */\n    tag_41:\n        /* \"#utility.yul\":3923:3927   */\n      0x00\n        /* \"#utility.yul\":3961:3963   */\n      0x20\n        /* \"#utility.yul\":3950:3959   */\n      dup3\n        /* \"#utility.yul\":3946:3964   */\n      add\n        /* \"#utility.yul\":3938:3964   */\n      swap1\n      pop\n        /* \"#utility.yul\":3974:4045   */\n      tag_383\n        /* \"#utility.yul\":4042:4043   */\n      0x00\n        /* \"#utility.yul\":4031:4040   */\n      dup4\n        /* \"#utility.yul\":4027:4044   */\n      add\n        /* \"#utility.yul\":4018:4024   */\n      dup5\n        /* \"#utility.yul\":3974:4045   */\n      tag_261\n      jump\t// in\n    tag_383:\n        /* \"#utility.yul\":3830:4052   */\n      swap3\n      swap2\n      pop\n      pop\n      jump\t// out\n        /* \"#utility.yul\":4058:4175   */\n    tag_262:\n        /* \"#utility.yul\":4167:4168   */\n      0x00\n        /* \"#utility.yul\":4164:4165   */\n      dup1\n        /* \"#utility.yul\":4157:4169   */\n      revert\n        /* \"#utility.yul\":4181:4298   */\n    tag_263:\n        /* \"#utility.yul\":4290:4291   */\n      0x00\n        /* \"#utility.yul\":4287:4288   */\n      dup1\n        /* \"#utility.yul\":4280:4292   */\n      revert\n        /* \"#utility.yul\":4304:4484   */\n    tag_195:\n        /* \"#utility.yul\":4352:4429   */\n      0x4e487b7100000000000000000000000000000000000000000000000000000000\n        /* \"#utility.yul\":4349:4350   */\n      0x00\n        /* \"#utility.yul\":4342:4430   */\n      mstore\n        /* \"#utility.yul\":4449:4453   */\n      0x41\n        /* \"#utility.yul\":4446:4447   */\n      0x04\n        /* \"#utility.yul\":4439:4454   */\n      mstore\n        /* \"#utility.yul\":4473:4477   */\n      0x24\n        /* \"#utility.yul\":4470:4471   */\n      0x00\n        /* \"#utility.yul\":4463:4478   */\n      revert\n        /* \"#utility.yul\":4490:4771   */\n    tag_264:\n        /* \"#utility.yul\":4573:4600   */\n      tag_388\n        /* \"#utility.yul\":4595:4599   */\n      dup3\n        /* \"#utility.yul\":4573:4600   */\n      tag_248\n      jump\t// in\n    tag_388:\n        /* \"#utility.yul\":4565:4571   */\n      dup2\n        /* \"#utility.yul\":4561:4601   */\n      add\n        /* \"#utility.yul\":4703:4709   */\n      dup2\n        /* \"#utility.yul\":4691:4701   */\n      dup2\n        /* \"#utility.yul\":4688:4710   */\n      lt\n        /* \"#utility.yul\":4667:4685   */\n      0xffffffffffffffff\n        /* \"#utility.yul\":4655:4665   */\n      dup3\n        /* \"#utility.yul\":4652:4686   */\n      gt\n        /* \"#utility.yul\":4649:4711   */\n      or\n        /* \"#utility.yul\":4646:4734   */\n      iszero\n      tag_389\n      jumpi\n        /* \"#utility.yul\":4714:4732   */\n      tag_390\n      tag_195\n      jump\t// in\n    tag_390:\n        /* \"#utility.yul\":4646:4734   */\n    tag_389:\n        /* \"#utility.yul\":4754:4764   */\n      dup1\n        /* \"#utility.yul\":4750:4752   */\n      0x40\n        /* \"#utility.yul\":4743:4765   */\n      mstore\n        /* \"#utility.yul\":4533:4771   */\n      pop\n        /* \"#utility.yul\":4490:4771   */\n      pop\n      pop\n      jump\t// out\n        /* \"#utility.yul\":4777:4906   */\n    tag_265:\n        /* \"#utility.yul\":4811:4817   */\n      0x00\n        /* \"#utility.yul\":4838:4858   */\n      tag_392\n      tag_250\n      jump\t// in\n    tag_392:\n        /* \"#utility.yul\":4828:4858   */\n      swap1\n      pop\n        /* \"#utility.yul\":4867:4900   */\n      tag_393\n        /* \"#utility.yul\":4895:4899   */\n      dup3\n        /* \"#utility.yul\":4887:4893   */\n      dup3\n        /* \"#utility.yul\":4867:4900   */\n      tag_264\n      jump\t// in\n    tag_393:\n        /* \"#utility.yul\":4777:4906   */\n      swap2\n      swap1\n      pop\n      jump\t// out\n        /* \"#utility.yul\":4912:5220   */\n    tag_266:\n        /* \"#utility.yul\":4974:4978   */\n      0x00\n        /* \"#utility.yul\":5064:5082   */\n      0xffffffffffffffff\n        /* \"#utility.yul\":5056:5062   */\n      dup3\n        /* \"#utility.yul\":5053:5083   */\n      gt\n        /* \"#utility.yul\":5050:5106   */\n      iszero\n      tag_395\n      jumpi\n        /* \"#utility.yul\":5086:5104   */\n      tag_396\n      tag_195\n      jump\t// in\n    tag_396:\n        /* \"#utility.yul\":5050:5106   */\n    tag_395:\n        /* \"#utility.yul\":5124:5153   */\n      tag_397\n        /* \"#utility.yul\":5146:5152   */\n      dup3\n        /* \"#utility.yul\":5124:5153   */\n      tag_248\n      jump\t// in\n    tag_397:\n        /* \"#utility.yul\":5116:5153   */\n      swap1\n      pop\n        /* \"#utility.yul\":5208:5212   */\n      0x20\n        /* \"#utility.yul\":5202:5206   */\n      dup2\n        /* \"#utility.yul\":5198:5213   */\n      add\n        /* \"#utility.yul\":5190:5213   */\n      swap1\n      pop\n        /* \"#utility.yul\":4912:5220   */\n      swap2\n      swap1\n      pop\n      jump\t// out\n        /* \"#utility.yul\":5226:5372   */\n    tag_267:\n        /* \"#utility.yul\":5323:5329   */\n      dup3\n        /* \"#utility.yul\":5318:5321   */\n      dup2\n        /* \"#utility.yul\":5313:5316   */\n      dup4\n        /* \"#utility.yul\":5300:5330   */\n      calldatacopy\n        /* \"#utility.yul\":5364:5365   */\n      0x00\n        /* \"#utility.yul\":5355:5361   */\n      dup4\n        /* \"#utility.yul\":5350:5353   */\n      dup4\n        /* \"#utility.yul\":5346:5362   */\n      add\n        /* \"#utility.yul\":5339:5366   */\n      mstore\n        /* \"#utility.yul\":5226:5372   */\n      pop\n      pop\n      pop\n      jump\t// out\n        /* \"#utility.yul\":5378:5803   */\n    tag_268:\n        /* \"#utility.yul\":5456:5461   */\n      0x00\n        /* \"#utility.yul\":5481:5547   */\n      tag_400\n        /* \"#utility.yul\":5497:5546   */\n      tag_401\n        /* \"#utility.yul\":5539:5545   */\n      dup5\n        /* \"#utility.yul\":5497:5546   */\n      tag_266\n      jump\t// in\n    tag_401:\n        /* \"#utility.yul\":5481:5547   */\n      tag_265\n      jump\t// in\n    tag_400:\n        /* \"#utility.yul\":5472:5547   */\n      swap1\n      pop\n        /* \"#utility.yul\":5570:5576   */\n      dup3\n        /* \"#utility.yul\":5563:5568   */\n      dup2\n        /* \"#utility.yul\":5556:5577   */\n      mstore\n        /* \"#utility.yul\":5608:5612   */\n      0x20\n        /* \"#utility.yul\":5601:5606   */\n      dup2\n        /* \"#utility.yul\":5597:5613   */\n      add\n        /* \"#utility.yul\":5646:5649   */\n      dup5\n        /* \"#utility.yul\":5637:5643   */\n      dup5\n        /* \"#utility.yul\":5632:5635   */\n      dup5\n        /* \"#utility.yul\":5628:5644   */\n      add\n        /* \"#utility.yul\":5625:5650   */\n      gt\n        /* \"#utility.yul\":5622:5734   */\n      iszero\n      tag_402\n      jumpi\n        /* \"#utility.yul\":5653:5732   */\n      tag_403\n      tag_263\n      jump\t// in\n    tag_403:\n        /* \"#utility.yul\":5622:5734   */\n    tag_402:\n        /* \"#utility.yul\":5743:5797   */\n      tag_404\n        /* \"#utility.yul\":5790:5796   */\n      dup5\n        /* \"#utility.yul\":5785:5788   */\n      dup3\n        /* \"#utility.yul\":5780:5783   */\n      dup6\n        /* \"#utility.yul\":5743:5797   */\n      tag_267\n      jump\t// in\n    tag_404:\n        /* \"#utility.yul\":5462:5803   */\n      pop\n        /* \"#utility.yul\":5378:5803   */\n      swap4\n      swap3\n      pop\n      pop\n      pop\n      jump\t// out\n        /* \"#utility.yul\":5823:6163   */\n    tag_269:\n        /* \"#utility.yul\":5879:5884   */\n      0x00\n        /* \"#utility.yul\":5928:5931   */\n      dup3\n        /* \"#utility.yul\":5921:5925   */\n      0x1f\n        /* \"#utility.yul\":5913:5919   */\n      dup4\n        /* \"#utility.yul\":5909:5926   */\n      add\n        /* \"#utility.yul\":5905:5932   */\n      slt\n        /* \"#utility.yul\":5895:6017   */\n      tag_406\n      jumpi\n        /* \"#utility.yul\":5936:6015   */\n      tag_407\n      tag_262\n      jump\t// in\n    tag_407:\n        /* \"#utility.yul\":5895:6017   */\n    tag_406:\n        /* \"#utility.yul\":6053:6059   */\n      dup2\n        /* \"#utility.yul\":6040:6060   */\n      calldataload\n        /* \"#utility.yul\":6078:6157   */\n      tag_408\n        /* \"#utility.yul\":6153:6156   */\n      dup5\n        /* \"#utility.yul\":6145:6151   */\n      dup3\n        /* \"#utility.yul\":6138:6142   */\n      0x20\n        /* \"#utility.yul\":6130:6136   */\n      dup7\n        /* \"#utility.yul\":6126:6143   */\n      add\n        /* \"#utility.yul\":6078:6157   */\n      tag_268\n      jump\t// in\n    tag_408:\n        /* \"#utility.yul\":6069:6157   */\n      swap2\n      pop\n        /* \"#utility.yul\":5885:6163   */\n      pop\n        /* \"#utility.yul\":5823:6163   */\n      swap3\n      swap2\n      pop\n      pop\n      jump\t// out\n        /* \"#utility.yul\":6169:6823   */\n    tag_44:\n        /* \"#utility.yul\":6247:6253   */\n      0x00\n        /* \"#utility.yul\":6255:6261   */\n      dup1\n        /* \"#utility.yul\":6304:6306   */\n      0x40\n        /* \"#utility.yul\":6292:6301   */\n      dup4\n        /* \"#utility.yul\":6283:6290   */\n      dup6\n        /* \"#utility.yul\":6279:6302   */\n      sub\n        /* \"#utility.yul\":6275:6307   */\n      slt\n        /* \"#utility.yul\":6272:6391   */\n      iszero\n      tag_410\n      jumpi\n        /* \"#utility.yul\":6310:6389   */\n      tag_411\n      tag_251\n      jump\t// in\n    tag_411:\n        /* \"#utility.yul\":6272:6391   */\n    tag_410:\n        /* \"#utility.yul\":6430:6431   */\n      0x00\n        /* \"#utility.yul\":6455:6508   */\n      tag_412\n        /* \"#utility.yul\":6500:6507   */\n      dup6\n        /* \"#utility.yul\":6491:6497   */\n      dup3\n        /* \"#utility.yul\":6480:6489   */\n      dup7\n        /* \"#utility.yul\":6476:6498   */\n      add\n        /* \"#utility.yul\":6455:6508   */\n      tag_255\n      jump\t// in\n    tag_412:\n        /* \"#utility.yul\":6445:6508   */\n      swap3\n      pop\n        /* \"#utility.yul\":6401:6518   */\n      pop\n        /* \"#utility.yul\":6585:6587   */\n      0x20\n        /* \"#utility.yul\":6574:6583   */\n      dup4\n        /* \"#utility.yul\":6570:6588   */\n      add\n        /* \"#utility.yul\":6557:6589   */\n      calldataload\n        /* \"#utility.yul\":6616:6634   */\n      0xffffffffffffffff\n        /* \"#utility.yul\":6608:6614   */\n      dup2\n        /* \"#utility.yul\":6605:6635   */\n      gt\n        /* \"#utility.yul\":6602:6719   */\n      iszero\n      tag_413\n      jumpi\n        /* \"#utility.yul\":6638:6717   */\n      tag_414\n      tag_252\n      jump\t// in\n    tag_414:\n        /* \"#utility.yul\":6602:6719   */\n    tag_413:\n        /* \"#utility.yul\":6743:6806   */\n      tag_415\n        /* \"#utility.yul\":6798:6805   */\n      dup6\n        /* \"#utility.yul\":6789:6795   */\n      dup3\n        /* \"#utility.yul\":6778:6787   */\n      dup7\n        /* \"#utility.yul\":6774:6796   */\n      add\n        /* \"#utility.yul\":6743:6806   */\n      tag_269\n      jump\t// in\n    tag_415:\n        /* \"#utility.yul\":6733:6806   */\n      swap2\n      pop\n        /* \"#utility.yul\":6528:6816   */\n      pop\n        /* \"#utility.yul\":6169:6823   */\n      swap3\n      pop\n      swap3\n      swap1\n      pop\n      jump\t// out\n        /* \"#utility.yul\":6829:7448   */\n    tag_48:\n        /* \"#utility.yul\":6906:6912   */\n      0x00\n        /* \"#utility.yul\":6914:6920   */\n      dup1\n        /* \"#utility.yul\":6922:6928   */\n      0x00\n        /* \"#utility.yul\":6971:6973   */\n      0x60\n        /* \"#utility.yul\":6959:6968   */\n      dup5\n        /* \"#utility.yul\":6950:6957   */\n      dup7\n        /* \"#utility.yul\":6946:6969   */\n      sub\n        /* \"#utility.yul\":6942:6974   */\n      slt\n        /* \"#utility.yul\":6939:7058   */\n      iszero\n      tag_417\n      jumpi\n        /* \"#utility.yul\":6977:7056   */\n      tag_418\n      tag_251\n      jump\t// in\n    tag_418:\n        /* \"#utility.yul\":6939:7058   */\n    tag_417:\n        /* \"#utility.yul\":7097:7098   */\n      0x00\n        /* \"#utility.yul\":7122:7175   */\n      tag_419\n        /* \"#utility.yul\":7167:7174   */\n      dup7\n        /* \"#utility.yul\":7158:7164   */\n      dup3\n        /* \"#utility.yul\":7147:7156   */\n      dup8\n        /* \"#utility.yul\":7143:7165   */\n      add\n        /* \"#utility.yul\":7122:7175   */\n      tag_260\n      jump\t// in\n    tag_419:\n        /* \"#utility.yul\":7112:7175   */\n      swap4\n      pop\n        /* \"#utility.yul\":7068:7185   */\n      pop\n        /* \"#utility.yul\":7224:7226   */\n      0x20\n        /* \"#utility.yul\":7250:7303   */\n      tag_420\n        /* \"#utility.yul\":7295:7302   */\n      dup7\n        /* \"#utility.yul\":7286:7292   */\n      dup3\n        /* \"#utility.yul\":7275:7284   */\n      dup8\n        /* \"#utility.yul\":7271:7293   */\n      add\n        /* \"#utility.yul\":7250:7303   */\n      tag_260\n      jump\t// in\n    tag_420:\n        /* \"#utility.yul\":7240:7303   */\n      swap3\n      pop\n        /* \"#utility.yul\":7195:7313   */\n      pop\n        /* \"#utility.yul\":7352:7354   */\n      0x40\n        /* \"#utility.yul\":7378:7431   */\n      tag_421\n        /* \"#utility.yul\":7423:7430   */\n      dup7\n        /* \"#utility.yul\":7414:7420   */\n      dup3\n        /* \"#utility.yul\":7403:7412   */\n      dup8\n        /* \"#utility.yul\":7399:7421   */\n      add\n        /* \"#utility.yul\":7378:7431   */\n      tag_255\n      jump\t// in\n    tag_421:\n        /* \"#utility.yul\":7368:7431   */\n      swap2\n      pop\n        /* \"#utility.yul\":7323:7441   */\n      pop\n        /* \"#utility.yul\":6829:7448   */\n      swap3\n      pop\n      swap3\n      pop\n      swap3\n      jump\t// out\n        /* \"#utility.yul\":7454:7783   */\n    tag_63:\n        /* \"#utility.yul\":7513:7519   */\n      0x00\n        /* \"#utility.yul\":7562:7564   */\n      0x20\n        /* \"#utility.yul\":7550:7559   */\n      dup3\n        /* \"#utility.yul\":7541:7548   */\n      dup5\n        /* \"#utility.yul\":7537:7560   */\n      sub\n        /* \"#utility.yul\":7533:7565   */\n      slt\n        /* \"#utility.yul\":7530:7649   */\n      iszero\n      tag_423\n      jumpi\n        /* \"#utility.yul\":7568:7647   */\n      tag_424\n      tag_251\n      jump\t// in\n    tag_424:\n        /* \"#utility.yul\":7530:7649   */\n    tag_423:\n        /* \"#utility.yul\":7688:7689   */\n      0x00\n        /* \"#utility.yul\":7713:7766   */\n      tag_425\n        /* \"#utility.yul\":7758:7765   */\n      dup5\n        /* \"#utility.yul\":7749:7755   */\n      dup3\n        /* \"#utility.yul\":7738:7747   */\n      dup6\n        /* \"#utility.yul\":7734:7756   */\n      add\n        /* \"#utility.yul\":7713:7766   */\n      tag_260\n      jump\t// in\n    tag_425:\n        /* \"#utility.yul\":7703:7766   */\n      swap2\n      pop\n        /* \"#utility.yul\":7659:7776   */\n      pop\n        /* \"#utility.yul\":7454:7783   */\n      swap3\n      swap2\n      pop\n      pop\n      jump\t// out\n        /* \"#utility.yul\":7789:8100   */\n    tag_270:\n        /* \"#utility.yul\":7866:7870   */\n      0x00\n        /* \"#utility.yul\":7956:7974   */\n      0xffffffffffffffff\n        /* \"#utility.yul\":7948:7954   */\n      dup3\n        /* \"#utility.yul\":7945:7975   */\n      gt\n        /* \"#utility.yul\":7942:7998   */\n      iszero\n      tag_427\n      jumpi\n        /* \"#utility.yul\":7978:7996   */\n      tag_428\n      tag_195\n      jump\t// in\n    tag_428:\n        /* \"#utility.yul\":7942:7998   */\n    tag_427:\n        /* \"#utility.yul\":8028:8032   */\n      0x20\n        /* \"#utility.yul\":8020:8026   */\n      dup3\n        /* \"#utility.yul\":8016:8033   */\n      mul\n        /* \"#utility.yul\":8008:8033   */\n      swap1\n      pop\n        /* \"#utility.yul\":8088:8092   */\n      0x20\n        /* \"#utility.yul\":8082:8086   */\n      dup2\n        /* \"#utility.yul\":8078:8093   */\n      add\n        /* \"#utility.yul\":8070:8093   */\n      swap1\n      pop\n        /* \"#utility.yul\":7789:8100   */\n      swap2\n      swap1\n      pop\n      jump\t// out\n        /* \"#utility.yul\":8106:8223   */\n    tag_271:\n        /* \"#utility.yul\":8215:8216   */\n      0x00\n        /* \"#utility.yul\":8212:8213   */\n      dup1\n        /* \"#utility.yul\":8205:8217   */\n      revert\n        /* \"#utility.yul\":8246:8956   */\n    tag_272:\n        /* \"#utility.yul\":8342:8347   */\n      0x00\n        /* \"#utility.yul\":8367:8448   */\n      tag_431\n        /* \"#utility.yul\":8383:8447   */\n      tag_432\n        /* \"#utility.yul\":8440:8446   */\n      dup5\n        /* \"#utility.yul\":8383:8447   */\n      tag_270\n      jump\t// in\n    tag_432:\n        /* \"#utility.yul\":8367:8448   */\n      tag_265\n      jump\t// in\n    tag_431:\n        /* \"#utility.yul\":8358:8448   */\n      swap1\n      pop\n        /* \"#utility.yul\":8468:8473   */\n      dup1\n        /* \"#utility.yul\":8497:8503   */\n      dup4\n        /* \"#utility.yul\":8490:8495   */\n      dup3\n        /* \"#utility.yul\":8483:8504   */\n      mstore\n        /* \"#utility.yul\":8531:8535   */\n      0x20\n        /* \"#utility.yul\":8524:8529   */\n      dup3\n        /* \"#utility.yul\":8520:8536   */\n      add\n        /* \"#utility.yul\":8513:8536   */\n      swap1\n      pop\n        /* \"#utility.yul\":8584:8588   */\n      0x20\n        /* \"#utility.yul\":8576:8582   */\n      dup5\n        /* \"#utility.yul\":8572:8589   */\n      mul\n        /* \"#utility.yul\":8564:8570   */\n      dup4\n        /* \"#utility.yul\":8560:8590   */\n      add\n        /* \"#utility.yul\":8613:8616   */\n      dup6\n        /* \"#utility.yul\":8605:8611   */\n      dup2\n        /* \"#utility.yul\":8602:8617   */\n      gt\n        /* \"#utility.yul\":8599:8721   */\n      iszero\n      tag_433\n      jumpi\n        /* \"#utility.yul\":8632:8711   */\n      tag_434\n      tag_271\n      jump\t// in\n    tag_434:\n        /* \"#utility.yul\":8599:8721   */\n    tag_433:\n        /* \"#utility.yul\":8747:8753   */\n      dup4\n        /* \"#utility.yul\":8730:8950   */\n    tag_435:\n        /* \"#utility.yul\":8764:8770   */\n      dup2\n        /* \"#utility.yul\":8759:8762   */\n      dup2\n        /* \"#utility.yul\":8756:8771   */\n      lt\n        /* \"#utility.yul\":8730:8950   */\n      iszero\n      tag_437\n      jumpi\n        /* \"#utility.yul\":8839:8842   */\n      dup1\n        /* \"#utility.yul\":8868:8905   */\n      tag_438\n        /* \"#utility.yul\":8901:8904   */\n      dup9\n        /* \"#utility.yul\":8889:8899   */\n      dup3\n        /* \"#utility.yul\":8868:8905   */\n      tag_260\n      jump\t// in\n    tag_438:\n        /* \"#utility.yul\":8863:8866   */\n      dup5\n        /* \"#utility.yul\":8856:8906   */\n      mstore\n        /* \"#utility.yul\":8935:8939   */\n      0x20\n        /* \"#utility.yul\":8930:8933   */\n      dup5\n        /* \"#utility.yul\":8926:8940   */\n      add\n        /* \"#utility.yul\":8919:8940   */\n      swap4\n      pop\n        /* \"#utility.yul\":8806:8950   */\n      pop\n        /* \"#utility.yul\":8790:8794   */\n      0x20\n        /* \"#utility.yul\":8785:8788   */\n      dup2\n        /* \"#utility.yul\":8781:8795   */\n      add\n        /* \"#utility.yul\":8774:8795   */\n      swap1\n      pop\n        /* \"#utility.yul\":8730:8950   */\n      jump(tag_435)\n    tag_437:\n        /* \"#utility.yul\":8734:8755   */\n      pop\n        /* \"#utility.yul\":8348:8956   */\n      pop\n      pop\n        /* \"#utility.yul\":8246:8956   */\n      swap4\n      swap3\n      pop\n      pop\n      pop\n      jump\t// out\n        /* \"#utility.yul\":8979:9349   */\n    tag_273:\n        /* \"#utility.yul\":9050:9055   */\n      0x00\n        /* \"#utility.yul\":9099:9102   */\n      dup3\n        /* \"#utility.yul\":9092:9096   */\n      0x1f\n        /* \"#utility.yul\":9084:9090   */\n      dup4\n        /* \"#utility.yul\":9080:9097   */\n      add\n        /* \"#utility.yul\":9076:9103   */\n      slt\n        /* \"#utility.yul\":9066:9188   */\n      tag_440\n      jumpi\n        /* \"#utility.yul\":9107:9186   */\n      tag_441\n      tag_262\n      jump\t// in\n    tag_441:\n        /* \"#utility.yul\":9066:9188   */\n    tag_440:\n        /* \"#utility.yul\":9224:9230   */\n      dup2\n        /* \"#utility.yul\":9211:9231   */\n      calldataload\n        /* \"#utility.yul\":9249:9343   */\n      tag_442\n        /* \"#utility.yul\":9339:9342   */\n      dup5\n        /* \"#utility.yul\":9331:9337   */\n      dup3\n        /* \"#utility.yul\":9324:9328   */\n      0x20\n        /* \"#utility.yul\":9316:9322   */\n      dup7\n        /* \"#utility.yul\":9312:9329   */\n      add\n        /* \"#utility.yul\":9249:9343   */\n      tag_272\n      jump\t// in\n    tag_442:\n        /* \"#utility.yul\":9240:9343   */\n      swap2\n      pop\n        /* \"#utility.yul\":9056:9349   */\n      pop\n        /* \"#utility.yul\":8979:9349   */\n      swap3\n      swap2\n      pop\n      pop\n      jump\t// out\n        /* \"#utility.yul\":9355:9676   */\n    tag_274:\n        /* \"#utility.yul\":9442:9446   */\n      0x00\n        /* \"#utility.yul\":9532:9550   */\n      0xffffffffffffffff\n        /* \"#utility.yul\":9524:9530   */\n      dup3\n        /* \"#utility.yul\":9521:9551   */\n      gt\n        /* \"#utility.yul\":9518:9574   */\n      iszero\n      tag_444\n      jumpi\n        /* \"#utility.yul\":9554:9572   */\n      tag_445\n      tag_195\n      jump\t// in\n    tag_445:\n        /* \"#utility.yul\":9518:9574   */\n    tag_444:\n        /* \"#utility.yul\":9604:9608   */\n      0x20\n        /* \"#utility.yul\":9596:9602   */\n      dup3\n        /* \"#utility.yul\":9592:9609   */\n      mul\n        /* \"#utility.yul\":9584:9609   */\n      swap1\n      pop\n        /* \"#utility.yul\":9664:9668   */\n      0x20\n        /* \"#utility.yul\":9658:9662   */\n      dup2\n        /* \"#utility.yul\":9654:9669   */\n      add\n        /* \"#utility.yul\":9646:9669   */\n      swap1\n      pop\n        /* \"#utility.yul\":9355:9676   */\n      swap2\n      swap1\n      pop\n      jump\t// out\n        /* \"#utility.yul\":9698:10643   */\n    tag_275:\n        /* \"#utility.yul\":9804:9809   */\n      0x00\n        /* \"#utility.yul\":9829:9920   */\n      tag_447\n        /* \"#utility.yul\":9845:9919   */\n      tag_448\n        /* \"#utility.yul\":9912:9918   */\n      dup5\n        /* \"#utility.yul\":9845:9919   */\n      tag_274\n      jump\t// in\n    tag_448:\n        /* \"#utility.yul\":9829:9920   */\n      tag_265\n      jump\t// in\n    tag_447:\n        /* \"#utility.yul\":9820:9920   */\n      swap1\n      pop\n        /* \"#utility.yul\":9940:9945   */\n      dup1\n        /* \"#utility.yul\":9969:9975   */\n      dup4\n        /* \"#utility.yul\":9962:9967   */\n      dup3\n        /* \"#utility.yul\":9955:9976   */\n      mstore\n        /* \"#utility.yul\":10003:10007   */\n      0x20\n        /* \"#utility.yul\":9996:10001   */\n      dup3\n        /* \"#utility.yul\":9992:10008   */\n      add\n        /* \"#utility.yul\":9985:10008   */\n      swap1\n      pop\n        /* \"#utility.yul\":10056:10060   */\n      0x20\n        /* \"#utility.yul\":10048:10054   */\n      dup5\n        /* \"#utility.yul\":10044:10061   */\n      mul\n        /* \"#utility.yul\":10036:10042   */\n      dup4\n        /* \"#utility.yul\":10032:10062   */\n      add\n        /* \"#utility.yul\":10085:10088   */\n      dup6\n        /* \"#utility.yul\":10077:10083   */\n      dup2\n        /* \"#utility.yul\":10074:10089   */\n      gt\n        /* \"#utility.yul\":10071:10193   */\n      iszero\n      tag_449\n      jumpi\n        /* \"#utility.yul\":10104:10183   */\n      tag_450\n      tag_271\n      jump\t// in\n    tag_450:\n        /* \"#utility.yul\":10071:10193   */\n    tag_449:\n        /* \"#utility.yul\":10219:10225   */\n      dup4\n        /* \"#utility.yul\":10202:10637   */\n    tag_451:\n        /* \"#utility.yul\":10236:10242   */\n      dup2\n        /* \"#utility.yul\":10231:10234   */\n      dup2\n        /* \"#utility.yul\":10228:10243   */\n      lt\n        /* \"#utility.yul\":10202:10637   */\n      iszero\n      tag_453\n      jumpi\n        /* \"#utility.yul\":10325:10328   */\n      dup1\n        /* \"#utility.yul\":10312:10329   */\n      calldataload\n        /* \"#utility.yul\":10361:10379   */\n      0xffffffffffffffff\n        /* \"#utility.yul\":10348:10359   */\n      dup2\n        /* \"#utility.yul\":10345:10380   */\n      gt\n        /* \"#utility.yul\":10342:10464   */\n      iszero\n      tag_454\n      jumpi\n        /* \"#utility.yul\":10383:10462   */\n      tag_455\n      tag_262\n      jump\t// in\n    tag_455:\n        /* \"#utility.yul\":10342:10464   */\n    tag_454:\n        /* \"#utility.yul\":10507:10518   */\n      dup1\n        /* \"#utility.yul\":10499:10505   */\n      dup7\n        /* \"#utility.yul\":10495:10519   */\n      add\n        /* \"#utility.yul\":10545:10592   */\n      tag_456\n        /* \"#utility.yul\":10588:10591   */\n      dup10\n        /* \"#utility.yul\":10576:10586   */\n      dup3\n        /* \"#utility.yul\":10545:10592   */\n      tag_269\n      jump\t// in\n    tag_456:\n        /* \"#utility.yul\":10540:10543   */\n      dup6\n        /* \"#utility.yul\":10533:10593   */\n      mstore\n        /* \"#utility.yul\":10622:10626   */\n      0x20\n        /* \"#utility.yul\":10617:10620   */\n      dup6\n        /* \"#utility.yul\":10613:10627   */\n      add\n        /* \"#utility.yul\":10606:10627   */\n      swap5\n      pop\n        /* \"#utility.yul\":10278:10637   */\n      pop\n      pop\n        /* \"#utility.yul\":10262:10266   */\n      0x20\n        /* \"#utility.yul\":10257:10260   */\n      dup2\n        /* \"#utility.yul\":10253:10267   */\n      add\n        /* \"#utility.yul\":10246:10267   */\n      swap1\n      pop\n        /* \"#utility.yul\":10202:10637   */\n      jump(tag_451)\n    tag_453:\n        /* \"#utility.yul\":10206:10227   */\n      pop\n        /* \"#utility.yul\":9810:10643   */\n      pop\n      pop\n        /* \"#utility.yul\":9698:10643   */\n      swap4\n      swap3\n      pop\n      pop\n      pop\n      jump\t// out\n        /* \"#utility.yul\":10665:11055   */\n    tag_276:\n        /* \"#utility.yul\":10746:10751   */\n      0x00\n        /* \"#utility.yul\":10795:10798   */\n      dup3\n        /* \"#utility.yul\":10788:10792   */\n      0x1f\n        /* \"#utility.yul\":10780:10786   */\n      dup4\n        /* \"#utility.yul\":10776:10793   */\n      add\n        /* \"#utility.yul\":10772:10799   */\n      slt\n        /* \"#utility.yul\":10762:10884   */\n      tag_458\n      jumpi\n        /* \"#utility.yul\":10803:10882   */\n      tag_459\n      tag_262\n      jump\t// in\n    tag_459:\n        /* \"#utility.yul\":10762:10884   */\n    tag_458:\n        /* \"#utility.yul\":10920:10926   */\n      dup2\n        /* \"#utility.yul\":10907:10927   */\n      calldataload\n        /* \"#utility.yul\":10945:11049   */\n      tag_460\n        /* \"#utility.yul\":11045:11048   */\n      dup5\n        /* \"#utility.yul\":11037:11043   */\n      dup3\n        /* \"#utility.yul\":11030:11034   */\n      0x20\n        /* \"#utility.yul\":11022:11028   */\n      dup7\n        /* \"#utility.yul\":11018:11035   */\n      add\n        /* \"#utility.yul\":10945:11049   */\n      tag_275\n      jump\t// in\n    tag_460:\n        /* \"#utility.yul\":10936:11049   */\n      swap2\n      pop\n        /* \"#utility.yul\":10752:11055   */\n      pop\n        /* \"#utility.yul\":10665:11055   */\n      swap3\n      swap2\n      pop\n      pop\n      jump\t// out\n        /* \"#utility.yul\":11061:11975   */\n    tag_74:\n        /* \"#utility.yul\":11189:11195   */\n      0x00\n        /* \"#utility.yul\":11197:11203   */\n      dup1\n        /* \"#utility.yul\":11246:11248   */\n      0x40\n        /* \"#utility.yul\":11234:11243   */\n      dup4\n        /* \"#utility.yul\":11225:11232   */\n      dup6\n        /* \"#utility.yul\":11221:11244   */\n      sub\n        /* \"#utility.yul\":11217:11249   */\n      slt\n        /* \"#utility.yul\":11214:11333   */\n      iszero\n      tag_462\n      jumpi\n        /* \"#utility.yul\":11252:11331   */\n      tag_463\n      tag_251\n      jump\t// in\n    tag_463:\n        /* \"#utility.yul\":11214:11333   */\n    tag_462:\n        /* \"#utility.yul\":11400:11401   */\n      0x00\n        /* \"#utility.yul\":11389:11398   */\n      dup4\n        /* \"#utility.yul\":11385:11402   */\n      add\n        /* \"#utility.yul\":11372:11403   */\n      calldataload\n        /* \"#utility.yul\":11430:11448   */\n      0xffffffffffffffff\n        /* \"#utility.yul\":11422:11428   */\n      dup2\n        /* \"#utility.yul\":11419:11449   */\n      gt\n        /* \"#utility.yul\":11416:11533   */\n      iszero\n      tag_464\n      jumpi\n        /* \"#utility.yul\":11452:11531   */\n      tag_465\n      tag_252\n      jump\t// in\n    tag_465:\n        /* \"#utility.yul\":11416:11533   */\n    tag_464:\n        /* \"#utility.yul\":11557:11635   */\n      tag_466\n        /* \"#utility.yul\":11627:11634   */\n      dup6\n        /* \"#utility.yul\":11618:11624   */\n      dup3\n        /* \"#utility.yul\":11607:11616   */\n      dup7\n        /* \"#utility.yul\":11603:11625   */\n      add\n        /* \"#utility.yul\":11557:11635   */\n      tag_273\n      jump\t// in\n    tag_466:\n        /* \"#utility.yul\":11547:11635   */\n      swap3\n      pop\n        /* \"#utility.yul\":11343:11645   */\n      pop\n        /* \"#utility.yul\":11712:11714   */\n      0x20\n        /* \"#utility.yul\":11701:11710   */\n      dup4\n        /* \"#utility.yul\":11697:11715   */\n      add\n        /* \"#utility.yul\":11684:11716   */\n      calldataload\n        /* \"#utility.yul\":11743:11761   */\n      0xffffffffffffffff\n        /* \"#utility.yul\":11735:11741   */\n      dup2\n        /* \"#utility.yul\":11732:11762   */\n      gt\n        /* \"#utility.yul\":11729:11846   */\n      iszero\n      tag_467\n      jumpi\n        /* \"#utility.yul\":11765:11844   */\n      tag_468\n      tag_252\n      jump\t// in\n    tag_468:\n        /* \"#utility.yul\":11729:11846   */\n    tag_467:\n        /* \"#utility.yul\":11870:11958   */\n      tag_469\n        /* \"#utility.yul\":11950:11957   */\n      dup6\n        /* \"#utility.yul\":11941:11947   */\n      dup3\n        /* \"#utility.yul\":11930:11939   */\n      dup7\n        /* \"#utility.yul\":11926:11948   */\n      add\n        /* \"#utility.yul\":11870:11958   */\n      tag_276\n      jump\t// in\n    tag_469:\n        /* \"#utility.yul\":11860:11958   */\n      swap2\n      pop\n        /* \"#utility.yul\":11655:11968   */\n      pop\n        /* \"#utility.yul\":11061:11975   */\n      swap3\n      pop\n      swap3\n      swap1\n      pop\n      jump\t// out\n        /* \"#utility.yul\":11981:12095   */\n    tag_277:\n        /* \"#utility.yul\":12048:12054   */\n      0x00\n        /* \"#utility.yul\":12082:12087   */\n      dup2\n        /* \"#utility.yul\":12076:12088   */\n      mload\n        /* \"#utility.yul\":12066:12088   */\n      swap1\n      pop\n        /* \"#utility.yul\":11981:12095   */\n      swap2\n      swap1\n      pop\n      jump\t// out\n        /* \"#utility.yul\":12101:12285   */\n    tag_278:\n        /* \"#utility.yul\":12200:12211   */\n      0x00\n        /* \"#utility.yul\":12234:12240   */\n      dup3\n        /* \"#utility.yul\":12229:12232   */\n      dup3\n        /* \"#utility.yul\":12222:12241   */\n      mstore\n        /* \"#utility.yul\":12274:12278   */\n      0x20\n        /* \"#utility.yul\":12269:12272   */\n      dup3\n        /* \"#utility.yul\":12265:12279   */\n      add\n        /* \"#utility.yul\":12250:12279   */\n      swap1\n      pop\n        /* \"#utility.yul\":12101:12285   */\n      swap3\n      swap2\n      pop\n      pop\n      jump\t// out\n        /* \"#utility.yul\":12291:12423   */\n    tag_279:\n        /* \"#utility.yul\":12358:12362   */\n      0x00\n        /* \"#utility.yul\":12381:12384   */\n      dup2\n        /* \"#utility.yul\":12373:12384   */\n      swap1\n      pop\n        /* \"#utility.yul\":12411:12415   */\n      0x20\n        /* \"#utility.yul\":12406:12409   */\n      dup3\n        /* \"#utility.yul\":12402:12416   */\n      add\n        /* \"#utility.yul\":12394:12416   */\n      swap1\n      pop\n        /* \"#utility.yul\":12291:12423   */\n      swap2\n      swap1\n      pop\n      jump\t// out\n        /* \"#utility.yul\":12429:12537   */\n    tag_280:\n        /* \"#utility.yul\":12506:12530   */\n      tag_474\n        /* \"#utility.yul\":12524:12529   */\n      dup2\n        /* \"#utility.yul\":12506:12530   */\n      tag_253\n      jump\t// in\n    tag_474:\n        /* \"#utility.yul\":12501:12504   */\n      dup3\n        /* \"#utility.yul\":12494:12531   */\n      mstore\n        /* \"#utility.yul\":12429:12537   */\n      pop\n      pop\n      jump\t// out\n        /* \"#utility.yul\":12543:12722   */\n    tag_281:\n        /* \"#utility.yul\":12612:12622   */\n      0x00\n        /* \"#utility.yul\":12633:12679   */\n      tag_476\n        /* \"#utility.yul\":12675:12678   */\n      dup4\n        /* \"#utility.yul\":12667:12673   */\n      dup4\n        /* \"#utility.yul\":12633:12679   */\n      tag_280\n      jump\t// in\n    tag_476:\n        /* \"#utility.yul\":12711:12715   */\n      0x20\n        /* \"#utility.yul\":12706:12709   */\n      dup4\n        /* \"#utility.yul\":12702:12716   */\n      add\n        /* \"#utility.yul\":12688:12716   */\n      swap1\n      pop\n        /* \"#utility.yul\":12543:12722   */\n      swap3\n      swap2\n      pop\n      pop\n      jump\t// out\n        /* \"#utility.yul\":12728:12841   */\n    tag_282:\n        /* \"#utility.yul\":12798:12802   */\n      0x00\n        /* \"#utility.yul\":12830:12834   */\n      0x20\n        /* \"#utility.yul\":12825:12828   */\n      dup3\n        /* \"#utility.yul\":12821:12835   */\n      add\n        /* \"#utility.yul\":12813:12835   */\n      swap1\n      pop\n        /* \"#utility.yul\":12728:12841   */\n      swap2\n      swap1\n      pop\n      jump\t// out\n        /* \"#utility.yul\":12877:13609   */\n    tag_283:\n        /* \"#utility.yul\":12996:12999   */\n      0x00\n        /* \"#utility.yul\":13025:13079   */\n      tag_479\n        /* \"#utility.yul\":13073:13078   */\n      dup3\n        /* \"#utility.yul\":13025:13079   */\n      tag_277\n      jump\t// in\n    tag_479:\n        /* \"#utility.yul\":13095:13181   */\n      tag_480\n        /* \"#utility.yul\":13174:13180   */\n      dup2\n        /* \"#utility.yul\":13169:13172   */\n      dup6\n        /* \"#utility.yul\":13095:13181   */\n      tag_278\n      jump\t// in\n    tag_480:\n        /* \"#utility.yul\":13088:13181   */\n      swap4\n      pop\n        /* \"#utility.yul\":13205:13261   */\n      tag_481\n        /* \"#utility.yul\":13255:13260   */\n      dup4\n        /* \"#utility.yul\":13205:13261   */\n      tag_279\n      jump\t// in\n    tag_481:\n        /* \"#utility.yul\":13284:13291   */\n      dup1\n        /* \"#utility.yul\":13315:13316   */\n      0x00\n        /* \"#utility.yul\":13300:13584   */\n    tag_482:\n        /* \"#utility.yul\":13325:13331   */\n      dup4\n        /* \"#utility.yul\":13322:13323   */\n      dup2\n        /* \"#utility.yul\":13319:13332   */\n      lt\n        /* \"#utility.yul\":13300:13584   */\n      iszero\n      tag_484\n      jumpi\n        /* \"#utility.yul\":13401:13407   */\n      dup2\n        /* \"#utility.yul\":13395:13408   */\n      mload\n        /* \"#utility.yul\":13428:13491   */\n      tag_485\n        /* \"#utility.yul\":13487:13490   */\n      dup9\n        /* \"#utility.yul\":13472:13485   */\n      dup3\n        /* \"#utility.yul\":13428:13491   */\n      tag_281\n      jump\t// in\n    tag_485:\n        /* \"#utility.yul\":13421:13491   */\n      swap8\n      pop\n        /* \"#utility.yul\":13514:13574   */\n      tag_486\n        /* \"#utility.yul\":13567:13573   */\n      dup4\n        /* \"#utility.yul\":13514:13574   */\n      tag_282\n      jump\t// in\n    tag_486:\n        /* \"#utility.yul\":13504:13574   */\n      swap3\n      pop\n        /* \"#utility.yul\":13360:13584   */\n      pop\n        /* \"#utility.yul\":13347:13348   */\n      0x01\n        /* \"#utility.yul\":13344:13345   */\n      dup2\n        /* \"#utility.yul\":13340:13349   */\n      add\n        /* \"#utility.yul\":13335:13349   */\n      swap1\n      pop\n        /* \"#utility.yul\":13300:13584   */\n      jump(tag_482)\n    tag_484:\n        /* \"#utility.yul\":13304:13318   */\n      pop\n        /* \"#utility.yul\":13600:13603   */\n      dup6\n        /* \"#utility.yul\":13593:13603   */\n      swap4\n      pop\n        /* \"#utility.yul\":13001:13609   */\n      pop\n      pop\n      pop\n        /* \"#utility.yul\":12877:13609   */\n      swap3\n      swap2\n      pop\n      pop\n      jump\t// out\n        /* \"#utility.yul\":13615:13988   */\n    tag_77:\n        /* \"#utility.yul\":13758:13762   */\n      0x00\n        /* \"#utility.yul\":13796:13798   */\n      0x20\n        /* \"#utility.yul\":13785:13794   */\n      dup3\n        /* \"#utility.yul\":13781:13799   */\n      add\n        /* \"#utility.yul\":13773:13799   */\n      swap1\n      pop\n        /* \"#utility.yul\":13845:13854   */\n      dup2\n        /* \"#utility.yul\":13839:13843   */\n      dup2\n        /* \"#utility.yul\":13835:13855   */\n      sub\n        /* \"#utility.yul\":13831:13832   */\n      0x00\n        /* \"#utility.yul\":13820:13829   */\n      dup4\n        /* \"#utility.yul\":13816:13833   */\n      add\n        /* \"#utility.yul\":13809:13856   */\n      mstore\n        /* \"#utility.yul\":13873:13981   */\n      tag_488\n        /* \"#utility.yul\":13976:13980   */\n      dup2\n        /* \"#utility.yul\":13967:13973   */\n      dup5\n        /* \"#utility.yul\":13873:13981   */\n      tag_283\n      jump\t// in\n    tag_488:\n        /* \"#utility.yul\":13865:13981   */\n      swap1\n      pop\n        /* \"#utility.yul\":13615:13988   */\n      swap3\n      swap2\n      pop\n      pop\n      jump\t// out\n        /* \"#utility.yul\":13994:14648   */\n    tag_83:\n        /* \"#utility.yul\":14072:14078   */\n      0x00\n        /* \"#utility.yul\":14080:14086   */\n      dup1\n        /* \"#utility.yul\":14129:14131   */\n      0x40\n        /* \"#utility.yul\":14117:14126   */\n      dup4\n        /* \"#utility.yul\":14108:14115   */\n      dup6\n        /* \"#utility.yul\":14104:14127   */\n      sub\n        /* \"#utility.yul\":14100:14132   */\n      slt\n        /* \"#utility.yul\":14097:14216   */\n      iszero\n      tag_490\n      jumpi\n        /* \"#utility.yul\":14135:14214   */\n      tag_491\n      tag_251\n      jump\t// in\n    tag_491:\n        /* \"#utility.yul\":14097:14216   */\n    tag_490:\n        /* \"#utility.yul\":14255:14256   */\n      0x00\n        /* \"#utility.yul\":14280:14333   */\n      tag_492\n        /* \"#utility.yul\":14325:14332   */\n      dup6\n        /* \"#utility.yul\":14316:14322   */\n      dup3\n        /* \"#utility.yul\":14305:14314   */\n      dup7\n        /* \"#utility.yul\":14301:14323   */\n      add\n        /* \"#utility.yul\":14280:14333   */\n      tag_260\n      jump\t// in\n    tag_492:\n        /* \"#utility.yul\":14270:14333   */\n      swap3\n      pop\n        /* \"#utility.yul\":14226:14343   */\n      pop\n        /* \"#utility.yul\":14410:14412   */\n      0x20\n        /* \"#utility.yul\":14399:14408   */\n      dup4\n        /* \"#utility.yul\":14395:14413   */\n      add\n        /* \"#utility.yul\":14382:14414   */\n      calldataload\n        /* \"#utility.yul\":14441:14459   */\n      0xffffffffffffffff\n        /* \"#utility.yul\":14433:14439   */\n      dup2\n        /* \"#utility.yul\":14430:14460   */\n      gt\n        /* \"#utility.yul\":14427:14544   */\n      iszero\n      tag_493\n      jumpi\n        /* \"#utility.yul\":14463:14542   */\n      tag_494\n      tag_252\n      jump\t// in\n    tag_494:\n        /* \"#utility.yul\":14427:14544   */\n    tag_493:\n        /* \"#utility.yul\":14568:14631   */\n      tag_495\n        /* \"#utility.yul\":14623:14630   */\n      dup6\n        /* \"#utility.yul\":14614:14620   */\n      dup3\n        /* \"#utility.yul\":14603:14612   */\n      dup7\n        /* \"#utility.yul\":14599:14621   */\n      add\n        /* \"#utility.yul\":14568:14631   */\n      tag_269\n      jump\t// in\n    tag_495:\n        /* \"#utility.yul\":14558:14631   */\n      swap2\n      pop\n        /* \"#utility.yul\":14353:14641   */\n      pop\n        /* \"#utility.yul\":13994:14648   */\n      swap3\n      pop\n      swap3\n      swap1\n      pop\n      jump\t// out\n        /* \"#utility.yul\":14654:14744   */\n    tag_284:\n        /* \"#utility.yul\":14688:14695   */\n      0x00\n        /* \"#utility.yul\":14731:14736   */\n      dup2\n        /* \"#utility.yul\":14724:14737   */\n      iszero\n        /* \"#utility.yul\":14717:14738   */\n      iszero\n        /* \"#utility.yul\":14706:14738   */\n      swap1\n      pop\n        /* \"#utility.yul\":14654:14744   */\n      swap2\n      swap1\n      pop\n      jump\t// out\n        /* \"#utility.yul\":14750:14866   */\n    tag_285:\n        /* \"#utility.yul\":14820:14841   */\n      tag_498\n        /* \"#utility.yul\":14835:14840   */\n      dup2\n        /* \"#utility.yul\":14820:14841   */\n      tag_284\n      jump\t// in\n    tag_498:\n        /* \"#utility.yul\":14813:14818   */\n      dup2\n        /* \"#utility.yul\":14810:14842   */\n      eq\n        /* \"#utility.yul\":14800:14860   */\n      tag_499\n      jumpi\n        /* \"#utility.yul\":14856:14857   */\n      0x00\n        /* \"#utility.yul\":14853:14854   */\n      dup1\n        /* \"#utility.yul\":14846:14858   */\n      revert\n        /* \"#utility.yul\":14800:14860   */\n    tag_499:\n        /* \"#utility.yul\":14750:14866   */\n      pop\n      jump\t// out\n        /* \"#utility.yul\":14872:15005   */\n    tag_286:\n        /* \"#utility.yul\":14915:14920   */\n      0x00\n        /* \"#utility.yul\":14953:14959   */\n      dup2\n        /* \"#utility.yul\":14940:14960   */\n      calldataload\n        /* \"#utility.yul\":14931:14960   */\n      swap1\n      pop\n        /* \"#utility.yul\":14969:14999   */\n      tag_501\n        /* \"#utility.yul\":14993:14998   */\n      dup2\n        /* \"#utility.yul\":14969:14999   */\n      tag_285\n      jump\t// in\n    tag_501:\n        /* \"#utility.yul\":14872:15005   */\n      swap3\n      swap2\n      pop\n      pop\n      jump\t// out\n        /* \"#utility.yul\":15011:15479   */\n    tag_88:\n        /* \"#utility.yul\":15076:15082   */\n      0x00\n        /* \"#utility.yul\":15084:15090   */\n      dup1\n        /* \"#utility.yul\":15133:15135   */\n      0x40\n        /* \"#utility.yul\":15121:15130   */\n      dup4\n        /* \"#utility.yul\":15112:15119   */\n      dup6\n        /* \"#utility.yul\":15108:15131   */\n      sub\n        /* \"#utility.yul\":15104:15136   */\n      slt\n        /* \"#utility.yul\":15101:15220   */\n      iszero\n      tag_503\n      jumpi\n        /* \"#utility.yul\":15139:15218   */\n      tag_504\n      tag_251\n      jump\t// in\n    tag_504:\n        /* \"#utility.yul\":15101:15220   */\n    tag_503:\n        /* \"#utility.yul\":15259:15260   */\n      0x00\n        /* \"#utility.yul\":15284:15337   */\n      tag_505\n        /* \"#utility.yul\":15329:15336   */\n      dup6\n        /* \"#utility.yul\":15320:15326   */\n      dup3\n        /* \"#utility.yul\":15309:15318   */\n      dup7\n        /* \"#utility.yul\":15305:15327   */\n      add\n        /* \"#utility.yul\":15284:15337   */\n      tag_260\n      jump\t// in\n    tag_505:\n        /* \"#utility.yul\":15274:15337   */\n      swap3\n      pop\n        /* \"#utility.yul\":15230:15347   */\n      pop\n        /* \"#utility.yul\":15386:15388   */\n      0x20\n        /* \"#utility.yul\":15412:15462   */\n      tag_506\n        /* \"#utility.yul\":15454:15461   */\n      dup6\n        /* \"#utility.yul\":15445:15451   */\n      dup3\n        /* \"#utility.yul\":15434:15443   */\n      dup7\n        /* \"#utility.yul\":15430:15452   */\n      add\n        /* \"#utility.yul\":15412:15462   */\n      tag_286\n      jump\t// in\n    tag_506:\n        /* \"#utility.yul\":15402:15462   */\n      swap2\n      pop\n        /* \"#utility.yul\":15357:15472   */\n      pop\n        /* \"#utility.yul\":15011:15479   */\n      swap3\n      pop\n      swap3\n      swap1\n      pop\n      jump\t// out\n        /* \"#utility.yul\":15485:16104   */\n    tag_92:\n        /* \"#utility.yul\":15562:15568   */\n      0x00\n        /* \"#utility.yul\":15570:15576   */\n      dup1\n        /* \"#utility.yul\":15578:15584   */\n      0x00\n        /* \"#utility.yul\":15627:15629   */\n      0x60\n        /* \"#utility.yul\":15615:15624   */\n      dup5\n        /* \"#utility.yul\":15606:15613   */\n      dup7\n        /* \"#utility.yul\":15602:15625   */\n      sub\n        /* \"#utility.yul\":15598:15630   */\n      slt\n        /* \"#utility.yul\":15595:15714   */\n      iszero\n      tag_508\n      jumpi\n        /* \"#utility.yul\":15633:15712   */\n      tag_509\n      tag_251\n      jump\t// in\n    tag_509:\n        /* \"#utility.yul\":15595:15714   */\n    tag_508:\n        /* \"#utility.yul\":15753:15754   */\n      0x00\n        /* \"#utility.yul\":15778:15831   */\n      tag_510\n        /* \"#utility.yul\":15823:15830   */\n      dup7\n        /* \"#utility.yul\":15814:15820   */\n      dup3\n        /* \"#utility.yul\":15803:15812   */\n      dup8\n        /* \"#utility.yul\":15799:15821   */\n      add\n        /* \"#utility.yul\":15778:15831   */\n      tag_255\n      jump\t// in\n    tag_510:\n        /* \"#utility.yul\":15768:15831   */\n      swap4\n      pop\n        /* \"#utility.yul\":15724:15841   */\n      pop\n        /* \"#utility.yul\":15880:15882   */\n      0x20\n        /* \"#utility.yul\":15906:15959   */\n      tag_511\n        /* \"#utility.yul\":15951:15958   */\n      dup7\n        /* \"#utility.yul\":15942:15948   */\n      dup3\n        /* \"#utility.yul\":15931:15940   */\n      dup8\n        /* \"#utility.yul\":15927:15949   */\n      add\n        /* \"#utility.yul\":15906:15959   */\n      tag_260\n      jump\t// in\n    tag_511:\n        /* \"#utility.yul\":15896:15959   */\n      swap3\n      pop\n        /* \"#utility.yul\":15851:15969   */\n      pop\n        /* \"#utility.yul\":16008:16010   */\n      0x40\n        /* \"#utility.yul\":16034:16087   */\n      tag_512\n        /* \"#utility.yul\":16079:16086   */\n      dup7\n        /* \"#utility.yul\":16070:16076   */\n      dup3\n        /* \"#utility.yul\":16059:16068   */\n      dup8\n        /* \"#utility.yul\":16055:16077   */\n      add\n        /* \"#utility.yul\":16034:16087   */\n      tag_260\n      jump\t// in\n    tag_512:\n        /* \"#utility.yul\":16024:16087   */\n      swap2\n      pop\n        /* \"#utility.yul\":15979:16097   */\n      pop\n        /* \"#utility.yul\":15485:16104   */\n      swap3\n      pop\n      swap3\n      pop\n      swap3\n      jump\t// out\n        /* \"#utility.yul\":16110:16219   */\n    tag_287:\n        /* \"#utility.yul\":16191:16212   */\n      tag_514\n        /* \"#utility.yul\":16206:16211   */\n      dup2\n        /* \"#utility.yul\":16191:16212   */\n      tag_284\n      jump\t// in\n    tag_514:\n        /* \"#utility.yul\":16186:16189   */\n      dup3\n        /* \"#utility.yul\":16179:16213   */\n      mstore\n        /* \"#utility.yul\":16110:16219   */\n      pop\n      pop\n      jump\t// out\n        /* \"#utility.yul\":16225:16435   */\n    tag_95:\n        /* \"#utility.yul\":16312:16316   */\n      0x00\n        /* \"#utility.yul\":16350:16352   */\n      0x20\n        /* \"#utility.yul\":16339:16348   */\n      dup3\n        /* \"#utility.yul\":16335:16353   */\n      add\n        /* \"#utility.yul\":16327:16353   */\n      swap1\n      pop\n        /* \"#utility.yul\":16363:16428   */\n      tag_516\n        /* \"#utility.yul\":16425:16426   */\n      0x00\n        /* \"#utility.yul\":16414:16423   */\n      dup4\n        /* \"#utility.yul\":16410:16427   */\n      add\n        /* \"#utility.yul\":16401:16407   */\n      dup5\n        /* \"#utility.yul\":16363:16428   */\n      tag_287\n      jump\t// in\n    tag_516:\n        /* \"#utility.yul\":16225:16435   */\n      swap3\n      swap2\n      pop\n      pop\n      jump\t// out\n        /* \"#utility.yul\":16441:16915   */\n    tag_98:\n        /* \"#utility.yul\":16509:16515   */\n      0x00\n        /* \"#utility.yul\":16517:16523   */\n      dup1\n        /* \"#utility.yul\":16566:16568   */\n      0x40\n        /* \"#utility.yul\":16554:16563   */\n      dup4\n        /* \"#utility.yul\":16545:16552   */\n      dup6\n        /* \"#utility.yul\":16541:16564   */\n      sub\n        /* \"#utility.yul\":16537:16569   */\n      slt\n        /* \"#utility.yul\":16534:16653   */\n      iszero\n      tag_518\n      jumpi\n        /* \"#utility.yul\":16572:16651   */\n      tag_519\n      tag_251\n      jump\t// in\n    tag_519:\n        /* \"#utility.yul\":16534:16653   */\n    tag_518:\n        /* \"#utility.yul\":16692:16693   */\n      0x00\n        /* \"#utility.yul\":16717:16770   */\n      tag_520\n        /* \"#utility.yul\":16762:16769   */\n      dup6\n        /* \"#utility.yul\":16753:16759   */\n      dup3\n        /* \"#utility.yul\":16742:16751   */\n      dup7\n        /* \"#utility.yul\":16738:16760   */\n      add\n        /* \"#utility.yul\":16717:16770   */\n      tag_260\n      jump\t// in\n    tag_520:\n        /* \"#utility.yul\":16707:16770   */\n      swap3\n      pop\n        /* \"#utility.yul\":16663:16780   */\n      pop\n        /* \"#utility.yul\":16819:16821   */\n      0x20\n        /* \"#utility.yul\":16845:16898   */\n      tag_521\n        /* \"#utility.yul\":16890:16897   */\n      dup6\n        /* \"#utility.yul\":16881:16887   */\n      dup3\n        /* \"#utility.yul\":16870:16879   */\n      dup7\n        /* \"#utility.yul\":16866:16888   */\n      add\n        /* \"#utility.yul\":16845:16898   */\n      tag_260\n      jump\t// in\n    tag_521:\n        /* \"#utility.yul\":16835:16898   */\n      swap2\n      pop\n        /* \"#utility.yul\":16790:16908   */\n      pop\n        /* \"#utility.yul\":16441:16915   */\n      swap3\n      pop\n      swap3\n      swap1\n      pop\n      jump\t// out\n        /* \"#utility.yul\":16921:17101   */\n    tag_288:\n        /* \"#utility.yul\":16969:17046   */\n      0x4e487b7100000000000000000000000000000000000000000000000000000000\n        /* \"#utility.yul\":16966:16967   */\n      0x00\n        /* \"#utility.yul\":16959:17047   */\n      mstore\n        /* \"#utility.yul\":17066:17070   */\n      0x22\n        /* \"#utility.yul\":17063:17064   */\n      0x04\n        /* \"#utility.yul\":17056:17071   */\n      mstore\n        /* \"#utility.yul\":17090:17094   */\n      0x24\n        /* \"#utility.yul\":17087:17088   */\n      0x00\n        /* \"#utility.yul\":17080:17095   */\n      revert\n        /* \"#utility.yul\":17107:17427   */\n    tag_102:\n        /* \"#utility.yul\":17151:17157   */\n      0x00\n        /* \"#utility.yul\":17188:17189   */\n      0x02\n        /* \"#utility.yul\":17182:17186   */\n      dup3\n        /* \"#utility.yul\":17178:17190   */\n      div\n        /* \"#utility.yul\":17168:17190   */\n      swap1\n      pop\n        /* \"#utility.yul\":17235:17236   */\n      0x01\n        /* \"#utility.yul\":17229:17233   */\n      dup3\n        /* \"#utility.yul\":17225:17237   */\n      and\n        /* \"#utility.yul\":17256:17274   */\n      dup1\n        /* \"#utility.yul\":17246:17327   */\n      tag_524\n      jumpi\n        /* \"#utility.yul\":17312:17316   */\n      0x7f\n        /* \"#utility.yul\":17304:17310   */\n      dup3\n        /* \"#utility.yul\":17300:17317   */\n      and\n        /* \"#utility.yul\":17290:17317   */\n      swap2\n      pop\n        /* \"#utility.yul\":17246:17327   */\n    tag_524:\n        /* \"#utility.yul\":17374:17376   */\n      0x20\n        /* \"#utility.yul\":17366:17372   */\n      dup3\n        /* \"#utility.yul\":17363:17377   */\n      lt\n        /* \"#utility.yul\":17343:17361   */\n      dup2\n        /* \"#utility.yul\":17340:17378   */\n      sub\n        /* \"#utility.yul\":17337:17421   */\n      tag_525\n      jumpi\n        /* \"#utility.yul\":17393:17411   */\n      tag_526\n      tag_288\n      jump\t// in\n    tag_526:\n        /* \"#utility.yul\":17337:17421   */\n    tag_525:\n        /* \"#utility.yul\":17158:17427   */\n      pop\n        /* \"#utility.yul\":17107:17427   */\n      swap2\n      swap1\n      pop\n      jump\t// out\n        /* \"#utility.yul\":17433:17603   */\n    tag_289:\n        /* \"#utility.yul\":17573:17595   */\n      0x546f6b656e20646f6573206e6f74206578697374000000000000000000000000\n        /* \"#utility.yul\":17569:17570   */\n      0x00\n        /* \"#utility.yul\":17561:17567   */\n      dup3\n        /* \"#utility.yul\":17557:17571   */\n      add\n        /* \"#utility.yul\":17550:17596   */\n      mstore\n        /* \"#utility.yul\":17433:17603   */\n      pop\n      jump\t// out\n        /* \"#utility.yul\":17609:17975   */\n    tag_290:\n        /* \"#utility.yul\":17751:17754   */\n      0x00\n        /* \"#utility.yul\":17772:17839   */\n      tag_529\n        /* \"#utility.yul\":17836:17838   */\n      0x14\n        /* \"#utility.yul\":17831:17834   */\n      dup4\n        /* \"#utility.yul\":17772:17839   */\n      tag_246\n      jump\t// in\n    tag_529:\n        /* \"#utility.yul\":17765:17839   */\n      swap2\n      pop\n        /* \"#utility.yul\":17848:17941   */\n      tag_530\n        /* \"#utility.yul\":17937:17940   */\n      dup3\n        /* \"#utility.yul\":17848:17941   */\n      tag_289\n      jump\t// in\n    tag_530:\n        /* \"#utility.yul\":17966:17968   */\n      0x20\n        /* \"#utility.yul\":17961:17964   */\n      dup3\n        /* \"#utility.yul\":17957:17969   */\n      add\n        /* \"#utility.yul\":17950:17969   */\n      swap1\n      pop\n        /* \"#utility.yul\":17609:17975   */\n      swap2\n      swap1\n      pop\n      jump\t// out\n        /* \"#utility.yul\":17981:18400   */\n    tag_110:\n        /* \"#utility.yul\":18147:18151   */\n      0x00\n        /* \"#utility.yul\":18185:18187   */\n      0x20\n        /* \"#utility.yul\":18174:18183   */\n      dup3\n        /* \"#utility.yul\":18170:18188   */\n      add\n        /* \"#utility.yul\":18162:18188   */\n      swap1\n      pop\n        /* \"#utility.yul\":18234:18243   */\n      dup2\n        /* \"#utility.yul\":18228:18232   */\n      dup2\n        /* \"#utility.yul\":18224:18244   */\n      sub\n        /* \"#utility.yul\":18220:18221   */\n      0x00\n        /* \"#utility.yul\":18209:18218   */\n      dup4\n        /* \"#utility.yul\":18205:18222   */\n      add\n        /* \"#utility.yul\":18198:18245   */\n      mstore\n        /* \"#utility.yul\":18262:18393   */\n      tag_532\n        /* \"#utility.yul\":18388:18392   */\n      dup2\n        /* \"#utility.yul\":18262:18393   */\n      tag_290\n      jump\t// in\n    tag_532:\n        /* \"#utility.yul\":18254:18393   */\n      swap1\n      pop\n        /* \"#utility.yul\":17981:18400   */\n      swap2\n      swap1\n      pop\n      jump\t// out\n        /* \"#utility.yul\":18406:18581   */\n    tag_291:\n        /* \"#utility.yul\":18546:18573   */\n      0x4e6f7420617574686f72697a656420746f20617070726f766500000000000000\n        /* \"#utility.yul\":18542:18543   */\n      0x00\n        /* \"#utility.yul\":18534:18540   */\n      dup3\n        /* \"#utility.yul\":18530:18544   */\n      add\n        /* \"#utility.yul\":18523:18574   */\n      mstore\n        /* \"#utility.yul\":18406:18581   */\n      pop\n      jump\t// out\n        /* \"#utility.yul\":18587:18953   */\n    tag_292:\n        /* \"#utility.yul\":18729:18732   */\n      0x00\n        /* \"#utility.yul\":18750:18817   */\n      tag_535\n        /* \"#utility.yul\":18814:18816   */\n      0x19\n        /* \"#utility.yul\":18809:18812   */\n      dup4\n        /* \"#utility.yul\":18750:18817   */\n      tag_246\n      jump\t// in\n    tag_535:\n        /* \"#utility.yul\":18743:18817   */\n      swap2\n      pop\n        /* \"#utility.yul\":18826:18919   */\n      tag_536\n        /* \"#utility.yul\":18915:18918   */\n      dup3\n        /* \"#utility.yul\":18826:18919   */\n      tag_291\n      jump\t// in\n    tag_536:\n        /* \"#utility.yul\":18944:18946   */\n      0x20\n        /* \"#utility.yul\":18939:18942   */\n      dup3\n        /* \"#utility.yul\":18935:18947   */\n      add\n        /* \"#utility.yul\":18928:18947   */\n      swap1\n      pop\n        /* \"#utility.yul\":18587:18953   */\n      swap2\n      swap1\n      pop\n      jump\t// out\n        /* \"#utility.yul\":18959:19378   */\n    tag_119:\n        /* \"#utility.yul\":19125:19129   */\n      0x00\n        /* \"#utility.yul\":19163:19165   */\n      0x20\n        /* \"#utility.yul\":19152:19161   */\n      dup3\n        /* \"#utility.yul\":19148:19166   */\n      add\n        /* \"#utility.yul\":19140:19166   */\n      swap1\n      pop\n        /* \"#utility.yul\":19212:19221   */\n      dup2\n        /* \"#utility.yul\":19206:19210   */\n      dup2\n        /* \"#utility.yul\":19202:19222   */\n      sub\n        /* \"#utility.yul\":19198:19199   */\n      0x00\n        /* \"#utility.yul\":19187:19196   */\n      dup4\n        /* \"#utility.yul\":19183:19200   */\n      add\n        /* \"#utility.yul\":19176:19223   */\n      mstore\n        /* \"#utility.yul\":19240:19371   */\n      tag_538\n        /* \"#utility.yul\":19366:19370   */\n      dup2\n        /* \"#utility.yul\":19240:19371   */\n      tag_292\n      jump\t// in\n    tag_538:\n        /* \"#utility.yul\":19232:19371   */\n      swap1\n      pop\n        /* \"#utility.yul\":18959:19378   */\n      swap2\n      swap1\n      pop\n      jump\t// out\n        /* \"#utility.yul\":19384:19554   */\n    tag_293:\n        /* \"#utility.yul\":19524:19546   */\n      0x43616e6e6f7420617070726f7665206f776e6572000000000000000000000000\n        /* \"#utility.yul\":19520:19521   */\n      0x00\n        /* \"#utility.yul\":19512:19518   */\n      dup3\n        /* \"#utility.yul\":19508:19522   */\n      add\n        /* \"#utility.yul\":19501:19547   */\n      mstore\n        /* \"#utility.yul\":19384:19554   */\n      pop\n      jump\t// out\n        /* \"#utility.yul\":19560:19926   */\n    tag_294:\n        /* \"#utility.yul\":19702:19705   */\n      0x00\n        /* \"#utility.yul\":19723:19790   */\n      tag_541\n        /* \"#utility.yul\":19787:19789   */\n      0x14\n        /* \"#utility.yul\":19782:19785   */\n      dup4\n        /* \"#utility.yul\":19723:19790   */\n      tag_246\n      jump\t// in\n    tag_541:\n        /* \"#utility.yul\":19716:19790   */\n      swap2\n      pop\n        /* \"#utility.yul\":19799:19892   */\n      tag_542\n        /* \"#utility.yul\":19888:19891   */\n      dup3\n        /* \"#utility.yul\":19799:19892   */\n      tag_293\n      jump\t// in\n    tag_542:\n        /* \"#utility.yul\":19917:19919   */\n      0x20\n        /* \"#utility.yul\":19912:19915   */\n      dup3\n        /* \"#utility.yul\":19908:19920   */\n      add\n        /* \"#utility.yul\":19901:19920   */\n      swap1\n      pop\n        /* \"#utility.yul\":19560:19926   */\n      swap2\n      swap1\n      pop\n      jump\t// out\n        /* \"#utility.yul\":19932:20351   */\n    tag_122:\n        /* \"#utility.yul\":20098:20102   */\n      0x00\n        /* \"#utility.yul\":20136:20138   */\n      0x20\n        /* \"#utility.yul\":20125:20134   */\n      dup3\n        /* \"#utility.yul\":20121:20139   */\n      add\n        /* \"#utility.yul\":20113:20139   */\n      swap1\n      pop\n        /* \"#utility.yul\":20185:20194   */\n      dup2\n        /* \"#utility.yul\":20179:20183   */\n      dup2\n        /* \"#utility.yul\":20175:20195   */\n      sub\n        /* \"#utility.yul\":20171:20172   */\n      0x00\n        /* \"#utility.yul\":20160:20169   */\n      dup4\n        /* \"#utility.yul\":20156:20173   */\n      add\n        /* \"#utility.yul\":20149:20196   */\n      mstore\n        /* \"#utility.yul\":20213:20344   */\n      tag_544\n        /* \"#utility.yul\":20339:20343   */\n      dup2\n        /* \"#utility.yul\":20213:20344   */\n      tag_294\n      jump\t// in\n    tag_544:\n        /* \"#utility.yul\":20205:20344   */\n      swap1\n      pop\n        /* \"#utility.yul\":19932:20351   */\n      swap2\n      swap1\n      pop\n      jump\t// out\n        /* \"#utility.yul\":20357:20537   */\n    tag_295:\n        /* \"#utility.yul\":20405:20482   */\n      0x4e487b7100000000000000000000000000000000000000000000000000000000\n        /* \"#utility.yul\":20402:20403   */\n      0x00\n        /* \"#utility.yul\":20395:20483   */\n      mstore\n        /* \"#utility.yul\":20502:20506   */\n      0x11\n        /* \"#utility.yul\":20499:20500   */\n      0x04\n        /* \"#utility.yul\":20492:20507   */\n      mstore\n        /* \"#utility.yul\":20526:20530   */\n      0x24\n        /* \"#utility.yul\":20523:20524   */\n      0x00\n        /* \"#utility.yul\":20516:20531   */\n      revert\n        /* \"#utility.yul\":20543:20737   */\n    tag_125:\n        /* \"#utility.yul\":20583:20587   */\n      0x00\n        /* \"#utility.yul\":20603:20623   */\n      tag_547\n        /* \"#utility.yul\":20621:20622   */\n      dup3\n        /* \"#utility.yul\":20603:20623   */\n      tag_253\n      jump\t// in\n    tag_547:\n        /* \"#utility.yul\":20598:20623   */\n      swap2\n      pop\n        /* \"#utility.yul\":20637:20657   */\n      tag_548\n        /* \"#utility.yul\":20655:20656   */\n      dup4\n        /* \"#utility.yul\":20637:20657   */\n      tag_253\n      jump\t// in\n    tag_548:\n        /* \"#utility.yul\":20632:20657   */\n      swap3\n      pop\n        /* \"#utility.yul\":20681:20682   */\n      dup3\n        /* \"#utility.yul\":20678:20679   */\n      dup3\n        /* \"#utility.yul\":20674:20683   */\n      sub\n        /* \"#utility.yul\":20666:20683   */\n      swap1\n      pop\n        /* \"#utility.yul\":20705:20706   */\n      dup2\n        /* \"#utility.yul\":20699:20703   */\n      dup2\n        /* \"#utility.yul\":20696:20707   */\n      gt\n        /* \"#utility.yul\":20693:20730   */\n      iszero\n      tag_549\n      jumpi\n        /* \"#utility.yul\":20710:20728   */\n      tag_550\n      tag_295\n      jump\t// in\n    tag_550:\n        /* \"#utility.yul\":20693:20730   */\n    tag_549:\n        /* \"#utility.yul\":20543:20737   */\n      swap3\n      swap2\n      pop\n      pop\n      jump\t// out\n        /* \"#utility.yul\":20743:20917   */\n    tag_296:\n        /* \"#utility.yul\":20883:20909   */\n      0x4f6e6c79206f776e65722063616e2063616c6c20746869730000000000000000\n        /* \"#utility.yul\":20879:20880   */\n      0x00\n        /* \"#utility.yul\":20871:20877   */\n      dup3\n        /* \"#utility.yul\":20867:20881   */\n      add\n        /* \"#utility.yul\":20860:20910   */\n      mstore\n        /* \"#utility.yul\":20743:20917   */\n      pop\n      jump\t// out\n        /* \"#utility.yul\":20923:21289   */\n    tag_297:\n        /* \"#utility.yul\":21065:21068   */\n      0x00\n        /* \"#utility.yul\":21086:21153   */\n      tag_553\n        /* \"#utility.yul\":21150:21152   */\n      0x18\n        /* \"#utility.yul\":21145:21148   */\n      dup4\n        /* \"#utility.yul\":21086:21153   */\n      tag_246\n      jump\t// in\n    tag_553:\n        /* \"#utility.yul\":21079:21153   */\n      swap2\n      pop\n        /* \"#utility.yul\":21162:21255   */\n      tag_554\n        /* \"#utility.yul\":21251:21254   */\n      dup3\n        /* \"#utility.yul\":21162:21255   */\n      tag_296\n      jump\t// in\n    tag_554:\n        /* \"#utility.yul\":21280:21282   */\n      0x20\n        /* \"#utility.yul\":21275:21278   */\n      dup3\n        /* \"#utility.yul\":21271:21283   */\n      add\n        /* \"#utility.yul\":21264:21283   */\n      swap1\n      pop\n        /* \"#utility.yul\":20923:21289   */\n      swap2\n      swap1\n      pop\n      jump\t// out\n        /* \"#utility.yul\":21295:21714   */\n    tag_129:\n        /* \"#utility.yul\":21461:21465   */\n      0x00\n        /* \"#utility.yul\":21499:21501   */\n      0x20\n        /* \"#utility.yul\":21488:21497   */\n      dup3\n        /* \"#utility.yul\":21484:21502   */\n      add\n        /* \"#utility.yul\":21476:21502   */\n      swap1\n      pop\n        /* \"#utility.yul\":21548:21557   */\n      dup2\n        /* \"#utility.yul\":21542:21546   */\n      dup2\n        /* \"#utility.yul\":21538:21558   */\n      sub\n        /* \"#utility.yul\":21534:21535   */\n      0x00\n        /* \"#utility.yul\":21523:21532   */\n      dup4\n        /* \"#utility.yul\":21519:21536   */\n      add\n        /* \"#utility.yul\":21512:21559   */\n      mstore\n        /* \"#utility.yul\":21576:21707   */\n      tag_556\n        /* \"#utility.yul\":21702:21706   */\n      dup2\n        /* \"#utility.yul\":21576:21707   */\n      tag_297\n      jump\t// in\n    tag_556:\n        /* \"#utility.yul\":21568:21707   */\n      swap1\n      pop\n        /* \"#utility.yul\":21295:21714   */\n      swap2\n      swap1\n      pop\n      jump\t// out\n        /* \"#utility.yul\":21720:21889   */\n    tag_298:\n        /* \"#utility.yul\":21860:21881   */\n      0x5552492063616e6e6f7420626520656d70747900000000000000000000000000\n        /* \"#utility.yul\":21856:21857   */\n      0x00\n        /* \"#utility.yul\":21848:21854   */\n      dup3\n        /* \"#utility.yul\":21844:21858   */\n      add\n        /* \"#utility.yul\":21837:21882   */\n      mstore\n        /* \"#utility.yul\":21720:21889   */\n      pop\n      jump\t// out\n        /* \"#utility.yul\":21895:22261   */\n    tag_299:\n        /* \"#utility.yul\":22037:22040   */\n      0x00\n        /* \"#utility.yul\":22058:22125   */\n      tag_559\n        /* \"#utility.yul\":22122:22124   */\n      0x13\n        /* \"#utility.yul\":22117:22120   */\n      dup4\n        /* \"#utility.yul\":22058:22125   */\n      tag_246\n      jump\t// in\n    tag_559:\n        /* \"#utility.yul\":22051:22125   */\n      swap2\n      pop\n        /* \"#utility.yul\":22134:22227   */\n      tag_560\n        /* \"#utility.yul\":22223:22226   */\n      dup3\n        /* \"#utility.yul\":22134:22227   */\n      tag_298\n      jump\t// in\n    tag_560:\n        /* \"#utility.yul\":22252:22254   */\n      0x20\n        /* \"#utility.yul\":22247:22250   */\n      dup3\n        /* \"#utility.yul\":22243:22255   */\n      add\n        /* \"#utility.yul\":22236:22255   */\n      swap1\n      pop\n        /* \"#utility.yul\":21895:22261   */\n      swap2\n      swap1\n      pop\n      jump\t// out\n        /* \"#utility.yul\":22267:22686   */\n    tag_136:\n        /* \"#utility.yul\":22433:22437   */\n      0x00\n        /* \"#utility.yul\":22471:22473   */\n      0x20\n        /* \"#utility.yul\":22460:22469   */\n      dup3\n        /* \"#utility.yul\":22456:22474   */\n      add\n        /* \"#utility.yul\":22448:22474   */\n      swap1\n      pop\n        /* \"#utility.yul\":22520:22529   */\n      dup2\n        /* \"#utility.yul\":22514:22518   */\n      dup2\n        /* \"#utility.yul\":22510:22530   */\n      sub\n        /* \"#utility.yul\":22506:22507   */\n      0x00\n        /* \"#utility.yul\":22495:22504   */\n      dup4\n        /* \"#utility.yul\":22491:22508   */\n      add\n        /* \"#utility.yul\":22484:22531   */\n      mstore\n        /* \"#utility.yul\":22548:22679   */\n      tag_562\n        /* \"#utility.yul\":22674:22678   */\n      dup2\n        /* \"#utility.yul\":22548:22679   */\n      tag_299\n      jump\t// in\n    tag_562:\n        /* \"#utility.yul\":22540:22679   */\n      swap1\n      pop\n        /* \"#utility.yul\":22267:22686   */\n      swap2\n      swap1\n      pop\n      jump\t// out\n        /* \"#utility.yul\":22692:22833   */\n    tag_300:\n        /* \"#utility.yul\":22741:22745   */\n      0x00\n        /* \"#utility.yul\":22764:22767   */\n      dup2\n        /* \"#utility.yul\":22756:22767   */\n      swap1\n      pop\n        /* \"#utility.yul\":22787:22790   */\n      dup2\n        /* \"#utility.yul\":22784:22785   */\n      0x00\n        /* \"#utility.yul\":22777:22791   */\n      mstore\n        /* \"#utility.yul\":22821:22825   */\n      0x20\n        /* \"#utility.yul\":22818:22819   */\n      0x00\n        /* \"#utility.yul\":22808:22826   */\n      keccak256\n        /* \"#utility.yul\":22800:22826   */\n      swap1\n      pop\n        /* \"#utility.yul\":22692:22833   */\n      swap2\n      swap1\n      pop\n      jump\t// out\n        /* \"#utility.yul\":22839:22932   */\n    tag_301:\n        /* \"#utility.yul\":22876:22882   */\n      0x00\n        /* \"#utility.yul\":22923:22925   */\n      0x20\n        /* \"#utility.yul\":22918:22920   */\n      0x1f\n        /* \"#utility.yul\":22911:22916   */\n      dup4\n        /* \"#utility.yul\":22907:22921   */\n      add\n        /* \"#utility.yul\":22903:22926   */\n      div\n        /* \"#utility.yul\":22893:22926   */\n      swap1\n      pop\n        /* \"#utility.yul\":22839:22932   */\n      swap2\n      swap1\n      pop\n      jump\t// out\n        /* \"#utility.yul\":22938:23045   */\n    tag_302:\n        /* \"#utility.yul\":22982:22990   */\n      0x00\n        /* \"#utility.yul\":23032:23037   */\n      dup3\n        /* \"#utility.yul\":23026:23030   */\n      dup3\n        /* \"#utility.yul\":23022:23038   */\n      shl\n        /* \"#utility.yul\":23001:23038   */\n      swap1\n      pop\n        /* \"#utility.yul\":22938:23045   */\n      swap3\n      swap2\n      pop\n      pop\n      jump\t// out\n        /* \"#utility.yul\":23051:23444   */\n    tag_303:\n        /* \"#utility.yul\":23120:23126   */\n      0x00\n        /* \"#utility.yul\":23170:23171   */\n      0x08\n        /* \"#utility.yul\":23158:23168   */\n      dup4\n        /* \"#utility.yul\":23154:23172   */\n      mul\n        /* \"#utility.yul\":23193:23290   */\n      tag_567\n        /* \"#utility.yul\":23223:23289   */\n      0xffffffffffffffffffffffffffffffffffffffffffffffffffffffffffffffff\n        /* \"#utility.yul\":23212:23221   */\n      dup3\n        /* \"#utility.yul\":23193:23290   */\n      tag_302\n      jump\t// in\n    tag_567:\n        /* \"#utility.yul\":23311:23350   */\n      tag_568\n        /* \"#utility.yul\":23341:23349   */\n      dup7\n        /* \"#utility.yul\":23330:23339   */\n      dup4\n        /* \"#utility.yul\":23311:23350   */\n      tag_302\n      jump\t// in\n    tag_568:\n        /* \"#utility.yul\":23299:23350   */\n      swap6\n      pop\n        /* \"#utility.yul\":23383:23387   */\n      dup1\n        /* \"#utility.yul\":23379:23388   */\n      not\n        /* \"#utility.yul\":23372:23377   */\n      dup5\n        /* \"#utility.yul\":23368:23389   */\n      and\n        /* \"#utility.yul\":23359:23389   */\n      swap4\n      pop\n        /* \"#utility.yul\":23432:23436   */\n      dup1\n        /* \"#utility.yul\":23422:23430   */\n      dup7\n        /* \"#utility.yul\":23418:23437   */\n      and\n        /* \"#utility.yul\":23411:23416   */\n      dup5\n        /* \"#utility.yul\":23408:23438   */\n      or\n        /* \"#utility.yul\":23398:23438   */\n      swap3\n      pop\n        /* \"#utility.yul\":23127:23444   */\n      pop\n      pop\n        /* \"#utility.yul\":23051:23444   */\n      swap4\n      swap3\n      pop\n      pop\n      pop\n      jump\t// out\n        /* \"#utility.yul\":23450:23510   */\n    tag_304:\n        /* \"#utility.yul\":23478:23481   */\n      0x00\n        /* \"#utility.yul\":23499:23504   */\n      dup2\n        /* \"#utility.yul\":23492:23504   */\n      swap1\n      pop\n        /* \"#utility.yul\":23450:23510   */\n      swap2\n      swap1\n      pop\n      jump\t// out\n        /* \"#utility.yul\":23516:23658   */\n    tag_305:\n        /* \"#utility.yul\":23566:23575   */\n      0x00\n        /* \"#utility.yul\":23599:23652   */\n      tag_571\n        /* \"#utility.yul\":23617:23651   */\n      tag_572\n        /* \"#utility.yul\":23626:23650   */\n      tag_573\n        /* \"#utility.yul\":23644:23649   */\n      dup5\n        /* \"#utility.yul\":23626:23650   */\n      tag_253\n      jump\t// in\n    tag_573:\n        /* \"#utility.yul\":23617:23651   */\n      tag_304\n      jump\t// in\n    tag_572:\n        /* \"#utility.yul\":23599:23652   */\n      tag_253\n      jump\t// in\n    tag_571:\n        /* \"#utility.yul\":23586:23652   */\n      swap1\n      pop\n        /* \"#utility.yul\":23516:23658   */\n      swap2\n      swap1\n      pop\n      jump\t// out\n        /* \"#utility.yul\":23664:23739   */\n    tag_306:\n        /* \"#utility.yul\":23707:23710   */\n      0x00\n        /* \"#utility.yul\":23728:23733   */\n      dup2\n        /* \"#utility.yul\":23721:23733   */\n      swap1\n      pop\n        /* \"#utility.yul\":23664:23739   */\n      swap2\n      swap1\n      pop\n      jump\t// out\n        /* \"#utility.yul\":23745:24014   */\n    tag_307:\n        /* \"#utility.yul\":23855:23894   */\n      tag_576\n        /* \"#utility.yul\":23886:23893   */\n      dup4\n        /* \"#utility.yul\":23855:23894   */\n      tag_305\n      jump\t// in\n    tag_576:\n        /* \"#utility.yul\":23916:24007   */\n      tag_577\n        /* \"#utility.yul\":23965:24006   */\n      tag_578\n        /* \"#utility.yul\":23989:24005   */\n      dup3\n        /* \"#utility.yul\":23965:24006   */\n      tag_306\n      jump\t// in\n    tag_578:\n        /* \"#utility.yul\":23957:23963   */\n      dup5\n        /* \"#utility.yul\":23950:23954   */\n      dup5\n        /* \"#utility.yul\":23944:23955   */\n      sload\n        /* \"#utility.yul\":23916:24007   */\n      tag_303\n      jump\t// in\n    tag_577:\n        /* \"#utility.yul\":23910:23914   */\n      dup3\n        /* \"#utility.yul\":23903:24008   */\n      sstore\n        /* \"#utility.yul\":23821:24014   */\n      pop\n        /* \"#utility.yul\":23745:24014   */\n      pop\n      pop\n      pop\n      jump\t// out\n        /* \"#utility.yul\":24020:24093   */\n    tag_308:\n        /* \"#utility.yul\":24065:24068   */\n      0x00\n        /* \"#utility.yul\":24020:24093   */\n      swap1\n      jump\t// out\n        /* \"#utility.yul\":24099:24288   */\n    tag_309:\n        /* \"#utility.yul\":24176:24208   */\n      tag_581\n      tag_308\n      jump\t// in\n    tag_581:\n        /* \"#utility.yul\":24217:24282   */\n      tag_582\n        /* \"#utility.yul\":24275:24281   */\n      dup2\n        /* \"#utility.yul\":24267:24273   */\n      dup5\n        /* \"#utility.yul\":24261:24265   */\n      dup5\n        /* \"#utility.yul\":24217:24282   */\n      tag_307\n      jump\t// in\n    tag_582:\n        /* \"#utility.yul\":24152:24288   */\n      pop\n        /* \"#utility.yul\":24099:24288   */\n      pop\n      pop\n      jump\t// out\n        /* \"#utility.yul\":24294:24480   */\n    tag_310:\n        /* \"#utility.yul\":24354:24474   */\n    tag_584:\n        /* \"#utility.yul\":24371:24374   */\n      dup2\n        /* \"#utility.yul\":24364:24369   */\n      dup2\n        /* \"#utility.yul\":24361:24375   */\n      lt\n        /* \"#utility.yul\":24354:24474   */\n      iszero\n      tag_586\n      jumpi\n        /* \"#utility.yul\":24425:24464   */\n      tag_587\n        /* \"#utility.yul\":24462:24463   */\n      0x00\n        /* \"#utility.yul\":24455:24460   */\n      dup3\n        /* \"#utility.yul\":24425:24464   */\n      tag_309\n      jump\t// in\n    tag_587:\n        /* \"#utility.yul\":24398:24399   */\n      0x01\n        /* \"#utility.yul\":24391:24396   */\n      dup2\n        /* \"#utility.yul\":24387:24400   */\n      add\n        /* \"#utility.yul\":24378:24400   */\n      swap1\n      pop\n        /* \"#utility.yul\":24354:24474   */\n      jump(tag_584)\n    tag_586:\n        /* \"#utility.yul\":24294:24480   */\n      pop\n      pop\n      jump\t// out\n        /* \"#utility.yul\":24486:25029   */\n    tag_311:\n        /* \"#utility.yul\":24587:24589   */\n      0x1f\n        /* \"#utility.yul\":24582:24585   */\n      dup3\n        /* \"#utility.yul\":24579:24590   */\n      gt\n        /* \"#utility.yul\":24576:25022   */\n      iszero\n      tag_589\n      jumpi\n        /* \"#utility.yul\":24621:24659   */\n      tag_590\n        /* \"#utility.yul\":24653:24658   */\n      dup2\n        /* \"#utility.yul\":24621:24659   */\n      tag_300\n      jump\t// in\n    tag_590:\n        /* \"#utility.yul\":24705:24734   */\n      tag_591\n        /* \"#utility.yul\":24723:24733   */\n      dup5\n        /* \"#utility.yul\":24705:24734   */\n      tag_301\n      jump\t// in\n    tag_591:\n        /* \"#utility.yul\":24695:24703   */\n      dup2\n        /* \"#utility.yul\":24691:24735   */\n      add\n        /* \"#utility.yul\":24888:24890   */\n      0x20\n        /* \"#utility.yul\":24876:24886   */\n      dup6\n        /* \"#utility.yul\":24873:24891   */\n      lt\n        /* \"#utility.yul\":24870:24919   */\n      iszero\n      tag_592\n      jumpi\n        /* \"#utility.yul\":24909:24917   */\n      dup2\n        /* \"#utility.yul\":24894:24917   */\n      swap1\n      pop\n        /* \"#utility.yul\":24870:24919   */\n    tag_592:\n        /* \"#utility.yul\":24932:25012   */\n      tag_593\n        /* \"#utility.yul\":24988:25010   */\n      tag_594\n        /* \"#utility.yul\":25006:25009   */\n      dup6\n        /* \"#utility.yul\":24988:25010   */\n      tag_301\n      jump\t// in\n    tag_594:\n        /* \"#utility.yul\":24978:24986   */\n      dup4\n        /* \"#utility.yul\":24974:25011   */\n      add\n        /* \"#utility.yul\":24961:24972   */\n      dup3\n        /* \"#utility.yul\":24932:25012   */\n      tag_310\n      jump\t// in\n    tag_593:\n        /* \"#utility.yul\":24591:25022   */\n      pop\n      pop\n        /* \"#utility.yul\":24576:25022   */\n    tag_589:\n        /* \"#utility.yul\":24486:25029   */\n      pop\n      pop\n      pop\n      jump\t// out\n        /* \"#utility.yul\":25035:25152   */\n    tag_312:\n        /* \"#utility.yul\":25089:25097   */\n      0x00\n        /* \"#utility.yul\":25139:25144   */\n      dup3\n        /* \"#utility.yul\":25133:25137   */\n      dup3\n        /* \"#utility.yul\":25129:25145   */\n      shr\n        /* \"#utility.yul\":25108:25145   */\n      swap1\n      pop\n        /* \"#utility.yul\":25035:25152   */\n      swap3\n      swap2\n      pop\n      pop\n      jump\t// out\n        /* \"#utility.yul\":25158:25327   */\n    tag_313:\n        /* \"#utility.yul\":25202:25208   */\n      0x00\n        /* \"#utility.yul\":25235:25286   */\n      tag_597\n        /* \"#utility.yul\":25283:25284   */\n      0x00\n        /* \"#utility.yul\":25279:25285   */\n      not\n        /* \"#utility.yul\":25271:25276   */\n      dup5\n        /* \"#utility.yul\":25268:25269   */\n      0x08\n        /* \"#utility.yul\":25264:25277   */\n      mul\n        /* \"#utility.yul\":25235:25286   */\n      tag_312\n      jump\t// in\n    tag_597:\n        /* \"#utility.yul\":25231:25287   */\n      not\n        /* \"#utility.yul\":25316:25320   */\n      dup1\n        /* \"#utility.yul\":25310:25314   */\n      dup4\n        /* \"#utility.yul\":25306:25321   */\n      and\n        /* \"#utility.yul\":25296:25321   */\n      swap2\n      pop\n        /* \"#utility.yul\":25209:25327   */\n      pop\n        /* \"#utility.yul\":25158:25327   */\n      swap3\n      swap2\n      pop\n      pop\n      jump\t// out\n        /* \"#utility.yul\":25332:25627   */\n    tag_314:\n        /* \"#utility.yul\":25408:25412   */\n      0x00\n        /* \"#utility.yul\":25554:25583   */\n      tag_599\n        /* \"#utility.yul\":25579:25582   */\n      dup4\n        /* \"#utility.yul\":25573:25577   */\n      dup4\n        /* \"#utility.yul\":25554:25583   */\n      tag_313\n      jump\t// in\n    tag_599:\n        /* \"#utility.yul\":25546:25583   */\n      swap2\n      pop\n        /* \"#utility.yul\":25616:25619   */\n      dup3\n        /* \"#utility.yul\":25613:25614   */\n      0x02\n        /* \"#utility.yul\":25609:25620   */\n      mul\n        /* \"#utility.yul\":25603:25607   */\n      dup3\n        /* \"#utility.yul\":25600:25621   */\n      or\n        /* \"#utility.yul\":25592:25621   */\n      swap1\n      pop\n        /* \"#utility.yul\":25332:25627   */\n      swap3\n      swap2\n      pop\n      pop\n      jump\t// out\n        /* \"#utility.yul\":25632:27027   */\n    tag_138:\n        /* \"#utility.yul\":25749:25786   */\n      tag_601\n        /* \"#utility.yul\":25782:25785   */\n      dup3\n        /* \"#utility.yul\":25749:25786   */\n      tag_245\n      jump\t// in\n    tag_601:\n        /* \"#utility.yul\":25851:25869   */\n      0xffffffffffffffff\n        /* \"#utility.yul\":25843:25849   */\n      dup2\n        /* \"#utility.yul\":25840:25870   */\n      gt\n        /* \"#utility.yul\":25837:25893   */\n      iszero\n      tag_602\n      jumpi\n        /* \"#utility.yul\":25873:25891   */\n      tag_603\n      tag_195\n      jump\t// in\n    tag_603:\n        /* \"#utility.yul\":25837:25893   */\n    tag_602:\n        /* \"#utility.yul\":25917:25955   */\n      tag_604\n        /* \"#utility.yul\":25949:25953   */\n      dup3\n        /* \"#utility.yul\":25943:25954   */\n      sload\n        /* \"#utility.yul\":25917:25955   */\n      tag_102\n      jump\t// in\n    tag_604:\n        /* \"#utility.yul\":26002:26069   */\n      tag_605\n        /* \"#utility.yul\":26062:26068   */\n      dup3\n        /* \"#utility.yul\":26054:26060   */\n      dup3\n        /* \"#utility.yul\":26048:26052   */\n      dup6\n        /* \"#utility.yul\":26002:26069   */\n      tag_311\n      jump\t// in\n    tag_605:\n        /* \"#utility.yul\":26096:26097   */\n      0x00\n        /* \"#utility.yul\":26120:26124   */\n      0x20\n        /* \"#utility.yul\":26107:26124   */\n      swap1\n      pop\n        /* \"#utility.yul\":26152:26154   */\n      0x1f\n        /* \"#utility.yul\":26144:26150   */\n      dup4\n        /* \"#utility.yul\":26141:26155   */\n      gt\n        /* \"#utility.yul\":26169:26170   */\n      0x01\n        /* \"#utility.yul\":26164:26782   */\n      dup2\n      eq\n      tag_607\n      jumpi\n        /* \"#utility.yul\":26826:26827   */\n      0x00\n        /* \"#utility.yul\":26843:26849   */\n      dup5\n        /* \"#utility.yul\":26840:26917   */\n      iszero\n      tag_608\n      jumpi\n        /* \"#utility.yul\":26892:26901   */\n      dup3\n        /* \"#utility.yul\":26887:26890   */\n      dup8\n        /* \"#utility.yul\":26883:26902   */\n      add\n        /* \"#utility.yul\":26877:26903   */\n      mload\n        /* \"#utility.yul\":26868:26903   */\n      swap1\n      pop\n        /* \"#utility.yul\":26840:26917   */\n    tag_608:\n        /* \"#utility.yul\":26943:27010   */\n      tag_609\n        /* \"#utility.yul\":27003:27009   */\n      dup6\n        /* \"#utility.yul\":26996:27001   */\n      dup3\n        /* \"#utility.yul\":26943:27010   */\n      tag_314\n      jump\t// in\n    tag_609:\n        /* \"#utility.yul\":26937:26941   */\n      dup7\n        /* \"#utility.yul\":26930:27011   */\n      sstore\n        /* \"#utility.yul\":26799:27021   */\n      pop\n        /* \"#utility.yul\":26134:27021   */\n      jump(tag_606)\n        /* \"#utility.yul\":26164:26782   */\n    tag_607:\n        /* \"#utility.yul\":26216:26220   */\n      0x1f\n        /* \"#utility.yul\":26212:26221   */\n      not\n        /* \"#utility.yul\":26204:26210   */\n      dup5\n        /* \"#utility.yul\":26200:26222   */\n      and\n        /* \"#utility.yul\":26250:26287   */\n      tag_610\n        /* \"#utility.yul\":26282:26286   */\n      dup7\n        /* \"#utility.yul\":26250:26287   */\n      tag_300\n      jump\t// in\n    tag_610:\n        /* \"#utility.yul\":26309:26310   */\n      0x00\n        /* \"#utility.yul\":26323:26531   */\n    tag_611:\n        /* \"#utility.yul\":26337:26344   */\n      dup3\n        /* \"#utility.yul\":26334:26335   */\n      dup2\n        /* \"#utility.yul\":26331:26345   */\n      lt\n        /* \"#utility.yul\":26323:26531   */\n      iszero\n      tag_613\n      jumpi\n        /* \"#utility.yul\":26416:26425   */\n      dup5\n        /* \"#utility.yul\":26411:26414   */\n      dup10\n        /* \"#utility.yul\":26407:26426   */\n      add\n        /* \"#utility.yul\":26401:26427   */\n      mload\n        /* \"#utility.yul\":26393:26399   */\n      dup3\n        /* \"#utility.yul\":26386:26428   */\n      sstore\n        /* \"#utility.yul\":26467:26468   */\n      0x01\n        /* \"#utility.yul\":26459:26465   */\n      dup3\n        /* \"#utility.yul\":26455:26469   */\n      add\n        /* \"#utility.yul\":26445:26469   */\n      swap2\n      pop\n        /* \"#utility.yul\":26514:26516   */\n      0x20\n        /* \"#utility.yul\":26503:26512   */\n      dup6\n        /* \"#utility.yul\":26499:26517   */\n      add\n        /* \"#utility.yul\":26486:26517   */\n      swap5\n      pop\n        /* \"#utility.yul\":26360:26364   */\n      0x20\n        /* \"#utility.yul\":26357:26358   */\n      dup2\n        /* \"#utility.yul\":26353:26365   */\n      add\n        /* \"#utility.yul\":26348:26365   */\n      swap1\n      pop\n        /* \"#utility.yul\":26323:26531   */\n      jump(tag_611)\n    tag_613:\n        /* \"#utility.yul\":26559:26565   */\n      dup7\n        /* \"#utility.yul\":26550:26557   */\n      dup4\n        /* \"#utility.yul\":26547:26566   */\n      lt\n        /* \"#utility.yul\":26544:26723   */\n      iszero\n      tag_614\n      jumpi\n        /* \"#utility.yul\":26617:26626   */\n      dup5\n        /* \"#utility.yul\":26612:26615   */\n      dup10\n        /* \"#utility.yul\":26608:26627   */\n      add\n        /* \"#utility.yul\":26602:26628   */\n      mload\n        /* \"#utility.yul\":26660:26708   */\n      tag_615\n        /* \"#utility.yul\":26702:26706   */\n      0x1f\n        /* \"#utility.yul\":26694:26700   */\n      dup10\n        /* \"#utility.yul\":26690:26707   */\n      and\n        /* \"#utility.yul\":26679:26688   */\n      dup3\n        /* \"#utility.yul\":26660:26708   */\n      tag_313\n      jump\t// in\n    tag_615:\n        /* \"#utility.yul\":26652:26658   */\n      dup4\n        /* \"#utility.yul\":26645:26709   */\n      sstore\n        /* \"#utility.yul\":26567:26723   */\n      pop\n        /* \"#utility.yul\":26544:26723   */\n    tag_614:\n        /* \"#utility.yul\":26769:26770   */\n      0x01\n        /* \"#utility.yul\":26765:26766   */\n      0x02\n        /* \"#utility.yul\":26757:26763   */\n      dup9\n        /* \"#utility.yul\":26753:26767   */\n      mul\n        /* \"#utility.yul\":26749:26771   */\n      add\n        /* \"#utility.yul\":26743:26747   */\n      dup9\n        /* \"#utility.yul\":26736:26772   */\n      sstore\n        /* \"#utility.yul\":26171:26782   */\n      pop\n      pop\n      pop\n        /* \"#utility.yul\":26134:27021   */\n    tag_606:\n      pop\n        /* \"#utility.yul\":25724:27027   */\n      pop\n      pop\n      pop\n        /* \"#utility.yul\":25632:27027   */\n      pop\n      pop\n      jump\t// out\n        /* \"#utility.yul\":27033:27212   */\n    tag_315:\n        /* \"#utility.yul\":27173:27204   */\n      0x46726f6d2061646472657373206973206e6f7420746865206f776e6572000000\n        /* \"#utility.yul\":27169:27170   */\n      0x00\n        /* \"#utility.yul\":27161:27167   */\n      dup3\n        /* \"#utility.yul\":27157:27171   */\n      add\n        /* \"#utility.yul\":27150:27205   */\n      mstore\n        /* \"#utility.yul\":27033:27212   */\n      pop\n      jump\t// out\n        /* \"#utility.yul\":27218:27584   */\n    tag_316:\n        /* \"#utility.yul\":27360:27363   */\n      0x00\n        /* \"#utility.yul\":27381:27448   */\n      tag_618\n        /* \"#utility.yul\":27445:27447   */\n      0x1d\n        /* \"#utility.yul\":27440:27443   */\n      dup4\n        /* \"#utility.yul\":27381:27448   */\n      tag_246\n      jump\t// in\n    tag_618:\n        /* \"#utility.yul\":27374:27448   */\n      swap2\n      pop\n        /* \"#utility.yul\":27457:27550   */\n      tag_619\n        /* \"#utility.yul\":27546:27549   */\n      dup3\n        /* \"#utility.yul\":27457:27550   */\n      tag_315\n      jump\t// in\n    tag_619:\n        /* \"#utility.yul\":27575:27577   */\n      0x20\n        /* \"#utility.yul\":27570:27573   */\n      dup3\n        /* \"#utility.yul\":27566:27578   */\n      add\n        /* \"#utility.yul\":27559:27578   */\n      swap1\n      pop\n        /* \"#utility.yul\":27218:27584   */\n      swap2\n      swap1\n      pop\n      jump\t// out\n        /* \"#utility.yul\":27590:28009   */\n    tag_146:\n        /* \"#utility.yul\":27756:27760   */\n      0x00\n        /* \"#utility.yul\":27794:27796   */\n      0x20\n        /* \"#utility.yul\":27783:27792   */\n      dup3\n        /* \"#utility.yul\":27779:27797   */\n      add\n        /* \"#utility.yul\":27771:27797   */\n      swap1\n      pop\n        /* \"#utility.yul\":27843:27852   */\n      dup2\n        /* \"#utility.yul\":27837:27841   */\n      dup2\n        /* \"#utility.yul\":27833:27853   */\n      sub\n        /* \"#utility.yul\":27829:27830   */\n      0x00\n        /* \"#utility.yul\":27818:27827   */\n      dup4\n        /* \"#utility.yul\":27814:27831   */\n      add\n        /* \"#utility.yul\":27807:27854   */\n      mstore\n        /* \"#utility.yul\":27871:28002   */\n      tag_621\n        /* \"#utility.yul\":27997:28001   */\n      dup2\n        /* \"#utility.yul\":27871:28002   */\n      tag_316\n      jump\t// in\n    tag_621:\n        /* \"#utility.yul\":27863:28002   */\n      swap1\n      pop\n        /* \"#utility.yul\":27590:28009   */\n      swap2\n      swap1\n      pop\n      jump\t// out\n        /* \"#utility.yul\":28015:28190   */\n    tag_317:\n        /* \"#utility.yul\":28155:28182   */\n      0x496e76616c696420726563697069656e74206164647265737300000000000000\n        /* \"#utility.yul\":28151:28152   */\n      0x00\n        /* \"#utility.yul\":28143:28149   */\n      dup3\n        /* \"#utility.yul\":28139:28153   */\n      add\n        /* \"#utility.yul\":28132:28183   */\n      mstore\n        /* \"#utility.yul\":28015:28190   */\n      pop\n      jump\t// out\n        /* \"#utility.yul\":28196:28562   */\n    tag_318:\n        /* \"#utility.yul\":28338:28341   */\n      0x00\n        /* \"#utility.yul\":28359:28426   */\n      tag_624\n        /* \"#utility.yul\":28423:28425   */\n      0x19\n        /* \"#utility.yul\":28418:28421   */\n      dup4\n        /* \"#utility.yul\":28359:28426   */\n      tag_246\n      jump\t// in\n    tag_624:\n        /* \"#utility.yul\":28352:28426   */\n      swap2\n      pop\n        /* \"#utility.yul\":28435:28528   */\n      tag_625\n        /* \"#utility.yul\":28524:28527   */\n      dup3\n        /* \"#utility.yul\":28435:28528   */\n      tag_317\n      jump\t// in\n    tag_625:\n        /* \"#utility.yul\":28553:28555   */\n      0x20\n        /* \"#utility.yul\":28548:28551   */\n      dup3\n        /* \"#utility.yul\":28544:28556   */\n      add\n        /* \"#utility.yul\":28537:28556   */\n      swap1\n      pop\n        /* \"#utility.yul\":28196:28562   */\n      swap2\n      swap1\n      pop\n      jump\t// out\n        /* \"#utility.yul\":28568:28987   */\n    tag_149:\n        /* \"#utility.yul\":28734:28738   */\n      0x00\n        /* \"#utility.yul\":28772:28774   */\n      0x20\n        /* \"#utility.yul\":28761:28770   */\n      dup3\n        /* \"#utility.yul\":28757:28775   */\n      add\n        /* \"#utility.yul\":28749:28775   */\n      swap1\n      pop\n        /* \"#utility.yul\":28821:28830   */\n      dup2\n        /* \"#utility.yul\":28815:28819   */\n      dup2\n        /* \"#utility.yul\":28811:28831   */\n      sub\n        /* \"#utility.yul\":28807:28808   */\n      0x00\n        /* \"#utility.yul\":28796:28805   */\n      dup4\n        /* \"#utility.yul\":28792:28809   */\n      add\n        /* \"#utility.yul\":28785:28832   */\n      mstore\n        /* \"#utility.yul\":28849:28980   */\n      tag_627\n        /* \"#utility.yul\":28975:28979   */\n      dup2\n        /* \"#utility.yul\":28849:28980   */\n      tag_318\n      jump\t// in\n    tag_627:\n        /* \"#utility.yul\":28841:28980   */\n      swap1\n      pop\n        /* \"#utility.yul\":28568:28987   */\n      swap2\n      swap1\n      pop\n      jump\t// out\n        /* \"#utility.yul\":28993:29169   */\n    tag_319:\n        /* \"#utility.yul\":29133:29161   */\n      0x4e6f7420617574686f72697a656420746f207472616e73666572000000000000\n        /* \"#utility.yul\":29129:29130   */\n      0x00\n        /* \"#utility.yul\":29121:29127   */\n      dup3\n        /* \"#utility.yul\":29117:29131   */\n      add\n        /* \"#utility.yul\":29110:29162   */\n      mstore\n        /* \"#utility.yul\":28993:29169   */\n      pop\n      jump\t// out\n        /* \"#utility.yul\":29175:29541   */\n    tag_320:\n        /* \"#utility.yul\":29317:29320   */\n      0x00\n        /* \"#utility.yul\":29338:29405   */\n      tag_630\n        /* \"#utility.yul\":29402:29404   */\n      0x1a\n        /* \"#utility.yul\":29397:29400   */\n      dup4\n        /* \"#utility.yul\":29338:29405   */\n      tag_246\n      jump\t// in\n    tag_630:\n        /* \"#utility.yul\":29331:29405   */\n      swap2\n      pop\n        /* \"#utility.yul\":29414:29507   */\n      tag_631\n        /* \"#utility.yul\":29503:29506   */\n      dup3\n        /* \"#utility.yul\":29414:29507   */\n      tag_319\n      jump\t// in\n    tag_631:\n        /* \"#utility.yul\":29532:29534   */\n      0x20\n        /* \"#utility.yul\":29527:29530   */\n      dup3\n        /* \"#utility.yul\":29523:29535   */\n      add\n        /* \"#utility.yul\":29516:29535   */\n      swap1\n      pop\n        /* \"#utility.yul\":29175:29541   */\n      swap2\n      swap1\n      pop\n      jump\t// out\n        /* \"#utility.yul\":29547:29966   */\n    tag_154:\n        /* \"#utility.yul\":29713:29717   */\n      0x00\n        /* \"#utility.yul\":29751:29753   */\n      0x20\n        /* \"#utility.yul\":29740:29749   */\n      dup3\n        /* \"#utility.yul\":29736:29754   */\n      add\n        /* \"#utility.yul\":29728:29754   */\n      swap1\n      pop\n        /* \"#utility.yul\":29800:29809   */\n      dup2\n        /* \"#utility.yul\":29794:29798   */\n      dup2\n        /* \"#utility.yul\":29790:29810   */\n      sub\n        /* \"#utility.yul\":29786:29787   */\n      0x00\n        /* \"#utility.yul\":29775:29784   */\n      dup4\n        /* \"#utility.yul\":29771:29788   */\n      add\n        /* \"#utility.yul\":29764:29811   */\n      mstore\n        /* \"#utility.yul\":29828:29959   */\n      tag_633\n        /* \"#utility.yul\":29954:29958   */\n      dup2\n        /* \"#utility.yul\":29828:29959   */\n      tag_320\n      jump\t// in\n    tag_633:\n        /* \"#utility.yul\":29820:29959   */\n      swap1\n      pop\n        /* \"#utility.yul\":29547:29966   */\n      swap2\n      swap1\n      pop\n      jump\t// out\n        /* \"#utility.yul\":29972:30143   */\n    tag_156:\n        /* \"#utility.yul\":30011:30014   */\n      0x00\n        /* \"#utility.yul\":30034:30058   */\n      tag_635\n        /* \"#utility.yul\":30052:30057   */\n      dup3\n        /* \"#utility.yul\":30034:30058   */\n      tag_253\n      jump\t// in\n    tag_635:\n        /* \"#utility.yul\":30025:30058   */\n      swap2\n      pop\n        /* \"#utility.yul\":30080:30084   */\n      0x00\n        /* \"#utility.yul\":30073:30078   */\n      dup3\n        /* \"#utility.yul\":30070:30085   */\n      sub\n        /* \"#utility.yul\":30067:30108   */\n      tag_636\n      jumpi\n        /* \"#utility.yul\":30088:30106   */\n      tag_637\n      tag_295\n      jump\t// in\n    tag_637:\n        /* \"#utility.yul\":30067:30108   */\n    tag_636:\n        /* \"#utility.yul\":30135:30136   */\n      0x01\n        /* \"#utility.yul\":30128:30133   */\n      dup3\n        /* \"#utility.yul\":30124:30137   */\n      sub\n        /* \"#utility.yul\":30117:30137   */\n      swap1\n      pop\n        /* \"#utility.yul\":29972:30143   */\n      swap2\n      swap1\n      pop\n      jump\t// out\n        /* \"#utility.yul\":30149:30382   */\n    tag_158:\n        /* \"#utility.yul\":30188:30191   */\n      0x00\n        /* \"#utility.yul\":30211:30235   */\n      tag_639\n        /* \"#utility.yul\":30229:30234   */\n      dup3\n        /* \"#utility.yul\":30211:30235   */\n      tag_253\n      jump\t// in\n    tag_639:\n        /* \"#utility.yul\":30202:30235   */\n      swap2\n      pop\n        /* \"#utility.yul\":30257:30323   */\n      0xffffffffffffffffffffffffffffffffffffffffffffffffffffffffffffffff\n        /* \"#utility.yul\":30250:30255   */\n      dup3\n        /* \"#utility.yul\":30247:30324   */\n      sub\n        /* \"#utility.yul\":30244:30347   */\n      tag_640\n      jumpi\n        /* \"#utility.yul\":30327:30345   */\n      tag_641\n      tag_295\n      jump\t// in\n    tag_641:\n        /* \"#utility.yul\":30244:30347   */\n    tag_640:\n        /* \"#utility.yul\":30374:30375   */\n      0x01\n        /* \"#utility.yul\":30367:30372   */\n      dup3\n        /* \"#utility.yul\":30363:30376   */\n      add\n        /* \"#utility.yul\":30356:30376   */\n      swap1\n      pop\n        /* \"#utility.yul\":30149:30382   */\n      swap2\n      swap1\n      pop\n      jump\t// out\n        /* \"#utility.yul\":30388:30553   */\n    tag_321:\n        /* \"#utility.yul\":30528:30545   */\n      0x496e76616c696420616464726573730000000000000000000000000000000000\n        /* \"#utility.yul\":30524:30525   */\n      0x00\n        /* \"#utility.yul\":30516:30522   */\n      dup3\n        /* \"#utility.yul\":30512:30526   */\n      add\n        /* \"#utility.yul\":30505:30546   */\n      mstore\n        /* \"#utility.yul\":30388:30553   */\n      pop\n      jump\t// out\n        /* \"#utility.yul\":30559:30925   */\n    tag_322:\n        /* \"#utility.yul\":30701:30704   */\n      0x00\n        /* \"#utility.yul\":30722:30789   */\n      tag_644\n        /* \"#utility.yul\":30786:30788   */\n      0x0f\n        /* \"#utility.yul\":30781:30784   */\n      dup4\n        /* \"#utility.yul\":30722:30789   */\n      tag_246\n      jump\t// in\n    tag_644:\n        /* \"#utility.yul\":30715:30789   */\n      swap2\n      pop\n        /* \"#utility.yul\":30798:30891   */\n      tag_645\n        /* \"#utility.yul\":30887:30890   */\n      dup3\n        /* \"#utility.yul\":30798:30891   */\n      tag_321\n      jump\t// in\n    tag_645:\n        /* \"#utility.yul\":30916:30918   */\n      0x20\n        /* \"#utility.yul\":30911:30914   */\n      dup3\n        /* \"#utility.yul\":30907:30919   */\n      add\n        /* \"#utility.yul\":30900:30919   */\n      swap1\n      pop\n        /* \"#utility.yul\":30559:30925   */\n      swap2\n      swap1\n      pop\n      jump\t// out\n        /* \"#utility.yul\":30931:31350   */\n    tag_177:\n        /* \"#utility.yul\":31097:31101   */\n      0x00\n        /* \"#utility.yul\":31135:31137   */\n      0x20\n        /* \"#utility.yul\":31124:31133   */\n      dup3\n        /* \"#utility.yul\":31120:31138   */\n      add\n        /* \"#utility.yul\":31112:31138   */\n      swap1\n      pop\n        /* \"#utility.yul\":31184:31193   */\n      dup2\n        /* \"#utility.yul\":31178:31182   */\n      dup2\n        /* \"#utility.yul\":31174:31194   */\n      sub\n        /* \"#utility.yul\":31170:31171   */\n      0x00\n        /* \"#utility.yul\":31159:31168   */\n      dup4\n        /* \"#utility.yul\":31155:31172   */\n      add\n        /* \"#utility.yul\":31148:31195   */\n      mstore\n        /* \"#utility.yul\":31212:31343   */\n      tag_647\n        /* \"#utility.yul\":31338:31342   */\n      dup2\n        /* \"#utility.yul\":31212:31343   */\n      tag_322\n      jump\t// in\n    tag_647:\n        /* \"#utility.yul\":31204:31343   */\n      swap1\n      pop\n        /* \"#utility.yul\":30931:31350   */\n      swap2\n      swap1\n      pop\n      jump\t// out\n        /* \"#utility.yul\":31356:31534   */\n    tag_323:\n        /* \"#utility.yul\":31496:31526   */\n      0x417272617973206d75737420686176652073616d65206c656e67746800000000\n        /* \"#utility.yul\":31492:31493   */\n      0x00\n        /* \"#utility.yul\":31484:31490   */\n      dup3\n        /* \"#utility.yul\":31480:31494   */\n      add\n        /* \"#utility.yul\":31473:31527   */\n      mstore\n        /* \"#utility.yul\":31356:31534   */\n      pop\n      jump\t// out\n        /* \"#utility.yul\":31540:31906   */\n    tag_324:\n        /* \"#utility.yul\":31682:31685   */\n      0x00\n        /* \"#utility.yul\":31703:31770   */\n      tag_650\n        /* \"#utility.yul\":31767:31769   */\n      0x1c\n        /* \"#utility.yul\":31762:31765   */\n      dup4\n        /* \"#utility.yul\":31703:31770   */\n      tag_246\n      jump\t// in\n    tag_650:\n        /* \"#utility.yul\":31696:31770   */\n      swap2\n      pop\n        /* \"#utility.yul\":31779:31872   */\n      tag_651\n        /* \"#utility.yul\":31868:31871   */\n      dup3\n        /* \"#utility.yul\":31779:31872   */\n      tag_323\n      jump\t// in\n    tag_651:\n        /* \"#utility.yul\":31897:31899   */\n      0x20\n        /* \"#utility.yul\":31892:31895   */\n      dup3\n        /* \"#utility.yul\":31888:31900   */\n      add\n        /* \"#utility.yul\":31881:31900   */\n      swap1\n      pop\n        /* \"#utility.yul\":31540:31906   */\n      swap2\n      swap1\n      pop\n      jump\t// out\n        /* \"#utility.yul\":31912:32331   */\n    tag_186:\n        /* \"#utility.yul\":32078:32082   */\n      0x00\n        /* \"#utility.yul\":32116:32118   */\n      0x20\n        /* \"#utility.yul\":32105:32114   */\n      dup3\n        /* \"#utility.yul\":32101:32119   */\n      add\n        /* \"#utility.yul\":32093:32119   */\n      swap1\n      pop\n        /* \"#utility.yul\":32165:32174   */\n      dup2\n        /* \"#utility.yul\":32159:32163   */\n      dup2\n        /* \"#utility.yul\":32155:32175   */\n      sub\n        /* \"#utility.yul\":32151:32152   */\n      0x00\n        /* \"#utility.yul\":32140:32149   */\n      dup4\n        /* \"#utility.yul\":32136:32153   */\n      add\n        /* \"#utility.yul\":32129:32176   */\n      mstore\n        /* \"#utility.yul\":32193:32324   */\n      tag_653\n        /* \"#utility.yul\":32319:32323   */\n      dup2\n        /* \"#utility.yul\":32193:32324   */\n      tag_324\n      jump\t// in\n    tag_653:\n        /* \"#utility.yul\":32185:32324   */\n      swap1\n      pop\n        /* \"#utility.yul\":31912:32331   */\n      swap2\n      swap1\n      pop\n      jump\t// out\n        /* \"#utility.yul\":32337:32515   */\n    tag_325:\n        /* \"#utility.yul\":32477:32507   */\n      0x4d757374206d696e74206174206c65617374206f6e6520746f6b656e00000000\n        /* \"#utility.yul\":32473:32474   */\n      0x00\n        /* \"#utility.yul\":32465:32471   */\n      dup3\n        /* \"#utility.yul\":32461:32475   */\n      add\n        /* \"#utility.yul\":32454:32508   */\n      mstore\n        /* \"#utility.yul\":32337:32515   */\n      pop\n      jump\t// out\n        /* \"#utility.yul\":32521:32887   */\n    tag_326:\n        /* \"#utility.yul\":32663:32666   */\n      0x00\n        /* \"#utility.yul\":32684:32751   */\n      tag_656\n        /* \"#utility.yul\":32748:32750   */\n      0x1c\n        /* \"#utility.yul\":32743:32746   */\n      dup4\n        /* \"#utility.yul\":32684:32751   */\n      tag_246\n      jump\t// in\n    tag_656:\n        /* \"#utility.yul\":32677:32751   */\n      swap2\n      pop\n        /* \"#utility.yul\":32760:32853   */\n      tag_657\n        /* \"#utility.yul\":32849:32852   */\n      dup3\n        /* \"#utility.yul\":32760:32853   */\n      tag_325\n      jump\t// in\n    tag_657:\n        /* \"#utility.yul\":32878:32880   */\n      0x20\n        /* \"#utility.yul\":32873:32876   */\n      dup3\n        /* \"#utility.yul\":32869:32881   */\n      add\n        /* \"#utility.yul\":32862:32881   */\n      swap1\n      pop\n        /* \"#utility.yul\":32521:32887   */\n      swap2\n      swap1\n      pop\n      jump\t// out\n        /* \"#utility.yul\":32893:33312   */\n    tag_189:\n        /* \"#utility.yul\":33059:33063   */\n      0x00\n        /* \"#utility.yul\":33097:33099   */\n      0x20\n        /* \"#utility.yul\":33086:33095   */\n      dup3\n        /* \"#utility.yul\":33082:33100   */\n      add\n        /* \"#utility.yul\":33074:33100   */\n      swap1\n      pop\n        /* \"#utility.yul\":33146:33155   */\n      dup2\n        /* \"#utility.yul\":33140:33144   */\n      dup2\n        /* \"#utility.yul\":33136:33156   */\n      sub\n        /* \"#utility.yul\":33132:33133   */\n      0x00\n        /* \"#utility.yul\":33121:33130   */\n      dup4\n        /* \"#utility.yul\":33117:33134   */\n      add\n        /* \"#utility.yul\":33110:33157   */\n      mstore\n        /* \"#utility.yul\":33174:33305   */\n      tag_659\n        /* \"#utility.yul\":33300:33304   */\n      dup2\n        /* \"#utility.yul\":33174:33305   */\n      tag_326\n      jump\t// in\n    tag_659:\n        /* \"#utility.yul\":33166:33305   */\n      swap1\n      pop\n        /* \"#utility.yul\":32893:33312   */\n      swap2\n      swap1\n      pop\n      jump\t// out\n        /* \"#utility.yul\":33318:33488   */\n    tag_327:\n        /* \"#utility.yul\":33458:33480   */\n      0x42617463682073697a6520746f6f206c61726765000000000000000000000000\n        /* \"#utility.yul\":33454:33455   */\n      0x00\n        /* \"#utility.yul\":33446:33452   */\n      dup3\n        /* \"#utility.yul\":33442:33456   */\n      add\n        /* \"#utility.yul\":33435:33481   */\n      mstore\n        /* \"#utility.yul\":33318:33488   */\n      pop\n      jump\t// out\n        /* \"#utility.yul\":33494:33860   */\n    tag_328:\n        /* \"#utility.yul\":33636:33639   */\n      0x00\n        /* \"#utility.yul\":33657:33724   */\n      tag_662\n        /* \"#utility.yul\":33721:33723   */\n      0x14\n        /* \"#utility.yul\":33716:33719   */\n      dup4\n        /* \"#utility.yul\":33657:33724   */\n      tag_246\n      jump\t// in\n    tag_662:\n        /* \"#utility.yul\":33650:33724   */\n      swap2\n      pop\n        /* \"#utility.yul\":33733:33826   */\n      tag_663\n        /* \"#utility.yul\":33822:33825   */\n      dup3\n        /* \"#utility.yul\":33733:33826   */\n      tag_327\n      jump\t// in\n    tag_663:\n        /* \"#utility.yul\":33851:33853   */\n      0x20\n        /* \"#utility.yul\":33846:33849   */\n      dup3\n        /* \"#utility.yul\":33842:33854   */\n      add\n        /* \"#utility.yul\":33835:33854   */\n      swap1\n      pop\n        /* \"#utility.yul\":33494:33860   */\n      swap2\n      swap1\n      pop\n      jump\t// out\n        /* \"#utility.yul\":33866:34285   */\n    tag_192:\n        /* \"#utility.yul\":34032:34036   */\n      0x00\n        /* \"#utility.yul\":34070:34072   */\n      0x20\n        /* \"#utility.yul\":34059:34068   */\n      dup3\n        /* \"#utility.yul\":34055:34073   */\n      add\n        /* \"#utility.yul\":34047:34073   */\n      swap1\n      pop\n        /* \"#utility.yul\":34119:34128   */\n      dup2\n        /* \"#utility.yul\":34113:34117   */\n      dup2\n        /* \"#utility.yul\":34109:34129   */\n      sub\n        /* \"#utility.yul\":34105:34106   */\n      0x00\n        /* \"#utility.yul\":34094:34103   */\n      dup4\n        /* \"#utility.yul\":34090:34107   */\n      add\n        /* \"#utility.yul\":34083:34130   */\n      mstore\n        /* \"#utility.yul\":34147:34278   */\n      tag_665\n        /* \"#utility.yul\":34273:34277   */\n      dup2\n        /* \"#utility.yul\":34147:34278   */\n      tag_328\n      jump\t// in\n    tag_665:\n        /* \"#utility.yul\":34139:34278   */\n      swap1\n      pop\n        /* \"#utility.yul\":33866:34285   */\n      swap2\n      swap1\n      pop\n      jump\t// out\n        /* \"#utility.yul\":34291:34471   */\n    tag_203:\n        /* \"#utility.yul\":34339:34416   */\n      0x4e487b7100000000000000000000000000000000000000000000000000000000\n        /* \"#utility.yul\":34336:34337   */\n      0x00\n        /* \"#utility.yul\":34329:34417   */\n      mstore\n        /* \"#utility.yul\":34436:34440   */\n      0x32\n        /* \"#utility.yul\":34433:34434   */\n      0x04\n        /* \"#utility.yul\":34426:34441   */\n      mstore\n        /* \"#utility.yul\":34460:34464   */\n      0x24\n        /* \"#utility.yul\":34457:34458   */\n      0x00\n        /* \"#utility.yul\":34450:34465   */\n      revert\n        /* \"#utility.yul\":34477:34655   */\n    tag_329:\n        /* \"#utility.yul\":34617:34647   */\n      0x4d65746164617461205552492063616e6e6f7420626520656d70747900000000\n        /* \"#utility.yul\":34613:34614   */\n      0x00\n        /* \"#utility.yul\":34605:34611   */\n      dup3\n        /* \"#utility.yul\":34601:34615   */\n      add\n        /* \"#utility.yul\":34594:34648   */\n      mstore\n        /* \"#utility.yul\":34477:34655   */\n      pop\n      jump\t// out\n        /* \"#utility.yul\":34661:35027   */\n    tag_330:\n        /* \"#utility.yul\":34803:34806   */\n      0x00\n        /* \"#utility.yul\":34824:34891   */\n      tag_669\n        /* \"#utility.yul\":34888:34890   */\n      0x1c\n        /* \"#utility.yul\":34883:34886   */\n      dup4\n        /* \"#utility.yul\":34824:34891   */\n      tag_246\n      jump\t// in\n    tag_669:\n        /* \"#utility.yul\":34817:34891   */\n      swap2\n      pop\n        /* \"#utility.yul\":34900:34993   */\n      tag_670\n        /* \"#utility.yul\":34989:34992   */\n      dup3\n        /* \"#utility.yul\":34900:34993   */\n      tag_329\n      jump\t// in\n    tag_670:\n        /* \"#utility.yul\":35018:35020   */\n      0x20\n        /* \"#utility.yul\":35013:35016   */\n      dup3\n        /* \"#utility.yul\":35009:35021   */\n      add\n        /* \"#utility.yul\":35002:35021   */\n      swap1\n      pop\n        /* \"#utility.yul\":34661:35027   */\n      swap2\n      swap1\n      pop\n      jump\t// out\n        /* \"#utility.yul\":35033:35452   */\n    tag_222:\n        /* \"#utility.yul\":35199:35203   */\n      0x00\n        /* \"#utility.yul\":35237:35239   */\n      0x20\n        /* \"#utility.yul\":35226:35235   */\n      dup3\n        /* \"#utility.yul\":35222:35240   */\n      add\n        /* \"#utility.yul\":35214:35240   */\n      swap1\n      pop\n        /* \"#utility.yul\":35286:35295   */\n      dup2\n        /* \"#utility.yul\":35280:35284   */\n      dup2\n        /* \"#utility.yul\":35276:35296   */\n      sub\n        /* \"#utility.yul\":35272:35273   */\n      0x00\n        /* \"#utility.yul\":35261:35270   */\n      dup4\n        /* \"#utility.yul\":35257:35274   */\n      add\n        /* \"#utility.yul\":35250:35297   */\n      mstore\n        /* \"#utility.yul\":35314:35445   */\n      tag_672\n        /* \"#utility.yul\":35440:35444   */\n      dup2\n        /* \"#utility.yul\":35314:35445   */\n      tag_330\n      jump\t// in\n    tag_672:\n        /* \"#utility.yul\":35306:35445   */\n      swap1\n      pop\n        /* \"#utility.yul\":35033:35452   */\n      swap2\n      swap1\n      pop\n      jump\t// out\n        /* \"#utility.yul\":35458:35631   */\n    tag_331:\n        /* \"#utility.yul\":35598:35623   */\n      0x43616e6e6f7420617070726f766520796f757273656c66000000000000000000\n        /* \"#utility.yul\":35594:35595   */\n      0x00\n        /* \"#utility.yul\":35586:35592   */\n      dup3\n        /* \"#utility.yul\":35582:35596   */\n      add\n        /* \"#utility.yul\":35575:35624   */\n      mstore\n        /* \"#utility.yul\":35458:35631   */\n      pop\n      jump\t// out\n        /* \"#utility.yul\":35637:36003   */\n    tag_332:\n        /* \"#utility.yul\":35779:35782   */\n      0x00\n        /* \"#utility.yul\":35800:35867   */\n      tag_675\n        /* \"#utility.yul\":35864:35866   */\n      0x17\n        /* \"#utility.yul\":35859:35862   */\n      dup4\n        /* \"#utility.yul\":35800:35867   */\n      tag_246\n      jump\t// in\n    tag_675:\n        /* \"#utility.yul\":35793:35867   */\n      swap2\n      pop\n        /* \"#utility.yul\":35876:35969   */\n      tag_676\n        /* \"#utility.yul\":35965:35968   */\n      dup3\n        /* \"#utility.yul\":35876:35969   */\n      tag_331\n      jump\t// in\n    tag_676:\n        /* \"#utility.yul\":35994:35996   */\n      0x20\n        /* \"#utility.yul\":35989:35992   */\n      dup3\n        /* \"#utility.yul\":35985:35997   */\n      add\n        /* \"#utility.yul\":35978:35997   */\n      swap1\n      pop\n        /* \"#utility.yul\":35637:36003   */\n      swap2\n      swap1\n      pop\n      jump\t// out\n        /* \"#utility.yul\":36009:36428   */\n    tag_229:\n        /* \"#utility.yul\":36175:36179   */\n      0x00\n        /* \"#utility.yul\":36213:36215   */\n      0x20\n        /* \"#utility.yul\":36202:36211   */\n      dup3\n        /* \"#utility.yul\":36198:36216   */\n      add\n        /* \"#utility.yul\":36190:36216   */\n      swap1\n      pop\n        /* \"#utility.yul\":36262:36271   */\n      dup2\n        /* \"#utility.yul\":36256:36260   */\n      dup2\n        /* \"#utility.yul\":36252:36272   */\n      sub\n        /* \"#utility.yul\":36248:36249   */\n      0x00\n        /* \"#utility.yul\":36237:36246   */\n      dup4\n        /* \"#utility.yul\":36233:36250   */\n      add\n        /* \"#utility.yul\":36226:36273   */\n      mstore\n        /* \"#utility.yul\":36290:36421   */\n      tag_678\n        /* \"#utility.yul\":36416:36420   */\n      dup2\n        /* \"#utility.yul\":36290:36421   */\n      tag_332\n      jump\t// in\n    tag_678:\n        /* \"#utility.yul\":36282:36421   */\n      swap1\n      pop\n        /* \"#utility.yul\":36009:36428   */\n      swap2\n      swap1\n      pop\n      jump\t// out\n        /* \"#utility.yul\":36434:36607   */\n    tag_333:\n        /* \"#utility.yul\":36574:36599   */\n      0x53656e646572206973206e6f7420746865206f776e6572000000000000000000\n        /* \"#utility.yul\":36570:36571   */\n      0x00\n        /* \"#utility.yul\":36562:36568   */\n      dup3\n        /* \"#utility.yul\":36558:36572   */\n      add\n        /* \"#utility.yul\":36551:36600   */\n      mstore\n        /* \"#utility.yul\":36434:36607   */\n      pop\n      jump\t// out\n        /* \"#utility.yul\":36613:36979   */\n    tag_334:\n        /* \"#utility.yul\":36755:36758   */\n      0x00\n        /* \"#utility.yul\":36776:36843   */\n      tag_681\n        /* \"#utility.yul\":36840:36842   */\n      0x17\n        /* \"#utility.yul\":36835:36838   */\n      dup4\n        /* \"#utility.yul\":36776:36843   */\n      tag_246\n      jump\t// in\n    tag_681:\n        /* \"#utility.yul\":36769:36843   */\n      swap2\n      pop\n        /* \"#utility.yul\":36852:36945   */\n      tag_682\n        /* \"#utility.yul\":36941:36944   */\n      dup3\n        /* \"#utility.yul\":36852:36945   */\n      tag_333\n      jump\t// in\n    tag_682:\n        /* \"#utility.yul\":36970:36972   */\n      0x20\n        /* \"#utility.yul\":36965:36968   */\n      dup3\n        /* \"#utility.yul\":36961:36973   */\n      add\n        /* \"#utility.yul\":36954:36973   */\n      swap1\n      pop\n        /* \"#utility.yul\":36613:36979   */\n      swap2\n      swap1\n      pop\n      jump\t// out\n        /* \"#utility.yul\":36985:37404   */\n    tag_239:\n        /* \"#utility.yul\":37151:37155   */\n      0x00\n        /* \"#utility.yul\":37189:37191   */\n      0x20\n        /* \"#utility.yul\":37178:37187   */\n      dup3\n        /* \"#utility.yul\":37174:37192   */\n      add\n        /* \"#utility.yul\":37166:37192   */\n      swap1\n      pop\n        /* \"#utility.yul\":37238:37247   */\n      dup2\n        /* \"#utility.yul\":37232:37236   */\n      dup2\n        /* \"#utility.yul\":37228:37248   */\n      sub\n        /* \"#utility.yul\":37224:37225   */\n      0x00\n        /* \"#utility.yul\":37213:37222   */\n      dup4\n        /* \"#utility.yul\":37209:37226   */\n      add\n        /* \"#utility.yul\":37202:37249   */\n      mstore\n        /* \"#utility.yul\":37266:37397   */\n      tag_684\n        /* \"#utility.yul\":37392:37396   */\n      dup2\n        /* \"#utility.yul\":37266:37397   */\n      tag_334\n      jump\t// in\n    tag_684:\n        /* \"#utility.yul\":37258:37397   */\n      swap1\n      pop\n        /* \"#utility.yul\":36985:37404   */\n      swap2\n      swap1\n      pop\n      jump\t// out\n\n    auxdata: 0xa2646970667358221220677235da9fb92dfb53cd5cacf83c4cbfd7f7a6f66ace85fe4b9e51abc15489de64736f6c63430008140033\n}\n",
				"bytecode": {
					"linkReferences": {},
					"object": "60806040526040518060400160405280601281526020017f426174746c6520566963746f7279204e46540000000000000000000000000000815250600190816200004a91906200034d565b506040518060400160405280600581526020017f42564e4654000000000000000000000000000000000000000000000000000000815250600290816200009191906200034d565b506001600355348015620000a3575f80fd5b50335f806101000a81548173ffffffffffffffffffffffffffffffffffffffff021916908373ffffffffffffffffffffffffffffffffffffffff16021790555062000431565b5f81519050919050565b7f4e487b71000000000000000000000000000000000000000000000000000000005f52604160045260245ffd5b7f4e487b71000000000000000000000000000000000000000000000000000000005f52602260045260245ffd5b5f60028204905060018216806200016557607f821691505b6020821081036200017b576200017a62000120565b5b50919050565b5f819050815f5260205f209050919050565b5f6020601f8301049050919050565b5f82821b905092915050565b5f60088302620001df7fffffffffffffffffffffffffffffffffffffffffffffffffffffffffffffffff82620001a2565b620001eb8683620001a2565b95508019841693508086168417925050509392505050565b5f819050919050565b5f819050919050565b5f620002356200022f620002298462000203565b6200020c565b62000203565b9050919050565b5f819050919050565b620002508362000215565b620002686200025f826200023c565b848454620001ae565b825550505050565b5f90565b6200027e62000270565b6200028b81848462000245565b505050565b5b81811015620002b257620002a65f8262000274565b60018101905062000291565b5050565b601f8211156200030157620002cb8162000181565b620002d68462000193565b81016020851015620002e6578190505b620002fe620002f58562000193565b83018262000290565b50505b505050565b5f82821c905092915050565b5f620003235f198460080262000306565b1980831691505092915050565b5f6200033d838362000312565b9150826002028217905092915050565b6200035882620000e9565b67ffffffffffffffff811115620003745762000373620000f3565b5b6200038082546200014d565b6200038d828285620002b6565b5f60209050601f831160018114620003c3575f8415620003ae578287015190505b620003ba858262000330565b86555062000429565b601f198416620003d38662000181565b5f5b82811015620003fc57848901518255600182019150602085019450602081019050620003d5565b868310156200041c578489015162000418601f89168262000312565b8355505b6001600288020188555050505b505050505050565b612f27806200043f5f395ff3fe608060405234801561000f575f80fd5b5060043610610114575f3560e01c806370a08231116100a057806395d89b411161006f57806395d89b41146102f0578063a02cdee71461030e578063a22cb4651461033e578063ccb570e31461035a578063e985e9c51461038a57610114565b806370a082311461025457806383c4c00d146102845780638da5cb5b146102a2578063924cff6d146102c057610114565b806318e97fd1116100e757806318e97fd1146101a057806323b872dd146101bc5780633bb3a24d146101d857806342842e0e146102085780636352211e1461022457610114565b806306fdde0314610118578063081812fc14610136578063095ea7b31461016657806318160ddd14610182575b5f80fd5b6101206103ba565b60405161012d9190611d2b565b60405180910390f35b610150600480360381019061014b9190611d8f565b610446565b60405161015d9190611df9565b60405180910390f35b610180600480360381019061017b9190611e3c565b61051f565b005b61018a61080a565b6040516101979190611e89565b60405180910390f35b6101ba60048036038101906101b59190611fce565b61081f565b005b6101d660048036038101906101d19190612028565b6109ea565b005b6101f260048036038101906101ed9190611d8f565b610e98565b6040516101ff9190611d2b565b60405180910390f35b610222600480360381019061021d9190612028565b610fd9565b005b61023e60048036038101906102399190611d8f565b610fe9565b60405161024b9190611df9565b60405180910390f35b61026e60048036038101906102699190612078565b6110c2565b60405161027b9190611e89565b60405180910390f35b61028c611176565b6040516102999190611e89565b60405180910390f35b6102aa61118b565b6040516102b79190611df9565b60405180910390f35b6102da60048036038101906102d59190612245565b6111ae565b6040516102e79190612372565b60405180910390f35b6102f86113dc565b6040516103059190611d2b565b60405180910390f35b61032860048036038101906103239190612392565b611468565b6040516103359190611e89565b60405180910390f35b61035860048036038101906103539190612421565b6116ea565b005b610374600480360381019061036f919061245f565b611850565b60405161038191906124be565b60405180910390f35b6103a4600480360381019061039f91906124d7565b611c13565b6040516103b191906124be565b60405180910390f35b600180546103c790612542565b80601f01602080910402602001604051908101604052809291908181526020018280546103f390612542565b801561043e5780601f106104155761010080835404028352916020019161043e565b820191905f5260205f20905b81548152906001019060200180831161042157829003601f168201915b505050505081565b5f815f73ffffffffffffffffffffffffffffffffffffffff1660045f8381526020019081526020015f205f9054906101000a900473ffffffffffffffffffffffffffffffffffffffff1673ffffffffffffffffffffffffffffffffffffffff16036104e6576040517f08c379a00000000000000000000000000000000000000000000000000000000081526004016104dd906125bc565b60405180910390fd5b60075f8481526020019081526020015f205f9054906101000a900473ffffffffffffffffffffffffffffffffffffffff16915050919050565b805f73ffffffffffffffffffffffffffffffffffffffff1660045f8381526020019081526020015f205f9054906101000a900473ffffffffffffffffffffffffffffffffffffffff1673ffffffffffffffffffffffffffffffffffffffff16036105be576040517f08c379a00000000000000000000000000000000000000000000000000000000081526004016105b5906125bc565b60405180910390fd5b5f60045f8481526020019081526020015f205f9054906101000a900473ffffffffffffffffffffffffffffffffffffffff1690508073ffffffffffffffffffffffffffffffffffffffff163373ffffffffffffffffffffffffffffffffffffffff1614806106ad575060085f8273ffffffffffffffffffffffffffffffffffffffff1673ffffffffffffffffffffffffffffffffffffffff1681526020019081526020015f205f3373ffffffffffffffffffffffffffffffffffffffff1673ffffffffffffffffffffffffffffffffffffffff1681526020019081526020015f205f9054906101000a900460ff165b6106ec576040517f08c379a00000000000000000000000000000000000000000000000000000000081526004016106e390612624565b60405180910390fd5b8073ffffffffffffffffffffffffffffffffffffffff168473ffffffffffffffffffffffffffffffffffffffff160361075a576040517f08c379a00000000000000000000000000000000000000000000000000000000081526004016107519061268c565b60405180910390fd5b8360075f8581526020019081526020015f205f6101000a81548173ffffffffffffffffffffffffffffffffffffffff021916908373ffffffffffffffffffffffffffffffffffffffff160217905550828473ffffffffffffffffffffffffffffffffffffffff168273ffffffffffffffffffffffffffffffffffffffff167f8c5be1e5ebec7d5bd14f71427d1e84f3dd0314c0f7b2291e5b200ac8c7c3b92560405160405180910390a450505050565b5f600160035461081a91906126d7565b905090565b5f8054906101000a900473ffffffffffffffffffffffffffffffffffffffff1673ffffffffffffffffffffffffffffffffffffffff163373ffffffffffffffffffffffffffffffffffffffff16146108ac576040517f08c379a00000000000000000000000000000000000000000000000000000000081526004016108a390612754565b60405180910390fd5b815f73ffffffffffffffffffffffffffffffffffffffff1660045f8381526020019081526020015f205f9054906101000a900473ffffffffffffffffffffffffffffffffffffffff1673ffffffffffffffffffffffffffffffffffffffff160361094b576040517f08c379a0000000000000000000000000000000000000000000000000000000008152600401610942906125bc565b60405180910390fd5b5f82511161098e576040517f08c379a0000000000000000000000000000000000000000000000000000000008152600401610985906127bc565b60405180910390fd5b8160055f8581526020019081526020015f2090816109ac9190612977565b50827fa7527b31563240d0f5f29d80c2f13916d38a7b2b19b892c43486ed47722f2ffb836040516109dd9190611d2b565b60405180910390a2505050565b805f73ffffffffffffffffffffffffffffffffffffffff1660045f8381526020019081526020015f205f9054906101000a900473ffffffffffffffffffffffffffffffffffffffff1673ffffffffffffffffffffffffffffffffffffffff1603610a89576040517f08c379a0000000000000000000000000000000000000000000000000000000008152600401610a80906125bc565b60405180910390fd5b8373ffffffffffffffffffffffffffffffffffffffff1660045f8481526020019081526020015f205f9054906101000a900473ffffffffffffffffffffffffffffffffffffffff1673ffffffffffffffffffffffffffffffffffffffff1614610b27576040517f08c379a0000000000000000000000000000000000000000000000000000000008152600401610b1e90612a90565b60405180910390fd5b5f73ffffffffffffffffffffffffffffffffffffffff168373ffffffffffffffffffffffffffffffffffffffff1603610b95576040517f08c379a0000000000000000000000000000000000000000000000000000000008152600401610b8c90612af8565b60405180910390fd5b8373ffffffffffffffffffffffffffffffffffffffff163373ffffffffffffffffffffffffffffffffffffffff161480610c2a575060075f8381526020019081526020015f205f9054906101000a900473ffffffffffffffffffffffffffffffffffffffff1673ffffffffffffffffffffffffffffffffffffffff163373ffffffffffffffffffffffffffffffffffffffff16145b80610cb6575060085f8573ffffffffffffffffffffffffffffffffffffffff1673ffffffffffffffffffffffffffffffffffffffff1681526020019081526020015f205f3373ffffffffffffffffffffffffffffffffffffffff1673ffffffffffffffffffffffffffffffffffffffff1681526020019081526020015f205f9054906101000a900460ff165b610cf5576040517f08c379a0000000000000000000000000000000000000000000000000000000008152600401610cec90612b60565b60405180910390fd5b5f60075f8481526020019081526020015f205f6101000a81548173ffffffffffffffffffffffffffffffffffffffff021916908373ffffffffffffffffffffffffffffffffffffffff16021790555060065f8573ffffffffffffffffffffffffffffffffffffffff1673ffffffffffffffffffffffffffffffffffffffff1681526020019081526020015f205f815480929190610d9190612b7e565b919050555060065f8473ffffffffffffffffffffffffffffffffffffffff1673ffffffffffffffffffffffffffffffffffffffff1681526020019081526020015f205f815480929190610de390612ba5565b91905055508260045f8481526020019081526020015f205f6101000a81548173ffffffffffffffffffffffffffffffffffffffff021916908373ffffffffffffffffffffffffffffffffffffffff160217905550818373ffffffffffffffffffffffffffffffffffffffff168573ffffffffffffffffffffffffffffffffffffffff167fddf252ad1be2c89b69c2b068fc378daa952ba7f163c4a11628f55a4df523b3ef60405160405180910390a450505050565b6060815f73ffffffffffffffffffffffffffffffffffffffff1660045f8381526020019081526020015f205f9054906101000a900473ffffffffffffffffffffffffffffffffffffffff1673ffffffffffffffffffffffffffffffffffffffff1603610f39576040517f08c379a0000000000000000000000000000000000000000000000000000000008152600401610f30906125bc565b60405180910390fd5b60055f8481526020019081526020015f208054610f5590612542565b80601f0160208091040260200160405190810160405280929190818152602001828054610f8190612542565b8015610fcc5780601f10610fa357610100808354040283529160200191610fcc565b820191905f5260205f20905b815481529060010190602001808311610faf57829003601f168201915b5050505050915050919050565b610fe48383836109ea565b505050565b5f815f73ffffffffffffffffffffffffffffffffffffffff1660045f8381526020019081526020015f205f9054906101000a900473ffffffffffffffffffffffffffffffffffffffff1673ffffffffffffffffffffffffffffffffffffffff1603611089576040517f08c379a0000000000000000000000000000000000000000000000000000000008152600401611080906125bc565b60405180910390fd5b60045f8481526020019081526020015f205f9054906101000a900473ffffffffffffffffffffffffffffffffffffffff16915050919050565b5f8073ffffffffffffffffffffffffffffffffffffffff168273ffffffffffffffffffffffffffffffffffffffff1603611131576040517f08c379a000000000000000000000000000000000000000000000000000000000815260040161112890612c36565b60405180910390fd5b60065f8373ffffffffffffffffffffffffffffffffffffffff1673ffffffffffffffffffffffffffffffffffffffff1681526020019081526020015f20549050919050565b5f600160035461118691906126d7565b905090565b5f8054906101000a900473ffffffffffffffffffffffffffffffffffffffff1681565b60605f8054906101000a900473ffffffffffffffffffffffffffffffffffffffff1673ffffffffffffffffffffffffffffffffffffffff163373ffffffffffffffffffffffffffffffffffffffff161461123d576040517f08c379a000000000000000000000000000000000000000000000000000000000815260040161123490612754565b60405180910390fd5b8151835114611281576040517f08c379a000000000000000000000000000000000000000000000000000000000815260040161127890612c9e565b60405180910390fd5b5f8351116112c4576040517f08c379a00000000000000000000000000000000000000000000000000000000081526004016112bb90612d06565b60405180910390fd5b606483511115611309576040517f08c379a000000000000000000000000000000000000000000000000000000000815260040161130090612d6e565b60405180910390fd5b5f835167ffffffffffffffff81111561132557611324611eaa565b5b6040519080825280602002602001820160405280156113535781602001602082028036833780820191505090505b5090505f5b84518110156113d15761139f85828151811061137757611376612d8c565b5b602002602001015185838151811061139257611391612d8c565b5b6020026020010151611468565b8282815181106113b2576113b1612d8c565b5b60200260200101818152505080806113c990612ba5565b915050611358565b508091505092915050565b600280546113e990612542565b80601f016020809104026020016040519081016040528092919081815260200182805461141590612542565b80156114605780601f1061143757610100808354040283529160200191611460565b820191905f5260205f20905b81548152906001019060200180831161144357829003601f168201915b505050505081565b5f805f9054906101000a900473ffffffffffffffffffffffffffffffffffffffff1673ffffffffffffffffffffffffffffffffffffffff163373ffffffffffffffffffffffffffffffffffffffff16146114f7576040517f08c379a00000000000000000000000000000000000000000000000000000000081526004016114ee90612754565b60405180910390fd5b5f73ffffffffffffffffffffffffffffffffffffffff168373ffffffffffffffffffffffffffffffffffffffff1603611565576040517f08c379a000000000000000000000000000000000000000000000000000000000815260040161155c90612af8565b60405180910390fd5b5f8251116115a8576040517f08c379a000000000000000000000000000000000000000000000000000000000815260040161159f90612e03565b60405180910390fd5b5f600354905060035f8154809291906115c090612ba5565b91905055508360045f8381526020019081526020015f205f6101000a81548173ffffffffffffffffffffffffffffffffffffffff021916908373ffffffffffffffffffffffffffffffffffffffff16021790555060065f8573ffffffffffffffffffffffffffffffffffffffff1673ffffffffffffffffffffffffffffffffffffffff1681526020019081526020015f205f81548092919061166190612ba5565b91905055508260055f8381526020019081526020015f2090816116849190612977565b50808473ffffffffffffffffffffffffffffffffffffffff165f73ffffffffffffffffffffffffffffffffffffffff167fddf252ad1be2c89b69c2b068fc378daa952ba7f163c4a11628f55a4df523b3ef60405160405180910390a48091505092915050565b3373ffffffffffffffffffffffffffffffffffffffff168273ffffffffffffffffffffffffffffffffffffffff1603611758576040517f08c379a000000000000000000000000000000000000000000000000000000000815260040161174f90612e6b565b60405180910390fd5b8060085f3373ffffffffffffffffffffffffffffffffffffffff1673ffffffffffffffffffffffffffffffffffffffff1681526020019081526020015f205f8473ffffffffffffffffffffffffffffffffffffffff1673ffffffffffffffffffffffffffffffffffffffff1681526020019081526020015f205f6101000a81548160ff0219169083151502179055508173ffffffffffffffffffffffffffffffffffffffff163373ffffffffffffffffffffffffffffffffffffffff167f17307eab39ab6107e8899845ad3d59bd9653f200f220920489ca2b5937696c318360405161184491906124be565b60405180910390a35050565b5f835f73ffffffffffffffffffffffffffffffffffffffff1660045f8381526020019081526020015f205f9054906101000a900473ffffffffffffffffffffffffffffffffffffffff1673ffffffffffffffffffffffffffffffffffffffff16036118f0576040517f08c379a00000000000000000000000000000000000000000000000000000000081526004016118e7906125bc565b60405180910390fd5b8373ffffffffffffffffffffffffffffffffffffffff163373ffffffffffffffffffffffffffffffffffffffff161461195e576040517f08c379a000000000000000000000000000000000000000000000000000000000815260040161195590612b60565b60405180910390fd5b8373ffffffffffffffffffffffffffffffffffffffff1660045f8781526020019081526020015f205f9054906101000a900473ffffffffffffffffffffffffffffffffffffffff1673ffffffffffffffffffffffffffffffffffffffff16146119fc576040517f08c379a00000000000000000000000000000000000000000000000000000000081526004016119f390612ed3565b60405180910390fd5b5f73ffffffffffffffffffffffffffffffffffffffff168373ffffffffffffffffffffffffffffffffffffffff1603611a6a576040517f08c379a0000000000000000000000000000000000000000000000000000000008152600401611a6190612af8565b60405180910390fd5b5f60075f8781526020019081526020015f205f6101000a81548173ffffffffffffffffffffffffffffffffffffffff021916908373ffffffffffffffffffffffffffffffffffffffff16021790555060065f8573ffffffffffffffffffffffffffffffffffffffff1673ffffffffffffffffffffffffffffffffffffffff1681526020019081526020015f205f815480929190611b0690612b7e565b919050555060065f8473ffffffffffffffffffffffffffffffffffffffff1673ffffffffffffffffffffffffffffffffffffffff1681526020019081526020015f205f815480929190611b5890612ba5565b91905055508260045f8781526020019081526020015f205f6101000a81548173ffffffffffffffffffffffffffffffffffffffff021916908373ffffffffffffffffffffffffffffffffffffffff160217905550848373ffffffffffffffffffffffffffffffffffffffff168573ffffffffffffffffffffffffffffffffffffffff167fddf252ad1be2c89b69c2b068fc378daa952ba7f163c4a11628f55a4df523b3ef60405160405180910390a460019150509392505050565b5f60085f8473ffffffffffffffffffffffffffffffffffffffff1673ffffffffffffffffffffffffffffffffffffffff1681526020019081526020015f205f8373ffffffffffffffffffffffffffffffffffffffff1673ffffffffffffffffffffffffffffffffffffffff1681526020019081526020015f205f9054906101000a900460ff16905092915050565b5f81519050919050565b5f82825260208201905092915050565b5f5b83811015611cd8578082015181840152602081019050611cbd565b5f8484015250505050565b5f601f19601f8301169050919050565b5f611cfd82611ca1565b611d078185611cab565b9350611d17818560208601611cbb565b611d2081611ce3565b840191505092915050565b5f6020820190508181035f830152611d438184611cf3565b905092915050565b5f604051905090565b5f80fd5b5f80fd5b5f819050919050565b611d6e81611d5c565b8114611d78575f80fd5b50565b5f81359050611d8981611d65565b92915050565b5f60208284031215611da457611da3611d54565b5b5f611db184828501611d7b565b91505092915050565b5f73ffffffffffffffffffffffffffffffffffffffff82169050919050565b5f611de382611dba565b9050919050565b611df381611dd9565b82525050565b5f602082019050611e0c5f830184611dea565b92915050565b611e1b81611dd9565b8114611e25575f80fd5b50565b5f81359050611e3681611e12565b92915050565b5f8060408385031215611e5257611e51611d54565b5b5f611e5f85828601611e28565b9250506020611e7085828601611d7b565b9150509250929050565b611e8381611d5c565b82525050565b5f602082019050611e9c5f830184611e7a565b92915050565b5f80fd5b5f80fd5b7f4e487b71000000000000000000000000000000000000000000000000000000005f52604160045260245ffd5b611ee082611ce3565b810181811067ffffffffffffffff82111715611eff57611efe611eaa565b5b80604052505050565b5f611f11611d4b565b9050611f1d8282611ed7565b919050565b5f67ffffffffffffffff821115611f3c57611f3b611eaa565b5b611f4582611ce3565b9050602081019050919050565b828183375f83830152505050565b5f611f72611f6d84611f22565b611f08565b905082815260208101848484011115611f8e57611f8d611ea6565b5b611f99848285611f52565b509392505050565b5f82601f830112611fb557611fb4611ea2565b5b8135611fc5848260208601611f60565b91505092915050565b5f8060408385031215611fe457611fe3611d54565b5b5f611ff185828601611d7b565b925050602083013567ffffffffffffffff81111561201257612011611d58565b5b61201e85828601611fa1565b9150509250929050565b5f805f6060848603121561203f5761203e611d54565b5b5f61204c86828701611e28565b935050602061205d86828701611e28565b925050604061206e86828701611d7b565b9150509250925092565b5f6020828403121561208d5761208c611d54565b5b5f61209a84828501611e28565b91505092915050565b5f67ffffffffffffffff8211156120bd576120bc611eaa565b5b602082029050602081019050919050565b5f80fd5b5f6120e46120df846120a3565b611f08565b90508083825260208201905060208402830185811115612107576121066120ce565b5b835b81811015612130578061211c8882611e28565b845260208401935050602081019050612109565b5050509392505050565b5f82601f83011261214e5761214d611ea2565b5b813561215e8482602086016120d2565b91505092915050565b5f67ffffffffffffffff82111561218157612180611eaa565b5b602082029050602081019050919050565b5f6121a461219f84612167565b611f08565b905080838252602082019050602084028301858111156121c7576121c66120ce565b5b835b8181101561220e57803567ffffffffffffffff8111156121ec576121eb611ea2565b5b8086016121f98982611fa1565b855260208501945050506020810190506121c9565b5050509392505050565b5f82601f83011261222c5761222b611ea2565b5b813561223c848260208601612192565b91505092915050565b5f806040838503121561225b5761225a611d54565b5b5f83013567ffffffffffffffff81111561227857612277611d58565b5b6122848582860161213a565b925050602083013567ffffffffffffffff8111156122a5576122a4611d58565b5b6122b185828601612218565b9150509250929050565b5f81519050919050565b5f82825260208201905092915050565b5f819050602082019050919050565b6122ed81611d5c565b82525050565b5f6122fe83836122e4565b60208301905092915050565b5f602082019050919050565b5f612320826122bb565b61232a81856122c5565b9350612335836122d5565b805f5b8381101561236557815161234c88826122f3565b97506123578361230a565b925050600181019050612338565b5085935050505092915050565b5f6020820190508181035f83015261238a8184612316565b905092915050565b5f80604083850312156123a8576123a7611d54565b5b5f6123b585828601611e28565b925050602083013567ffffffffffffffff8111156123d6576123d5611d58565b5b6123e285828601611fa1565b9150509250929050565b5f8115159050919050565b612400816123ec565b811461240a575f80fd5b50565b5f8135905061241b816123f7565b92915050565b5f806040838503121561243757612436611d54565b5b5f61244485828601611e28565b92505060206124558582860161240d565b9150509250929050565b5f805f6060848603121561247657612475611d54565b5b5f61248386828701611d7b565b935050602061249486828701611e28565b92505060406124a586828701611e28565b9150509250925092565b6124b8816123ec565b82525050565b5f6020820190506124d15f8301846124af565b92915050565b5f80604083850312156124ed576124ec611d54565b5b5f6124fa85828601611e28565b925050602061250b85828601611e28565b9150509250929050565b7f4e487b71000000000000000000000000000000000000000000000000000000005f52602260045260245ffd5b5f600282049050600182168061255957607f821691505b60208210810361256c5761256b612515565b5b50919050565b7f546f6b656e20646f6573206e6f742065786973740000000000000000000000005f82015250565b5f6125a6601483611cab565b91506125b182612572565b602082019050919050565b5f6020820190508181035f8301526125d38161259a565b9050919050565b7f4e6f7420617574686f72697a656420746f20617070726f7665000000000000005f82015250565b5f61260e601983611cab565b9150612619826125da565b602082019050919050565b5f6020820190508181035f83015261263b81612602565b9050919050565b7f43616e6e6f7420617070726f7665206f776e65720000000000000000000000005f82015250565b5f612676601483611cab565b915061268182612642565b602082019050919050565b5f6020820190508181035f8301526126a38161266a565b9050919050565b7f4e487b71000000000000000000000000000000000000000000000000000000005f52601160045260245ffd5b5f6126e182611d5c565b91506126ec83611d5c565b9250828203905081811115612704576127036126aa565b5b92915050565b7f4f6e6c79206f776e65722063616e2063616c6c207468697300000000000000005f82015250565b5f61273e601883611cab565b91506127498261270a565b602082019050919050565b5f6020820190508181035f83015261276b81612732565b9050919050565b7f5552492063616e6e6f7420626520656d707479000000000000000000000000005f82015250565b5f6127a6601383611cab565b91506127b182612772565b602082019050919050565b5f6020820190508181035f8301526127d38161279a565b9050919050565b5f819050815f5260205f209050919050565b5f6020601f8301049050919050565b5f82821b905092915050565b5f600883026128367fffffffffffffffffffffffffffffffffffffffffffffffffffffffffffffffff826127fb565b61284086836127fb565b95508019841693508086168417925050509392505050565b5f819050919050565b5f61287b61287661287184611d5c565b612858565b611d5c565b9050919050565b5f819050919050565b61289483612861565b6128a86128a082612882565b848454612807565b825550505050565b5f90565b6128bc6128b0565b6128c781848461288b565b505050565b5b818110156128ea576128df5f826128b4565b6001810190506128cd565b5050565b601f82111561292f57612900816127da565b612909846127ec565b81016020851015612918578190505b61292c612924856127ec565b8301826128cc565b50505b505050565b5f82821c905092915050565b5f61294f5f1984600802612934565b1980831691505092915050565b5f6129678383612940565b9150826002028217905092915050565b61298082611ca1565b67ffffffffffffffff81111561299957612998611eaa565b5b6129a38254612542565b6129ae8282856128ee565b5f60209050601f8311600181146129df575f84156129cd578287015190505b6129d7858261295c565b865550612a3e565b601f1984166129ed866127da565b5f5b82811015612a14578489015182556001820191506020850194506020810190506129ef565b86831015612a315784890151612a2d601f891682612940565b8355505b6001600288020188555050505b505050505050565b7f46726f6d2061646472657373206973206e6f7420746865206f776e65720000005f82015250565b5f612a7a601d83611cab565b9150612a8582612a46565b602082019050919050565b5f6020820190508181035f830152612aa781612a6e565b9050919050565b7f496e76616c696420726563697069656e742061646472657373000000000000005f82015250565b5f612ae2601983611cab565b9150612aed82612aae565b602082019050919050565b5f6020820190508181035f830152612b0f81612ad6565b9050919050565b7f4e6f7420617574686f72697a656420746f207472616e736665720000000000005f82015250565b5f612b4a601a83611cab565b9150612b5582612b16565b602082019050919050565b5f6020820190508181035f830152612b7781612b3e565b9050919050565b5f612b8882611d5c565b91505f8203612b9a57612b996126aa565b5b600182039050919050565b5f612baf82611d5c565b91507fffffffffffffffffffffffffffffffffffffffffffffffffffffffffffffffff8203612be157612be06126aa565b5b600182019050919050565b7f496e76616c6964206164647265737300000000000000000000000000000000005f82015250565b5f612c20600f83611cab565b9150612c2b82612bec565b602082019050919050565b5f6020820190508181035f830152612c4d81612c14565b9050919050565b7f417272617973206d75737420686176652073616d65206c656e677468000000005f82015250565b5f612c88601c83611cab565b9150612c9382612c54565b602082019050919050565b5f6020820190508181035f830152612cb581612c7c565b9050919050565b7f4d757374206d696e74206174206c65617374206f6e6520746f6b656e000000005f82015250565b5f612cf0601c83611cab565b9150612cfb82612cbc565b602082019050919050565b5f6020820190508181035f830152612d1d81612ce4565b9050919050565b7f42617463682073697a6520746f6f206c617267650000000000000000000000005f82015250565b5f612d58601483611cab565b9150612d6382612d24565b602082019050919050565b5f6020820190508181035f830152612d8581612d4c565b9050919050565b7f4e487b71000000000000000000000000000000000000000000000000000000005f52603260045260245ffd5b7f4d65746164617461205552492063616e6e6f7420626520656d707479000000005f82015250565b5f612ded601c83611cab565b9150612df882612db9565b602082019050919050565b5f6020820190508181035f830152612e1a81612de1565b9050919050565b7f43616e6e6f7420617070726f766520796f757273656c660000000000000000005f82015250565b5f612e55601783611cab565b9150612e6082612e21565b602082019050919050565b5f6020820190508181035f830152612e8281612e49565b9050919050565b7f53656e646572206973206e6f7420746865206f776e65720000000000000000005f82015250565b5f612ebd601783611cab565b9150612ec882612e89565b602082019050919050565b5f6020820190508181035f830152612eea81612eb1565b905091905056fea2646970667358221220677235da9fb92dfb53cd5cacf83c4cbfd7f7a6f66ace85fe4b9e51abc15489de64736f6c63430008140033",
					"opcodes": "PUSH1 0x80 PUSH1 0x40 MSTORE PUSH1 0x40 MLOAD DUP1 PUSH1 0x40 ADD PUSH1 0x40 MSTORE DUP1 PUSH1 0x12 DUP2 MSTORE PUSH1 0x20 ADD PUSH32 0x426174746C6520566963746F7279204E46540000000000000000000000000000 DUP2 MSTORE POP PUSH1 0x1 SWAP1 DUP2 PUSH3 0x4A SWAP2 SWAP1 PUSH3 0x34D JUMP JUMPDEST POP PUSH1 0x40 MLOAD DUP1 PUSH1 0x40 ADD PUSH1 0x40 MSTORE DUP1 PUSH1 0x5 DUP2 MSTORE PUSH1 0x20 ADD PUSH32 0x42564E4654000000000000000000000000000000000000000000000000000000 DUP2 MSTORE POP PUSH1 0x2 SWAP1 DUP2 PUSH3 0x91 SWAP2 SWAP1 PUSH3 0x34D JUMP JUMPDEST POP PUSH1 0x1 PUSH1 0x3 SSTORE CALLVALUE DUP1 ISZERO PUSH3 0xA3 JUMPI PUSH0 DUP1 REVERT JUMPDEST POP CALLER PUSH0 DUP1 PUSH2 0x100 EXP DUP2 SLOAD DUP2 PUSH20 0xFFFFFFFFFFFFFFFFFFFFFFFFFFFFFFFFFFFFFFFF MUL NOT AND SWAP1 DUP4 PUSH20 0xFFFFFFFFFFFFFFFFFFFFFFFFFFFFFFFFFFFFFFFF AND MUL OR SWAP1 SSTORE POP PUSH3 0x431 JUMP JUMPDEST PUSH0 DUP2 MLOAD SWAP1 POP SWAP2 SWAP1 POP JUMP JUMPDEST PUSH32 0x4E487B7100000000000000000000000000000000000000000000000000000000 PUSH0 MSTORE PUSH1 0x41 PUSH1 0x4 MSTORE PUSH1 0x24 PUSH0 REVERT JUMPDEST PUSH32 0x4E487B7100000000000000000000000000000000000000000000000000000000 PUSH0 MSTORE PUSH1 0x22 PUSH1 0x4 MSTORE PUSH1 0x24 PUSH0 REVERT JUMPDEST PUSH0 PUSH1 0x2 DUP3 DIV SWAP1 POP PUSH1 0x1 DUP3 AND DUP1 PUSH3 0x165 JUMPI PUSH1 0x7F DUP3 AND SWAP2 POP JUMPDEST PUSH1 0x20 DUP3 LT DUP2 SUB PUSH3 0x17B JUMPI PUSH3 0x17A PUSH3 0x120 JUMP JUMPDEST JUMPDEST POP SWAP2 SWAP1 POP JUMP JUMPDEST PUSH0 DUP2 SWAP1 POP DUP2 PUSH0 MSTORE PUSH1 0x20 PUSH0 KECCAK256 SWAP1 POP SWAP2 SWAP1 POP JUMP JUMPDEST PUSH0 PUSH1 0x20 PUSH1 0x1F DUP4 ADD DIV SWAP1 POP SWAP2 SWAP1 POP JUMP JUMPDEST PUSH0 DUP3 DUP3 SHL SWAP1 POP SWAP3 SWAP2 POP POP JUMP JUMPDEST PUSH0 PUSH1 0x8 DUP4 MUL PUSH3 0x1DF PUSH32 0xFFFFFFFFFFFFFFFFFFFFFFFFFFFFFFFFFFFFFFFFFFFFFFFFFFFFFFFFFFFFFFFF DUP3 PUSH3 0x1A2 JUMP JUMPDEST PUSH3 0x1EB DUP7 DUP4 PUSH3 0x1A2 JUMP JUMPDEST SWAP6 POP DUP1 NOT DUP5 AND SWAP4 POP DUP1 DUP7 AND DUP5 OR SWAP3 POP POP POP SWAP4 SWAP3 POP POP POP JUMP JUMPDEST PUSH0 DUP2 SWAP1 POP SWAP2 SWAP1 POP JUMP JUMPDEST PUSH0 DUP2 SWAP1 POP SWAP2 SWAP1 POP JUMP JUMPDEST PUSH0 PUSH3 0x235 PUSH3 0x22F PUSH3 0x229 DUP5 PUSH3 0x203 JUMP JUMPDEST PUSH3 0x20C JUMP JUMPDEST PUSH3 0x203 JUMP JUMPDEST SWAP1 POP SWAP2 SWAP1 POP JUMP JUMPDEST PUSH0 DUP2 SWAP1 POP SWAP2 SWAP1 POP JUMP JUMPDEST PUSH3 0x250 DUP4 PUSH3 0x215 JUMP JUMPDEST PUSH3 0x268 PUSH3 0x25F DUP3 PUSH3 0x23C JUMP JUMPDEST DUP5 DUP5 SLOAD PUSH3 0x1AE JUMP JUMPDEST DUP3 SSTORE POP POP POP POP JUMP JUMPDEST PUSH0 SWAP1 JUMP JUMPDEST PUSH3 0x27E PUSH3 0x270 JUMP JUMPDEST PUSH3 0x28B DUP2 DUP5 DUP5 PUSH3 0x245 JUMP JUMPDEST POP POP POP JUMP JUMPDEST JUMPDEST DUP2 DUP2 LT ISZERO PUSH3 0x2B2 JUMPI PUSH3 0x2A6 PUSH0 DUP3 PUSH3 0x274 JUMP JUMPDEST PUSH1 0x1 DUP2 ADD SWAP1 POP PUSH3 0x291 JUMP JUMPDEST POP POP JUMP JUMPDEST PUSH1 0x1F DUP3 GT ISZERO PUSH3 0x301 JUMPI PUSH3 0x2CB DUP2 PUSH3 0x181 JUMP JUMPDEST PUSH3 0x2D6 DUP5 PUSH3 0x193 JUMP JUMPDEST DUP2 ADD PUSH1 0x20 DUP6 LT ISZERO PUSH3 0x2E6 JUMPI DUP2 SWAP1 POP JUMPDEST PUSH3 0x2FE PUSH3 0x2F5 DUP6 PUSH3 0x193 JUMP JUMPDEST DUP4 ADD DUP3 PUSH3 0x290 JUMP JUMPDEST POP POP JUMPDEST POP POP POP JUMP JUMPDEST PUSH0 DUP3 DUP3 SHR SWAP1 POP SWAP3 SWAP2 POP POP JUMP JUMPDEST PUSH0 PUSH3 0x323 PUSH0 NOT DUP5 PUSH1 0x8 MUL PUSH3 0x306 JUMP JUMPDEST NOT DUP1 DUP4 AND SWAP2 POP POP SWAP3 SWAP2 POP POP JUMP JUMPDEST PUSH0 PUSH3 0x33D DUP4 DUP4 PUSH3 0x312 JUMP JUMPDEST SWAP2 POP DUP3 PUSH1 0x2 MUL DUP3 OR SWAP1 POP SWAP3 SWAP2 POP POP JUMP JUMPDEST PUSH3 0x358 DUP3 PUSH3 0xE9 JUMP JUMPDEST PUSH8 0xFFFFFFFFFFFFFFFF DUP2 GT ISZERO PUSH3 0x374 JUMPI PUSH3 0x373 PUSH3 0xF3 JUMP JUMPDEST JUMPDEST PUSH3 0x380 DUP3 SLOAD PUSH3 0x14D JUMP JUMPDEST PUSH3 0x38D DUP3 DUP3 DUP6 PUSH3 0x2B6 JUMP JUMPDEST PUSH0 PUSH1 0x20 SWAP1 POP PUSH1 0x1F DUP4 GT PUSH1 0x1 DUP2 EQ PUSH3 0x3C3 JUMPI PUSH0 DUP5 ISZERO PUSH3 0x3AE JUMPI DUP3 DUP8 ADD MLOAD SWAP1 POP JUMPDEST PUSH3 0x3BA DUP6 DUP3 PUSH3 0x330 JUMP JUMPDEST DUP7 SSTORE POP PUSH3 0x429 JUMP JUMPDEST PUSH1 0x1F NOT DUP5 AND PUSH3 0x3D3 DUP7 PUSH3 0x181 JUMP JUMPDEST PUSH0 JUMPDEST DUP3 DUP2 LT ISZERO PUSH3 0x3FC JUMPI DUP5 DUP10 ADD MLOAD DUP3 SSTORE PUSH1 0x1 DUP3 ADD SWAP2 POP PUSH1 0x20 DUP6 ADD SWAP5 POP PUSH1 0x20 DUP2 ADD SWAP1 POP PUSH3 0x3D5 JUMP JUMPDEST DUP7 DUP4 LT ISZERO PUSH3 0x41C JUMPI DUP5 DUP10 ADD MLOAD PUSH3 0x418 PUSH1 0x1F DUP10 AND DUP3 PUSH3 0x312 JUMP JUMPDEST DUP4 SSTORE POP JUMPDEST PUSH1 0x1 PUSH1 0x2 DUP9 MUL ADD DUP9 SSTORE POP POP POP JUMPDEST POP POP POP POP POP POP JUMP JUMPDEST PUSH2 0x2F27 DUP1 PUSH3 0x43F PUSH0 CODECOPY PUSH0 RETURN INVALID PUSH1 0x80 PUSH1 0x40 MSTORE CALLVALUE DUP1 ISZERO PUSH2 0xF JUMPI PUSH0 DUP1 REVERT JUMPDEST POP PUSH1 0x4 CALLDATASIZE LT PUSH2 0x114 JUMPI PUSH0 CALLDATALOAD PUSH1 0xE0 SHR DUP1 PUSH4 0x70A08231 GT PUSH2 0xA0 JUMPI DUP1 PUSH4 0x95D89B41 GT PUSH2 0x6F JUMPI DUP1 PUSH4 0x95D89B41 EQ PUSH2 0x2F0 JUMPI DUP1 PUSH4 0xA02CDEE7 EQ PUSH2 0x30E JUMPI DUP1 PUSH4 0xA22CB465 EQ PUSH2 0x33E JUMPI DUP1 PUSH4 0xCCB570E3 EQ PUSH2 0x35A JUMPI DUP1 PUSH4 0xE985E9C5 EQ PUSH2 0x38A JUMPI PUSH2 0x114 JUMP JUMPDEST DUP1 PUSH4 0x70A08231 EQ PUSH2 0x254 JUMPI DUP1 PUSH4 0x83C4C00D EQ PUSH2 0x284 JUMPI DUP1 PUSH4 0x8DA5CB5B EQ PUSH2 0x2A2 JUMPI DUP1 PUSH4 0x924CFF6D EQ PUSH2 0x2C0 JUMPI PUSH2 0x114 JUMP JUMPDEST DUP1 PUSH4 0x18E97FD1 GT PUSH2 0xE7 JUMPI DUP1 PUSH4 0x18E97FD1 EQ PUSH2 0x1A0 JUMPI DUP1 PUSH4 0x23B872DD EQ PUSH2 0x1BC JUMPI DUP1 PUSH4 0x3BB3A24D EQ PUSH2 0x1D8 JUMPI DUP1 PUSH4 0x42842E0E EQ PUSH2 0x208 JUMPI DUP1 PUSH4 0x6352211E EQ PUSH2 0x224 JUMPI PUSH2 0x114 JUMP JUMPDEST DUP1 PUSH4 0x6FDDE03 EQ PUSH2 0x118 JUMPI DUP1 PUSH4 0x81812FC EQ PUSH2 0x136 JUMPI DUP1 PUSH4 0x95EA7B3 EQ PUSH2 0x166 JUMPI DUP1 PUSH4 0x18160DDD EQ PUSH2 0x182 JUMPI JUMPDEST PUSH0 DUP1 REVERT JUMPDEST PUSH2 0x120 PUSH2 0x3BA JUMP JUMPDEST PUSH1 0x40 MLOAD PUSH2 0x12D SWAP2 SWAP1 PUSH2 0x1D2B JUMP JUMPDEST PUSH1 0x40 MLOAD DUP1 SWAP2 SUB SWAP1 RETURN JUMPDEST PUSH2 0x150 PUSH1 0x4 DUP1 CALLDATASIZE SUB DUP2 ADD SWAP1 PUSH2 0x14B SWAP2 SWAP1 PUSH2 0x1D8F JUMP JUMPDEST PUSH2 0x446 JUMP JUMPDEST PUSH1 0x40 MLOAD PUSH2 0x15D SWAP2 SWAP1 PUSH2 0x1DF9 JUMP JUMPDEST PUSH1 0x40 MLOAD DUP1 SWAP2 SUB SWAP1 RETURN JUMPDEST PUSH2 0x180 PUSH1 0x4 DUP1 CALLDATASIZE SUB DUP2 ADD SWAP1 PUSH2 0x17B SWAP2 SWAP1 PUSH2 0x1E3C JUMP JUMPDEST PUSH2 0x51F JUMP JUMPDEST STOP JUMPDEST PUSH2 0x18A PUSH2 0x80A JUMP JUMPDEST PUSH1 0x40 MLOAD PUSH2 0x197 SWAP2 SWAP1 PUSH2 0x1E89 JUMP JUMPDEST PUSH1 0x40 MLOAD DUP1 SWAP2 SUB SWAP1 RETURN JUMPDEST PUSH2 0x1BA PUSH1 0x4 DUP1 CALLDATASIZE SUB DUP2 ADD SWAP1 PUSH2 0x1B5 SWAP2 SWAP1 PUSH2 0x1FCE JUMP JUMPDEST PUSH2 0x81F JUMP JUMPDEST STOP JUMPDEST PUSH2 0x1D6 PUSH1 0x4 DUP1 CALLDATASIZE SUB DUP2 ADD SWAP1 PUSH2 0x1D1 SWAP2 SWAP1 PUSH2 0x2028 JUMP JUMPDEST PUSH2 0x9EA JUMP JUMPDEST STOP JUMPDEST PUSH2 0x1F2 PUSH1 0x4 DUP1 CALLDATASIZE SUB DUP2 ADD SWAP1 PUSH2 0x1ED SWAP2 SWAP1 PUSH2 0x1D8F JUMP JUMPDEST PUSH2 0xE98 JUMP JUMPDEST PUSH1 0x40 MLOAD PUSH2 0x1FF SWAP2 SWAP1 PUSH2 0x1D2B JUMP JUMPDEST PUSH1 0x40 MLOAD DUP1 SWAP2 SUB SWAP1 RETURN JUMPDEST PUSH2 0x222 PUSH1 0x4 DUP1 CALLDATASIZE SUB DUP2 ADD SWAP1 PUSH2 0x21D SWAP2 SWAP1 PUSH2 0x2028 JUMP JUMPDEST PUSH2 0xFD9 JUMP JUMPDEST STOP JUMPDEST PUSH2 0x23E PUSH1 0x4 DUP1 CALLDATASIZE SUB DUP2 ADD SWAP1 PUSH2 0x239 SWAP2 SWAP1 PUSH2 0x1D8F JUMP JUMPDEST PUSH2 0xFE9 JUMP JUMPDEST PUSH1 0x40 MLOAD PUSH2 0x24B SWAP2 SWAP1 PUSH2 0x1DF9 JUMP JUMPDEST PUSH1 0x40 MLOAD DUP1 SWAP2 SUB SWAP1 RETURN JUMPDEST PUSH2 0x26E PUSH1 0x4 DUP1 CALLDATASIZE SUB DUP2 ADD SWAP1 PUSH2 0x269 SWAP2 SWAP1 PUSH2 0x2078 JUMP JUMPDEST PUSH2 0x10C2 JUMP JUMPDEST PUSH1 0x40 MLOAD PUSH2 0x27B SWAP2 SWAP1 PUSH2 0x1E89 JUMP JUMPDEST PUSH1 0x40 MLOAD DUP1 SWAP2 SUB SWAP1 RETURN JUMPDEST PUSH2 0x28C PUSH2 0x1176 JUMP JUMPDEST PUSH1 0x40 MLOAD PUSH2 0x299 SWAP2 SWAP1 PUSH2 0x1E89 JUMP JUMPDEST PUSH1 0x40 MLOAD DUP1 SWAP2 SUB SWAP1 RETURN JUMPDEST PUSH2 0x2AA PUSH2 0x118B JUMP JUMPDEST PUSH1 0x40 MLOAD PUSH2 0x2B7 SWAP2 SWAP1 PUSH2 0x1DF9 JUMP JUMPDEST PUSH1 0x40 MLOAD DUP1 SWAP2 SUB SWAP1 RETURN JUMPDEST PUSH2 0x2DA PUSH1 0x4 DUP1 CALLDATASIZE SUB DUP2 ADD SWAP1 PUSH2 0x2D5 SWAP2 SWAP1 PUSH2 0x2245 JUMP JUMPDEST PUSH2 0x11AE JUMP JUMPDEST PUSH1 0x40 MLOAD PUSH2 0x2E7 SWAP2 SWAP1 PUSH2 0x2372 JUMP JUMPDEST PUSH1 0x40 MLOAD DUP1 SWAP2 SUB SWAP1 RETURN JUMPDEST PUSH2 0x2F8 PUSH2 0x13DC JUMP JUMPDEST PUSH1 0x40 MLOAD PUSH2 0x305 SWAP2 SWAP1 PUSH2 0x1D2B JUMP JUMPDEST PUSH1 0x40 MLOAD DUP1 SWAP2 SUB SWAP1 RETURN JUMPDEST PUSH2 0x328 PUSH1 0x4 DUP1 CALLDATASIZE SUB DUP2 ADD SWAP1 PUSH2 0x323 SWAP2 SWAP1 PUSH2 0x2392 JUMP JUMPDEST PUSH2 0x1468 JUMP JUMPDEST PUSH1 0x40 MLOAD PUSH2 0x335 SWAP2 SWAP1 PUSH2 0x1E89 JUMP JUMPDEST PUSH1 0x40 MLOAD DUP1 SWAP2 SUB SWAP1 RETURN JUMPDEST PUSH2 0x358 PUSH1 0x4 DUP1 CALLDATASIZE SUB DUP2 ADD SWAP1 PUSH2 0x353 SWAP2 SWAP1 PUSH2 0x2421 JUMP JUMPDEST PUSH2 0x16EA JUMP JUMPDEST STOP JUMPDEST PUSH2 0x374 PUSH1 0x4 DUP1 CALLDATASIZE SUB DUP2 ADD SWAP1 PUSH2 0x36F SWAP2 SWAP1 PUSH2 0x245F JUMP JUMPDEST PUSH2 0x1850 JUMP JUMPDEST PUSH1 0x40 MLOAD PUSH2 0x381 SWAP2 SWAP1 PUSH2 0x24BE JUMP JUMPDEST PUSH1 0x40 MLOAD DUP1 SWAP2 SUB SWAP1 RETURN JUMPDEST PUSH2 0x3A4 PUSH1 0x4 DUP1 CALLDATASIZE SUB DUP2 ADD SWAP1 PUSH2 0x39F SWAP2 SWAP1 PUSH2 0x24D7 JUMP JUMPDEST PUSH2 0x1C13 JUMP JUMPDEST PUSH1 0x40 MLOAD PUSH2 0x3B1 SWAP2 SWAP1 PUSH2 0x24BE JUMP JUMPDEST PUSH1 0x40 MLOAD DUP1 SWAP2 SUB SWAP1 RETURN JUMPDEST PUSH1 0x1 DUP1 SLOAD PUSH2 0x3C7 SWAP1 PUSH2 0x2542 JUMP JUMPDEST DUP1 PUSH1 0x1F ADD PUSH1 0x20 DUP1 SWAP2 DIV MUL PUSH1 0x20 ADD PUSH1 0x40 MLOAD SWAP1 DUP2 ADD PUSH1 0x40 MSTORE DUP1 SWAP3 SWAP2 SWAP1 DUP2 DUP2 MSTORE PUSH1 0x20 ADD DUP3 DUP1 SLOAD PUSH2 0x3F3 SWAP1 PUSH2 0x2542 JUMP JUMPDEST DUP1 ISZERO PUSH2 0x43E JUMPI DUP1 PUSH1 0x1F LT PUSH2 0x415 JUMPI PUSH2 0x100 DUP1 DUP4 SLOAD DIV MUL DUP4 MSTORE SWAP2 PUSH1 0x20 ADD SWAP2 PUSH2 0x43E JUMP JUMPDEST DUP3 ADD SWAP2 SWAP1 PUSH0 MSTORE PUSH1 0x20 PUSH0 KECCAK256 SWAP1 JUMPDEST DUP2 SLOAD DUP2 MSTORE SWAP1 PUSH1 0x1 ADD SWAP1 PUSH1 0x20 ADD DUP1 DUP4 GT PUSH2 0x421 JUMPI DUP3 SWAP1 SUB PUSH1 0x1F AND DUP3 ADD SWAP2 JUMPDEST POP POP POP POP POP DUP2 JUMP JUMPDEST PUSH0 DUP2 PUSH0 PUSH20 0xFFFFFFFFFFFFFFFFFFFFFFFFFFFFFFFFFFFFFFFF AND PUSH1 0x4 PUSH0 DUP4 DUP2 MSTORE PUSH1 0x20 ADD SWAP1 DUP2 MSTORE PUSH1 0x20 ADD PUSH0 KECCAK256 PUSH0 SWAP1 SLOAD SWAP1 PUSH2 0x100 EXP SWAP1 DIV PUSH20 0xFFFFFFFFFFFFFFFFFFFFFFFFFFFFFFFFFFFFFFFF AND PUSH20 0xFFFFFFFFFFFFFFFFFFFFFFFFFFFFFFFFFFFFFFFF AND SUB PUSH2 0x4E6 JUMPI PUSH1 0x40 MLOAD PUSH32 0x8C379A000000000000000000000000000000000000000000000000000000000 DUP2 MSTORE PUSH1 0x4 ADD PUSH2 0x4DD SWAP1 PUSH2 0x25BC JUMP JUMPDEST PUSH1 0x40 MLOAD DUP1 SWAP2 SUB SWAP1 REVERT JUMPDEST PUSH1 0x7 PUSH0 DUP5 DUP2 MSTORE PUSH1 0x20 ADD SWAP1 DUP2 MSTORE PUSH1 0x20 ADD PUSH0 KECCAK256 PUSH0 SWAP1 SLOAD SWAP1 PUSH2 0x100 EXP SWAP1 DIV PUSH20 0xFFFFFFFFFFFFFFFFFFFFFFFFFFFFFFFFFFFFFFFF AND SWAP2 POP POP SWAP2 SWAP1 POP JUMP JUMPDEST DUP1 PUSH0 PUSH20 0xFFFFFFFFFFFFFFFFFFFFFFFFFFFFFFFFFFFFFFFF AND PUSH1 0x4 PUSH0 DUP4 DUP2 MSTORE PUSH1 0x20 ADD SWAP1 DUP2 MSTORE PUSH1 0x20 ADD PUSH0 KECCAK256 PUSH0 SWAP1 SLOAD SWAP1 PUSH2 0x100 EXP SWAP1 DIV PUSH20 0xFFFFFFFFFFFFFFFFFFFFFFFFFFFFFFFFFFFFFFFF AND PUSH20 0xFFFFFFFFFFFFFFFFFFFFFFFFFFFFFFFFFFFFFFFF AND SUB PUSH2 0x5BE JUMPI PUSH1 0x40 MLOAD PUSH32 0x8C379A000000000000000000000000000000000000000000000000000000000 DUP2 MSTORE PUSH1 0x4 ADD PUSH2 0x5B5 SWAP1 PUSH2 0x25BC JUMP JUMPDEST PUSH1 0x40 MLOAD DUP1 SWAP2 SUB SWAP1 REVERT JUMPDEST PUSH0 PUSH1 0x4 PUSH0 DUP5 DUP2 MSTORE PUSH1 0x20 ADD SWAP1 DUP2 MSTORE PUSH1 0x20 ADD PUSH0 KECCAK256 PUSH0 SWAP1 SLOAD SWAP1 PUSH2 0x100 EXP SWAP1 DIV PUSH20 0xFFFFFFFFFFFFFFFFFFFFFFFFFFFFFFFFFFFFFFFF AND SWAP1 POP DUP1 PUSH20 0xFFFFFFFFFFFFFFFFFFFFFFFFFFFFFFFFFFFFFFFF AND CALLER PUSH20 0xFFFFFFFFFFFFFFFFFFFFFFFFFFFFFFFFFFFFFFFF AND EQ DUP1 PUSH2 0x6AD JUMPI POP PUSH1 0x8 PUSH0 DUP3 PUSH20 0xFFFFFFFFFFFFFFFFFFFFFFFFFFFFFFFFFFFFFFFF AND PUSH20 0xFFFFFFFFFFFFFFFFFFFFFFFFFFFFFFFFFFFFFFFF AND DUP2 MSTORE PUSH1 0x20 ADD SWAP1 DUP2 MSTORE PUSH1 0x20 ADD PUSH0 KECCAK256 PUSH0 CALLER PUSH20 0xFFFFFFFFFFFFFFFFFFFFFFFFFFFFFFFFFFFFFFFF AND PUSH20 0xFFFFFFFFFFFFFFFFFFFFFFFFFFFFFFFFFFFFFFFF AND DUP2 MSTORE PUSH1 0x20 ADD SWAP1 DUP2 MSTORE PUSH1 0x20 ADD PUSH0 KECCAK256 PUSH0 SWAP1 SLOAD SWAP1 PUSH2 0x100 EXP SWAP1 DIV PUSH1 0xFF AND JUMPDEST PUSH2 0x6EC JUMPI PUSH1 0x40 MLOAD PUSH32 0x8C379A000000000000000000000000000000000000000000000000000000000 DUP2 MSTORE PUSH1 0x4 ADD PUSH2 0x6E3 SWAP1 PUSH2 0x2624 JUMP JUMPDEST PUSH1 0x40 MLOAD DUP1 SWAP2 SUB SWAP1 REVERT JUMPDEST DUP1 PUSH20 0xFFFFFFFFFFFFFFFFFFFFFFFFFFFFFFFFFFFFFFFF AND DUP5 PUSH20 0xFFFFFFFFFFFFFFFFFFFFFFFFFFFFFFFFFFFFFFFF AND SUB PUSH2 0x75A JUMPI PUSH1 0x40 MLOAD PUSH32 0x8C379A000000000000000000000000000000000000000000000000000000000 DUP2 MSTORE PUSH1 0x4 ADD PUSH2 0x751 SWAP1 PUSH2 0x268C JUMP JUMPDEST PUSH1 0x40 MLOAD DUP1 SWAP2 SUB SWAP1 REVERT JUMPDEST DUP4 PUSH1 0x7 PUSH0 DUP6 DUP2 MSTORE PUSH1 0x20 ADD SWAP1 DUP2 MSTORE PUSH1 0x20 ADD PUSH0 KECCAK256 PUSH0 PUSH2 0x100 EXP DUP2 SLOAD DUP2 PUSH20 0xFFFFFFFFFFFFFFFFFFFFFFFFFFFFFFFFFFFFFFFF MUL NOT AND SWAP1 DUP4 PUSH20 0xFFFFFFFFFFFFFFFFFFFFFFFFFFFFFFFFFFFFFFFF AND MUL OR SWAP1 SSTORE POP DUP3 DUP5 PUSH20 0xFFFFFFFFFFFFFFFFFFFFFFFFFFFFFFFFFFFFFFFF AND DUP3 PUSH20 0xFFFFFFFFFFFFFFFFFFFFFFFFFFFFFFFFFFFFFFFF AND PUSH32 0x8C5BE1E5EBEC7D5BD14F71427D1E84F3DD0314C0F7B2291E5B200AC8C7C3B925 PUSH1 0x40 MLOAD PUSH1 0x40 MLOAD DUP1 SWAP2 SUB SWAP1 LOG4 POP POP POP POP JUMP JUMPDEST PUSH0 PUSH1 0x1 PUSH1 0x3 SLOAD PUSH2 0x81A SWAP2 SWAP1 PUSH2 0x26D7 JUMP JUMPDEST SWAP1 POP SWAP1 JUMP JUMPDEST PUSH0 DUP1 SLOAD SWAP1 PUSH2 0x100 EXP SWAP1 DIV PUSH20 0xFFFFFFFFFFFFFFFFFFFFFFFFFFFFFFFFFFFFFFFF AND PUSH20 0xFFFFFFFFFFFFFFFFFFFFFFFFFFFFFFFFFFFFFFFF AND CALLER PUSH20 0xFFFFFFFFFFFFFFFFFFFFFFFFFFFFFFFFFFFFFFFF AND EQ PUSH2 0x8AC JUMPI PUSH1 0x40 MLOAD PUSH32 0x8C379A000000000000000000000000000000000000000000000000000000000 DUP2 MSTORE PUSH1 0x4 ADD PUSH2 0x8A3 SWAP1 PUSH2 0x2754 JUMP JUMPDEST PUSH1 0x40 MLOAD DUP1 SWAP2 SUB SWAP1 REVERT JUMPDEST DUP2 PUSH0 PUSH20 0xFFFFFFFFFFFFFFFFFFFFFFFFFFFFFFFFFFFFFFFF AND PUSH1 0x4 PUSH0 DUP4 DUP2 MSTORE PUSH1 0x20 ADD SWAP1 DUP2 MSTORE PUSH1 0x20 ADD PUSH0 KECCAK256 PUSH0 SWAP1 SLOAD SWAP1 PUSH2 0x100 EXP SWAP1 DIV PUSH20 0xFFFFFFFFFFFFFFFFFFFFFFFFFFFFFFFFFFFFFFFF AND PUSH20 0xFFFFFFFFFFFFFFFFFFFFFFFFFFFFFFFFFFFFFFFF AND SUB PUSH2 0x94B JUMPI PUSH1 0x40 MLOAD PUSH32 0x8C379A000000000000000000000000000000000000000000000000000000000 DUP2 MSTORE PUSH1 0x4 ADD PUSH2 0x942 SWAP1 PUSH2 0x25BC JUMP JUMPDEST PUSH1 0x40 MLOAD DUP1 SWAP2 SUB SWAP1 REVERT JUMPDEST PUSH0 DUP3 MLOAD GT PUSH2 0x98E JUMPI PUSH1 0x40 MLOAD PUSH32 0x8C379A000000000000000000000000000000000000000000000000000000000 DUP2 MSTORE PUSH1 0x4 ADD PUSH2 0x985 SWAP1 PUSH2 0x27BC JUMP JUMPDEST PUSH1 0x40 MLOAD DUP1 SWAP2 SUB SWAP1 REVERT JUMPDEST DUP2 PUSH1 0x5 PUSH0 DUP6 DUP2 MSTORE PUSH1 0x20 ADD SWAP1 DUP2 MSTORE PUSH1 0x20 ADD PUSH0 KECCAK256 SWAP1 DUP2 PUSH2 0x9AC SWAP2 SWAP1 PUSH2 0x2977 JUMP JUMPDEST POP DUP3 PUSH32 0xA7527B31563240D0F5F29D80C2F13916D38A7B2B19B892C43486ED47722F2FFB DUP4 PUSH1 0x40 MLOAD PUSH2 0x9DD SWAP2 SWAP1 PUSH2 0x1D2B JUMP JUMPDEST PUSH1 0x40 MLOAD DUP1 SWAP2 SUB SWAP1 LOG2 POP POP POP JUMP JUMPDEST DUP1 PUSH0 PUSH20 0xFFFFFFFFFFFFFFFFFFFFFFFFFFFFFFFFFFFFFFFF AND PUSH1 0x4 PUSH0 DUP4 DUP2 MSTORE PUSH1 0x20 ADD SWAP1 DUP2 MSTORE PUSH1 0x20 ADD PUSH0 KECCAK256 PUSH0 SWAP1 SLOAD SWAP1 PUSH2 0x100 EXP SWAP1 DIV PUSH20 0xFFFFFFFFFFFFFFFFFFFFFFFFFFFFFFFFFFFFFFFF AND PUSH20 0xFFFFFFFFFFFFFFFFFFFFFFFFFFFFFFFFFFFFFFFF AND SUB PUSH2 0xA89 JUMPI PUSH1 0x40 MLOAD PUSH32 0x8C379A000000000000000000000000000000000000000000000000000000000 DUP2 MSTORE PUSH1 0x4 ADD PUSH2 0xA80 SWAP1 PUSH2 0x25BC JUMP JUMPDEST PUSH1 0x40 MLOAD DUP1 SWAP2 SUB SWAP1 REVERT JUMPDEST DUP4 PUSH20 0xFFFFFFFFFFFFFFFFFFFFFFFFFFFFFFFFFFFFFFFF AND PUSH1 0x4 PUSH0 DUP5 DUP2 MSTORE PUSH1 0x20 ADD SWAP1 DUP2 MSTORE PUSH1 0x20 ADD PUSH0 KECCAK256 PUSH0 SWAP1 SLOAD SWAP1 PUSH2 0x100 EXP SWAP1 DIV PUSH20 0xFFFFFFFFFFFFFFFFFFFFFFFFFFFFFFFFFFFFFFFF AND PUSH20 0xFFFFFFFFFFFFFFFFFFFFFFFFFFFFFFFFFFFFFFFF AND EQ PUSH2 0xB27 JUMPI PUSH1 0x40 MLOAD PUSH32 0x8C379A000000000000000000000000000000000000000000000000000000000 DUP2 MSTORE PUSH1 0x4 ADD PUSH2 0xB1E SWAP1 PUSH2 0x2A90 JUMP JUMPDEST PUSH1 0x40 MLOAD DUP1 SWAP2 SUB SWAP1 REVERT JUMPDEST PUSH0 PUSH20 0xFFFFFFFFFFFFFFFFFFFFFFFFFFFFFFFFFFFFFFFF AND DUP4 PUSH20 0xFFFFFFFFFFFFFFFFFFFFFFFFFFFFFFFFFFFFFFFF AND SUB PUSH2 0xB95 JUMPI PUSH1 0x40 MLOAD PUSH32 0x8C379A000000000000000000000000000000000000000000000000000000000 DUP2 MSTORE PUSH1 0x4 ADD PUSH2 0xB8C SWAP1 PUSH2 0x2AF8 JUMP JUMPDEST PUSH1 0x40 MLOAD DUP1 SWAP2 SUB SWAP1 REVERT JUMPDEST DUP4 PUSH20 0xFFFFFFFFFFFFFFFFFFFFFFFFFFFFFFFFFFFFFFFF AND CALLER PUSH20 0xFFFFFFFFFFFFFFFFFFFFFFFFFFFFFFFFFFFFFFFF AND EQ DUP1 PUSH2 0xC2A JUMPI POP PUSH1 0x7 PUSH0 DUP4 DUP2 MSTORE PUSH1 0x20 ADD SWAP1 DUP2 MSTORE PUSH1 0x20 ADD PUSH0 KECCAK256 PUSH0 SWAP1 SLOAD SWAP1 PUSH2 0x100 EXP SWAP1 DIV PUSH20 0xFFFFFFFFFFFFFFFFFFFFFFFFFFFFFFFFFFFFFFFF AND PUSH20 0xFFFFFFFFFFFFFFFFFFFFFFFFFFFFFFFFFFFFFFFF AND CALLER PUSH20 0xFFFFFFFFFFFFFFFFFFFFFFFFFFFFFFFFFFFFFFFF AND EQ JUMPDEST DUP1 PUSH2 0xCB6 JUMPI POP PUSH1 0x8 PUSH0 DUP6 PUSH20 0xFFFFFFFFFFFFFFFFFFFFFFFFFFFFFFFFFFFFFFFF AND PUSH20 0xFFFFFFFFFFFFFFFFFFFFFFFFFFFFFFFFFFFFFFFF AND DUP2 MSTORE PUSH1 0x20 ADD SWAP1 DUP2 MSTORE PUSH1 0x20 ADD PUSH0 KECCAK256 PUSH0 CALLER PUSH20 0xFFFFFFFFFFFFFFFFFFFFFFFFFFFFFFFFFFFFFFFF AND PUSH20 0xFFFFFFFFFFFFFFFFFFFFFFFFFFFFFFFFFFFFFFFF AND DUP2 MSTORE PUSH1 0x20 ADD SWAP1 DUP2 MSTORE PUSH1 0x20 ADD PUSH0 KECCAK256 PUSH0 SWAP1 SLOAD SWAP1 PUSH2 0x100 EXP SWAP1 DIV PUSH1 0xFF AND JUMPDEST PUSH2 0xCF5 JUMPI PUSH1 0x40 MLOAD PUSH32 0x8C379A000000000000000000000000000000000000000000000000000000000 DUP2 MSTORE PUSH1 0x4 ADD PUSH2 0xCEC SWAP1 PUSH2 0x2B60 JUMP JUMPDEST PUSH1 0x40 MLOAD DUP1 SWAP2 SUB SWAP1 REVERT JUMPDEST PUSH0 PUSH1 0x7 PUSH0 DUP5 DUP2 MSTORE PUSH1 0x20 ADD SWAP1 DUP2 MSTORE PUSH1 0x20 ADD PUSH0 KECCAK256 PUSH0 PUSH2 0x100 EXP DUP2 SLOAD DUP2 PUSH20 0xFFFFFFFFFFFFFFFFFFFFFFFFFFFFFFFFFFFFFFFF MUL NOT AND SWAP1 DUP4 PUSH20 0xFFFFFFFFFFFFFFFFFFFFFFFFFFFFFFFFFFFFFFFF AND MUL OR SWAP1 SSTORE POP PUSH1 0x6 PUSH0 DUP6 PUSH20 0xFFFFFFFFFFFFFFFFFFFFFFFFFFFFFFFFFFFFFFFF AND PUSH20 0xFFFFFFFFFFFFFFFFFFFFFFFFFFFFFFFFFFFFFFFF AND DUP2 MSTORE PUSH1 0x20 ADD SWAP1 DUP2 MSTORE PUSH1 0x20 ADD PUSH0 KECCAK256 PUSH0 DUP2 SLOAD DUP1 SWAP3 SWAP2 SWAP1 PUSH2 0xD91 SWAP1 PUSH2 0x2B7E JUMP JUMPDEST SWAP2 SWAP1 POP SSTORE POP PUSH1 0x6 PUSH0 DUP5 PUSH20 0xFFFFFFFFFFFFFFFFFFFFFFFFFFFFFFFFFFFFFFFF AND PUSH20 0xFFFFFFFFFFFFFFFFFFFFFFFFFFFFFFFFFFFFFFFF AND DUP2 MSTORE PUSH1 0x20 ADD SWAP1 DUP2 MSTORE PUSH1 0x20 ADD PUSH0 KECCAK256 PUSH0 DUP2 SLOAD DUP1 SWAP3 SWAP2 SWAP1 PUSH2 0xDE3 SWAP1 PUSH2 0x2BA5 JUMP JUMPDEST SWAP2 SWAP1 POP SSTORE POP DUP3 PUSH1 0x4 PUSH0 DUP5 DUP2 MSTORE PUSH1 0x20 ADD SWAP1 DUP2 MSTORE PUSH1 0x20 ADD PUSH0 KECCAK256 PUSH0 PUSH2 0x100 EXP DUP2 SLOAD DUP2 PUSH20 0xFFFFFFFFFFFFFFFFFFFFFFFFFFFFFFFFFFFFFFFF MUL NOT AND SWAP1 DUP4 PUSH20 0xFFFFFFFFFFFFFFFFFFFFFFFFFFFFFFFFFFFFFFFF AND MUL OR SWAP1 SSTORE POP DUP2 DUP4 PUSH20 0xFFFFFFFFFFFFFFFFFFFFFFFFFFFFFFFFFFFFFFFF AND DUP6 PUSH20 0xFFFFFFFFFFFFFFFFFFFFFFFFFFFFFFFFFFFFFFFF AND PUSH32 0xDDF252AD1BE2C89B69C2B068FC378DAA952BA7F163C4A11628F55A4DF523B3EF PUSH1 0x40 MLOAD PUSH1 0x40 MLOAD DUP1 SWAP2 SUB SWAP1 LOG4 POP POP POP POP JUMP JUMPDEST PUSH1 0x60 DUP2 PUSH0 PUSH20 0xFFFFFFFFFFFFFFFFFFFFFFFFFFFFFFFFFFFFFFFF AND PUSH1 0x4 PUSH0 DUP4 DUP2 MSTORE PUSH1 0x20 ADD SWAP1 DUP2 MSTORE PUSH1 0x20 ADD PUSH0 KECCAK256 PUSH0 SWAP1 SLOAD SWAP1 PUSH2 0x100 EXP SWAP1 DIV PUSH20 0xFFFFFFFFFFFFFFFFFFFFFFFFFFFFFFFFFFFFFFFF AND PUSH20 0xFFFFFFFFFFFFFFFFFFFFFFFFFFFFFFFFFFFFFFFF AND SUB PUSH2 0xF39 JUMPI PUSH1 0x40 MLOAD PUSH32 0x8C379A000000000000000000000000000000000000000000000000000000000 DUP2 MSTORE PUSH1 0x4 ADD PUSH2 0xF30 SWAP1 PUSH2 0x25BC JUMP JUMPDEST PUSH1 0x40 MLOAD DUP1 SWAP2 SUB SWAP1 REVERT JUMPDEST PUSH1 0x5 PUSH0 DUP5 DUP2 MSTORE PUSH1 0x20 ADD SWAP1 DUP2 MSTORE PUSH1 0x20 ADD PUSH0 KECCAK256 DUP1 SLOAD PUSH2 0xF55 SWAP1 PUSH2 0x2542 JUMP JUMPDEST DUP1 PUSH1 0x1F ADD PUSH1 0x20 DUP1 SWAP2 DIV MUL PUSH1 0x20 ADD PUSH1 0x40 MLOAD SWAP1 DUP2 ADD PUSH1 0x40 MSTORE DUP1 SWAP3 SWAP2 SWAP1 DUP2 DUP2 MSTORE PUSH1 0x20 ADD DUP3 DUP1 SLOAD PUSH2 0xF81 SWAP1 PUSH2 0x2542 JUMP JUMPDEST DUP1 ISZERO PUSH2 0xFCC JUMPI DUP1 PUSH1 0x1F LT PUSH2 0xFA3 JUMPI PUSH2 0x100 DUP1 DUP4 SLOAD DIV MUL DUP4 MSTORE SWAP2 PUSH1 0x20 ADD SWAP2 PUSH2 0xFCC JUMP JUMPDEST DUP3 ADD SWAP2 SWAP1 PUSH0 MSTORE PUSH1 0x20 PUSH0 KECCAK256 SWAP1 JUMPDEST DUP2 SLOAD DUP2 MSTORE SWAP1 PUSH1 0x1 ADD SWAP1 PUSH1 0x20 ADD DUP1 DUP4 GT PUSH2 0xFAF JUMPI DUP3 SWAP1 SUB PUSH1 0x1F AND DUP3 ADD SWAP2 JUMPDEST POP POP POP POP POP SWAP2 POP POP SWAP2 SWAP1 POP JUMP JUMPDEST PUSH2 0xFE4 DUP4 DUP4 DUP4 PUSH2 0x9EA JUMP JUMPDEST POP POP POP JUMP JUMPDEST PUSH0 DUP2 PUSH0 PUSH20 0xFFFFFFFFFFFFFFFFFFFFFFFFFFFFFFFFFFFFFFFF AND PUSH1 0x4 PUSH0 DUP4 DUP2 MSTORE PUSH1 0x20 ADD SWAP1 DUP2 MSTORE PUSH1 0x20 ADD PUSH0 KECCAK256 PUSH0 SWAP1 SLOAD SWAP1 PUSH2 0x100 EXP SWAP1 DIV PUSH20 0xFFFFFFFFFFFFFFFFFFFFFFFFFFFFFFFFFFFFFFFF AND PUSH20 0xFFFFFFFFFFFFFFFFFFFFFFFFFFFFFFFFFFFFFFFF AND SUB PUSH2 0x1089 JUMPI PUSH1 0x40 MLOAD PUSH32 0x8C379A000000000000000000000000000000000000000000000000000000000 DUP2 MSTORE PUSH1 0x4 ADD PUSH2 0x1080 SWAP1 PUSH2 0x25BC JUMP JUMPDEST PUSH1 0x40 MLOAD DUP1 SWAP2 SUB SWAP1 REVERT JUMPDEST PUSH1 0x4 PUSH0 DUP5 DUP2 MSTORE PUSH1 0x20 ADD SWAP1 DUP2 MSTORE PUSH1 0x20 ADD PUSH0 KECCAK256 PUSH0 SWAP1 SLOAD SWAP1 PUSH2 0x100 EXP SWAP1 DIV PUSH20 0xFFFFFFFFFFFFFFFFFFFFFFFFFFFFFFFFFFFFFFFF AND SWAP2 POP POP SWAP2 SWAP1 POP JUMP JUMPDEST PUSH0 DUP1 PUSH20 0xFFFFFFFFFFFFFFFFFFFFFFFFFFFFFFFFFFFFFFFF AND DUP3 PUSH20 0xFFFFFFFFFFFFFFFFFFFFFFFFFFFFFFFFFFFFFFFF AND SUB PUSH2 0x1131 JUMPI PUSH1 0x40 MLOAD PUSH32 0x8C379A000000000000000000000000000000000000000000000000000000000 DUP2 MSTORE PUSH1 0x4 ADD PUSH2 0x1128 SWAP1 PUSH2 0x2C36 JUMP JUMPDEST PUSH1 0x40 MLOAD DUP1 SWAP2 SUB SWAP1 REVERT JUMPDEST PUSH1 0x6 PUSH0 DUP4 PUSH20 0xFFFFFFFFFFFFFFFFFFFFFFFFFFFFFFFFFFFFFFFF AND PUSH20 0xFFFFFFFFFFFFFFFFFFFFFFFFFFFFFFFFFFFFFFFF AND DUP2 MSTORE PUSH1 0x20 ADD SWAP1 DUP2 MSTORE PUSH1 0x20 ADD PUSH0 KECCAK256 SLOAD SWAP1 POP SWAP2 SWAP1 POP JUMP JUMPDEST PUSH0 PUSH1 0x1 PUSH1 0x3 SLOAD PUSH2 0x1186 SWAP2 SWAP1 PUSH2 0x26D7 JUMP JUMPDEST SWAP1 POP SWAP1 JUMP JUMPDEST PUSH0 DUP1 SLOAD SWAP1 PUSH2 0x100 EXP SWAP1 DIV PUSH20 0xFFFFFFFFFFFFFFFFFFFFFFFFFFFFFFFFFFFFFFFF AND DUP2 JUMP JUMPDEST PUSH1 0x60 PUSH0 DUP1 SLOAD SWAP1 PUSH2 0x100 EXP SWAP1 DIV PUSH20 0xFFFFFFFFFFFFFFFFFFFFFFFFFFFFFFFFFFFFFFFF AND PUSH20 0xFFFFFFFFFFFFFFFFFFFFFFFFFFFFFFFFFFFFFFFF AND CALLER PUSH20 0xFFFFFFFFFFFFFFFFFFFFFFFFFFFFFFFFFFFFFFFF AND EQ PUSH2 0x123D JUMPI PUSH1 0x40 MLOAD PUSH32 0x8C379A000000000000000000000000000000000000000000000000000000000 DUP2 MSTORE PUSH1 0x4 ADD PUSH2 0x1234 SWAP1 PUSH2 0x2754 JUMP JUMPDEST PUSH1 0x40 MLOAD DUP1 SWAP2 SUB SWAP1 REVERT JUMPDEST DUP2 MLOAD DUP4 MLOAD EQ PUSH2 0x1281 JUMPI PUSH1 0x40 MLOAD PUSH32 0x8C379A000000000000000000000000000000000000000000000000000000000 DUP2 MSTORE PUSH1 0x4 ADD PUSH2 0x1278 SWAP1 PUSH2 0x2C9E JUMP JUMPDEST PUSH1 0x40 MLOAD DUP1 SWAP2 SUB SWAP1 REVERT JUMPDEST PUSH0 DUP4 MLOAD GT PUSH2 0x12C4 JUMPI PUSH1 0x40 MLOAD PUSH32 0x8C379A000000000000000000000000000000000000000000000000000000000 DUP2 MSTORE PUSH1 0x4 ADD PUSH2 0x12BB SWAP1 PUSH2 0x2D06 JUMP JUMPDEST PUSH1 0x40 MLOAD DUP1 SWAP2 SUB SWAP1 REVERT JUMPDEST PUSH1 0x64 DUP4 MLOAD GT ISZERO PUSH2 0x1309 JUMPI PUSH1 0x40 MLOAD PUSH32 0x8C379A000000000000000000000000000000000000000000000000000000000 DUP2 MSTORE PUSH1 0x4 ADD PUSH2 0x1300 SWAP1 PUSH2 0x2D6E JUMP JUMPDEST PUSH1 0x40 MLOAD DUP1 SWAP2 SUB SWAP1 REVERT JUMPDEST PUSH0 DUP4 MLOAD PUSH8 0xFFFFFFFFFFFFFFFF DUP2 GT ISZERO PUSH2 0x1325 JUMPI PUSH2 0x1324 PUSH2 0x1EAA JUMP JUMPDEST JUMPDEST PUSH1 0x40 MLOAD SWAP1 DUP1 DUP3 MSTORE DUP1 PUSH1 0x20 MUL PUSH1 0x20 ADD DUP3 ADD PUSH1 0x40 MSTORE DUP1 ISZERO PUSH2 0x1353 JUMPI DUP2 PUSH1 0x20 ADD PUSH1 0x20 DUP3 MUL DUP1 CALLDATASIZE DUP4 CALLDATACOPY DUP1 DUP3 ADD SWAP2 POP POP SWAP1 POP JUMPDEST POP SWAP1 POP PUSH0 JUMPDEST DUP5 MLOAD DUP2 LT ISZERO PUSH2 0x13D1 JUMPI PUSH2 0x139F DUP6 DUP3 DUP2 MLOAD DUP2 LT PUSH2 0x1377 JUMPI PUSH2 0x1376 PUSH2 0x2D8C JUMP JUMPDEST JUMPDEST PUSH1 0x20 MUL PUSH1 0x20 ADD ADD MLOAD DUP6 DUP4 DUP2 MLOAD DUP2 LT PUSH2 0x1392 JUMPI PUSH2 0x1391 PUSH2 0x2D8C JUMP JUMPDEST JUMPDEST PUSH1 0x20 MUL PUSH1 0x20 ADD ADD MLOAD PUSH2 0x1468 JUMP JUMPDEST DUP3 DUP3 DUP2 MLOAD DUP2 LT PUSH2 0x13B2 JUMPI PUSH2 0x13B1 PUSH2 0x2D8C JUMP JUMPDEST JUMPDEST PUSH1 0x20 MUL PUSH1 0x20 ADD ADD DUP2 DUP2 MSTORE POP POP DUP1 DUP1 PUSH2 0x13C9 SWAP1 PUSH2 0x2BA5 JUMP JUMPDEST SWAP2 POP POP PUSH2 0x1358 JUMP JUMPDEST POP DUP1 SWAP2 POP POP SWAP3 SWAP2 POP POP JUMP JUMPDEST PUSH1 0x2 DUP1 SLOAD PUSH2 0x13E9 SWAP1 PUSH2 0x2542 JUMP JUMPDEST DUP1 PUSH1 0x1F ADD PUSH1 0x20 DUP1 SWAP2 DIV MUL PUSH1 0x20 ADD PUSH1 0x40 MLOAD SWAP1 DUP2 ADD PUSH1 0x40 MSTORE DUP1 SWAP3 SWAP2 SWAP1 DUP2 DUP2 MSTORE PUSH1 0x20 ADD DUP3 DUP1 SLOAD PUSH2 0x1415 SWAP1 PUSH2 0x2542 JUMP JUMPDEST DUP1 ISZERO PUSH2 0x1460 JUMPI DUP1 PUSH1 0x1F LT PUSH2 0x1437 JUMPI PUSH2 0x100 DUP1 DUP4 SLOAD DIV MUL DUP4 MSTORE SWAP2 PUSH1 0x20 ADD SWAP2 PUSH2 0x1460 JUMP JUMPDEST DUP3 ADD SWAP2 SWAP1 PUSH0 MSTORE PUSH1 0x20 PUSH0 KECCAK256 SWAP1 JUMPDEST DUP2 SLOAD DUP2 MSTORE SWAP1 PUSH1 0x1 ADD SWAP1 PUSH1 0x20 ADD DUP1 DUP4 GT PUSH2 0x1443 JUMPI DUP3 SWAP1 SUB PUSH1 0x1F AND DUP3 ADD SWAP2 JUMPDEST POP POP POP POP POP DUP2 JUMP JUMPDEST PUSH0 DUP1 PUSH0 SWAP1 SLOAD SWAP1 PUSH2 0x100 EXP SWAP1 DIV PUSH20 0xFFFFFFFFFFFFFFFFFFFFFFFFFFFFFFFFFFFFFFFF AND PUSH20 0xFFFFFFFFFFFFFFFFFFFFFFFFFFFFFFFFFFFFFFFF AND CALLER PUSH20 0xFFFFFFFFFFFFFFFFFFFFFFFFFFFFFFFFFFFFFFFF AND EQ PUSH2 0x14F7 JUMPI PUSH1 0x40 MLOAD PUSH32 0x8C379A000000000000000000000000000000000000000000000000000000000 DUP2 MSTORE PUSH1 0x4 ADD PUSH2 0x14EE SWAP1 PUSH2 0x2754 JUMP JUMPDEST PUSH1 0x40 MLOAD DUP1 SWAP2 SUB SWAP1 REVERT JUMPDEST PUSH0 PUSH20 0xFFFFFFFFFFFFFFFFFFFFFFFFFFFFFFFFFFFFFFFF AND DUP4 PUSH20 0xFFFFFFFFFFFFFFFFFFFFFFFFFFFFFFFFFFFFFFFF AND SUB PUSH2 0x1565 JUMPI PUSH1 0x40 MLOAD PUSH32 0x8C379A000000000000000000000000000000000000000000000000000000000 DUP2 MSTORE PUSH1 0x4 ADD PUSH2 0x155C SWAP1 PUSH2 0x2AF8 JUMP JUMPDEST PUSH1 0x40 MLOAD DUP1 SWAP2 SUB SWAP1 REVERT JUMPDEST PUSH0 DUP3 MLOAD GT PUSH2 0x15A8 JUMPI PUSH1 0x40 MLOAD PUSH32 0x8C379A000000000000000000000000000000000000000000000000000000000 DUP2 MSTORE PUSH1 0x4 ADD PUSH2 0x159F SWAP1 PUSH2 0x2E03 JUMP JUMPDEST PUSH1 0x40 MLOAD DUP1 SWAP2 SUB SWAP1 REVERT JUMPDEST PUSH0 PUSH1 0x3 SLOAD SWAP1 POP PUSH1 0x3 PUSH0 DUP2 SLOAD DUP1 SWAP3 SWAP2 SWAP1 PUSH2 0x15C0 SWAP1 PUSH2 0x2BA5 JUMP JUMPDEST SWAP2 SWAP1 POP SSTORE POP DUP4 PUSH1 0x4 PUSH0 DUP4 DUP2 MSTORE PUSH1 0x20 ADD SWAP1 DUP2 MSTORE PUSH1 0x20 ADD PUSH0 KECCAK256 PUSH0 PUSH2 0x100 EXP DUP2 SLOAD DUP2 PUSH20 0xFFFFFFFFFFFFFFFFFFFFFFFFFFFFFFFFFFFFFFFF MUL NOT AND SWAP1 DUP4 PUSH20 0xFFFFFFFFFFFFFFFFFFFFFFFFFFFFFFFFFFFFFFFF AND MUL OR SWAP1 SSTORE POP PUSH1 0x6 PUSH0 DUP6 PUSH20 0xFFFFFFFFFFFFFFFFFFFFFFFFFFFFFFFFFFFFFFFF AND PUSH20 0xFFFFFFFFFFFFFFFFFFFFFFFFFFFFFFFFFFFFFFFF AND DUP2 MSTORE PUSH1 0x20 ADD SWAP1 DUP2 MSTORE PUSH1 0x20 ADD PUSH0 KECCAK256 PUSH0 DUP2 SLOAD DUP1 SWAP3 SWAP2 SWAP1 PUSH2 0x1661 SWAP1 PUSH2 0x2BA5 JUMP JUMPDEST SWAP2 SWAP1 POP SSTORE POP DUP3 PUSH1 0x5 PUSH0 DUP4 DUP2 MSTORE PUSH1 0x20 ADD SWAP1 DUP2 MSTORE PUSH1 0x20 ADD PUSH0 KECCAK256 SWAP1 DUP2 PUSH2 0x1684 SWAP2 SWAP1 PUSH2 0x2977 JUMP JUMPDEST POP DUP1 DUP5 PUSH20 0xFFFFFFFFFFFFFFFFFFFFFFFFFFFFFFFFFFFFFFFF AND PUSH0 PUSH20 0xFFFFFFFFFFFFFFFFFFFFFFFFFFFFFFFFFFFFFFFF AND PUSH32 0xDDF252AD1BE2C89B69C2B068FC378DAA952BA7F163C4A11628F55A4DF523B3EF PUSH1 0x40 MLOAD PUSH1 0x40 MLOAD DUP1 SWAP2 SUB SWAP1 LOG4 DUP1 SWAP2 POP POP SWAP3 SWAP2 POP POP JUMP JUMPDEST CALLER PUSH20 0xFFFFFFFFFFFFFFFFFFFFFFFFFFFFFFFFFFFFFFFF AND DUP3 PUSH20 0xFFFFFFFFFFFFFFFFFFFFFFFFFFFFFFFFFFFFFFFF AND SUB PUSH2 0x1758 JUMPI PUSH1 0x40 MLOAD PUSH32 0x8C379A000000000000000000000000000000000000000000000000000000000 DUP2 MSTORE PUSH1 0x4 ADD PUSH2 0x174F SWAP1 PUSH2 0x2E6B JUMP JUMPDEST PUSH1 0x40 MLOAD DUP1 SWAP2 SUB SWAP1 REVERT JUMPDEST DUP1 PUSH1 0x8 PUSH0 CALLER PUSH20 0xFFFFFFFFFFFFFFFFFFFFFFFFFFFFFFFFFFFFFFFF AND PUSH20 0xFFFFFFFFFFFFFFFFFFFFFFFFFFFFFFFFFFFFFFFF AND DUP2 MSTORE PUSH1 0x20 ADD SWAP1 DUP2 MSTORE PUSH1 0x20 ADD PUSH0 KECCAK256 PUSH0 DUP5 PUSH20 0xFFFFFFFFFFFFFFFFFFFFFFFFFFFFFFFFFFFFFFFF AND PUSH20 0xFFFFFFFFFFFFFFFFFFFFFFFFFFFFFFFFFFFFFFFF AND DUP2 MSTORE PUSH1 0x20 ADD SWAP1 DUP2 MSTORE PUSH1 0x20 ADD PUSH0 KECCAK256 PUSH0 PUSH2 0x100 EXP DUP2 SLOAD DUP2 PUSH1 0xFF MUL NOT AND SWAP1 DUP4 ISZERO ISZERO MUL OR SWAP1 SSTORE POP DUP2 PUSH20 0xFFFFFFFFFFFFFFFFFFFFFFFFFFFFFFFFFFFFFFFF AND CALLER PUSH20 0xFFFFFFFFFFFFFFFFFFFFFFFFFFFFFFFFFFFFFFFF AND PUSH32 0x17307EAB39AB6107E8899845AD3D59BD9653F200F220920489CA2B5937696C31 DUP4 PUSH1 0x40 MLOAD PUSH2 0x1844 SWAP2 SWAP1 PUSH2 0x24BE JUMP JUMPDEST PUSH1 0x40 MLOAD DUP1 SWAP2 SUB SWAP1 LOG3 POP POP JUMP JUMPDEST PUSH0 DUP4 PUSH0 PUSH20 0xFFFFFFFFFFFFFFFFFFFFFFFFFFFFFFFFFFFFFFFF AND PUSH1 0x4 PUSH0 DUP4 DUP2 MSTORE PUSH1 0x20 ADD SWAP1 DUP2 MSTORE PUSH1 0x20 ADD PUSH0 KECCAK256 PUSH0 SWAP1 SLOAD SWAP1 PUSH2 0x100 EXP SWAP1 DIV PUSH20 0xFFFFFFFFFFFFFFFFFFFFFFFFFFFFFFFFFFFFFFFF AND PUSH20 0xFFFFFFFFFFFFFFFFFFFFFFFFFFFFFFFFFFFFFFFF AND SUB PUSH2 0x18F0 JUMPI PUSH1 0x40 MLOAD PUSH32 0x8C379A000000000000000000000000000000000000000000000000000000000 DUP2 MSTORE PUSH1 0x4 ADD PUSH2 0x18E7 SWAP1 PUSH2 0x25BC JUMP JUMPDEST PUSH1 0x40 MLOAD DUP1 SWAP2 SUB SWAP1 REVERT JUMPDEST DUP4 PUSH20 0xFFFFFFFFFFFFFFFFFFFFFFFFFFFFFFFFFFFFFFFF AND CALLER PUSH20 0xFFFFFFFFFFFFFFFFFFFFFFFFFFFFFFFFFFFFFFFF AND EQ PUSH2 0x195E JUMPI PUSH1 0x40 MLOAD PUSH32 0x8C379A000000000000000000000000000000000000000000000000000000000 DUP2 MSTORE PUSH1 0x4 ADD PUSH2 0x1955 SWAP1 PUSH2 0x2B60 JUMP JUMPDEST PUSH1 0x40 MLOAD DUP1 SWAP2 SUB SWAP1 REVERT JUMPDEST DUP4 PUSH20 0xFFFFFFFFFFFFFFFFFFFFFFFFFFFFFFFFFFFFFFFF AND PUSH1 0x4 PUSH0 DUP8 DUP2 MSTORE PUSH1 0x20 ADD SWAP1 DUP2 MSTORE PUSH1 0x20 ADD PUSH0 KECCAK256 PUSH0 SWAP1 SLOAD SWAP1 PUSH2 0x100 EXP SWAP1 DIV PUSH20 0xFFFFFFFFFFFFFFFFFFFFFFFFFFFFFFFFFFFFFFFF AND PUSH20 0xFFFFFFFFFFFFFFFFFFFFFFFFFFFFFFFFFFFFFFFF AND EQ PUSH2 0x19FC JUMPI PUSH1 0x40 MLOAD PUSH32 0x8C379A000000000000000000000000000000000000000000000000000000000 DUP2 MSTORE PUSH1 0x4 ADD PUSH2 0x19F3 SWAP1 PUSH2 0x2ED3 JUMP JUMPDEST PUSH1 0x40 MLOAD DUP1 SWAP2 SUB SWAP1 REVERT JUMPDEST PUSH0 PUSH20 0xFFFFFFFFFFFFFFFFFFFFFFFFFFFFFFFFFFFFFFFF AND DUP4 PUSH20 0xFFFFFFFFFFFFFFFFFFFFFFFFFFFFFFFFFFFFFFFF AND SUB PUSH2 0x1A6A JUMPI PUSH1 0x40 MLOAD PUSH32 0x8C379A000000000000000000000000000000000000000000000000000000000 DUP2 MSTORE PUSH1 0x4 ADD PUSH2 0x1A61 SWAP1 PUSH2 0x2AF8 JUMP JUMPDEST PUSH1 0x40 MLOAD DUP1 SWAP2 SUB SWAP1 REVERT JUMPDEST PUSH0 PUSH1 0x7 PUSH0 DUP8 DUP2 MSTORE PUSH1 0x20 ADD SWAP1 DUP2 MSTORE PUSH1 0x20 ADD PUSH0 KECCAK256 PUSH0 PUSH2 0x100 EXP DUP2 SLOAD DUP2 PUSH20 0xFFFFFFFFFFFFFFFFFFFFFFFFFFFFFFFFFFFFFFFF MUL NOT AND SWAP1 DUP4 PUSH20 0xFFFFFFFFFFFFFFFFFFFFFFFFFFFFFFFFFFFFFFFF AND MUL OR SWAP1 SSTORE POP PUSH1 0x6 PUSH0 DUP6 PUSH20 0xFFFFFFFFFFFFFFFFFFFFFFFFFFFFFFFFFFFFFFFF AND PUSH20 0xFFFFFFFFFFFFFFFFFFFFFFFFFFFFFFFFFFFFFFFF AND DUP2 MSTORE PUSH1 0x20 ADD SWAP1 DUP2 MSTORE PUSH1 0x20 ADD PUSH0 KECCAK256 PUSH0 DUP2 SLOAD DUP1 SWAP3 SWAP2 SWAP1 PUSH2 0x1B06 SWAP1 PUSH2 0x2B7E JUMP JUMPDEST SWAP2 SWAP1 POP SSTORE POP PUSH1 0x6 PUSH0 DUP5 PUSH20 0xFFFFFFFFFFFFFFFFFFFFFFFFFFFFFFFFFFFFFFFF AND PUSH20 0xFFFFFFFFFFFFFFFFFFFFFFFFFFFFFFFFFFFFFFFF AND DUP2 MSTORE PUSH1 0x20 ADD SWAP1 DUP2 MSTORE PUSH1 0x20 ADD PUSH0 KECCAK256 PUSH0 DUP2 SLOAD DUP1 SWAP3 SWAP2 SWAP1 PUSH2 0x1B58 SWAP1 PUSH2 0x2BA5 JUMP JUMPDEST SWAP2 SWAP1 POP SSTORE POP DUP3 PUSH1 0x4 PUSH0 DUP8 DUP2 MSTORE PUSH1 0x20 ADD SWAP1 DUP2 MSTORE PUSH1 0x20 ADD PUSH0 KECCAK256 PUSH0 PUSH2 0x100 EXP DUP2 SLOAD DUP2 PUSH20 0xFFFFFFFFFFFFFFFFFFFFFFFFFFFFFFFFFFFFFFFF MUL NOT AND SWAP1 DUP4 PUSH20 0xFFFFFFFFFFFFFFFFFFFFFFFFFFFFFFFFFFFFFFFF AND MUL OR SWAP1 SSTORE POP DUP5 DUP4 PUSH20 0xFFFFFFFFFFFFFFFFFFFFFFFFFFFFFFFFFFFFFFFF AND DUP6 PUSH20 0xFFFFFFFFFFFFFFFFFFFFFFFFFFFFFFFFFFFFFFFF AND PUSH32 0xDDF252AD1BE2C89B69C2B068FC378DAA952BA7F163C4A11628F55A4DF523B3EF PUSH1 0x40 MLOAD PUSH1 0x40 MLOAD DUP1 SWAP2 SUB SWAP1 LOG4 PUSH1 0x1 SWAP2 POP POP SWAP4 SWAP3 POP POP POP JUMP JUMPDEST PUSH0 PUSH1 0x8 PUSH0 DUP5 PUSH20 0xFFFFFFFFFFFFFFFFFFFFFFFFFFFFFFFFFFFFFFFF AND PUSH20 0xFFFFFFFFFFFFFFFFFFFFFFFFFFFFFFFFFFFFFFFF AND DUP2 MSTORE PUSH1 0x20 ADD SWAP1 DUP2 MSTORE PUSH1 0x20 ADD PUSH0 KECCAK256 PUSH0 DUP4 PUSH20 0xFFFFFFFFFFFFFFFFFFFFFFFFFFFFFFFFFFFFFFFF AND PUSH20 0xFFFFFFFFFFFFFFFFFFFFFFFFFFFFFFFFFFFFFFFF AND DUP2 MSTORE PUSH1 0x20 ADD SWAP1 DUP2 MSTORE PUSH1 0x20 ADD PUSH0 KECCAK256 PUSH0 SWAP1 SLOAD SWAP1 PUSH2 0x100 EXP SWAP1 DIV PUSH1 0xFF AND SWAP1 POP SWAP3 SWAP2 POP POP JUMP JUMPDEST PUSH0 DUP2 MLOAD SWAP1 POP SWAP2 SWAP1 POP JUMP JUMPDEST PUSH0 DUP3 DUP3 MSTORE PUSH1 0x20 DUP3 ADD SWAP1 POP SWAP3 SWAP2 POP POP JUMP JUMPDEST PUSH0 JUMPDEST DUP4 DUP2 LT ISZERO PUSH2 0x1CD8 JUMPI DUP1 DUP3 ADD MLOAD DUP2 DUP5 ADD MSTORE PUSH1 0x20 DUP2 ADD SWAP1 POP PUSH2 0x1CBD JUMP JUMPDEST PUSH0 DUP5 DUP5 ADD MSTORE POP POP POP POP JUMP JUMPDEST PUSH0 PUSH1 0x1F NOT PUSH1 0x1F DUP4 ADD AND SWAP1 POP SWAP2 SWAP1 POP JUMP JUMPDEST PUSH0 PUSH2 0x1CFD DUP3 PUSH2 0x1CA1 JUMP JUMPDEST PUSH2 0x1D07 DUP2 DUP6 PUSH2 0x1CAB JUMP JUMPDEST SWAP4 POP PUSH2 0x1D17 DUP2 DUP6 PUSH1 0x20 DUP7 ADD PUSH2 0x1CBB JUMP JUMPDEST PUSH2 0x1D20 DUP2 PUSH2 0x1CE3 JUMP JUMPDEST DUP5 ADD SWAP2 POP POP SWAP3 SWAP2 POP POP JUMP JUMPDEST PUSH0 PUSH1 0x20 DUP3 ADD SWAP1 POP DUP2 DUP2 SUB PUSH0 DUP4 ADD MSTORE PUSH2 0x1D43 DUP2 DUP5 PUSH2 0x1CF3 JUMP JUMPDEST SWAP1 POP SWAP3 SWAP2 POP POP JUMP JUMPDEST PUSH0 PUSH1 0x40 MLOAD SWAP1 POP SWAP1 JUMP JUMPDEST PUSH0 DUP1 REVERT JUMPDEST PUSH0 DUP1 REVERT JUMPDEST PUSH0 DUP2 SWAP1 POP SWAP2 SWAP1 POP JUMP JUMPDEST PUSH2 0x1D6E DUP2 PUSH2 0x1D5C JUMP JUMPDEST DUP2 EQ PUSH2 0x1D78 JUMPI PUSH0 DUP1 REVERT JUMPDEST POP JUMP JUMPDEST PUSH0 DUP2 CALLDATALOAD SWAP1 POP PUSH2 0x1D89 DUP2 PUSH2 0x1D65 JUMP JUMPDEST SWAP3 SWAP2 POP POP JUMP JUMPDEST PUSH0 PUSH1 0x20 DUP3 DUP5 SUB SLT ISZERO PUSH2 0x1DA4 JUMPI PUSH2 0x1DA3 PUSH2 0x1D54 JUMP JUMPDEST JUMPDEST PUSH0 PUSH2 0x1DB1 DUP5 DUP3 DUP6 ADD PUSH2 0x1D7B JUMP JUMPDEST SWAP2 POP POP SWAP3 SWAP2 POP POP JUMP JUMPDEST PUSH0 PUSH20 0xFFFFFFFFFFFFFFFFFFFFFFFFFFFFFFFFFFFFFFFF DUP3 AND SWAP1 POP SWAP2 SWAP1 POP JUMP JUMPDEST PUSH0 PUSH2 0x1DE3 DUP3 PUSH2 0x1DBA JUMP JUMPDEST SWAP1 POP SWAP2 SWAP1 POP JUMP JUMPDEST PUSH2 0x1DF3 DUP2 PUSH2 0x1DD9 JUMP JUMPDEST DUP3 MSTORE POP POP JUMP JUMPDEST PUSH0 PUSH1 0x20 DUP3 ADD SWAP1 POP PUSH2 0x1E0C PUSH0 DUP4 ADD DUP5 PUSH2 0x1DEA JUMP JUMPDEST SWAP3 SWAP2 POP POP JUMP JUMPDEST PUSH2 0x1E1B DUP2 PUSH2 0x1DD9 JUMP JUMPDEST DUP2 EQ PUSH2 0x1E25 JUMPI PUSH0 DUP1 REVERT JUMPDEST POP JUMP JUMPDEST PUSH0 DUP2 CALLDATALOAD SWAP1 POP PUSH2 0x1E36 DUP2 PUSH2 0x1E12 JUMP JUMPDEST SWAP3 SWAP2 POP POP JUMP JUMPDEST PUSH0 DUP1 PUSH1 0x40 DUP4 DUP6 SUB SLT ISZERO PUSH2 0x1E52 JUMPI PUSH2 0x1E51 PUSH2 0x1D54 JUMP JUMPDEST JUMPDEST PUSH0 PUSH2 0x1E5F DUP6 DUP3 DUP7 ADD PUSH2 0x1E28 JUMP JUMPDEST SWAP3 POP POP PUSH1 0x20 PUSH2 0x1E70 DUP6 DUP3 DUP7 ADD PUSH2 0x1D7B JUMP JUMPDEST SWAP2 POP POP SWAP3 POP SWAP3 SWAP1 POP JUMP JUMPDEST PUSH2 0x1E83 DUP2 PUSH2 0x1D5C JUMP JUMPDEST DUP3 MSTORE POP POP JUMP JUMPDEST PUSH0 PUSH1 0x20 DUP3 ADD SWAP1 POP PUSH2 0x1E9C PUSH0 DUP4 ADD DUP5 PUSH2 0x1E7A JUMP JUMPDEST SWAP3 SWAP2 POP POP JUMP JUMPDEST PUSH0 DUP1 REVERT JUMPDEST PUSH0 DUP1 REVERT JUMPDEST PUSH32 0x4E487B7100000000000000000000000000000000000000000000000000000000 PUSH0 MSTORE PUSH1 0x41 PUSH1 0x4 MSTORE PUSH1 0x24 PUSH0 REVERT JUMPDEST PUSH2 0x1EE0 DUP3 PUSH2 0x1CE3 JUMP JUMPDEST DUP2 ADD DUP2 DUP2 LT PUSH8 0xFFFFFFFFFFFFFFFF DUP3 GT OR ISZERO PUSH2 0x1EFF JUMPI PUSH2 0x1EFE PUSH2 0x1EAA JUMP JUMPDEST JUMPDEST DUP1 PUSH1 0x40 MSTORE POP POP POP JUMP JUMPDEST PUSH0 PUSH2 0x1F11 PUSH2 0x1D4B JUMP JUMPDEST SWAP1 POP PUSH2 0x1F1D DUP3 DUP3 PUSH2 0x1ED7 JUMP JUMPDEST SWAP2 SWAP1 POP JUMP JUMPDEST PUSH0 PUSH8 0xFFFFFFFFFFFFFFFF DUP3 GT ISZERO PUSH2 0x1F3C JUMPI PUSH2 0x1F3B PUSH2 0x1EAA JUMP JUMPDEST JUMPDEST PUSH2 0x1F45 DUP3 PUSH2 0x1CE3 JUMP JUMPDEST SWAP1 POP PUSH1 0x20 DUP2 ADD SWAP1 POP SWAP2 SWAP1 POP JUMP JUMPDEST DUP3 DUP2 DUP4 CALLDATACOPY PUSH0 DUP4 DUP4 ADD MSTORE POP POP POP JUMP JUMPDEST PUSH0 PUSH2 0x1F72 PUSH2 0x1F6D DUP5 PUSH2 0x1F22 JUMP JUMPDEST PUSH2 0x1F08 JUMP JUMPDEST SWAP1 POP DUP3 DUP2 MSTORE PUSH1 0x20 DUP2 ADD DUP5 DUP5 DUP5 ADD GT ISZERO PUSH2 0x1F8E JUMPI PUSH2 0x1F8D PUSH2 0x1EA6 JUMP JUMPDEST JUMPDEST PUSH2 0x1F99 DUP5 DUP3 DUP6 PUSH2 0x1F52 JUMP JUMPDEST POP SWAP4 SWAP3 POP POP POP JUMP JUMPDEST PUSH0 DUP3 PUSH1 0x1F DUP4 ADD SLT PUSH2 0x1FB5 JUMPI PUSH2 0x1FB4 PUSH2 0x1EA2 JUMP JUMPDEST JUMPDEST DUP2 CALLDATALOAD PUSH2 0x1FC5 DUP5 DUP3 PUSH1 0x20 DUP7 ADD PUSH2 0x1F60 JUMP JUMPDEST SWAP2 POP POP SWAP3 SWAP2 POP POP JUMP JUMPDEST PUSH0 DUP1 PUSH1 0x40 DUP4 DUP6 SUB SLT ISZERO PUSH2 0x1FE4 JUMPI PUSH2 0x1FE3 PUSH2 0x1D54 JUMP JUMPDEST JUMPDEST PUSH0 PUSH2 0x1FF1 DUP6 DUP3 DUP7 ADD PUSH2 0x1D7B JUMP JUMPDEST SWAP3 POP POP PUSH1 0x20 DUP4 ADD CALLDATALOAD PUSH8 0xFFFFFFFFFFFFFFFF DUP2 GT ISZERO PUSH2 0x2012 JUMPI PUSH2 0x2011 PUSH2 0x1D58 JUMP JUMPDEST JUMPDEST PUSH2 0x201E DUP6 DUP3 DUP7 ADD PUSH2 0x1FA1 JUMP JUMPDEST SWAP2 POP POP SWAP3 POP SWAP3 SWAP1 POP JUMP JUMPDEST PUSH0 DUP1 PUSH0 PUSH1 0x60 DUP5 DUP7 SUB SLT ISZERO PUSH2 0x203F JUMPI PUSH2 0x203E PUSH2 0x1D54 JUMP JUMPDEST JUMPDEST PUSH0 PUSH2 0x204C DUP7 DUP3 DUP8 ADD PUSH2 0x1E28 JUMP JUMPDEST SWAP4 POP POP PUSH1 0x20 PUSH2 0x205D DUP7 DUP3 DUP8 ADD PUSH2 0x1E28 JUMP JUMPDEST SWAP3 POP POP PUSH1 0x40 PUSH2 0x206E DUP7 DUP3 DUP8 ADD PUSH2 0x1D7B JUMP JUMPDEST SWAP2 POP POP SWAP3 POP SWAP3 POP SWAP3 JUMP JUMPDEST PUSH0 PUSH1 0x20 DUP3 DUP5 SUB SLT ISZERO PUSH2 0x208D JUMPI PUSH2 0x208C PUSH2 0x1D54 JUMP JUMPDEST JUMPDEST PUSH0 PUSH2 0x209A DUP5 DUP3 DUP6 ADD PUSH2 0x1E28 JUMP JUMPDEST SWAP2 POP POP SWAP3 SWAP2 POP POP JUMP JUMPDEST PUSH0 PUSH8 0xFFFFFFFFFFFFFFFF DUP3 GT ISZERO PUSH2 0x20BD JUMPI PUSH2 0x20BC PUSH2 0x1EAA JUMP JUMPDEST JUMPDEST PUSH1 0x20 DUP3 MUL SWAP1 POP PUSH1 0x20 DUP2 ADD SWAP1 POP SWAP2 SWAP1 POP JUMP JUMPDEST PUSH0 DUP1 REVERT JUMPDEST PUSH0 PUSH2 0x20E4 PUSH2 0x20DF DUP5 PUSH2 0x20A3 JUMP JUMPDEST PUSH2 0x1F08 JUMP JUMPDEST SWAP1 POP DUP1 DUP4 DUP3 MSTORE PUSH1 0x20 DUP3 ADD SWAP1 POP PUSH1 0x20 DUP5 MUL DUP4 ADD DUP6 DUP2 GT ISZERO PUSH2 0x2107 JUMPI PUSH2 0x2106 PUSH2 0x20CE JUMP JUMPDEST JUMPDEST DUP4 JUMPDEST DUP2 DUP2 LT ISZERO PUSH2 0x2130 JUMPI DUP1 PUSH2 0x211C DUP9 DUP3 PUSH2 0x1E28 JUMP JUMPDEST DUP5 MSTORE PUSH1 0x20 DUP5 ADD SWAP4 POP POP PUSH1 0x20 DUP2 ADD SWAP1 POP PUSH2 0x2109 JUMP JUMPDEST POP POP POP SWAP4 SWAP3 POP POP POP JUMP JUMPDEST PUSH0 DUP3 PUSH1 0x1F DUP4 ADD SLT PUSH2 0x214E JUMPI PUSH2 0x214D PUSH2 0x1EA2 JUMP JUMPDEST JUMPDEST DUP2 CALLDATALOAD PUSH2 0x215E DUP5 DUP3 PUSH1 0x20 DUP7 ADD PUSH2 0x20D2 JUMP JUMPDEST SWAP2 POP POP SWAP3 SWAP2 POP POP JUMP JUMPDEST PUSH0 PUSH8 0xFFFFFFFFFFFFFFFF DUP3 GT ISZERO PUSH2 0x2181 JUMPI PUSH2 0x2180 PUSH2 0x1EAA JUMP JUMPDEST JUMPDEST PUSH1 0x20 DUP3 MUL SWAP1 POP PUSH1 0x20 DUP2 ADD SWAP1 POP SWAP2 SWAP1 POP JUMP JUMPDEST PUSH0 PUSH2 0x21A4 PUSH2 0x219F DUP5 PUSH2 0x2167 JUMP JUMPDEST PUSH2 0x1F08 JUMP JUMPDEST SWAP1 POP DUP1 DUP4 DUP3 MSTORE PUSH1 0x20 DUP3 ADD SWAP1 POP PUSH1 0x20 DUP5 MUL DUP4 ADD DUP6 DUP2 GT ISZERO PUSH2 0x21C7 JUMPI PUSH2 0x21C6 PUSH2 0x20CE JUMP JUMPDEST JUMPDEST DUP4 JUMPDEST DUP2 DUP2 LT ISZERO PUSH2 0x220E JUMPI DUP1 CALLDATALOAD PUSH8 0xFFFFFFFFFFFFFFFF DUP2 GT ISZERO PUSH2 0x21EC JUMPI PUSH2 0x21EB PUSH2 0x1EA2 JUMP JUMPDEST JUMPDEST DUP1 DUP7 ADD PUSH2 0x21F9 DUP10 DUP3 PUSH2 0x1FA1 JUMP JUMPDEST DUP6 MSTORE PUSH1 0x20 DUP6 ADD SWAP5 POP POP POP PUSH1 0x20 DUP2 ADD SWAP1 POP PUSH2 0x21C9 JUMP JUMPDEST POP POP POP SWAP4 SWAP3 POP POP POP JUMP JUMPDEST PUSH0 DUP3 PUSH1 0x1F DUP4 ADD SLT PUSH2 0x222C JUMPI PUSH2 0x222B PUSH2 0x1EA2 JUMP JUMPDEST JUMPDEST DUP2 CALLDATALOAD PUSH2 0x223C DUP5 DUP3 PUSH1 0x20 DUP7 ADD PUSH2 0x2192 JUMP JUMPDEST SWAP2 POP POP SWAP3 SWAP2 POP POP JUMP JUMPDEST PUSH0 DUP1 PUSH1 0x40 DUP4 DUP6 SUB SLT ISZERO PUSH2 0x225B JUMPI PUSH2 0x225A PUSH2 0x1D54 JUMP JUMPDEST JUMPDEST PUSH0 DUP4 ADD CALLDATALOAD PUSH8 0xFFFFFFFFFFFFFFFF DUP2 GT ISZERO PUSH2 0x2278 JUMPI PUSH2 0x2277 PUSH2 0x1D58 JUMP JUMPDEST JUMPDEST PUSH2 0x2284 DUP6 DUP3 DUP7 ADD PUSH2 0x213A JUMP JUMPDEST SWAP3 POP POP PUSH1 0x20 DUP4 ADD CALLDATALOAD PUSH8 0xFFFFFFFFFFFFFFFF DUP2 GT ISZERO PUSH2 0x22A5 JUMPI PUSH2 0x22A4 PUSH2 0x1D58 JUMP JUMPDEST JUMPDEST PUSH2 0x22B1 DUP6 DUP3 DUP7 ADD PUSH2 0x2218 JUMP JUMPDEST SWAP2 POP POP SWAP3 POP SWAP3 SWAP1 POP JUMP JUMPDEST PUSH0 DUP2 MLOAD SWAP1 POP SWAP2 SWAP1 POP JUMP JUMPDEST PUSH0 DUP3 DUP3 MSTORE PUSH1 0x20 DUP3 ADD SWAP1 POP SWAP3 SWAP2 POP POP JUMP JUMPDEST PUSH0 DUP2 SWAP1 POP PUSH1 0x20 DUP3 ADD SWAP1 POP SWAP2 SWAP1 POP JUMP JUMPDEST PUSH2 0x22ED DUP2 PUSH2 0x1D5C JUMP JUMPDEST DUP3 MSTORE POP POP JUMP JUMPDEST PUSH0 PUSH2 0x22FE DUP4 DUP4 PUSH2 0x22E4 JUMP JUMPDEST PUSH1 0x20 DUP4 ADD SWAP1 POP SWAP3 SWAP2 POP POP JUMP JUMPDEST PUSH0 PUSH1 0x20 DUP3 ADD SWAP1 POP SWAP2 SWAP1 POP JUMP JUMPDEST PUSH0 PUSH2 0x2320 DUP3 PUSH2 0x22BB JUMP JUMPDEST PUSH2 0x232A DUP2 DUP6 PUSH2 0x22C5 JUMP JUMPDEST SWAP4 POP PUSH2 0x2335 DUP4 PUSH2 0x22D5 JUMP JUMPDEST DUP1 PUSH0 JUMPDEST DUP4 DUP2 LT ISZERO PUSH2 0x2365 JUMPI DUP2 MLOAD PUSH2 0x234C DUP9 DUP3 PUSH2 0x22F3 JUMP JUMPDEST SWAP8 POP PUSH2 0x2357 DUP4 PUSH2 0x230A JUMP JUMPDEST SWAP3 POP POP PUSH1 0x1 DUP2 ADD SWAP1 POP PUSH2 0x2338 JUMP JUMPDEST POP DUP6 SWAP4 POP POP POP POP SWAP3 SWAP2 POP POP JUMP JUMPDEST PUSH0 PUSH1 0x20 DUP3 ADD SWAP1 POP DUP2 DUP2 SUB PUSH0 DUP4 ADD MSTORE PUSH2 0x238A DUP2 DUP5 PUSH2 0x2316 JUMP JUMPDEST SWAP1 POP SWAP3 SWAP2 POP POP JUMP JUMPDEST PUSH0 DUP1 PUSH1 0x40 DUP4 DUP6 SUB SLT ISZERO PUSH2 0x23A8 JUMPI PUSH2 0x23A7 PUSH2 0x1D54 JUMP JUMPDEST JUMPDEST PUSH0 PUSH2 0x23B5 DUP6 DUP3 DUP7 ADD PUSH2 0x1E28 JUMP JUMPDEST SWAP3 POP POP PUSH1 0x20 DUP4 ADD CALLDATALOAD PUSH8 0xFFFFFFFFFFFFFFFF DUP2 GT ISZERO PUSH2 0x23D6 JUMPI PUSH2 0x23D5 PUSH2 0x1D58 JUMP JUMPDEST JUMPDEST PUSH2 0x23E2 DUP6 DUP3 DUP7 ADD PUSH2 0x1FA1 JUMP JUMPDEST SWAP2 POP POP SWAP3 POP SWAP3 SWAP1 POP JUMP JUMPDEST PUSH0 DUP2 ISZERO ISZERO SWAP1 POP SWAP2 SWAP1 POP JUMP JUMPDEST PUSH2 0x2400 DUP2 PUSH2 0x23EC JUMP JUMPDEST DUP2 EQ PUSH2 0x240A JUMPI PUSH0 DUP1 REVERT JUMPDEST POP JUMP JUMPDEST PUSH0 DUP2 CALLDATALOAD SWAP1 POP PUSH2 0x241B DUP2 PUSH2 0x23F7 JUMP JUMPDEST SWAP3 SWAP2 POP POP JUMP JUMPDEST PUSH0 DUP1 PUSH1 0x40 DUP4 DUP6 SUB SLT ISZERO PUSH2 0x2437 JUMPI PUSH2 0x2436 PUSH2 0x1D54 JUMP JUMPDEST JUMPDEST PUSH0 PUSH2 0x2444 DUP6 DUP3 DUP7 ADD PUSH2 0x1E28 JUMP JUMPDEST SWAP3 POP POP PUSH1 0x20 PUSH2 0x2455 DUP6 DUP3 DUP7 ADD PUSH2 0x240D JUMP JUMPDEST SWAP2 POP POP SWAP3 POP SWAP3 SWAP1 POP JUMP JUMPDEST PUSH0 DUP1 PUSH0 PUSH1 0x60 DUP5 DUP7 SUB SLT ISZERO PUSH2 0x2476 JUMPI PUSH2 0x2475 PUSH2 0x1D54 JUMP JUMPDEST JUMPDEST PUSH0 PUSH2 0x2483 DUP7 DUP3 DUP8 ADD PUSH2 0x1D7B JUMP JUMPDEST SWAP4 POP POP PUSH1 0x20 PUSH2 0x2494 DUP7 DUP3 DUP8 ADD PUSH2 0x1E28 JUMP JUMPDEST SWAP3 POP POP PUSH1 0x40 PUSH2 0x24A5 DUP7 DUP3 DUP8 ADD PUSH2 0x1E28 JUMP JUMPDEST SWAP2 POP POP SWAP3 POP SWAP3 POP SWAP3 JUMP JUMPDEST PUSH2 0x24B8 DUP2 PUSH2 0x23EC JUMP JUMPDEST DUP3 MSTORE POP POP JUMP JUMPDEST PUSH0 PUSH1 0x20 DUP3 ADD SWAP1 POP PUSH2 0x24D1 PUSH0 DUP4 ADD DUP5 PUSH2 0x24AF JUMP JUMPDEST SWAP3 SWAP2 POP POP JUMP JUMPDEST PUSH0 DUP1 PUSH1 0x40 DUP4 DUP6 SUB SLT ISZERO PUSH2 0x24ED JUMPI PUSH2 0x24EC PUSH2 0x1D54 JUMP JUMPDEST JUMPDEST PUSH0 PUSH2 0x24FA DUP6 DUP3 DUP7 ADD PUSH2 0x1E28 JUMP JUMPDEST SWAP3 POP POP PUSH1 0x20 PUSH2 0x250B DUP6 DUP3 DUP7 ADD PUSH2 0x1E28 JUMP JUMPDEST SWAP2 POP POP SWAP3 POP SWAP3 SWAP1 POP JUMP JUMPDEST PUSH32 0x4E487B7100000000000000000000000000000000000000000000000000000000 PUSH0 MSTORE PUSH1 0x22 PUSH1 0x4 MSTORE PUSH1 0x24 PUSH0 REVERT JUMPDEST PUSH0 PUSH1 0x2 DUP3 DIV SWAP1 POP PUSH1 0x1 DUP3 AND DUP1 PUSH2 0x2559 JUMPI PUSH1 0x7F DUP3 AND SWAP2 POP JUMPDEST PUSH1 0x20 DUP3 LT DUP2 SUB PUSH2 0x256C JUMPI PUSH2 0x256B PUSH2 0x2515 JUMP JUMPDEST JUMPDEST POP SWAP2 SWAP1 POP JUMP JUMPDEST PUSH32 0x546F6B656E20646F6573206E6F74206578697374000000000000000000000000 PUSH0 DUP3 ADD MSTORE POP JUMP JUMPDEST PUSH0 PUSH2 0x25A6 PUSH1 0x14 DUP4 PUSH2 0x1CAB JUMP JUMPDEST SWAP2 POP PUSH2 0x25B1 DUP3 PUSH2 0x2572 JUMP JUMPDEST PUSH1 0x20 DUP3 ADD SWAP1 POP SWAP2 SWAP1 POP JUMP JUMPDEST PUSH0 PUSH1 0x20 DUP3 ADD SWAP1 POP DUP2 DUP2 SUB PUSH0 DUP4 ADD MSTORE PUSH2 0x25D3 DUP2 PUSH2 0x259A JUMP JUMPDEST SWAP1 POP SWAP2 SWAP1 POP JUMP JUMPDEST PUSH32 0x4E6F7420617574686F72697A656420746F20617070726F766500000000000000 PUSH0 DUP3 ADD MSTORE POP JUMP JUMPDEST PUSH0 PUSH2 0x260E PUSH1 0x19 DUP4 PUSH2 0x1CAB JUMP JUMPDEST SWAP2 POP PUSH2 0x2619 DUP3 PUSH2 0x25DA JUMP JUMPDEST PUSH1 0x20 DUP3 ADD SWAP1 POP SWAP2 SWAP1 POP JUMP JUMPDEST PUSH0 PUSH1 0x20 DUP3 ADD SWAP1 POP DUP2 DUP2 SUB PUSH0 DUP4 ADD MSTORE PUSH2 0x263B DUP2 PUSH2 0x2602 JUMP JUMPDEST SWAP1 POP SWAP2 SWAP1 POP JUMP JUMPDEST PUSH32 0x43616E6E6F7420617070726F7665206F776E6572000000000000000000000000 PUSH0 DUP3 ADD MSTORE POP JUMP JUMPDEST PUSH0 PUSH2 0x2676 PUSH1 0x14 DUP4 PUSH2 0x1CAB JUMP JUMPDEST SWAP2 POP PUSH2 0x2681 DUP3 PUSH2 0x2642 JUMP JUMPDEST PUSH1 0x20 DUP3 ADD SWAP1 POP SWAP2 SWAP1 POP JUMP JUMPDEST PUSH0 PUSH1 0x20 DUP3 ADD SWAP1 POP DUP2 DUP2 SUB PUSH0 DUP4 ADD MSTORE PUSH2 0x26A3 DUP2 PUSH2 0x266A JUMP JUMPDEST SWAP1 POP SWAP2 SWAP1 POP JUMP JUMPDEST PUSH32 0x4E487B7100000000000000000000000000000000000000000000000000000000 PUSH0 MSTORE PUSH1 0x11 PUSH1 0x4 MSTORE PUSH1 0x24 PUSH0 REVERT JUMPDEST PUSH0 PUSH2 0x26E1 DUP3 PUSH2 0x1D5C JUMP JUMPDEST SWAP2 POP PUSH2 0x26EC DUP4 PUSH2 0x1D5C JUMP JUMPDEST SWAP3 POP DUP3 DUP3 SUB SWAP1 POP DUP2 DUP2 GT ISZERO PUSH2 0x2704 JUMPI PUSH2 0x2703 PUSH2 0x26AA JUMP JUMPDEST JUMPDEST SWAP3 SWAP2 POP POP JUMP JUMPDEST PUSH32 0x4F6E6C79206F776E65722063616E2063616C6C20746869730000000000000000 PUSH0 DUP3 ADD MSTORE POP JUMP JUMPDEST PUSH0 PUSH2 0x273E PUSH1 0x18 DUP4 PUSH2 0x1CAB JUMP JUMPDEST SWAP2 POP PUSH2 0x2749 DUP3 PUSH2 0x270A JUMP JUMPDEST PUSH1 0x20 DUP3 ADD SWAP1 POP SWAP2 SWAP1 POP JUMP JUMPDEST PUSH0 PUSH1 0x20 DUP3 ADD SWAP1 POP DUP2 DUP2 SUB PUSH0 DUP4 ADD MSTORE PUSH2 0x276B DUP2 PUSH2 0x2732 JUMP JUMPDEST SWAP1 POP SWAP2 SWAP1 POP JUMP JUMPDEST PUSH32 0x5552492063616E6E6F7420626520656D70747900000000000000000000000000 PUSH0 DUP3 ADD MSTORE POP JUMP JUMPDEST PUSH0 PUSH2 0x27A6 PUSH1 0x13 DUP4 PUSH2 0x1CAB JUMP JUMPDEST SWAP2 POP PUSH2 0x27B1 DUP3 PUSH2 0x2772 JUMP JUMPDEST PUSH1 0x20 DUP3 ADD SWAP1 POP SWAP2 SWAP1 POP JUMP JUMPDEST PUSH0 PUSH1 0x20 DUP3 ADD SWAP1 POP DUP2 DUP2 SUB PUSH0 DUP4 ADD MSTORE PUSH2 0x27D3 DUP2 PUSH2 0x279A JUMP JUMPDEST SWAP1 POP SWAP2 SWAP1 POP JUMP JUMPDEST PUSH0 DUP2 SWAP1 POP DUP2 PUSH0 MSTORE PUSH1 0x20 PUSH0 KECCAK256 SWAP1 POP SWAP2 SWAP1 POP JUMP JUMPDEST PUSH0 PUSH1 0x20 PUSH1 0x1F DUP4 ADD DIV SWAP1 POP SWAP2 SWAP1 POP JUMP JUMPDEST PUSH0 DUP3 DUP3 SHL SWAP1 POP SWAP3 SWAP2 POP POP JUMP JUMPDEST PUSH0 PUSH1 0x8 DUP4 MUL PUSH2 0x2836 PUSH32 0xFFFFFFFFFFFFFFFFFFFFFFFFFFFFFFFFFFFFFFFFFFFFFFFFFFFFFFFFFFFFFFFF DUP3 PUSH2 0x27FB JUMP JUMPDEST PUSH2 0x2840 DUP7 DUP4 PUSH2 0x27FB JUMP JUMPDEST SWAP6 POP DUP1 NOT DUP5 AND SWAP4 POP DUP1 DUP7 AND DUP5 OR SWAP3 POP POP POP SWAP4 SWAP3 POP POP POP JUMP JUMPDEST PUSH0 DUP2 SWAP1 POP SWAP2 SWAP1 POP JUMP JUMPDEST PUSH0 PUSH2 0x287B PUSH2 0x2876 PUSH2 0x2871 DUP5 PUSH2 0x1D5C JUMP JUMPDEST PUSH2 0x2858 JUMP JUMPDEST PUSH2 0x1D5C JUMP JUMPDEST SWAP1 POP SWAP2 SWAP1 POP JUMP JUMPDEST PUSH0 DUP2 SWAP1 POP SWAP2 SWAP1 POP JUMP JUMPDEST PUSH2 0x2894 DUP4 PUSH2 0x2861 JUMP JUMPDEST PUSH2 0x28A8 PUSH2 0x28A0 DUP3 PUSH2 0x2882 JUMP JUMPDEST DUP5 DUP5 SLOAD PUSH2 0x2807 JUMP JUMPDEST DUP3 SSTORE POP POP POP POP JUMP JUMPDEST PUSH0 SWAP1 JUMP JUMPDEST PUSH2 0x28BC PUSH2 0x28B0 JUMP JUMPDEST PUSH2 0x28C7 DUP2 DUP5 DUP5 PUSH2 0x288B JUMP JUMPDEST POP POP POP JUMP JUMPDEST JUMPDEST DUP2 DUP2 LT ISZERO PUSH2 0x28EA JUMPI PUSH2 0x28DF PUSH0 DUP3 PUSH2 0x28B4 JUMP JUMPDEST PUSH1 0x1 DUP2 ADD SWAP1 POP PUSH2 0x28CD JUMP JUMPDEST POP POP JUMP JUMPDEST PUSH1 0x1F DUP3 GT ISZERO PUSH2 0x292F JUMPI PUSH2 0x2900 DUP2 PUSH2 0x27DA JUMP JUMPDEST PUSH2 0x2909 DUP5 PUSH2 0x27EC JUMP JUMPDEST DUP2 ADD PUSH1 0x20 DUP6 LT ISZERO PUSH2 0x2918 JUMPI DUP2 SWAP1 POP JUMPDEST PUSH2 0x292C PUSH2 0x2924 DUP6 PUSH2 0x27EC JUMP JUMPDEST DUP4 ADD DUP3 PUSH2 0x28CC JUMP JUMPDEST POP POP JUMPDEST POP POP POP JUMP JUMPDEST PUSH0 DUP3 DUP3 SHR SWAP1 POP SWAP3 SWAP2 POP POP JUMP JUMPDEST PUSH0 PUSH2 0x294F PUSH0 NOT DUP5 PUSH1 0x8 MUL PUSH2 0x2934 JUMP JUMPDEST NOT DUP1 DUP4 AND SWAP2 POP POP SWAP3 SWAP2 POP POP JUMP JUMPDEST PUSH0 PUSH2 0x2967 DUP4 DUP4 PUSH2 0x2940 JUMP JUMPDEST SWAP2 POP DUP3 PUSH1 0x2 MUL DUP3 OR SWAP1 POP SWAP3 SWAP2 POP POP JUMP JUMPDEST PUSH2 0x2980 DUP3 PUSH2 0x1CA1 JUMP JUMPDEST PUSH8 0xFFFFFFFFFFFFFFFF DUP2 GT ISZERO PUSH2 0x2999 JUMPI PUSH2 0x2998 PUSH2 0x1EAA JUMP JUMPDEST JUMPDEST PUSH2 0x29A3 DUP3 SLOAD PUSH2 0x2542 JUMP JUMPDEST PUSH2 0x29AE DUP3 DUP3 DUP6 PUSH2 0x28EE JUMP JUMPDEST PUSH0 PUSH1 0x20 SWAP1 POP PUSH1 0x1F DUP4 GT PUSH1 0x1 DUP2 EQ PUSH2 0x29DF JUMPI PUSH0 DUP5 ISZERO PUSH2 0x29CD JUMPI DUP3 DUP8 ADD MLOAD SWAP1 POP JUMPDEST PUSH2 0x29D7 DUP6 DUP3 PUSH2 0x295C JUMP JUMPDEST DUP7 SSTORE POP PUSH2 0x2A3E JUMP JUMPDEST PUSH1 0x1F NOT DUP5 AND PUSH2 0x29ED DUP7 PUSH2 0x27DA JUMP JUMPDEST PUSH0 JUMPDEST DUP3 DUP2 LT ISZERO PUSH2 0x2A14 JUMPI DUP5 DUP10 ADD MLOAD DUP3 SSTORE PUSH1 0x1 DUP3 ADD SWAP2 POP PUSH1 0x20 DUP6 ADD SWAP5 POP PUSH1 0x20 DUP2 ADD SWAP1 POP PUSH2 0x29EF JUMP JUMPDEST DUP7 DUP4 LT ISZERO PUSH2 0x2A31 JUMPI DUP5 DUP10 ADD MLOAD PUSH2 0x2A2D PUSH1 0x1F DUP10 AND DUP3 PUSH2 0x2940 JUMP JUMPDEST DUP4 SSTORE POP JUMPDEST PUSH1 0x1 PUSH1 0x2 DUP9 MUL ADD DUP9 SSTORE POP POP POP JUMPDEST POP POP POP POP POP POP JUMP JUMPDEST PUSH32 0x46726F6D2061646472657373206973206E6F7420746865206F776E6572000000 PUSH0 DUP3 ADD MSTORE POP JUMP JUMPDEST PUSH0 PUSH2 0x2A7A PUSH1 0x1D DUP4 PUSH2 0x1CAB JUMP JUMPDEST SWAP2 POP PUSH2 0x2A85 DUP3 PUSH2 0x2A46 JUMP JUMPDEST PUSH1 0x20 DUP3 ADD SWAP1 POP SWAP2 SWAP1 POP JUMP JUMPDEST PUSH0 PUSH1 0x20 DUP3 ADD SWAP1 POP DUP2 DUP2 SUB PUSH0 DUP4 ADD MSTORE PUSH2 0x2AA7 DUP2 PUSH2 0x2A6E JUMP JUMPDEST SWAP1 POP SWAP2 SWAP1 POP JUMP JUMPDEST PUSH32 0x496E76616C696420726563697069656E74206164647265737300000000000000 PUSH0 DUP3 ADD MSTORE POP JUMP JUMPDEST PUSH0 PUSH2 0x2AE2 PUSH1 0x19 DUP4 PUSH2 0x1CAB JUMP JUMPDEST SWAP2 POP PUSH2 0x2AED DUP3 PUSH2 0x2AAE JUMP JUMPDEST PUSH1 0x20 DUP3 ADD SWAP1 POP SWAP2 SWAP1 POP JUMP JUMPDEST PUSH0 PUSH1 0x20 DUP3 ADD SWAP1 POP DUP2 DUP2 SUB PUSH0 DUP4 ADD MSTORE PUSH2 0x2B0F DUP2 PUSH2 0x2AD6 JUMP JUMPDEST SWAP1 POP SWAP2 SWAP1 POP JUMP JUMPDEST PUSH32 0x4E6F7420617574686F72697A656420746F207472616E73666572000000000000 PUSH0 DUP3 ADD MSTORE POP JUMP JUMPDEST PUSH0 PUSH2 0x2B4A PUSH1 0x1A DUP4 PUSH2 0x1CAB JUMP JUMPDEST SWAP2 POP PUSH2 0x2B55 DUP3 PUSH2 0x2B16 JUMP JUMPDEST PUSH1 0x20 DUP3 ADD SWAP1 POP SWAP2 SWAP1 POP JUMP JUMPDEST PUSH0 PUSH1 0x20 DUP3 ADD SWAP1 POP DUP2 DUP2 SUB PUSH0 DUP4 ADD MSTORE PUSH2 0x2B77 DUP2 PUSH2 0x2B3E JUMP JUMPDEST SWAP1 POP SWAP2 SWAP1 POP JUMP JUMPDEST PUSH0 PUSH2 0x2B88 DUP3 PUSH2 0x1D5C JUMP JUMPDEST SWAP2 POP PUSH0 DUP3 SUB PUSH2 0x2B9A JUMPI PUSH2 0x2B99 PUSH2 0x26AA JUMP JUMPDEST JUMPDEST PUSH1 0x1 DUP3 SUB SWAP1 POP SWAP2 SWAP1 POP JUMP JUMPDEST PUSH0 PUSH2 0x2BAF DUP3 PUSH2 0x1D5C JUMP JUMPDEST SWAP2 POP PUSH32 0xFFFFFFFFFFFFFFFFFFFFFFFFFFFFFFFFFFFFFFFFFFFFFFFFFFFFFFFFFFFFFFFF DUP3 SUB PUSH2 0x2BE1 JUMPI PUSH2 0x2BE0 PUSH2 0x26AA JUMP JUMPDEST JUMPDEST PUSH1 0x1 DUP3 ADD SWAP1 POP SWAP2 SWAP1 POP JUMP JUMPDEST PUSH32 0x496E76616C696420616464726573730000000000000000000000000000000000 PUSH0 DUP3 ADD MSTORE POP JUMP JUMPDEST PUSH0 PUSH2 0x2C20 PUSH1 0xF DUP4 PUSH2 0x1CAB JUMP JUMPDEST SWAP2 POP PUSH2 0x2C2B DUP3 PUSH2 0x2BEC JUMP JUMPDEST PUSH1 0x20 DUP3 ADD SWAP1 POP SWAP2 SWAP1 POP JUMP JUMPDEST PUSH0 PUSH1 0x20 DUP3 ADD SWAP1 POP DUP2 DUP2 SUB PUSH0 DUP4 ADD MSTORE PUSH2 0x2C4D DUP2 PUSH2 0x2C14 JUMP JUMPDEST SWAP1 POP SWAP2 SWAP1 POP JUMP JUMPDEST PUSH32 0x417272617973206D75737420686176652073616D65206C656E67746800000000 PUSH0 DUP3 ADD MSTORE POP JUMP JUMPDEST PUSH0 PUSH2 0x2C88 PUSH1 0x1C DUP4 PUSH2 0x1CAB JUMP JUMPDEST SWAP2 POP PUSH2 0x2C93 DUP3 PUSH2 0x2C54 JUMP JUMPDEST PUSH1 0x20 DUP3 ADD SWAP1 POP SWAP2 SWAP1 POP JUMP JUMPDEST PUSH0 PUSH1 0x20 DUP3 ADD SWAP1 POP DUP2 DUP2 SUB PUSH0 DUP4 ADD MSTORE PUSH2 0x2CB5 DUP2 PUSH2 0x2C7C JUMP JUMPDEST SWAP1 POP SWAP2 SWAP1 POP JUMP JUMPDEST PUSH32 0x4D757374206D696E74206174206C65617374206F6E6520746F6B656E00000000 PUSH0 DUP3 ADD MSTORE POP JUMP JUMPDEST PUSH0 PUSH2 0x2CF0 PUSH1 0x1C DUP4 PUSH2 0x1CAB JUMP JUMPDEST SWAP2 POP PUSH2 0x2CFB DUP3 PUSH2 0x2CBC JUMP JUMPDEST PUSH1 0x20 DUP3 ADD SWAP1 POP SWAP2 SWAP1 POP JUMP JUMPDEST PUSH0 PUSH1 0x20 DUP3 ADD SWAP1 POP DUP2 DUP2 SUB PUSH0 DUP4 ADD MSTORE PUSH2 0x2D1D DUP2 PUSH2 0x2CE4 JUMP JUMPDEST SWAP1 POP SWAP2 SWAP1 POP JUMP JUMPDEST PUSH32 0x42617463682073697A6520746F6F206C61726765000000000000000000000000 PUSH0 DUP3 ADD MSTORE POP JUMP JUMPDEST PUSH0 PUSH2 0x2D58 PUSH1 0x14 DUP4 PUSH2 0x1CAB JUMP JUMPDEST SWAP2 POP PUSH2 0x2D63 DUP3 PUSH2 0x2D24 JUMP JUMPDEST PUSH1 0x20 DUP3 ADD SWAP1 POP SWAP2 SWAP1 POP JUMP JUMPDEST PUSH0 PUSH1 0x20 DUP3 ADD SWAP1 POP DUP2 DUP2 SUB PUSH0 DUP4 ADD MSTORE PUSH2 0x2D85 DUP2 PUSH2 0x2D4C JUMP JUMPDEST SWAP1 POP SWAP2 SWAP1 POP JUMP JUMPDEST PUSH32 0x4E487B7100000000000000000000000000000000000000000000000000000000 PUSH0 MSTORE PUSH1 0x32 PUSH1 0x4 MSTORE PUSH1 0x24 PUSH0 REVERT JUMPDEST PUSH32 0x4D65746164617461205552492063616E6E6F7420626520656D70747900000000 PUSH0 DUP3 ADD MSTORE POP JUMP JUMPDEST PUSH0 PUSH2 0x2DED PUSH1 0x1C DUP4 PUSH2 0x1CAB JUMP JUMPDEST SWAP2 POP PUSH2 0x2DF8 DUP3 PUSH2 0x2DB9 JUMP JUMPDEST PUSH1 0x20 DUP3 ADD SWAP1 POP SWAP2 SWAP1 POP JUMP JUMPDEST PUSH0 PUSH1 0x20 DUP3 ADD SWAP1 POP DUP2 DUP2 SUB PUSH0 DUP4 ADD MSTORE PUSH2 0x2E1A DUP2 PUSH2 0x2DE1 JUMP JUMPDEST SWAP1 POP SWAP2 SWAP1 POP JUMP JUMPDEST PUSH32 0x43616E6E6F7420617070726F766520796F757273656C66000000000000000000 PUSH0 DUP3 ADD MSTORE POP JUMP JUMPDEST PUSH0 PUSH2 0x2E55 PUSH1 0x17 DUP4 PUSH2 0x1CAB JUMP JUMPDEST SWAP2 POP PUSH2 0x2E60 DUP3 PUSH2 0x2E21 JUMP JUMPDEST PUSH1 0x20 DUP3 ADD SWAP1 POP SWAP2 SWAP1 POP JUMP JUMPDEST PUSH0 PUSH1 0x20 DUP3 ADD SWAP1 POP DUP2 DUP2 SUB PUSH0 DUP4 ADD MSTORE PUSH2 0x2E82 DUP2 PUSH2 0x2E49 JUMP JUMPDEST SWAP1 POP SWAP2 SWAP1 POP JUMP JUMPDEST PUSH32 0x53656E646572206973206E6F7420746865206F776E6572000000000000000000 PUSH0 DUP3 ADD MSTORE POP JUMP JUMPDEST PUSH0 PUSH2 0x2EBD PUSH1 0x17 DUP4 PUSH2 0x1CAB JUMP JUMPDEST SWAP2 POP PUSH2 0x2EC8 DUP3 PUSH2 0x2E89 JUMP JUMPDEST PUSH1 0x20 DUP3 ADD SWAP1 POP SWAP2 SWAP1 POP JUMP JUMPDEST PUSH0 PUSH1 0x20 DUP3 ADD SWAP1 POP DUP2 DUP2 SUB PUSH0 DUP4 ADD MSTORE PUSH2 0x2EEA DUP2 PUSH2 0x2EB1 JUMP JUMPDEST SWAP1 POP SWAP2 SWAP1 POP JUMP INVALID LOG2 PUSH5 0x6970667358 0x22 SLT KECCAK256 PUSH8 0x7235DA9FB92DFB53 0xCD 0x5C 0xAC 0xF8 EXTCODECOPY 0x4C 0xBF 0xD7 0xF7 0xA6 0xF6 PUSH11 0xCE85FE4B9E51ABC15489DE PUSH5 0x736F6C6343 STOP ADDMOD EQ STOP CALLER "
				},
				"gasEstimates": {
					"creation": {
						"codeDepositCost": "2414200",
						"executionCost": "infinite",
						"totalCost": "infinite"
					},
					"external": {
						"approve(address,uint256)": "33827",
						"balanceOf(address)": "2887",
						"getApproved(uint256)": "5148",
						"getLastTokenId()": "infinite",
						"getTokenURI(uint256)": "infinite",
						"isApprovedForAll(address,address)": "infinite",
						"mintBatch(address[],string[])": "infinite",
						"mintBattleNFT(address,string)": "infinite",
						"name()": "infinite",
						"owner()": "2572",
						"ownerOf(uint256)": "5213",
						"safeTransferFrom(address,address,uint256)": "infinite",
						"setApprovalForAll(address,bool)": "infinite",
						"symbol()": "infinite",
						"totalSupply()": "infinite",
						"transfer(uint256,address,address)": "infinite",
						"transferFrom(address,address,uint256)": "infinite",
						"updateTokenURI(uint256,string)": "infinite"
					}
				},
				"methodIdentifiers": {
					"approve(address,uint256)": "095ea7b3",
					"balanceOf(address)": "70a08231",
					"getApproved(uint256)": "081812fc",
					"getLastTokenId()": "83c4c00d",
					"getTokenURI(uint256)": "3bb3a24d",
					"isApprovedForAll(address,address)": "e985e9c5",
					"mintBatch(address[],string[])": "924cff6d",
					"mintBattleNFT(address,string)": "a02cdee7",
					"name()": "06fdde03",
					"owner()": "8da5cb5b",
					"ownerOf(uint256)": "6352211e",
					"safeTransferFrom(address,address,uint256)": "42842e0e",
					"setApprovalForAll(address,bool)": "a22cb465",
					"symbol()": "95d89b41",
					"totalSupply()": "18160ddd",
					"transfer(uint256,address,address)": "ccb570e3",
					"transferFrom(address,address,uint256)": "23b872dd",
					"updateTokenURI(uint256,string)": "18e97fd1"
				}
			},
			"storageLayout": {
				"storage": [
					{
						"astId": 4,
						"contract": "src/BattleVictoryNFT.sol:BattleVictoryNFT",
						"label": "owner",
						"offset": 0,
						"slot": "0",
						"type": "t_address"
					},
					{
						"astId": 7,
						"contract": "src/BattleVictoryNFT.sol:BattleVictoryNFT",
						"label": "name",
						"offset": 0,
						"slot": "1",
						"type": "t_string_storage"
					},
					{
						"astId": 10,
						"contract": "src/BattleVictoryNFT.sol:BattleVictoryNFT",
						"label": "symbol",
						"offset": 0,
						"slot": "2",
						"type": "t_string_storage"
					},
					{
						"astId": 13,
						"contract": "src/BattleVictoryNFT.sol:BattleVictoryNFT",
						"label": "nextTokenId",
						"offset": 0,
						"slot": "3",
						"type": "t_uint256"
					},
					{
						"astId": 17,
						"contract": "src/BattleVictoryNFT.sol:BattleVictoryNFT",
						"label": "tokenOwners",
						"offset": 0,
						"slot": "4",
						"type": "t_mapping(t_uint256,t_address)"
					},
					{
						"astId": 21,
						"contract": "src/BattleVictoryNFT.sol:BattleVictoryNFT",
						"label": "tokenURIs",
						"offset": 0,
						"slot": "5",
						"type": "t_mapping(t_uint256,t_string_storage)"
					},
					{
						"astId": 25,
						"contract": "src/BattleVictoryNFT.sol:BattleVictoryNFT",
						"label": "balances",
						"offset": 0,
						"slot": "6",
						"type": "t_mapping(t_address,t_uint256)"
					},
					{
						"astId": 29,
						"contract": "src/BattleVictoryNFT.sol:BattleVictoryNFT",
						"label": "tokenApprovals",
						"offset": 0,
						"slot": "7",
						"type": "t_mapping(t_uint256,t_address)"
					},
					{
						"astId": 35,
						"contract": "src/BattleVictoryNFT.sol:BattleVictoryNFT",
						"label": "operatorApprovals",
						"offset": 0,
						"slot": "8",
						"type": "t_mapping(t_address,t_mapping(t_address,t_bool))"
					}
				],
				"types": {
					"t_address": {
						"encoding": "inplace",
						"label": "address",
						"numberOfBytes": "20"
					},
					"t_bool": {
						"encoding": "inplace",
						"label": "bool",
						"numberOfBytes": "1"
					},
					"t_mapping(t_address,t_bool)": {
						"encoding": "mapping",
						"key": "t_address",
						"label": "mapping(address => bool)",
						"numberOfBytes": "32",
						"value": "t_bool"
					},
					"t_mapping(t_address,t_mapping(t_address,t_bool))": {
						"encoding": "mapping",
						"key": "t_address",
						"label": "mapping(address => mapping(address => bool))",
						"numberOfBytes": "32",
						"value": "t_mapping(t_address,t_bool)"
					},
					"t_mapping(t_address,t_uint256)": {
						"encoding": "mapping",
						"key": "t_address",
						"label": "mapping(address => uint256)",
						"numberOfBytes": "32",
						"value": "t_uint256"
					},
					"t_mapping(t_uint256,t_address)": {
						"encoding": "mapping",
						"key": "t_uint256",
						"label": "mapping(uint256 => address)",
						"numberOfBytes": "32",
						"value": "t_address"
					},
					"t_mapping(t_uint256,t_string_storage)": {
						"encoding": "mapping",
						"key": "t_uint256",
						"label": "mapping(uint256 => string)",
						"numberOfBytes": "32",
						"value": "t_string_storage"
					},
					"t_string_storage": {
						"encoding": "bytes",
						"label": "string",
						"numberOfBytes": "32"
					},
					"t_uint256": {
						"encoding": "inplace",
						"label": "uint256",
						"numberOfBytes": "32"
					}
				}
			},
			"userdoc": {
				"kind": "user",
				"methods": {},
				"notice": "Mint and transfer Battle Victory NFTs",
				"version": 1
			}
		}
	}
}