{
	"src/BattlePrediction.sol": {
		"BattlePrediction": {
			"abi": [
				{
					"inputs": [],
					"stateMutability": "nonpayable",
					"type": "constructor"
				},
				{
					"anonymous": false,
					"inputs": [
						{
							"indexed": true,
							"internalType": "uint256",
							"name": "predictionId",
							"type": "uint256"
						},
						{
							"indexed": false,
							"internalType": "uint256",
							"name": "timestamp",
							"type": "uint256"
						}
					],
					"name": "PredictionSettled",
					"type": "event"
				},
				{
					"anonymous": false,
					"inputs": [
						{
							"indexed": true,
							"internalType": "uint256",
							"name": "predictionId",
							"type": "uint256"
						},
						{
							"indexed": true,
							"internalType": "address",
							"name": "player",
							"type": "address"
						},
						{
							"indexed": false,
							"internalType": "string",
							"name": "predictedWinner",
							"type": "string"
						},
						{
							"indexed": false,
							"internalType": "uint256",
							"name": "timestamp",
							"type": "uint256"
						}
					],
					"name": "PredictionSubmitted",
					"type": "event"
				},
				{
					"inputs": [
						{
							"internalType": "address",
							"name": "player",
							"type": "address"
						}
					],
					"name": "getActivePredictionCount",
					"outputs": [
						{
							"internalType": "uint256",
							"name": "",
							"type": "uint256"
						}
					],
					"stateMutability": "view",
					"type": "function"
				},
				{
					"inputs": [],
					"name": "getNextPredictionId",
					"outputs": [
						{
							"internalType": "uint256",
							"name": "",
							"type": "uint256"
						}
					],
					"stateMutability": "view",
					"type": "function"
				},
				{
					"inputs": [
						{
							"internalType": "address",
							"name": "player",
							"type": "address"
						}
					],
					"name": "getPlayerPredictionCount",
					"outputs": [
						{
							"internalType": "uint256",
							"name": "",
							"type": "uint256"
						}
					],
					"stateMutability": "view",
					"type": "function"
				},
				{
					"inputs": [
						{
							"internalType": "address",
							"name": "player",
							"type": "address"
						}
					],
					"name": "getPlayerPredictions",
					"outputs": [
						{
							"internalType": "uint256[]",
							"name": "",
							"type": "uint256[]"
						}
					],
					"stateMutability": "view",
					"type": "function"
				},
				{
					"inputs": [
						{
							"internalType": "uint256",
							"name": "predictionId",
							"type": "uint256"
						}
					],
					"name": "getPrediction",
					"outputs": [
						{
							"components": [
								{
									"internalType": "address",
									"name": "player",
									"type": "address"
								},
								{
									"internalType": "string",
									"name": "coinA",
									"type": "string"
								},
								{
									"internalType": "string",
									"name": "coinB",
									"type": "string"
								},
								{
									"internalType": "string",
									"name": "predictedWinner",
									"type": "string"
								},
								{
									"internalType": "bool",
									"name": "isSettled",
									"type": "bool"
								},
								{
									"internalType": "uint256",
									"name": "timestamp",
									"type": "uint256"
								}
							],
							"internalType": "struct BattlePrediction.Prediction",
							"name": "",
							"type": "tuple"
						}
					],
					"stateMutability": "view",
					"type": "function"
				},
				{
					"inputs": [
						{
							"internalType": "address",
							"name": "player",
							"type": "address"
						}
					],
					"name": "hasActivePredictions",
					"outputs": [
						{
							"internalType": "bool",
							"name": "",
							"type": "bool"
						}
					],
					"stateMutability": "view",
					"type": "function"
				},
				{
					"inputs": [],
					"name": "nextPredictionId",
					"outputs": [
						{
							"internalType": "uint256",
							"name": "",
							"type": "uint256"
						}
					],
					"stateMutability": "view",
					"type": "function"
				},
				{
					"inputs": [],
					"name": "owner",
					"outputs": [
						{
							"internalType": "address",
							"name": "",
							"type": "address"
						}
					],
					"stateMutability": "view",
					"type": "function"
				},
				{
					"inputs": [
						{
							"internalType": "address",
							"name": "",
							"type": "address"
						},
						{
							"internalType": "uint256",
							"name": "",
							"type": "uint256"
						}
					],
					"name": "playerPredictions",
					"outputs": [
						{
							"internalType": "uint256",
							"name": "",
							"type": "uint256"
						}
					],
					"stateMutability": "view",
					"type": "function"
				},
				{
					"inputs": [
						{
							"internalType": "uint256",
							"name": "",
							"type": "uint256"
						}
					],
					"name": "predictions",
					"outputs": [
						{
							"internalType": "address",
							"name": "player",
							"type": "address"
						},
						{
							"internalType": "string",
							"name": "coinA",
							"type": "string"
						},
						{
							"internalType": "string",
							"name": "coinB",
							"type": "string"
						},
						{
							"internalType": "string",
							"name": "predictedWinner",
							"type": "string"
						},
						{
							"internalType": "bool",
							"name": "isSettled",
							"type": "bool"
						},
						{
							"internalType": "uint256",
							"name": "timestamp",
							"type": "uint256"
						}
					],
					"stateMutability": "view",
					"type": "function"
				},
				{
					"inputs": [
						{
							"internalType": "uint256",
							"name": "predictionId",
							"type": "uint256"
						}
					],
					"name": "settlePrediction",
					"outputs": [
						{
							"internalType": "bool",
							"name": "",
							"type": "bool"
						}
					],
					"stateMutability": "nonpayable",
					"type": "function"
				},
				{
					"inputs": [
						{
							"internalType": "string",
							"name": "coinA",
							"type": "string"
						},
						{
							"internalType": "string",
							"name": "coinB",
							"type": "string"
						},
						{
							"internalType": "string",
							"name": "predictedWinner",
							"type": "string"
						}
					],
					"name": "submitPrediction",
					"outputs": [
						{
							"internalType": "uint256",
							"name": "",
							"type": "uint256"
						}
					],
					"stateMutability": "nonpayable",
					"type": "function"
				}
			],
			"devdoc": {
				"details": "Manages user predictions before battles start",
				"kind": "dev",
				"methods": {
					"getActivePredictionCount(address)": {
						"details": "Get count of active predictions for a player",
						"params": {
							"player": "The player's address"
						},
						"returns": {
							"_0": "uint256 Number of active predictions"
						}
					},
					"getNextPredictionId()": {
						"details": "Get the next prediction ID that will be assigned",
						"returns": {
							"_0": "uint256 Next prediction ID"
						}
					},
					"getPlayerPredictionCount(address)": {
						"details": "Get number of predictions made by a player",
						"params": {
							"player": "The player's address"
						},
						"returns": {
							"_0": "uint256 Number of predictions"
						}
					},
					"getPlayerPredictions(address)": {
						"details": "Get all prediction IDs for a player",
						"params": {
							"player": "The player's address"
						},
						"returns": {
							"_0": "uint256[] Array of prediction IDs"
						}
					},
					"getPrediction(uint256)": {
						"details": "Get a prediction by ID",
						"params": {
							"predictionId": "The prediction ID"
						},
						"returns": {
							"_0": "Prediction struct"
						}
					},
					"hasActivePredictions(address)": {
						"details": "Check if a player has any active (unsettled) predictions",
						"params": {
							"player": "The player's address"
						},
						"returns": {
							"_0": "bool True if player has active predictions"
						}
					},
					"settlePrediction(uint256)": {
						"details": "Settle a prediction after the battle ends",
						"params": {
							"predictionId": "The prediction ID to settle"
						},
						"returns": {
							"_0": "bool True on success"
						}
					},
					"submitPrediction(string,string,string)": {
						"details": "Submit a prediction before a battle starts",
						"params": {
							"coinA": "First cryptocurrency symbol",
							"coinB": "Second cryptocurrency symbol",
							"predictedWinner": "Which coin the player predicts will win"
						},
						"returns": {
							"_0": "uint256 The prediction ID"
						}
					}
				},
				"title": "BattlePrediction",
				"version": 1
			},
			"evm": {
				"assembly": "    /* \"src/BattlePrediction.sol\":229:7317  contract BattlePrediction {... */\n  mstore(0x40, 0x80)\n    /* \"src/BattlePrediction.sol\":902:903  1 */\n  0x01\n    /* \"src/BattlePrediction.sol\":868:903  uint256 public nextPredictionId = 1 */\n  0x03\n  sstore\n    /* \"src/BattlePrediction.sol\":1872:1923  constructor() {... */\n  callvalue\n  dup1\n  iszero\n  tag_1\n  jumpi\n  0x00\n  dup1\n  revert\ntag_1:\n  pop\n    /* \"src/BattlePrediction.sol\":1905:1915  msg.sender */\n  caller\n    /* \"src/BattlePrediction.sol\":1897:1902  owner */\n  0x00\n  dup1\n    /* \"src/BattlePrediction.sol\":1897:1915  owner = msg.sender */\n  0x0100\n  exp\n  dup2\n  sload\n  dup2\n  0xffffffffffffffffffffffffffffffffffffffff\n  mul\n  not\n  and\n  swap1\n  dup4\n  0xffffffffffffffffffffffffffffffffffffffff\n  and\n  mul\n  or\n  swap1\n  sstore\n  pop\n    /* \"src/BattlePrediction.sol\":229:7317  contract BattlePrediction {... */\n  dataSize(sub_0)\n  dup1\n  dataOffset(sub_0)\n  0x00\n  codecopy\n  0x00\n  return\nstop\n\nsub_0: assembly {\n        /* \"src/BattlePrediction.sol\":229:7317  contract BattlePrediction {... */\n      mstore(0x40, 0x80)\n      callvalue\n      dup1\n      iszero\n      tag_1\n      jumpi\n      0x00\n      dup1\n      revert\n    tag_1:\n      pop\n      jumpi(tag_2, lt(calldatasize, 0x04))\n      shr(0xe0, calldataload(0x00))\n      dup1\n      0xcc6e20a1\n      gt\n      tag_15\n      jumpi\n      dup1\n      0xcc6e20a1\n      eq\n      tag_9\n      jumpi\n      dup1\n      0xd8d9292e\n      eq\n      tag_10\n      jumpi\n      dup1\n      0xd9399515\n      eq\n      tag_11\n      jumpi\n      dup1\n      0xe6ec3cf9\n      eq\n      tag_12\n      jumpi\n      dup1\n      0xf114c42c\n      eq\n      tag_13\n      jumpi\n      dup1\n      0xfe83bece\n      eq\n      tag_14\n      jumpi\n      jump(tag_2)\n    tag_15:\n      dup1\n      0x4fbbb0\n      eq\n      tag_3\n      jumpi\n      dup1\n      0x3dcab238\n      eq\n      tag_4\n      jumpi\n      dup1\n      0x59c01ff9\n      eq\n      tag_5\n      jumpi\n      dup1\n      0x8da5cb5b\n      eq\n      tag_6\n      jumpi\n      dup1\n      0xc5439314\n      eq\n      tag_7\n      jumpi\n      dup1\n      0xc607d155\n      eq\n      tag_8\n      jumpi\n    tag_2:\n      0x00\n      dup1\n      revert\n        /* \"src/BattlePrediction.sol\":719:768  mapping(uint256 => Prediction) public predictions */\n    tag_3:\n      tag_16\n      0x04\n      dup1\n      calldatasize\n      sub\n      dup2\n      add\n      swap1\n      tag_17\n      swap2\n      swap1\n      tag_18\n      jump\t// in\n    tag_17:\n      tag_19\n      jump\t// in\n    tag_16:\n      mload(0x40)\n      tag_20\n      swap7\n      swap6\n      swap5\n      swap4\n      swap3\n      swap2\n      swap1\n      tag_21\n      jump\t// in\n    tag_20:\n      mload(0x40)\n      dup1\n      swap2\n      sub\n      swap1\n      return\n        /* \"src/BattlePrediction.sol\":4939:5042  function getNextPredictionId() public view returns (uint256) {... */\n    tag_4:\n      tag_22\n      tag_23\n      jump\t// in\n    tag_22:\n      mload(0x40)\n      tag_24\n      swap2\n      swap1\n      tag_25\n      jump\t// in\n    tag_24:\n      mload(0x40)\n      dup1\n      swap2\n      sub\n      swap1\n      return\n        /* \"src/BattlePrediction.sol\":5517:5655  function getPlayerPredictionCount(address player) public view returns (uint256) {... */\n    tag_5:\n      tag_26\n      0x04\n      dup1\n      calldatasize\n      sub\n      dup2\n      add\n      swap1\n      tag_27\n      swap2\n      swap1\n      tag_28\n      jump\t// in\n    tag_27:\n      tag_29\n      jump\t// in\n    tag_26:\n      mload(0x40)\n      tag_30\n      swap2\n      swap1\n      tag_25\n      jump\t// in\n    tag_30:\n      mload(0x40)\n      dup1\n      swap2\n      sub\n      swap1\n      return\n        /* \"src/BattlePrediction.sol\":448:468  address public owner */\n    tag_6:\n      tag_31\n      tag_32\n      jump\t// in\n    tag_31:\n      mload(0x40)\n      tag_33\n      swap2\n      swap1\n      tag_34\n      jump\t// in\n    tag_33:\n      mload(0x40)\n      dup1\n      swap2\n      sub\n      swap1\n      return\n        /* \"src/BattlePrediction.sol\":6367:6732  function getActivePredictionCount(address player) public view returns (uint256) {... */\n    tag_7:\n      tag_35\n      0x04\n      dup1\n      calldatasize\n      sub\n      dup2\n      add\n      swap1\n      tag_36\n      swap2\n      swap1\n      tag_28\n      jump\t// in\n    tag_36:\n      tag_37\n      jump\t// in\n    tag_35:\n      mload(0x40)\n      tag_38\n      swap2\n      swap1\n      tag_25\n      jump\t// in\n    tag_38:\n      mload(0x40)\n      dup1\n      swap2\n      sub\n      swap1\n      return\n        /* \"src/BattlePrediction.sol\":5853:6187  function hasActivePredictions(address player) public view returns (bool) {... */\n    tag_8:\n      tag_39\n      0x04\n      dup1\n      calldatasize\n      sub\n      dup2\n      add\n      swap1\n      tag_40\n      swap2\n      swap1\n      tag_28\n      jump\t// in\n    tag_40:\n      tag_41\n      jump\t// in\n    tag_39:\n      mload(0x40)\n      tag_42\n      swap2\n      swap1\n      tag_43\n      jump\t// in\n    tag_42:\n      mload(0x40)\n      dup1\n      swap2\n      sub\n      swap1\n      return\n        /* \"src/BattlePrediction.sol\":5210:5346  function getPlayerPredictions(address player) public view returns (uint256[] memory) {... */\n    tag_9:\n      tag_44\n      0x04\n      dup1\n      calldatasize\n      sub\n      dup2\n      add\n      swap1\n      tag_45\n      swap2\n      swap1\n      tag_28\n      jump\t// in\n    tag_45:\n      tag_46\n      jump\t// in\n    tag_44:\n      mload(0x40)\n      tag_47\n      swap2\n      swap1\n      tag_48\n      jump\t// in\n    tag_47:\n      mload(0x40)\n      dup1\n      swap2\n      sub\n      swap1\n      return\n        /* \"src/BattlePrediction.sol\":868:903  uint256 public nextPredictionId = 1 */\n    tag_10:\n      tag_49\n      tag_50\n      jump\t// in\n    tag_49:\n      mload(0x40)\n      tag_51\n      swap2\n      swap1\n      tag_25\n      jump\t// in\n    tag_51:\n      mload(0x40)\n      dup1\n      swap2\n      sub\n      swap1\n      return\n        /* \"src/BattlePrediction.sol\":2404:3575  function submitPrediction(... */\n    tag_11:\n      tag_52\n      0x04\n      dup1\n      calldatasize\n      sub\n      dup2\n      add\n      swap1\n      tag_53\n      swap2\n      swap1\n      tag_54\n      jump\t// in\n    tag_53:\n      tag_55\n      jump\t// in\n    tag_52:\n      mload(0x40)\n      tag_56\n      swap2\n      swap1\n      tag_25\n      jump\t// in\n    tag_56:\n      mload(0x40)\n      dup1\n      swap2\n      sub\n      swap1\n      return\n        /* \"src/BattlePrediction.sol\":775:829  mapping(address => uint256[]) public playerPredictions */\n    tag_12:\n      tag_57\n      0x04\n      dup1\n      calldatasize\n      sub\n      dup2\n      add\n      swap1\n      tag_58\n      swap2\n      swap1\n      tag_59\n      jump\t// in\n    tag_58:\n      tag_60\n      jump\t// in\n    tag_57:\n      mload(0x40)\n      tag_61\n      swap2\n      swap1\n      tag_25\n      jump\t// in\n    tag_61:\n      mload(0x40)\n      dup1\n      swap2\n      sub\n      swap1\n      return\n        /* \"src/BattlePrediction.sol\":3749:4261  function settlePrediction(uint256 predictionId) ... */\n    tag_13:\n      tag_62\n      0x04\n      dup1\n      calldatasize\n      sub\n      dup2\n      add\n      swap1\n      tag_63\n      swap2\n      swap1\n      tag_18\n      jump\t// in\n    tag_63:\n      tag_64\n      jump\t// in\n    tag_62:\n      mload(0x40)\n      tag_65\n      swap2\n      swap1\n      tag_43\n      jump\t// in\n    tag_65:\n      mload(0x40)\n      dup1\n      swap2\n      sub\n      swap1\n      return\n        /* \"src/BattlePrediction.sol\":4595:4808  function getPrediction(uint256 predictionId) ... */\n    tag_14:\n      tag_66\n      0x04\n      dup1\n      calldatasize\n      sub\n      dup2\n      add\n      swap1\n      tag_67\n      swap2\n      swap1\n      tag_18\n      jump\t// in\n    tag_67:\n      tag_68\n      jump\t// in\n    tag_66:\n      mload(0x40)\n      tag_69\n      swap2\n      swap1\n      tag_70\n      jump\t// in\n    tag_69:\n      mload(0x40)\n      dup1\n      swap2\n      sub\n      swap1\n      return\n        /* \"src/BattlePrediction.sol\":719:768  mapping(uint256 => Prediction) public predictions */\n    tag_19:\n      mstore(0x20, 0x01)\n      dup1\n      0x00\n      mstore\n      keccak256(0x00, 0x40)\n      0x00\n      swap2\n      pop\n      swap1\n      pop\n      dup1\n      0x00\n      add\n      0x00\n      swap1\n      sload\n      swap1\n      0x0100\n      exp\n      swap1\n      div\n      0xffffffffffffffffffffffffffffffffffffffff\n      and\n      swap1\n      dup1\n      0x01\n      add\n      dup1\n      sload\n      tag_71\n      swap1\n      tag_72\n      jump\t// in\n    tag_71:\n      dup1\n      0x1f\n      add\n      0x20\n      dup1\n      swap2\n      div\n      mul\n      0x20\n      add\n      mload(0x40)\n      swap1\n      dup2\n      add\n      0x40\n      mstore\n      dup1\n      swap3\n      swap2\n      swap1\n      dup2\n      dup2\n      mstore\n      0x20\n      add\n      dup3\n      dup1\n      sload\n      tag_73\n      swap1\n      tag_72\n      jump\t// in\n    tag_73:\n      dup1\n      iszero\n      tag_74\n      jumpi\n      dup1\n      0x1f\n      lt\n      tag_75\n      jumpi\n      0x0100\n      dup1\n      dup4\n      sload\n      div\n      mul\n      dup4\n      mstore\n      swap2\n      0x20\n      add\n      swap2\n      jump(tag_74)\n    tag_75:\n      dup3\n      add\n      swap2\n      swap1\n      0x00\n      mstore\n      keccak256(0x00, 0x20)\n      swap1\n    tag_76:\n      dup2\n      sload\n      dup2\n      mstore\n      swap1\n      0x01\n      add\n      swap1\n      0x20\n      add\n      dup1\n      dup4\n      gt\n      tag_76\n      jumpi\n      dup3\n      swap1\n      sub\n      0x1f\n      and\n      dup3\n      add\n      swap2\n    tag_74:\n      pop\n      pop\n      pop\n      pop\n      pop\n      swap1\n      dup1\n      0x02\n      add\n      dup1\n      sload\n      tag_77\n      swap1\n      tag_72\n      jump\t// in\n    tag_77:\n      dup1\n      0x1f\n      add\n      0x20\n      dup1\n      swap2\n      div\n      mul\n      0x20\n      add\n      mload(0x40)\n      swap1\n      dup2\n      add\n      0x40\n      mstore\n      dup1\n      swap3\n      swap2\n      swap1\n      dup2\n      dup2\n      mstore\n      0x20\n      add\n      dup3\n      dup1\n      sload\n      tag_78\n      swap1\n      tag_72\n      jump\t// in\n    tag_78:\n      dup1\n      iszero\n      tag_79\n      jumpi\n      dup1\n      0x1f\n      lt\n      tag_80\n      jumpi\n      0x0100\n      dup1\n      dup4\n      sload\n      div\n      mul\n      dup4\n      mstore\n      swap2\n      0x20\n      add\n      swap2\n      jump(tag_79)\n    tag_80:\n      dup3\n      add\n      swap2\n      swap1\n      0x00\n      mstore\n      keccak256(0x00, 0x20)\n      swap1\n    tag_81:\n      dup2\n      sload\n      dup2\n      mstore\n      swap1\n      0x01\n      add\n      swap1\n      0x20\n      add\n      dup1\n      dup4\n      gt\n      tag_81\n      jumpi\n      dup3\n      swap1\n      sub\n      0x1f\n      and\n      dup3\n      add\n      swap2\n    tag_79:\n      pop\n      pop\n      pop\n      pop\n      pop\n      swap1\n      dup1\n      0x03\n      add\n      dup1\n      sload\n      tag_82\n      swap1\n      tag_72\n      jump\t// in\n    tag_82:\n      dup1\n      0x1f\n      add\n      0x20\n      dup1\n      swap2\n      div\n      mul\n      0x20\n      add\n      mload(0x40)\n      swap1\n      dup2\n      add\n      0x40\n      mstore\n      dup1\n      swap3\n      swap2\n      swap1\n      dup2\n      dup2\n      mstore\n      0x20\n      add\n      dup3\n      dup1\n      sload\n      tag_83\n      swap1\n      tag_72\n      jump\t// in\n    tag_83:\n      dup1\n      iszero\n      tag_84\n      jumpi\n      dup1\n      0x1f\n      lt\n      tag_85\n      jumpi\n      0x0100\n      dup1\n      dup4\n      sload\n      div\n      mul\n      dup4\n      mstore\n      swap2\n      0x20\n      add\n      swap2\n      jump(tag_84)\n    tag_85:\n      dup3\n      add\n      swap2\n      swap1\n      0x00\n      mstore\n      keccak256(0x00, 0x20)\n      swap1\n    tag_86:\n      dup2\n      sload\n      dup2\n      mstore\n      swap1\n      0x01\n      add\n      swap1\n      0x20\n      add\n      dup1\n      dup4\n      gt\n      tag_86\n      jumpi\n      dup3\n      swap1\n      sub\n      0x1f\n      and\n      dup3\n      add\n      swap2\n    tag_84:\n      pop\n      pop\n      pop\n      pop\n      pop\n      swap1\n      dup1\n      0x04\n      add\n      0x00\n      swap1\n      sload\n      swap1\n      0x0100\n      exp\n      swap1\n      div\n      0xff\n      and\n      swap1\n      dup1\n      0x05\n      add\n      sload\n      swap1\n      pop\n      dup7\n      jump\t// out\n        /* \"src/BattlePrediction.sol\":4939:5042  function getNextPredictionId() public view returns (uint256) {... */\n    tag_23:\n        /* \"src/BattlePrediction.sol\":4991:4998  uint256 */\n      0x00\n        /* \"src/BattlePrediction.sol\":5018:5034  nextPredictionId */\n      sload(0x03)\n        /* \"src/BattlePrediction.sol\":5011:5034  return nextPredictionId */\n      swap1\n      pop\n        /* \"src/BattlePrediction.sol\":4939:5042  function getNextPredictionId() public view returns (uint256) {... */\n      swap1\n      jump\t// out\n        /* \"src/BattlePrediction.sol\":5517:5655  function getPlayerPredictionCount(address player) public view returns (uint256) {... */\n    tag_29:\n        /* \"src/BattlePrediction.sol\":5588:5595  uint256 */\n      0x00\n        /* \"src/BattlePrediction.sol\":5615:5632  playerPredictions */\n      0x02\n        /* \"src/BattlePrediction.sol\":5615:5640  playerPredictions[player] */\n      0x00\n        /* \"src/BattlePrediction.sol\":5633:5639  player */\n      dup4\n        /* \"src/BattlePrediction.sol\":5615:5640  playerPredictions[player] */\n      0xffffffffffffffffffffffffffffffffffffffff\n      and\n      0xffffffffffffffffffffffffffffffffffffffff\n      and\n      dup2\n      mstore\n      0x20\n      add\n      swap1\n      dup2\n      mstore\n      0x20\n      add\n      0x00\n      keccak256\n        /* \"src/BattlePrediction.sol\":5615:5647  playerPredictions[player].length */\n      dup1\n      sload\n      swap1\n      pop\n        /* \"src/BattlePrediction.sol\":5608:5647  return playerPredictions[player].length */\n      swap1\n      pop\n        /* \"src/BattlePrediction.sol\":5517:5655  function getPlayerPredictionCount(address player) public view returns (uint256) {... */\n      swap2\n      swap1\n      pop\n      jump\t// out\n        /* \"src/BattlePrediction.sol\":448:468  address public owner */\n    tag_32:\n      0x00\n      dup1\n      sload\n      swap1\n      0x0100\n      exp\n      swap1\n      div\n      0xffffffffffffffffffffffffffffffffffffffff\n      and\n      dup2\n      jump\t// out\n        /* \"src/BattlePrediction.sol\":6367:6732  function getActivePredictionCount(address player) public view returns (uint256) {... */\n    tag_37:\n        /* \"src/BattlePrediction.sol\":6438:6445  uint256 */\n      0x00\n        /* \"src/BattlePrediction.sol\":6458:6471  uint256 count */\n      dup1\n        /* \"src/BattlePrediction.sol\":6474:6475  0 */\n      0x00\n        /* \"src/BattlePrediction.sol\":6458:6475  uint256 count = 0 */\n      swap1\n      pop\n        /* \"src/BattlePrediction.sol\":6486:6510  uint256[] memory predIds */\n      0x00\n        /* \"src/BattlePrediction.sol\":6513:6530  playerPredictions */\n      0x02\n        /* \"src/BattlePrediction.sol\":6513:6538  playerPredictions[player] */\n      0x00\n        /* \"src/BattlePrediction.sol\":6531:6537  player */\n      dup6\n        /* \"src/BattlePrediction.sol\":6513:6538  playerPredictions[player] */\n      0xffffffffffffffffffffffffffffffffffffffff\n      and\n      0xffffffffffffffffffffffffffffffffffffffff\n      and\n      dup2\n      mstore\n      0x20\n      add\n      swap1\n      dup2\n      mstore\n      0x20\n      add\n      0x00\n      keccak256\n        /* \"src/BattlePrediction.sol\":6486:6538  uint256[] memory predIds = playerPredictions[player] */\n      dup1\n      sload\n      dup1\n      0x20\n      mul\n      0x20\n      add\n      mload(0x40)\n      swap1\n      dup2\n      add\n      0x40\n      mstore\n      dup1\n      swap3\n      swap2\n      swap1\n      dup2\n      dup2\n      mstore\n      0x20\n      add\n      dup3\n      dup1\n      sload\n      dup1\n      iszero\n      tag_90\n      jumpi\n      0x20\n      mul\n      dup3\n      add\n      swap2\n      swap1\n      0x00\n      mstore\n      keccak256(0x00, 0x20)\n      swap1\n    tag_91:\n      dup2\n      sload\n      dup2\n      mstore\n      0x20\n      add\n      swap1\n      0x01\n      add\n      swap1\n      dup1\n      dup4\n      gt\n      tag_91\n      jumpi\n    tag_90:\n      pop\n      pop\n      pop\n      pop\n      pop\n      swap1\n      pop\n        /* \"src/BattlePrediction.sol\":6554:6563  uint256 i */\n      0x00\n        /* \"src/BattlePrediction.sol\":6549:6702  for (uint256 i = 0; i < predIds.length; i++) {... */\n    tag_92:\n        /* \"src/BattlePrediction.sol\":6573:6580  predIds */\n      dup2\n        /* \"src/BattlePrediction.sol\":6573:6587  predIds.length */\n      mload\n        /* \"src/BattlePrediction.sol\":6569:6570  i */\n      dup2\n        /* \"src/BattlePrediction.sol\":6569:6587  i < predIds.length */\n      lt\n        /* \"src/BattlePrediction.sol\":6549:6702  for (uint256 i = 0; i < predIds.length; i++) {... */\n      iszero\n      tag_93\n      jumpi\n        /* \"src/BattlePrediction.sol\":6614:6625  predictions */\n      0x01\n        /* \"src/BattlePrediction.sol\":6614:6637  predictions[predIds[i]] */\n      0x00\n        /* \"src/BattlePrediction.sol\":6626:6633  predIds */\n      dup4\n        /* \"src/BattlePrediction.sol\":6634:6635  i */\n      dup4\n        /* \"src/BattlePrediction.sol\":6626:6636  predIds[i] */\n      dup2\n      mload\n      dup2\n      lt\n      tag_95\n      jumpi\n      tag_96\n      tag_97\n      jump\t// in\n    tag_96:\n    tag_95:\n      0x20\n      mul\n      0x20\n      add\n      add\n      mload\n        /* \"src/BattlePrediction.sol\":6614:6637  predictions[predIds[i]] */\n      dup2\n      mstore\n      0x20\n      add\n      swap1\n      dup2\n      mstore\n      0x20\n      add\n      0x00\n      keccak256\n        /* \"src/BattlePrediction.sol\":6614:6647  predictions[predIds[i]].isSettled */\n      0x04\n      add\n      0x00\n      swap1\n      sload\n      swap1\n      0x0100\n      exp\n      swap1\n      div\n      0xff\n      and\n        /* \"src/BattlePrediction.sol\":6609:6691  if (!predictions[predIds[i]].isSettled) {... */\n      tag_98\n      jumpi\n        /* \"src/BattlePrediction.sol\":6668:6675  count++ */\n      dup3\n      dup1\n      tag_99\n      swap1\n      tag_100\n      jump\t// in\n    tag_99:\n      swap4\n      pop\n      pop\n        /* \"src/BattlePrediction.sol\":6609:6691  if (!predictions[predIds[i]].isSettled) {... */\n    tag_98:\n        /* \"src/BattlePrediction.sol\":6589:6592  i++ */\n      dup1\n      dup1\n      tag_101\n      swap1\n      tag_100\n      jump\t// in\n    tag_101:\n      swap2\n      pop\n      pop\n        /* \"src/BattlePrediction.sol\":6549:6702  for (uint256 i = 0; i < predIds.length; i++) {... */\n      jump(tag_92)\n    tag_93:\n      pop\n        /* \"src/BattlePrediction.sol\":6719:6724  count */\n      dup2\n        /* \"src/BattlePrediction.sol\":6712:6724  return count */\n      swap3\n      pop\n      pop\n      pop\n        /* \"src/BattlePrediction.sol\":6367:6732  function getActivePredictionCount(address player) public view returns (uint256) {... */\n      swap2\n      swap1\n      pop\n      jump\t// out\n        /* \"src/BattlePrediction.sol\":5853:6187  function hasActivePredictions(address player) public view returns (bool) {... */\n    tag_41:\n        /* \"src/BattlePrediction.sol\":5920:5924  bool */\n      0x00\n        /* \"src/BattlePrediction.sol\":5937:5961  uint256[] memory predIds */\n      dup1\n        /* \"src/BattlePrediction.sol\":5964:5981  playerPredictions */\n      0x02\n        /* \"src/BattlePrediction.sol\":5964:5989  playerPredictions[player] */\n      0x00\n        /* \"src/BattlePrediction.sol\":5982:5988  player */\n      dup5\n        /* \"src/BattlePrediction.sol\":5964:5989  playerPredictions[player] */\n      0xffffffffffffffffffffffffffffffffffffffff\n      and\n      0xffffffffffffffffffffffffffffffffffffffff\n      and\n      dup2\n      mstore\n      0x20\n      add\n      swap1\n      dup2\n      mstore\n      0x20\n      add\n      0x00\n      keccak256\n        /* \"src/BattlePrediction.sol\":5937:5989  uint256[] memory predIds = playerPredictions[player] */\n      dup1\n      sload\n      dup1\n      0x20\n      mul\n      0x20\n      add\n      mload(0x40)\n      swap1\n      dup2\n      add\n      0x40\n      mstore\n      dup1\n      swap3\n      swap2\n      swap1\n      dup2\n      dup2\n      mstore\n      0x20\n      add\n      dup3\n      dup1\n      sload\n      dup1\n      iszero\n      tag_103\n      jumpi\n      0x20\n      mul\n      dup3\n      add\n      swap2\n      swap1\n      0x00\n      mstore\n      keccak256(0x00, 0x20)\n      swap1\n    tag_104:\n      dup2\n      sload\n      dup2\n      mstore\n      0x20\n      add\n      swap1\n      0x01\n      add\n      swap1\n      dup1\n      dup4\n      gt\n      tag_104\n      jumpi\n    tag_103:\n      pop\n      pop\n      pop\n      pop\n      pop\n      swap1\n      pop\n        /* \"src/BattlePrediction.sol\":6005:6014  uint256 i */\n      0x00\n        /* \"src/BattlePrediction.sol\":6000:6157  for (uint256 i = 0; i < predIds.length; i++) {... */\n    tag_105:\n        /* \"src/BattlePrediction.sol\":6024:6031  predIds */\n      dup2\n        /* \"src/BattlePrediction.sol\":6024:6038  predIds.length */\n      mload\n        /* \"src/BattlePrediction.sol\":6020:6021  i */\n      dup2\n        /* \"src/BattlePrediction.sol\":6020:6038  i < predIds.length */\n      lt\n        /* \"src/BattlePrediction.sol\":6000:6157  for (uint256 i = 0; i < predIds.length; i++) {... */\n      iszero\n      tag_106\n      jumpi\n        /* \"src/BattlePrediction.sol\":6065:6076  predictions */\n      0x01\n        /* \"src/BattlePrediction.sol\":6065:6088  predictions[predIds[i]] */\n      0x00\n        /* \"src/BattlePrediction.sol\":6077:6084  predIds */\n      dup4\n        /* \"src/BattlePrediction.sol\":6085:6086  i */\n      dup4\n        /* \"src/BattlePrediction.sol\":6077:6087  predIds[i] */\n      dup2\n      mload\n      dup2\n      lt\n      tag_108\n      jumpi\n      tag_109\n      tag_97\n      jump\t// in\n    tag_109:\n    tag_108:\n      0x20\n      mul\n      0x20\n      add\n      add\n      mload\n        /* \"src/BattlePrediction.sol\":6065:6088  predictions[predIds[i]] */\n      dup2\n      mstore\n      0x20\n      add\n      swap1\n      dup2\n      mstore\n      0x20\n      add\n      0x00\n      keccak256\n        /* \"src/BattlePrediction.sol\":6065:6098  predictions[predIds[i]].isSettled */\n      0x04\n      add\n      0x00\n      swap1\n      sload\n      swap1\n      0x0100\n      exp\n      swap1\n      div\n      0xff\n      and\n        /* \"src/BattlePrediction.sol\":6060:6146  if (!predictions[predIds[i]].isSettled) {... */\n      tag_110\n      jumpi\n        /* \"src/BattlePrediction.sol\":6126:6130  true */\n      0x01\n        /* \"src/BattlePrediction.sol\":6119:6130  return true */\n      swap3\n      pop\n      pop\n      pop\n      jump(tag_102)\n        /* \"src/BattlePrediction.sol\":6060:6146  if (!predictions[predIds[i]].isSettled) {... */\n    tag_110:\n        /* \"src/BattlePrediction.sol\":6040:6043  i++ */\n      dup1\n      dup1\n      tag_111\n      swap1\n      tag_100\n      jump\t// in\n    tag_111:\n      swap2\n      pop\n      pop\n        /* \"src/BattlePrediction.sol\":6000:6157  for (uint256 i = 0; i < predIds.length; i++) {... */\n      jump(tag_105)\n    tag_106:\n      pop\n        /* \"src/BattlePrediction.sol\":6174:6179  false */\n      0x00\n        /* \"src/BattlePrediction.sol\":6167:6179  return false */\n      swap2\n      pop\n      pop\n        /* \"src/BattlePrediction.sol\":5853:6187  function hasActivePredictions(address player) public view returns (bool) {... */\n    tag_102:\n      swap2\n      swap1\n      pop\n      jump\t// out\n        /* \"src/BattlePrediction.sol\":5210:5346  function getPlayerPredictions(address player) public view returns (uint256[] memory) {... */\n    tag_46:\n        /* \"src/BattlePrediction.sol\":5277:5293  uint256[] memory */\n      0x60\n        /* \"src/BattlePrediction.sol\":5313:5330  playerPredictions */\n      0x02\n        /* \"src/BattlePrediction.sol\":5313:5338  playerPredictions[player] */\n      0x00\n        /* \"src/BattlePrediction.sol\":5331:5337  player */\n      dup4\n        /* \"src/BattlePrediction.sol\":5313:5338  playerPredictions[player] */\n      0xffffffffffffffffffffffffffffffffffffffff\n      and\n      0xffffffffffffffffffffffffffffffffffffffff\n      and\n      dup2\n      mstore\n      0x20\n      add\n      swap1\n      dup2\n      mstore\n      0x20\n      add\n      0x00\n      keccak256\n        /* \"src/BattlePrediction.sol\":5306:5338  return playerPredictions[player] */\n      dup1\n      sload\n      dup1\n      0x20\n      mul\n      0x20\n      add\n      mload(0x40)\n      swap1\n      dup2\n      add\n      0x40\n      mstore\n      dup1\n      swap3\n      swap2\n      swap1\n      dup2\n      dup2\n      mstore\n      0x20\n      add\n      dup3\n      dup1\n      sload\n      dup1\n      iszero\n      tag_113\n      jumpi\n      0x20\n      mul\n      dup3\n      add\n      swap2\n      swap1\n      0x00\n      mstore\n      keccak256(0x00, 0x20)\n      swap1\n    tag_114:\n      dup2\n      sload\n      dup2\n      mstore\n      0x20\n      add\n      swap1\n      0x01\n      add\n      swap1\n      dup1\n      dup4\n      gt\n      tag_114\n      jumpi\n    tag_113:\n      pop\n      pop\n      pop\n      pop\n      pop\n      swap1\n      pop\n        /* \"src/BattlePrediction.sol\":5210:5346  function getPlayerPredictions(address player) public view returns (uint256[] memory) {... */\n      swap2\n      swap1\n      pop\n      jump\t// out\n        /* \"src/BattlePrediction.sol\":868:903  uint256 public nextPredictionId = 1 */\n    tag_50:\n      sload(0x03)\n      dup2\n      jump\t// out\n        /* \"src/BattlePrediction.sol\":2404:3575  function submitPrediction(... */\n    tag_55:\n        /* \"src/BattlePrediction.sol\":2553:2560  uint256 */\n      0x00\n        /* \"src/BattlePrediction.sol\":2603:2604  0 */\n      dup1\n        /* \"src/BattlePrediction.sol\":2587:2592  coinA */\n      dup5\n        /* \"src/BattlePrediction.sol\":2581:2600  bytes(coinA).length */\n      mload\n        /* \"src/BattlePrediction.sol\":2581:2604  bytes(coinA).length > 0 */\n      gt\n        /* \"src/BattlePrediction.sol\":2573:2630  require(bytes(coinA).length > 0, \"coinA cannot be empty\") */\n      tag_116\n      jumpi\n      mload(0x40)\n      0x08c379a000000000000000000000000000000000000000000000000000000000\n      dup2\n      mstore\n      0x04\n      add\n      tag_117\n      swap1\n      tag_118\n      jump\t// in\n    tag_117:\n      mload(0x40)\n      dup1\n      swap2\n      sub\n      swap1\n      revert\n    tag_116:\n        /* \"src/BattlePrediction.sol\":2671:2672  0 */\n      0x00\n        /* \"src/BattlePrediction.sol\":2655:2660  coinB */\n      dup4\n        /* \"src/BattlePrediction.sol\":2649:2668  bytes(coinB).length */\n      mload\n        /* \"src/BattlePrediction.sol\":2649:2672  bytes(coinB).length > 0 */\n      gt\n        /* \"src/BattlePrediction.sol\":2641:2698  require(bytes(coinB).length > 0, \"coinB cannot be empty\") */\n      tag_119\n      jumpi\n      mload(0x40)\n      0x08c379a000000000000000000000000000000000000000000000000000000000\n      dup2\n      mstore\n      0x04\n      add\n      tag_120\n      swap1\n      tag_121\n      jump\t// in\n    tag_120:\n      mload(0x40)\n      dup1\n      swap2\n      sub\n      swap1\n      revert\n    tag_119:\n        /* \"src/BattlePrediction.sol\":2749:2750  0 */\n      0x00\n        /* \"src/BattlePrediction.sol\":2723:2738  predictedWinner */\n      dup3\n        /* \"src/BattlePrediction.sol\":2717:2746  bytes(predictedWinner).length */\n      mload\n        /* \"src/BattlePrediction.sol\":2717:2750  bytes(predictedWinner).length > 0 */\n      gt\n        /* \"src/BattlePrediction.sol\":2709:2786  require(bytes(predictedWinner).length > 0, \"predictedWinner cannot be empty\") */\n      tag_122\n      jumpi\n      mload(0x40)\n      0x08c379a000000000000000000000000000000000000000000000000000000000\n      dup2\n      mstore\n      0x04\n      add\n      tag_123\n      swap1\n      tag_124\n      jump\t// in\n    tag_123:\n      mload(0x40)\n      dup1\n      swap2\n      sub\n      swap1\n      revert\n    tag_122:\n        /* \"src/BattlePrediction.sol\":2878:2916  compareStrings(predictedWinner, coinA) */\n      tag_125\n        /* \"src/BattlePrediction.sol\":2893:2908  predictedWinner */\n      dup3\n        /* \"src/BattlePrediction.sol\":2910:2915  coinA */\n      dup6\n        /* \"src/BattlePrediction.sol\":2878:2892  compareStrings */\n      tag_126\n        /* \"src/BattlePrediction.sol\":2878:2916  compareStrings(predictedWinner, coinA) */\n      jump\t// in\n    tag_125:\n        /* \"src/BattlePrediction.sol\":2878:2958  compareStrings(predictedWinner, coinA) || compareStrings(predictedWinner, coinB) */\n      dup1\n      tag_127\n      jumpi\n      pop\n        /* \"src/BattlePrediction.sol\":2920:2958  compareStrings(predictedWinner, coinB) */\n      tag_128\n        /* \"src/BattlePrediction.sol\":2935:2950  predictedWinner */\n      dup3\n        /* \"src/BattlePrediction.sol\":2952:2957  coinB */\n      dup5\n        /* \"src/BattlePrediction.sol\":2920:2934  compareStrings */\n      tag_126\n        /* \"src/BattlePrediction.sol\":2920:2958  compareStrings(predictedWinner, coinB) */\n      jump\t// in\n    tag_128:\n        /* \"src/BattlePrediction.sol\":2878:2958  compareStrings(predictedWinner, coinA) || compareStrings(predictedWinner, coinB) */\n    tag_127:\n        /* \"src/BattlePrediction.sol\":2856:3026  require(... */\n      tag_129\n      jumpi\n      mload(0x40)\n      0x08c379a000000000000000000000000000000000000000000000000000000000\n      dup2\n      mstore\n      0x04\n      add\n      tag_130\n      swap1\n      tag_131\n      jump\t// in\n    tag_130:\n      mload(0x40)\n      dup1\n      swap2\n      sub\n      swap1\n      revert\n    tag_129:\n        /* \"src/BattlePrediction.sol\":3039:3059  uint256 predictionId */\n      0x00\n        /* \"src/BattlePrediction.sol\":3062:3078  nextPredictionId */\n      sload(0x03)\n        /* \"src/BattlePrediction.sol\":3039:3078  uint256 predictionId = nextPredictionId */\n      swap1\n      pop\n        /* \"src/BattlePrediction.sol\":3089:3105  nextPredictionId */\n      0x03\n      0x00\n        /* \"src/BattlePrediction.sol\":3089:3107  nextPredictionId++ */\n      dup2\n      sload\n      dup1\n      swap3\n      swap2\n      swap1\n      tag_132\n      swap1\n      tag_100\n      jump\t// in\n    tag_132:\n      swap2\n      swap1\n      pop\n      sstore\n      pop\n        /* \"src/BattlePrediction.sol\":3148:3377  Prediction({... */\n      mload(0x40)\n      dup1\n      0xc0\n      add\n      0x40\n      mstore\n      dup1\n        /* \"src/BattlePrediction.sol\":3182:3192  msg.sender */\n      caller\n        /* \"src/BattlePrediction.sol\":3148:3377  Prediction({... */\n      0xffffffffffffffffffffffffffffffffffffffff\n      and\n      dup2\n      mstore\n      0x20\n      add\n        /* \"src/BattlePrediction.sol\":3214:3219  coinA */\n      dup7\n        /* \"src/BattlePrediction.sol\":3148:3377  Prediction({... */\n      dup2\n      mstore\n      0x20\n      add\n        /* \"src/BattlePrediction.sol\":3241:3246  coinB */\n      dup6\n        /* \"src/BattlePrediction.sol\":3148:3377  Prediction({... */\n      dup2\n      mstore\n      0x20\n      add\n        /* \"src/BattlePrediction.sol\":3278:3293  predictedWinner */\n      dup5\n        /* \"src/BattlePrediction.sol\":3148:3377  Prediction({... */\n      dup2\n      mstore\n      0x20\n      add\n        /* \"src/BattlePrediction.sol\":3319:3324  false */\n      0x00\n        /* \"src/BattlePrediction.sol\":3148:3377  Prediction({... */\n      iszero\n      iszero\n      dup2\n      mstore\n      0x20\n      add\n        /* \"src/BattlePrediction.sol\":3350:3365  block.timestamp */\n      timestamp\n        /* \"src/BattlePrediction.sol\":3148:3377  Prediction({... */\n      dup2\n      mstore\n      pop\n        /* \"src/BattlePrediction.sol\":3120:3131  predictions */\n      0x01\n        /* \"src/BattlePrediction.sol\":3120:3145  predictions[predictionId] */\n      0x00\n        /* \"src/BattlePrediction.sol\":3132:3144  predictionId */\n      dup4\n        /* \"src/BattlePrediction.sol\":3120:3145  predictions[predictionId] */\n      dup2\n      mstore\n      0x20\n      add\n      swap1\n      dup2\n      mstore\n      0x20\n      add\n      0x00\n      keccak256\n        /* \"src/BattlePrediction.sol\":3120:3377  predictions[predictionId] = Prediction({... */\n      0x00\n      dup3\n      add\n      mload\n      dup2\n      0x00\n      add\n      exp(0x0100, 0x00)\n      dup2\n      sload\n      dup2\n      0xffffffffffffffffffffffffffffffffffffffff\n      mul\n      not\n      and\n      swap1\n      dup4\n      0xffffffffffffffffffffffffffffffffffffffff\n      and\n      mul\n      or\n      swap1\n      sstore\n      pop\n      0x20\n      dup3\n      add\n      mload\n      dup2\n      0x01\n      add\n      swap1\n      dup2\n      tag_133\n      swap2\n      swap1\n      tag_134\n      jump\t// in\n    tag_133:\n      pop\n      0x40\n      dup3\n      add\n      mload\n      dup2\n      0x02\n      add\n      swap1\n      dup2\n      tag_135\n      swap2\n      swap1\n      tag_134\n      jump\t// in\n    tag_135:\n      pop\n      0x60\n      dup3\n      add\n      mload\n      dup2\n      0x03\n      add\n      swap1\n      dup2\n      tag_136\n      swap2\n      swap1\n      tag_134\n      jump\t// in\n    tag_136:\n      pop\n      0x80\n      dup3\n      add\n      mload\n      dup2\n      0x04\n      add\n      exp(0x0100, 0x00)\n      dup2\n      sload\n      dup2\n      0xff\n      mul\n      not\n      and\n      swap1\n      dup4\n      iszero\n      iszero\n      mul\n      or\n      swap1\n      sstore\n      pop\n      0xa0\n      dup3\n      add\n      mload\n      dup2\n      0x05\n      add\n      sstore\n      swap1\n      pop\n      pop\n        /* \"src/BattlePrediction.sol\":3390:3407  playerPredictions */\n      0x02\n        /* \"src/BattlePrediction.sol\":3390:3419  playerPredictions[msg.sender] */\n      0x00\n        /* \"src/BattlePrediction.sol\":3408:3418  msg.sender */\n      caller\n        /* \"src/BattlePrediction.sol\":3390:3419  playerPredictions[msg.sender] */\n      0xffffffffffffffffffffffffffffffffffffffff\n      and\n      0xffffffffffffffffffffffffffffffffffffffff\n      and\n      dup2\n      mstore\n      0x20\n      add\n      swap1\n      dup2\n      mstore\n      0x20\n      add\n      0x00\n      keccak256\n        /* \"src/BattlePrediction.sol\":3425:3437  predictionId */\n      dup2\n        /* \"src/BattlePrediction.sol\":3390:3438  playerPredictions[msg.sender].push(predictionId) */\n      swap1\n      dup1\n      0x01\n      dup2\n      sload\n      add\n      dup1\n      dup3\n      sstore\n      dup1\n      swap2\n      pop\n      pop\n      0x01\n      swap1\n      sub\n      swap1\n      0x00\n      mstore\n      keccak256(0x00, 0x20)\n      add\n      0x00\n      swap1\n      swap2\n      swap1\n      swap2\n      swap1\n      swap2\n      pop\n      sstore\n        /* \"src/BattlePrediction.sol\":3490:3500  msg.sender */\n      caller\n        /* \"src/BattlePrediction.sol\":3456:3535  PredictionSubmitted(predictionId, msg.sender, predictedWinner, block.timestamp) */\n      0xffffffffffffffffffffffffffffffffffffffff\n      and\n        /* \"src/BattlePrediction.sol\":3476:3488  predictionId */\n      dup2\n        /* \"src/BattlePrediction.sol\":3456:3535  PredictionSubmitted(predictionId, msg.sender, predictedWinner, block.timestamp) */\n      0x392ef439709f2d653045e528ca853d7505073ed7068b26089bff7582c030067b\n        /* \"src/BattlePrediction.sol\":3502:3517  predictedWinner */\n      dup6\n        /* \"src/BattlePrediction.sol\":3519:3534  block.timestamp */\n      timestamp\n        /* \"src/BattlePrediction.sol\":3456:3535  PredictionSubmitted(predictionId, msg.sender, predictedWinner, block.timestamp) */\n      mload(0x40)\n      tag_138\n      swap3\n      swap2\n      swap1\n      tag_139\n      jump\t// in\n    tag_138:\n      mload(0x40)\n      dup1\n      swap2\n      sub\n      swap1\n      log3\n        /* \"src/BattlePrediction.sol\":3555:3567  predictionId */\n      dup1\n        /* \"src/BattlePrediction.sol\":3548:3567  return predictionId */\n      swap2\n      pop\n      pop\n        /* \"src/BattlePrediction.sol\":2404:3575  function submitPrediction(... */\n      swap4\n      swap3\n      pop\n      pop\n      pop\n      jump\t// out\n        /* \"src/BattlePrediction.sol\":775:829  mapping(address => uint256[]) public playerPredictions */\n    tag_60:\n      mstore(0x20, 0x02)\n      dup2\n      0x00\n      mstore\n      keccak256(0x00, 0x40)\n      dup2\n      dup2\n      sload\n      dup2\n      lt\n      tag_140\n      jumpi\n      0x00\n      dup1\n      revert\n    tag_140:\n      swap1\n      0x00\n      mstore\n      keccak256(0x00, 0x20)\n      add\n      0x00\n      swap2\n      pop\n      swap2\n      pop\n      pop\n      sload\n      dup2\n      jump\t// out\n        /* \"src/BattlePrediction.sol\":3749:4261  function settlePrediction(uint256 predictionId) ... */\n    tag_64:\n        /* \"src/BattlePrediction.sol\":3874:3878  bool */\n      0x00\n        /* \"src/BattlePrediction.sol\":3841:3853  predictionId */\n      dup2\n        /* \"src/BattlePrediction.sol\":1635:1636  0 */\n      0x00\n        /* \"src/BattlePrediction.sol\":1591:1637  predictions[predictionId].player != address(0) */\n      0xffffffffffffffffffffffffffffffffffffffff\n      and\n        /* \"src/BattlePrediction.sol\":1591:1602  predictions */\n      0x01\n        /* \"src/BattlePrediction.sol\":1591:1616  predictions[predictionId] */\n      0x00\n        /* \"src/BattlePrediction.sol\":1603:1615  predictionId */\n      dup4\n        /* \"src/BattlePrediction.sol\":1591:1616  predictions[predictionId] */\n      dup2\n      mstore\n      0x20\n      add\n      swap1\n      dup2\n      mstore\n      0x20\n      add\n      0x00\n      keccak256\n        /* \"src/BattlePrediction.sol\":1591:1623  predictions[predictionId].player */\n      0x00\n      add\n      0x00\n      swap1\n      sload\n      swap1\n      0x0100\n      exp\n      swap1\n      div\n      0xffffffffffffffffffffffffffffffffffffffff\n      and\n        /* \"src/BattlePrediction.sol\":1591:1637  predictions[predictionId].player != address(0) */\n      0xffffffffffffffffffffffffffffffffffffffff\n      and\n      sub\n        /* \"src/BattlePrediction.sol\":1583:1662  require(predictions[predictionId].player != address(0), \"Prediction not found\") */\n      tag_143\n      jumpi\n      mload(0x40)\n      0x08c379a000000000000000000000000000000000000000000000000000000000\n      dup2\n      mstore\n      0x04\n      add\n      tag_144\n      swap1\n      tag_145\n      jump\t// in\n    tag_144:\n      mload(0x40)\n      dup1\n      swap2\n      sub\n      swap1\n      revert\n    tag_143:\n        /* \"src/BattlePrediction.sol\":3897:3926  Prediction storage prediction */\n      0x00\n        /* \"src/BattlePrediction.sol\":3929:3940  predictions */\n      0x01\n        /* \"src/BattlePrediction.sol\":3929:3954  predictions[predictionId] */\n      0x00\n        /* \"src/BattlePrediction.sol\":3941:3953  predictionId */\n      dup6\n        /* \"src/BattlePrediction.sol\":3929:3954  predictions[predictionId] */\n      dup2\n      mstore\n      0x20\n      add\n      swap1\n      dup2\n      mstore\n      0x20\n      add\n      0x00\n      keccak256\n        /* \"src/BattlePrediction.sol\":3897:3954  Prediction storage prediction = predictions[predictionId] */\n      swap1\n      pop\n        /* \"src/BattlePrediction.sol\":3987:3997  prediction */\n      dup1\n        /* \"src/BattlePrediction.sol\":3987:4004  prediction.player */\n      0x00\n      add\n      0x00\n      swap1\n      sload\n      swap1\n      0x0100\n      exp\n      swap1\n      div\n      0xffffffffffffffffffffffffffffffffffffffff\n      and\n        /* \"src/BattlePrediction.sol\":3973:4004  msg.sender == prediction.player */\n      0xffffffffffffffffffffffffffffffffffffffff\n      and\n        /* \"src/BattlePrediction.sol\":3973:3983  msg.sender */\n      caller\n        /* \"src/BattlePrediction.sol\":3973:4004  msg.sender == prediction.player */\n      0xffffffffffffffffffffffffffffffffffffffff\n      and\n      eq\n        /* \"src/BattlePrediction.sol\":3965:4052  require(msg.sender == prediction.player, \"Only the player can settle their prediction\") */\n      tag_147\n      jumpi\n      mload(0x40)\n      0x08c379a000000000000000000000000000000000000000000000000000000000\n      dup2\n      mstore\n      0x04\n      add\n      tag_148\n      swap1\n      tag_149\n      jump\t// in\n    tag_148:\n      mload(0x40)\n      dup1\n      swap2\n      sub\n      swap1\n      revert\n    tag_147:\n        /* \"src/BattlePrediction.sol\":4072:4082  prediction */\n      dup1\n        /* \"src/BattlePrediction.sol\":4072:4092  prediction.isSettled */\n      0x04\n      add\n      0x00\n      swap1\n      sload\n      swap1\n      0x0100\n      exp\n      swap1\n      div\n      0xff\n      and\n        /* \"src/BattlePrediction.sol\":4071:4092  !prediction.isSettled */\n      iszero\n        /* \"src/BattlePrediction.sol\":4063:4123  require(!prediction.isSettled, \"Prediction already settled\") */\n      tag_150\n      jumpi\n      mload(0x40)\n      0x08c379a000000000000000000000000000000000000000000000000000000000\n      dup2\n      mstore\n      0x04\n      add\n      tag_151\n      swap1\n      tag_152\n      jump\t// in\n    tag_151:\n      mload(0x40)\n      dup1\n      swap2\n      sub\n      swap1\n      revert\n    tag_150:\n        /* \"src/BattlePrediction.sol\":4159:4163  true */\n      0x01\n        /* \"src/BattlePrediction.sol\":4136:4146  prediction */\n      dup2\n        /* \"src/BattlePrediction.sol\":4136:4156  prediction.isSettled */\n      0x04\n      add\n      0x00\n        /* \"src/BattlePrediction.sol\":4136:4163  prediction.isSettled = true */\n      0x0100\n      exp\n      dup2\n      sload\n      dup2\n      0xff\n      mul\n      not\n      and\n      swap1\n      dup4\n      iszero\n      iszero\n      mul\n      or\n      swap1\n      sstore\n      pop\n        /* \"src/BattlePrediction.sol\":4199:4211  predictionId */\n      dup4\n        /* \"src/BattlePrediction.sol\":4181:4229  PredictionSettled(predictionId, block.timestamp) */\n      0xef5875454e539ac83dc89fef7dae980b3dc87a65215339baf0f115c578ea3228\n        /* \"src/BattlePrediction.sol\":4213:4228  block.timestamp */\n      timestamp\n        /* \"src/BattlePrediction.sol\":4181:4229  PredictionSettled(predictionId, block.timestamp) */\n      mload(0x40)\n      tag_153\n      swap2\n      swap1\n      tag_25\n      jump\t// in\n    tag_153:\n      mload(0x40)\n      dup1\n      swap2\n      sub\n      swap1\n      log2\n        /* \"src/BattlePrediction.sol\":4249:4253  true */\n      0x01\n        /* \"src/BattlePrediction.sol\":4242:4253  return true */\n      swap3\n      pop\n      pop\n        /* \"src/BattlePrediction.sol\":3749:4261  function settlePrediction(uint256 predictionId) ... */\n      pop\n      swap2\n      swap1\n      pop\n      jump\t// out\n        /* \"src/BattlePrediction.sol\":4595:4808  function getPrediction(uint256 predictionId) ... */\n    tag_68:\n        /* \"src/BattlePrediction.sol\":4732:4749  Prediction memory */\n      tag_154\n      tag_155\n      jump\t// in\n    tag_154:\n        /* \"src/BattlePrediction.sol\":4699:4711  predictionId */\n      dup2\n        /* \"src/BattlePrediction.sol\":1635:1636  0 */\n      0x00\n        /* \"src/BattlePrediction.sol\":1591:1637  predictions[predictionId].player != address(0) */\n      0xffffffffffffffffffffffffffffffffffffffff\n      and\n        /* \"src/BattlePrediction.sol\":1591:1602  predictions */\n      0x01\n        /* \"src/BattlePrediction.sol\":1591:1616  predictions[predictionId] */\n      0x00\n        /* \"src/BattlePrediction.sol\":1603:1615  predictionId */\n      dup4\n        /* \"src/BattlePrediction.sol\":1591:1616  predictions[predictionId] */\n      dup2\n      mstore\n      0x20\n      add\n      swap1\n      dup2\n      mstore\n      0x20\n      add\n      0x00\n      keccak256\n        /* \"src/BattlePrediction.sol\":1591:1623  predictions[predictionId].player */\n      0x00\n      add\n      0x00\n      swap1\n      sload\n      swap1\n      0x0100\n      exp\n      swap1\n      div\n      0xffffffffffffffffffffffffffffffffffffffff\n      and\n        /* \"src/BattlePrediction.sol\":1591:1637  predictions[predictionId].player != address(0) */\n      0xffffffffffffffffffffffffffffffffffffffff\n      and\n      sub\n        /* \"src/BattlePrediction.sol\":1583:1662  require(predictions[predictionId].player != address(0), \"Prediction not found\") */\n      tag_157\n      jumpi\n      mload(0x40)\n      0x08c379a000000000000000000000000000000000000000000000000000000000\n      dup2\n      mstore\n      0x04\n      add\n      tag_158\n      swap1\n      tag_145\n      jump\t// in\n    tag_158:\n      mload(0x40)\n      dup1\n      swap2\n      sub\n      swap1\n      revert\n    tag_157:\n        /* \"src/BattlePrediction.sol\":4775:4786  predictions */\n      0x01\n        /* \"src/BattlePrediction.sol\":4775:4800  predictions[predictionId] */\n      0x00\n        /* \"src/BattlePrediction.sol\":4787:4799  predictionId */\n      dup5\n        /* \"src/BattlePrediction.sol\":4775:4800  predictions[predictionId] */\n      dup2\n      mstore\n      0x20\n      add\n      swap1\n      dup2\n      mstore\n      0x20\n      add\n      0x00\n      keccak256\n        /* \"src/BattlePrediction.sol\":4768:4800  return predictions[predictionId] */\n      mload(0x40)\n      dup1\n      0xc0\n      add\n      0x40\n      mstore\n      swap1\n      dup2\n      0x00\n      dup3\n      add\n      0x00\n      swap1\n      sload\n      swap1\n      0x0100\n      exp\n      swap1\n      div\n      0xffffffffffffffffffffffffffffffffffffffff\n      and\n      0xffffffffffffffffffffffffffffffffffffffff\n      and\n      0xffffffffffffffffffffffffffffffffffffffff\n      and\n      dup2\n      mstore\n      0x20\n      add\n      0x01\n      dup3\n      add\n      dup1\n      sload\n      tag_160\n      swap1\n      tag_72\n      jump\t// in\n    tag_160:\n      dup1\n      0x1f\n      add\n      0x20\n      dup1\n      swap2\n      div\n      mul\n      0x20\n      add\n      mload(0x40)\n      swap1\n      dup2\n      add\n      0x40\n      mstore\n      dup1\n      swap3\n      swap2\n      swap1\n      dup2\n      dup2\n      mstore\n      0x20\n      add\n      dup3\n      dup1\n      sload\n      tag_161\n      swap1\n      tag_72\n      jump\t// in\n    tag_161:\n      dup1\n      iszero\n      tag_162\n      jumpi\n      dup1\n      0x1f\n      lt\n      tag_163\n      jumpi\n      0x0100\n      dup1\n      dup4\n      sload\n      div\n      mul\n      dup4\n      mstore\n      swap2\n      0x20\n      add\n      swap2\n      jump(tag_162)\n    tag_163:\n      dup3\n      add\n      swap2\n      swap1\n      0x00\n      mstore\n      keccak256(0x00, 0x20)\n      swap1\n    tag_164:\n      dup2\n      sload\n      dup2\n      mstore\n      swap1\n      0x01\n      add\n      swap1\n      0x20\n      add\n      dup1\n      dup4\n      gt\n      tag_164\n      jumpi\n      dup3\n      swap1\n      sub\n      0x1f\n      and\n      dup3\n      add\n      swap2\n    tag_162:\n      pop\n      pop\n      pop\n      pop\n      pop\n      dup2\n      mstore\n      0x20\n      add\n      0x02\n      dup3\n      add\n      dup1\n      sload\n      tag_165\n      swap1\n      tag_72\n      jump\t// in\n    tag_165:\n      dup1\n      0x1f\n      add\n      0x20\n      dup1\n      swap2\n      div\n      mul\n      0x20\n      add\n      mload(0x40)\n      swap1\n      dup2\n      add\n      0x40\n      mstore\n      dup1\n      swap3\n      swap2\n      swap1\n      dup2\n      dup2\n      mstore\n      0x20\n      add\n      dup3\n      dup1\n      sload\n      tag_166\n      swap1\n      tag_72\n      jump\t// in\n    tag_166:\n      dup1\n      iszero\n      tag_167\n      jumpi\n      dup1\n      0x1f\n      lt\n      tag_168\n      jumpi\n      0x0100\n      dup1\n      dup4\n      sload\n      div\n      mul\n      dup4\n      mstore\n      swap2\n      0x20\n      add\n      swap2\n      jump(tag_167)\n    tag_168:\n      dup3\n      add\n      swap2\n      swap1\n      0x00\n      mstore\n      keccak256(0x00, 0x20)\n      swap1\n    tag_169:\n      dup2\n      sload\n      dup2\n      mstore\n      swap1\n      0x01\n      add\n      swap1\n      0x20\n      add\n      dup1\n      dup4\n      gt\n      tag_169\n      jumpi\n      dup3\n      swap1\n      sub\n      0x1f\n      and\n      dup3\n      add\n      swap2\n    tag_167:\n      pop\n      pop\n      pop\n      pop\n      pop\n      dup2\n      mstore\n      0x20\n      add\n      0x03\n      dup3\n      add\n      dup1\n      sload\n      tag_170\n      swap1\n      tag_72\n      jump\t// in\n    tag_170:\n      dup1\n      0x1f\n      add\n      0x20\n      dup1\n      swap2\n      div\n      mul\n      0x20\n      add\n      mload(0x40)\n      swap1\n      dup2\n      add\n      0x40\n      mstore\n      dup1\n      swap3\n      swap2\n      swap1\n      dup2\n      dup2\n      mstore\n      0x20\n      add\n      dup3\n      dup1\n      sload\n      tag_171\n      swap1\n      tag_72\n      jump\t// in\n    tag_171:\n      dup1\n      iszero\n      tag_172\n      jumpi\n      dup1\n      0x1f\n      lt\n      tag_173\n      jumpi\n      0x0100\n      dup1\n      dup4\n      sload\n      div\n      mul\n      dup4\n      mstore\n      swap2\n      0x20\n      add\n      swap2\n      jump(tag_172)\n    tag_173:\n      dup3\n      add\n      swap2\n      swap1\n      0x00\n      mstore\n      keccak256(0x00, 0x20)\n      swap1\n    tag_174:\n      dup2\n      sload\n      dup2\n      mstore\n      swap1\n      0x01\n      add\n      swap1\n      0x20\n      add\n      dup1\n      dup4\n      gt\n      tag_174\n      jumpi\n      dup3\n      swap1\n      sub\n      0x1f\n      and\n      dup3\n      add\n      swap2\n    tag_172:\n      pop\n      pop\n      pop\n      pop\n      pop\n      dup2\n      mstore\n      0x20\n      add\n      0x04\n      dup3\n      add\n      0x00\n      swap1\n      sload\n      swap1\n      0x0100\n      exp\n      swap1\n      div\n      0xff\n      and\n      iszero\n      iszero\n      iszero\n      iszero\n      dup2\n      mstore\n      0x20\n      add\n      0x05\n      dup3\n      add\n      sload\n      dup2\n      mstore\n      pop\n      pop\n      swap2\n      pop\n        /* \"src/BattlePrediction.sol\":4595:4808  function getPrediction(uint256 predictionId) ... */\n      pop\n      swap2\n      swap1\n      pop\n      jump\t// out\n        /* \"src/BattlePrediction.sol\":7101:7314  function compareStrings(string memory a, string memory b) ... */\n    tag_126:\n        /* \"src/BattlePrediction.sol\":7212:7216  bool */\n      0x00\n        /* \"src/BattlePrediction.sol\":7303:7304  b */\n      dup2\n        /* \"src/BattlePrediction.sol\":7286:7305  abi.encodePacked(b) */\n      add(0x20, mload(0x40))\n      tag_176\n      swap2\n      swap1\n      tag_177\n      jump\t// in\n    tag_176:\n      mload(0x40)\n      0x20\n      dup2\n      dup4\n      sub\n      sub\n      dup2\n      mstore\n      swap1\n      0x40\n      mstore\n        /* \"src/BattlePrediction.sol\":7276:7306  keccak256(abi.encodePacked(b)) */\n      dup1\n      mload\n      swap1\n      0x20\n      add\n      keccak256\n        /* \"src/BattlePrediction.sol\":7269:7270  a */\n      dup4\n        /* \"src/BattlePrediction.sol\":7252:7271  abi.encodePacked(a) */\n      add(0x20, mload(0x40))\n      tag_178\n      swap2\n      swap1\n      tag_177\n      jump\t// in\n    tag_178:\n      mload(0x40)\n      0x20\n      dup2\n      dup4\n      sub\n      sub\n      dup2\n      mstore\n      swap1\n      0x40\n      mstore\n        /* \"src/BattlePrediction.sol\":7242:7272  keccak256(abi.encodePacked(a)) */\n      dup1\n      mload\n      swap1\n      0x20\n      add\n      keccak256\n        /* \"src/BattlePrediction.sol\":7242:7306  keccak256(abi.encodePacked(a)) == keccak256(abi.encodePacked(b)) */\n      eq\n        /* \"src/BattlePrediction.sol\":7235:7306  return keccak256(abi.encodePacked(a)) == keccak256(abi.encodePacked(b)) */\n      swap1\n      pop\n        /* \"src/BattlePrediction.sol\":7101:7314  function compareStrings(string memory a, string memory b) ... */\n      swap3\n      swap2\n      pop\n      pop\n      jump\t// out\n    tag_155:\n      mload(0x40)\n      dup1\n      0xc0\n      add\n      0x40\n      mstore\n      dup1\n      and(0xffffffffffffffffffffffffffffffffffffffff, 0x00)\n      dup2\n      mstore\n      0x20\n      add\n      0x60\n      dup2\n      mstore\n      0x20\n      add\n      0x60\n      dup2\n      mstore\n      0x20\n      add\n      0x60\n      dup2\n      mstore\n      0x20\n      add\n      iszero(iszero(0x00))\n      dup2\n      mstore\n      0x20\n      add\n      0x00\n      dup2\n      mstore\n      pop\n      swap1\n      jump\t// out\n        /* \"#utility.yul\":7:82   */\n    tag_179:\n        /* \"#utility.yul\":40:46   */\n      0x00\n        /* \"#utility.yul\":73:75   */\n      0x40\n        /* \"#utility.yul\":67:76   */\n      mload\n        /* \"#utility.yul\":57:76   */\n      swap1\n      pop\n        /* \"#utility.yul\":7:82   */\n      swap1\n      jump\t// out\n        /* \"#utility.yul\":88:205   */\n    tag_180:\n        /* \"#utility.yul\":197:198   */\n      0x00\n        /* \"#utility.yul\":194:195   */\n      dup1\n        /* \"#utility.yul\":187:199   */\n      revert\n        /* \"#utility.yul\":211:328   */\n    tag_181:\n        /* \"#utility.yul\":320:321   */\n      0x00\n        /* \"#utility.yul\":317:318   */\n      dup1\n        /* \"#utility.yul\":310:322   */\n      revert\n        /* \"#utility.yul\":334:411   */\n    tag_182:\n        /* \"#utility.yul\":371:378   */\n      0x00\n        /* \"#utility.yul\":400:405   */\n      dup2\n        /* \"#utility.yul\":389:405   */\n      swap1\n      pop\n        /* \"#utility.yul\":334:411   */\n      swap2\n      swap1\n      pop\n      jump\t// out\n        /* \"#utility.yul\":417:539   */\n    tag_183:\n        /* \"#utility.yul\":490:514   */\n      tag_258\n        /* \"#utility.yul\":508:513   */\n      dup2\n        /* \"#utility.yul\":490:514   */\n      tag_182\n      jump\t// in\n    tag_258:\n        /* \"#utility.yul\":483:488   */\n      dup2\n        /* \"#utility.yul\":480:515   */\n      eq\n        /* \"#utility.yul\":470:533   */\n      tag_259\n      jumpi\n        /* \"#utility.yul\":529:530   */\n      0x00\n        /* \"#utility.yul\":526:527   */\n      dup1\n        /* \"#utility.yul\":519:531   */\n      revert\n        /* \"#utility.yul\":470:533   */\n    tag_259:\n        /* \"#utility.yul\":417:539   */\n      pop\n      jump\t// out\n        /* \"#utility.yul\":545:684   */\n    tag_184:\n        /* \"#utility.yul\":591:596   */\n      0x00\n        /* \"#utility.yul\":629:635   */\n      dup2\n        /* \"#utility.yul\":616:636   */\n      calldataload\n        /* \"#utility.yul\":607:636   */\n      swap1\n      pop\n        /* \"#utility.yul\":645:678   */\n      tag_261\n        /* \"#utility.yul\":672:677   */\n      dup2\n        /* \"#utility.yul\":645:678   */\n      tag_183\n      jump\t// in\n    tag_261:\n        /* \"#utility.yul\":545:684   */\n      swap3\n      swap2\n      pop\n      pop\n      jump\t// out\n        /* \"#utility.yul\":690:1019   */\n    tag_18:\n        /* \"#utility.yul\":749:755   */\n      0x00\n        /* \"#utility.yul\":798:800   */\n      0x20\n        /* \"#utility.yul\":786:795   */\n      dup3\n        /* \"#utility.yul\":777:784   */\n      dup5\n        /* \"#utility.yul\":773:796   */\n      sub\n        /* \"#utility.yul\":769:801   */\n      slt\n        /* \"#utility.yul\":766:885   */\n      iszero\n      tag_263\n      jumpi\n        /* \"#utility.yul\":804:883   */\n      tag_264\n      tag_180\n      jump\t// in\n    tag_264:\n        /* \"#utility.yul\":766:885   */\n    tag_263:\n        /* \"#utility.yul\":924:925   */\n      0x00\n        /* \"#utility.yul\":949:1002   */\n      tag_265\n        /* \"#utility.yul\":994:1001   */\n      dup5\n        /* \"#utility.yul\":985:991   */\n      dup3\n        /* \"#utility.yul\":974:983   */\n      dup6\n        /* \"#utility.yul\":970:992   */\n      add\n        /* \"#utility.yul\":949:1002   */\n      tag_184\n      jump\t// in\n    tag_265:\n        /* \"#utility.yul\":939:1002   */\n      swap2\n      pop\n        /* \"#utility.yul\":895:1012   */\n      pop\n        /* \"#utility.yul\":690:1019   */\n      swap3\n      swap2\n      pop\n      pop\n      jump\t// out\n        /* \"#utility.yul\":1025:1151   */\n    tag_185:\n        /* \"#utility.yul\":1062:1069   */\n      0x00\n        /* \"#utility.yul\":1102:1144   */\n      0xffffffffffffffffffffffffffffffffffffffff\n        /* \"#utility.yul\":1095:1100   */\n      dup3\n        /* \"#utility.yul\":1091:1145   */\n      and\n        /* \"#utility.yul\":1080:1145   */\n      swap1\n      pop\n        /* \"#utility.yul\":1025:1151   */\n      swap2\n      swap1\n      pop\n      jump\t// out\n        /* \"#utility.yul\":1157:1253   */\n    tag_186:\n        /* \"#utility.yul\":1194:1201   */\n      0x00\n        /* \"#utility.yul\":1223:1247   */\n      tag_268\n        /* \"#utility.yul\":1241:1246   */\n      dup3\n        /* \"#utility.yul\":1223:1247   */\n      tag_185\n      jump\t// in\n    tag_268:\n        /* \"#utility.yul\":1212:1247   */\n      swap1\n      pop\n        /* \"#utility.yul\":1157:1253   */\n      swap2\n      swap1\n      pop\n      jump\t// out\n        /* \"#utility.yul\":1259:1377   */\n    tag_187:\n        /* \"#utility.yul\":1346:1370   */\n      tag_270\n        /* \"#utility.yul\":1364:1369   */\n      dup2\n        /* \"#utility.yul\":1346:1370   */\n      tag_186\n      jump\t// in\n    tag_270:\n        /* \"#utility.yul\":1341:1344   */\n      dup3\n        /* \"#utility.yul\":1334:1371   */\n      mstore\n        /* \"#utility.yul\":1259:1377   */\n      pop\n      pop\n      jump\t// out\n        /* \"#utility.yul\":1383:1482   */\n    tag_188:\n        /* \"#utility.yul\":1435:1441   */\n      0x00\n        /* \"#utility.yul\":1469:1474   */\n      dup2\n        /* \"#utility.yul\":1463:1475   */\n      mload\n        /* \"#utility.yul\":1453:1475   */\n      swap1\n      pop\n        /* \"#utility.yul\":1383:1482   */\n      swap2\n      swap1\n      pop\n      jump\t// out\n        /* \"#utility.yul\":1488:1657   */\n    tag_189:\n        /* \"#utility.yul\":1572:1583   */\n      0x00\n        /* \"#utility.yul\":1606:1612   */\n      dup3\n        /* \"#utility.yul\":1601:1604   */\n      dup3\n        /* \"#utility.yul\":1594:1613   */\n      mstore\n        /* \"#utility.yul\":1646:1650   */\n      0x20\n        /* \"#utility.yul\":1641:1644   */\n      dup3\n        /* \"#utility.yul\":1637:1651   */\n      add\n        /* \"#utility.yul\":1622:1651   */\n      swap1\n      pop\n        /* \"#utility.yul\":1488:1657   */\n      swap3\n      swap2\n      pop\n      pop\n      jump\t// out\n        /* \"#utility.yul\":1663:1909   */\n    tag_190:\n        /* \"#utility.yul\":1744:1745   */\n      0x00\n        /* \"#utility.yul\":1754:1867   */\n    tag_274:\n        /* \"#utility.yul\":1768:1774   */\n      dup4\n        /* \"#utility.yul\":1765:1766   */\n      dup2\n        /* \"#utility.yul\":1762:1775   */\n      lt\n        /* \"#utility.yul\":1754:1867   */\n      iszero\n      tag_276\n      jumpi\n        /* \"#utility.yul\":1853:1854   */\n      dup1\n        /* \"#utility.yul\":1848:1851   */\n      dup3\n        /* \"#utility.yul\":1844:1855   */\n      add\n        /* \"#utility.yul\":1838:1856   */\n      mload\n        /* \"#utility.yul\":1834:1835   */\n      dup2\n        /* \"#utility.yul\":1829:1832   */\n      dup5\n        /* \"#utility.yul\":1825:1836   */\n      add\n        /* \"#utility.yul\":1818:1857   */\n      mstore\n        /* \"#utility.yul\":1790:1792   */\n      0x20\n        /* \"#utility.yul\":1787:1788   */\n      dup2\n        /* \"#utility.yul\":1783:1793   */\n      add\n        /* \"#utility.yul\":1778:1793   */\n      swap1\n      pop\n        /* \"#utility.yul\":1754:1867   */\n      jump(tag_274)\n    tag_276:\n        /* \"#utility.yul\":1901:1902   */\n      0x00\n        /* \"#utility.yul\":1892:1898   */\n      dup5\n        /* \"#utility.yul\":1887:1890   */\n      dup5\n        /* \"#utility.yul\":1883:1899   */\n      add\n        /* \"#utility.yul\":1876:1903   */\n      mstore\n        /* \"#utility.yul\":1725:1909   */\n      pop\n        /* \"#utility.yul\":1663:1909   */\n      pop\n      pop\n      pop\n      jump\t// out\n        /* \"#utility.yul\":1915:2017   */\n    tag_191:\n        /* \"#utility.yul\":1956:1962   */\n      0x00\n        /* \"#utility.yul\":2007:2009   */\n      0x1f\n        /* \"#utility.yul\":2003:2010   */\n      not\n        /* \"#utility.yul\":1998:2000   */\n      0x1f\n        /* \"#utility.yul\":1991:1996   */\n      dup4\n        /* \"#utility.yul\":1987:2001   */\n      add\n        /* \"#utility.yul\":1983:2011   */\n      and\n        /* \"#utility.yul\":1973:2011   */\n      swap1\n      pop\n        /* \"#utility.yul\":1915:2017   */\n      swap2\n      swap1\n      pop\n      jump\t// out\n        /* \"#utility.yul\":2023:2400   */\n    tag_192:\n        /* \"#utility.yul\":2111:2114   */\n      0x00\n        /* \"#utility.yul\":2139:2178   */\n      tag_279\n        /* \"#utility.yul\":2172:2177   */\n      dup3\n        /* \"#utility.yul\":2139:2178   */\n      tag_188\n      jump\t// in\n    tag_279:\n        /* \"#utility.yul\":2194:2265   */\n      tag_280\n        /* \"#utility.yul\":2258:2264   */\n      dup2\n        /* \"#utility.yul\":2253:2256   */\n      dup6\n        /* \"#utility.yul\":2194:2265   */\n      tag_189\n      jump\t// in\n    tag_280:\n        /* \"#utility.yul\":2187:2265   */\n      swap4\n      pop\n        /* \"#utility.yul\":2274:2339   */\n      tag_281\n        /* \"#utility.yul\":2332:2338   */\n      dup2\n        /* \"#utility.yul\":2327:2330   */\n      dup6\n        /* \"#utility.yul\":2320:2324   */\n      0x20\n        /* \"#utility.yul\":2313:2318   */\n      dup7\n        /* \"#utility.yul\":2309:2325   */\n      add\n        /* \"#utility.yul\":2274:2339   */\n      tag_190\n      jump\t// in\n    tag_281:\n        /* \"#utility.yul\":2364:2393   */\n      tag_282\n        /* \"#utility.yul\":2386:2392   */\n      dup2\n        /* \"#utility.yul\":2364:2393   */\n      tag_191\n      jump\t// in\n    tag_282:\n        /* \"#utility.yul\":2359:2362   */\n      dup5\n        /* \"#utility.yul\":2355:2394   */\n      add\n        /* \"#utility.yul\":2348:2394   */\n      swap2\n      pop\n        /* \"#utility.yul\":2115:2400   */\n      pop\n        /* \"#utility.yul\":2023:2400   */\n      swap3\n      swap2\n      pop\n      pop\n      jump\t// out\n        /* \"#utility.yul\":2406:2496   */\n    tag_193:\n        /* \"#utility.yul\":2440:2447   */\n      0x00\n        /* \"#utility.yul\":2483:2488   */\n      dup2\n        /* \"#utility.yul\":2476:2489   */\n      iszero\n        /* \"#utility.yul\":2469:2490   */\n      iszero\n        /* \"#utility.yul\":2458:2490   */\n      swap1\n      pop\n        /* \"#utility.yul\":2406:2496   */\n      swap2\n      swap1\n      pop\n      jump\t// out\n        /* \"#utility.yul\":2502:2611   */\n    tag_194:\n        /* \"#utility.yul\":2583:2604   */\n      tag_285\n        /* \"#utility.yul\":2598:2603   */\n      dup2\n        /* \"#utility.yul\":2583:2604   */\n      tag_193\n      jump\t// in\n    tag_285:\n        /* \"#utility.yul\":2578:2581   */\n      dup3\n        /* \"#utility.yul\":2571:2605   */\n      mstore\n        /* \"#utility.yul\":2502:2611   */\n      pop\n      pop\n      jump\t// out\n        /* \"#utility.yul\":2617:2735   */\n    tag_195:\n        /* \"#utility.yul\":2704:2728   */\n      tag_287\n        /* \"#utility.yul\":2722:2727   */\n      dup2\n        /* \"#utility.yul\":2704:2728   */\n      tag_182\n      jump\t// in\n    tag_287:\n        /* \"#utility.yul\":2699:2702   */\n      dup3\n        /* \"#utility.yul\":2692:2729   */\n      mstore\n        /* \"#utility.yul\":2617:2735   */\n      pop\n      pop\n      jump\t// out\n        /* \"#utility.yul\":2741:3777   */\n    tag_21:\n        /* \"#utility.yul\":3028:3032   */\n      0x00\n        /* \"#utility.yul\":3066:3069   */\n      0xc0\n        /* \"#utility.yul\":3055:3064   */\n      dup3\n        /* \"#utility.yul\":3051:3070   */\n      add\n        /* \"#utility.yul\":3043:3070   */\n      swap1\n      pop\n        /* \"#utility.yul\":3080:3151   */\n      tag_289\n        /* \"#utility.yul\":3148:3149   */\n      0x00\n        /* \"#utility.yul\":3137:3146   */\n      dup4\n        /* \"#utility.yul\":3133:3150   */\n      add\n        /* \"#utility.yul\":3124:3130   */\n      dup10\n        /* \"#utility.yul\":3080:3151   */\n      tag_187\n      jump\t// in\n    tag_289:\n        /* \"#utility.yul\":3198:3207   */\n      dup2\n        /* \"#utility.yul\":3192:3196   */\n      dup2\n        /* \"#utility.yul\":3188:3208   */\n      sub\n        /* \"#utility.yul\":3183:3185   */\n      0x20\n        /* \"#utility.yul\":3172:3181   */\n      dup4\n        /* \"#utility.yul\":3168:3186   */\n      add\n        /* \"#utility.yul\":3161:3209   */\n      mstore\n        /* \"#utility.yul\":3226:3304   */\n      tag_290\n        /* \"#utility.yul\":3299:3303   */\n      dup2\n        /* \"#utility.yul\":3290:3296   */\n      dup9\n        /* \"#utility.yul\":3226:3304   */\n      tag_192\n      jump\t// in\n    tag_290:\n        /* \"#utility.yul\":3218:3304   */\n      swap1\n      pop\n        /* \"#utility.yul\":3351:3360   */\n      dup2\n        /* \"#utility.yul\":3345:3349   */\n      dup2\n        /* \"#utility.yul\":3341:3361   */\n      sub\n        /* \"#utility.yul\":3336:3338   */\n      0x40\n        /* \"#utility.yul\":3325:3334   */\n      dup4\n        /* \"#utility.yul\":3321:3339   */\n      add\n        /* \"#utility.yul\":3314:3362   */\n      mstore\n        /* \"#utility.yul\":3379:3457   */\n      tag_291\n        /* \"#utility.yul\":3452:3456   */\n      dup2\n        /* \"#utility.yul\":3443:3449   */\n      dup8\n        /* \"#utility.yul\":3379:3457   */\n      tag_192\n      jump\t// in\n    tag_291:\n        /* \"#utility.yul\":3371:3457   */\n      swap1\n      pop\n        /* \"#utility.yul\":3504:3513   */\n      dup2\n        /* \"#utility.yul\":3498:3502   */\n      dup2\n        /* \"#utility.yul\":3494:3514   */\n      sub\n        /* \"#utility.yul\":3489:3491   */\n      0x60\n        /* \"#utility.yul\":3478:3487   */\n      dup4\n        /* \"#utility.yul\":3474:3492   */\n      add\n        /* \"#utility.yul\":3467:3515   */\n      mstore\n        /* \"#utility.yul\":3532:3610   */\n      tag_292\n        /* \"#utility.yul\":3605:3609   */\n      dup2\n        /* \"#utility.yul\":3596:3602   */\n      dup7\n        /* \"#utility.yul\":3532:3610   */\n      tag_192\n      jump\t// in\n    tag_292:\n        /* \"#utility.yul\":3524:3610   */\n      swap1\n      pop\n        /* \"#utility.yul\":3620:3687   */\n      tag_293\n        /* \"#utility.yul\":3682:3685   */\n      0x80\n        /* \"#utility.yul\":3671:3680   */\n      dup4\n        /* \"#utility.yul\":3667:3686   */\n      add\n        /* \"#utility.yul\":3658:3664   */\n      dup6\n        /* \"#utility.yul\":3620:3687   */\n      tag_194\n      jump\t// in\n    tag_293:\n        /* \"#utility.yul\":3697:3770   */\n      tag_294\n        /* \"#utility.yul\":3765:3768   */\n      0xa0\n        /* \"#utility.yul\":3754:3763   */\n      dup4\n        /* \"#utility.yul\":3750:3769   */\n      add\n        /* \"#utility.yul\":3741:3747   */\n      dup5\n        /* \"#utility.yul\":3697:3770   */\n      tag_195\n      jump\t// in\n    tag_294:\n        /* \"#utility.yul\":2741:3777   */\n      swap8\n      swap7\n      pop\n      pop\n      pop\n      pop\n      pop\n      pop\n      pop\n      jump\t// out\n        /* \"#utility.yul\":3783:4005   */\n    tag_25:\n        /* \"#utility.yul\":3876:3880   */\n      0x00\n        /* \"#utility.yul\":3914:3916   */\n      0x20\n        /* \"#utility.yul\":3903:3912   */\n      dup3\n        /* \"#utility.yul\":3899:3917   */\n      add\n        /* \"#utility.yul\":3891:3917   */\n      swap1\n      pop\n        /* \"#utility.yul\":3927:3998   */\n      tag_296\n        /* \"#utility.yul\":3995:3996   */\n      0x00\n        /* \"#utility.yul\":3984:3993   */\n      dup4\n        /* \"#utility.yul\":3980:3997   */\n      add\n        /* \"#utility.yul\":3971:3977   */\n      dup5\n        /* \"#utility.yul\":3927:3998   */\n      tag_195\n      jump\t// in\n    tag_296:\n        /* \"#utility.yul\":3783:4005   */\n      swap3\n      swap2\n      pop\n      pop\n      jump\t// out\n        /* \"#utility.yul\":4011:4133   */\n    tag_196:\n        /* \"#utility.yul\":4084:4108   */\n      tag_298\n        /* \"#utility.yul\":4102:4107   */\n      dup2\n        /* \"#utility.yul\":4084:4108   */\n      tag_186\n      jump\t// in\n    tag_298:\n        /* \"#utility.yul\":4077:4082   */\n      dup2\n        /* \"#utility.yul\":4074:4109   */\n      eq\n        /* \"#utility.yul\":4064:4127   */\n      tag_299\n      jumpi\n        /* \"#utility.yul\":4123:4124   */\n      0x00\n        /* \"#utility.yul\":4120:4121   */\n      dup1\n        /* \"#utility.yul\":4113:4125   */\n      revert\n        /* \"#utility.yul\":4064:4127   */\n    tag_299:\n        /* \"#utility.yul\":4011:4133   */\n      pop\n      jump\t// out\n        /* \"#utility.yul\":4139:4278   */\n    tag_197:\n        /* \"#utility.yul\":4185:4190   */\n      0x00\n        /* \"#utility.yul\":4223:4229   */\n      dup2\n        /* \"#utility.yul\":4210:4230   */\n      calldataload\n        /* \"#utility.yul\":4201:4230   */\n      swap1\n      pop\n        /* \"#utility.yul\":4239:4272   */\n      tag_301\n        /* \"#utility.yul\":4266:4271   */\n      dup2\n        /* \"#utility.yul\":4239:4272   */\n      tag_196\n      jump\t// in\n    tag_301:\n        /* \"#utility.yul\":4139:4278   */\n      swap3\n      swap2\n      pop\n      pop\n      jump\t// out\n        /* \"#utility.yul\":4284:4613   */\n    tag_28:\n        /* \"#utility.yul\":4343:4349   */\n      0x00\n        /* \"#utility.yul\":4392:4394   */\n      0x20\n        /* \"#utility.yul\":4380:4389   */\n      dup3\n        /* \"#utility.yul\":4371:4378   */\n      dup5\n        /* \"#utility.yul\":4367:4390   */\n      sub\n        /* \"#utility.yul\":4363:4395   */\n      slt\n        /* \"#utility.yul\":4360:4479   */\n      iszero\n      tag_303\n      jumpi\n        /* \"#utility.yul\":4398:4477   */\n      tag_304\n      tag_180\n      jump\t// in\n    tag_304:\n        /* \"#utility.yul\":4360:4479   */\n    tag_303:\n        /* \"#utility.yul\":4518:4519   */\n      0x00\n        /* \"#utility.yul\":4543:4596   */\n      tag_305\n        /* \"#utility.yul\":4588:4595   */\n      dup5\n        /* \"#utility.yul\":4579:4585   */\n      dup3\n        /* \"#utility.yul\":4568:4577   */\n      dup6\n        /* \"#utility.yul\":4564:4586   */\n      add\n        /* \"#utility.yul\":4543:4596   */\n      tag_197\n      jump\t// in\n    tag_305:\n        /* \"#utility.yul\":4533:4596   */\n      swap2\n      pop\n        /* \"#utility.yul\":4489:4606   */\n      pop\n        /* \"#utility.yul\":4284:4613   */\n      swap3\n      swap2\n      pop\n      pop\n      jump\t// out\n        /* \"#utility.yul\":4619:4841   */\n    tag_34:\n        /* \"#utility.yul\":4712:4716   */\n      0x00\n        /* \"#utility.yul\":4750:4752   */\n      0x20\n        /* \"#utility.yul\":4739:4748   */\n      dup3\n        /* \"#utility.yul\":4735:4753   */\n      add\n        /* \"#utility.yul\":4727:4753   */\n      swap1\n      pop\n        /* \"#utility.yul\":4763:4834   */\n      tag_307\n        /* \"#utility.yul\":4831:4832   */\n      0x00\n        /* \"#utility.yul\":4820:4829   */\n      dup4\n        /* \"#utility.yul\":4816:4833   */\n      add\n        /* \"#utility.yul\":4807:4813   */\n      dup5\n        /* \"#utility.yul\":4763:4834   */\n      tag_187\n      jump\t// in\n    tag_307:\n        /* \"#utility.yul\":4619:4841   */\n      swap3\n      swap2\n      pop\n      pop\n      jump\t// out\n        /* \"#utility.yul\":4847:5057   */\n    tag_43:\n        /* \"#utility.yul\":4934:4938   */\n      0x00\n        /* \"#utility.yul\":4972:4974   */\n      0x20\n        /* \"#utility.yul\":4961:4970   */\n      dup3\n        /* \"#utility.yul\":4957:4975   */\n      add\n        /* \"#utility.yul\":4949:4975   */\n      swap1\n      pop\n        /* \"#utility.yul\":4985:5050   */\n      tag_309\n        /* \"#utility.yul\":5047:5048   */\n      0x00\n        /* \"#utility.yul\":5036:5045   */\n      dup4\n        /* \"#utility.yul\":5032:5049   */\n      add\n        /* \"#utility.yul\":5023:5029   */\n      dup5\n        /* \"#utility.yul\":4985:5050   */\n      tag_194\n      jump\t// in\n    tag_309:\n        /* \"#utility.yul\":4847:5057   */\n      swap3\n      swap2\n      pop\n      pop\n      jump\t// out\n        /* \"#utility.yul\":5063:5177   */\n    tag_198:\n        /* \"#utility.yul\":5130:5136   */\n      0x00\n        /* \"#utility.yul\":5164:5169   */\n      dup2\n        /* \"#utility.yul\":5158:5170   */\n      mload\n        /* \"#utility.yul\":5148:5170   */\n      swap1\n      pop\n        /* \"#utility.yul\":5063:5177   */\n      swap2\n      swap1\n      pop\n      jump\t// out\n        /* \"#utility.yul\":5183:5367   */\n    tag_199:\n        /* \"#utility.yul\":5282:5293   */\n      0x00\n        /* \"#utility.yul\":5316:5322   */\n      dup3\n        /* \"#utility.yul\":5311:5314   */\n      dup3\n        /* \"#utility.yul\":5304:5323   */\n      mstore\n        /* \"#utility.yul\":5356:5360   */\n      0x20\n        /* \"#utility.yul\":5351:5354   */\n      dup3\n        /* \"#utility.yul\":5347:5361   */\n      add\n        /* \"#utility.yul\":5332:5361   */\n      swap1\n      pop\n        /* \"#utility.yul\":5183:5367   */\n      swap3\n      swap2\n      pop\n      pop\n      jump\t// out\n        /* \"#utility.yul\":5373:5505   */\n    tag_200:\n        /* \"#utility.yul\":5440:5444   */\n      0x00\n        /* \"#utility.yul\":5463:5466   */\n      dup2\n        /* \"#utility.yul\":5455:5466   */\n      swap1\n      pop\n        /* \"#utility.yul\":5493:5497   */\n      0x20\n        /* \"#utility.yul\":5488:5491   */\n      dup3\n        /* \"#utility.yul\":5484:5498   */\n      add\n        /* \"#utility.yul\":5476:5498   */\n      swap1\n      pop\n        /* \"#utility.yul\":5373:5505   */\n      swap2\n      swap1\n      pop\n      jump\t// out\n        /* \"#utility.yul\":5511:5619   */\n    tag_201:\n        /* \"#utility.yul\":5588:5612   */\n      tag_314\n        /* \"#utility.yul\":5606:5611   */\n      dup2\n        /* \"#utility.yul\":5588:5612   */\n      tag_182\n      jump\t// in\n    tag_314:\n        /* \"#utility.yul\":5583:5586   */\n      dup3\n        /* \"#utility.yul\":5576:5613   */\n      mstore\n        /* \"#utility.yul\":5511:5619   */\n      pop\n      pop\n      jump\t// out\n        /* \"#utility.yul\":5625:5804   */\n    tag_202:\n        /* \"#utility.yul\":5694:5704   */\n      0x00\n        /* \"#utility.yul\":5715:5761   */\n      tag_316\n        /* \"#utility.yul\":5757:5760   */\n      dup4\n        /* \"#utility.yul\":5749:5755   */\n      dup4\n        /* \"#utility.yul\":5715:5761   */\n      tag_201\n      jump\t// in\n    tag_316:\n        /* \"#utility.yul\":5793:5797   */\n      0x20\n        /* \"#utility.yul\":5788:5791   */\n      dup4\n        /* \"#utility.yul\":5784:5798   */\n      add\n        /* \"#utility.yul\":5770:5798   */\n      swap1\n      pop\n        /* \"#utility.yul\":5625:5804   */\n      swap3\n      swap2\n      pop\n      pop\n      jump\t// out\n        /* \"#utility.yul\":5810:5923   */\n    tag_203:\n        /* \"#utility.yul\":5880:5884   */\n      0x00\n        /* \"#utility.yul\":5912:5916   */\n      0x20\n        /* \"#utility.yul\":5907:5910   */\n      dup3\n        /* \"#utility.yul\":5903:5917   */\n      add\n        /* \"#utility.yul\":5895:5917   */\n      swap1\n      pop\n        /* \"#utility.yul\":5810:5923   */\n      swap2\n      swap1\n      pop\n      jump\t// out\n        /* \"#utility.yul\":5959:6691   */\n    tag_204:\n        /* \"#utility.yul\":6078:6081   */\n      0x00\n        /* \"#utility.yul\":6107:6161   */\n      tag_319\n        /* \"#utility.yul\":6155:6160   */\n      dup3\n        /* \"#utility.yul\":6107:6161   */\n      tag_198\n      jump\t// in\n    tag_319:\n        /* \"#utility.yul\":6177:6263   */\n      tag_320\n        /* \"#utility.yul\":6256:6262   */\n      dup2\n        /* \"#utility.yul\":6251:6254   */\n      dup6\n        /* \"#utility.yul\":6177:6263   */\n      tag_199\n      jump\t// in\n    tag_320:\n        /* \"#utility.yul\":6170:6263   */\n      swap4\n      pop\n        /* \"#utility.yul\":6287:6343   */\n      tag_321\n        /* \"#utility.yul\":6337:6342   */\n      dup4\n        /* \"#utility.yul\":6287:6343   */\n      tag_200\n      jump\t// in\n    tag_321:\n        /* \"#utility.yul\":6366:6373   */\n      dup1\n        /* \"#utility.yul\":6397:6398   */\n      0x00\n        /* \"#utility.yul\":6382:6666   */\n    tag_322:\n        /* \"#utility.yul\":6407:6413   */\n      dup4\n        /* \"#utility.yul\":6404:6405   */\n      dup2\n        /* \"#utility.yul\":6401:6414   */\n      lt\n        /* \"#utility.yul\":6382:6666   */\n      iszero\n      tag_324\n      jumpi\n        /* \"#utility.yul\":6483:6489   */\n      dup2\n        /* \"#utility.yul\":6477:6490   */\n      mload\n        /* \"#utility.yul\":6510:6573   */\n      tag_325\n        /* \"#utility.yul\":6569:6572   */\n      dup9\n        /* \"#utility.yul\":6554:6567   */\n      dup3\n        /* \"#utility.yul\":6510:6573   */\n      tag_202\n      jump\t// in\n    tag_325:\n        /* \"#utility.yul\":6503:6573   */\n      swap8\n      pop\n        /* \"#utility.yul\":6596:6656   */\n      tag_326\n        /* \"#utility.yul\":6649:6655   */\n      dup4\n        /* \"#utility.yul\":6596:6656   */\n      tag_203\n      jump\t// in\n    tag_326:\n        /* \"#utility.yul\":6586:6656   */\n      swap3\n      pop\n        /* \"#utility.yul\":6442:6666   */\n      pop\n        /* \"#utility.yul\":6429:6430   */\n      0x01\n        /* \"#utility.yul\":6426:6427   */\n      dup2\n        /* \"#utility.yul\":6422:6431   */\n      add\n        /* \"#utility.yul\":6417:6431   */\n      swap1\n      pop\n        /* \"#utility.yul\":6382:6666   */\n      jump(tag_322)\n    tag_324:\n        /* \"#utility.yul\":6386:6400   */\n      pop\n        /* \"#utility.yul\":6682:6685   */\n      dup6\n        /* \"#utility.yul\":6675:6685   */\n      swap4\n      pop\n        /* \"#utility.yul\":6083:6691   */\n      pop\n      pop\n      pop\n        /* \"#utility.yul\":5959:6691   */\n      swap3\n      swap2\n      pop\n      pop\n      jump\t// out\n        /* \"#utility.yul\":6697:7070   */\n    tag_48:\n        /* \"#utility.yul\":6840:6844   */\n      0x00\n        /* \"#utility.yul\":6878:6880   */\n      0x20\n        /* \"#utility.yul\":6867:6876   */\n      dup3\n        /* \"#utility.yul\":6863:6881   */\n      add\n        /* \"#utility.yul\":6855:6881   */\n      swap1\n      pop\n        /* \"#utility.yul\":6927:6936   */\n      dup2\n        /* \"#utility.yul\":6921:6925   */\n      dup2\n        /* \"#utility.yul\":6917:6937   */\n      sub\n        /* \"#utility.yul\":6913:6914   */\n      0x00\n        /* \"#utility.yul\":6902:6911   */\n      dup4\n        /* \"#utility.yul\":6898:6915   */\n      add\n        /* \"#utility.yul\":6891:6938   */\n      mstore\n        /* \"#utility.yul\":6955:7063   */\n      tag_328\n        /* \"#utility.yul\":7058:7062   */\n      dup2\n        /* \"#utility.yul\":7049:7055   */\n      dup5\n        /* \"#utility.yul\":6955:7063   */\n      tag_204\n      jump\t// in\n    tag_328:\n        /* \"#utility.yul\":6947:7063   */\n      swap1\n      pop\n        /* \"#utility.yul\":6697:7070   */\n      swap3\n      swap2\n      pop\n      pop\n      jump\t// out\n        /* \"#utility.yul\":7076:7193   */\n    tag_205:\n        /* \"#utility.yul\":7185:7186   */\n      0x00\n        /* \"#utility.yul\":7182:7183   */\n      dup1\n        /* \"#utility.yul\":7175:7187   */\n      revert\n        /* \"#utility.yul\":7199:7316   */\n    tag_206:\n        /* \"#utility.yul\":7308:7309   */\n      0x00\n        /* \"#utility.yul\":7305:7306   */\n      dup1\n        /* \"#utility.yul\":7298:7310   */\n      revert\n        /* \"#utility.yul\":7322:7502   */\n    tag_207:\n        /* \"#utility.yul\":7370:7447   */\n      0x4e487b7100000000000000000000000000000000000000000000000000000000\n        /* \"#utility.yul\":7367:7368   */\n      0x00\n        /* \"#utility.yul\":7360:7448   */\n      mstore\n        /* \"#utility.yul\":7467:7471   */\n      0x41\n        /* \"#utility.yul\":7464:7465   */\n      0x04\n        /* \"#utility.yul\":7457:7472   */\n      mstore\n        /* \"#utility.yul\":7491:7495   */\n      0x24\n        /* \"#utility.yul\":7488:7489   */\n      0x00\n        /* \"#utility.yul\":7481:7496   */\n      revert\n        /* \"#utility.yul\":7508:7789   */\n    tag_208:\n        /* \"#utility.yul\":7591:7618   */\n      tag_333\n        /* \"#utility.yul\":7613:7617   */\n      dup3\n        /* \"#utility.yul\":7591:7618   */\n      tag_191\n      jump\t// in\n    tag_333:\n        /* \"#utility.yul\":7583:7589   */\n      dup2\n        /* \"#utility.yul\":7579:7619   */\n      add\n        /* \"#utility.yul\":7721:7727   */\n      dup2\n        /* \"#utility.yul\":7709:7719   */\n      dup2\n        /* \"#utility.yul\":7706:7728   */\n      lt\n        /* \"#utility.yul\":7685:7703   */\n      0xffffffffffffffff\n        /* \"#utility.yul\":7673:7683   */\n      dup3\n        /* \"#utility.yul\":7670:7704   */\n      gt\n        /* \"#utility.yul\":7667:7729   */\n      or\n        /* \"#utility.yul\":7664:7752   */\n      iszero\n      tag_334\n      jumpi\n        /* \"#utility.yul\":7732:7750   */\n      tag_335\n      tag_207\n      jump\t// in\n    tag_335:\n        /* \"#utility.yul\":7664:7752   */\n    tag_334:\n        /* \"#utility.yul\":7772:7782   */\n      dup1\n        /* \"#utility.yul\":7768:7770   */\n      0x40\n        /* \"#utility.yul\":7761:7783   */\n      mstore\n        /* \"#utility.yul\":7551:7789   */\n      pop\n        /* \"#utility.yul\":7508:7789   */\n      pop\n      pop\n      jump\t// out\n        /* \"#utility.yul\":7795:7924   */\n    tag_209:\n        /* \"#utility.yul\":7829:7835   */\n      0x00\n        /* \"#utility.yul\":7856:7876   */\n      tag_337\n      tag_179\n      jump\t// in\n    tag_337:\n        /* \"#utility.yul\":7846:7876   */\n      swap1\n      pop\n        /* \"#utility.yul\":7885:7918   */\n      tag_338\n        /* \"#utility.yul\":7913:7917   */\n      dup3\n        /* \"#utility.yul\":7905:7911   */\n      dup3\n        /* \"#utility.yul\":7885:7918   */\n      tag_208\n      jump\t// in\n    tag_338:\n        /* \"#utility.yul\":7795:7924   */\n      swap2\n      swap1\n      pop\n      jump\t// out\n        /* \"#utility.yul\":7930:8238   */\n    tag_210:\n        /* \"#utility.yul\":7992:7996   */\n      0x00\n        /* \"#utility.yul\":8082:8100   */\n      0xffffffffffffffff\n        /* \"#utility.yul\":8074:8080   */\n      dup3\n        /* \"#utility.yul\":8071:8101   */\n      gt\n        /* \"#utility.yul\":8068:8124   */\n      iszero\n      tag_340\n      jumpi\n        /* \"#utility.yul\":8104:8122   */\n      tag_341\n      tag_207\n      jump\t// in\n    tag_341:\n        /* \"#utility.yul\":8068:8124   */\n    tag_340:\n        /* \"#utility.yul\":8142:8171   */\n      tag_342\n        /* \"#utility.yul\":8164:8170   */\n      dup3\n        /* \"#utility.yul\":8142:8171   */\n      tag_191\n      jump\t// in\n    tag_342:\n        /* \"#utility.yul\":8134:8171   */\n      swap1\n      pop\n        /* \"#utility.yul\":8226:8230   */\n      0x20\n        /* \"#utility.yul\":8220:8224   */\n      dup2\n        /* \"#utility.yul\":8216:8231   */\n      add\n        /* \"#utility.yul\":8208:8231   */\n      swap1\n      pop\n        /* \"#utility.yul\":7930:8238   */\n      swap2\n      swap1\n      pop\n      jump\t// out\n        /* \"#utility.yul\":8244:8390   */\n    tag_211:\n        /* \"#utility.yul\":8341:8347   */\n      dup3\n        /* \"#utility.yul\":8336:8339   */\n      dup2\n        /* \"#utility.yul\":8331:8334   */\n      dup4\n        /* \"#utility.yul\":8318:8348   */\n      calldatacopy\n        /* \"#utility.yul\":8382:8383   */\n      0x00\n        /* \"#utility.yul\":8373:8379   */\n      dup4\n        /* \"#utility.yul\":8368:8371   */\n      dup4\n        /* \"#utility.yul\":8364:8380   */\n      add\n        /* \"#utility.yul\":8357:8384   */\n      mstore\n        /* \"#utility.yul\":8244:8390   */\n      pop\n      pop\n      pop\n      jump\t// out\n        /* \"#utility.yul\":8396:8821   */\n    tag_212:\n        /* \"#utility.yul\":8474:8479   */\n      0x00\n        /* \"#utility.yul\":8499:8565   */\n      tag_345\n        /* \"#utility.yul\":8515:8564   */\n      tag_346\n        /* \"#utility.yul\":8557:8563   */\n      dup5\n        /* \"#utility.yul\":8515:8564   */\n      tag_210\n      jump\t// in\n    tag_346:\n        /* \"#utility.yul\":8499:8565   */\n      tag_209\n      jump\t// in\n    tag_345:\n        /* \"#utility.yul\":8490:8565   */\n      swap1\n      pop\n        /* \"#utility.yul\":8588:8594   */\n      dup3\n        /* \"#utility.yul\":8581:8586   */\n      dup2\n        /* \"#utility.yul\":8574:8595   */\n      mstore\n        /* \"#utility.yul\":8626:8630   */\n      0x20\n        /* \"#utility.yul\":8619:8624   */\n      dup2\n        /* \"#utility.yul\":8615:8631   */\n      add\n        /* \"#utility.yul\":8664:8667   */\n      dup5\n        /* \"#utility.yul\":8655:8661   */\n      dup5\n        /* \"#utility.yul\":8650:8653   */\n      dup5\n        /* \"#utility.yul\":8646:8662   */\n      add\n        /* \"#utility.yul\":8643:8668   */\n      gt\n        /* \"#utility.yul\":8640:8752   */\n      iszero\n      tag_347\n      jumpi\n        /* \"#utility.yul\":8671:8750   */\n      tag_348\n      tag_206\n      jump\t// in\n    tag_348:\n        /* \"#utility.yul\":8640:8752   */\n    tag_347:\n        /* \"#utility.yul\":8761:8815   */\n      tag_349\n        /* \"#utility.yul\":8808:8814   */\n      dup5\n        /* \"#utility.yul\":8803:8806   */\n      dup3\n        /* \"#utility.yul\":8798:8801   */\n      dup6\n        /* \"#utility.yul\":8761:8815   */\n      tag_211\n      jump\t// in\n    tag_349:\n        /* \"#utility.yul\":8480:8821   */\n      pop\n        /* \"#utility.yul\":8396:8821   */\n      swap4\n      swap3\n      pop\n      pop\n      pop\n      jump\t// out\n        /* \"#utility.yul\":8841:9181   */\n    tag_213:\n        /* \"#utility.yul\":8897:8902   */\n      0x00\n        /* \"#utility.yul\":8946:8949   */\n      dup3\n        /* \"#utility.yul\":8939:8943   */\n      0x1f\n        /* \"#utility.yul\":8931:8937   */\n      dup4\n        /* \"#utility.yul\":8927:8944   */\n      add\n        /* \"#utility.yul\":8923:8950   */\n      slt\n        /* \"#utility.yul\":8913:9035   */\n      tag_351\n      jumpi\n        /* \"#utility.yul\":8954:9033   */\n      tag_352\n      tag_205\n      jump\t// in\n    tag_352:\n        /* \"#utility.yul\":8913:9035   */\n    tag_351:\n        /* \"#utility.yul\":9071:9077   */\n      dup2\n        /* \"#utility.yul\":9058:9078   */\n      calldataload\n        /* \"#utility.yul\":9096:9175   */\n      tag_353\n        /* \"#utility.yul\":9171:9174   */\n      dup5\n        /* \"#utility.yul\":9163:9169   */\n      dup3\n        /* \"#utility.yul\":9156:9160   */\n      0x20\n        /* \"#utility.yul\":9148:9154   */\n      dup7\n        /* \"#utility.yul\":9144:9161   */\n      add\n        /* \"#utility.yul\":9096:9175   */\n      tag_212\n      jump\t// in\n    tag_353:\n        /* \"#utility.yul\":9087:9175   */\n      swap2\n      pop\n        /* \"#utility.yul\":8903:9181   */\n      pop\n        /* \"#utility.yul\":8841:9181   */\n      swap3\n      swap2\n      pop\n      pop\n      jump\t// out\n        /* \"#utility.yul\":9187:10346   */\n    tag_54:\n        /* \"#utility.yul\":9294:9300   */\n      0x00\n        /* \"#utility.yul\":9302:9308   */\n      dup1\n        /* \"#utility.yul\":9310:9316   */\n      0x00\n        /* \"#utility.yul\":9359:9361   */\n      0x60\n        /* \"#utility.yul\":9347:9356   */\n      dup5\n        /* \"#utility.yul\":9338:9345   */\n      dup7\n        /* \"#utility.yul\":9334:9357   */\n      sub\n        /* \"#utility.yul\":9330:9362   */\n      slt\n        /* \"#utility.yul\":9327:9446   */\n      iszero\n      tag_355\n      jumpi\n        /* \"#utility.yul\":9365:9444   */\n      tag_356\n      tag_180\n      jump\t// in\n    tag_356:\n        /* \"#utility.yul\":9327:9446   */\n    tag_355:\n        /* \"#utility.yul\":9513:9514   */\n      0x00\n        /* \"#utility.yul\":9502:9511   */\n      dup5\n        /* \"#utility.yul\":9498:9515   */\n      add\n        /* \"#utility.yul\":9485:9516   */\n      calldataload\n        /* \"#utility.yul\":9543:9561   */\n      0xffffffffffffffff\n        /* \"#utility.yul\":9535:9541   */\n      dup2\n        /* \"#utility.yul\":9532:9562   */\n      gt\n        /* \"#utility.yul\":9529:9646   */\n      iszero\n      tag_357\n      jumpi\n        /* \"#utility.yul\":9565:9644   */\n      tag_358\n      tag_181\n      jump\t// in\n    tag_358:\n        /* \"#utility.yul\":9529:9646   */\n    tag_357:\n        /* \"#utility.yul\":9670:9733   */\n      tag_359\n        /* \"#utility.yul\":9725:9732   */\n      dup7\n        /* \"#utility.yul\":9716:9722   */\n      dup3\n        /* \"#utility.yul\":9705:9714   */\n      dup8\n        /* \"#utility.yul\":9701:9723   */\n      add\n        /* \"#utility.yul\":9670:9733   */\n      tag_213\n      jump\t// in\n    tag_359:\n        /* \"#utility.yul\":9660:9733   */\n      swap4\n      pop\n        /* \"#utility.yul\":9456:9743   */\n      pop\n        /* \"#utility.yul\":9810:9812   */\n      0x20\n        /* \"#utility.yul\":9799:9808   */\n      dup5\n        /* \"#utility.yul\":9795:9813   */\n      add\n        /* \"#utility.yul\":9782:9814   */\n      calldataload\n        /* \"#utility.yul\":9841:9859   */\n      0xffffffffffffffff\n        /* \"#utility.yul\":9833:9839   */\n      dup2\n        /* \"#utility.yul\":9830:9860   */\n      gt\n        /* \"#utility.yul\":9827:9944   */\n      iszero\n      tag_360\n      jumpi\n        /* \"#utility.yul\":9863:9942   */\n      tag_361\n      tag_181\n      jump\t// in\n    tag_361:\n        /* \"#utility.yul\":9827:9944   */\n    tag_360:\n        /* \"#utility.yul\":9968:10031   */\n      tag_362\n        /* \"#utility.yul\":10023:10030   */\n      dup7\n        /* \"#utility.yul\":10014:10020   */\n      dup3\n        /* \"#utility.yul\":10003:10012   */\n      dup8\n        /* \"#utility.yul\":9999:10021   */\n      add\n        /* \"#utility.yul\":9968:10031   */\n      tag_213\n      jump\t// in\n    tag_362:\n        /* \"#utility.yul\":9958:10031   */\n      swap3\n      pop\n        /* \"#utility.yul\":9753:10041   */\n      pop\n        /* \"#utility.yul\":10108:10110   */\n      0x40\n        /* \"#utility.yul\":10097:10106   */\n      dup5\n        /* \"#utility.yul\":10093:10111   */\n      add\n        /* \"#utility.yul\":10080:10112   */\n      calldataload\n        /* \"#utility.yul\":10139:10157   */\n      0xffffffffffffffff\n        /* \"#utility.yul\":10131:10137   */\n      dup2\n        /* \"#utility.yul\":10128:10158   */\n      gt\n        /* \"#utility.yul\":10125:10242   */\n      iszero\n      tag_363\n      jumpi\n        /* \"#utility.yul\":10161:10240   */\n      tag_364\n      tag_181\n      jump\t// in\n    tag_364:\n        /* \"#utility.yul\":10125:10242   */\n    tag_363:\n        /* \"#utility.yul\":10266:10329   */\n      tag_365\n        /* \"#utility.yul\":10321:10328   */\n      dup7\n        /* \"#utility.yul\":10312:10318   */\n      dup3\n        /* \"#utility.yul\":10301:10310   */\n      dup8\n        /* \"#utility.yul\":10297:10319   */\n      add\n        /* \"#utility.yul\":10266:10329   */\n      tag_213\n      jump\t// in\n    tag_365:\n        /* \"#utility.yul\":10256:10329   */\n      swap2\n      pop\n        /* \"#utility.yul\":10051:10339   */\n      pop\n        /* \"#utility.yul\":9187:10346   */\n      swap3\n      pop\n      swap3\n      pop\n      swap3\n      jump\t// out\n        /* \"#utility.yul\":10352:10826   */\n    tag_59:\n        /* \"#utility.yul\":10420:10426   */\n      0x00\n        /* \"#utility.yul\":10428:10434   */\n      dup1\n        /* \"#utility.yul\":10477:10479   */\n      0x40\n        /* \"#utility.yul\":10465:10474   */\n      dup4\n        /* \"#utility.yul\":10456:10463   */\n      dup6\n        /* \"#utility.yul\":10452:10475   */\n      sub\n        /* \"#utility.yul\":10448:10480   */\n      slt\n        /* \"#utility.yul\":10445:10564   */\n      iszero\n      tag_367\n      jumpi\n        /* \"#utility.yul\":10483:10562   */\n      tag_368\n      tag_180\n      jump\t// in\n    tag_368:\n        /* \"#utility.yul\":10445:10564   */\n    tag_367:\n        /* \"#utility.yul\":10603:10604   */\n      0x00\n        /* \"#utility.yul\":10628:10681   */\n      tag_369\n        /* \"#utility.yul\":10673:10680   */\n      dup6\n        /* \"#utility.yul\":10664:10670   */\n      dup3\n        /* \"#utility.yul\":10653:10662   */\n      dup7\n        /* \"#utility.yul\":10649:10671   */\n      add\n        /* \"#utility.yul\":10628:10681   */\n      tag_197\n      jump\t// in\n    tag_369:\n        /* \"#utility.yul\":10618:10681   */\n      swap3\n      pop\n        /* \"#utility.yul\":10574:10691   */\n      pop\n        /* \"#utility.yul\":10730:10732   */\n      0x20\n        /* \"#utility.yul\":10756:10809   */\n      tag_370\n        /* \"#utility.yul\":10801:10808   */\n      dup6\n        /* \"#utility.yul\":10792:10798   */\n      dup3\n        /* \"#utility.yul\":10781:10790   */\n      dup7\n        /* \"#utility.yul\":10777:10799   */\n      add\n        /* \"#utility.yul\":10756:10809   */\n      tag_184\n      jump\t// in\n    tag_370:\n        /* \"#utility.yul\":10746:10809   */\n      swap2\n      pop\n        /* \"#utility.yul\":10701:10819   */\n      pop\n        /* \"#utility.yul\":10352:10826   */\n      swap3\n      pop\n      swap3\n      swap1\n      pop\n      jump\t// out\n        /* \"#utility.yul\":10832:10940   */\n    tag_214:\n        /* \"#utility.yul\":10909:10933   */\n      tag_372\n        /* \"#utility.yul\":10927:10932   */\n      dup2\n        /* \"#utility.yul\":10909:10933   */\n      tag_186\n      jump\t// in\n    tag_372:\n        /* \"#utility.yul\":10904:10907   */\n      dup3\n        /* \"#utility.yul\":10897:10934   */\n      mstore\n        /* \"#utility.yul\":10832:10940   */\n      pop\n      pop\n      jump\t// out\n        /* \"#utility.yul\":10946:11105   */\n    tag_215:\n        /* \"#utility.yul\":11020:11031   */\n      0x00\n        /* \"#utility.yul\":11054:11060   */\n      dup3\n        /* \"#utility.yul\":11049:11052   */\n      dup3\n        /* \"#utility.yul\":11042:11061   */\n      mstore\n        /* \"#utility.yul\":11094:11098   */\n      0x20\n        /* \"#utility.yul\":11089:11092   */\n      dup3\n        /* \"#utility.yul\":11085:11099   */\n      add\n        /* \"#utility.yul\":11070:11099   */\n      swap1\n      pop\n        /* \"#utility.yul\":10946:11105   */\n      swap3\n      swap2\n      pop\n      pop\n      jump\t// out\n        /* \"#utility.yul\":11111:11468   */\n    tag_216:\n        /* \"#utility.yul\":11189:11192   */\n      0x00\n        /* \"#utility.yul\":11217:11256   */\n      tag_375\n        /* \"#utility.yul\":11250:11255   */\n      dup3\n        /* \"#utility.yul\":11217:11256   */\n      tag_188\n      jump\t// in\n    tag_375:\n        /* \"#utility.yul\":11272:11333   */\n      tag_376\n        /* \"#utility.yul\":11326:11332   */\n      dup2\n        /* \"#utility.yul\":11321:11324   */\n      dup6\n        /* \"#utility.yul\":11272:11333   */\n      tag_215\n      jump\t// in\n    tag_376:\n        /* \"#utility.yul\":11265:11333   */\n      swap4\n      pop\n        /* \"#utility.yul\":11342:11407   */\n      tag_377\n        /* \"#utility.yul\":11400:11406   */\n      dup2\n        /* \"#utility.yul\":11395:11398   */\n      dup6\n        /* \"#utility.yul\":11388:11392   */\n      0x20\n        /* \"#utility.yul\":11381:11386   */\n      dup7\n        /* \"#utility.yul\":11377:11393   */\n      add\n        /* \"#utility.yul\":11342:11407   */\n      tag_190\n      jump\t// in\n    tag_377:\n        /* \"#utility.yul\":11432:11461   */\n      tag_378\n        /* \"#utility.yul\":11454:11460   */\n      dup2\n        /* \"#utility.yul\":11432:11461   */\n      tag_191\n      jump\t// in\n    tag_378:\n        /* \"#utility.yul\":11427:11430   */\n      dup5\n        /* \"#utility.yul\":11423:11462   */\n      add\n        /* \"#utility.yul\":11416:11462   */\n      swap2\n      pop\n        /* \"#utility.yul\":11193:11468   */\n      pop\n        /* \"#utility.yul\":11111:11468   */\n      swap3\n      swap2\n      pop\n      pop\n      jump\t// out\n        /* \"#utility.yul\":11474:11573   */\n    tag_217:\n        /* \"#utility.yul\":11545:11566   */\n      tag_380\n        /* \"#utility.yul\":11560:11565   */\n      dup2\n        /* \"#utility.yul\":11545:11566   */\n      tag_193\n      jump\t// in\n    tag_380:\n        /* \"#utility.yul\":11540:11543   */\n      dup3\n        /* \"#utility.yul\":11533:11567   */\n      mstore\n        /* \"#utility.yul\":11474:11573   */\n      pop\n      pop\n      jump\t// out\n        /* \"#utility.yul\":11659:13124   */\n    tag_218:\n        /* \"#utility.yul\":11780:11783   */\n      0x00\n        /* \"#utility.yul\":11816:11820   */\n      0xc0\n        /* \"#utility.yul\":11811:11814   */\n      dup4\n        /* \"#utility.yul\":11807:11821   */\n      add\n        /* \"#utility.yul\":11905:11909   */\n      0x00\n        /* \"#utility.yul\":11898:11903   */\n      dup4\n        /* \"#utility.yul\":11894:11910   */\n      add\n        /* \"#utility.yul\":11888:11911   */\n      mload\n        /* \"#utility.yul\":11924:11987   */\n      tag_382\n        /* \"#utility.yul\":11981:11985   */\n      0x00\n        /* \"#utility.yul\":11976:11979   */\n      dup7\n        /* \"#utility.yul\":11972:11986   */\n      add\n        /* \"#utility.yul\":11958:11970   */\n      dup3\n        /* \"#utility.yul\":11924:11987   */\n      tag_214\n      jump\t// in\n    tag_382:\n        /* \"#utility.yul\":11831:11997   */\n      pop\n        /* \"#utility.yul\":12080:12084   */\n      0x20\n        /* \"#utility.yul\":12073:12078   */\n      dup4\n        /* \"#utility.yul\":12069:12085   */\n      add\n        /* \"#utility.yul\":12063:12086   */\n      mload\n        /* \"#utility.yul\":12133:12136   */\n      dup5\n        /* \"#utility.yul\":12127:12131   */\n      dup3\n        /* \"#utility.yul\":12123:12137   */\n      sub\n        /* \"#utility.yul\":12116:12120   */\n      0x20\n        /* \"#utility.yul\":12111:12114   */\n      dup7\n        /* \"#utility.yul\":12107:12121   */\n      add\n        /* \"#utility.yul\":12100:12138   */\n      mstore\n        /* \"#utility.yul\":12159:12232   */\n      tag_383\n        /* \"#utility.yul\":12227:12231   */\n      dup3\n        /* \"#utility.yul\":12213:12225   */\n      dup3\n        /* \"#utility.yul\":12159:12232   */\n      tag_216\n      jump\t// in\n    tag_383:\n        /* \"#utility.yul\":12151:12232   */\n      swap2\n      pop\n        /* \"#utility.yul\":12007:12243   */\n      pop\n        /* \"#utility.yul\":12326:12330   */\n      0x40\n        /* \"#utility.yul\":12319:12324   */\n      dup4\n        /* \"#utility.yul\":12315:12331   */\n      add\n        /* \"#utility.yul\":12309:12332   */\n      mload\n        /* \"#utility.yul\":12379:12382   */\n      dup5\n        /* \"#utility.yul\":12373:12377   */\n      dup3\n        /* \"#utility.yul\":12369:12383   */\n      sub\n        /* \"#utility.yul\":12362:12366   */\n      0x40\n        /* \"#utility.yul\":12357:12360   */\n      dup7\n        /* \"#utility.yul\":12353:12367   */\n      add\n        /* \"#utility.yul\":12346:12384   */\n      mstore\n        /* \"#utility.yul\":12405:12478   */\n      tag_384\n        /* \"#utility.yul\":12473:12477   */\n      dup3\n        /* \"#utility.yul\":12459:12471   */\n      dup3\n        /* \"#utility.yul\":12405:12478   */\n      tag_216\n      jump\t// in\n    tag_384:\n        /* \"#utility.yul\":12397:12478   */\n      swap2\n      pop\n        /* \"#utility.yul\":12253:12489   */\n      pop\n        /* \"#utility.yul\":12582:12586   */\n      0x60\n        /* \"#utility.yul\":12575:12580   */\n      dup4\n        /* \"#utility.yul\":12571:12587   */\n      add\n        /* \"#utility.yul\":12565:12588   */\n      mload\n        /* \"#utility.yul\":12635:12638   */\n      dup5\n        /* \"#utility.yul\":12629:12633   */\n      dup3\n        /* \"#utility.yul\":12625:12639   */\n      sub\n        /* \"#utility.yul\":12618:12622   */\n      0x60\n        /* \"#utility.yul\":12613:12616   */\n      dup7\n        /* \"#utility.yul\":12609:12623   */\n      add\n        /* \"#utility.yul\":12602:12640   */\n      mstore\n        /* \"#utility.yul\":12661:12734   */\n      tag_385\n        /* \"#utility.yul\":12729:12733   */\n      dup3\n        /* \"#utility.yul\":12715:12727   */\n      dup3\n        /* \"#utility.yul\":12661:12734   */\n      tag_216\n      jump\t// in\n    tag_385:\n        /* \"#utility.yul\":12653:12734   */\n      swap2\n      pop\n        /* \"#utility.yul\":12499:12745   */\n      pop\n        /* \"#utility.yul\":12832:12836   */\n      0x80\n        /* \"#utility.yul\":12825:12830   */\n      dup4\n        /* \"#utility.yul\":12821:12837   */\n      add\n        /* \"#utility.yul\":12815:12838   */\n      mload\n        /* \"#utility.yul\":12851:12908   */\n      tag_386\n        /* \"#utility.yul\":12902:12906   */\n      0x80\n        /* \"#utility.yul\":12897:12900   */\n      dup7\n        /* \"#utility.yul\":12893:12907   */\n      add\n        /* \"#utility.yul\":12879:12891   */\n      dup3\n        /* \"#utility.yul\":12851:12908   */\n      tag_217\n      jump\t// in\n    tag_386:\n        /* \"#utility.yul\":12755:12918   */\n      pop\n        /* \"#utility.yul\":13005:13009   */\n      0xa0\n        /* \"#utility.yul\":12998:13003   */\n      dup4\n        /* \"#utility.yul\":12994:13010   */\n      add\n        /* \"#utility.yul\":12988:13011   */\n      mload\n        /* \"#utility.yul\":13024:13087   */\n      tag_387\n        /* \"#utility.yul\":13081:13085   */\n      0xa0\n        /* \"#utility.yul\":13076:13079   */\n      dup7\n        /* \"#utility.yul\":13072:13086   */\n      add\n        /* \"#utility.yul\":13058:13070   */\n      dup3\n        /* \"#utility.yul\":13024:13087   */\n      tag_201\n      jump\t// in\n    tag_387:\n        /* \"#utility.yul\":12928:13097   */\n      pop\n        /* \"#utility.yul\":13114:13118   */\n      dup1\n        /* \"#utility.yul\":13107:13118   */\n      swap2\n      pop\n        /* \"#utility.yul\":11785:13124   */\n      pop\n        /* \"#utility.yul\":11659:13124   */\n      swap3\n      swap2\n      pop\n      pop\n      jump\t// out\n        /* \"#utility.yul\":13130:13507   */\n    tag_70:\n        /* \"#utility.yul\":13275:13279   */\n      0x00\n        /* \"#utility.yul\":13313:13315   */\n      0x20\n        /* \"#utility.yul\":13302:13311   */\n      dup3\n        /* \"#utility.yul\":13298:13316   */\n      add\n        /* \"#utility.yul\":13290:13316   */\n      swap1\n      pop\n        /* \"#utility.yul\":13362:13371   */\n      dup2\n        /* \"#utility.yul\":13356:13360   */\n      dup2\n        /* \"#utility.yul\":13352:13372   */\n      sub\n        /* \"#utility.yul\":13348:13349   */\n      0x00\n        /* \"#utility.yul\":13337:13346   */\n      dup4\n        /* \"#utility.yul\":13333:13350   */\n      add\n        /* \"#utility.yul\":13326:13373   */\n      mstore\n        /* \"#utility.yul\":13390:13500   */\n      tag_389\n        /* \"#utility.yul\":13495:13499   */\n      dup2\n        /* \"#utility.yul\":13486:13492   */\n      dup5\n        /* \"#utility.yul\":13390:13500   */\n      tag_218\n      jump\t// in\n    tag_389:\n        /* \"#utility.yul\":13382:13500   */\n      swap1\n      pop\n        /* \"#utility.yul\":13130:13507   */\n      swap3\n      swap2\n      pop\n      pop\n      jump\t// out\n        /* \"#utility.yul\":13513:13693   */\n    tag_219:\n        /* \"#utility.yul\":13561:13638   */\n      0x4e487b7100000000000000000000000000000000000000000000000000000000\n        /* \"#utility.yul\":13558:13559   */\n      0x00\n        /* \"#utility.yul\":13551:13639   */\n      mstore\n        /* \"#utility.yul\":13658:13662   */\n      0x22\n        /* \"#utility.yul\":13655:13656   */\n      0x04\n        /* \"#utility.yul\":13648:13663   */\n      mstore\n        /* \"#utility.yul\":13682:13686   */\n      0x24\n        /* \"#utility.yul\":13679:13680   */\n      0x00\n        /* \"#utility.yul\":13672:13687   */\n      revert\n        /* \"#utility.yul\":13699:14019   */\n    tag_72:\n        /* \"#utility.yul\":13743:13749   */\n      0x00\n        /* \"#utility.yul\":13780:13781   */\n      0x02\n        /* \"#utility.yul\":13774:13778   */\n      dup3\n        /* \"#utility.yul\":13770:13782   */\n      div\n        /* \"#utility.yul\":13760:13782   */\n      swap1\n      pop\n        /* \"#utility.yul\":13827:13828   */\n      0x01\n        /* \"#utility.yul\":13821:13825   */\n      dup3\n        /* \"#utility.yul\":13817:13829   */\n      and\n        /* \"#utility.yul\":13848:13866   */\n      dup1\n        /* \"#utility.yul\":13838:13919   */\n      tag_392\n      jumpi\n        /* \"#utility.yul\":13904:13908   */\n      0x7f\n        /* \"#utility.yul\":13896:13902   */\n      dup3\n        /* \"#utility.yul\":13892:13909   */\n      and\n        /* \"#utility.yul\":13882:13909   */\n      swap2\n      pop\n        /* \"#utility.yul\":13838:13919   */\n    tag_392:\n        /* \"#utility.yul\":13966:13968   */\n      0x20\n        /* \"#utility.yul\":13958:13964   */\n      dup3\n        /* \"#utility.yul\":13955:13969   */\n      lt\n        /* \"#utility.yul\":13935:13953   */\n      dup2\n        /* \"#utility.yul\":13932:13970   */\n      sub\n        /* \"#utility.yul\":13929:14013   */\n      tag_393\n      jumpi\n        /* \"#utility.yul\":13985:14003   */\n      tag_394\n      tag_219\n      jump\t// in\n    tag_394:\n        /* \"#utility.yul\":13929:14013   */\n    tag_393:\n        /* \"#utility.yul\":13750:14019   */\n      pop\n        /* \"#utility.yul\":13699:14019   */\n      swap2\n      swap1\n      pop\n      jump\t// out\n        /* \"#utility.yul\":14025:14205   */\n    tag_97:\n        /* \"#utility.yul\":14073:14150   */\n      0x4e487b7100000000000000000000000000000000000000000000000000000000\n        /* \"#utility.yul\":14070:14071   */\n      0x00\n        /* \"#utility.yul\":14063:14151   */\n      mstore\n        /* \"#utility.yul\":14170:14174   */\n      0x32\n        /* \"#utility.yul\":14167:14168   */\n      0x04\n        /* \"#utility.yul\":14160:14175   */\n      mstore\n        /* \"#utility.yul\":14194:14198   */\n      0x24\n        /* \"#utility.yul\":14191:14192   */\n      0x00\n        /* \"#utility.yul\":14184:14199   */\n      revert\n        /* \"#utility.yul\":14211:14391   */\n    tag_220:\n        /* \"#utility.yul\":14259:14336   */\n      0x4e487b7100000000000000000000000000000000000000000000000000000000\n        /* \"#utility.yul\":14256:14257   */\n      0x00\n        /* \"#utility.yul\":14249:14337   */\n      mstore\n        /* \"#utility.yul\":14356:14360   */\n      0x11\n        /* \"#utility.yul\":14353:14354   */\n      0x04\n        /* \"#utility.yul\":14346:14361   */\n      mstore\n        /* \"#utility.yul\":14380:14384   */\n      0x24\n        /* \"#utility.yul\":14377:14378   */\n      0x00\n        /* \"#utility.yul\":14370:14385   */\n      revert\n        /* \"#utility.yul\":14397:14630   */\n    tag_100:\n        /* \"#utility.yul\":14436:14439   */\n      0x00\n        /* \"#utility.yul\":14459:14483   */\n      tag_398\n        /* \"#utility.yul\":14477:14482   */\n      dup3\n        /* \"#utility.yul\":14459:14483   */\n      tag_182\n      jump\t// in\n    tag_398:\n        /* \"#utility.yul\":14450:14483   */\n      swap2\n      pop\n        /* \"#utility.yul\":14505:14571   */\n      0xffffffffffffffffffffffffffffffffffffffffffffffffffffffffffffffff\n        /* \"#utility.yul\":14498:14503   */\n      dup3\n        /* \"#utility.yul\":14495:14572   */\n      sub\n        /* \"#utility.yul\":14492:14595   */\n      tag_399\n      jumpi\n        /* \"#utility.yul\":14575:14593   */\n      tag_400\n      tag_220\n      jump\t// in\n    tag_400:\n        /* \"#utility.yul\":14492:14595   */\n    tag_399:\n        /* \"#utility.yul\":14622:14623   */\n      0x01\n        /* \"#utility.yul\":14615:14620   */\n      dup3\n        /* \"#utility.yul\":14611:14624   */\n      add\n        /* \"#utility.yul\":14604:14624   */\n      swap1\n      pop\n        /* \"#utility.yul\":14397:14630   */\n      swap2\n      swap1\n      pop\n      jump\t// out\n        /* \"#utility.yul\":14636:14807   */\n    tag_221:\n        /* \"#utility.yul\":14776:14799   */\n      0x636f696e412063616e6e6f7420626520656d7074790000000000000000000000\n        /* \"#utility.yul\":14772:14773   */\n      0x00\n        /* \"#utility.yul\":14764:14770   */\n      dup3\n        /* \"#utility.yul\":14760:14774   */\n      add\n        /* \"#utility.yul\":14753:14800   */\n      mstore\n        /* \"#utility.yul\":14636:14807   */\n      pop\n      jump\t// out\n        /* \"#utility.yul\":14813:15179   */\n    tag_222:\n        /* \"#utility.yul\":14955:14958   */\n      0x00\n        /* \"#utility.yul\":14976:15043   */\n      tag_403\n        /* \"#utility.yul\":15040:15042   */\n      0x15\n        /* \"#utility.yul\":15035:15038   */\n      dup4\n        /* \"#utility.yul\":14976:15043   */\n      tag_189\n      jump\t// in\n    tag_403:\n        /* \"#utility.yul\":14969:15043   */\n      swap2\n      pop\n        /* \"#utility.yul\":15052:15145   */\n      tag_404\n        /* \"#utility.yul\":15141:15144   */\n      dup3\n        /* \"#utility.yul\":15052:15145   */\n      tag_221\n      jump\t// in\n    tag_404:\n        /* \"#utility.yul\":15170:15172   */\n      0x20\n        /* \"#utility.yul\":15165:15168   */\n      dup3\n        /* \"#utility.yul\":15161:15173   */\n      add\n        /* \"#utility.yul\":15154:15173   */\n      swap1\n      pop\n        /* \"#utility.yul\":14813:15179   */\n      swap2\n      swap1\n      pop\n      jump\t// out\n        /* \"#utility.yul\":15185:15604   */\n    tag_118:\n        /* \"#utility.yul\":15351:15355   */\n      0x00\n        /* \"#utility.yul\":15389:15391   */\n      0x20\n        /* \"#utility.yul\":15378:15387   */\n      dup3\n        /* \"#utility.yul\":15374:15392   */\n      add\n        /* \"#utility.yul\":15366:15392   */\n      swap1\n      pop\n        /* \"#utility.yul\":15438:15447   */\n      dup2\n        /* \"#utility.yul\":15432:15436   */\n      dup2\n        /* \"#utility.yul\":15428:15448   */\n      sub\n        /* \"#utility.yul\":15424:15425   */\n      0x00\n        /* \"#utility.yul\":15413:15422   */\n      dup4\n        /* \"#utility.yul\":15409:15426   */\n      add\n        /* \"#utility.yul\":15402:15449   */\n      mstore\n        /* \"#utility.yul\":15466:15597   */\n      tag_406\n        /* \"#utility.yul\":15592:15596   */\n      dup2\n        /* \"#utility.yul\":15466:15597   */\n      tag_222\n      jump\t// in\n    tag_406:\n        /* \"#utility.yul\":15458:15597   */\n      swap1\n      pop\n        /* \"#utility.yul\":15185:15604   */\n      swap2\n      swap1\n      pop\n      jump\t// out\n        /* \"#utility.yul\":15610:15781   */\n    tag_223:\n        /* \"#utility.yul\":15750:15773   */\n      0x636f696e422063616e6e6f7420626520656d7074790000000000000000000000\n        /* \"#utility.yul\":15746:15747   */\n      0x00\n        /* \"#utility.yul\":15738:15744   */\n      dup3\n        /* \"#utility.yul\":15734:15748   */\n      add\n        /* \"#utility.yul\":15727:15774   */\n      mstore\n        /* \"#utility.yul\":15610:15781   */\n      pop\n      jump\t// out\n        /* \"#utility.yul\":15787:16153   */\n    tag_224:\n        /* \"#utility.yul\":15929:15932   */\n      0x00\n        /* \"#utility.yul\":15950:16017   */\n      tag_409\n        /* \"#utility.yul\":16014:16016   */\n      0x15\n        /* \"#utility.yul\":16009:16012   */\n      dup4\n        /* \"#utility.yul\":15950:16017   */\n      tag_189\n      jump\t// in\n    tag_409:\n        /* \"#utility.yul\":15943:16017   */\n      swap2\n      pop\n        /* \"#utility.yul\":16026:16119   */\n      tag_410\n        /* \"#utility.yul\":16115:16118   */\n      dup3\n        /* \"#utility.yul\":16026:16119   */\n      tag_223\n      jump\t// in\n    tag_410:\n        /* \"#utility.yul\":16144:16146   */\n      0x20\n        /* \"#utility.yul\":16139:16142   */\n      dup3\n        /* \"#utility.yul\":16135:16147   */\n      add\n        /* \"#utility.yul\":16128:16147   */\n      swap1\n      pop\n        /* \"#utility.yul\":15787:16153   */\n      swap2\n      swap1\n      pop\n      jump\t// out\n        /* \"#utility.yul\":16159:16578   */\n    tag_121:\n        /* \"#utility.yul\":16325:16329   */\n      0x00\n        /* \"#utility.yul\":16363:16365   */\n      0x20\n        /* \"#utility.yul\":16352:16361   */\n      dup3\n        /* \"#utility.yul\":16348:16366   */\n      add\n        /* \"#utility.yul\":16340:16366   */\n      swap1\n      pop\n        /* \"#utility.yul\":16412:16421   */\n      dup2\n        /* \"#utility.yul\":16406:16410   */\n      dup2\n        /* \"#utility.yul\":16402:16422   */\n      sub\n        /* \"#utility.yul\":16398:16399   */\n      0x00\n        /* \"#utility.yul\":16387:16396   */\n      dup4\n        /* \"#utility.yul\":16383:16400   */\n      add\n        /* \"#utility.yul\":16376:16423   */\n      mstore\n        /* \"#utility.yul\":16440:16571   */\n      tag_412\n        /* \"#utility.yul\":16566:16570   */\n      dup2\n        /* \"#utility.yul\":16440:16571   */\n      tag_224\n      jump\t// in\n    tag_412:\n        /* \"#utility.yul\":16432:16571   */\n      swap1\n      pop\n        /* \"#utility.yul\":16159:16578   */\n      swap2\n      swap1\n      pop\n      jump\t// out\n        /* \"#utility.yul\":16584:16765   */\n    tag_225:\n        /* \"#utility.yul\":16724:16757   */\n      0x70726564696374656457696e6e65722063616e6e6f7420626520656d70747900\n        /* \"#utility.yul\":16720:16721   */\n      0x00\n        /* \"#utility.yul\":16712:16718   */\n      dup3\n        /* \"#utility.yul\":16708:16722   */\n      add\n        /* \"#utility.yul\":16701:16758   */\n      mstore\n        /* \"#utility.yul\":16584:16765   */\n      pop\n      jump\t// out\n        /* \"#utility.yul\":16771:17137   */\n    tag_226:\n        /* \"#utility.yul\":16913:16916   */\n      0x00\n        /* \"#utility.yul\":16934:17001   */\n      tag_415\n        /* \"#utility.yul\":16998:17000   */\n      0x1f\n        /* \"#utility.yul\":16993:16996   */\n      dup4\n        /* \"#utility.yul\":16934:17001   */\n      tag_189\n      jump\t// in\n    tag_415:\n        /* \"#utility.yul\":16927:17001   */\n      swap2\n      pop\n        /* \"#utility.yul\":17010:17103   */\n      tag_416\n        /* \"#utility.yul\":17099:17102   */\n      dup3\n        /* \"#utility.yul\":17010:17103   */\n      tag_225\n      jump\t// in\n    tag_416:\n        /* \"#utility.yul\":17128:17130   */\n      0x20\n        /* \"#utility.yul\":17123:17126   */\n      dup3\n        /* \"#utility.yul\":17119:17131   */\n      add\n        /* \"#utility.yul\":17112:17131   */\n      swap1\n      pop\n        /* \"#utility.yul\":16771:17137   */\n      swap2\n      swap1\n      pop\n      jump\t// out\n        /* \"#utility.yul\":17143:17562   */\n    tag_124:\n        /* \"#utility.yul\":17309:17313   */\n      0x00\n        /* \"#utility.yul\":17347:17349   */\n      0x20\n        /* \"#utility.yul\":17336:17345   */\n      dup3\n        /* \"#utility.yul\":17332:17350   */\n      add\n        /* \"#utility.yul\":17324:17350   */\n      swap1\n      pop\n        /* \"#utility.yul\":17396:17405   */\n      dup2\n        /* \"#utility.yul\":17390:17394   */\n      dup2\n        /* \"#utility.yul\":17386:17406   */\n      sub\n        /* \"#utility.yul\":17382:17383   */\n      0x00\n        /* \"#utility.yul\":17371:17380   */\n      dup4\n        /* \"#utility.yul\":17367:17384   */\n      add\n        /* \"#utility.yul\":17360:17407   */\n      mstore\n        /* \"#utility.yul\":17424:17555   */\n      tag_418\n        /* \"#utility.yul\":17550:17554   */\n      dup2\n        /* \"#utility.yul\":17424:17555   */\n      tag_226\n      jump\t// in\n    tag_418:\n        /* \"#utility.yul\":17416:17555   */\n      swap1\n      pop\n        /* \"#utility.yul\":17143:17562   */\n      swap2\n      swap1\n      pop\n      jump\t// out\n        /* \"#utility.yul\":17568:17795   */\n    tag_227:\n        /* \"#utility.yul\":17708:17742   */\n      0x50726564696374696f6e206d7573742062652065697468657220636f696e4120\n        /* \"#utility.yul\":17704:17705   */\n      0x00\n        /* \"#utility.yul\":17696:17702   */\n      dup3\n        /* \"#utility.yul\":17692:17706   */\n      add\n        /* \"#utility.yul\":17685:17743   */\n      mstore\n        /* \"#utility.yul\":17777:17787   */\n      0x6f7220636f696e42000000000000000000000000000000000000000000000000\n        /* \"#utility.yul\":17772:17774   */\n      0x20\n        /* \"#utility.yul\":17764:17770   */\n      dup3\n        /* \"#utility.yul\":17760:17775   */\n      add\n        /* \"#utility.yul\":17753:17788   */\n      mstore\n        /* \"#utility.yul\":17568:17795   */\n      pop\n      jump\t// out\n        /* \"#utility.yul\":17801:18167   */\n    tag_228:\n        /* \"#utility.yul\":17943:17946   */\n      0x00\n        /* \"#utility.yul\":17964:18031   */\n      tag_421\n        /* \"#utility.yul\":18028:18030   */\n      0x28\n        /* \"#utility.yul\":18023:18026   */\n      dup4\n        /* \"#utility.yul\":17964:18031   */\n      tag_189\n      jump\t// in\n    tag_421:\n        /* \"#utility.yul\":17957:18031   */\n      swap2\n      pop\n        /* \"#utility.yul\":18040:18133   */\n      tag_422\n        /* \"#utility.yul\":18129:18132   */\n      dup3\n        /* \"#utility.yul\":18040:18133   */\n      tag_227\n      jump\t// in\n    tag_422:\n        /* \"#utility.yul\":18158:18160   */\n      0x40\n        /* \"#utility.yul\":18153:18156   */\n      dup3\n        /* \"#utility.yul\":18149:18161   */\n      add\n        /* \"#utility.yul\":18142:18161   */\n      swap1\n      pop\n        /* \"#utility.yul\":17801:18167   */\n      swap2\n      swap1\n      pop\n      jump\t// out\n        /* \"#utility.yul\":18173:18592   */\n    tag_131:\n        /* \"#utility.yul\":18339:18343   */\n      0x00\n        /* \"#utility.yul\":18377:18379   */\n      0x20\n        /* \"#utility.yul\":18366:18375   */\n      dup3\n        /* \"#utility.yul\":18362:18380   */\n      add\n        /* \"#utility.yul\":18354:18380   */\n      swap1\n      pop\n        /* \"#utility.yul\":18426:18435   */\n      dup2\n        /* \"#utility.yul\":18420:18424   */\n      dup2\n        /* \"#utility.yul\":18416:18436   */\n      sub\n        /* \"#utility.yul\":18412:18413   */\n      0x00\n        /* \"#utility.yul\":18401:18410   */\n      dup4\n        /* \"#utility.yul\":18397:18414   */\n      add\n        /* \"#utility.yul\":18390:18437   */\n      mstore\n        /* \"#utility.yul\":18454:18585   */\n      tag_424\n        /* \"#utility.yul\":18580:18584   */\n      dup2\n        /* \"#utility.yul\":18454:18585   */\n      tag_228\n      jump\t// in\n    tag_424:\n        /* \"#utility.yul\":18446:18585   */\n      swap1\n      pop\n        /* \"#utility.yul\":18173:18592   */\n      swap2\n      swap1\n      pop\n      jump\t// out\n        /* \"#utility.yul\":18598:18739   */\n    tag_229:\n        /* \"#utility.yul\":18647:18651   */\n      0x00\n        /* \"#utility.yul\":18670:18673   */\n      dup2\n        /* \"#utility.yul\":18662:18673   */\n      swap1\n      pop\n        /* \"#utility.yul\":18693:18696   */\n      dup2\n        /* \"#utility.yul\":18690:18691   */\n      0x00\n        /* \"#utility.yul\":18683:18697   */\n      mstore\n        /* \"#utility.yul\":18727:18731   */\n      0x20\n        /* \"#utility.yul\":18724:18725   */\n      0x00\n        /* \"#utility.yul\":18714:18732   */\n      keccak256\n        /* \"#utility.yul\":18706:18732   */\n      swap1\n      pop\n        /* \"#utility.yul\":18598:18739   */\n      swap2\n      swap1\n      pop\n      jump\t// out\n        /* \"#utility.yul\":18745:18838   */\n    tag_230:\n        /* \"#utility.yul\":18782:18788   */\n      0x00\n        /* \"#utility.yul\":18829:18831   */\n      0x20\n        /* \"#utility.yul\":18824:18826   */\n      0x1f\n        /* \"#utility.yul\":18817:18822   */\n      dup4\n        /* \"#utility.yul\":18813:18827   */\n      add\n        /* \"#utility.yul\":18809:18832   */\n      div\n        /* \"#utility.yul\":18799:18832   */\n      swap1\n      pop\n        /* \"#utility.yul\":18745:18838   */\n      swap2\n      swap1\n      pop\n      jump\t// out\n        /* \"#utility.yul\":18844:18951   */\n    tag_231:\n        /* \"#utility.yul\":18888:18896   */\n      0x00\n        /* \"#utility.yul\":18938:18943   */\n      dup3\n        /* \"#utility.yul\":18932:18936   */\n      dup3\n        /* \"#utility.yul\":18928:18944   */\n      shl\n        /* \"#utility.yul\":18907:18944   */\n      swap1\n      pop\n        /* \"#utility.yul\":18844:18951   */\n      swap3\n      swap2\n      pop\n      pop\n      jump\t// out\n        /* \"#utility.yul\":18957:19350   */\n    tag_232:\n        /* \"#utility.yul\":19026:19032   */\n      0x00\n        /* \"#utility.yul\":19076:19077   */\n      0x08\n        /* \"#utility.yul\":19064:19074   */\n      dup4\n        /* \"#utility.yul\":19060:19078   */\n      mul\n        /* \"#utility.yul\":19099:19196   */\n      tag_429\n        /* \"#utility.yul\":19129:19195   */\n      0xffffffffffffffffffffffffffffffffffffffffffffffffffffffffffffffff\n        /* \"#utility.yul\":19118:19127   */\n      dup3\n        /* \"#utility.yul\":19099:19196   */\n      tag_231\n      jump\t// in\n    tag_429:\n        /* \"#utility.yul\":19217:19256   */\n      tag_430\n        /* \"#utility.yul\":19247:19255   */\n      dup7\n        /* \"#utility.yul\":19236:19245   */\n      dup4\n        /* \"#utility.yul\":19217:19256   */\n      tag_231\n      jump\t// in\n    tag_430:\n        /* \"#utility.yul\":19205:19256   */\n      swap6\n      pop\n        /* \"#utility.yul\":19289:19293   */\n      dup1\n        /* \"#utility.yul\":19285:19294   */\n      not\n        /* \"#utility.yul\":19278:19283   */\n      dup5\n        /* \"#utility.yul\":19274:19295   */\n      and\n        /* \"#utility.yul\":19265:19295   */\n      swap4\n      pop\n        /* \"#utility.yul\":19338:19342   */\n      dup1\n        /* \"#utility.yul\":19328:19336   */\n      dup7\n        /* \"#utility.yul\":19324:19343   */\n      and\n        /* \"#utility.yul\":19317:19322   */\n      dup5\n        /* \"#utility.yul\":19314:19344   */\n      or\n        /* \"#utility.yul\":19304:19344   */\n      swap3\n      pop\n        /* \"#utility.yul\":19033:19350   */\n      pop\n      pop\n        /* \"#utility.yul\":18957:19350   */\n      swap4\n      swap3\n      pop\n      pop\n      pop\n      jump\t// out\n        /* \"#utility.yul\":19356:19416   */\n    tag_233:\n        /* \"#utility.yul\":19384:19387   */\n      0x00\n        /* \"#utility.yul\":19405:19410   */\n      dup2\n        /* \"#utility.yul\":19398:19410   */\n      swap1\n      pop\n        /* \"#utility.yul\":19356:19416   */\n      swap2\n      swap1\n      pop\n      jump\t// out\n        /* \"#utility.yul\":19422:19564   */\n    tag_234:\n        /* \"#utility.yul\":19472:19481   */\n      0x00\n        /* \"#utility.yul\":19505:19558   */\n      tag_433\n        /* \"#utility.yul\":19523:19557   */\n      tag_434\n        /* \"#utility.yul\":19532:19556   */\n      tag_435\n        /* \"#utility.yul\":19550:19555   */\n      dup5\n        /* \"#utility.yul\":19532:19556   */\n      tag_182\n      jump\t// in\n    tag_435:\n        /* \"#utility.yul\":19523:19557   */\n      tag_233\n      jump\t// in\n    tag_434:\n        /* \"#utility.yul\":19505:19558   */\n      tag_182\n      jump\t// in\n    tag_433:\n        /* \"#utility.yul\":19492:19558   */\n      swap1\n      pop\n        /* \"#utility.yul\":19422:19564   */\n      swap2\n      swap1\n      pop\n      jump\t// out\n        /* \"#utility.yul\":19570:19645   */\n    tag_235:\n        /* \"#utility.yul\":19613:19616   */\n      0x00\n        /* \"#utility.yul\":19634:19639   */\n      dup2\n        /* \"#utility.yul\":19627:19639   */\n      swap1\n      pop\n        /* \"#utility.yul\":19570:19645   */\n      swap2\n      swap1\n      pop\n      jump\t// out\n        /* \"#utility.yul\":19651:19920   */\n    tag_236:\n        /* \"#utility.yul\":19761:19800   */\n      tag_438\n        /* \"#utility.yul\":19792:19799   */\n      dup4\n        /* \"#utility.yul\":19761:19800   */\n      tag_234\n      jump\t// in\n    tag_438:\n        /* \"#utility.yul\":19822:19913   */\n      tag_439\n        /* \"#utility.yul\":19871:19912   */\n      tag_440\n        /* \"#utility.yul\":19895:19911   */\n      dup3\n        /* \"#utility.yul\":19871:19912   */\n      tag_235\n      jump\t// in\n    tag_440:\n        /* \"#utility.yul\":19863:19869   */\n      dup5\n        /* \"#utility.yul\":19856:19860   */\n      dup5\n        /* \"#utility.yul\":19850:19861   */\n      sload\n        /* \"#utility.yul\":19822:19913   */\n      tag_232\n      jump\t// in\n    tag_439:\n        /* \"#utility.yul\":19816:19820   */\n      dup3\n        /* \"#utility.yul\":19809:19914   */\n      sstore\n        /* \"#utility.yul\":19727:19920   */\n      pop\n        /* \"#utility.yul\":19651:19920   */\n      pop\n      pop\n      pop\n      jump\t// out\n        /* \"#utility.yul\":19926:19999   */\n    tag_237:\n        /* \"#utility.yul\":19971:19974   */\n      0x00\n        /* \"#utility.yul\":19926:19999   */\n      swap1\n      jump\t// out\n        /* \"#utility.yul\":20005:20194   */\n    tag_238:\n        /* \"#utility.yul\":20082:20114   */\n      tag_443\n      tag_237\n      jump\t// in\n    tag_443:\n        /* \"#utility.yul\":20123:20188   */\n      tag_444\n        /* \"#utility.yul\":20181:20187   */\n      dup2\n        /* \"#utility.yul\":20173:20179   */\n      dup5\n        /* \"#utility.yul\":20167:20171   */\n      dup5\n        /* \"#utility.yul\":20123:20188   */\n      tag_236\n      jump\t// in\n    tag_444:\n        /* \"#utility.yul\":20058:20194   */\n      pop\n        /* \"#utility.yul\":20005:20194   */\n      pop\n      pop\n      jump\t// out\n        /* \"#utility.yul\":20200:20386   */\n    tag_239:\n        /* \"#utility.yul\":20260:20380   */\n    tag_446:\n        /* \"#utility.yul\":20277:20280   */\n      dup2\n        /* \"#utility.yul\":20270:20275   */\n      dup2\n        /* \"#utility.yul\":20267:20281   */\n      lt\n        /* \"#utility.yul\":20260:20380   */\n      iszero\n      tag_448\n      jumpi\n        /* \"#utility.yul\":20331:20370   */\n      tag_449\n        /* \"#utility.yul\":20368:20369   */\n      0x00\n        /* \"#utility.yul\":20361:20366   */\n      dup3\n        /* \"#utility.yul\":20331:20370   */\n      tag_238\n      jump\t// in\n    tag_449:\n        /* \"#utility.yul\":20304:20305   */\n      0x01\n        /* \"#utility.yul\":20297:20302   */\n      dup2\n        /* \"#utility.yul\":20293:20306   */\n      add\n        /* \"#utility.yul\":20284:20306   */\n      swap1\n      pop\n        /* \"#utility.yul\":20260:20380   */\n      jump(tag_446)\n    tag_448:\n        /* \"#utility.yul\":20200:20386   */\n      pop\n      pop\n      jump\t// out\n        /* \"#utility.yul\":20392:20935   */\n    tag_240:\n        /* \"#utility.yul\":20493:20495   */\n      0x1f\n        /* \"#utility.yul\":20488:20491   */\n      dup3\n        /* \"#utility.yul\":20485:20496   */\n      gt\n        /* \"#utility.yul\":20482:20928   */\n      iszero\n      tag_451\n      jumpi\n        /* \"#utility.yul\":20527:20565   */\n      tag_452\n        /* \"#utility.yul\":20559:20564   */\n      dup2\n        /* \"#utility.yul\":20527:20565   */\n      tag_229\n      jump\t// in\n    tag_452:\n        /* \"#utility.yul\":20611:20640   */\n      tag_453\n        /* \"#utility.yul\":20629:20639   */\n      dup5\n        /* \"#utility.yul\":20611:20640   */\n      tag_230\n      jump\t// in\n    tag_453:\n        /* \"#utility.yul\":20601:20609   */\n      dup2\n        /* \"#utility.yul\":20597:20641   */\n      add\n        /* \"#utility.yul\":20794:20796   */\n      0x20\n        /* \"#utility.yul\":20782:20792   */\n      dup6\n        /* \"#utility.yul\":20779:20797   */\n      lt\n        /* \"#utility.yul\":20776:20825   */\n      iszero\n      tag_454\n      jumpi\n        /* \"#utility.yul\":20815:20823   */\n      dup2\n        /* \"#utility.yul\":20800:20823   */\n      swap1\n      pop\n        /* \"#utility.yul\":20776:20825   */\n    tag_454:\n        /* \"#utility.yul\":20838:20918   */\n      tag_455\n        /* \"#utility.yul\":20894:20916   */\n      tag_456\n        /* \"#utility.yul\":20912:20915   */\n      dup6\n        /* \"#utility.yul\":20894:20916   */\n      tag_230\n      jump\t// in\n    tag_456:\n        /* \"#utility.yul\":20884:20892   */\n      dup4\n        /* \"#utility.yul\":20880:20917   */\n      add\n        /* \"#utility.yul\":20867:20878   */\n      dup3\n        /* \"#utility.yul\":20838:20918   */\n      tag_239\n      jump\t// in\n    tag_455:\n        /* \"#utility.yul\":20497:20928   */\n      pop\n      pop\n        /* \"#utility.yul\":20482:20928   */\n    tag_451:\n        /* \"#utility.yul\":20392:20935   */\n      pop\n      pop\n      pop\n      jump\t// out\n        /* \"#utility.yul\":20941:21058   */\n    tag_241:\n        /* \"#utility.yul\":20995:21003   */\n      0x00\n        /* \"#utility.yul\":21045:21050   */\n      dup3\n        /* \"#utility.yul\":21039:21043   */\n      dup3\n        /* \"#utility.yul\":21035:21051   */\n      shr\n        /* \"#utility.yul\":21014:21051   */\n      swap1\n      pop\n        /* \"#utility.yul\":20941:21058   */\n      swap3\n      swap2\n      pop\n      pop\n      jump\t// out\n        /* \"#utility.yul\":21064:21233   */\n    tag_242:\n        /* \"#utility.yul\":21108:21114   */\n      0x00\n        /* \"#utility.yul\":21141:21192   */\n      tag_459\n        /* \"#utility.yul\":21189:21190   */\n      0x00\n        /* \"#utility.yul\":21185:21191   */\n      not\n        /* \"#utility.yul\":21177:21182   */\n      dup5\n        /* \"#utility.yul\":21174:21175   */\n      0x08\n        /* \"#utility.yul\":21170:21183   */\n      mul\n        /* \"#utility.yul\":21141:21192   */\n      tag_241\n      jump\t// in\n    tag_459:\n        /* \"#utility.yul\":21137:21193   */\n      not\n        /* \"#utility.yul\":21222:21226   */\n      dup1\n        /* \"#utility.yul\":21216:21220   */\n      dup4\n        /* \"#utility.yul\":21212:21227   */\n      and\n        /* \"#utility.yul\":21202:21227   */\n      swap2\n      pop\n        /* \"#utility.yul\":21115:21233   */\n      pop\n        /* \"#utility.yul\":21064:21233   */\n      swap3\n      swap2\n      pop\n      pop\n      jump\t// out\n        /* \"#utility.yul\":21238:21533   */\n    tag_243:\n        /* \"#utility.yul\":21314:21318   */\n      0x00\n        /* \"#utility.yul\":21460:21489   */\n      tag_461\n        /* \"#utility.yul\":21485:21488   */\n      dup4\n        /* \"#utility.yul\":21479:21483   */\n      dup4\n        /* \"#utility.yul\":21460:21489   */\n      tag_242\n      jump\t// in\n    tag_461:\n        /* \"#utility.yul\":21452:21489   */\n      swap2\n      pop\n        /* \"#utility.yul\":21522:21525   */\n      dup3\n        /* \"#utility.yul\":21519:21520   */\n      0x02\n        /* \"#utility.yul\":21515:21526   */\n      mul\n        /* \"#utility.yul\":21509:21513   */\n      dup3\n        /* \"#utility.yul\":21506:21527   */\n      or\n        /* \"#utility.yul\":21498:21527   */\n      swap1\n      pop\n        /* \"#utility.yul\":21238:21533   */\n      swap3\n      swap2\n      pop\n      pop\n      jump\t// out\n        /* \"#utility.yul\":21538:22933   */\n    tag_134:\n        /* \"#utility.yul\":21655:21692   */\n      tag_463\n        /* \"#utility.yul\":21688:21691   */\n      dup3\n        /* \"#utility.yul\":21655:21692   */\n      tag_188\n      jump\t// in\n    tag_463:\n        /* \"#utility.yul\":21757:21775   */\n      0xffffffffffffffff\n        /* \"#utility.yul\":21749:21755   */\n      dup2\n        /* \"#utility.yul\":21746:21776   */\n      gt\n        /* \"#utility.yul\":21743:21799   */\n      iszero\n      tag_464\n      jumpi\n        /* \"#utility.yul\":21779:21797   */\n      tag_465\n      tag_207\n      jump\t// in\n    tag_465:\n        /* \"#utility.yul\":21743:21799   */\n    tag_464:\n        /* \"#utility.yul\":21823:21861   */\n      tag_466\n        /* \"#utility.yul\":21855:21859   */\n      dup3\n        /* \"#utility.yul\":21849:21860   */\n      sload\n        /* \"#utility.yul\":21823:21861   */\n      tag_72\n      jump\t// in\n    tag_466:\n        /* \"#utility.yul\":21908:21975   */\n      tag_467\n        /* \"#utility.yul\":21968:21974   */\n      dup3\n        /* \"#utility.yul\":21960:21966   */\n      dup3\n        /* \"#utility.yul\":21954:21958   */\n      dup6\n        /* \"#utility.yul\":21908:21975   */\n      tag_240\n      jump\t// in\n    tag_467:\n        /* \"#utility.yul\":22002:22003   */\n      0x00\n        /* \"#utility.yul\":22026:22030   */\n      0x20\n        /* \"#utility.yul\":22013:22030   */\n      swap1\n      pop\n        /* \"#utility.yul\":22058:22060   */\n      0x1f\n        /* \"#utility.yul\":22050:22056   */\n      dup4\n        /* \"#utility.yul\":22047:22061   */\n      gt\n        /* \"#utility.yul\":22075:22076   */\n      0x01\n        /* \"#utility.yul\":22070:22688   */\n      dup2\n      eq\n      tag_469\n      jumpi\n        /* \"#utility.yul\":22732:22733   */\n      0x00\n        /* \"#utility.yul\":22749:22755   */\n      dup5\n        /* \"#utility.yul\":22746:22823   */\n      iszero\n      tag_470\n      jumpi\n        /* \"#utility.yul\":22798:22807   */\n      dup3\n        /* \"#utility.yul\":22793:22796   */\n      dup8\n        /* \"#utility.yul\":22789:22808   */\n      add\n        /* \"#utility.yul\":22783:22809   */\n      mload\n        /* \"#utility.yul\":22774:22809   */\n      swap1\n      pop\n        /* \"#utility.yul\":22746:22823   */\n    tag_470:\n        /* \"#utility.yul\":22849:22916   */\n      tag_471\n        /* \"#utility.yul\":22909:22915   */\n      dup6\n        /* \"#utility.yul\":22902:22907   */\n      dup3\n        /* \"#utility.yul\":22849:22916   */\n      tag_243\n      jump\t// in\n    tag_471:\n        /* \"#utility.yul\":22843:22847   */\n      dup7\n        /* \"#utility.yul\":22836:22917   */\n      sstore\n        /* \"#utility.yul\":22705:22927   */\n      pop\n        /* \"#utility.yul\":22040:22927   */\n      jump(tag_468)\n        /* \"#utility.yul\":22070:22688   */\n    tag_469:\n        /* \"#utility.yul\":22122:22126   */\n      0x1f\n        /* \"#utility.yul\":22118:22127   */\n      not\n        /* \"#utility.yul\":22110:22116   */\n      dup5\n        /* \"#utility.yul\":22106:22128   */\n      and\n        /* \"#utility.yul\":22156:22193   */\n      tag_472\n        /* \"#utility.yul\":22188:22192   */\n      dup7\n        /* \"#utility.yul\":22156:22193   */\n      tag_229\n      jump\t// in\n    tag_472:\n        /* \"#utility.yul\":22215:22216   */\n      0x00\n        /* \"#utility.yul\":22229:22437   */\n    tag_473:\n        /* \"#utility.yul\":22243:22250   */\n      dup3\n        /* \"#utility.yul\":22240:22241   */\n      dup2\n        /* \"#utility.yul\":22237:22251   */\n      lt\n        /* \"#utility.yul\":22229:22437   */\n      iszero\n      tag_475\n      jumpi\n        /* \"#utility.yul\":22322:22331   */\n      dup5\n        /* \"#utility.yul\":22317:22320   */\n      dup10\n        /* \"#utility.yul\":22313:22332   */\n      add\n        /* \"#utility.yul\":22307:22333   */\n      mload\n        /* \"#utility.yul\":22299:22305   */\n      dup3\n        /* \"#utility.yul\":22292:22334   */\n      sstore\n        /* \"#utility.yul\":22373:22374   */\n      0x01\n        /* \"#utility.yul\":22365:22371   */\n      dup3\n        /* \"#utility.yul\":22361:22375   */\n      add\n        /* \"#utility.yul\":22351:22375   */\n      swap2\n      pop\n        /* \"#utility.yul\":22420:22422   */\n      0x20\n        /* \"#utility.yul\":22409:22418   */\n      dup6\n        /* \"#utility.yul\":22405:22423   */\n      add\n        /* \"#utility.yul\":22392:22423   */\n      swap5\n      pop\n        /* \"#utility.yul\":22266:22270   */\n      0x20\n        /* \"#utility.yul\":22263:22264   */\n      dup2\n        /* \"#utility.yul\":22259:22271   */\n      add\n        /* \"#utility.yul\":22254:22271   */\n      swap1\n      pop\n        /* \"#utility.yul\":22229:22437   */\n      jump(tag_473)\n    tag_475:\n        /* \"#utility.yul\":22465:22471   */\n      dup7\n        /* \"#utility.yul\":22456:22463   */\n      dup4\n        /* \"#utility.yul\":22453:22472   */\n      lt\n        /* \"#utility.yul\":22450:22629   */\n      iszero\n      tag_476\n      jumpi\n        /* \"#utility.yul\":22523:22532   */\n      dup5\n        /* \"#utility.yul\":22518:22521   */\n      dup10\n        /* \"#utility.yul\":22514:22533   */\n      add\n        /* \"#utility.yul\":22508:22534   */\n      mload\n        /* \"#utility.yul\":22566:22614   */\n      tag_477\n        /* \"#utility.yul\":22608:22612   */\n      0x1f\n        /* \"#utility.yul\":22600:22606   */\n      dup10\n        /* \"#utility.yul\":22596:22613   */\n      and\n        /* \"#utility.yul\":22585:22594   */\n      dup3\n        /* \"#utility.yul\":22566:22614   */\n      tag_242\n      jump\t// in\n    tag_477:\n        /* \"#utility.yul\":22558:22564   */\n      dup4\n        /* \"#utility.yul\":22551:22615   */\n      sstore\n        /* \"#utility.yul\":22473:22629   */\n      pop\n        /* \"#utility.yul\":22450:22629   */\n    tag_476:\n        /* \"#utility.yul\":22675:22676   */\n      0x01\n        /* \"#utility.yul\":22671:22672   */\n      0x02\n        /* \"#utility.yul\":22663:22669   */\n      dup9\n        /* \"#utility.yul\":22659:22673   */\n      mul\n        /* \"#utility.yul\":22655:22677   */\n      add\n        /* \"#utility.yul\":22649:22653   */\n      dup9\n        /* \"#utility.yul\":22642:22678   */\n      sstore\n        /* \"#utility.yul\":22077:22688   */\n      pop\n      pop\n      pop\n        /* \"#utility.yul\":22040:22927   */\n    tag_468:\n      pop\n        /* \"#utility.yul\":21630:22933   */\n      pop\n      pop\n      pop\n        /* \"#utility.yul\":21538:22933   */\n      pop\n      pop\n      jump\t// out\n        /* \"#utility.yul\":22939:23362   */\n    tag_139:\n        /* \"#utility.yul\":23080:23084   */\n      0x00\n        /* \"#utility.yul\":23118:23120   */\n      0x40\n        /* \"#utility.yul\":23107:23116   */\n      dup3\n        /* \"#utility.yul\":23103:23121   */\n      add\n        /* \"#utility.yul\":23095:23121   */\n      swap1\n      pop\n        /* \"#utility.yul\":23167:23176   */\n      dup2\n        /* \"#utility.yul\":23161:23165   */\n      dup2\n        /* \"#utility.yul\":23157:23177   */\n      sub\n        /* \"#utility.yul\":23153:23154   */\n      0x00\n        /* \"#utility.yul\":23142:23151   */\n      dup4\n        /* \"#utility.yul\":23138:23155   */\n      add\n        /* \"#utility.yul\":23131:23178   */\n      mstore\n        /* \"#utility.yul\":23195:23273   */\n      tag_479\n        /* \"#utility.yul\":23268:23272   */\n      dup2\n        /* \"#utility.yul\":23259:23265   */\n      dup6\n        /* \"#utility.yul\":23195:23273   */\n      tag_192\n      jump\t// in\n    tag_479:\n        /* \"#utility.yul\":23187:23273   */\n      swap1\n      pop\n        /* \"#utility.yul\":23283:23355   */\n      tag_480\n        /* \"#utility.yul\":23351:23353   */\n      0x20\n        /* \"#utility.yul\":23340:23349   */\n      dup4\n        /* \"#utility.yul\":23336:23354   */\n      add\n        /* \"#utility.yul\":23327:23333   */\n      dup5\n        /* \"#utility.yul\":23283:23355   */\n      tag_195\n      jump\t// in\n    tag_480:\n        /* \"#utility.yul\":22939:23362   */\n      swap4\n      swap3\n      pop\n      pop\n      pop\n      jump\t// out\n        /* \"#utility.yul\":23368:23538   */\n    tag_244:\n        /* \"#utility.yul\":23508:23530   */\n      0x50726564696374696f6e206e6f7420666f756e64000000000000000000000000\n        /* \"#utility.yul\":23504:23505   */\n      0x00\n        /* \"#utility.yul\":23496:23502   */\n      dup3\n        /* \"#utility.yul\":23492:23506   */\n      add\n        /* \"#utility.yul\":23485:23531   */\n      mstore\n        /* \"#utility.yul\":23368:23538   */\n      pop\n      jump\t// out\n        /* \"#utility.yul\":23544:23910   */\n    tag_245:\n        /* \"#utility.yul\":23686:23689   */\n      0x00\n        /* \"#utility.yul\":23707:23774   */\n      tag_483\n        /* \"#utility.yul\":23771:23773   */\n      0x14\n        /* \"#utility.yul\":23766:23769   */\n      dup4\n        /* \"#utility.yul\":23707:23774   */\n      tag_189\n      jump\t// in\n    tag_483:\n        /* \"#utility.yul\":23700:23774   */\n      swap2\n      pop\n        /* \"#utility.yul\":23783:23876   */\n      tag_484\n        /* \"#utility.yul\":23872:23875   */\n      dup3\n        /* \"#utility.yul\":23783:23876   */\n      tag_244\n      jump\t// in\n    tag_484:\n        /* \"#utility.yul\":23901:23903   */\n      0x20\n        /* \"#utility.yul\":23896:23899   */\n      dup3\n        /* \"#utility.yul\":23892:23904   */\n      add\n        /* \"#utility.yul\":23885:23904   */\n      swap1\n      pop\n        /* \"#utility.yul\":23544:23910   */\n      swap2\n      swap1\n      pop\n      jump\t// out\n        /* \"#utility.yul\":23916:24335   */\n    tag_145:\n        /* \"#utility.yul\":24082:24086   */\n      0x00\n        /* \"#utility.yul\":24120:24122   */\n      0x20\n        /* \"#utility.yul\":24109:24118   */\n      dup3\n        /* \"#utility.yul\":24105:24123   */\n      add\n        /* \"#utility.yul\":24097:24123   */\n      swap1\n      pop\n        /* \"#utility.yul\":24169:24178   */\n      dup2\n        /* \"#utility.yul\":24163:24167   */\n      dup2\n        /* \"#utility.yul\":24159:24179   */\n      sub\n        /* \"#utility.yul\":24155:24156   */\n      0x00\n        /* \"#utility.yul\":24144:24153   */\n      dup4\n        /* \"#utility.yul\":24140:24157   */\n      add\n        /* \"#utility.yul\":24133:24180   */\n      mstore\n        /* \"#utility.yul\":24197:24328   */\n      tag_486\n        /* \"#utility.yul\":24323:24327   */\n      dup2\n        /* \"#utility.yul\":24197:24328   */\n      tag_245\n      jump\t// in\n    tag_486:\n        /* \"#utility.yul\":24189:24328   */\n      swap1\n      pop\n        /* \"#utility.yul\":23916:24335   */\n      swap2\n      swap1\n      pop\n      jump\t// out\n        /* \"#utility.yul\":24341:24571   */\n    tag_246:\n        /* \"#utility.yul\":24481:24515   */\n      0x4f6e6c792074686520706c617965722063616e20736574746c65207468656972\n        /* \"#utility.yul\":24477:24478   */\n      0x00\n        /* \"#utility.yul\":24469:24475   */\n      dup3\n        /* \"#utility.yul\":24465:24479   */\n      add\n        /* \"#utility.yul\":24458:24516   */\n      mstore\n        /* \"#utility.yul\":24550:24563   */\n      0x2070726564696374696f6e000000000000000000000000000000000000000000\n        /* \"#utility.yul\":24545:24547   */\n      0x20\n        /* \"#utility.yul\":24537:24543   */\n      dup3\n        /* \"#utility.yul\":24533:24548   */\n      add\n        /* \"#utility.yul\":24526:24564   */\n      mstore\n        /* \"#utility.yul\":24341:24571   */\n      pop\n      jump\t// out\n        /* \"#utility.yul\":24577:24943   */\n    tag_247:\n        /* \"#utility.yul\":24719:24722   */\n      0x00\n        /* \"#utility.yul\":24740:24807   */\n      tag_489\n        /* \"#utility.yul\":24804:24806   */\n      0x2b\n        /* \"#utility.yul\":24799:24802   */\n      dup4\n        /* \"#utility.yul\":24740:24807   */\n      tag_189\n      jump\t// in\n    tag_489:\n        /* \"#utility.yul\":24733:24807   */\n      swap2\n      pop\n        /* \"#utility.yul\":24816:24909   */\n      tag_490\n        /* \"#utility.yul\":24905:24908   */\n      dup3\n        /* \"#utility.yul\":24816:24909   */\n      tag_246\n      jump\t// in\n    tag_490:\n        /* \"#utility.yul\":24934:24936   */\n      0x40\n        /* \"#utility.yul\":24929:24932   */\n      dup3\n        /* \"#utility.yul\":24925:24937   */\n      add\n        /* \"#utility.yul\":24918:24937   */\n      swap1\n      pop\n        /* \"#utility.yul\":24577:24943   */\n      swap2\n      swap1\n      pop\n      jump\t// out\n        /* \"#utility.yul\":24949:25368   */\n    tag_149:\n        /* \"#utility.yul\":25115:25119   */\n      0x00\n        /* \"#utility.yul\":25153:25155   */\n      0x20\n        /* \"#utility.yul\":25142:25151   */\n      dup3\n        /* \"#utility.yul\":25138:25156   */\n      add\n        /* \"#utility.yul\":25130:25156   */\n      swap1\n      pop\n        /* \"#utility.yul\":25202:25211   */\n      dup2\n        /* \"#utility.yul\":25196:25200   */\n      dup2\n        /* \"#utility.yul\":25192:25212   */\n      sub\n        /* \"#utility.yul\":25188:25189   */\n      0x00\n        /* \"#utility.yul\":25177:25186   */\n      dup4\n        /* \"#utility.yul\":25173:25190   */\n      add\n        /* \"#utility.yul\":25166:25213   */\n      mstore\n        /* \"#utility.yul\":25230:25361   */\n      tag_492\n        /* \"#utility.yul\":25356:25360   */\n      dup2\n        /* \"#utility.yul\":25230:25361   */\n      tag_247\n      jump\t// in\n    tag_492:\n        /* \"#utility.yul\":25222:25361   */\n      swap1\n      pop\n        /* \"#utility.yul\":24949:25368   */\n      swap2\n      swap1\n      pop\n      jump\t// out\n        /* \"#utility.yul\":25374:25550   */\n    tag_248:\n        /* \"#utility.yul\":25514:25542   */\n      0x50726564696374696f6e20616c726561647920736574746c6564000000000000\n        /* \"#utility.yul\":25510:25511   */\n      0x00\n        /* \"#utility.yul\":25502:25508   */\n      dup3\n        /* \"#utility.yul\":25498:25512   */\n      add\n        /* \"#utility.yul\":25491:25543   */\n      mstore\n        /* \"#utility.yul\":25374:25550   */\n      pop\n      jump\t// out\n        /* \"#utility.yul\":25556:25922   */\n    tag_249:\n        /* \"#utility.yul\":25698:25701   */\n      0x00\n        /* \"#utility.yul\":25719:25786   */\n      tag_495\n        /* \"#utility.yul\":25783:25785   */\n      0x1a\n        /* \"#utility.yul\":25778:25781   */\n      dup4\n        /* \"#utility.yul\":25719:25786   */\n      tag_189\n      jump\t// in\n    tag_495:\n        /* \"#utility.yul\":25712:25786   */\n      swap2\n      pop\n        /* \"#utility.yul\":25795:25888   */\n      tag_496\n        /* \"#utility.yul\":25884:25887   */\n      dup3\n        /* \"#utility.yul\":25795:25888   */\n      tag_248\n      jump\t// in\n    tag_496:\n        /* \"#utility.yul\":25913:25915   */\n      0x20\n        /* \"#utility.yul\":25908:25911   */\n      dup3\n        /* \"#utility.yul\":25904:25916   */\n      add\n        /* \"#utility.yul\":25897:25916   */\n      swap1\n      pop\n        /* \"#utility.yul\":25556:25922   */\n      swap2\n      swap1\n      pop\n      jump\t// out\n        /* \"#utility.yul\":25928:26347   */\n    tag_152:\n        /* \"#utility.yul\":26094:26098   */\n      0x00\n        /* \"#utility.yul\":26132:26134   */\n      0x20\n        /* \"#utility.yul\":26121:26130   */\n      dup3\n        /* \"#utility.yul\":26117:26135   */\n      add\n        /* \"#utility.yul\":26109:26135   */\n      swap1\n      pop\n        /* \"#utility.yul\":26181:26190   */\n      dup2\n        /* \"#utility.yul\":26175:26179   */\n      dup2\n        /* \"#utility.yul\":26171:26191   */\n      sub\n        /* \"#utility.yul\":26167:26168   */\n      0x00\n        /* \"#utility.yul\":26156:26165   */\n      dup4\n        /* \"#utility.yul\":26152:26169   */\n      add\n        /* \"#utility.yul\":26145:26192   */\n      mstore\n        /* \"#utility.yul\":26209:26340   */\n      tag_498\n        /* \"#utility.yul\":26335:26339   */\n      dup2\n        /* \"#utility.yul\":26209:26340   */\n      tag_249\n      jump\t// in\n    tag_498:\n        /* \"#utility.yul\":26201:26340   */\n      swap1\n      pop\n        /* \"#utility.yul\":25928:26347   */\n      swap2\n      swap1\n      pop\n      jump\t// out\n        /* \"#utility.yul\":26353:26501   */\n    tag_250:\n        /* \"#utility.yul\":26455:26466   */\n      0x00\n        /* \"#utility.yul\":26492:26495   */\n      dup2\n        /* \"#utility.yul\":26477:26495   */\n      swap1\n      pop\n        /* \"#utility.yul\":26353:26501   */\n      swap3\n      swap2\n      pop\n      pop\n      jump\t// out\n        /* \"#utility.yul\":26507:26897   */\n    tag_251:\n        /* \"#utility.yul\":26613:26616   */\n      0x00\n        /* \"#utility.yul\":26641:26680   */\n      tag_501\n        /* \"#utility.yul\":26674:26679   */\n      dup3\n        /* \"#utility.yul\":26641:26680   */\n      tag_188\n      jump\t// in\n    tag_501:\n        /* \"#utility.yul\":26696:26785   */\n      tag_502\n        /* \"#utility.yul\":26778:26784   */\n      dup2\n        /* \"#utility.yul\":26773:26776   */\n      dup6\n        /* \"#utility.yul\":26696:26785   */\n      tag_250\n      jump\t// in\n    tag_502:\n        /* \"#utility.yul\":26689:26785   */\n      swap4\n      pop\n        /* \"#utility.yul\":26794:26859   */\n      tag_503\n        /* \"#utility.yul\":26852:26858   */\n      dup2\n        /* \"#utility.yul\":26847:26850   */\n      dup6\n        /* \"#utility.yul\":26840:26844   */\n      0x20\n        /* \"#utility.yul\":26833:26838   */\n      dup7\n        /* \"#utility.yul\":26829:26845   */\n      add\n        /* \"#utility.yul\":26794:26859   */\n      tag_190\n      jump\t// in\n    tag_503:\n        /* \"#utility.yul\":26884:26890   */\n      dup1\n        /* \"#utility.yul\":26879:26882   */\n      dup5\n        /* \"#utility.yul\":26875:26891   */\n      add\n        /* \"#utility.yul\":26868:26891   */\n      swap2\n      pop\n        /* \"#utility.yul\":26617:26897   */\n      pop\n        /* \"#utility.yul\":26507:26897   */\n      swap3\n      swap2\n      pop\n      pop\n      jump\t// out\n        /* \"#utility.yul\":26903:27178   */\n    tag_177:\n        /* \"#utility.yul\":27035:27038   */\n      0x00\n        /* \"#utility.yul\":27057:27152   */\n      tag_505\n        /* \"#utility.yul\":27148:27151   */\n      dup3\n        /* \"#utility.yul\":27139:27145   */\n      dup5\n        /* \"#utility.yul\":27057:27152   */\n      tag_251\n      jump\t// in\n    tag_505:\n        /* \"#utility.yul\":27050:27152   */\n      swap2\n      pop\n        /* \"#utility.yul\":27169:27172   */\n      dup2\n        /* \"#utility.yul\":27162:27172   */\n      swap1\n      pop\n        /* \"#utility.yul\":26903:27178   */\n      swap3\n      swap2\n      pop\n      pop\n      jump\t// out\n\n    auxdata: 0xa26469706673582212202cd364cbd08f168710404a12513e3864c63ce3a5e568ab718a912c402a07551c64736f6c63430008140033\n}\n",
				"bytecode": {
					"linkReferences": {},
					"object": "60806040526001600355348015610014575f80fd5b50335f806101000a81548173ffffffffffffffffffffffffffffffffffffffff021916908373ffffffffffffffffffffffffffffffffffffffff160217905550611e46806100615f395ff3fe608060405234801561000f575f80fd5b50600436106100b1575f3560e01c8063cc6e20a11161006f578063cc6e20a1146101b6578063d8d9292e146101e6578063d939951514610204578063e6ec3cf914610234578063f114c42c14610264578063fe83bece14610294576100b1565b80624fbbb0146100b55780633dcab238146100ea57806359c01ff9146101085780638da5cb5b14610138578063c543931414610156578063c607d15514610186575b5f80fd5b6100cf60048036038101906100ca91906110d4565b6102c4565b6040516100e1969594939291906111f1565b60405180910390f35b6100f26104b9565b6040516100ff9190611265565b60405180910390f35b610122600480360381019061011d91906112a8565b6104c2565b60405161012f9190611265565b60405180910390f35b61014061050b565b60405161014d91906112d3565b60405180910390f35b610170600480360381019061016b91906112a8565b61052e565b60405161017d9190611265565b60405180910390f35b6101a0600480360381019061019b91906112a8565b610637565b6040516101ad91906112ec565b60405180910390f35b6101d060048036038101906101cb91906112a8565b610738565b6040516101dd91906113bc565b60405180910390f35b6101ee6107cb565b6040516101fb9190611265565b60405180910390f35b61021e60048036038101906102199190611508565b6107d1565b60405161022b9190611265565b60405180910390f35b61024e600480360381019061024991906115ac565b610ad7565b60405161025b9190611265565b60405180910390f35b61027e600480360381019061027991906110d4565b610b02565b60405161028b91906112ec565b60405180910390f35b6102ae60048036038101906102a991906110d4565b610cf8565b6040516102bb91906116e4565b60405180910390f35b6001602052805f5260405f205f91509050805f015f9054906101000a900473ffffffffffffffffffffffffffffffffffffffff169080600101805461030890611731565b80601f016020809104026020016040519081016040528092919081815260200182805461033490611731565b801561037f5780601f106103565761010080835404028352916020019161037f565b820191905f5260205f20905b81548152906001019060200180831161036257829003601f168201915b50505050509080600201805461039490611731565b80601f01602080910402602001604051908101604052809291908181526020018280546103c090611731565b801561040b5780601f106103e25761010080835404028352916020019161040b565b820191905f5260205f20905b8154815290600101906020018083116103ee57829003601f168201915b50505050509080600301805461042090611731565b80601f016020809104026020016040519081016040528092919081815260200182805461044c90611731565b80156104975780601f1061046e57610100808354040283529160200191610497565b820191905f5260205f20905b81548152906001019060200180831161047a57829003601f168201915b505050505090806004015f9054906101000a900460ff16908060050154905086565b5f600354905090565b5f60025f8373ffffffffffffffffffffffffffffffffffffffff1673ffffffffffffffffffffffffffffffffffffffff1681526020019081526020015f20805490509050919050565b5f8054906101000a900473ffffffffffffffffffffffffffffffffffffffff1681565b5f805f90505f60025f8573ffffffffffffffffffffffffffffffffffffffff1673ffffffffffffffffffffffffffffffffffffffff1681526020019081526020015f208054806020026020016040519081016040528092919081815260200182805480156105b957602002820191905f5260205f20905b8154815260200190600101908083116105a5575b505050505090505f5b815181101561062c5760015f8383815181106105e1576105e0611761565b5b602002602001015181526020019081526020015f206004015f9054906101000a900460ff16610619578280610615906117bb565b9350505b8080610624906117bb565b9150506105c2565b508192505050919050565b5f8060025f8473ffffffffffffffffffffffffffffffffffffffff1673ffffffffffffffffffffffffffffffffffffffff1681526020019081526020015f208054806020026020016040519081016040528092919081815260200182805480156106be57602002820191905f5260205f20905b8154815260200190600101908083116106aa575b505050505090505f5b815181101561072d5760015f8383815181106106e6576106e5611761565b5b602002602001015181526020019081526020015f206004015f9054906101000a900460ff1661071a57600192505050610733565b8080610725906117bb565b9150506106c7565b505f9150505b919050565b606060025f8373ffffffffffffffffffffffffffffffffffffffff1673ffffffffffffffffffffffffffffffffffffffff1681526020019081526020015f208054806020026020016040519081016040528092919081815260200182805480156107bf57602002820191905f5260205f20905b8154815260200190600101908083116107ab575b50505050509050919050565b60035481565b5f80845111610815576040517f08c379a000000000000000000000000000000000000000000000000000000000815260040161080c9061184c565b60405180910390fd5b5f835111610858576040517f08c379a000000000000000000000000000000000000000000000000000000000815260040161084f906118b4565b60405180910390fd5b5f82511161089b576040517f08c379a00000000000000000000000000000000000000000000000000000000081526004016108929061191c565b60405180910390fd5b6108a58285610fed565b806108b657506108b58284610fed565b5b6108f5576040517f08c379a00000000000000000000000000000000000000000000000000000000081526004016108ec906119aa565b60405180910390fd5b5f600354905060035f81548092919061090d906117bb565b91905055506040518060c001604052803373ffffffffffffffffffffffffffffffffffffffff1681526020018681526020018581526020018481526020015f151581526020014281525060015f8381526020019081526020015f205f820151815f015f6101000a81548173ffffffffffffffffffffffffffffffffffffffff021916908373ffffffffffffffffffffffffffffffffffffffff16021790555060208201518160010190816109c19190611b65565b5060408201518160020190816109d79190611b65565b5060608201518160030190816109ed9190611b65565b506080820151816004015f6101000a81548160ff02191690831515021790555060a0820151816005015590505060025f3373ffffffffffffffffffffffffffffffffffffffff1673ffffffffffffffffffffffffffffffffffffffff1681526020019081526020015f2081908060018154018082558091505060019003905f5260205f20015f90919091909150553373ffffffffffffffffffffffffffffffffffffffff16817f392ef439709f2d653045e528ca853d7505073ed7068b26089bff7582c030067b8542604051610ac4929190611c34565b60405180910390a3809150509392505050565b6002602052815f5260405f208181548110610af0575f80fd5b905f5260205f20015f91509150505481565b5f815f73ffffffffffffffffffffffffffffffffffffffff1660015f8381526020019081526020015f205f015f9054906101000a900473ffffffffffffffffffffffffffffffffffffffff1673ffffffffffffffffffffffffffffffffffffffff1603610ba4576040517f08c379a0000000000000000000000000000000000000000000000000000000008152600401610b9b90611cac565b60405180910390fd5b5f60015f8581526020019081526020015f209050805f015f9054906101000a900473ffffffffffffffffffffffffffffffffffffffff1673ffffffffffffffffffffffffffffffffffffffff163373ffffffffffffffffffffffffffffffffffffffff1614610c48576040517f08c379a0000000000000000000000000000000000000000000000000000000008152600401610c3f90611d3a565b60405180910390fd5b806004015f9054906101000a900460ff1615610c99576040517f08c379a0000000000000000000000000000000000000000000000000000000008152600401610c9090611da2565b60405180910390fd5b6001816004015f6101000a81548160ff021916908315150217905550837fef5875454e539ac83dc89fef7dae980b3dc87a65215339baf0f115c578ea322842604051610ce59190611265565b60405180910390a2600192505050919050565b610d00611045565b815f73ffffffffffffffffffffffffffffffffffffffff1660015f8381526020019081526020015f205f015f9054906101000a900473ffffffffffffffffffffffffffffffffffffffff1673ffffffffffffffffffffffffffffffffffffffff1603610da1576040517f08c379a0000000000000000000000000000000000000000000000000000000008152600401610d9890611cac565b60405180910390fd5b60015f8481526020019081526020015f206040518060c00160405290815f82015f9054906101000a900473ffffffffffffffffffffffffffffffffffffffff1673ffffffffffffffffffffffffffffffffffffffff1673ffffffffffffffffffffffffffffffffffffffff168152602001600182018054610e2190611731565b80601f0160208091040260200160405190810160405280929190818152602001828054610e4d90611731565b8015610e985780601f10610e6f57610100808354040283529160200191610e98565b820191905f5260205f20905b815481529060010190602001808311610e7b57829003601f168201915b50505050508152602001600282018054610eb190611731565b80601f0160208091040260200160405190810160405280929190818152602001828054610edd90611731565b8015610f285780601f10610eff57610100808354040283529160200191610f28565b820191905f5260205f20905b815481529060010190602001808311610f0b57829003601f168201915b50505050508152602001600382018054610f4190611731565b80601f0160208091040260200160405190810160405280929190818152602001828054610f6d90611731565b8015610fb85780601f10610f8f57610100808354040283529160200191610fb8565b820191905f5260205f20905b815481529060010190602001808311610f9b57829003601f168201915b50505050508152602001600482015f9054906101000a900460ff16151515158152602001600582015481525050915050919050565b5f81604051602001610fff9190611dfa565b60405160208183030381529060405280519060200120836040516020016110269190611dfa565b6040516020818303038152906040528051906020012014905092915050565b6040518060c001604052805f73ffffffffffffffffffffffffffffffffffffffff1681526020016060815260200160608152602001606081526020015f151581526020015f81525090565b5f604051905090565b5f80fd5b5f80fd5b5f819050919050565b6110b3816110a1565b81146110bd575f80fd5b50565b5f813590506110ce816110aa565b92915050565b5f602082840312156110e9576110e8611099565b5b5f6110f6848285016110c0565b91505092915050565b5f73ffffffffffffffffffffffffffffffffffffffff82169050919050565b5f611128826110ff565b9050919050565b6111388161111e565b82525050565b5f81519050919050565b5f82825260208201905092915050565b5f5b8381101561117557808201518184015260208101905061115a565b5f8484015250505050565b5f601f19601f8301169050919050565b5f61119a8261113e565b6111a48185611148565b93506111b4818560208601611158565b6111bd81611180565b840191505092915050565b5f8115159050919050565b6111dc816111c8565b82525050565b6111eb816110a1565b82525050565b5f60c0820190506112045f83018961112f565b81810360208301526112168188611190565b9050818103604083015261122a8187611190565b9050818103606083015261123e8186611190565b905061124d60808301856111d3565b61125a60a08301846111e2565b979650505050505050565b5f6020820190506112785f8301846111e2565b92915050565b6112878161111e565b8114611291575f80fd5b50565b5f813590506112a28161127e565b92915050565b5f602082840312156112bd576112bc611099565b5b5f6112ca84828501611294565b91505092915050565b5f6020820190506112e65f83018461112f565b92915050565b5f6020820190506112ff5f8301846111d3565b92915050565b5f81519050919050565b5f82825260208201905092915050565b5f819050602082019050919050565b611337816110a1565b82525050565b5f611348838361132e565b60208301905092915050565b5f602082019050919050565b5f61136a82611305565b611374818561130f565b935061137f8361131f565b805f5b838110156113af578151611396888261133d565b97506113a183611354565b925050600181019050611382565b5085935050505092915050565b5f6020820190508181035f8301526113d48184611360565b905092915050565b5f80fd5b5f80fd5b7f4e487b71000000000000000000000000000000000000000000000000000000005f52604160045260245ffd5b61141a82611180565b810181811067ffffffffffffffff82111715611439576114386113e4565b5b80604052505050565b5f61144b611090565b90506114578282611411565b919050565b5f67ffffffffffffffff821115611476576114756113e4565b5b61147f82611180565b9050602081019050919050565b828183375f83830152505050565b5f6114ac6114a78461145c565b611442565b9050828152602081018484840111156114c8576114c76113e0565b5b6114d384828561148c565b509392505050565b5f82601f8301126114ef576114ee6113dc565b5b81356114ff84826020860161149a565b91505092915050565b5f805f6060848603121561151f5761151e611099565b5b5f84013567ffffffffffffffff81111561153c5761153b61109d565b5b611548868287016114db565b935050602084013567ffffffffffffffff8111156115695761156861109d565b5b611575868287016114db565b925050604084013567ffffffffffffffff8111156115965761159561109d565b5b6115a2868287016114db565b9150509250925092565b5f80604083850312156115c2576115c1611099565b5b5f6115cf85828601611294565b92505060206115e0858286016110c0565b9150509250929050565b6115f38161111e565b82525050565b5f82825260208201905092915050565b5f6116138261113e565b61161d81856115f9565b935061162d818560208601611158565b61163681611180565b840191505092915050565b61164a816111c8565b82525050565b5f60c083015f8301516116655f8601826115ea565b506020830151848203602086015261167d8282611609565b915050604083015184820360408601526116978282611609565b915050606083015184820360608601526116b18282611609565b91505060808301516116c66080860182611641565b5060a08301516116d960a086018261132e565b508091505092915050565b5f6020820190508181035f8301526116fc8184611650565b905092915050565b7f4e487b71000000000000000000000000000000000000000000000000000000005f52602260045260245ffd5b5f600282049050600182168061174857607f821691505b60208210810361175b5761175a611704565b5b50919050565b7f4e487b71000000000000000000000000000000000000000000000000000000005f52603260045260245ffd5b7f4e487b71000000000000000000000000000000000000000000000000000000005f52601160045260245ffd5b5f6117c5826110a1565b91507fffffffffffffffffffffffffffffffffffffffffffffffffffffffffffffffff82036117f7576117f661178e565b5b600182019050919050565b7f636f696e412063616e6e6f7420626520656d70747900000000000000000000005f82015250565b5f611836601583611148565b915061184182611802565b602082019050919050565b5f6020820190508181035f8301526118638161182a565b9050919050565b7f636f696e422063616e6e6f7420626520656d70747900000000000000000000005f82015250565b5f61189e601583611148565b91506118a98261186a565b602082019050919050565b5f6020820190508181035f8301526118cb81611892565b9050919050565b7f70726564696374656457696e6e65722063616e6e6f7420626520656d707479005f82015250565b5f611906601f83611148565b9150611911826118d2565b602082019050919050565b5f6020820190508181035f830152611933816118fa565b9050919050565b7f50726564696374696f6e206d7573742062652065697468657220636f696e41205f8201527f6f7220636f696e42000000000000000000000000000000000000000000000000602082015250565b5f611994602883611148565b915061199f8261193a565b604082019050919050565b5f6020820190508181035f8301526119c181611988565b9050919050565b5f819050815f5260205f209050919050565b5f6020601f8301049050919050565b5f82821b905092915050565b5f60088302611a247fffffffffffffffffffffffffffffffffffffffffffffffffffffffffffffffff826119e9565b611a2e86836119e9565b95508019841693508086168417925050509392505050565b5f819050919050565b5f611a69611a64611a5f846110a1565b611a46565b6110a1565b9050919050565b5f819050919050565b611a8283611a4f565b611a96611a8e82611a70565b8484546119f5565b825550505050565b5f90565b611aaa611a9e565b611ab5818484611a79565b505050565b5b81811015611ad857611acd5f82611aa2565b600181019050611abb565b5050565b601f821115611b1d57611aee816119c8565b611af7846119da565b81016020851015611b06578190505b611b1a611b12856119da565b830182611aba565b50505b505050565b5f82821c905092915050565b5f611b3d5f1984600802611b22565b1980831691505092915050565b5f611b558383611b2e565b9150826002028217905092915050565b611b6e8261113e565b67ffffffffffffffff811115611b8757611b866113e4565b5b611b918254611731565b611b9c828285611adc565b5f60209050601f831160018114611bcd575f8415611bbb578287015190505b611bc58582611b4a565b865550611c2c565b601f198416611bdb866119c8565b5f5b82811015611c0257848901518255600182019150602085019450602081019050611bdd565b86831015611c1f5784890151611c1b601f891682611b2e565b8355505b6001600288020188555050505b505050505050565b5f6040820190508181035f830152611c4c8185611190565b9050611c5b60208301846111e2565b9392505050565b7f50726564696374696f6e206e6f7420666f756e640000000000000000000000005f82015250565b5f611c96601483611148565b9150611ca182611c62565b602082019050919050565b5f6020820190508181035f830152611cc381611c8a565b9050919050565b7f4f6e6c792074686520706c617965722063616e20736574746c652074686569725f8201527f2070726564696374696f6e000000000000000000000000000000000000000000602082015250565b5f611d24602b83611148565b9150611d2f82611cca565b604082019050919050565b5f6020820190508181035f830152611d5181611d18565b9050919050565b7f50726564696374696f6e20616c726561647920736574746c65640000000000005f82015250565b5f611d8c601a83611148565b9150611d9782611d58565b602082019050919050565b5f6020820190508181035f830152611db981611d80565b9050919050565b5f81905092915050565b5f611dd48261113e565b611dde8185611dc0565b9350611dee818560208601611158565b80840191505092915050565b5f611e058284611dca565b91508190509291505056fea26469706673582212202cd364cbd08f168710404a12513e3864c63ce3a5e568ab718a912c402a07551c64736f6c63430008140033",
					"opcodes": "PUSH1 0x80 PUSH1 0x40 MSTORE PUSH1 0x1 PUSH1 0x3 SSTORE CALLVALUE DUP1 ISZERO PUSH2 0x14 JUMPI PUSH0 DUP1 REVERT JUMPDEST POP CALLER PUSH0 DUP1 PUSH2 0x100 EXP DUP2 SLOAD DUP2 PUSH20 0xFFFFFFFFFFFFFFFFFFFFFFFFFFFFFFFFFFFFFFFF MUL NOT AND SWAP1 DUP4 PUSH20 0xFFFFFFFFFFFFFFFFFFFFFFFFFFFFFFFFFFFFFFFF AND MUL OR SWAP1 SSTORE POP PUSH2 0x1E46 DUP1 PUSH2 0x61 PUSH0 CODECOPY PUSH0 RETURN INVALID PUSH1 0x80 PUSH1 0x40 MSTORE CALLVALUE DUP1 ISZERO PUSH2 0xF JUMPI PUSH0 DUP1 REVERT JUMPDEST POP PUSH1 0x4 CALLDATASIZE LT PUSH2 0xB1 JUMPI PUSH0 CALLDATALOAD PUSH1 0xE0 SHR DUP1 PUSH4 0xCC6E20A1 GT PUSH2 0x6F JUMPI DUP1 PUSH4 0xCC6E20A1 EQ PUSH2 0x1B6 JUMPI DUP1 PUSH4 0xD8D9292E EQ PUSH2 0x1E6 JUMPI DUP1 PUSH4 0xD9399515 EQ PUSH2 0x204 JUMPI DUP1 PUSH4 0xE6EC3CF9 EQ PUSH2 0x234 JUMPI DUP1 PUSH4 0xF114C42C EQ PUSH2 0x264 JUMPI DUP1 PUSH4 0xFE83BECE EQ PUSH2 0x294 JUMPI PUSH2 0xB1 JUMP JUMPDEST DUP1 PUSH3 0x4FBBB0 EQ PUSH2 0xB5 JUMPI DUP1 PUSH4 0x3DCAB238 EQ PUSH2 0xEA JUMPI DUP1 PUSH4 0x59C01FF9 EQ PUSH2 0x108 JUMPI DUP1 PUSH4 0x8DA5CB5B EQ PUSH2 0x138 JUMPI DUP1 PUSH4 0xC5439314 EQ PUSH2 0x156 JUMPI DUP1 PUSH4 0xC607D155 EQ PUSH2 0x186 JUMPI JUMPDEST PUSH0 DUP1 REVERT JUMPDEST PUSH2 0xCF PUSH1 0x4 DUP1 CALLDATASIZE SUB DUP2 ADD SWAP1 PUSH2 0xCA SWAP2 SWAP1 PUSH2 0x10D4 JUMP JUMPDEST PUSH2 0x2C4 JUMP JUMPDEST PUSH1 0x40 MLOAD PUSH2 0xE1 SWAP7 SWAP6 SWAP5 SWAP4 SWAP3 SWAP2 SWAP1 PUSH2 0x11F1 JUMP JUMPDEST PUSH1 0x40 MLOAD DUP1 SWAP2 SUB SWAP1 RETURN JUMPDEST PUSH2 0xF2 PUSH2 0x4B9 JUMP JUMPDEST PUSH1 0x40 MLOAD PUSH2 0xFF SWAP2 SWAP1 PUSH2 0x1265 JUMP JUMPDEST PUSH1 0x40 MLOAD DUP1 SWAP2 SUB SWAP1 RETURN JUMPDEST PUSH2 0x122 PUSH1 0x4 DUP1 CALLDATASIZE SUB DUP2 ADD SWAP1 PUSH2 0x11D SWAP2 SWAP1 PUSH2 0x12A8 JUMP JUMPDEST PUSH2 0x4C2 JUMP JUMPDEST PUSH1 0x40 MLOAD PUSH2 0x12F SWAP2 SWAP1 PUSH2 0x1265 JUMP JUMPDEST PUSH1 0x40 MLOAD DUP1 SWAP2 SUB SWAP1 RETURN JUMPDEST PUSH2 0x140 PUSH2 0x50B JUMP JUMPDEST PUSH1 0x40 MLOAD PUSH2 0x14D SWAP2 SWAP1 PUSH2 0x12D3 JUMP JUMPDEST PUSH1 0x40 MLOAD DUP1 SWAP2 SUB SWAP1 RETURN JUMPDEST PUSH2 0x170 PUSH1 0x4 DUP1 CALLDATASIZE SUB DUP2 ADD SWAP1 PUSH2 0x16B SWAP2 SWAP1 PUSH2 0x12A8 JUMP JUMPDEST PUSH2 0x52E JUMP JUMPDEST PUSH1 0x40 MLOAD PUSH2 0x17D SWAP2 SWAP1 PUSH2 0x1265 JUMP JUMPDEST PUSH1 0x40 MLOAD DUP1 SWAP2 SUB SWAP1 RETURN JUMPDEST PUSH2 0x1A0 PUSH1 0x4 DUP1 CALLDATASIZE SUB DUP2 ADD SWAP1 PUSH2 0x19B SWAP2 SWAP1 PUSH2 0x12A8 JUMP JUMPDEST PUSH2 0x637 JUMP JUMPDEST PUSH1 0x40 MLOAD PUSH2 0x1AD SWAP2 SWAP1 PUSH2 0x12EC JUMP JUMPDEST PUSH1 0x40 MLOAD DUP1 SWAP2 SUB SWAP1 RETURN JUMPDEST PUSH2 0x1D0 PUSH1 0x4 DUP1 CALLDATASIZE SUB DUP2 ADD SWAP1 PUSH2 0x1CB SWAP2 SWAP1 PUSH2 0x12A8 JUMP JUMPDEST PUSH2 0x738 JUMP JUMPDEST PUSH1 0x40 MLOAD PUSH2 0x1DD SWAP2 SWAP1 PUSH2 0x13BC JUMP JUMPDEST PUSH1 0x40 MLOAD DUP1 SWAP2 SUB SWAP1 RETURN JUMPDEST PUSH2 0x1EE PUSH2 0x7CB JUMP JUMPDEST PUSH1 0x40 MLOAD PUSH2 0x1FB SWAP2 SWAP1 PUSH2 0x1265 JUMP JUMPDEST PUSH1 0x40 MLOAD DUP1 SWAP2 SUB SWAP1 RETURN JUMPDEST PUSH2 0x21E PUSH1 0x4 DUP1 CALLDATASIZE SUB DUP2 ADD SWAP1 PUSH2 0x219 SWAP2 SWAP1 PUSH2 0x1508 JUMP JUMPDEST PUSH2 0x7D1 JUMP JUMPDEST PUSH1 0x40 MLOAD PUSH2 0x22B SWAP2 SWAP1 PUSH2 0x1265 JUMP JUMPDEST PUSH1 0x40 MLOAD DUP1 SWAP2 SUB SWAP1 RETURN JUMPDEST PUSH2 0x24E PUSH1 0x4 DUP1 CALLDATASIZE SUB DUP2 ADD SWAP1 PUSH2 0x249 SWAP2 SWAP1 PUSH2 0x15AC JUMP JUMPDEST PUSH2 0xAD7 JUMP JUMPDEST PUSH1 0x40 MLOAD PUSH2 0x25B SWAP2 SWAP1 PUSH2 0x1265 JUMP JUMPDEST PUSH1 0x40 MLOAD DUP1 SWAP2 SUB SWAP1 RETURN JUMPDEST PUSH2 0x27E PUSH1 0x4 DUP1 CALLDATASIZE SUB DUP2 ADD SWAP1 PUSH2 0x279 SWAP2 SWAP1 PUSH2 0x10D4 JUMP JUMPDEST PUSH2 0xB02 JUMP JUMPDEST PUSH1 0x40 MLOAD PUSH2 0x28B SWAP2 SWAP1 PUSH2 0x12EC JUMP JUMPDEST PUSH1 0x40 MLOAD DUP1 SWAP2 SUB SWAP1 RETURN JUMPDEST PUSH2 0x2AE PUSH1 0x4 DUP1 CALLDATASIZE SUB DUP2 ADD SWAP1 PUSH2 0x2A9 SWAP2 SWAP1 PUSH2 0x10D4 JUMP JUMPDEST PUSH2 0xCF8 JUMP JUMPDEST PUSH1 0x40 MLOAD PUSH2 0x2BB SWAP2 SWAP1 PUSH2 0x16E4 JUMP JUMPDEST PUSH1 0x40 MLOAD DUP1 SWAP2 SUB SWAP1 RETURN JUMPDEST PUSH1 0x1 PUSH1 0x20 MSTORE DUP1 PUSH0 MSTORE PUSH1 0x40 PUSH0 KECCAK256 PUSH0 SWAP2 POP SWAP1 POP DUP1 PUSH0 ADD PUSH0 SWAP1 SLOAD SWAP1 PUSH2 0x100 EXP SWAP1 DIV PUSH20 0xFFFFFFFFFFFFFFFFFFFFFFFFFFFFFFFFFFFFFFFF AND SWAP1 DUP1 PUSH1 0x1 ADD DUP1 SLOAD PUSH2 0x308 SWAP1 PUSH2 0x1731 JUMP JUMPDEST DUP1 PUSH1 0x1F ADD PUSH1 0x20 DUP1 SWAP2 DIV MUL PUSH1 0x20 ADD PUSH1 0x40 MLOAD SWAP1 DUP2 ADD PUSH1 0x40 MSTORE DUP1 SWAP3 SWAP2 SWAP1 DUP2 DUP2 MSTORE PUSH1 0x20 ADD DUP3 DUP1 SLOAD PUSH2 0x334 SWAP1 PUSH2 0x1731 JUMP JUMPDEST DUP1 ISZERO PUSH2 0x37F JUMPI DUP1 PUSH1 0x1F LT PUSH2 0x356 JUMPI PUSH2 0x100 DUP1 DUP4 SLOAD DIV MUL DUP4 MSTORE SWAP2 PUSH1 0x20 ADD SWAP2 PUSH2 0x37F JUMP JUMPDEST DUP3 ADD SWAP2 SWAP1 PUSH0 MSTORE PUSH1 0x20 PUSH0 KECCAK256 SWAP1 JUMPDEST DUP2 SLOAD DUP2 MSTORE SWAP1 PUSH1 0x1 ADD SWAP1 PUSH1 0x20 ADD DUP1 DUP4 GT PUSH2 0x362 JUMPI DUP3 SWAP1 SUB PUSH1 0x1F AND DUP3 ADD SWAP2 JUMPDEST POP POP POP POP POP SWAP1 DUP1 PUSH1 0x2 ADD DUP1 SLOAD PUSH2 0x394 SWAP1 PUSH2 0x1731 JUMP JUMPDEST DUP1 PUSH1 0x1F ADD PUSH1 0x20 DUP1 SWAP2 DIV MUL PUSH1 0x20 ADD PUSH1 0x40 MLOAD SWAP1 DUP2 ADD PUSH1 0x40 MSTORE DUP1 SWAP3 SWAP2 SWAP1 DUP2 DUP2 MSTORE PUSH1 0x20 ADD DUP3 DUP1 SLOAD PUSH2 0x3C0 SWAP1 PUSH2 0x1731 JUMP JUMPDEST DUP1 ISZERO PUSH2 0x40B JUMPI DUP1 PUSH1 0x1F LT PUSH2 0x3E2 JUMPI PUSH2 0x100 DUP1 DUP4 SLOAD DIV MUL DUP4 MSTORE SWAP2 PUSH1 0x20 ADD SWAP2 PUSH2 0x40B JUMP JUMPDEST DUP3 ADD SWAP2 SWAP1 PUSH0 MSTORE PUSH1 0x20 PUSH0 KECCAK256 SWAP1 JUMPDEST DUP2 SLOAD DUP2 MSTORE SWAP1 PUSH1 0x1 ADD SWAP1 PUSH1 0x20 ADD DUP1 DUP4 GT PUSH2 0x3EE JUMPI DUP3 SWAP1 SUB PUSH1 0x1F AND DUP3 ADD SWAP2 JUMPDEST POP POP POP POP POP SWAP1 DUP1 PUSH1 0x3 ADD DUP1 SLOAD PUSH2 0x420 SWAP1 PUSH2 0x1731 JUMP JUMPDEST DUP1 PUSH1 0x1F ADD PUSH1 0x20 DUP1 SWAP2 DIV MUL PUSH1 0x20 ADD PUSH1 0x40 MLOAD SWAP1 DUP2 ADD PUSH1 0x40 MSTORE DUP1 SWAP3 SWAP2 SWAP1 DUP2 DUP2 MSTORE PUSH1 0x20 ADD DUP3 DUP1 SLOAD PUSH2 0x44C SWAP1 PUSH2 0x1731 JUMP JUMPDEST DUP1 ISZERO PUSH2 0x497 JUMPI DUP1 PUSH1 0x1F LT PUSH2 0x46E JUMPI PUSH2 0x100 DUP1 DUP4 SLOAD DIV MUL DUP4 MSTORE SWAP2 PUSH1 0x20 ADD SWAP2 PUSH2 0x497 JUMP JUMPDEST DUP3 ADD SWAP2 SWAP1 PUSH0 MSTORE PUSH1 0x20 PUSH0 KECCAK256 SWAP1 JUMPDEST DUP2 SLOAD DUP2 MSTORE SWAP1 PUSH1 0x1 ADD SWAP1 PUSH1 0x20 ADD DUP1 DUP4 GT PUSH2 0x47A JUMPI DUP3 SWAP1 SUB PUSH1 0x1F AND DUP3 ADD SWAP2 JUMPDEST POP POP POP POP POP SWAP1 DUP1 PUSH1 0x4 ADD PUSH0 SWAP1 SLOAD SWAP1 PUSH2 0x100 EXP SWAP1 DIV PUSH1 0xFF AND SWAP1 DUP1 PUSH1 0x5 ADD SLOAD SWAP1 POP DUP7 JUMP JUMPDEST PUSH0 PUSH1 0x3 SLOAD SWAP1 POP SWAP1 JUMP JUMPDEST PUSH0 PUSH1 0x2 PUSH0 DUP4 PUSH20 0xFFFFFFFFFFFFFFFFFFFFFFFFFFFFFFFFFFFFFFFF AND PUSH20 0xFFFFFFFFFFFFFFFFFFFFFFFFFFFFFFFFFFFFFFFF AND DUP2 MSTORE PUSH1 0x20 ADD SWAP1 DUP2 MSTORE PUSH1 0x20 ADD PUSH0 KECCAK256 DUP1 SLOAD SWAP1 POP SWAP1 POP SWAP2 SWAP1 POP JUMP JUMPDEST PUSH0 DUP1 SLOAD SWAP1 PUSH2 0x100 EXP SWAP1 DIV PUSH20 0xFFFFFFFFFFFFFFFFFFFFFFFFFFFFFFFFFFFFFFFF AND DUP2 JUMP JUMPDEST PUSH0 DUP1 PUSH0 SWAP1 POP PUSH0 PUSH1 0x2 PUSH0 DUP6 PUSH20 0xFFFFFFFFFFFFFFFFFFFFFFFFFFFFFFFFFFFFFFFF AND PUSH20 0xFFFFFFFFFFFFFFFFFFFFFFFFFFFFFFFFFFFFFFFF AND DUP2 MSTORE PUSH1 0x20 ADD SWAP1 DUP2 MSTORE PUSH1 0x20 ADD PUSH0 KECCAK256 DUP1 SLOAD DUP1 PUSH1 0x20 MUL PUSH1 0x20 ADD PUSH1 0x40 MLOAD SWAP1 DUP2 ADD PUSH1 0x40 MSTORE DUP1 SWAP3 SWAP2 SWAP1 DUP2 DUP2 MSTORE PUSH1 0x20 ADD DUP3 DUP1 SLOAD DUP1 ISZERO PUSH2 0x5B9 JUMPI PUSH1 0x20 MUL DUP3 ADD SWAP2 SWAP1 PUSH0 MSTORE PUSH1 0x20 PUSH0 KECCAK256 SWAP1 JUMPDEST DUP2 SLOAD DUP2 MSTORE PUSH1 0x20 ADD SWAP1 PUSH1 0x1 ADD SWAP1 DUP1 DUP4 GT PUSH2 0x5A5 JUMPI JUMPDEST POP POP POP POP POP SWAP1 POP PUSH0 JUMPDEST DUP2 MLOAD DUP2 LT ISZERO PUSH2 0x62C JUMPI PUSH1 0x1 PUSH0 DUP4 DUP4 DUP2 MLOAD DUP2 LT PUSH2 0x5E1 JUMPI PUSH2 0x5E0 PUSH2 0x1761 JUMP JUMPDEST JUMPDEST PUSH1 0x20 MUL PUSH1 0x20 ADD ADD MLOAD DUP2 MSTORE PUSH1 0x20 ADD SWAP1 DUP2 MSTORE PUSH1 0x20 ADD PUSH0 KECCAK256 PUSH1 0x4 ADD PUSH0 SWAP1 SLOAD SWAP1 PUSH2 0x100 EXP SWAP1 DIV PUSH1 0xFF AND PUSH2 0x619 JUMPI DUP3 DUP1 PUSH2 0x615 SWAP1 PUSH2 0x17BB JUMP JUMPDEST SWAP4 POP POP JUMPDEST DUP1 DUP1 PUSH2 0x624 SWAP1 PUSH2 0x17BB JUMP JUMPDEST SWAP2 POP POP PUSH2 0x5C2 JUMP JUMPDEST POP DUP2 SWAP3 POP POP POP SWAP2 SWAP1 POP JUMP JUMPDEST PUSH0 DUP1 PUSH1 0x2 PUSH0 DUP5 PUSH20 0xFFFFFFFFFFFFFFFFFFFFFFFFFFFFFFFFFFFFFFFF AND PUSH20 0xFFFFFFFFFFFFFFFFFFFFFFFFFFFFFFFFFFFFFFFF AND DUP2 MSTORE PUSH1 0x20 ADD SWAP1 DUP2 MSTORE PUSH1 0x20 ADD PUSH0 KECCAK256 DUP1 SLOAD DUP1 PUSH1 0x20 MUL PUSH1 0x20 ADD PUSH1 0x40 MLOAD SWAP1 DUP2 ADD PUSH1 0x40 MSTORE DUP1 SWAP3 SWAP2 SWAP1 DUP2 DUP2 MSTORE PUSH1 0x20 ADD DUP3 DUP1 SLOAD DUP1 ISZERO PUSH2 0x6BE JUMPI PUSH1 0x20 MUL DUP3 ADD SWAP2 SWAP1 PUSH0 MSTORE PUSH1 0x20 PUSH0 KECCAK256 SWAP1 JUMPDEST DUP2 SLOAD DUP2 MSTORE PUSH1 0x20 ADD SWAP1 PUSH1 0x1 ADD SWAP1 DUP1 DUP4 GT PUSH2 0x6AA JUMPI JUMPDEST POP POP POP POP POP SWAP1 POP PUSH0 JUMPDEST DUP2 MLOAD DUP2 LT ISZERO PUSH2 0x72D JUMPI PUSH1 0x1 PUSH0 DUP4 DUP4 DUP2 MLOAD DUP2 LT PUSH2 0x6E6 JUMPI PUSH2 0x6E5 PUSH2 0x1761 JUMP JUMPDEST JUMPDEST PUSH1 0x20 MUL PUSH1 0x20 ADD ADD MLOAD DUP2 MSTORE PUSH1 0x20 ADD SWAP1 DUP2 MSTORE PUSH1 0x20 ADD PUSH0 KECCAK256 PUSH1 0x4 ADD PUSH0 SWAP1 SLOAD SWAP1 PUSH2 0x100 EXP SWAP1 DIV PUSH1 0xFF AND PUSH2 0x71A JUMPI PUSH1 0x1 SWAP3 POP POP POP PUSH2 0x733 JUMP JUMPDEST DUP1 DUP1 PUSH2 0x725 SWAP1 PUSH2 0x17BB JUMP JUMPDEST SWAP2 POP POP PUSH2 0x6C7 JUMP JUMPDEST POP PUSH0 SWAP2 POP POP JUMPDEST SWAP2 SWAP1 POP JUMP JUMPDEST PUSH1 0x60 PUSH1 0x2 PUSH0 DUP4 PUSH20 0xFFFFFFFFFFFFFFFFFFFFFFFFFFFFFFFFFFFFFFFF AND PUSH20 0xFFFFFFFFFFFFFFFFFFFFFFFFFFFFFFFFFFFFFFFF AND DUP2 MSTORE PUSH1 0x20 ADD SWAP1 DUP2 MSTORE PUSH1 0x20 ADD PUSH0 KECCAK256 DUP1 SLOAD DUP1 PUSH1 0x20 MUL PUSH1 0x20 ADD PUSH1 0x40 MLOAD SWAP1 DUP2 ADD PUSH1 0x40 MSTORE DUP1 SWAP3 SWAP2 SWAP1 DUP2 DUP2 MSTORE PUSH1 0x20 ADD DUP3 DUP1 SLOAD DUP1 ISZERO PUSH2 0x7BF JUMPI PUSH1 0x20 MUL DUP3 ADD SWAP2 SWAP1 PUSH0 MSTORE PUSH1 0x20 PUSH0 KECCAK256 SWAP1 JUMPDEST DUP2 SLOAD DUP2 MSTORE PUSH1 0x20 ADD SWAP1 PUSH1 0x1 ADD SWAP1 DUP1 DUP4 GT PUSH2 0x7AB JUMPI JUMPDEST POP POP POP POP POP SWAP1 POP SWAP2 SWAP1 POP JUMP JUMPDEST PUSH1 0x3 SLOAD DUP2 JUMP JUMPDEST PUSH0 DUP1 DUP5 MLOAD GT PUSH2 0x815 JUMPI PUSH1 0x40 MLOAD PUSH32 0x8C379A000000000000000000000000000000000000000000000000000000000 DUP2 MSTORE PUSH1 0x4 ADD PUSH2 0x80C SWAP1 PUSH2 0x184C JUMP JUMPDEST PUSH1 0x40 MLOAD DUP1 SWAP2 SUB SWAP1 REVERT JUMPDEST PUSH0 DUP4 MLOAD GT PUSH2 0x858 JUMPI PUSH1 0x40 MLOAD PUSH32 0x8C379A000000000000000000000000000000000000000000000000000000000 DUP2 MSTORE PUSH1 0x4 ADD PUSH2 0x84F SWAP1 PUSH2 0x18B4 JUMP JUMPDEST PUSH1 0x40 MLOAD DUP1 SWAP2 SUB SWAP1 REVERT JUMPDEST PUSH0 DUP3 MLOAD GT PUSH2 0x89B JUMPI PUSH1 0x40 MLOAD PUSH32 0x8C379A000000000000000000000000000000000000000000000000000000000 DUP2 MSTORE PUSH1 0x4 ADD PUSH2 0x892 SWAP1 PUSH2 0x191C JUMP JUMPDEST PUSH1 0x40 MLOAD DUP1 SWAP2 SUB SWAP1 REVERT JUMPDEST PUSH2 0x8A5 DUP3 DUP6 PUSH2 0xFED JUMP JUMPDEST DUP1 PUSH2 0x8B6 JUMPI POP PUSH2 0x8B5 DUP3 DUP5 PUSH2 0xFED JUMP JUMPDEST JUMPDEST PUSH2 0x8F5 JUMPI PUSH1 0x40 MLOAD PUSH32 0x8C379A000000000000000000000000000000000000000000000000000000000 DUP2 MSTORE PUSH1 0x4 ADD PUSH2 0x8EC SWAP1 PUSH2 0x19AA JUMP JUMPDEST PUSH1 0x40 MLOAD DUP1 SWAP2 SUB SWAP1 REVERT JUMPDEST PUSH0 PUSH1 0x3 SLOAD SWAP1 POP PUSH1 0x3 PUSH0 DUP2 SLOAD DUP1 SWAP3 SWAP2 SWAP1 PUSH2 0x90D SWAP1 PUSH2 0x17BB JUMP JUMPDEST SWAP2 SWAP1 POP SSTORE POP PUSH1 0x40 MLOAD DUP1 PUSH1 0xC0 ADD PUSH1 0x40 MSTORE DUP1 CALLER PUSH20 0xFFFFFFFFFFFFFFFFFFFFFFFFFFFFFFFFFFFFFFFF AND DUP2 MSTORE PUSH1 0x20 ADD DUP7 DUP2 MSTORE PUSH1 0x20 ADD DUP6 DUP2 MSTORE PUSH1 0x20 ADD DUP5 DUP2 MSTORE PUSH1 0x20 ADD PUSH0 ISZERO ISZERO DUP2 MSTORE PUSH1 0x20 ADD TIMESTAMP DUP2 MSTORE POP PUSH1 0x1 PUSH0 DUP4 DUP2 MSTORE PUSH1 0x20 ADD SWAP1 DUP2 MSTORE PUSH1 0x20 ADD PUSH0 KECCAK256 PUSH0 DUP3 ADD MLOAD DUP2 PUSH0 ADD PUSH0 PUSH2 0x100 EXP DUP2 SLOAD DUP2 PUSH20 0xFFFFFFFFFFFFFFFFFFFFFFFFFFFFFFFFFFFFFFFF MUL NOT AND SWAP1 DUP4 PUSH20 0xFFFFFFFFFFFFFFFFFFFFFFFFFFFFFFFFFFFFFFFF AND MUL OR SWAP1 SSTORE POP PUSH1 0x20 DUP3 ADD MLOAD DUP2 PUSH1 0x1 ADD SWAP1 DUP2 PUSH2 0x9C1 SWAP2 SWAP1 PUSH2 0x1B65 JUMP JUMPDEST POP PUSH1 0x40 DUP3 ADD MLOAD DUP2 PUSH1 0x2 ADD SWAP1 DUP2 PUSH2 0x9D7 SWAP2 SWAP1 PUSH2 0x1B65 JUMP JUMPDEST POP PUSH1 0x60 DUP3 ADD MLOAD DUP2 PUSH1 0x3 ADD SWAP1 DUP2 PUSH2 0x9ED SWAP2 SWAP1 PUSH2 0x1B65 JUMP JUMPDEST POP PUSH1 0x80 DUP3 ADD MLOAD DUP2 PUSH1 0x4 ADD PUSH0 PUSH2 0x100 EXP DUP2 SLOAD DUP2 PUSH1 0xFF MUL NOT AND SWAP1 DUP4 ISZERO ISZERO MUL OR SWAP1 SSTORE POP PUSH1 0xA0 DUP3 ADD MLOAD DUP2 PUSH1 0x5 ADD SSTORE SWAP1 POP POP PUSH1 0x2 PUSH0 CALLER PUSH20 0xFFFFFFFFFFFFFFFFFFFFFFFFFFFFFFFFFFFFFFFF AND PUSH20 0xFFFFFFFFFFFFFFFFFFFFFFFFFFFFFFFFFFFFFFFF AND DUP2 MSTORE PUSH1 0x20 ADD SWAP1 DUP2 MSTORE PUSH1 0x20 ADD PUSH0 KECCAK256 DUP2 SWAP1 DUP1 PUSH1 0x1 DUP2 SLOAD ADD DUP1 DUP3 SSTORE DUP1 SWAP2 POP POP PUSH1 0x1 SWAP1 SUB SWAP1 PUSH0 MSTORE PUSH1 0x20 PUSH0 KECCAK256 ADD PUSH0 SWAP1 SWAP2 SWAP1 SWAP2 SWAP1 SWAP2 POP SSTORE CALLER PUSH20 0xFFFFFFFFFFFFFFFFFFFFFFFFFFFFFFFFFFFFFFFF AND DUP2 PUSH32 0x392EF439709F2D653045E528CA853D7505073ED7068B26089BFF7582C030067B DUP6 TIMESTAMP PUSH1 0x40 MLOAD PUSH2 0xAC4 SWAP3 SWAP2 SWAP1 PUSH2 0x1C34 JUMP JUMPDEST PUSH1 0x40 MLOAD DUP1 SWAP2 SUB SWAP1 LOG3 DUP1 SWAP2 POP POP SWAP4 SWAP3 POP POP POP JUMP JUMPDEST PUSH1 0x2 PUSH1 0x20 MSTORE DUP2 PUSH0 MSTORE PUSH1 0x40 PUSH0 KECCAK256 DUP2 DUP2 SLOAD DUP2 LT PUSH2 0xAF0 JUMPI PUSH0 DUP1 REVERT JUMPDEST SWAP1 PUSH0 MSTORE PUSH1 0x20 PUSH0 KECCAK256 ADD PUSH0 SWAP2 POP SWAP2 POP POP SLOAD DUP2 JUMP JUMPDEST PUSH0 DUP2 PUSH0 PUSH20 0xFFFFFFFFFFFFFFFFFFFFFFFFFFFFFFFFFFFFFFFF AND PUSH1 0x1 PUSH0 DUP4 DUP2 MSTORE PUSH1 0x20 ADD SWAP1 DUP2 MSTORE PUSH1 0x20 ADD PUSH0 KECCAK256 PUSH0 ADD PUSH0 SWAP1 SLOAD SWAP1 PUSH2 0x100 EXP SWAP1 DIV PUSH20 0xFFFFFFFFFFFFFFFFFFFFFFFFFFFFFFFFFFFFFFFF AND PUSH20 0xFFFFFFFFFFFFFFFFFFFFFFFFFFFFFFFFFFFFFFFF AND SUB PUSH2 0xBA4 JUMPI PUSH1 0x40 MLOAD PUSH32 0x8C379A000000000000000000000000000000000000000000000000000000000 DUP2 MSTORE PUSH1 0x4 ADD PUSH2 0xB9B SWAP1 PUSH2 0x1CAC JUMP JUMPDEST PUSH1 0x40 MLOAD DUP1 SWAP2 SUB SWAP1 REVERT JUMPDEST PUSH0 PUSH1 0x1 PUSH0 DUP6 DUP2 MSTORE PUSH1 0x20 ADD SWAP1 DUP2 MSTORE PUSH1 0x20 ADD PUSH0 KECCAK256 SWAP1 POP DUP1 PUSH0 ADD PUSH0 SWAP1 SLOAD SWAP1 PUSH2 0x100 EXP SWAP1 DIV PUSH20 0xFFFFFFFFFFFFFFFFFFFFFFFFFFFFFFFFFFFFFFFF AND PUSH20 0xFFFFFFFFFFFFFFFFFFFFFFFFFFFFFFFFFFFFFFFF AND CALLER PUSH20 0xFFFFFFFFFFFFFFFFFFFFFFFFFFFFFFFFFFFFFFFF AND EQ PUSH2 0xC48 JUMPI PUSH1 0x40 MLOAD PUSH32 0x8C379A000000000000000000000000000000000000000000000000000000000 DUP2 MSTORE PUSH1 0x4 ADD PUSH2 0xC3F SWAP1 PUSH2 0x1D3A JUMP JUMPDEST PUSH1 0x40 MLOAD DUP1 SWAP2 SUB SWAP1 REVERT JUMPDEST DUP1 PUSH1 0x4 ADD PUSH0 SWAP1 SLOAD SWAP1 PUSH2 0x100 EXP SWAP1 DIV PUSH1 0xFF AND ISZERO PUSH2 0xC99 JUMPI PUSH1 0x40 MLOAD PUSH32 0x8C379A000000000000000000000000000000000000000000000000000000000 DUP2 MSTORE PUSH1 0x4 ADD PUSH2 0xC90 SWAP1 PUSH2 0x1DA2 JUMP JUMPDEST PUSH1 0x40 MLOAD DUP1 SWAP2 SUB SWAP1 REVERT JUMPDEST PUSH1 0x1 DUP2 PUSH1 0x4 ADD PUSH0 PUSH2 0x100 EXP DUP2 SLOAD DUP2 PUSH1 0xFF MUL NOT AND SWAP1 DUP4 ISZERO ISZERO MUL OR SWAP1 SSTORE POP DUP4 PUSH32 0xEF5875454E539AC83DC89FEF7DAE980B3DC87A65215339BAF0F115C578EA3228 TIMESTAMP PUSH1 0x40 MLOAD PUSH2 0xCE5 SWAP2 SWAP1 PUSH2 0x1265 JUMP JUMPDEST PUSH1 0x40 MLOAD DUP1 SWAP2 SUB SWAP1 LOG2 PUSH1 0x1 SWAP3 POP POP POP SWAP2 SWAP1 POP JUMP JUMPDEST PUSH2 0xD00 PUSH2 0x1045 JUMP JUMPDEST DUP2 PUSH0 PUSH20 0xFFFFFFFFFFFFFFFFFFFFFFFFFFFFFFFFFFFFFFFF AND PUSH1 0x1 PUSH0 DUP4 DUP2 MSTORE PUSH1 0x20 ADD SWAP1 DUP2 MSTORE PUSH1 0x20 ADD PUSH0 KECCAK256 PUSH0 ADD PUSH0 SWAP1 SLOAD SWAP1 PUSH2 0x100 EXP SWAP1 DIV PUSH20 0xFFFFFFFFFFFFFFFFFFFFFFFFFFFFFFFFFFFFFFFF AND PUSH20 0xFFFFFFFFFFFFFFFFFFFFFFFFFFFFFFFFFFFFFFFF AND SUB PUSH2 0xDA1 JUMPI PUSH1 0x40 MLOAD PUSH32 0x8C379A000000000000000000000000000000000000000000000000000000000 DUP2 MSTORE PUSH1 0x4 ADD PUSH2 0xD98 SWAP1 PUSH2 0x1CAC JUMP JUMPDEST PUSH1 0x40 MLOAD DUP1 SWAP2 SUB SWAP1 REVERT JUMPDEST PUSH1 0x1 PUSH0 DUP5 DUP2 MSTORE PUSH1 0x20 ADD SWAP1 DUP2 MSTORE PUSH1 0x20 ADD PUSH0 KECCAK256 PUSH1 0x40 MLOAD DUP1 PUSH1 0xC0 ADD PUSH1 0x40 MSTORE SWAP1 DUP2 PUSH0 DUP3 ADD PUSH0 SWAP1 SLOAD SWAP1 PUSH2 0x100 EXP SWAP1 DIV PUSH20 0xFFFFFFFFFFFFFFFFFFFFFFFFFFFFFFFFFFFFFFFF AND PUSH20 0xFFFFFFFFFFFFFFFFFFFFFFFFFFFFFFFFFFFFFFFF AND PUSH20 0xFFFFFFFFFFFFFFFFFFFFFFFFFFFFFFFFFFFFFFFF AND DUP2 MSTORE PUSH1 0x20 ADD PUSH1 0x1 DUP3 ADD DUP1 SLOAD PUSH2 0xE21 SWAP1 PUSH2 0x1731 JUMP JUMPDEST DUP1 PUSH1 0x1F ADD PUSH1 0x20 DUP1 SWAP2 DIV MUL PUSH1 0x20 ADD PUSH1 0x40 MLOAD SWAP1 DUP2 ADD PUSH1 0x40 MSTORE DUP1 SWAP3 SWAP2 SWAP1 DUP2 DUP2 MSTORE PUSH1 0x20 ADD DUP3 DUP1 SLOAD PUSH2 0xE4D SWAP1 PUSH2 0x1731 JUMP JUMPDEST DUP1 ISZERO PUSH2 0xE98 JUMPI DUP1 PUSH1 0x1F LT PUSH2 0xE6F JUMPI PUSH2 0x100 DUP1 DUP4 SLOAD DIV MUL DUP4 MSTORE SWAP2 PUSH1 0x20 ADD SWAP2 PUSH2 0xE98 JUMP JUMPDEST DUP3 ADD SWAP2 SWAP1 PUSH0 MSTORE PUSH1 0x20 PUSH0 KECCAK256 SWAP1 JUMPDEST DUP2 SLOAD DUP2 MSTORE SWAP1 PUSH1 0x1 ADD SWAP1 PUSH1 0x20 ADD DUP1 DUP4 GT PUSH2 0xE7B JUMPI DUP3 SWAP1 SUB PUSH1 0x1F AND DUP3 ADD SWAP2 JUMPDEST POP POP POP POP POP DUP2 MSTORE PUSH1 0x20 ADD PUSH1 0x2 DUP3 ADD DUP1 SLOAD PUSH2 0xEB1 SWAP1 PUSH2 0x1731 JUMP JUMPDEST DUP1 PUSH1 0x1F ADD PUSH1 0x20 DUP1 SWAP2 DIV MUL PUSH1 0x20 ADD PUSH1 0x40 MLOAD SWAP1 DUP2 ADD PUSH1 0x40 MSTORE DUP1 SWAP3 SWAP2 SWAP1 DUP2 DUP2 MSTORE PUSH1 0x20 ADD DUP3 DUP1 SLOAD PUSH2 0xEDD SWAP1 PUSH2 0x1731 JUMP JUMPDEST DUP1 ISZERO PUSH2 0xF28 JUMPI DUP1 PUSH1 0x1F LT PUSH2 0xEFF JUMPI PUSH2 0x100 DUP1 DUP4 SLOAD DIV MUL DUP4 MSTORE SWAP2 PUSH1 0x20 ADD SWAP2 PUSH2 0xF28 JUMP JUMPDEST DUP3 ADD SWAP2 SWAP1 PUSH0 MSTORE PUSH1 0x20 PUSH0 KECCAK256 SWAP1 JUMPDEST DUP2 SLOAD DUP2 MSTORE SWAP1 PUSH1 0x1 ADD SWAP1 PUSH1 0x20 ADD DUP1 DUP4 GT PUSH2 0xF0B JUMPI DUP3 SWAP1 SUB PUSH1 0x1F AND DUP3 ADD SWAP2 JUMPDEST POP POP POP POP POP DUP2 MSTORE PUSH1 0x20 ADD PUSH1 0x3 DUP3 ADD DUP1 SLOAD PUSH2 0xF41 SWAP1 PUSH2 0x1731 JUMP JUMPDEST DUP1 PUSH1 0x1F ADD PUSH1 0x20 DUP1 SWAP2 DIV MUL PUSH1 0x20 ADD PUSH1 0x40 MLOAD SWAP1 DUP2 ADD PUSH1 0x40 MSTORE DUP1 SWAP3 SWAP2 SWAP1 DUP2 DUP2 MSTORE PUSH1 0x20 ADD DUP3 DUP1 SLOAD PUSH2 0xF6D SWAP1 PUSH2 0x1731 JUMP JUMPDEST DUP1 ISZERO PUSH2 0xFB8 JUMPI DUP1 PUSH1 0x1F LT PUSH2 0xF8F JUMPI PUSH2 0x100 DUP1 DUP4 SLOAD DIV MUL DUP4 MSTORE SWAP2 PUSH1 0x20 ADD SWAP2 PUSH2 0xFB8 JUMP JUMPDEST DUP3 ADD SWAP2 SWAP1 PUSH0 MSTORE PUSH1 0x20 PUSH0 KECCAK256 SWAP1 JUMPDEST DUP2 SLOAD DUP2 MSTORE SWAP1 PUSH1 0x1 ADD SWAP1 PUSH1 0x20 ADD DUP1 DUP4 GT PUSH2 0xF9B JUMPI DUP3 SWAP1 SUB PUSH1 0x1F AND DUP3 ADD SWAP2 JUMPDEST POP POP POP POP POP DUP2 MSTORE PUSH1 0x20 ADD PUSH1 0x4 DUP3 ADD PUSH0 SWAP1 SLOAD SWAP1 PUSH2 0x100 EXP SWAP1 DIV PUSH1 0xFF AND ISZERO ISZERO ISZERO ISZERO DUP2 MSTORE PUSH1 0x20 ADD PUSH1 0x5 DUP3 ADD SLOAD DUP2 MSTORE POP POP SWAP2 POP POP SWAP2 SWAP1 POP JUMP JUMPDEST PUSH0 DUP2 PUSH1 0x40 MLOAD PUSH1 0x20 ADD PUSH2 0xFFF SWAP2 SWAP1 PUSH2 0x1DFA JUMP JUMPDEST PUSH1 0x40 MLOAD PUSH1 0x20 DUP2 DUP4 SUB SUB DUP2 MSTORE SWAP1 PUSH1 0x40 MSTORE DUP1 MLOAD SWAP1 PUSH1 0x20 ADD KECCAK256 DUP4 PUSH1 0x40 MLOAD PUSH1 0x20 ADD PUSH2 0x1026 SWAP2 SWAP1 PUSH2 0x1DFA JUMP JUMPDEST PUSH1 0x40 MLOAD PUSH1 0x20 DUP2 DUP4 SUB SUB DUP2 MSTORE SWAP1 PUSH1 0x40 MSTORE DUP1 MLOAD SWAP1 PUSH1 0x20 ADD KECCAK256 EQ SWAP1 POP SWAP3 SWAP2 POP POP JUMP JUMPDEST PUSH1 0x40 MLOAD DUP1 PUSH1 0xC0 ADD PUSH1 0x40 MSTORE DUP1 PUSH0 PUSH20 0xFFFFFFFFFFFFFFFFFFFFFFFFFFFFFFFFFFFFFFFF AND DUP2 MSTORE PUSH1 0x20 ADD PUSH1 0x60 DUP2 MSTORE PUSH1 0x20 ADD PUSH1 0x60 DUP2 MSTORE PUSH1 0x20 ADD PUSH1 0x60 DUP2 MSTORE PUSH1 0x20 ADD PUSH0 ISZERO ISZERO DUP2 MSTORE PUSH1 0x20 ADD PUSH0 DUP2 MSTORE POP SWAP1 JUMP JUMPDEST PUSH0 PUSH1 0x40 MLOAD SWAP1 POP SWAP1 JUMP JUMPDEST PUSH0 DUP1 REVERT JUMPDEST PUSH0 DUP1 REVERT JUMPDEST PUSH0 DUP2 SWAP1 POP SWAP2 SWAP1 POP JUMP JUMPDEST PUSH2 0x10B3 DUP2 PUSH2 0x10A1 JUMP JUMPDEST DUP2 EQ PUSH2 0x10BD JUMPI PUSH0 DUP1 REVERT JUMPDEST POP JUMP JUMPDEST PUSH0 DUP2 CALLDATALOAD SWAP1 POP PUSH2 0x10CE DUP2 PUSH2 0x10AA JUMP JUMPDEST SWAP3 SWAP2 POP POP JUMP JUMPDEST PUSH0 PUSH1 0x20 DUP3 DUP5 SUB SLT ISZERO PUSH2 0x10E9 JUMPI PUSH2 0x10E8 PUSH2 0x1099 JUMP JUMPDEST JUMPDEST PUSH0 PUSH2 0x10F6 DUP5 DUP3 DUP6 ADD PUSH2 0x10C0 JUMP JUMPDEST SWAP2 POP POP SWAP3 SWAP2 POP POP JUMP JUMPDEST PUSH0 PUSH20 0xFFFFFFFFFFFFFFFFFFFFFFFFFFFFFFFFFFFFFFFF DUP3 AND SWAP1 POP SWAP2 SWAP1 POP JUMP JUMPDEST PUSH0 PUSH2 0x1128 DUP3 PUSH2 0x10FF JUMP JUMPDEST SWAP1 POP SWAP2 SWAP1 POP JUMP JUMPDEST PUSH2 0x1138 DUP2 PUSH2 0x111E JUMP JUMPDEST DUP3 MSTORE POP POP JUMP JUMPDEST PUSH0 DUP2 MLOAD SWAP1 POP SWAP2 SWAP1 POP JUMP JUMPDEST PUSH0 DUP3 DUP3 MSTORE PUSH1 0x20 DUP3 ADD SWAP1 POP SWAP3 SWAP2 POP POP JUMP JUMPDEST PUSH0 JUMPDEST DUP4 DUP2 LT ISZERO PUSH2 0x1175 JUMPI DUP1 DUP3 ADD MLOAD DUP2 DUP5 ADD MSTORE PUSH1 0x20 DUP2 ADD SWAP1 POP PUSH2 0x115A JUMP JUMPDEST PUSH0 DUP5 DUP5 ADD MSTORE POP POP POP POP JUMP JUMPDEST PUSH0 PUSH1 0x1F NOT PUSH1 0x1F DUP4 ADD AND SWAP1 POP SWAP2 SWAP1 POP JUMP JUMPDEST PUSH0 PUSH2 0x119A DUP3 PUSH2 0x113E JUMP JUMPDEST PUSH2 0x11A4 DUP2 DUP6 PUSH2 0x1148 JUMP JUMPDEST SWAP4 POP PUSH2 0x11B4 DUP2 DUP6 PUSH1 0x20 DUP7 ADD PUSH2 0x1158 JUMP JUMPDEST PUSH2 0x11BD DUP2 PUSH2 0x1180 JUMP JUMPDEST DUP5 ADD SWAP2 POP POP SWAP3 SWAP2 POP POP JUMP JUMPDEST PUSH0 DUP2 ISZERO ISZERO SWAP1 POP SWAP2 SWAP1 POP JUMP JUMPDEST PUSH2 0x11DC DUP2 PUSH2 0x11C8 JUMP JUMPDEST DUP3 MSTORE POP POP JUMP JUMPDEST PUSH2 0x11EB DUP2 PUSH2 0x10A1 JUMP JUMPDEST DUP3 MSTORE POP POP JUMP JUMPDEST PUSH0 PUSH1 0xC0 DUP3 ADD SWAP1 POP PUSH2 0x1204 PUSH0 DUP4 ADD DUP10 PUSH2 0x112F JUMP JUMPDEST DUP2 DUP2 SUB PUSH1 0x20 DUP4 ADD MSTORE PUSH2 0x1216 DUP2 DUP9 PUSH2 0x1190 JUMP JUMPDEST SWAP1 POP DUP2 DUP2 SUB PUSH1 0x40 DUP4 ADD MSTORE PUSH2 0x122A DUP2 DUP8 PUSH2 0x1190 JUMP JUMPDEST SWAP1 POP DUP2 DUP2 SUB PUSH1 0x60 DUP4 ADD MSTORE PUSH2 0x123E DUP2 DUP7 PUSH2 0x1190 JUMP JUMPDEST SWAP1 POP PUSH2 0x124D PUSH1 0x80 DUP4 ADD DUP6 PUSH2 0x11D3 JUMP JUMPDEST PUSH2 0x125A PUSH1 0xA0 DUP4 ADD DUP5 PUSH2 0x11E2 JUMP JUMPDEST SWAP8 SWAP7 POP POP POP POP POP POP POP JUMP JUMPDEST PUSH0 PUSH1 0x20 DUP3 ADD SWAP1 POP PUSH2 0x1278 PUSH0 DUP4 ADD DUP5 PUSH2 0x11E2 JUMP JUMPDEST SWAP3 SWAP2 POP POP JUMP JUMPDEST PUSH2 0x1287 DUP2 PUSH2 0x111E JUMP JUMPDEST DUP2 EQ PUSH2 0x1291 JUMPI PUSH0 DUP1 REVERT JUMPDEST POP JUMP JUMPDEST PUSH0 DUP2 CALLDATALOAD SWAP1 POP PUSH2 0x12A2 DUP2 PUSH2 0x127E JUMP JUMPDEST SWAP3 SWAP2 POP POP JUMP JUMPDEST PUSH0 PUSH1 0x20 DUP3 DUP5 SUB SLT ISZERO PUSH2 0x12BD JUMPI PUSH2 0x12BC PUSH2 0x1099 JUMP JUMPDEST JUMPDEST PUSH0 PUSH2 0x12CA DUP5 DUP3 DUP6 ADD PUSH2 0x1294 JUMP JUMPDEST SWAP2 POP POP SWAP3 SWAP2 POP POP JUMP JUMPDEST PUSH0 PUSH1 0x20 DUP3 ADD SWAP1 POP PUSH2 0x12E6 PUSH0 DUP4 ADD DUP5 PUSH2 0x112F JUMP JUMPDEST SWAP3 SWAP2 POP POP JUMP JUMPDEST PUSH0 PUSH1 0x20 DUP3 ADD SWAP1 POP PUSH2 0x12FF PUSH0 DUP4 ADD DUP5 PUSH2 0x11D3 JUMP JUMPDEST SWAP3 SWAP2 POP POP JUMP JUMPDEST PUSH0 DUP2 MLOAD SWAP1 POP SWAP2 SWAP1 POP JUMP JUMPDEST PUSH0 DUP3 DUP3 MSTORE PUSH1 0x20 DUP3 ADD SWAP1 POP SWAP3 SWAP2 POP POP JUMP JUMPDEST PUSH0 DUP2 SWAP1 POP PUSH1 0x20 DUP3 ADD SWAP1 POP SWAP2 SWAP1 POP JUMP JUMPDEST PUSH2 0x1337 DUP2 PUSH2 0x10A1 JUMP JUMPDEST DUP3 MSTORE POP POP JUMP JUMPDEST PUSH0 PUSH2 0x1348 DUP4 DUP4 PUSH2 0x132E JUMP JUMPDEST PUSH1 0x20 DUP4 ADD SWAP1 POP SWAP3 SWAP2 POP POP JUMP JUMPDEST PUSH0 PUSH1 0x20 DUP3 ADD SWAP1 POP SWAP2 SWAP1 POP JUMP JUMPDEST PUSH0 PUSH2 0x136A DUP3 PUSH2 0x1305 JUMP JUMPDEST PUSH2 0x1374 DUP2 DUP6 PUSH2 0x130F JUMP JUMPDEST SWAP4 POP PUSH2 0x137F DUP4 PUSH2 0x131F JUMP JUMPDEST DUP1 PUSH0 JUMPDEST DUP4 DUP2 LT ISZERO PUSH2 0x13AF JUMPI DUP2 MLOAD PUSH2 0x1396 DUP9 DUP3 PUSH2 0x133D JUMP JUMPDEST SWAP8 POP PUSH2 0x13A1 DUP4 PUSH2 0x1354 JUMP JUMPDEST SWAP3 POP POP PUSH1 0x1 DUP2 ADD SWAP1 POP PUSH2 0x1382 JUMP JUMPDEST POP DUP6 SWAP4 POP POP POP POP SWAP3 SWAP2 POP POP JUMP JUMPDEST PUSH0 PUSH1 0x20 DUP3 ADD SWAP1 POP DUP2 DUP2 SUB PUSH0 DUP4 ADD MSTORE PUSH2 0x13D4 DUP2 DUP5 PUSH2 0x1360 JUMP JUMPDEST SWAP1 POP SWAP3 SWAP2 POP POP JUMP JUMPDEST PUSH0 DUP1 REVERT JUMPDEST PUSH0 DUP1 REVERT JUMPDEST PUSH32 0x4E487B7100000000000000000000000000000000000000000000000000000000 PUSH0 MSTORE PUSH1 0x41 PUSH1 0x4 MSTORE PUSH1 0x24 PUSH0 REVERT JUMPDEST PUSH2 0x141A DUP3 PUSH2 0x1180 JUMP JUMPDEST DUP2 ADD DUP2 DUP2 LT PUSH8 0xFFFFFFFFFFFFFFFF DUP3 GT OR ISZERO PUSH2 0x1439 JUMPI PUSH2 0x1438 PUSH2 0x13E4 JUMP JUMPDEST JUMPDEST DUP1 PUSH1 0x40 MSTORE POP POP POP JUMP JUMPDEST PUSH0 PUSH2 0x144B PUSH2 0x1090 JUMP JUMPDEST SWAP1 POP PUSH2 0x1457 DUP3 DUP3 PUSH2 0x1411 JUMP JUMPDEST SWAP2 SWAP1 POP JUMP JUMPDEST PUSH0 PUSH8 0xFFFFFFFFFFFFFFFF DUP3 GT ISZERO PUSH2 0x1476 JUMPI PUSH2 0x1475 PUSH2 0x13E4 JUMP JUMPDEST JUMPDEST PUSH2 0x147F DUP3 PUSH2 0x1180 JUMP JUMPDEST SWAP1 POP PUSH1 0x20 DUP2 ADD SWAP1 POP SWAP2 SWAP1 POP JUMP JUMPDEST DUP3 DUP2 DUP4 CALLDATACOPY PUSH0 DUP4 DUP4 ADD MSTORE POP POP POP JUMP JUMPDEST PUSH0 PUSH2 0x14AC PUSH2 0x14A7 DUP5 PUSH2 0x145C JUMP JUMPDEST PUSH2 0x1442 JUMP JUMPDEST SWAP1 POP DUP3 DUP2 MSTORE PUSH1 0x20 DUP2 ADD DUP5 DUP5 DUP5 ADD GT ISZERO PUSH2 0x14C8 JUMPI PUSH2 0x14C7 PUSH2 0x13E0 JUMP JUMPDEST JUMPDEST PUSH2 0x14D3 DUP5 DUP3 DUP6 PUSH2 0x148C JUMP JUMPDEST POP SWAP4 SWAP3 POP POP POP JUMP JUMPDEST PUSH0 DUP3 PUSH1 0x1F DUP4 ADD SLT PUSH2 0x14EF JUMPI PUSH2 0x14EE PUSH2 0x13DC JUMP JUMPDEST JUMPDEST DUP2 CALLDATALOAD PUSH2 0x14FF DUP5 DUP3 PUSH1 0x20 DUP7 ADD PUSH2 0x149A JUMP JUMPDEST SWAP2 POP POP SWAP3 SWAP2 POP POP JUMP JUMPDEST PUSH0 DUP1 PUSH0 PUSH1 0x60 DUP5 DUP7 SUB SLT ISZERO PUSH2 0x151F JUMPI PUSH2 0x151E PUSH2 0x1099 JUMP JUMPDEST JUMPDEST PUSH0 DUP5 ADD CALLDATALOAD PUSH8 0xFFFFFFFFFFFFFFFF DUP2 GT ISZERO PUSH2 0x153C JUMPI PUSH2 0x153B PUSH2 0x109D JUMP JUMPDEST JUMPDEST PUSH2 0x1548 DUP7 DUP3 DUP8 ADD PUSH2 0x14DB JUMP JUMPDEST SWAP4 POP POP PUSH1 0x20 DUP5 ADD CALLDATALOAD PUSH8 0xFFFFFFFFFFFFFFFF DUP2 GT ISZERO PUSH2 0x1569 JUMPI PUSH2 0x1568 PUSH2 0x109D JUMP JUMPDEST JUMPDEST PUSH2 0x1575 DUP7 DUP3 DUP8 ADD PUSH2 0x14DB JUMP JUMPDEST SWAP3 POP POP PUSH1 0x40 DUP5 ADD CALLDATALOAD PUSH8 0xFFFFFFFFFFFFFFFF DUP2 GT ISZERO PUSH2 0x1596 JUMPI PUSH2 0x1595 PUSH2 0x109D JUMP JUMPDEST JUMPDEST PUSH2 0x15A2 DUP7 DUP3 DUP8 ADD PUSH2 0x14DB JUMP JUMPDEST SWAP2 POP POP SWAP3 POP SWAP3 POP SWAP3 JUMP JUMPDEST PUSH0 DUP1 PUSH1 0x40 DUP4 DUP6 SUB SLT ISZERO PUSH2 0x15C2 JUMPI PUSH2 0x15C1 PUSH2 0x1099 JUMP JUMPDEST JUMPDEST PUSH0 PUSH2 0x15CF DUP6 DUP3 DUP7 ADD PUSH2 0x1294 JUMP JUMPDEST SWAP3 POP POP PUSH1 0x20 PUSH2 0x15E0 DUP6 DUP3 DUP7 ADD PUSH2 0x10C0 JUMP JUMPDEST SWAP2 POP POP SWAP3 POP SWAP3 SWAP1 POP JUMP JUMPDEST PUSH2 0x15F3 DUP2 PUSH2 0x111E JUMP JUMPDEST DUP3 MSTORE POP POP JUMP JUMPDEST PUSH0 DUP3 DUP3 MSTORE PUSH1 0x20 DUP3 ADD SWAP1 POP SWAP3 SWAP2 POP POP JUMP JUMPDEST PUSH0 PUSH2 0x1613 DUP3 PUSH2 0x113E JUMP JUMPDEST PUSH2 0x161D DUP2 DUP6 PUSH2 0x15F9 JUMP JUMPDEST SWAP4 POP PUSH2 0x162D DUP2 DUP6 PUSH1 0x20 DUP7 ADD PUSH2 0x1158 JUMP JUMPDEST PUSH2 0x1636 DUP2 PUSH2 0x1180 JUMP JUMPDEST DUP5 ADD SWAP2 POP POP SWAP3 SWAP2 POP POP JUMP JUMPDEST PUSH2 0x164A DUP2 PUSH2 0x11C8 JUMP JUMPDEST DUP3 MSTORE POP POP JUMP JUMPDEST PUSH0 PUSH1 0xC0 DUP4 ADD PUSH0 DUP4 ADD MLOAD PUSH2 0x1665 PUSH0 DUP7 ADD DUP3 PUSH2 0x15EA JUMP JUMPDEST POP PUSH1 0x20 DUP4 ADD MLOAD DUP5 DUP3 SUB PUSH1 0x20 DUP7 ADD MSTORE PUSH2 0x167D DUP3 DUP3 PUSH2 0x1609 JUMP JUMPDEST SWAP2 POP POP PUSH1 0x40 DUP4 ADD MLOAD DUP5 DUP3 SUB PUSH1 0x40 DUP7 ADD MSTORE PUSH2 0x1697 DUP3 DUP3 PUSH2 0x1609 JUMP JUMPDEST SWAP2 POP POP PUSH1 0x60 DUP4 ADD MLOAD DUP5 DUP3 SUB PUSH1 0x60 DUP7 ADD MSTORE PUSH2 0x16B1 DUP3 DUP3 PUSH2 0x1609 JUMP JUMPDEST SWAP2 POP POP PUSH1 0x80 DUP4 ADD MLOAD PUSH2 0x16C6 PUSH1 0x80 DUP7 ADD DUP3 PUSH2 0x1641 JUMP JUMPDEST POP PUSH1 0xA0 DUP4 ADD MLOAD PUSH2 0x16D9 PUSH1 0xA0 DUP7 ADD DUP3 PUSH2 0x132E JUMP JUMPDEST POP DUP1 SWAP2 POP POP SWAP3 SWAP2 POP POP JUMP JUMPDEST PUSH0 PUSH1 0x20 DUP3 ADD SWAP1 POP DUP2 DUP2 SUB PUSH0 DUP4 ADD MSTORE PUSH2 0x16FC DUP2 DUP5 PUSH2 0x1650 JUMP JUMPDEST SWAP1 POP SWAP3 SWAP2 POP POP JUMP JUMPDEST PUSH32 0x4E487B7100000000000000000000000000000000000000000000000000000000 PUSH0 MSTORE PUSH1 0x22 PUSH1 0x4 MSTORE PUSH1 0x24 PUSH0 REVERT JUMPDEST PUSH0 PUSH1 0x2 DUP3 DIV SWAP1 POP PUSH1 0x1 DUP3 AND DUP1 PUSH2 0x1748 JUMPI PUSH1 0x7F DUP3 AND SWAP2 POP JUMPDEST PUSH1 0x20 DUP3 LT DUP2 SUB PUSH2 0x175B JUMPI PUSH2 0x175A PUSH2 0x1704 JUMP JUMPDEST JUMPDEST POP SWAP2 SWAP1 POP JUMP JUMPDEST PUSH32 0x4E487B7100000000000000000000000000000000000000000000000000000000 PUSH0 MSTORE PUSH1 0x32 PUSH1 0x4 MSTORE PUSH1 0x24 PUSH0 REVERT JUMPDEST PUSH32 0x4E487B7100000000000000000000000000000000000000000000000000000000 PUSH0 MSTORE PUSH1 0x11 PUSH1 0x4 MSTORE PUSH1 0x24 PUSH0 REVERT JUMPDEST PUSH0 PUSH2 0x17C5 DUP3 PUSH2 0x10A1 JUMP JUMPDEST SWAP2 POP PUSH32 0xFFFFFFFFFFFFFFFFFFFFFFFFFFFFFFFFFFFFFFFFFFFFFFFFFFFFFFFFFFFFFFFF DUP3 SUB PUSH2 0x17F7 JUMPI PUSH2 0x17F6 PUSH2 0x178E JUMP JUMPDEST JUMPDEST PUSH1 0x1 DUP3 ADD SWAP1 POP SWAP2 SWAP1 POP JUMP JUMPDEST PUSH32 0x636F696E412063616E6E6F7420626520656D7074790000000000000000000000 PUSH0 DUP3 ADD MSTORE POP JUMP JUMPDEST PUSH0 PUSH2 0x1836 PUSH1 0x15 DUP4 PUSH2 0x1148 JUMP JUMPDEST SWAP2 POP PUSH2 0x1841 DUP3 PUSH2 0x1802 JUMP JUMPDEST PUSH1 0x20 DUP3 ADD SWAP1 POP SWAP2 SWAP1 POP JUMP JUMPDEST PUSH0 PUSH1 0x20 DUP3 ADD SWAP1 POP DUP2 DUP2 SUB PUSH0 DUP4 ADD MSTORE PUSH2 0x1863 DUP2 PUSH2 0x182A JUMP JUMPDEST SWAP1 POP SWAP2 SWAP1 POP JUMP JUMPDEST PUSH32 0x636F696E422063616E6E6F7420626520656D7074790000000000000000000000 PUSH0 DUP3 ADD MSTORE POP JUMP JUMPDEST PUSH0 PUSH2 0x189E PUSH1 0x15 DUP4 PUSH2 0x1148 JUMP JUMPDEST SWAP2 POP PUSH2 0x18A9 DUP3 PUSH2 0x186A JUMP JUMPDEST PUSH1 0x20 DUP3 ADD SWAP1 POP SWAP2 SWAP1 POP JUMP JUMPDEST PUSH0 PUSH1 0x20 DUP3 ADD SWAP1 POP DUP2 DUP2 SUB PUSH0 DUP4 ADD MSTORE PUSH2 0x18CB DUP2 PUSH2 0x1892 JUMP JUMPDEST SWAP1 POP SWAP2 SWAP1 POP JUMP JUMPDEST PUSH32 0x70726564696374656457696E6E65722063616E6E6F7420626520656D70747900 PUSH0 DUP3 ADD MSTORE POP JUMP JUMPDEST PUSH0 PUSH2 0x1906 PUSH1 0x1F DUP4 PUSH2 0x1148 JUMP JUMPDEST SWAP2 POP PUSH2 0x1911 DUP3 PUSH2 0x18D2 JUMP JUMPDEST PUSH1 0x20 DUP3 ADD SWAP1 POP SWAP2 SWAP1 POP JUMP JUMPDEST PUSH0 PUSH1 0x20 DUP3 ADD SWAP1 POP DUP2 DUP2 SUB PUSH0 DUP4 ADD MSTORE PUSH2 0x1933 DUP2 PUSH2 0x18FA JUMP JUMPDEST SWAP1 POP SWAP2 SWAP1 POP JUMP JUMPDEST PUSH32 0x50726564696374696F6E206D7573742062652065697468657220636F696E4120 PUSH0 DUP3 ADD MSTORE PUSH32 0x6F7220636F696E42000000000000000000000000000000000000000000000000 PUSH1 0x20 DUP3 ADD MSTORE POP JUMP JUMPDEST PUSH0 PUSH2 0x1994 PUSH1 0x28 DUP4 PUSH2 0x1148 JUMP JUMPDEST SWAP2 POP PUSH2 0x199F DUP3 PUSH2 0x193A JUMP JUMPDEST PUSH1 0x40 DUP3 ADD SWAP1 POP SWAP2 SWAP1 POP JUMP JUMPDEST PUSH0 PUSH1 0x20 DUP3 ADD SWAP1 POP DUP2 DUP2 SUB PUSH0 DUP4 ADD MSTORE PUSH2 0x19C1 DUP2 PUSH2 0x1988 JUMP JUMPDEST SWAP1 POP SWAP2 SWAP1 POP JUMP JUMPDEST PUSH0 DUP2 SWAP1 POP DUP2 PUSH0 MSTORE PUSH1 0x20 PUSH0 KECCAK256 SWAP1 POP SWAP2 SWAP1 POP JUMP JUMPDEST PUSH0 PUSH1 0x20 PUSH1 0x1F DUP4 ADD DIV SWAP1 POP SWAP2 SWAP1 POP JUMP JUMPDEST PUSH0 DUP3 DUP3 SHL SWAP1 POP SWAP3 SWAP2 POP POP JUMP JUMPDEST PUSH0 PUSH1 0x8 DUP4 MUL PUSH2 0x1A24 PUSH32 0xFFFFFFFFFFFFFFFFFFFFFFFFFFFFFFFFFFFFFFFFFFFFFFFFFFFFFFFFFFFFFFFF DUP3 PUSH2 0x19E9 JUMP JUMPDEST PUSH2 0x1A2E DUP7 DUP4 PUSH2 0x19E9 JUMP JUMPDEST SWAP6 POP DUP1 NOT DUP5 AND SWAP4 POP DUP1 DUP7 AND DUP5 OR SWAP3 POP POP POP SWAP4 SWAP3 POP POP POP JUMP JUMPDEST PUSH0 DUP2 SWAP1 POP SWAP2 SWAP1 POP JUMP JUMPDEST PUSH0 PUSH2 0x1A69 PUSH2 0x1A64 PUSH2 0x1A5F DUP5 PUSH2 0x10A1 JUMP JUMPDEST PUSH2 0x1A46 JUMP JUMPDEST PUSH2 0x10A1 JUMP JUMPDEST SWAP1 POP SWAP2 SWAP1 POP JUMP JUMPDEST PUSH0 DUP2 SWAP1 POP SWAP2 SWAP1 POP JUMP JUMPDEST PUSH2 0x1A82 DUP4 PUSH2 0x1A4F JUMP JUMPDEST PUSH2 0x1A96 PUSH2 0x1A8E DUP3 PUSH2 0x1A70 JUMP JUMPDEST DUP5 DUP5 SLOAD PUSH2 0x19F5 JUMP JUMPDEST DUP3 SSTORE POP POP POP POP JUMP JUMPDEST PUSH0 SWAP1 JUMP JUMPDEST PUSH2 0x1AAA PUSH2 0x1A9E JUMP JUMPDEST PUSH2 0x1AB5 DUP2 DUP5 DUP5 PUSH2 0x1A79 JUMP JUMPDEST POP POP POP JUMP JUMPDEST JUMPDEST DUP2 DUP2 LT ISZERO PUSH2 0x1AD8 JUMPI PUSH2 0x1ACD PUSH0 DUP3 PUSH2 0x1AA2 JUMP JUMPDEST PUSH1 0x1 DUP2 ADD SWAP1 POP PUSH2 0x1ABB JUMP JUMPDEST POP POP JUMP JUMPDEST PUSH1 0x1F DUP3 GT ISZERO PUSH2 0x1B1D JUMPI PUSH2 0x1AEE DUP2 PUSH2 0x19C8 JUMP JUMPDEST PUSH2 0x1AF7 DUP5 PUSH2 0x19DA JUMP JUMPDEST DUP2 ADD PUSH1 0x20 DUP6 LT ISZERO PUSH2 0x1B06 JUMPI DUP2 SWAP1 POP JUMPDEST PUSH2 0x1B1A PUSH2 0x1B12 DUP6 PUSH2 0x19DA JUMP JUMPDEST DUP4 ADD DUP3 PUSH2 0x1ABA JUMP JUMPDEST POP POP JUMPDEST POP POP POP JUMP JUMPDEST PUSH0 DUP3 DUP3 SHR SWAP1 POP SWAP3 SWAP2 POP POP JUMP JUMPDEST PUSH0 PUSH2 0x1B3D PUSH0 NOT DUP5 PUSH1 0x8 MUL PUSH2 0x1B22 JUMP JUMPDEST NOT DUP1 DUP4 AND SWAP2 POP POP SWAP3 SWAP2 POP POP JUMP JUMPDEST PUSH0 PUSH2 0x1B55 DUP4 DUP4 PUSH2 0x1B2E JUMP JUMPDEST SWAP2 POP DUP3 PUSH1 0x2 MUL DUP3 OR SWAP1 POP SWAP3 SWAP2 POP POP JUMP JUMPDEST PUSH2 0x1B6E DUP3 PUSH2 0x113E JUMP JUMPDEST PUSH8 0xFFFFFFFFFFFFFFFF DUP2 GT ISZERO PUSH2 0x1B87 JUMPI PUSH2 0x1B86 PUSH2 0x13E4 JUMP JUMPDEST JUMPDEST PUSH2 0x1B91 DUP3 SLOAD PUSH2 0x1731 JUMP JUMPDEST PUSH2 0x1B9C DUP3 DUP3 DUP6 PUSH2 0x1ADC JUMP JUMPDEST PUSH0 PUSH1 0x20 SWAP1 POP PUSH1 0x1F DUP4 GT PUSH1 0x1 DUP2 EQ PUSH2 0x1BCD JUMPI PUSH0 DUP5 ISZERO PUSH2 0x1BBB JUMPI DUP3 DUP8 ADD MLOAD SWAP1 POP JUMPDEST PUSH2 0x1BC5 DUP6 DUP3 PUSH2 0x1B4A JUMP JUMPDEST DUP7 SSTORE POP PUSH2 0x1C2C JUMP JUMPDEST PUSH1 0x1F NOT DUP5 AND PUSH2 0x1BDB DUP7 PUSH2 0x19C8 JUMP JUMPDEST PUSH0 JUMPDEST DUP3 DUP2 LT ISZERO PUSH2 0x1C02 JUMPI DUP5 DUP10 ADD MLOAD DUP3 SSTORE PUSH1 0x1 DUP3 ADD SWAP2 POP PUSH1 0x20 DUP6 ADD SWAP5 POP PUSH1 0x20 DUP2 ADD SWAP1 POP PUSH2 0x1BDD JUMP JUMPDEST DUP7 DUP4 LT ISZERO PUSH2 0x1C1F JUMPI DUP5 DUP10 ADD MLOAD PUSH2 0x1C1B PUSH1 0x1F DUP10 AND DUP3 PUSH2 0x1B2E JUMP JUMPDEST DUP4 SSTORE POP JUMPDEST PUSH1 0x1 PUSH1 0x2 DUP9 MUL ADD DUP9 SSTORE POP POP POP JUMPDEST POP POP POP POP POP POP JUMP JUMPDEST PUSH0 PUSH1 0x40 DUP3 ADD SWAP1 POP DUP2 DUP2 SUB PUSH0 DUP4 ADD MSTORE PUSH2 0x1C4C DUP2 DUP6 PUSH2 0x1190 JUMP JUMPDEST SWAP1 POP PUSH2 0x1C5B PUSH1 0x20 DUP4 ADD DUP5 PUSH2 0x11E2 JUMP JUMPDEST SWAP4 SWAP3 POP POP POP JUMP JUMPDEST PUSH32 0x50726564696374696F6E206E6F7420666F756E64000000000000000000000000 PUSH0 DUP3 ADD MSTORE POP JUMP JUMPDEST PUSH0 PUSH2 0x1C96 PUSH1 0x14 DUP4 PUSH2 0x1148 JUMP JUMPDEST SWAP2 POP PUSH2 0x1CA1 DUP3 PUSH2 0x1C62 JUMP JUMPDEST PUSH1 0x20 DUP3 ADD SWAP1 POP SWAP2 SWAP1 POP JUMP JUMPDEST PUSH0 PUSH1 0x20 DUP3 ADD SWAP1 POP DUP2 DUP2 SUB PUSH0 DUP4 ADD MSTORE PUSH2 0x1CC3 DUP2 PUSH2 0x1C8A JUMP JUMPDEST SWAP1 POP SWAP2 SWAP1 POP JUMP JUMPDEST PUSH32 0x4F6E6C792074686520706C617965722063616E20736574746C65207468656972 PUSH0 DUP3 ADD MSTORE PUSH32 0x2070726564696374696F6E000000000000000000000000000000000000000000 PUSH1 0x20 DUP3 ADD MSTORE POP JUMP JUMPDEST PUSH0 PUSH2 0x1D24 PUSH1 0x2B DUP4 PUSH2 0x1148 JUMP JUMPDEST SWAP2 POP PUSH2 0x1D2F DUP3 PUSH2 0x1CCA JUMP JUMPDEST PUSH1 0x40 DUP3 ADD SWAP1 POP SWAP2 SWAP1 POP JUMP JUMPDEST PUSH0 PUSH1 0x20 DUP3 ADD SWAP1 POP DUP2 DUP2 SUB PUSH0 DUP4 ADD MSTORE PUSH2 0x1D51 DUP2 PUSH2 0x1D18 JUMP JUMPDEST SWAP1 POP SWAP2 SWAP1 POP JUMP JUMPDEST PUSH32 0x50726564696374696F6E20616C726561647920736574746C6564000000000000 PUSH0 DUP3 ADD MSTORE POP JUMP JUMPDEST PUSH0 PUSH2 0x1D8C PUSH1 0x1A DUP4 PUSH2 0x1148 JUMP JUMPDEST SWAP2 POP PUSH2 0x1D97 DUP3 PUSH2 0x1D58 JUMP JUMPDEST PUSH1 0x20 DUP3 ADD SWAP1 POP SWAP2 SWAP1 POP JUMP JUMPDEST PUSH0 PUSH1 0x20 DUP3 ADD SWAP1 POP DUP2 DUP2 SUB PUSH0 DUP4 ADD MSTORE PUSH2 0x1DB9 DUP2 PUSH2 0x1D80 JUMP JUMPDEST SWAP1 POP SWAP2 SWAP1 POP JUMP JUMPDEST PUSH0 DUP2 SWAP1 POP SWAP3 SWAP2 POP POP JUMP JUMPDEST PUSH0 PUSH2 0x1DD4 DUP3 PUSH2 0x113E JUMP JUMPDEST PUSH2 0x1DDE DUP2 DUP6 PUSH2 0x1DC0 JUMP JUMPDEST SWAP4 POP PUSH2 0x1DEE DUP2 DUP6 PUSH1 0x20 DUP7 ADD PUSH2 0x1158 JUMP JUMPDEST DUP1 DUP5 ADD SWAP2 POP POP SWAP3 SWAP2 POP POP JUMP JUMPDEST PUSH0 PUSH2 0x1E05 DUP3 DUP5 PUSH2 0x1DCA JUMP JUMPDEST SWAP2 POP DUP2 SWAP1 POP SWAP3 SWAP2 POP POP JUMP INVALID LOG2 PUSH5 0x6970667358 0x22 SLT KECCAK256 0x2C 0xD3 PUSH5 0xCBD08F1687 LT BLOCKHASH 0x4A SLT MLOAD RETURNDATACOPY CODESIZE PUSH5 0xC63CE3A5E5 PUSH9 0xAB718A912C402A0755 SHR PUSH5 0x736F6C6343 STOP ADDMOD EQ STOP CALLER "
				},
				"gasEstimates": {
					"creation": {
						"codeDepositCost": "1550000",
						"executionCost": "47993",
						"totalCost": "1597993"
					},
					"external": {
						"getActivePredictionCount(address)": "infinite",
						"getNextPredictionId()": "2455",
						"getPlayerPredictionCount(address)": "2882",
						"getPlayerPredictions(address)": "infinite",
						"getPrediction(uint256)": "infinite",
						"hasActivePredictions(address)": "infinite",
						"nextPredictionId()": "2447",
						"owner()": "2572",
						"playerPredictions(address,uint256)": "infinite",
						"predictions(uint256)": "infinite",
						"settlePrediction(uint256)": "infinite",
						"submitPrediction(string,string,string)": "infinite"
					},
					"internal": {
						"compareStrings(string memory,string memory)": "infinite"
					}
				},
				"methodIdentifiers": {
					"getActivePredictionCount(address)": "c5439314",
					"getNextPredictionId()": "3dcab238",
					"getPlayerPredictionCount(address)": "59c01ff9",
					"getPlayerPredictions(address)": "cc6e20a1",
					"getPrediction(uint256)": "fe83bece",
					"hasActivePredictions(address)": "c607d155",
					"nextPredictionId()": "d8d9292e",
					"owner()": "8da5cb5b",
					"playerPredictions(address,uint256)": "e6ec3cf9",
					"predictions(uint256)": "004fbbb0",
					"settlePrediction(uint256)": "f114c42c",
					"submitPrediction(string,string,string)": "d9399515"
				}
			},
			"storageLayout": {
				"storage": [
					{
						"astId": 4,
						"contract": "src/BattlePrediction.sol:BattlePrediction",
						"label": "owner",
						"offset": 0,
						"slot": "0",
						"type": "t_address"
					},
					{
						"astId": 22,
						"contract": "src/BattlePrediction.sol:BattlePrediction",
						"label": "predictions",
						"offset": 0,
						"slot": "1",
						"type": "t_mapping(t_uint256,t_struct(Prediction)17_storage)"
					},
					{
						"astId": 27,
						"contract": "src/BattlePrediction.sol:BattlePrediction",
						"label": "playerPredictions",
						"offset": 0,
						"slot": "2",
						"type": "t_mapping(t_address,t_array(t_uint256)dyn_storage)"
					},
					{
						"astId": 30,
						"contract": "src/BattlePrediction.sol:BattlePrediction",
						"label": "nextPredictionId",
						"offset": 0,
						"slot": "3",
						"type": "t_uint256"
					}
				],
				"types": {
					"t_address": {
						"encoding": "inplace",
						"label": "address",
						"numberOfBytes": "20"
					},
					"t_array(t_uint256)dyn_storage": {
						"base": "t_uint256",
						"encoding": "dynamic_array",
						"label": "uint256[]",
						"numberOfBytes": "32"
					},
					"t_bool": {
						"encoding": "inplace",
						"label": "bool",
						"numberOfBytes": "1"
					},
					"t_mapping(t_address,t_array(t_uint256)dyn_storage)": {
						"encoding": "mapping",
						"key": "t_address",
						"label": "mapping(address => uint256[])",
						"numberOfBytes": "32",
						"value": "t_array(t_uint256)dyn_storage"
					},
					"t_mapping(t_uint256,t_struct(Prediction)17_storage)": {
						"encoding": "mapping",
						"key": "t_uint256",
						"label": "mapping(uint256 => struct BattlePrediction.Prediction)",
						"numberOfBytes": "32",
						"value": "t_struct(Prediction)17_storage"
					},
					"t_string_storage": {
						"encoding": "bytes",
						"label": "string",
						"numberOfBytes": "32"
					},
					"t_struct(Prediction)17_storage": {
						"encoding": "inplace",
						"label": "struct BattlePrediction.Prediction",
						"members": [
							{
								"astId": 6,
								"contract": "src/BattlePrediction.sol:BattlePrediction",
								"label": "player",
								"offset": 0,
								"slot": "0",
								"type": "t_address"
							},
							{
								"astId": 8,
								"contract": "src/BattlePrediction.sol:BattlePrediction",
								"label": "coinA",
								"offset": 0,
								"slot": "1",
								"type": "t_string_storage"
							},
							{
								"astId": 10,
								"contract": "src/BattlePrediction.sol:BattlePrediction",
								"label": "coinB",
								"offset": 0,
								"slot": "2",
								"type": "t_string_storage"
							},
							{
								"astId": 12,
								"contract": "src/BattlePrediction.sol:BattlePrediction",
								"label": "predictedWinner",
								"offset": 0,
								"slot": "3",
								"type": "t_string_storage"
							},
							{
								"astId": 14,
								"contract": "src/BattlePrediction.sol:BattlePrediction",
								"label": "isSettled",
								"offset": 0,
								"slot": "4",
								"type": "t_bool"
							},
							{
								"astId": 16,
								"contract": "src/BattlePrediction.sol:BattlePrediction",
								"label": "timestamp",
								"offset": 0,
								"slot": "5",
								"type": "t_uint256"
							}
						],
						"numberOfBytes": "192"
					},
					"t_uint256": {
						"encoding": "inplace",
						"label": "uint256",
						"numberOfBytes": "32"
					}
				}
			},
			"userdoc": {
				"kind": "user",
				"methods": {},
				"notice": "Players submit predictions which are settled after battles end",
				"version": 1
			}
		}
	}
}