{
	"src/BattleLeaderboard.sol": {
		"BattleLeaderboard": {
			"abi": [
				{
					"inputs": [],
					"stateMutability": "nonpayable",
					"type": "constructor"
				},
				{
					"anonymous": false,
					"inputs": [
						{
							"indexed": true,
							"internalType": "uint256",
							"name": "battleId",
							"type": "uint256"
						},
						{
							"indexed": true,
							"internalType": "address",
							"name": "player",
							"type": "address"
						},
						{
							"indexed": false,
							"internalType": "bool",
							"name": "wasCorrect",
							"type": "bool"
						},
						{
							"indexed": false,
							"internalType": "uint256",
							"name": "pointsEarned",
							"type": "uint256"
						},
						{
							"indexed": false,
							"internalType": "uint256",
							"name": "timestamp",
							"type": "uint256"
						}
					],
					"name": "BattleSubmitted",
					"type": "event"
				},
				{
					"anonymous": false,
					"inputs": [
						{
							"indexed": true,
							"internalType": "address",
							"name": "player",
							"type": "address"
						},
						{
							"indexed": false,
							"internalType": "uint256",
							"name": "totalPoints",
							"type": "uint256"
						},
						{
							"indexed": false,
							"internalType": "uint256",
							"name": "accuracy",
							"type": "uint256"
						}
					],
					"name": "LeaderboardUpdated",
					"type": "event"
				},
				{
					"inputs": [],
					"name": "BONUS_POINTS_HIGH_DELTA",
					"outputs": [
						{
							"internalType": "uint256",
							"name": "",
							"type": "uint256"
						}
					],
					"stateMutability": "view",
					"type": "function"
				},
				{
					"inputs": [],
					"name": "DELTA_THRESHOLD",
					"outputs": [
						{
							"internalType": "uint256",
							"name": "",
							"type": "uint256"
						}
					],
					"stateMutability": "view",
					"type": "function"
				},
				{
					"inputs": [],
					"name": "POINTS_PER_CORRECT_PREDICTION",
					"outputs": [
						{
							"internalType": "uint256",
							"name": "",
							"type": "uint256"
						}
					],
					"stateMutability": "view",
					"type": "function"
				},
				{
					"inputs": [],
					"name": "battleCount",
					"outputs": [
						{
							"internalType": "uint256",
							"name": "",
							"type": "uint256"
						}
					],
					"stateMutability": "view",
					"type": "function"
				},
				{
					"inputs": [
						{
							"internalType": "uint256",
							"name": "",
							"type": "uint256"
						}
					],
					"name": "battleHistory",
					"outputs": [
						{
							"internalType": "address",
							"name": "player",
							"type": "address"
						},
						{
							"internalType": "string",
							"name": "coinA",
							"type": "string"
						},
						{
							"internalType": "string",
							"name": "coinB",
							"type": "string"
						},
						{
							"internalType": "string",
							"name": "predictedWinner",
							"type": "string"
						},
						{
							"internalType": "string",
							"name": "actualWinner",
							"type": "string"
						},
						{
							"internalType": "bool",
							"name": "wasCorrect",
							"type": "bool"
						},
						{
							"internalType": "uint256",
							"name": "delta",
							"type": "uint256"
						},
						{
							"internalType": "uint256",
							"name": "scoreA",
							"type": "uint256"
						},
						{
							"internalType": "uint256",
							"name": "scoreB",
							"type": "uint256"
						},
						{
							"internalType": "uint256",
							"name": "timestamp",
							"type": "uint256"
						}
					],
					"stateMutability": "view",
					"type": "function"
				},
				{
					"inputs": [],
					"name": "emergencyWithdraw",
					"outputs": [],
					"stateMutability": "nonpayable",
					"type": "function"
				},
				{
					"inputs": [
						{
							"internalType": "address",
							"name": "player",
							"type": "address"
						}
					],
					"name": "getAccuracy",
					"outputs": [
						{
							"internalType": "uint256",
							"name": "",
							"type": "uint256"
						}
					],
					"stateMutability": "view",
					"type": "function"
				},
				{
					"inputs": [
						{
							"internalType": "uint256",
							"name": "battleId",
							"type": "uint256"
						}
					],
					"name": "getBattleById",
					"outputs": [
						{
							"components": [
								{
									"internalType": "address",
									"name": "player",
									"type": "address"
								},
								{
									"internalType": "string",
									"name": "coinA",
									"type": "string"
								},
								{
									"internalType": "string",
									"name": "coinB",
									"type": "string"
								},
								{
									"internalType": "string",
									"name": "predictedWinner",
									"type": "string"
								},
								{
									"internalType": "string",
									"name": "actualWinner",
									"type": "string"
								},
								{
									"internalType": "bool",
									"name": "wasCorrect",
									"type": "bool"
								},
								{
									"internalType": "uint256",
									"name": "delta",
									"type": "uint256"
								},
								{
									"internalType": "uint256",
									"name": "scoreA",
									"type": "uint256"
								},
								{
									"internalType": "uint256",
									"name": "scoreB",
									"type": "uint256"
								},
								{
									"internalType": "uint256",
									"name": "timestamp",
									"type": "uint256"
								}
							],
							"internalType": "struct BattleLeaderboard.BattleRecord",
							"name": "",
							"type": "tuple"
						}
					],
					"stateMutability": "view",
					"type": "function"
				},
				{
					"inputs": [],
					"name": "getBattleCount",
					"outputs": [
						{
							"internalType": "uint256",
							"name": "",
							"type": "uint256"
						}
					],
					"stateMutability": "view",
					"type": "function"
				},
				{
					"inputs": [
						{
							"internalType": "address",
							"name": "player",
							"type": "address"
						}
					],
					"name": "getPlayerBattleCount",
					"outputs": [
						{
							"internalType": "uint256",
							"name": "",
							"type": "uint256"
						}
					],
					"stateMutability": "view",
					"type": "function"
				},
				{
					"inputs": [
						{
							"internalType": "address",
							"name": "player",
							"type": "address"
						}
					],
					"name": "getPlayerBattleIds",
					"outputs": [
						{
							"internalType": "uint256[]",
							"name": "",
							"type": "uint256[]"
						}
					],
					"stateMutability": "view",
					"type": "function"
				},
				{
					"inputs": [
						{
							"internalType": "address",
							"name": "user",
							"type": "address"
						}
					],
					"name": "getUserStats",
					"outputs": [
						{
							"components": [
								{
									"internalType": "uint256",
									"name": "totalPredictions",
									"type": "uint256"
								},
								{
									"internalType": "uint256",
									"name": "correctPredictions",
									"type": "uint256"
								},
								{
									"internalType": "uint256",
									"name": "wrongPredictions",
									"type": "uint256"
								},
								{
									"internalType": "uint256",
									"name": "points",
									"type": "uint256"
								},
								{
									"internalType": "uint256",
									"name": "highestDelta",
									"type": "uint256"
								},
								{
									"internalType": "uint256",
									"name": "lastBattleTime",
									"type": "uint256"
								}
							],
							"internalType": "struct BattleLeaderboard.PlayerStats",
							"name": "",
							"type": "tuple"
						}
					],
					"stateMutability": "view",
					"type": "function"
				},
				{
					"inputs": [],
					"name": "owner",
					"outputs": [
						{
							"internalType": "address",
							"name": "",
							"type": "address"
						}
					],
					"stateMutability": "view",
					"type": "function"
				},
				{
					"inputs": [
						{
							"internalType": "address",
							"name": "",
							"type": "address"
						},
						{
							"internalType": "uint256",
							"name": "",
							"type": "uint256"
						}
					],
					"name": "playerBattleIds",
					"outputs": [
						{
							"internalType": "uint256",
							"name": "",
							"type": "uint256"
						}
					],
					"stateMutability": "view",
					"type": "function"
				},
				{
					"inputs": [
						{
							"internalType": "address",
							"name": "",
							"type": "address"
						}
					],
					"name": "playerStats",
					"outputs": [
						{
							"internalType": "uint256",
							"name": "totalPredictions",
							"type": "uint256"
						},
						{
							"internalType": "uint256",
							"name": "correctPredictions",
							"type": "uint256"
						},
						{
							"internalType": "uint256",
							"name": "wrongPredictions",
							"type": "uint256"
						},
						{
							"internalType": "uint256",
							"name": "points",
							"type": "uint256"
						},
						{
							"internalType": "uint256",
							"name": "highestDelta",
							"type": "uint256"
						},
						{
							"internalType": "uint256",
							"name": "lastBattleTime",
							"type": "uint256"
						}
					],
					"stateMutability": "view",
					"type": "function"
				},
				{
					"inputs": [
						{
							"internalType": "string",
							"name": "coinA",
							"type": "string"
						},
						{
							"internalType": "string",
							"name": "coinB",
							"type": "string"
						},
						{
							"internalType": "string",
							"name": "predictedWinner",
							"type": "string"
						},
						{
							"internalType": "string",
							"name": "actualWinner",
							"type": "string"
						},
						{
							"internalType": "uint256",
							"name": "performanceDelta",
							"type": "uint256"
						},
						{
							"internalType": "uint256",
							"name": "scoreA",
							"type": "uint256"
						},
						{
							"internalType": "uint256",
							"name": "scoreB",
							"type": "uint256"
						}
					],
					"name": "submitBattle",
					"outputs": [
						{
							"internalType": "uint256",
							"name": "",
							"type": "uint256"
						},
						{
							"internalType": "bool",
							"name": "",
							"type": "bool"
						},
						{
							"internalType": "uint256",
							"name": "",
							"type": "uint256"
						}
					],
					"stateMutability": "nonpayable",
					"type": "function"
				},
				{
					"inputs": [
						{
							"internalType": "uint256",
							"name": "battleId",
							"type": "uint256"
						},
						{
							"internalType": "address",
							"name": "player",
							"type": "address"
						}
					],
					"name": "wasPredictionCorrect",
					"outputs": [
						{
							"internalType": "bool",
							"name": "",
							"type": "bool"
						}
					],
					"stateMutability": "view",
					"type": "function"
				}
			],
			"devdoc": {
				"details": "Manages battle predictions, results, and player statistics",
				"kind": "dev",
				"methods": {
					"emergencyWithdraw()": {
						"details": "Emergency function to withdraw funds (if any)"
					},
					"getAccuracy(address)": {
						"details": "Get accuracy percentage for a player",
						"params": {
							"player": "The player's address"
						},
						"returns": {
							"_0": "uint256 Accuracy as percentage (0-100)"
						}
					},
					"getBattleById(uint256)": {
						"details": "Get battle record by ID",
						"params": {
							"battleId": "The ID of the battle"
						},
						"returns": {
							"_0": "BattleRecord struct for the specified battle"
						}
					},
					"getBattleCount()": {
						"details": "Get total number of battles recorded",
						"returns": {
							"_0": "uint256 Total battle count"
						}
					},
					"getPlayerBattleCount(address)": {
						"details": "Get number of battles for a player",
						"params": {
							"player": "The player's address"
						},
						"returns": {
							"_0": "uint256 Number of battles"
						}
					},
					"getPlayerBattleIds(address)": {
						"details": "Get all battle IDs for a player",
						"params": {
							"player": "The player's address"
						},
						"returns": {
							"_0": "uint256[] Array of battle IDs"
						}
					},
					"getUserStats(address)": {
						"details": "Get complete statistics for a player",
						"params": {
							"user": "The player's address"
						},
						"returns": {
							"_0": "PlayerStats struct containing all stats"
						}
					},
					"submitBattle(string,string,string,string,uint256,uint256,uint256)": {
						"details": "Submit a battle result and update player statistics",
						"params": {
							"actualWinner": "Actual battle result",
							"coinA": "First cryptocurrency symbol",
							"coinB": "Second cryptocurrency symbol",
							"performanceDelta": "Performance delta in basis points",
							"predictedWinner": "User's prediction",
							"scoreA": "Score of coin A",
							"scoreB": "Score of coin B"
						},
						"returns": {
							"_0": "battleId The ID of the recorded battle",
							"_1": "wasCorrect Whether the prediction was correct",
							"_2": "totalPointsEarned Points earned from this battle"
						}
					},
					"wasPredictionCorrect(uint256,address)": {
						"details": "Compare if a player's prediction was correct",
						"params": {
							"battleId": "The battle ID to check",
							"player": "The player to verify"
						},
						"returns": {
							"_0": "bool Whether the prediction was correct"
						}
					}
				},
				"title": "BattleLeaderboard",
				"version": 1
			},
			"evm": {
				"assembly": "    /* \"src/BattleLeaderboard.sol\":256:10459  contract BattleLeaderboard {... */\n  mstore(0x40, 0x80)\n    /* \"src/BattleLeaderboard.sol\":1780:1781  0 */\n  0x00\n    /* \"src/BattleLeaderboard.sol\":1751:1781  uint256 public battleCount = 0 */\n  0x04\n  sstore\n    /* \"src/BattleLeaderboard.sol\":2910:2986  constructor() {... */\n  callvalue\n  dup1\n  iszero\n  tag_1\n  jumpi\n  0x00\n  dup1\n  revert\ntag_1:\n  pop\n    /* \"src/BattleLeaderboard.sol\":2943:2953  msg.sender */\n  caller\n    /* \"src/BattleLeaderboard.sol\":2935:2940  owner */\n  0x00\n  dup1\n    /* \"src/BattleLeaderboard.sol\":2935:2953  owner = msg.sender */\n  0x0100\n  exp\n  dup2\n  sload\n  dup2\n  0xffffffffffffffffffffffffffffffffffffffff\n  mul\n  not\n  and\n  swap1\n  dup4\n  0xffffffffffffffffffffffffffffffffffffffff\n  and\n  mul\n  or\n  swap1\n  sstore\n  pop\n    /* \"src/BattleLeaderboard.sol\":2973:2978  false */\n  0x00\n    /* \"src/BattleLeaderboard.sol\":2964:2970  locked */\n  dup1\n  0x14\n    /* \"src/BattleLeaderboard.sol\":2964:2978  locked = false */\n  0x0100\n  exp\n  dup2\n  sload\n  dup2\n  0xff\n  mul\n  not\n  and\n  swap1\n  dup4\n  iszero\n  iszero\n  mul\n  or\n  swap1\n  sstore\n  pop\n    /* \"src/BattleLeaderboard.sol\":256:10459  contract BattleLeaderboard {... */\n  dataSize(sub_0)\n  dup1\n  dataOffset(sub_0)\n  0x00\n  codecopy\n  0x00\n  return\nstop\n\nsub_0: assembly {\n        /* \"src/BattleLeaderboard.sol\":256:10459  contract BattleLeaderboard {... */\n      mstore(0x40, 0x80)\n      callvalue\n      dup1\n      iszero\n      tag_1\n      jumpi\n      0x00\n      dup1\n      revert\n    tag_1:\n      pop\n      jumpi(tag_2, lt(calldatasize, 0x04))\n      shr(0xe0, calldataload(0x00))\n      dup1\n      0x96b15bff\n      gt\n      tag_20\n      jumpi\n      dup1\n      0xdb2e21bc\n      gt\n      tag_21\n      jumpi\n      dup1\n      0xdb2e21bc\n      eq\n      tag_15\n      jumpi\n      dup1\n      0xe00b6363\n      eq\n      tag_16\n      jumpi\n      dup1\n      0xe82bec0b\n      eq\n      tag_17\n      jumpi\n      dup1\n      0xec542643\n      eq\n      tag_18\n      jumpi\n      dup1\n      0xf470d5ec\n      eq\n      tag_19\n      jumpi\n      jump(tag_2)\n    tag_21:\n      dup1\n      0x96b15bff\n      eq\n      tag_11\n      jumpi\n      dup1\n      0x9d790301\n      eq\n      tag_12\n      jumpi\n      dup1\n      0xabef5f3f\n      eq\n      tag_13\n      jumpi\n      dup1\n      0xcdafbbb6\n      eq\n      tag_14\n      jumpi\n      jump(tag_2)\n    tag_20:\n      dup1\n      0x4e43603a\n      gt\n      tag_22\n      jumpi\n      dup1\n      0x4e43603a\n      eq\n      tag_7\n      jumpi\n      dup1\n      0x551ecd5b\n      eq\n      tag_8\n      jumpi\n      dup1\n      0x783df30a\n      eq\n      tag_9\n      jumpi\n      dup1\n      0x8da5cb5b\n      eq\n      tag_10\n      jumpi\n      jump(tag_2)\n    tag_22:\n      dup1\n      0x12cdfd1f\n      eq\n      tag_3\n      jumpi\n      dup1\n      0x178bf3bc\n      eq\n      tag_4\n      jumpi\n      dup1\n      0x439c444d\n      eq\n      tag_5\n      jumpi\n      dup1\n      0x4ccc616d\n      eq\n      tag_6\n      jumpi\n    tag_2:\n      0x00\n      dup1\n      revert\n        /* \"src/BattleLeaderboard.sol\":593:638  uint256 public constant DELTA_THRESHOLD = 500 */\n    tag_3:\n      tag_23\n      tag_24\n      jump\t// in\n    tag_23:\n      mload(0x40)\n      tag_25\n      swap2\n      swap1\n      tag_26\n      jump\t// in\n    tag_25:\n      mload(0x40)\n      dup1\n      swap2\n      sub\n      swap1\n      return\n        /* \"src/BattleLeaderboard.sol\":8805:8937  function getPlayerBattleCount(address player) public view returns (uint256) {... */\n    tag_4:\n      tag_27\n      0x04\n      dup1\n      calldatasize\n      sub\n      dup2\n      add\n      swap1\n      tag_28\n      swap2\n      swap1\n      tag_29\n      jump\t// in\n    tag_28:\n      tag_30\n      jump\t// in\n    tag_27:\n      mload(0x40)\n      tag_31\n      swap2\n      swap1\n      tag_26\n      jump\t// in\n    tag_31:\n      mload(0x40)\n      dup1\n      swap2\n      sub\n      swap1\n      return\n        /* \"src/BattleLeaderboard.sol\":1662:1714  mapping(address => uint256[]) public playerBattleIds */\n    tag_5:\n      tag_32\n      0x04\n      dup1\n      calldatasize\n      sub\n      dup2\n      add\n      swap1\n      tag_33\n      swap2\n      swap1\n      tag_34\n      jump\t// in\n    tag_33:\n      tag_35\n      jump\t// in\n    tag_32:\n      mload(0x40)\n      tag_36\n      swap2\n      swap1\n      tag_26\n      jump\t// in\n    tag_36:\n      mload(0x40)\n      dup1\n      swap2\n      sub\n      swap1\n      return\n        /* \"src/BattleLeaderboard.sol\":1602:1655  mapping(uint256 => BattleRecord) public battleHistory */\n    tag_6:\n      tag_37\n      0x04\n      dup1\n      calldatasize\n      sub\n      dup2\n      add\n      swap1\n      tag_38\n      swap2\n      swap1\n      tag_39\n      jump\t// in\n    tag_38:\n      tag_40\n      jump\t// in\n    tag_37:\n      mload(0x40)\n      tag_41\n      swap11\n      swap10\n      swap9\n      swap8\n      swap7\n      swap6\n      swap5\n      swap4\n      swap3\n      swap2\n      swap1\n      tag_42\n      jump\t// in\n    tag_41:\n      mload(0x40)\n      dup1\n      swap2\n      sub\n      swap1\n      return\n        /* \"src/BattleLeaderboard.sol\":7192:7312  function getUserStats(address user) public view returns (PlayerStats memory) {... */\n    tag_7:\n      tag_43\n      0x04\n      dup1\n      calldatasize\n      sub\n      dup2\n      add\n      swap1\n      tag_44\n      swap2\n      swap1\n      tag_29\n      jump\t// in\n    tag_44:\n      tag_45\n      jump\t// in\n    tag_43:\n      mload(0x40)\n      tag_46\n      swap2\n      swap1\n      tag_47\n      jump\t// in\n    tag_46:\n      mload(0x40)\n      dup1\n      swap2\n      sub\n      swap1\n      return\n        /* \"src/BattleLeaderboard.sol\":3785:5364  function submitBattle(... */\n    tag_8:\n      tag_48\n      0x04\n      dup1\n      calldatasize\n      sub\n      dup2\n      add\n      swap1\n      tag_49\n      swap2\n      swap1\n      tag_50\n      jump\t// in\n    tag_49:\n      tag_51\n      jump\t// in\n    tag_48:\n      mload(0x40)\n      tag_52\n      swap4\n      swap3\n      swap2\n      swap1\n      tag_53\n      jump\t// in\n    tag_52:\n      mload(0x40)\n      dup1\n      swap2\n      sub\n      swap1\n      return\n        /* \"src/BattleLeaderboard.sol\":8069:8354  function getAccuracy(address player) public view returns (uint256) {... */\n    tag_9:\n      tag_54\n      0x04\n      dup1\n      calldatasize\n      sub\n      dup2\n      add\n      swap1\n      tag_55\n      swap2\n      swap1\n      tag_29\n      jump\t// in\n    tag_55:\n      tag_56\n      jump\t// in\n    tag_54:\n      mload(0x40)\n      tag_57\n      swap2\n      swap1\n      tag_26\n      jump\t// in\n    tag_57:\n      mload(0x40)\n      dup1\n      swap2\n      sub\n      swap1\n      return\n        /* \"src/BattleLeaderboard.sol\":855:875  address public owner */\n    tag_10:\n      tag_58\n      tag_59\n      jump\t// in\n    tag_58:\n      mload(0x40)\n      tag_60\n      swap2\n      swap1\n      tag_61\n      jump\t// in\n    tag_60:\n      mload(0x40)\n      dup1\n      swap2\n      sub\n      swap1\n      return\n        /* \"src/BattleLeaderboard.sol\":470:528  uint256 public constant POINTS_PER_CORRECT_PREDICTION = 10 */\n    tag_11:\n      tag_62\n      tag_63\n      jump\t// in\n    tag_62:\n      mload(0x40)\n      tag_64\n      swap2\n      swap1\n      tag_26\n      jump\t// in\n    tag_64:\n      mload(0x40)\n      dup1\n      swap2\n      sub\n      swap1\n      return\n        /* \"src/BattleLeaderboard.sol\":7693:7895  function getBattleById(uint256 battleId) public view returns (BattleRecord memory) {... */\n    tag_12:\n      tag_65\n      0x04\n      dup1\n      calldatasize\n      sub\n      dup2\n      add\n      swap1\n      tag_66\n      swap2\n      swap1\n      tag_39\n      jump\t// in\n    tag_66:\n      tag_67\n      jump\t// in\n    tag_65:\n      mload(0x40)\n      tag_68\n      swap2\n      swap1\n      tag_69\n      jump\t// in\n    tag_68:\n      mload(0x40)\n      dup1\n      swap2\n      sub\n      swap1\n      return\n        /* \"src/BattleLeaderboard.sol\":8514:8646  function getPlayerBattleIds(address player) public view returns (uint256[] memory) {... */\n    tag_13:\n      tag_70\n      0x04\n      dup1\n      calldatasize\n      sub\n      dup2\n      add\n      swap1\n      tag_71\n      swap2\n      swap1\n      tag_29\n      jump\t// in\n    tag_71:\n      tag_72\n      jump\t// in\n    tag_70:\n      mload(0x40)\n      tag_73\n      swap2\n      swap1\n      tag_74\n      jump\t// in\n    tag_73:\n      mload(0x40)\n      dup1\n      swap2\n      sub\n      swap1\n      return\n        /* \"src/BattleLeaderboard.sol\":1545:1595  mapping(address => PlayerStats) public playerStats */\n    tag_14:\n      tag_75\n      0x04\n      dup1\n      calldatasize\n      sub\n      dup2\n      add\n      swap1\n      tag_76\n      swap2\n      swap1\n      tag_29\n      jump\t// in\n    tag_76:\n      tag_77\n      jump\t// in\n    tag_75:\n      mload(0x40)\n      tag_78\n      swap7\n      swap6\n      swap5\n      swap4\n      swap3\n      swap2\n      swap1\n      tag_79\n      jump\t// in\n    tag_78:\n      mload(0x40)\n      dup1\n      swap2\n      sub\n      swap1\n      return\n        /* \"src/BattleLeaderboard.sol\":10189:10456  function emergencyWithdraw() public onlyOwner {... */\n    tag_15:\n      tag_80\n      tag_81\n      jump\t// in\n    tag_80:\n      stop\n        /* \"src/BattleLeaderboard.sol\":1751:1781  uint256 public battleCount = 0 */\n    tag_16:\n      tag_82\n      tag_83\n      jump\t// in\n    tag_82:\n      mload(0x40)\n      tag_84\n      swap2\n      swap1\n      tag_26\n      jump\t// in\n    tag_84:\n      mload(0x40)\n      dup1\n      swap2\n      sub\n      swap1\n      return\n        /* \"src/BattleLeaderboard.sol\":9167:9558  function wasPredictionCorrect(uint256 battleId, address player) ... */\n    tag_17:\n      tag_85\n      0x04\n      dup1\n      calldatasize\n      sub\n      dup2\n      add\n      swap1\n      tag_86\n      swap2\n      swap1\n      tag_87\n      jump\t// in\n    tag_86:\n      tag_88\n      jump\t// in\n    tag_85:\n      mload(0x40)\n      tag_89\n      swap2\n      swap1\n      tag_90\n      jump\t// in\n    tag_89:\n      mload(0x40)\n      dup1\n      swap2\n      sub\n      swap1\n      return\n        /* \"src/BattleLeaderboard.sol\":535:586  uint256 public constant BONUS_POINTS_HIGH_DELTA = 5 */\n    tag_18:\n      tag_91\n      tag_92\n      jump\t// in\n    tag_91:\n      mload(0x40)\n      tag_93\n      swap2\n      swap1\n      tag_26\n      jump\t// in\n    tag_93:\n      mload(0x40)\n      dup1\n      swap2\n      sub\n      swap1\n      return\n        /* \"src/BattleLeaderboard.sol\":7431:7524  function getBattleCount() public view returns (uint256) {... */\n    tag_19:\n      tag_94\n      tag_95\n      jump\t// in\n    tag_94:\n      mload(0x40)\n      tag_96\n      swap2\n      swap1\n      tag_26\n      jump\t// in\n    tag_96:\n      mload(0x40)\n      dup1\n      swap2\n      sub\n      swap1\n      return\n        /* \"src/BattleLeaderboard.sol\":593:638  uint256 public constant DELTA_THRESHOLD = 500 */\n    tag_24:\n        /* \"src/BattleLeaderboard.sol\":635:638  500 */\n      0x01f4\n        /* \"src/BattleLeaderboard.sol\":593:638  uint256 public constant DELTA_THRESHOLD = 500 */\n      dup2\n      jump\t// out\n        /* \"src/BattleLeaderboard.sol\":8805:8937  function getPlayerBattleCount(address player) public view returns (uint256) {... */\n    tag_30:\n        /* \"src/BattleLeaderboard.sol\":8872:8879  uint256 */\n      0x00\n        /* \"src/BattleLeaderboard.sol\":8899:8914  playerBattleIds */\n      0x03\n        /* \"src/BattleLeaderboard.sol\":8899:8922  playerBattleIds[player] */\n      0x00\n        /* \"src/BattleLeaderboard.sol\":8915:8921  player */\n      dup4\n        /* \"src/BattleLeaderboard.sol\":8899:8922  playerBattleIds[player] */\n      0xffffffffffffffffffffffffffffffffffffffff\n      and\n      0xffffffffffffffffffffffffffffffffffffffff\n      and\n      dup2\n      mstore\n      0x20\n      add\n      swap1\n      dup2\n      mstore\n      0x20\n      add\n      0x00\n      keccak256\n        /* \"src/BattleLeaderboard.sol\":8899:8929  playerBattleIds[player].length */\n      dup1\n      sload\n      swap1\n      pop\n        /* \"src/BattleLeaderboard.sol\":8892:8929  return playerBattleIds[player].length */\n      swap1\n      pop\n        /* \"src/BattleLeaderboard.sol\":8805:8937  function getPlayerBattleCount(address player) public view returns (uint256) {... */\n      swap2\n      swap1\n      pop\n      jump\t// out\n        /* \"src/BattleLeaderboard.sol\":1662:1714  mapping(address => uint256[]) public playerBattleIds */\n    tag_35:\n      mstore(0x20, 0x03)\n      dup2\n      0x00\n      mstore\n      keccak256(0x00, 0x40)\n      dup2\n      dup2\n      sload\n      dup2\n      lt\n      tag_98\n      jumpi\n      0x00\n      dup1\n      revert\n    tag_98:\n      swap1\n      0x00\n      mstore\n      keccak256(0x00, 0x20)\n      add\n      0x00\n      swap2\n      pop\n      swap2\n      pop\n      pop\n      sload\n      dup2\n      jump\t// out\n        /* \"src/BattleLeaderboard.sol\":1602:1655  mapping(uint256 => BattleRecord) public battleHistory */\n    tag_40:\n      mstore(0x20, 0x02)\n      dup1\n      0x00\n      mstore\n      keccak256(0x00, 0x40)\n      0x00\n      swap2\n      pop\n      swap1\n      pop\n      dup1\n      0x00\n      add\n      0x00\n      swap1\n      sload\n      swap1\n      0x0100\n      exp\n      swap1\n      div\n      0xffffffffffffffffffffffffffffffffffffffff\n      and\n      swap1\n      dup1\n      0x01\n      add\n      dup1\n      sload\n      tag_100\n      swap1\n      tag_101\n      jump\t// in\n    tag_100:\n      dup1\n      0x1f\n      add\n      0x20\n      dup1\n      swap2\n      div\n      mul\n      0x20\n      add\n      mload(0x40)\n      swap1\n      dup2\n      add\n      0x40\n      mstore\n      dup1\n      swap3\n      swap2\n      swap1\n      dup2\n      dup2\n      mstore\n      0x20\n      add\n      dup3\n      dup1\n      sload\n      tag_102\n      swap1\n      tag_101\n      jump\t// in\n    tag_102:\n      dup1\n      iszero\n      tag_103\n      jumpi\n      dup1\n      0x1f\n      lt\n      tag_104\n      jumpi\n      0x0100\n      dup1\n      dup4\n      sload\n      div\n      mul\n      dup4\n      mstore\n      swap2\n      0x20\n      add\n      swap2\n      jump(tag_103)\n    tag_104:\n      dup3\n      add\n      swap2\n      swap1\n      0x00\n      mstore\n      keccak256(0x00, 0x20)\n      swap1\n    tag_105:\n      dup2\n      sload\n      dup2\n      mstore\n      swap1\n      0x01\n      add\n      swap1\n      0x20\n      add\n      dup1\n      dup4\n      gt\n      tag_105\n      jumpi\n      dup3\n      swap1\n      sub\n      0x1f\n      and\n      dup3\n      add\n      swap2\n    tag_103:\n      pop\n      pop\n      pop\n      pop\n      pop\n      swap1\n      dup1\n      0x02\n      add\n      dup1\n      sload\n      tag_106\n      swap1\n      tag_101\n      jump\t// in\n    tag_106:\n      dup1\n      0x1f\n      add\n      0x20\n      dup1\n      swap2\n      div\n      mul\n      0x20\n      add\n      mload(0x40)\n      swap1\n      dup2\n      add\n      0x40\n      mstore\n      dup1\n      swap3\n      swap2\n      swap1\n      dup2\n      dup2\n      mstore\n      0x20\n      add\n      dup3\n      dup1\n      sload\n      tag_107\n      swap1\n      tag_101\n      jump\t// in\n    tag_107:\n      dup1\n      iszero\n      tag_108\n      jumpi\n      dup1\n      0x1f\n      lt\n      tag_109\n      jumpi\n      0x0100\n      dup1\n      dup4\n      sload\n      div\n      mul\n      dup4\n      mstore\n      swap2\n      0x20\n      add\n      swap2\n      jump(tag_108)\n    tag_109:\n      dup3\n      add\n      swap2\n      swap1\n      0x00\n      mstore\n      keccak256(0x00, 0x20)\n      swap1\n    tag_110:\n      dup2\n      sload\n      dup2\n      mstore\n      swap1\n      0x01\n      add\n      swap1\n      0x20\n      add\n      dup1\n      dup4\n      gt\n      tag_110\n      jumpi\n      dup3\n      swap1\n      sub\n      0x1f\n      and\n      dup3\n      add\n      swap2\n    tag_108:\n      pop\n      pop\n      pop\n      pop\n      pop\n      swap1\n      dup1\n      0x03\n      add\n      dup1\n      sload\n      tag_111\n      swap1\n      tag_101\n      jump\t// in\n    tag_111:\n      dup1\n      0x1f\n      add\n      0x20\n      dup1\n      swap2\n      div\n      mul\n      0x20\n      add\n      mload(0x40)\n      swap1\n      dup2\n      add\n      0x40\n      mstore\n      dup1\n      swap3\n      swap2\n      swap1\n      dup2\n      dup2\n      mstore\n      0x20\n      add\n      dup3\n      dup1\n      sload\n      tag_112\n      swap1\n      tag_101\n      jump\t// in\n    tag_112:\n      dup1\n      iszero\n      tag_113\n      jumpi\n      dup1\n      0x1f\n      lt\n      tag_114\n      jumpi\n      0x0100\n      dup1\n      dup4\n      sload\n      div\n      mul\n      dup4\n      mstore\n      swap2\n      0x20\n      add\n      swap2\n      jump(tag_113)\n    tag_114:\n      dup3\n      add\n      swap2\n      swap1\n      0x00\n      mstore\n      keccak256(0x00, 0x20)\n      swap1\n    tag_115:\n      dup2\n      sload\n      dup2\n      mstore\n      swap1\n      0x01\n      add\n      swap1\n      0x20\n      add\n      dup1\n      dup4\n      gt\n      tag_115\n      jumpi\n      dup3\n      swap1\n      sub\n      0x1f\n      and\n      dup3\n      add\n      swap2\n    tag_113:\n      pop\n      pop\n      pop\n      pop\n      pop\n      swap1\n      dup1\n      0x04\n      add\n      dup1\n      sload\n      tag_116\n      swap1\n      tag_101\n      jump\t// in\n    tag_116:\n      dup1\n      0x1f\n      add\n      0x20\n      dup1\n      swap2\n      div\n      mul\n      0x20\n      add\n      mload(0x40)\n      swap1\n      dup2\n      add\n      0x40\n      mstore\n      dup1\n      swap3\n      swap2\n      swap1\n      dup2\n      dup2\n      mstore\n      0x20\n      add\n      dup3\n      dup1\n      sload\n      tag_117\n      swap1\n      tag_101\n      jump\t// in\n    tag_117:\n      dup1\n      iszero\n      tag_118\n      jumpi\n      dup1\n      0x1f\n      lt\n      tag_119\n      jumpi\n      0x0100\n      dup1\n      dup4\n      sload\n      div\n      mul\n      dup4\n      mstore\n      swap2\n      0x20\n      add\n      swap2\n      jump(tag_118)\n    tag_119:\n      dup3\n      add\n      swap2\n      swap1\n      0x00\n      mstore\n      keccak256(0x00, 0x20)\n      swap1\n    tag_120:\n      dup2\n      sload\n      dup2\n      mstore\n      swap1\n      0x01\n      add\n      swap1\n      0x20\n      add\n      dup1\n      dup4\n      gt\n      tag_120\n      jumpi\n      dup3\n      swap1\n      sub\n      0x1f\n      and\n      dup3\n      add\n      swap2\n    tag_118:\n      pop\n      pop\n      pop\n      pop\n      pop\n      swap1\n      dup1\n      0x05\n      add\n      0x00\n      swap1\n      sload\n      swap1\n      0x0100\n      exp\n      swap1\n      div\n      0xff\n      and\n      swap1\n      dup1\n      0x06\n      add\n      sload\n      swap1\n      dup1\n      0x07\n      add\n      sload\n      swap1\n      dup1\n      0x08\n      add\n      sload\n      swap1\n      dup1\n      0x09\n      add\n      sload\n      swap1\n      pop\n      dup11\n      jump\t// out\n        /* \"src/BattleLeaderboard.sol\":7192:7312  function getUserStats(address user) public view returns (PlayerStats memory) {... */\n    tag_45:\n        /* \"src/BattleLeaderboard.sol\":7249:7267  PlayerStats memory */\n      tag_121\n      tag_122\n      jump\t// in\n    tag_121:\n        /* \"src/BattleLeaderboard.sol\":7287:7298  playerStats */\n      0x01\n        /* \"src/BattleLeaderboard.sol\":7287:7304  playerStats[user] */\n      0x00\n        /* \"src/BattleLeaderboard.sol\":7299:7303  user */\n      dup4\n        /* \"src/BattleLeaderboard.sol\":7287:7304  playerStats[user] */\n      0xffffffffffffffffffffffffffffffffffffffff\n      and\n      0xffffffffffffffffffffffffffffffffffffffff\n      and\n      dup2\n      mstore\n      0x20\n      add\n      swap1\n      dup2\n      mstore\n      0x20\n      add\n      0x00\n      keccak256\n        /* \"src/BattleLeaderboard.sol\":7280:7304  return playerStats[user] */\n      mload(0x40)\n      dup1\n      0xc0\n      add\n      0x40\n      mstore\n      swap1\n      dup2\n      0x00\n      dup3\n      add\n      sload\n      dup2\n      mstore\n      0x20\n      add\n      0x01\n      dup3\n      add\n      sload\n      dup2\n      mstore\n      0x20\n      add\n      0x02\n      dup3\n      add\n      sload\n      dup2\n      mstore\n      0x20\n      add\n      0x03\n      dup3\n      add\n      sload\n      dup2\n      mstore\n      0x20\n      add\n      0x04\n      dup3\n      add\n      sload\n      dup2\n      mstore\n      0x20\n      add\n      0x05\n      dup3\n      add\n      sload\n      dup2\n      mstore\n      pop\n      pop\n      swap1\n      pop\n        /* \"src/BattleLeaderboard.sol\":7192:7312  function getUserStats(address user) public view returns (PlayerStats memory) {... */\n      swap2\n      swap1\n      pop\n      jump\t// out\n        /* \"src/BattleLeaderboard.sol\":3785:5364  function submitBattle(... */\n    tag_51:\n        /* \"src/BattleLeaderboard.sol\":4065:4072  uint256 */\n      0x00\n        /* \"src/BattleLeaderboard.sol\":4074:4078  bool */\n      dup1\n        /* \"src/BattleLeaderboard.sol\":4080:4087  uint256 */\n      0x00\n        /* \"src/BattleLeaderboard.sol\":2627:2633  locked */\n      dup1\n      0x14\n      swap1\n      sload\n      swap1\n      0x0100\n      exp\n      swap1\n      div\n      0xff\n      and\n        /* \"src/BattleLeaderboard.sol\":2626:2633  !locked */\n      iszero\n        /* \"src/BattleLeaderboard.sol\":2618:2651  require(!locked, \"No reentrancy\") */\n      tag_125\n      jumpi\n      mload(0x40)\n      0x08c379a000000000000000000000000000000000000000000000000000000000\n      dup2\n      mstore\n      0x04\n      add\n      tag_126\n      swap1\n      tag_127\n      jump\t// in\n    tag_126:\n      mload(0x40)\n      dup1\n      swap2\n      sub\n      swap1\n      revert\n    tag_125:\n        /* \"src/BattleLeaderboard.sol\":2671:2675  true */\n      0x01\n        /* \"src/BattleLeaderboard.sol\":2662:2668  locked */\n      0x00\n      0x14\n        /* \"src/BattleLeaderboard.sol\":2662:2675  locked = true */\n      0x0100\n      exp\n      dup2\n      sload\n      dup2\n      0xff\n      mul\n      not\n      and\n      swap1\n      dup4\n      iszero\n      iszero\n      mul\n      or\n      swap1\n      sstore\n      pop\n        /* \"src/BattleLeaderboard.sol\":4130:4131  0 */\n      0x00\n        /* \"src/BattleLeaderboard.sol\":4114:4119  coinA */\n      dup11\n        /* \"src/BattleLeaderboard.sol\":4108:4127  bytes(coinA).length */\n      mload\n        /* \"src/BattleLeaderboard.sol\":4108:4131  bytes(coinA).length > 0 */\n      gt\n        /* \"src/BattleLeaderboard.sol\":4100:4157  require(bytes(coinA).length > 0, \"coinA cannot be empty\") */\n      tag_129\n      jumpi\n      mload(0x40)\n      0x08c379a000000000000000000000000000000000000000000000000000000000\n      dup2\n      mstore\n      0x04\n      add\n      tag_130\n      swap1\n      tag_131\n      jump\t// in\n    tag_130:\n      mload(0x40)\n      dup1\n      swap2\n      sub\n      swap1\n      revert\n    tag_129:\n        /* \"src/BattleLeaderboard.sol\":4198:4199  0 */\n      0x00\n        /* \"src/BattleLeaderboard.sol\":4182:4187  coinB */\n      dup10\n        /* \"src/BattleLeaderboard.sol\":4176:4195  bytes(coinB).length */\n      mload\n        /* \"src/BattleLeaderboard.sol\":4176:4199  bytes(coinB).length > 0 */\n      gt\n        /* \"src/BattleLeaderboard.sol\":4168:4225  require(bytes(coinB).length > 0, \"coinB cannot be empty\") */\n      tag_132\n      jumpi\n      mload(0x40)\n      0x08c379a000000000000000000000000000000000000000000000000000000000\n      dup2\n      mstore\n      0x04\n      add\n      tag_133\n      swap1\n      tag_134\n      jump\t// in\n    tag_133:\n      mload(0x40)\n      dup1\n      swap2\n      sub\n      swap1\n      revert\n    tag_132:\n        /* \"src/BattleLeaderboard.sol\":4276:4277  0 */\n      0x00\n        /* \"src/BattleLeaderboard.sol\":4250:4265  predictedWinner */\n      dup9\n        /* \"src/BattleLeaderboard.sol\":4244:4273  bytes(predictedWinner).length */\n      mload\n        /* \"src/BattleLeaderboard.sol\":4244:4277  bytes(predictedWinner).length > 0 */\n      gt\n        /* \"src/BattleLeaderboard.sol\":4236:4313  require(bytes(predictedWinner).length > 0, \"predictedWinner cannot be empty\") */\n      tag_135\n      jumpi\n      mload(0x40)\n      0x08c379a000000000000000000000000000000000000000000000000000000000\n      dup2\n      mstore\n      0x04\n      add\n      tag_136\n      swap1\n      tag_137\n      jump\t// in\n    tag_136:\n      mload(0x40)\n      dup1\n      swap2\n      sub\n      swap1\n      revert\n    tag_135:\n        /* \"src/BattleLeaderboard.sol\":4361:4362  0 */\n      0x00\n        /* \"src/BattleLeaderboard.sol\":4338:4350  actualWinner */\n      dup8\n        /* \"src/BattleLeaderboard.sol\":4332:4358  bytes(actualWinner).length */\n      mload\n        /* \"src/BattleLeaderboard.sol\":4332:4362  bytes(actualWinner).length > 0 */\n      gt\n        /* \"src/BattleLeaderboard.sol\":4324:4395  require(bytes(actualWinner).length > 0, \"actualWinner cannot be empty\") */\n      tag_138\n      jumpi\n      mload(0x40)\n      0x08c379a000000000000000000000000000000000000000000000000000000000\n      dup2\n      mstore\n      0x04\n      add\n      tag_139\n      swap1\n      tag_140\n      jump\t// in\n    tag_139:\n      mload(0x40)\n      dup1\n      swap2\n      sub\n      swap1\n      revert\n    tag_138:\n        /* \"src/BattleLeaderboard.sol\":4408:4423  bool wasCorrect */\n      0x00\n        /* \"src/BattleLeaderboard.sol\":4426:4471  compareStrings(predictedWinner, actualWinner) */\n      tag_141\n        /* \"src/BattleLeaderboard.sol\":4441:4456  predictedWinner */\n      dup10\n        /* \"src/BattleLeaderboard.sol\":4458:4470  actualWinner */\n      dup10\n        /* \"src/BattleLeaderboard.sol\":4426:4440  compareStrings */\n      tag_142\n        /* \"src/BattleLeaderboard.sol\":4426:4471  compareStrings(predictedWinner, actualWinner) */\n      jump\t// in\n    tag_141:\n        /* \"src/BattleLeaderboard.sol\":4408:4471  bool wasCorrect = compareStrings(predictedWinner, actualWinner) */\n      swap1\n      pop\n        /* \"src/BattleLeaderboard.sol\":4482:4507  uint256 totalPointsEarned */\n      0x00\n        /* \"src/BattleLeaderboard.sol\":4510:4556  _calculatePoints(wasCorrect, performanceDelta) */\n      tag_143\n        /* \"src/BattleLeaderboard.sol\":4527:4537  wasCorrect */\n      dup3\n        /* \"src/BattleLeaderboard.sol\":4539:4555  performanceDelta */\n      dup10\n        /* \"src/BattleLeaderboard.sol\":4510:4526  _calculatePoints */\n      tag_144\n        /* \"src/BattleLeaderboard.sol\":4510:4556  _calculatePoints(wasCorrect, performanceDelta) */\n      jump\t// in\n    tag_143:\n        /* \"src/BattleLeaderboard.sol\":4482:4556  uint256 totalPointsEarned = _calculatePoints(wasCorrect, performanceDelta) */\n      swap1\n      pop\n        /* \"src/BattleLeaderboard.sol\":4567:4586  uint256 newBattleId */\n      0x00\n        /* \"src/BattleLeaderboard.sol\":4589:4600  battleCount */\n      0x04\n      0x00\n        /* \"src/BattleLeaderboard.sol\":4589:4602  battleCount++ */\n      dup2\n      sload\n      dup1\n      swap3\n      swap2\n      swap1\n      tag_145\n      swap1\n      tag_146\n      jump\t// in\n    tag_145:\n      swap2\n      swap1\n      pop\n      sstore\n        /* \"src/BattleLeaderboard.sol\":4567:4602  uint256 newBattleId = battleCount++ */\n      swap1\n      pop\n        /* \"src/BattleLeaderboard.sol\":4613:4627  address player */\n      0x00\n        /* \"src/BattleLeaderboard.sol\":4630:4640  msg.sender */\n      caller\n        /* \"src/BattleLeaderboard.sol\":4613:4640  address player = msg.sender */\n      swap1\n      pop\n        /* \"src/BattleLeaderboard.sol\":4661:4736  _updatePlayerStats(player, wasCorrect, totalPointsEarned, performanceDelta) */\n      tag_147\n        /* \"src/BattleLeaderboard.sol\":4680:4686  player */\n      dup2\n        /* \"src/BattleLeaderboard.sol\":4688:4698  wasCorrect */\n      dup6\n        /* \"src/BattleLeaderboard.sol\":4700:4717  totalPointsEarned */\n      dup6\n        /* \"src/BattleLeaderboard.sol\":4719:4735  performanceDelta */\n      dup14\n        /* \"src/BattleLeaderboard.sol\":4661:4679  _updatePlayerStats */\n      tag_148\n        /* \"src/BattleLeaderboard.sol\":4661:4736  _updatePlayerStats(player, wasCorrect, totalPointsEarned, performanceDelta) */\n      jump\t// in\n    tag_147:\n        /* \"src/BattleLeaderboard.sol\":4747:4762  playerBattleIds */\n      0x03\n        /* \"src/BattleLeaderboard.sol\":4747:4770  playerBattleIds[player] */\n      0x00\n        /* \"src/BattleLeaderboard.sol\":4763:4769  player */\n      dup3\n        /* \"src/BattleLeaderboard.sol\":4747:4770  playerBattleIds[player] */\n      0xffffffffffffffffffffffffffffffffffffffff\n      and\n      0xffffffffffffffffffffffffffffffffffffffff\n      and\n      dup2\n      mstore\n      0x20\n      add\n      swap1\n      dup2\n      mstore\n      0x20\n      add\n      0x00\n      keccak256\n        /* \"src/BattleLeaderboard.sol\":4776:4787  newBattleId */\n      dup3\n        /* \"src/BattleLeaderboard.sol\":4747:4788  playerBattleIds[player].push(newBattleId) */\n      swap1\n      dup1\n      0x01\n      dup2\n      sload\n      add\n      dup1\n      dup3\n      sstore\n      dup1\n      swap2\n      pop\n      pop\n      0x01\n      swap1\n      sub\n      swap1\n      0x00\n      mstore\n      keccak256(0x00, 0x20)\n      add\n      0x00\n      swap1\n      swap2\n      swap1\n      swap2\n      swap1\n      swap2\n      pop\n      sstore\n        /* \"src/BattleLeaderboard.sol\":4830:5099  BattleRecord(... */\n      mload(0x40)\n      dup1\n      0x0140\n      add\n      0x40\n      mstore\n      dup1\n        /* \"src/BattleLeaderboard.sol\":4857:4863  player */\n      dup3\n        /* \"src/BattleLeaderboard.sol\":4830:5099  BattleRecord(... */\n      0xffffffffffffffffffffffffffffffffffffffff\n      and\n      dup2\n      mstore\n      0x20\n      add\n        /* \"src/BattleLeaderboard.sol\":4878:4883  coinA */\n      dup16\n        /* \"src/BattleLeaderboard.sol\":4830:5099  BattleRecord(... */\n      dup2\n      mstore\n      0x20\n      add\n        /* \"src/BattleLeaderboard.sol\":4898:4903  coinB */\n      dup15\n        /* \"src/BattleLeaderboard.sol\":4830:5099  BattleRecord(... */\n      dup2\n      mstore\n      0x20\n      add\n        /* \"src/BattleLeaderboard.sol\":4918:4933  predictedWinner */\n      dup14\n        /* \"src/BattleLeaderboard.sol\":4830:5099  BattleRecord(... */\n      dup2\n      mstore\n      0x20\n      add\n        /* \"src/BattleLeaderboard.sol\":4948:4960  actualWinner */\n      dup13\n        /* \"src/BattleLeaderboard.sol\":4830:5099  BattleRecord(... */\n      dup2\n      mstore\n      0x20\n      add\n        /* \"src/BattleLeaderboard.sol\":4975:4985  wasCorrect */\n      dup6\n        /* \"src/BattleLeaderboard.sol\":4830:5099  BattleRecord(... */\n      iszero\n      iszero\n      dup2\n      mstore\n      0x20\n      add\n        /* \"src/BattleLeaderboard.sol\":5000:5016  performanceDelta */\n      dup12\n        /* \"src/BattleLeaderboard.sol\":4830:5099  BattleRecord(... */\n      dup2\n      mstore\n      0x20\n      add\n        /* \"src/BattleLeaderboard.sol\":5031:5037  scoreA */\n      dup11\n        /* \"src/BattleLeaderboard.sol\":4830:5099  BattleRecord(... */\n      dup2\n      mstore\n      0x20\n      add\n        /* \"src/BattleLeaderboard.sol\":5052:5058  scoreB */\n      dup10\n        /* \"src/BattleLeaderboard.sol\":4830:5099  BattleRecord(... */\n      dup2\n      mstore\n      0x20\n      add\n        /* \"src/BattleLeaderboard.sol\":5073:5088  block.timestamp */\n      timestamp\n        /* \"src/BattleLeaderboard.sol\":4830:5099  BattleRecord(... */\n      dup2\n      mstore\n      pop\n        /* \"src/BattleLeaderboard.sol\":4801:4814  battleHistory */\n      0x02\n        /* \"src/BattleLeaderboard.sol\":4801:4827  battleHistory[newBattleId] */\n      0x00\n        /* \"src/BattleLeaderboard.sol\":4815:4826  newBattleId */\n      dup5\n        /* \"src/BattleLeaderboard.sol\":4801:4827  battleHistory[newBattleId] */\n      dup2\n      mstore\n      0x20\n      add\n      swap1\n      dup2\n      mstore\n      0x20\n      add\n      0x00\n      keccak256\n        /* \"src/BattleLeaderboard.sol\":4801:5099  battleHistory[newBattleId] = BattleRecord(... */\n      0x00\n      dup3\n      add\n      mload\n      dup2\n      0x00\n      add\n      exp(0x0100, 0x00)\n      dup2\n      sload\n      dup2\n      0xffffffffffffffffffffffffffffffffffffffff\n      mul\n      not\n      and\n      swap1\n      dup4\n      0xffffffffffffffffffffffffffffffffffffffff\n      and\n      mul\n      or\n      swap1\n      sstore\n      pop\n      0x20\n      dup3\n      add\n      mload\n      dup2\n      0x01\n      add\n      swap1\n      dup2\n      tag_150\n      swap2\n      swap1\n      tag_151\n      jump\t// in\n    tag_150:\n      pop\n      0x40\n      dup3\n      add\n      mload\n      dup2\n      0x02\n      add\n      swap1\n      dup2\n      tag_152\n      swap2\n      swap1\n      tag_151\n      jump\t// in\n    tag_152:\n      pop\n      0x60\n      dup3\n      add\n      mload\n      dup2\n      0x03\n      add\n      swap1\n      dup2\n      tag_153\n      swap2\n      swap1\n      tag_151\n      jump\t// in\n    tag_153:\n      pop\n      0x80\n      dup3\n      add\n      mload\n      dup2\n      0x04\n      add\n      swap1\n      dup2\n      tag_154\n      swap2\n      swap1\n      tag_151\n      jump\t// in\n    tag_154:\n      pop\n      0xa0\n      dup3\n      add\n      mload\n      dup2\n      0x05\n      add\n      exp(0x0100, 0x00)\n      dup2\n      sload\n      dup2\n      0xff\n      mul\n      not\n      and\n      swap1\n      dup4\n      iszero\n      iszero\n      mul\n      or\n      swap1\n      sstore\n      pop\n      0xc0\n      dup3\n      add\n      mload\n      dup2\n      0x06\n      add\n      sstore\n      0xe0\n      dup3\n      add\n      mload\n      dup2\n      0x07\n      add\n      sstore\n      0x0100\n      dup3\n      add\n      mload\n      dup2\n      0x08\n      add\n      sstore\n      0x0120\n      dup3\n      add\n      mload\n      dup2\n      0x09\n      add\n      sstore\n      swap1\n      pop\n      pop\n        /* \"src/BattleLeaderboard.sol\":5146:5152  player */\n      dup1\n        /* \"src/BattleLeaderboard.sol\":5117:5201  BattleSubmitted(newBattleId, player, wasCorrect, totalPointsEarned, block.timestamp) */\n      0xffffffffffffffffffffffffffffffffffffffff\n      and\n        /* \"src/BattleLeaderboard.sol\":5133:5144  newBattleId */\n      dup3\n        /* \"src/BattleLeaderboard.sol\":5117:5201  BattleSubmitted(newBattleId, player, wasCorrect, totalPointsEarned, block.timestamp) */\n      0x269fdaad5d16437265c62dfb37cee849e609d046c5233e51b57b5a80354de654\n        /* \"src/BattleLeaderboard.sol\":5154:5164  wasCorrect */\n      dup7\n        /* \"src/BattleLeaderboard.sol\":5166:5183  totalPointsEarned */\n      dup7\n        /* \"src/BattleLeaderboard.sol\":5185:5200  block.timestamp */\n      timestamp\n        /* \"src/BattleLeaderboard.sol\":5117:5201  BattleSubmitted(newBattleId, player, wasCorrect, totalPointsEarned, block.timestamp) */\n      mload(0x40)\n      tag_155\n      swap4\n      swap3\n      swap2\n      swap1\n      tag_156\n      jump\t// in\n    tag_155:\n      mload(0x40)\n      dup1\n      swap2\n      sub\n      swap1\n      log3\n        /* \"src/BattleLeaderboard.sol\":5236:5242  player */\n      dup1\n        /* \"src/BattleLeaderboard.sol\":5217:5292  LeaderboardUpdated(player, playerStats[player].points, getAccuracy(player)) */\n      0xffffffffffffffffffffffffffffffffffffffff\n      and\n      0x5c874adf9d1c93ab636130bb7e727993f1d6a3d33d1ffd925556815d0eec2308\n        /* \"src/BattleLeaderboard.sol\":5244:5255  playerStats */\n      0x01\n        /* \"src/BattleLeaderboard.sol\":5244:5263  playerStats[player] */\n      0x00\n        /* \"src/BattleLeaderboard.sol\":5256:5262  player */\n      dup5\n        /* \"src/BattleLeaderboard.sol\":5244:5263  playerStats[player] */\n      0xffffffffffffffffffffffffffffffffffffffff\n      and\n      0xffffffffffffffffffffffffffffffffffffffff\n      and\n      dup2\n      mstore\n      0x20\n      add\n      swap1\n      dup2\n      mstore\n      0x20\n      add\n      0x00\n      keccak256\n        /* \"src/BattleLeaderboard.sol\":5244:5270  playerStats[player].points */\n      0x03\n      add\n      sload\n        /* \"src/BattleLeaderboard.sol\":5272:5291  getAccuracy(player) */\n      tag_157\n        /* \"src/BattleLeaderboard.sol\":5284:5290  player */\n      dup5\n        /* \"src/BattleLeaderboard.sol\":5272:5283  getAccuracy */\n      tag_56\n        /* \"src/BattleLeaderboard.sol\":5272:5291  getAccuracy(player) */\n      jump\t// in\n    tag_157:\n        /* \"src/BattleLeaderboard.sol\":5217:5292  LeaderboardUpdated(player, playerStats[player].points, getAccuracy(player)) */\n      mload(0x40)\n      tag_158\n      swap3\n      swap2\n      swap1\n      tag_159\n      jump\t// in\n    tag_158:\n      mload(0x40)\n      dup1\n      swap2\n      sub\n      swap1\n      log2\n        /* \"src/BattleLeaderboard.sol\":5313:5324  newBattleId */\n      dup2\n        /* \"src/BattleLeaderboard.sol\":5326:5336  wasCorrect */\n      dup5\n        /* \"src/BattleLeaderboard.sol\":5338:5355  totalPointsEarned */\n      dup5\n        /* \"src/BattleLeaderboard.sol\":5305:5356  return (newBattleId, wasCorrect, totalPointsEarned) */\n      swap7\n      pop\n      swap7\n      pop\n      swap7\n      pop\n      pop\n      pop\n      pop\n      pop\n        /* \"src/BattleLeaderboard.sol\":2707:2712  false */\n      0x00\n        /* \"src/BattleLeaderboard.sol\":2698:2704  locked */\n      dup1\n      0x14\n        /* \"src/BattleLeaderboard.sol\":2698:2712  locked = false */\n      0x0100\n      exp\n      dup2\n      sload\n      dup2\n      0xff\n      mul\n      not\n      and\n      swap1\n      dup4\n      iszero\n      iszero\n      mul\n      or\n      swap1\n      sstore\n      pop\n        /* \"src/BattleLeaderboard.sol\":3785:5364  function submitBattle(... */\n      swap8\n      pop\n      swap8\n      pop\n      swap8\n      swap5\n      pop\n      pop\n      pop\n      pop\n      pop\n      jump\t// out\n        /* \"src/BattleLeaderboard.sol\":8069:8354  function getAccuracy(address player) public view returns (uint256) {... */\n    tag_56:\n        /* \"src/BattleLeaderboard.sol\":8127:8134  uint256 */\n      0x00\n        /* \"src/BattleLeaderboard.sol\":8147:8171  PlayerStats memory stats */\n      dup1\n        /* \"src/BattleLeaderboard.sol\":8174:8185  playerStats */\n      0x01\n        /* \"src/BattleLeaderboard.sol\":8174:8193  playerStats[player] */\n      0x00\n        /* \"src/BattleLeaderboard.sol\":8186:8192  player */\n      dup5\n        /* \"src/BattleLeaderboard.sol\":8174:8193  playerStats[player] */\n      0xffffffffffffffffffffffffffffffffffffffff\n      and\n      0xffffffffffffffffffffffffffffffffffffffff\n      and\n      dup2\n      mstore\n      0x20\n      add\n      swap1\n      dup2\n      mstore\n      0x20\n      add\n      0x00\n      keccak256\n        /* \"src/BattleLeaderboard.sol\":8147:8193  PlayerStats memory stats = playerStats[player] */\n      mload(0x40)\n      dup1\n      0xc0\n      add\n      0x40\n      mstore\n      swap1\n      dup2\n      0x00\n      dup3\n      add\n      sload\n      dup2\n      mstore\n      0x20\n      add\n      0x01\n      dup3\n      add\n      sload\n      dup2\n      mstore\n      0x20\n      add\n      0x02\n      dup3\n      add\n      sload\n      dup2\n      mstore\n      0x20\n      add\n      0x03\n      dup3\n      add\n      sload\n      dup2\n      mstore\n      0x20\n      add\n      0x04\n      dup3\n      add\n      sload\n      dup2\n      mstore\n      0x20\n      add\n      0x05\n      dup3\n      add\n      sload\n      dup2\n      mstore\n      pop\n      pop\n      swap1\n      pop\n        /* \"src/BattleLeaderboard.sol\":8234:8235  0 */\n      0x00\n        /* \"src/BattleLeaderboard.sol\":8208:8213  stats */\n      dup2\n        /* \"src/BattleLeaderboard.sol\":8208:8230  stats.totalPredictions */\n      0x00\n      add\n      mload\n        /* \"src/BattleLeaderboard.sol\":8208:8235  stats.totalPredictions == 0 */\n      sub\n        /* \"src/BattleLeaderboard.sol\":8204:8272  if (stats.totalPredictions == 0) {... */\n      tag_161\n      jumpi\n        /* \"src/BattleLeaderboard.sol\":8259:8260  0 */\n      0x00\n        /* \"src/BattleLeaderboard.sol\":8252:8260  return 0 */\n      swap2\n      pop\n      pop\n      jump(tag_160)\n        /* \"src/BattleLeaderboard.sol\":8204:8272  if (stats.totalPredictions == 0) {... */\n    tag_161:\n        /* \"src/BattleLeaderboard.sol\":8324:8329  stats */\n      dup1\n        /* \"src/BattleLeaderboard.sol\":8324:8346  stats.totalPredictions */\n      0x00\n      add\n      mload\n        /* \"src/BattleLeaderboard.sol\":8317:8320  100 */\n      0x64\n        /* \"src/BattleLeaderboard.sol\":8290:8295  stats */\n      dup3\n        /* \"src/BattleLeaderboard.sol\":8290:8314  stats.correctPredictions */\n      0x20\n      add\n      mload\n        /* \"src/BattleLeaderboard.sol\":8290:8320  stats.correctPredictions * 100 */\n      tag_162\n      swap2\n      swap1\n      tag_163\n      jump\t// in\n    tag_162:\n        /* \"src/BattleLeaderboard.sol\":8289:8346  (stats.correctPredictions * 100) / stats.totalPredictions */\n      tag_164\n      swap2\n      swap1\n      tag_165\n      jump\t// in\n    tag_164:\n        /* \"src/BattleLeaderboard.sol\":8282:8346  return (stats.correctPredictions * 100) / stats.totalPredictions */\n      swap2\n      pop\n      pop\n        /* \"src/BattleLeaderboard.sol\":8069:8354  function getAccuracy(address player) public view returns (uint256) {... */\n    tag_160:\n      swap2\n      swap1\n      pop\n      jump\t// out\n        /* \"src/BattleLeaderboard.sol\":855:875  address public owner */\n    tag_59:\n      0x00\n      dup1\n      sload\n      swap1\n      0x0100\n      exp\n      swap1\n      div\n      0xffffffffffffffffffffffffffffffffffffffff\n      and\n      dup2\n      jump\t// out\n        /* \"src/BattleLeaderboard.sol\":470:528  uint256 public constant POINTS_PER_CORRECT_PREDICTION = 10 */\n    tag_63:\n        /* \"src/BattleLeaderboard.sol\":526:528  10 */\n      0x0a\n        /* \"src/BattleLeaderboard.sol\":470:528  uint256 public constant POINTS_PER_CORRECT_PREDICTION = 10 */\n      dup2\n      jump\t// out\n        /* \"src/BattleLeaderboard.sol\":7693:7895  function getBattleById(uint256 battleId) public view returns (BattleRecord memory) {... */\n    tag_67:\n        /* \"src/BattleLeaderboard.sol\":7755:7774  BattleRecord memory */\n      tag_166\n      tag_167\n      jump\t// in\n    tag_166:\n        /* \"src/BattleLeaderboard.sol\":7806:7817  battleCount */\n      sload(0x04)\n        /* \"src/BattleLeaderboard.sol\":7795:7803  battleId */\n      dup3\n        /* \"src/BattleLeaderboard.sol\":7795:7817  battleId < battleCount */\n      lt\n        /* \"src/BattleLeaderboard.sol\":7787:7846  require(battleId < battleCount, \"Battle ID does not exist\") */\n      tag_169\n      jumpi\n      mload(0x40)\n      0x08c379a000000000000000000000000000000000000000000000000000000000\n      dup2\n      mstore\n      0x04\n      add\n      tag_170\n      swap1\n      tag_171\n      jump\t// in\n    tag_170:\n      mload(0x40)\n      dup1\n      swap2\n      sub\n      swap1\n      revert\n    tag_169:\n        /* \"src/BattleLeaderboard.sol\":7864:7877  battleHistory */\n      0x02\n        /* \"src/BattleLeaderboard.sol\":7864:7887  battleHistory[battleId] */\n      0x00\n        /* \"src/BattleLeaderboard.sol\":7878:7886  battleId */\n      dup4\n        /* \"src/BattleLeaderboard.sol\":7864:7887  battleHistory[battleId] */\n      dup2\n      mstore\n      0x20\n      add\n      swap1\n      dup2\n      mstore\n      0x20\n      add\n      0x00\n      keccak256\n        /* \"src/BattleLeaderboard.sol\":7857:7887  return battleHistory[battleId] */\n      mload(0x40)\n      dup1\n      0x0140\n      add\n      0x40\n      mstore\n      swap1\n      dup2\n      0x00\n      dup3\n      add\n      0x00\n      swap1\n      sload\n      swap1\n      0x0100\n      exp\n      swap1\n      div\n      0xffffffffffffffffffffffffffffffffffffffff\n      and\n      0xffffffffffffffffffffffffffffffffffffffff\n      and\n      0xffffffffffffffffffffffffffffffffffffffff\n      and\n      dup2\n      mstore\n      0x20\n      add\n      0x01\n      dup3\n      add\n      dup1\n      sload\n      tag_172\n      swap1\n      tag_101\n      jump\t// in\n    tag_172:\n      dup1\n      0x1f\n      add\n      0x20\n      dup1\n      swap2\n      div\n      mul\n      0x20\n      add\n      mload(0x40)\n      swap1\n      dup2\n      add\n      0x40\n      mstore\n      dup1\n      swap3\n      swap2\n      swap1\n      dup2\n      dup2\n      mstore\n      0x20\n      add\n      dup3\n      dup1\n      sload\n      tag_173\n      swap1\n      tag_101\n      jump\t// in\n    tag_173:\n      dup1\n      iszero\n      tag_174\n      jumpi\n      dup1\n      0x1f\n      lt\n      tag_175\n      jumpi\n      0x0100\n      dup1\n      dup4\n      sload\n      div\n      mul\n      dup4\n      mstore\n      swap2\n      0x20\n      add\n      swap2\n      jump(tag_174)\n    tag_175:\n      dup3\n      add\n      swap2\n      swap1\n      0x00\n      mstore\n      keccak256(0x00, 0x20)\n      swap1\n    tag_176:\n      dup2\n      sload\n      dup2\n      mstore\n      swap1\n      0x01\n      add\n      swap1\n      0x20\n      add\n      dup1\n      dup4\n      gt\n      tag_176\n      jumpi\n      dup3\n      swap1\n      sub\n      0x1f\n      and\n      dup3\n      add\n      swap2\n    tag_174:\n      pop\n      pop\n      pop\n      pop\n      pop\n      dup2\n      mstore\n      0x20\n      add\n      0x02\n      dup3\n      add\n      dup1\n      sload\n      tag_177\n      swap1\n      tag_101\n      jump\t// in\n    tag_177:\n      dup1\n      0x1f\n      add\n      0x20\n      dup1\n      swap2\n      div\n      mul\n      0x20\n      add\n      mload(0x40)\n      swap1\n      dup2\n      add\n      0x40\n      mstore\n      dup1\n      swap3\n      swap2\n      swap1\n      dup2\n      dup2\n      mstore\n      0x20\n      add\n      dup3\n      dup1\n      sload\n      tag_178\n      swap1\n      tag_101\n      jump\t// in\n    tag_178:\n      dup1\n      iszero\n      tag_179\n      jumpi\n      dup1\n      0x1f\n      lt\n      tag_180\n      jumpi\n      0x0100\n      dup1\n      dup4\n      sload\n      div\n      mul\n      dup4\n      mstore\n      swap2\n      0x20\n      add\n      swap2\n      jump(tag_179)\n    tag_180:\n      dup3\n      add\n      swap2\n      swap1\n      0x00\n      mstore\n      keccak256(0x00, 0x20)\n      swap1\n    tag_181:\n      dup2\n      sload\n      dup2\n      mstore\n      swap1\n      0x01\n      add\n      swap1\n      0x20\n      add\n      dup1\n      dup4\n      gt\n      tag_181\n      jumpi\n      dup3\n      swap1\n      sub\n      0x1f\n      and\n      dup3\n      add\n      swap2\n    tag_179:\n      pop\n      pop\n      pop\n      pop\n      pop\n      dup2\n      mstore\n      0x20\n      add\n      0x03\n      dup3\n      add\n      dup1\n      sload\n      tag_182\n      swap1\n      tag_101\n      jump\t// in\n    tag_182:\n      dup1\n      0x1f\n      add\n      0x20\n      dup1\n      swap2\n      div\n      mul\n      0x20\n      add\n      mload(0x40)\n      swap1\n      dup2\n      add\n      0x40\n      mstore\n      dup1\n      swap3\n      swap2\n      swap1\n      dup2\n      dup2\n      mstore\n      0x20\n      add\n      dup3\n      dup1\n      sload\n      tag_183\n      swap1\n      tag_101\n      jump\t// in\n    tag_183:\n      dup1\n      iszero\n      tag_184\n      jumpi\n      dup1\n      0x1f\n      lt\n      tag_185\n      jumpi\n      0x0100\n      dup1\n      dup4\n      sload\n      div\n      mul\n      dup4\n      mstore\n      swap2\n      0x20\n      add\n      swap2\n      jump(tag_184)\n    tag_185:\n      dup3\n      add\n      swap2\n      swap1\n      0x00\n      mstore\n      keccak256(0x00, 0x20)\n      swap1\n    tag_186:\n      dup2\n      sload\n      dup2\n      mstore\n      swap1\n      0x01\n      add\n      swap1\n      0x20\n      add\n      dup1\n      dup4\n      gt\n      tag_186\n      jumpi\n      dup3\n      swap1\n      sub\n      0x1f\n      and\n      dup3\n      add\n      swap2\n    tag_184:\n      pop\n      pop\n      pop\n      pop\n      pop\n      dup2\n      mstore\n      0x20\n      add\n      0x04\n      dup3\n      add\n      dup1\n      sload\n      tag_187\n      swap1\n      tag_101\n      jump\t// in\n    tag_187:\n      dup1\n      0x1f\n      add\n      0x20\n      dup1\n      swap2\n      div\n      mul\n      0x20\n      add\n      mload(0x40)\n      swap1\n      dup2\n      add\n      0x40\n      mstore\n      dup1\n      swap3\n      swap2\n      swap1\n      dup2\n      dup2\n      mstore\n      0x20\n      add\n      dup3\n      dup1\n      sload\n      tag_188\n      swap1\n      tag_101\n      jump\t// in\n    tag_188:\n      dup1\n      iszero\n      tag_189\n      jumpi\n      dup1\n      0x1f\n      lt\n      tag_190\n      jumpi\n      0x0100\n      dup1\n      dup4\n      sload\n      div\n      mul\n      dup4\n      mstore\n      swap2\n      0x20\n      add\n      swap2\n      jump(tag_189)\n    tag_190:\n      dup3\n      add\n      swap2\n      swap1\n      0x00\n      mstore\n      keccak256(0x00, 0x20)\n      swap1\n    tag_191:\n      dup2\n      sload\n      dup2\n      mstore\n      swap1\n      0x01\n      add\n      swap1\n      0x20\n      add\n      dup1\n      dup4\n      gt\n      tag_191\n      jumpi\n      dup3\n      swap1\n      sub\n      0x1f\n      and\n      dup3\n      add\n      swap2\n    tag_189:\n      pop\n      pop\n      pop\n      pop\n      pop\n      dup2\n      mstore\n      0x20\n      add\n      0x05\n      dup3\n      add\n      0x00\n      swap1\n      sload\n      swap1\n      0x0100\n      exp\n      swap1\n      div\n      0xff\n      and\n      iszero\n      iszero\n      iszero\n      iszero\n      dup2\n      mstore\n      0x20\n      add\n      0x06\n      dup3\n      add\n      sload\n      dup2\n      mstore\n      0x20\n      add\n      0x07\n      dup3\n      add\n      sload\n      dup2\n      mstore\n      0x20\n      add\n      0x08\n      dup3\n      add\n      sload\n      dup2\n      mstore\n      0x20\n      add\n      0x09\n      dup3\n      add\n      sload\n      dup2\n      mstore\n      pop\n      pop\n      swap1\n      pop\n        /* \"src/BattleLeaderboard.sol\":7693:7895  function getBattleById(uint256 battleId) public view returns (BattleRecord memory) {... */\n      swap2\n      swap1\n      pop\n      jump\t// out\n        /* \"src/BattleLeaderboard.sol\":8514:8646  function getPlayerBattleIds(address player) public view returns (uint256[] memory) {... */\n    tag_72:\n        /* \"src/BattleLeaderboard.sol\":8579:8595  uint256[] memory */\n      0x60\n        /* \"src/BattleLeaderboard.sol\":8615:8630  playerBattleIds */\n      0x03\n        /* \"src/BattleLeaderboard.sol\":8615:8638  playerBattleIds[player] */\n      0x00\n        /* \"src/BattleLeaderboard.sol\":8631:8637  player */\n      dup4\n        /* \"src/BattleLeaderboard.sol\":8615:8638  playerBattleIds[player] */\n      0xffffffffffffffffffffffffffffffffffffffff\n      and\n      0xffffffffffffffffffffffffffffffffffffffff\n      and\n      dup2\n      mstore\n      0x20\n      add\n      swap1\n      dup2\n      mstore\n      0x20\n      add\n      0x00\n      keccak256\n        /* \"src/BattleLeaderboard.sol\":8608:8638  return playerBattleIds[player] */\n      dup1\n      sload\n      dup1\n      0x20\n      mul\n      0x20\n      add\n      mload(0x40)\n      swap1\n      dup2\n      add\n      0x40\n      mstore\n      dup1\n      swap3\n      swap2\n      swap1\n      dup2\n      dup2\n      mstore\n      0x20\n      add\n      dup3\n      dup1\n      sload\n      dup1\n      iszero\n      tag_193\n      jumpi\n      0x20\n      mul\n      dup3\n      add\n      swap2\n      swap1\n      0x00\n      mstore\n      keccak256(0x00, 0x20)\n      swap1\n    tag_194:\n      dup2\n      sload\n      dup2\n      mstore\n      0x20\n      add\n      swap1\n      0x01\n      add\n      swap1\n      dup1\n      dup4\n      gt\n      tag_194\n      jumpi\n    tag_193:\n      pop\n      pop\n      pop\n      pop\n      pop\n      swap1\n      pop\n        /* \"src/BattleLeaderboard.sol\":8514:8646  function getPlayerBattleIds(address player) public view returns (uint256[] memory) {... */\n      swap2\n      swap1\n      pop\n      jump\t// out\n        /* \"src/BattleLeaderboard.sol\":1545:1595  mapping(address => PlayerStats) public playerStats */\n    tag_77:\n      mstore(0x20, 0x01)\n      dup1\n      0x00\n      mstore\n      keccak256(0x00, 0x40)\n      0x00\n      swap2\n      pop\n      swap1\n      pop\n      dup1\n      0x00\n      add\n      sload\n      swap1\n      dup1\n      0x01\n      add\n      sload\n      swap1\n      dup1\n      0x02\n      add\n      sload\n      swap1\n      dup1\n      0x03\n      add\n      sload\n      swap1\n      dup1\n      0x04\n      add\n      sload\n      swap1\n      dup1\n      0x05\n      add\n      sload\n      swap1\n      pop\n      dup7\n      jump\t// out\n        /* \"src/BattleLeaderboard.sol\":10189:10456  function emergencyWithdraw() public onlyOwner {... */\n    tag_81:\n        /* \"src/BattleLeaderboard.sol\":2521:2526  owner */\n      0x00\n      dup1\n      sload\n      swap1\n      0x0100\n      exp\n      swap1\n      div\n      0xffffffffffffffffffffffffffffffffffffffff\n      and\n        /* \"src/BattleLeaderboard.sol\":2507:2526  msg.sender == owner */\n      0xffffffffffffffffffffffffffffffffffffffff\n      and\n        /* \"src/BattleLeaderboard.sol\":2507:2517  msg.sender */\n      caller\n        /* \"src/BattleLeaderboard.sol\":2507:2526  msg.sender == owner */\n      0xffffffffffffffffffffffffffffffffffffffff\n      and\n      eq\n        /* \"src/BattleLeaderboard.sol\":2499:2555  require(msg.sender == owner, \"Only owner can call this\") */\n      tag_196\n      jumpi\n      mload(0x40)\n      0x08c379a000000000000000000000000000000000000000000000000000000000\n      dup2\n      mstore\n      0x04\n      add\n      tag_197\n      swap1\n      tag_198\n      jump\t// in\n    tag_197:\n      mload(0x40)\n      dup1\n      swap2\n      sub\n      swap1\n      revert\n    tag_196:\n        /* \"src/BattleLeaderboard.sol\":10246:10261  uint256 balance */\n      0x00\n        /* \"src/BattleLeaderboard.sol\":10264:10285  address(this).balance */\n      selfbalance\n        /* \"src/BattleLeaderboard.sol\":10246:10285  uint256 balance = address(this).balance */\n      swap1\n      pop\n        /* \"src/BattleLeaderboard.sol\":10314:10315  0 */\n      0x00\n        /* \"src/BattleLeaderboard.sol\":10304:10311  balance */\n      dup2\n        /* \"src/BattleLeaderboard.sol\":10304:10315  balance > 0 */\n      gt\n        /* \"src/BattleLeaderboard.sol\":10296:10340  require(balance > 0, \"No funds to withdraw\") */\n      tag_200\n      jumpi\n      mload(0x40)\n      0x08c379a000000000000000000000000000000000000000000000000000000000\n      dup2\n      mstore\n      0x04\n      add\n      tag_201\n      swap1\n      tag_202\n      jump\t// in\n    tag_201:\n      mload(0x40)\n      dup1\n      swap2\n      sub\n      swap1\n      revert\n    tag_200:\n        /* \"src/BattleLeaderboard.sol\":10352:10364  bool success */\n      0x00\n        /* \"src/BattleLeaderboard.sol\":10370:10375  owner */\n      dup1\n      0x00\n      swap1\n      sload\n      swap1\n      0x0100\n      exp\n      swap1\n      div\n      0xffffffffffffffffffffffffffffffffffffffff\n      and\n        /* \"src/BattleLeaderboard.sol\":10370:10380  owner.call */\n      0xffffffffffffffffffffffffffffffffffffffff\n      and\n        /* \"src/BattleLeaderboard.sol\":10388:10395  balance */\n      dup3\n        /* \"src/BattleLeaderboard.sol\":10370:10400  owner.call{value: balance}(\"\") */\n      mload(0x40)\n      tag_203\n      swap1\n      tag_204\n      jump\t// in\n    tag_203:\n      0x00\n      mload(0x40)\n      dup1\n      dup4\n      sub\n      dup2\n      dup6\n      dup8\n      gas\n      call\n      swap3\n      pop\n      pop\n      pop\n      returndatasize\n      dup1\n      0x00\n      dup2\n      eq\n      tag_207\n      jumpi\n      mload(0x40)\n      swap2\n      pop\n      and(add(returndatasize, 0x3f), not(0x1f))\n      dup3\n      add\n      0x40\n      mstore\n      returndatasize\n      dup3\n      mstore\n      returndatasize\n      0x00\n      0x20\n      dup5\n      add\n      returndatacopy\n      jump(tag_206)\n    tag_207:\n      0x60\n      swap2\n      pop\n    tag_206:\n      pop\n        /* \"src/BattleLeaderboard.sol\":10351:10400  (bool success, ) = owner.call{value: balance}(\"\") */\n      pop\n      swap1\n      pop\n        /* \"src/BattleLeaderboard.sol\":10419:10426  success */\n      dup1\n        /* \"src/BattleLeaderboard.sol\":10411:10448  require(success, \"Withdrawal failed\") */\n      tag_208\n      jumpi\n      mload(0x40)\n      0x08c379a000000000000000000000000000000000000000000000000000000000\n      dup2\n      mstore\n      0x04\n      add\n      tag_209\n      swap1\n      tag_210\n      jump\t// in\n    tag_209:\n      mload(0x40)\n      dup1\n      swap2\n      sub\n      swap1\n      revert\n    tag_208:\n        /* \"src/BattleLeaderboard.sol\":10235:10456  {... */\n      pop\n      pop\n        /* \"src/BattleLeaderboard.sol\":10189:10456  function emergencyWithdraw() public onlyOwner {... */\n      jump\t// out\n        /* \"src/BattleLeaderboard.sol\":1751:1781  uint256 public battleCount = 0 */\n    tag_83:\n      sload(0x04)\n      dup2\n      jump\t// out\n        /* \"src/BattleLeaderboard.sol\":9167:9558  function wasPredictionCorrect(uint256 battleId, address player) ... */\n    tag_88:\n        /* \"src/BattleLeaderboard.sol\":9282:9286  bool */\n      0x00\n        /* \"src/BattleLeaderboard.sol\":9324:9335  battleCount */\n      sload(0x04)\n        /* \"src/BattleLeaderboard.sol\":9313:9321  battleId */\n      dup4\n        /* \"src/BattleLeaderboard.sol\":9313:9335  battleId < battleCount */\n      lt\n        /* \"src/BattleLeaderboard.sol\":9305:9364  require(battleId < battleCount, \"Battle ID does not exist\") */\n      tag_212\n      jumpi\n      mload(0x40)\n      0x08c379a000000000000000000000000000000000000000000000000000000000\n      dup2\n      mstore\n      0x04\n      add\n      tag_213\n      swap1\n      tag_171\n      jump\t// in\n    tag_213:\n      mload(0x40)\n      dup1\n      swap2\n      sub\n      swap1\n      revert\n    tag_212:\n        /* \"src/BattleLeaderboard.sol\":9375:9401  BattleRecord memory battle */\n      0x00\n        /* \"src/BattleLeaderboard.sol\":9404:9417  battleHistory */\n      0x02\n        /* \"src/BattleLeaderboard.sol\":9404:9427  battleHistory[battleId] */\n      0x00\n        /* \"src/BattleLeaderboard.sol\":9418:9426  battleId */\n      dup6\n        /* \"src/BattleLeaderboard.sol\":9404:9427  battleHistory[battleId] */\n      dup2\n      mstore\n      0x20\n      add\n      swap1\n      dup2\n      mstore\n      0x20\n      add\n      0x00\n      keccak256\n        /* \"src/BattleLeaderboard.sol\":9375:9427  BattleRecord memory battle = battleHistory[battleId] */\n      mload(0x40)\n      dup1\n      0x0140\n      add\n      0x40\n      mstore\n      swap1\n      dup2\n      0x00\n      dup3\n      add\n      0x00\n      swap1\n      sload\n      swap1\n      0x0100\n      exp\n      swap1\n      div\n      0xffffffffffffffffffffffffffffffffffffffff\n      and\n      0xffffffffffffffffffffffffffffffffffffffff\n      and\n      0xffffffffffffffffffffffffffffffffffffffff\n      and\n      dup2\n      mstore\n      0x20\n      add\n      0x01\n      dup3\n      add\n      dup1\n      sload\n      tag_214\n      swap1\n      tag_101\n      jump\t// in\n    tag_214:\n      dup1\n      0x1f\n      add\n      0x20\n      dup1\n      swap2\n      div\n      mul\n      0x20\n      add\n      mload(0x40)\n      swap1\n      dup2\n      add\n      0x40\n      mstore\n      dup1\n      swap3\n      swap2\n      swap1\n      dup2\n      dup2\n      mstore\n      0x20\n      add\n      dup3\n      dup1\n      sload\n      tag_215\n      swap1\n      tag_101\n      jump\t// in\n    tag_215:\n      dup1\n      iszero\n      tag_216\n      jumpi\n      dup1\n      0x1f\n      lt\n      tag_217\n      jumpi\n      0x0100\n      dup1\n      dup4\n      sload\n      div\n      mul\n      dup4\n      mstore\n      swap2\n      0x20\n      add\n      swap2\n      jump(tag_216)\n    tag_217:\n      dup3\n      add\n      swap2\n      swap1\n      0x00\n      mstore\n      keccak256(0x00, 0x20)\n      swap1\n    tag_218:\n      dup2\n      sload\n      dup2\n      mstore\n      swap1\n      0x01\n      add\n      swap1\n      0x20\n      add\n      dup1\n      dup4\n      gt\n      tag_218\n      jumpi\n      dup3\n      swap1\n      sub\n      0x1f\n      and\n      dup3\n      add\n      swap2\n    tag_216:\n      pop\n      pop\n      pop\n      pop\n      pop\n      dup2\n      mstore\n      0x20\n      add\n      0x02\n      dup3\n      add\n      dup1\n      sload\n      tag_219\n      swap1\n      tag_101\n      jump\t// in\n    tag_219:\n      dup1\n      0x1f\n      add\n      0x20\n      dup1\n      swap2\n      div\n      mul\n      0x20\n      add\n      mload(0x40)\n      swap1\n      dup2\n      add\n      0x40\n      mstore\n      dup1\n      swap3\n      swap2\n      swap1\n      dup2\n      dup2\n      mstore\n      0x20\n      add\n      dup3\n      dup1\n      sload\n      tag_220\n      swap1\n      tag_101\n      jump\t// in\n    tag_220:\n      dup1\n      iszero\n      tag_221\n      jumpi\n      dup1\n      0x1f\n      lt\n      tag_222\n      jumpi\n      0x0100\n      dup1\n      dup4\n      sload\n      div\n      mul\n      dup4\n      mstore\n      swap2\n      0x20\n      add\n      swap2\n      jump(tag_221)\n    tag_222:\n      dup3\n      add\n      swap2\n      swap1\n      0x00\n      mstore\n      keccak256(0x00, 0x20)\n      swap1\n    tag_223:\n      dup2\n      sload\n      dup2\n      mstore\n      swap1\n      0x01\n      add\n      swap1\n      0x20\n      add\n      dup1\n      dup4\n      gt\n      tag_223\n      jumpi\n      dup3\n      swap1\n      sub\n      0x1f\n      and\n      dup3\n      add\n      swap2\n    tag_221:\n      pop\n      pop\n      pop\n      pop\n      pop\n      dup2\n      mstore\n      0x20\n      add\n      0x03\n      dup3\n      add\n      dup1\n      sload\n      tag_224\n      swap1\n      tag_101\n      jump\t// in\n    tag_224:\n      dup1\n      0x1f\n      add\n      0x20\n      dup1\n      swap2\n      div\n      mul\n      0x20\n      add\n      mload(0x40)\n      swap1\n      dup2\n      add\n      0x40\n      mstore\n      dup1\n      swap3\n      swap2\n      swap1\n      dup2\n      dup2\n      mstore\n      0x20\n      add\n      dup3\n      dup1\n      sload\n      tag_225\n      swap1\n      tag_101\n      jump\t// in\n    tag_225:\n      dup1\n      iszero\n      tag_226\n      jumpi\n      dup1\n      0x1f\n      lt\n      tag_227\n      jumpi\n      0x0100\n      dup1\n      dup4\n      sload\n      div\n      mul\n      dup4\n      mstore\n      swap2\n      0x20\n      add\n      swap2\n      jump(tag_226)\n    tag_227:\n      dup3\n      add\n      swap2\n      swap1\n      0x00\n      mstore\n      keccak256(0x00, 0x20)\n      swap1\n    tag_228:\n      dup2\n      sload\n      dup2\n      mstore\n      swap1\n      0x01\n      add\n      swap1\n      0x20\n      add\n      dup1\n      dup4\n      gt\n      tag_228\n      jumpi\n      dup3\n      swap1\n      sub\n      0x1f\n      and\n      dup3\n      add\n      swap2\n    tag_226:\n      pop\n      pop\n      pop\n      pop\n      pop\n      dup2\n      mstore\n      0x20\n      add\n      0x04\n      dup3\n      add\n      dup1\n      sload\n      tag_229\n      swap1\n      tag_101\n      jump\t// in\n    tag_229:\n      dup1\n      0x1f\n      add\n      0x20\n      dup1\n      swap2\n      div\n      mul\n      0x20\n      add\n      mload(0x40)\n      swap1\n      dup2\n      add\n      0x40\n      mstore\n      dup1\n      swap3\n      swap2\n      swap1\n      dup2\n      dup2\n      mstore\n      0x20\n      add\n      dup3\n      dup1\n      sload\n      tag_230\n      swap1\n      tag_101\n      jump\t// in\n    tag_230:\n      dup1\n      iszero\n      tag_231\n      jumpi\n      dup1\n      0x1f\n      lt\n      tag_232\n      jumpi\n      0x0100\n      dup1\n      dup4\n      sload\n      div\n      mul\n      dup4\n      mstore\n      swap2\n      0x20\n      add\n      swap2\n      jump(tag_231)\n    tag_232:\n      dup3\n      add\n      swap2\n      swap1\n      0x00\n      mstore\n      keccak256(0x00, 0x20)\n      swap1\n    tag_233:\n      dup2\n      sload\n      dup2\n      mstore\n      swap1\n      0x01\n      add\n      swap1\n      0x20\n      add\n      dup1\n      dup4\n      gt\n      tag_233\n      jumpi\n      dup3\n      swap1\n      sub\n      0x1f\n      and\n      dup3\n      add\n      swap2\n    tag_231:\n      pop\n      pop\n      pop\n      pop\n      pop\n      dup2\n      mstore\n      0x20\n      add\n      0x05\n      dup3\n      add\n      0x00\n      swap1\n      sload\n      swap1\n      0x0100\n      exp\n      swap1\n      div\n      0xff\n      and\n      iszero\n      iszero\n      iszero\n      iszero\n      dup2\n      mstore\n      0x20\n      add\n      0x06\n      dup3\n      add\n      sload\n      dup2\n      mstore\n      0x20\n      add\n      0x07\n      dup3\n      add\n      sload\n      dup2\n      mstore\n      0x20\n      add\n      0x08\n      dup3\n      add\n      sload\n      dup2\n      mstore\n      0x20\n      add\n      0x09\n      dup3\n      add\n      sload\n      dup2\n      mstore\n      pop\n      pop\n      swap1\n      pop\n        /* \"src/BattleLeaderboard.sol\":9463:9469  player */\n      dup3\n        /* \"src/BattleLeaderboard.sol\":9446:9469  battle.player == player */\n      0xffffffffffffffffffffffffffffffffffffffff\n      and\n        /* \"src/BattleLeaderboard.sol\":9446:9452  battle */\n      dup2\n        /* \"src/BattleLeaderboard.sol\":9446:9459  battle.player */\n      0x00\n      add\n      mload\n        /* \"src/BattleLeaderboard.sol\":9446:9469  battle.player == player */\n      0xffffffffffffffffffffffffffffffffffffffff\n      and\n      eq\n        /* \"src/BattleLeaderboard.sol\":9438:9515  require(battle.player == player, \"Player did not participate in this battle\") */\n      tag_234\n      jumpi\n      mload(0x40)\n      0x08c379a000000000000000000000000000000000000000000000000000000000\n      dup2\n      mstore\n      0x04\n      add\n      tag_235\n      swap1\n      tag_236\n      jump\t// in\n    tag_235:\n      mload(0x40)\n      dup1\n      swap2\n      sub\n      swap1\n      revert\n    tag_234:\n        /* \"src/BattleLeaderboard.sol\":9533:9539  battle */\n      dup1\n        /* \"src/BattleLeaderboard.sol\":9533:9550  battle.wasCorrect */\n      0xa0\n      add\n      mload\n        /* \"src/BattleLeaderboard.sol\":9526:9550  return battle.wasCorrect */\n      swap2\n      pop\n      pop\n        /* \"src/BattleLeaderboard.sol\":9167:9558  function wasPredictionCorrect(uint256 battleId, address player) ... */\n      swap3\n      swap2\n      pop\n      pop\n      jump\t// out\n        /* \"src/BattleLeaderboard.sol\":535:586  uint256 public constant BONUS_POINTS_HIGH_DELTA = 5 */\n    tag_92:\n        /* \"src/BattleLeaderboard.sol\":585:586  5 */\n      0x05\n        /* \"src/BattleLeaderboard.sol\":535:586  uint256 public constant BONUS_POINTS_HIGH_DELTA = 5 */\n      dup2\n      jump\t// out\n        /* \"src/BattleLeaderboard.sol\":7431:7524  function getBattleCount() public view returns (uint256) {... */\n    tag_95:\n        /* \"src/BattleLeaderboard.sol\":7478:7485  uint256 */\n      0x00\n        /* \"src/BattleLeaderboard.sol\":7505:7516  battleCount */\n      sload(0x04)\n        /* \"src/BattleLeaderboard.sol\":7498:7516  return battleCount */\n      swap1\n      pop\n        /* \"src/BattleLeaderboard.sol\":7431:7524  function getBattleCount() public view returns (uint256) {... */\n      swap1\n      jump\t// out\n        /* \"src/BattleLeaderboard.sol\":9927:10104  function compareStrings(string memory a, string memory b) internal pure returns (bool) {... */\n    tag_142:\n        /* \"src/BattleLeaderboard.sol\":10008:10012  bool */\n      0x00\n        /* \"src/BattleLeaderboard.sol\":10093:10094  b */\n      dup2\n        /* \"src/BattleLeaderboard.sol\":10076:10095  abi.encodePacked(b) */\n      add(0x20, mload(0x40))\n      tag_239\n      swap2\n      swap1\n      tag_240\n      jump\t// in\n    tag_239:\n      mload(0x40)\n      0x20\n      dup2\n      dup4\n      sub\n      sub\n      dup2\n      mstore\n      swap1\n      0x40\n      mstore\n        /* \"src/BattleLeaderboard.sol\":10066:10096  keccak256(abi.encodePacked(b)) */\n      dup1\n      mload\n      swap1\n      0x20\n      add\n      keccak256\n        /* \"src/BattleLeaderboard.sol\":10059:10060  a */\n      dup4\n        /* \"src/BattleLeaderboard.sol\":10042:10061  abi.encodePacked(a) */\n      add(0x20, mload(0x40))\n      tag_241\n      swap2\n      swap1\n      tag_240\n      jump\t// in\n    tag_241:\n      mload(0x40)\n      0x20\n      dup2\n      dup4\n      sub\n      sub\n      dup2\n      mstore\n      swap1\n      0x40\n      mstore\n        /* \"src/BattleLeaderboard.sol\":10032:10062  keccak256(abi.encodePacked(a)) */\n      dup1\n      mload\n      swap1\n      0x20\n      add\n      keccak256\n        /* \"src/BattleLeaderboard.sol\":10032:10096  keccak256(abi.encodePacked(a)) == keccak256(abi.encodePacked(b)) */\n      eq\n        /* \"src/BattleLeaderboard.sol\":10025:10096  return keccak256(abi.encodePacked(a)) == keccak256(abi.encodePacked(b)) */\n      swap1\n      pop\n        /* \"src/BattleLeaderboard.sol\":9927:10104  function compareStrings(string memory a, string memory b) internal pure returns (bool) {... */\n      swap3\n      swap2\n      pop\n      pop\n      jump\t// out\n        /* \"src/BattleLeaderboard.sol\":5608:5953  function _calculatePoints(bool wasCorrect, uint256 performanceDelta) private pure returns (uint256) {... */\n    tag_144:\n        /* \"src/BattleLeaderboard.sol\":5699:5706  uint256 */\n      0x00\n        /* \"src/BattleLeaderboard.sol\":5724:5734  wasCorrect */\n      dup3\n        /* \"src/BattleLeaderboard.sol\":5719:5744  if (!wasCorrect) return 0 */\n      tag_243\n      jumpi\n        /* \"src/BattleLeaderboard.sol\":5743:5744  0 */\n      0x00\n        /* \"src/BattleLeaderboard.sol\":5736:5744  return 0 */\n      swap1\n      pop\n      jump(tag_242)\n        /* \"src/BattleLeaderboard.sol\":5719:5744  if (!wasCorrect) return 0 */\n    tag_243:\n        /* \"src/BattleLeaderboard.sol\":5765:5779  uint256 points */\n      0x00\n        /* \"src/BattleLeaderboard.sol\":526:528  10 */\n      0x0a\n        /* \"src/BattleLeaderboard.sol\":5765:5811  uint256 points = POINTS_PER_CORRECT_PREDICTION */\n      swap1\n      pop\n        /* \"src/BattleLeaderboard.sol\":635:638  500 */\n      0x01f4\n        /* \"src/BattleLeaderboard.sol\":5826:5842  performanceDelta */\n      dup4\n        /* \"src/BattleLeaderboard.sol\":5826:5860  performanceDelta > DELTA_THRESHOLD */\n      gt\n        /* \"src/BattleLeaderboard.sol\":5822:5922  if (performanceDelta > DELTA_THRESHOLD) {... */\n      iszero\n      tag_244\n      jumpi\n        /* \"src/BattleLeaderboard.sol\":585:586  5 */\n      0x05\n        /* \"src/BattleLeaderboard.sol\":5877:5910  points += BONUS_POINTS_HIGH_DELTA */\n      dup2\n      tag_245\n      swap2\n      swap1\n      tag_246\n      jump\t// in\n    tag_245:\n      swap1\n      pop\n        /* \"src/BattleLeaderboard.sol\":5822:5922  if (performanceDelta > DELTA_THRESHOLD) {... */\n    tag_244:\n        /* \"src/BattleLeaderboard.sol\":5939:5945  points */\n      dup1\n        /* \"src/BattleLeaderboard.sol\":5932:5945  return points */\n      swap2\n      pop\n      pop\n        /* \"src/BattleLeaderboard.sol\":5608:5953  function _calculatePoints(bool wasCorrect, uint256 performanceDelta) private pure returns (uint256) {... */\n    tag_242:\n      swap3\n      swap2\n      pop\n      pop\n      jump\t// out\n        /* \"src/BattleLeaderboard.sol\":6203:6827  function _updatePlayerStats(... */\n    tag_148:\n        /* \"src/BattleLeaderboard.sol\":6374:6399  PlayerStats storage stats */\n      0x00\n        /* \"src/BattleLeaderboard.sol\":6402:6413  playerStats */\n      0x01\n        /* \"src/BattleLeaderboard.sol\":6402:6421  playerStats[player] */\n      0x00\n        /* \"src/BattleLeaderboard.sol\":6414:6420  player */\n      dup7\n        /* \"src/BattleLeaderboard.sol\":6402:6421  playerStats[player] */\n      0xffffffffffffffffffffffffffffffffffffffff\n      and\n      0xffffffffffffffffffffffffffffffffffffffff\n      and\n      dup2\n      mstore\n      0x20\n      add\n      swap1\n      dup2\n      mstore\n      0x20\n      add\n      0x00\n      keccak256\n        /* \"src/BattleLeaderboard.sol\":6374:6421  PlayerStats storage stats = playerStats[player] */\n      swap1\n      pop\n        /* \"src/BattleLeaderboard.sol\":6442:6447  stats */\n      dup1\n        /* \"src/BattleLeaderboard.sol\":6442:6464  stats.totalPredictions */\n      0x00\n      add\n      0x00\n        /* \"src/BattleLeaderboard.sol\":6442:6466  stats.totalPredictions++ */\n      dup2\n      sload\n      dup1\n      swap3\n      swap2\n      swap1\n      tag_248\n      swap1\n      tag_146\n      jump\t// in\n    tag_248:\n      swap2\n      swap1\n      pop\n      sstore\n      pop\n        /* \"src/BattleLeaderboard.sol\":6481:6491  wasCorrect */\n      dup4\n        /* \"src/BattleLeaderboard.sol\":6477:6732  if (wasCorrect) {... */\n      iszero\n      tag_249\n      jumpi\n        /* \"src/BattleLeaderboard.sol\":6508:6513  stats */\n      dup1\n        /* \"src/BattleLeaderboard.sol\":6508:6532  stats.correctPredictions */\n      0x01\n      add\n      0x00\n        /* \"src/BattleLeaderboard.sol\":6508:6534  stats.correctPredictions++ */\n      dup2\n      sload\n      dup1\n      swap3\n      swap2\n      swap1\n      tag_250\n      swap1\n      tag_146\n      jump\t// in\n    tag_250:\n      swap2\n      swap1\n      pop\n      sstore\n      pop\n        /* \"src/BattleLeaderboard.sol\":6572:6577  stats */\n      dup1\n        /* \"src/BattleLeaderboard.sol\":6572:6590  stats.highestDelta */\n      0x04\n      add\n      sload\n        /* \"src/BattleLeaderboard.sol\":6553:6569  performanceDelta */\n      dup3\n        /* \"src/BattleLeaderboard.sol\":6553:6590  performanceDelta > stats.highestDelta */\n      gt\n        /* \"src/BattleLeaderboard.sol\":6549:6664  if (performanceDelta > stats.highestDelta) {... */\n      iszero\n      tag_251\n      jumpi\n        /* \"src/BattleLeaderboard.sol\":6632:6648  performanceDelta */\n      dup2\n        /* \"src/BattleLeaderboard.sol\":6611:6616  stats */\n      dup2\n        /* \"src/BattleLeaderboard.sol\":6611:6629  stats.highestDelta */\n      0x04\n      add\n        /* \"src/BattleLeaderboard.sol\":6611:6648  stats.highestDelta = performanceDelta */\n      dup2\n      swap1\n      sstore\n      pop\n        /* \"src/BattleLeaderboard.sol\":6549:6664  if (performanceDelta > stats.highestDelta) {... */\n    tag_251:\n        /* \"src/BattleLeaderboard.sol\":6477:6732  if (wasCorrect) {... */\n      jump(tag_252)\n    tag_249:\n        /* \"src/BattleLeaderboard.sol\":6696:6701  stats */\n      dup1\n        /* \"src/BattleLeaderboard.sol\":6696:6718  stats.wrongPredictions */\n      0x02\n      add\n      0x00\n        /* \"src/BattleLeaderboard.sol\":6696:6720  stats.wrongPredictions++ */\n      dup2\n      sload\n      dup1\n      swap3\n      swap2\n      swap1\n      tag_253\n      swap1\n      tag_146\n      jump\t// in\n    tag_253:\n      swap2\n      swap1\n      pop\n      sstore\n      pop\n        /* \"src/BattleLeaderboard.sol\":6477:6732  if (wasCorrect) {... */\n    tag_252:\n        /* \"src/BattleLeaderboard.sol\":6758:6770  pointsEarned */\n      dup3\n        /* \"src/BattleLeaderboard.sol\":6742:6747  stats */\n      dup2\n        /* \"src/BattleLeaderboard.sol\":6742:6754  stats.points */\n      0x03\n      add\n      0x00\n        /* \"src/BattleLeaderboard.sol\":6742:6770  stats.points += pointsEarned */\n      dup3\n      dup3\n      sload\n      tag_254\n      swap2\n      swap1\n      tag_246\n      jump\t// in\n    tag_254:\n      swap3\n      pop\n      pop\n      dup2\n      swap1\n      sstore\n      pop\n        /* \"src/BattleLeaderboard.sol\":6804:6819  block.timestamp */\n      timestamp\n        /* \"src/BattleLeaderboard.sol\":6781:6786  stats */\n      dup2\n        /* \"src/BattleLeaderboard.sol\":6781:6801  stats.lastBattleTime */\n      0x05\n      add\n        /* \"src/BattleLeaderboard.sol\":6781:6819  stats.lastBattleTime = block.timestamp */\n      dup2\n      swap1\n      sstore\n      pop\n        /* \"src/BattleLeaderboard.sol\":6363:6827  {... */\n      pop\n        /* \"src/BattleLeaderboard.sol\":6203:6827  function _updatePlayerStats(... */\n      pop\n      pop\n      pop\n      pop\n      jump\t// out\n    tag_122:\n      mload(0x40)\n      dup1\n      0xc0\n      add\n      0x40\n      mstore\n      dup1\n      0x00\n      dup2\n      mstore\n      0x20\n      add\n      0x00\n      dup2\n      mstore\n      0x20\n      add\n      0x00\n      dup2\n      mstore\n      0x20\n      add\n      0x00\n      dup2\n      mstore\n      0x20\n      add\n      0x00\n      dup2\n      mstore\n      0x20\n      add\n      0x00\n      dup2\n      mstore\n      pop\n      swap1\n      jump\t// out\n    tag_167:\n      mload(0x40)\n      dup1\n      0x0140\n      add\n      0x40\n      mstore\n      dup1\n      and(0xffffffffffffffffffffffffffffffffffffffff, 0x00)\n      dup2\n      mstore\n      0x20\n      add\n      0x60\n      dup2\n      mstore\n      0x20\n      add\n      0x60\n      dup2\n      mstore\n      0x20\n      add\n      0x60\n      dup2\n      mstore\n      0x20\n      add\n      0x60\n      dup2\n      mstore\n      0x20\n      add\n      iszero(iszero(0x00))\n      dup2\n      mstore\n      0x20\n      add\n      0x00\n      dup2\n      mstore\n      0x20\n      add\n      0x00\n      dup2\n      mstore\n      0x20\n      add\n      0x00\n      dup2\n      mstore\n      0x20\n      add\n      0x00\n      dup2\n      mstore\n      pop\n      swap1\n      jump\t// out\n        /* \"#utility.yul\":7:84   */\n    tag_255:\n        /* \"#utility.yul\":44:51   */\n      0x00\n        /* \"#utility.yul\":73:78   */\n      dup2\n        /* \"#utility.yul\":62:78   */\n      swap1\n      pop\n        /* \"#utility.yul\":7:84   */\n      swap2\n      swap1\n      pop\n      jump\t// out\n        /* \"#utility.yul\":90:208   */\n    tag_256:\n        /* \"#utility.yul\":177:201   */\n      tag_342\n        /* \"#utility.yul\":195:200   */\n      dup2\n        /* \"#utility.yul\":177:201   */\n      tag_255\n      jump\t// in\n    tag_342:\n        /* \"#utility.yul\":172:175   */\n      dup3\n        /* \"#utility.yul\":165:202   */\n      mstore\n        /* \"#utility.yul\":90:208   */\n      pop\n      pop\n      jump\t// out\n        /* \"#utility.yul\":214:436   */\n    tag_26:\n        /* \"#utility.yul\":307:311   */\n      0x00\n        /* \"#utility.yul\":345:347   */\n      0x20\n        /* \"#utility.yul\":334:343   */\n      dup3\n        /* \"#utility.yul\":330:348   */\n      add\n        /* \"#utility.yul\":322:348   */\n      swap1\n      pop\n        /* \"#utility.yul\":358:429   */\n      tag_344\n        /* \"#utility.yul\":426:427   */\n      0x00\n        /* \"#utility.yul\":415:424   */\n      dup4\n        /* \"#utility.yul\":411:428   */\n      add\n        /* \"#utility.yul\":402:408   */\n      dup5\n        /* \"#utility.yul\":358:429   */\n      tag_256\n      jump\t// in\n    tag_344:\n        /* \"#utility.yul\":214:436   */\n      swap3\n      swap2\n      pop\n      pop\n      jump\t// out\n        /* \"#utility.yul\":442:517   */\n    tag_257:\n        /* \"#utility.yul\":475:481   */\n      0x00\n        /* \"#utility.yul\":508:510   */\n      0x40\n        /* \"#utility.yul\":502:511   */\n      mload\n        /* \"#utility.yul\":492:511   */\n      swap1\n      pop\n        /* \"#utility.yul\":442:517   */\n      swap1\n      jump\t// out\n        /* \"#utility.yul\":523:640   */\n    tag_258:\n        /* \"#utility.yul\":632:633   */\n      0x00\n        /* \"#utility.yul\":629:630   */\n      dup1\n        /* \"#utility.yul\":622:634   */\n      revert\n        /* \"#utility.yul\":646:763   */\n    tag_259:\n        /* \"#utility.yul\":755:756   */\n      0x00\n        /* \"#utility.yul\":752:753   */\n      dup1\n        /* \"#utility.yul\":745:757   */\n      revert\n        /* \"#utility.yul\":769:895   */\n    tag_260:\n        /* \"#utility.yul\":806:813   */\n      0x00\n        /* \"#utility.yul\":846:888   */\n      0xffffffffffffffffffffffffffffffffffffffff\n        /* \"#utility.yul\":839:844   */\n      dup3\n        /* \"#utility.yul\":835:889   */\n      and\n        /* \"#utility.yul\":824:889   */\n      swap1\n      pop\n        /* \"#utility.yul\":769:895   */\n      swap2\n      swap1\n      pop\n      jump\t// out\n        /* \"#utility.yul\":901:997   */\n    tag_261:\n        /* \"#utility.yul\":938:945   */\n      0x00\n        /* \"#utility.yul\":967:991   */\n      tag_350\n        /* \"#utility.yul\":985:990   */\n      dup3\n        /* \"#utility.yul\":967:991   */\n      tag_260\n      jump\t// in\n    tag_350:\n        /* \"#utility.yul\":956:991   */\n      swap1\n      pop\n        /* \"#utility.yul\":901:997   */\n      swap2\n      swap1\n      pop\n      jump\t// out\n        /* \"#utility.yul\":1003:1125   */\n    tag_262:\n        /* \"#utility.yul\":1076:1100   */\n      tag_352\n        /* \"#utility.yul\":1094:1099   */\n      dup2\n        /* \"#utility.yul\":1076:1100   */\n      tag_261\n      jump\t// in\n    tag_352:\n        /* \"#utility.yul\":1069:1074   */\n      dup2\n        /* \"#utility.yul\":1066:1101   */\n      eq\n        /* \"#utility.yul\":1056:1119   */\n      tag_353\n      jumpi\n        /* \"#utility.yul\":1115:1116   */\n      0x00\n        /* \"#utility.yul\":1112:1113   */\n      dup1\n        /* \"#utility.yul\":1105:1117   */\n      revert\n        /* \"#utility.yul\":1056:1119   */\n    tag_353:\n        /* \"#utility.yul\":1003:1125   */\n      pop\n      jump\t// out\n        /* \"#utility.yul\":1131:1270   */\n    tag_263:\n        /* \"#utility.yul\":1177:1182   */\n      0x00\n        /* \"#utility.yul\":1215:1221   */\n      dup2\n        /* \"#utility.yul\":1202:1222   */\n      calldataload\n        /* \"#utility.yul\":1193:1222   */\n      swap1\n      pop\n        /* \"#utility.yul\":1231:1264   */\n      tag_355\n        /* \"#utility.yul\":1258:1263   */\n      dup2\n        /* \"#utility.yul\":1231:1264   */\n      tag_262\n      jump\t// in\n    tag_355:\n        /* \"#utility.yul\":1131:1270   */\n      swap3\n      swap2\n      pop\n      pop\n      jump\t// out\n        /* \"#utility.yul\":1276:1605   */\n    tag_29:\n        /* \"#utility.yul\":1335:1341   */\n      0x00\n        /* \"#utility.yul\":1384:1386   */\n      0x20\n        /* \"#utility.yul\":1372:1381   */\n      dup3\n        /* \"#utility.yul\":1363:1370   */\n      dup5\n        /* \"#utility.yul\":1359:1382   */\n      sub\n        /* \"#utility.yul\":1355:1387   */\n      slt\n        /* \"#utility.yul\":1352:1471   */\n      iszero\n      tag_357\n      jumpi\n        /* \"#utility.yul\":1390:1469   */\n      tag_358\n      tag_258\n      jump\t// in\n    tag_358:\n        /* \"#utility.yul\":1352:1471   */\n    tag_357:\n        /* \"#utility.yul\":1510:1511   */\n      0x00\n        /* \"#utility.yul\":1535:1588   */\n      tag_359\n        /* \"#utility.yul\":1580:1587   */\n      dup5\n        /* \"#utility.yul\":1571:1577   */\n      dup3\n        /* \"#utility.yul\":1560:1569   */\n      dup6\n        /* \"#utility.yul\":1556:1578   */\n      add\n        /* \"#utility.yul\":1535:1588   */\n      tag_263\n      jump\t// in\n    tag_359:\n        /* \"#utility.yul\":1525:1588   */\n      swap2\n      pop\n        /* \"#utility.yul\":1481:1598   */\n      pop\n        /* \"#utility.yul\":1276:1605   */\n      swap3\n      swap2\n      pop\n      pop\n      jump\t// out\n        /* \"#utility.yul\":1611:1733   */\n    tag_264:\n        /* \"#utility.yul\":1684:1708   */\n      tag_361\n        /* \"#utility.yul\":1702:1707   */\n      dup2\n        /* \"#utility.yul\":1684:1708   */\n      tag_255\n      jump\t// in\n    tag_361:\n        /* \"#utility.yul\":1677:1682   */\n      dup2\n        /* \"#utility.yul\":1674:1709   */\n      eq\n        /* \"#utility.yul\":1664:1727   */\n      tag_362\n      jumpi\n        /* \"#utility.yul\":1723:1724   */\n      0x00\n        /* \"#utility.yul\":1720:1721   */\n      dup1\n        /* \"#utility.yul\":1713:1725   */\n      revert\n        /* \"#utility.yul\":1664:1727   */\n    tag_362:\n        /* \"#utility.yul\":1611:1733   */\n      pop\n      jump\t// out\n        /* \"#utility.yul\":1739:1878   */\n    tag_265:\n        /* \"#utility.yul\":1785:1790   */\n      0x00\n        /* \"#utility.yul\":1823:1829   */\n      dup2\n        /* \"#utility.yul\":1810:1830   */\n      calldataload\n        /* \"#utility.yul\":1801:1830   */\n      swap1\n      pop\n        /* \"#utility.yul\":1839:1872   */\n      tag_364\n        /* \"#utility.yul\":1866:1871   */\n      dup2\n        /* \"#utility.yul\":1839:1872   */\n      tag_264\n      jump\t// in\n    tag_364:\n        /* \"#utility.yul\":1739:1878   */\n      swap3\n      swap2\n      pop\n      pop\n      jump\t// out\n        /* \"#utility.yul\":1884:2358   */\n    tag_34:\n        /* \"#utility.yul\":1952:1958   */\n      0x00\n        /* \"#utility.yul\":1960:1966   */\n      dup1\n        /* \"#utility.yul\":2009:2011   */\n      0x40\n        /* \"#utility.yul\":1997:2006   */\n      dup4\n        /* \"#utility.yul\":1988:1995   */\n      dup6\n        /* \"#utility.yul\":1984:2007   */\n      sub\n        /* \"#utility.yul\":1980:2012   */\n      slt\n        /* \"#utility.yul\":1977:2096   */\n      iszero\n      tag_366\n      jumpi\n        /* \"#utility.yul\":2015:2094   */\n      tag_367\n      tag_258\n      jump\t// in\n    tag_367:\n        /* \"#utility.yul\":1977:2096   */\n    tag_366:\n        /* \"#utility.yul\":2135:2136   */\n      0x00\n        /* \"#utility.yul\":2160:2213   */\n      tag_368\n        /* \"#utility.yul\":2205:2212   */\n      dup6\n        /* \"#utility.yul\":2196:2202   */\n      dup3\n        /* \"#utility.yul\":2185:2194   */\n      dup7\n        /* \"#utility.yul\":2181:2203   */\n      add\n        /* \"#utility.yul\":2160:2213   */\n      tag_263\n      jump\t// in\n    tag_368:\n        /* \"#utility.yul\":2150:2213   */\n      swap3\n      pop\n        /* \"#utility.yul\":2106:2223   */\n      pop\n        /* \"#utility.yul\":2262:2264   */\n      0x20\n        /* \"#utility.yul\":2288:2341   */\n      tag_369\n        /* \"#utility.yul\":2333:2340   */\n      dup6\n        /* \"#utility.yul\":2324:2330   */\n      dup3\n        /* \"#utility.yul\":2313:2322   */\n      dup7\n        /* \"#utility.yul\":2309:2331   */\n      add\n        /* \"#utility.yul\":2288:2341   */\n      tag_265\n      jump\t// in\n    tag_369:\n        /* \"#utility.yul\":2278:2341   */\n      swap2\n      pop\n        /* \"#utility.yul\":2233:2351   */\n      pop\n        /* \"#utility.yul\":1884:2358   */\n      swap3\n      pop\n      swap3\n      swap1\n      pop\n      jump\t// out\n        /* \"#utility.yul\":2364:2693   */\n    tag_39:\n        /* \"#utility.yul\":2423:2429   */\n      0x00\n        /* \"#utility.yul\":2472:2474   */\n      0x20\n        /* \"#utility.yul\":2460:2469   */\n      dup3\n        /* \"#utility.yul\":2451:2458   */\n      dup5\n        /* \"#utility.yul\":2447:2470   */\n      sub\n        /* \"#utility.yul\":2443:2475   */\n      slt\n        /* \"#utility.yul\":2440:2559   */\n      iszero\n      tag_371\n      jumpi\n        /* \"#utility.yul\":2478:2557   */\n      tag_372\n      tag_258\n      jump\t// in\n    tag_372:\n        /* \"#utility.yul\":2440:2559   */\n    tag_371:\n        /* \"#utility.yul\":2598:2599   */\n      0x00\n        /* \"#utility.yul\":2623:2676   */\n      tag_373\n        /* \"#utility.yul\":2668:2675   */\n      dup5\n        /* \"#utility.yul\":2659:2665   */\n      dup3\n        /* \"#utility.yul\":2648:2657   */\n      dup6\n        /* \"#utility.yul\":2644:2666   */\n      add\n        /* \"#utility.yul\":2623:2676   */\n      tag_265\n      jump\t// in\n    tag_373:\n        /* \"#utility.yul\":2613:2676   */\n      swap2\n      pop\n        /* \"#utility.yul\":2569:2686   */\n      pop\n        /* \"#utility.yul\":2364:2693   */\n      swap3\n      swap2\n      pop\n      pop\n      jump\t// out\n        /* \"#utility.yul\":2699:2817   */\n    tag_266:\n        /* \"#utility.yul\":2786:2810   */\n      tag_375\n        /* \"#utility.yul\":2804:2809   */\n      dup2\n        /* \"#utility.yul\":2786:2810   */\n      tag_261\n      jump\t// in\n    tag_375:\n        /* \"#utility.yul\":2781:2784   */\n      dup3\n        /* \"#utility.yul\":2774:2811   */\n      mstore\n        /* \"#utility.yul\":2699:2817   */\n      pop\n      pop\n      jump\t// out\n        /* \"#utility.yul\":2823:2922   */\n    tag_267:\n        /* \"#utility.yul\":2875:2881   */\n      0x00\n        /* \"#utility.yul\":2909:2914   */\n      dup2\n        /* \"#utility.yul\":2903:2915   */\n      mload\n        /* \"#utility.yul\":2893:2915   */\n      swap1\n      pop\n        /* \"#utility.yul\":2823:2922   */\n      swap2\n      swap1\n      pop\n      jump\t// out\n        /* \"#utility.yul\":2928:3097   */\n    tag_268:\n        /* \"#utility.yul\":3012:3023   */\n      0x00\n        /* \"#utility.yul\":3046:3052   */\n      dup3\n        /* \"#utility.yul\":3041:3044   */\n      dup3\n        /* \"#utility.yul\":3034:3053   */\n      mstore\n        /* \"#utility.yul\":3086:3090   */\n      0x20\n        /* \"#utility.yul\":3081:3084   */\n      dup3\n        /* \"#utility.yul\":3077:3091   */\n      add\n        /* \"#utility.yul\":3062:3091   */\n      swap1\n      pop\n        /* \"#utility.yul\":2928:3097   */\n      swap3\n      swap2\n      pop\n      pop\n      jump\t// out\n        /* \"#utility.yul\":3103:3349   */\n    tag_269:\n        /* \"#utility.yul\":3184:3185   */\n      0x00\n        /* \"#utility.yul\":3194:3307   */\n    tag_379:\n        /* \"#utility.yul\":3208:3214   */\n      dup4\n        /* \"#utility.yul\":3205:3206   */\n      dup2\n        /* \"#utility.yul\":3202:3215   */\n      lt\n        /* \"#utility.yul\":3194:3307   */\n      iszero\n      tag_381\n      jumpi\n        /* \"#utility.yul\":3293:3294   */\n      dup1\n        /* \"#utility.yul\":3288:3291   */\n      dup3\n        /* \"#utility.yul\":3284:3295   */\n      add\n        /* \"#utility.yul\":3278:3296   */\n      mload\n        /* \"#utility.yul\":3274:3275   */\n      dup2\n        /* \"#utility.yul\":3269:3272   */\n      dup5\n        /* \"#utility.yul\":3265:3276   */\n      add\n        /* \"#utility.yul\":3258:3297   */\n      mstore\n        /* \"#utility.yul\":3230:3232   */\n      0x20\n        /* \"#utility.yul\":3227:3228   */\n      dup2\n        /* \"#utility.yul\":3223:3233   */\n      add\n        /* \"#utility.yul\":3218:3233   */\n      swap1\n      pop\n        /* \"#utility.yul\":3194:3307   */\n      jump(tag_379)\n    tag_381:\n        /* \"#utility.yul\":3341:3342   */\n      0x00\n        /* \"#utility.yul\":3332:3338   */\n      dup5\n        /* \"#utility.yul\":3327:3330   */\n      dup5\n        /* \"#utility.yul\":3323:3339   */\n      add\n        /* \"#utility.yul\":3316:3343   */\n      mstore\n        /* \"#utility.yul\":3165:3349   */\n      pop\n        /* \"#utility.yul\":3103:3349   */\n      pop\n      pop\n      pop\n      jump\t// out\n        /* \"#utility.yul\":3355:3457   */\n    tag_270:\n        /* \"#utility.yul\":3396:3402   */\n      0x00\n        /* \"#utility.yul\":3447:3449   */\n      0x1f\n        /* \"#utility.yul\":3443:3450   */\n      not\n        /* \"#utility.yul\":3438:3440   */\n      0x1f\n        /* \"#utility.yul\":3431:3436   */\n      dup4\n        /* \"#utility.yul\":3427:3441   */\n      add\n        /* \"#utility.yul\":3423:3451   */\n      and\n        /* \"#utility.yul\":3413:3451   */\n      swap1\n      pop\n        /* \"#utility.yul\":3355:3457   */\n      swap2\n      swap1\n      pop\n      jump\t// out\n        /* \"#utility.yul\":3463:3840   */\n    tag_271:\n        /* \"#utility.yul\":3551:3554   */\n      0x00\n        /* \"#utility.yul\":3579:3618   */\n      tag_384\n        /* \"#utility.yul\":3612:3617   */\n      dup3\n        /* \"#utility.yul\":3579:3618   */\n      tag_267\n      jump\t// in\n    tag_384:\n        /* \"#utility.yul\":3634:3705   */\n      tag_385\n        /* \"#utility.yul\":3698:3704   */\n      dup2\n        /* \"#utility.yul\":3693:3696   */\n      dup6\n        /* \"#utility.yul\":3634:3705   */\n      tag_268\n      jump\t// in\n    tag_385:\n        /* \"#utility.yul\":3627:3705   */\n      swap4\n      pop\n        /* \"#utility.yul\":3714:3779   */\n      tag_386\n        /* \"#utility.yul\":3772:3778   */\n      dup2\n        /* \"#utility.yul\":3767:3770   */\n      dup6\n        /* \"#utility.yul\":3760:3764   */\n      0x20\n        /* \"#utility.yul\":3753:3758   */\n      dup7\n        /* \"#utility.yul\":3749:3765   */\n      add\n        /* \"#utility.yul\":3714:3779   */\n      tag_269\n      jump\t// in\n    tag_386:\n        /* \"#utility.yul\":3804:3833   */\n      tag_387\n        /* \"#utility.yul\":3826:3832   */\n      dup2\n        /* \"#utility.yul\":3804:3833   */\n      tag_270\n      jump\t// in\n    tag_387:\n        /* \"#utility.yul\":3799:3802   */\n      dup5\n        /* \"#utility.yul\":3795:3834   */\n      add\n        /* \"#utility.yul\":3788:3834   */\n      swap2\n      pop\n        /* \"#utility.yul\":3555:3840   */\n      pop\n        /* \"#utility.yul\":3463:3840   */\n      swap3\n      swap2\n      pop\n      pop\n      jump\t// out\n        /* \"#utility.yul\":3846:3936   */\n    tag_272:\n        /* \"#utility.yul\":3880:3887   */\n      0x00\n        /* \"#utility.yul\":3923:3928   */\n      dup2\n        /* \"#utility.yul\":3916:3929   */\n      iszero\n        /* \"#utility.yul\":3909:3930   */\n      iszero\n        /* \"#utility.yul\":3898:3930   */\n      swap1\n      pop\n        /* \"#utility.yul\":3846:3936   */\n      swap2\n      swap1\n      pop\n      jump\t// out\n        /* \"#utility.yul\":3942:4051   */\n    tag_273:\n        /* \"#utility.yul\":4023:4044   */\n      tag_390\n        /* \"#utility.yul\":4038:4043   */\n      dup2\n        /* \"#utility.yul\":4023:4044   */\n      tag_272\n      jump\t// in\n    tag_390:\n        /* \"#utility.yul\":4018:4021   */\n      dup3\n        /* \"#utility.yul\":4011:4045   */\n      mstore\n        /* \"#utility.yul\":3942:4051   */\n      pop\n      pop\n      jump\t// out\n        /* \"#utility.yul\":4057:5628   */\n    tag_42:\n        /* \"#utility.yul\":4476:4480   */\n      0x00\n        /* \"#utility.yul\":4514:4517   */\n      0x0140\n        /* \"#utility.yul\":4503:4512   */\n      dup3\n        /* \"#utility.yul\":4499:4518   */\n      add\n        /* \"#utility.yul\":4491:4518   */\n      swap1\n      pop\n        /* \"#utility.yul\":4528:4599   */\n      tag_392\n        /* \"#utility.yul\":4596:4597   */\n      0x00\n        /* \"#utility.yul\":4585:4594   */\n      dup4\n        /* \"#utility.yul\":4581:4598   */\n      add\n        /* \"#utility.yul\":4572:4578   */\n      dup14\n        /* \"#utility.yul\":4528:4599   */\n      tag_266\n      jump\t// in\n    tag_392:\n        /* \"#utility.yul\":4646:4655   */\n      dup2\n        /* \"#utility.yul\":4640:4644   */\n      dup2\n        /* \"#utility.yul\":4636:4656   */\n      sub\n        /* \"#utility.yul\":4631:4633   */\n      0x20\n        /* \"#utility.yul\":4620:4629   */\n      dup4\n        /* \"#utility.yul\":4616:4634   */\n      add\n        /* \"#utility.yul\":4609:4657   */\n      mstore\n        /* \"#utility.yul\":4674:4752   */\n      tag_393\n        /* \"#utility.yul\":4747:4751   */\n      dup2\n        /* \"#utility.yul\":4738:4744   */\n      dup13\n        /* \"#utility.yul\":4674:4752   */\n      tag_271\n      jump\t// in\n    tag_393:\n        /* \"#utility.yul\":4666:4752   */\n      swap1\n      pop\n        /* \"#utility.yul\":4799:4808   */\n      dup2\n        /* \"#utility.yul\":4793:4797   */\n      dup2\n        /* \"#utility.yul\":4789:4809   */\n      sub\n        /* \"#utility.yul\":4784:4786   */\n      0x40\n        /* \"#utility.yul\":4773:4782   */\n      dup4\n        /* \"#utility.yul\":4769:4787   */\n      add\n        /* \"#utility.yul\":4762:4810   */\n      mstore\n        /* \"#utility.yul\":4827:4905   */\n      tag_394\n        /* \"#utility.yul\":4900:4904   */\n      dup2\n        /* \"#utility.yul\":4891:4897   */\n      dup12\n        /* \"#utility.yul\":4827:4905   */\n      tag_271\n      jump\t// in\n    tag_394:\n        /* \"#utility.yul\":4819:4905   */\n      swap1\n      pop\n        /* \"#utility.yul\":4952:4961   */\n      dup2\n        /* \"#utility.yul\":4946:4950   */\n      dup2\n        /* \"#utility.yul\":4942:4962   */\n      sub\n        /* \"#utility.yul\":4937:4939   */\n      0x60\n        /* \"#utility.yul\":4926:4935   */\n      dup4\n        /* \"#utility.yul\":4922:4940   */\n      add\n        /* \"#utility.yul\":4915:4963   */\n      mstore\n        /* \"#utility.yul\":4980:5058   */\n      tag_395\n        /* \"#utility.yul\":5053:5057   */\n      dup2\n        /* \"#utility.yul\":5044:5050   */\n      dup11\n        /* \"#utility.yul\":4980:5058   */\n      tag_271\n      jump\t// in\n    tag_395:\n        /* \"#utility.yul\":4972:5058   */\n      swap1\n      pop\n        /* \"#utility.yul\":5106:5115   */\n      dup2\n        /* \"#utility.yul\":5100:5104   */\n      dup2\n        /* \"#utility.yul\":5096:5116   */\n      sub\n        /* \"#utility.yul\":5090:5093   */\n      0x80\n        /* \"#utility.yul\":5079:5088   */\n      dup4\n        /* \"#utility.yul\":5075:5094   */\n      add\n        /* \"#utility.yul\":5068:5117   */\n      mstore\n        /* \"#utility.yul\":5134:5212   */\n      tag_396\n        /* \"#utility.yul\":5207:5211   */\n      dup2\n        /* \"#utility.yul\":5198:5204   */\n      dup10\n        /* \"#utility.yul\":5134:5212   */\n      tag_271\n      jump\t// in\n    tag_396:\n        /* \"#utility.yul\":5126:5212   */\n      swap1\n      pop\n        /* \"#utility.yul\":5222:5289   */\n      tag_397\n        /* \"#utility.yul\":5284:5287   */\n      0xa0\n        /* \"#utility.yul\":5273:5282   */\n      dup4\n        /* \"#utility.yul\":5269:5288   */\n      add\n        /* \"#utility.yul\":5260:5266   */\n      dup9\n        /* \"#utility.yul\":5222:5289   */\n      tag_273\n      jump\t// in\n    tag_397:\n        /* \"#utility.yul\":5299:5372   */\n      tag_398\n        /* \"#utility.yul\":5367:5370   */\n      0xc0\n        /* \"#utility.yul\":5356:5365   */\n      dup4\n        /* \"#utility.yul\":5352:5371   */\n      add\n        /* \"#utility.yul\":5343:5349   */\n      dup8\n        /* \"#utility.yul\":5299:5372   */\n      tag_256\n      jump\t// in\n    tag_398:\n        /* \"#utility.yul\":5382:5455   */\n      tag_399\n        /* \"#utility.yul\":5450:5453   */\n      0xe0\n        /* \"#utility.yul\":5439:5448   */\n      dup4\n        /* \"#utility.yul\":5435:5454   */\n      add\n        /* \"#utility.yul\":5426:5432   */\n      dup7\n        /* \"#utility.yul\":5382:5455   */\n      tag_256\n      jump\t// in\n    tag_399:\n        /* \"#utility.yul\":5465:5538   */\n      tag_400\n        /* \"#utility.yul\":5533:5536   */\n      0x0100\n        /* \"#utility.yul\":5522:5531   */\n      dup4\n        /* \"#utility.yul\":5518:5537   */\n      add\n        /* \"#utility.yul\":5509:5515   */\n      dup6\n        /* \"#utility.yul\":5465:5538   */\n      tag_256\n      jump\t// in\n    tag_400:\n        /* \"#utility.yul\":5548:5621   */\n      tag_401\n        /* \"#utility.yul\":5616:5619   */\n      0x0120\n        /* \"#utility.yul\":5605:5614   */\n      dup4\n        /* \"#utility.yul\":5601:5620   */\n      add\n        /* \"#utility.yul\":5592:5598   */\n      dup5\n        /* \"#utility.yul\":5548:5621   */\n      tag_256\n      jump\t// in\n    tag_401:\n        /* \"#utility.yul\":4057:5628   */\n      swap12\n      swap11\n      pop\n      pop\n      pop\n      pop\n      pop\n      pop\n      pop\n      pop\n      pop\n      pop\n      pop\n      jump\t// out\n        /* \"#utility.yul\":5634:5742   */\n    tag_274:\n        /* \"#utility.yul\":5711:5735   */\n      tag_403\n        /* \"#utility.yul\":5729:5734   */\n      dup2\n        /* \"#utility.yul\":5711:5735   */\n      tag_255\n      jump\t// in\n    tag_403:\n        /* \"#utility.yul\":5706:5709   */\n      dup3\n        /* \"#utility.yul\":5699:5736   */\n      mstore\n        /* \"#utility.yul\":5634:5742   */\n      pop\n      pop\n      jump\t// out\n        /* \"#utility.yul\":5832:7097   */\n    tag_275:\n        /* \"#utility.yul\":5983:5987   */\n      0xc0\n        /* \"#utility.yul\":5978:5981   */\n      dup3\n        /* \"#utility.yul\":5974:5988   */\n      add\n        /* \"#utility.yul\":6082:6086   */\n      0x00\n        /* \"#utility.yul\":6075:6080   */\n      dup3\n        /* \"#utility.yul\":6071:6087   */\n      add\n        /* \"#utility.yul\":6065:6088   */\n      mload\n        /* \"#utility.yul\":6101:6164   */\n      tag_405\n        /* \"#utility.yul\":6158:6162   */\n      0x00\n        /* \"#utility.yul\":6153:6156   */\n      dup6\n        /* \"#utility.yul\":6149:6163   */\n      add\n        /* \"#utility.yul\":6135:6147   */\n      dup3\n        /* \"#utility.yul\":6101:6164   */\n      tag_274\n      jump\t// in\n    tag_405:\n        /* \"#utility.yul\":5998:6174   */\n      pop\n        /* \"#utility.yul\":6270:6274   */\n      0x20\n        /* \"#utility.yul\":6263:6268   */\n      dup3\n        /* \"#utility.yul\":6259:6275   */\n      add\n        /* \"#utility.yul\":6253:6276   */\n      mload\n        /* \"#utility.yul\":6289:6352   */\n      tag_406\n        /* \"#utility.yul\":6346:6350   */\n      0x20\n        /* \"#utility.yul\":6341:6344   */\n      dup6\n        /* \"#utility.yul\":6337:6351   */\n      add\n        /* \"#utility.yul\":6323:6335   */\n      dup3\n        /* \"#utility.yul\":6289:6352   */\n      tag_274\n      jump\t// in\n    tag_406:\n        /* \"#utility.yul\":6184:6362   */\n      pop\n        /* \"#utility.yul\":6456:6460   */\n      0x40\n        /* \"#utility.yul\":6449:6454   */\n      dup3\n        /* \"#utility.yul\":6445:6461   */\n      add\n        /* \"#utility.yul\":6439:6462   */\n      mload\n        /* \"#utility.yul\":6475:6538   */\n      tag_407\n        /* \"#utility.yul\":6532:6536   */\n      0x40\n        /* \"#utility.yul\":6527:6530   */\n      dup6\n        /* \"#utility.yul\":6523:6537   */\n      add\n        /* \"#utility.yul\":6509:6521   */\n      dup3\n        /* \"#utility.yul\":6475:6538   */\n      tag_274\n      jump\t// in\n    tag_407:\n        /* \"#utility.yul\":6372:6548   */\n      pop\n        /* \"#utility.yul\":6632:6636   */\n      0x60\n        /* \"#utility.yul\":6625:6630   */\n      dup3\n        /* \"#utility.yul\":6621:6637   */\n      add\n        /* \"#utility.yul\":6615:6638   */\n      mload\n        /* \"#utility.yul\":6651:6714   */\n      tag_408\n        /* \"#utility.yul\":6708:6712   */\n      0x60\n        /* \"#utility.yul\":6703:6706   */\n      dup6\n        /* \"#utility.yul\":6699:6713   */\n      add\n        /* \"#utility.yul\":6685:6697   */\n      dup3\n        /* \"#utility.yul\":6651:6714   */\n      tag_274\n      jump\t// in\n    tag_408:\n        /* \"#utility.yul\":6558:6724   */\n      pop\n        /* \"#utility.yul\":6814:6818   */\n      0x80\n        /* \"#utility.yul\":6807:6812   */\n      dup3\n        /* \"#utility.yul\":6803:6819   */\n      add\n        /* \"#utility.yul\":6797:6820   */\n      mload\n        /* \"#utility.yul\":6833:6896   */\n      tag_409\n        /* \"#utility.yul\":6890:6894   */\n      0x80\n        /* \"#utility.yul\":6885:6888   */\n      dup6\n        /* \"#utility.yul\":6881:6895   */\n      add\n        /* \"#utility.yul\":6867:6879   */\n      dup3\n        /* \"#utility.yul\":6833:6896   */\n      tag_274\n      jump\t// in\n    tag_409:\n        /* \"#utility.yul\":6734:6906   */\n      pop\n        /* \"#utility.yul\":6998:7002   */\n      0xa0\n        /* \"#utility.yul\":6991:6996   */\n      dup3\n        /* \"#utility.yul\":6987:7003   */\n      add\n        /* \"#utility.yul\":6981:7004   */\n      mload\n        /* \"#utility.yul\":7017:7080   */\n      tag_410\n        /* \"#utility.yul\":7074:7078   */\n      0xa0\n        /* \"#utility.yul\":7069:7072   */\n      dup6\n        /* \"#utility.yul\":7065:7079   */\n      add\n        /* \"#utility.yul\":7051:7063   */\n      dup3\n        /* \"#utility.yul\":7017:7080   */\n      tag_274\n      jump\t// in\n    tag_410:\n        /* \"#utility.yul\":6916:7090   */\n      pop\n        /* \"#utility.yul\":5952:7097   */\n      pop\n        /* \"#utility.yul\":5832:7097   */\n      pop\n      pop\n      jump\t// out\n        /* \"#utility.yul\":7103:7434   */\n    tag_47:\n        /* \"#utility.yul\":7250:7254   */\n      0x00\n        /* \"#utility.yul\":7288:7291   */\n      0xc0\n        /* \"#utility.yul\":7277:7286   */\n      dup3\n        /* \"#utility.yul\":7273:7292   */\n      add\n        /* \"#utility.yul\":7265:7292   */\n      swap1\n      pop\n        /* \"#utility.yul\":7302:7427   */\n      tag_412\n        /* \"#utility.yul\":7424:7425   */\n      0x00\n        /* \"#utility.yul\":7413:7422   */\n      dup4\n        /* \"#utility.yul\":7409:7426   */\n      add\n        /* \"#utility.yul\":7400:7406   */\n      dup5\n        /* \"#utility.yul\":7302:7427   */\n      tag_275\n      jump\t// in\n    tag_412:\n        /* \"#utility.yul\":7103:7434   */\n      swap3\n      swap2\n      pop\n      pop\n      jump\t// out\n        /* \"#utility.yul\":7440:7557   */\n    tag_276:\n        /* \"#utility.yul\":7549:7550   */\n      0x00\n        /* \"#utility.yul\":7546:7547   */\n      dup1\n        /* \"#utility.yul\":7539:7551   */\n      revert\n        /* \"#utility.yul\":7563:7680   */\n    tag_277:\n        /* \"#utility.yul\":7672:7673   */\n      0x00\n        /* \"#utility.yul\":7669:7670   */\n      dup1\n        /* \"#utility.yul\":7662:7674   */\n      revert\n        /* \"#utility.yul\":7686:7866   */\n    tag_278:\n        /* \"#utility.yul\":7734:7811   */\n      0x4e487b7100000000000000000000000000000000000000000000000000000000\n        /* \"#utility.yul\":7731:7732   */\n      0x00\n        /* \"#utility.yul\":7724:7812   */\n      mstore\n        /* \"#utility.yul\":7831:7835   */\n      0x41\n        /* \"#utility.yul\":7828:7829   */\n      0x04\n        /* \"#utility.yul\":7821:7836   */\n      mstore\n        /* \"#utility.yul\":7855:7859   */\n      0x24\n        /* \"#utility.yul\":7852:7853   */\n      0x00\n        /* \"#utility.yul\":7845:7860   */\n      revert\n        /* \"#utility.yul\":7872:8153   */\n    tag_279:\n        /* \"#utility.yul\":7955:7982   */\n      tag_417\n        /* \"#utility.yul\":7977:7981   */\n      dup3\n        /* \"#utility.yul\":7955:7982   */\n      tag_270\n      jump\t// in\n    tag_417:\n        /* \"#utility.yul\":7947:7953   */\n      dup2\n        /* \"#utility.yul\":7943:7983   */\n      add\n        /* \"#utility.yul\":8085:8091   */\n      dup2\n        /* \"#utility.yul\":8073:8083   */\n      dup2\n        /* \"#utility.yul\":8070:8092   */\n      lt\n        /* \"#utility.yul\":8049:8067   */\n      0xffffffffffffffff\n        /* \"#utility.yul\":8037:8047   */\n      dup3\n        /* \"#utility.yul\":8034:8068   */\n      gt\n        /* \"#utility.yul\":8031:8093   */\n      or\n        /* \"#utility.yul\":8028:8116   */\n      iszero\n      tag_418\n      jumpi\n        /* \"#utility.yul\":8096:8114   */\n      tag_419\n      tag_278\n      jump\t// in\n    tag_419:\n        /* \"#utility.yul\":8028:8116   */\n    tag_418:\n        /* \"#utility.yul\":8136:8146   */\n      dup1\n        /* \"#utility.yul\":8132:8134   */\n      0x40\n        /* \"#utility.yul\":8125:8147   */\n      mstore\n        /* \"#utility.yul\":7915:8153   */\n      pop\n        /* \"#utility.yul\":7872:8153   */\n      pop\n      pop\n      jump\t// out\n        /* \"#utility.yul\":8159:8288   */\n    tag_280:\n        /* \"#utility.yul\":8193:8199   */\n      0x00\n        /* \"#utility.yul\":8220:8240   */\n      tag_421\n      tag_257\n      jump\t// in\n    tag_421:\n        /* \"#utility.yul\":8210:8240   */\n      swap1\n      pop\n        /* \"#utility.yul\":8249:8282   */\n      tag_422\n        /* \"#utility.yul\":8277:8281   */\n      dup3\n        /* \"#utility.yul\":8269:8275   */\n      dup3\n        /* \"#utility.yul\":8249:8282   */\n      tag_279\n      jump\t// in\n    tag_422:\n        /* \"#utility.yul\":8159:8288   */\n      swap2\n      swap1\n      pop\n      jump\t// out\n        /* \"#utility.yul\":8294:8602   */\n    tag_281:\n        /* \"#utility.yul\":8356:8360   */\n      0x00\n        /* \"#utility.yul\":8446:8464   */\n      0xffffffffffffffff\n        /* \"#utility.yul\":8438:8444   */\n      dup3\n        /* \"#utility.yul\":8435:8465   */\n      gt\n        /* \"#utility.yul\":8432:8488   */\n      iszero\n      tag_424\n      jumpi\n        /* \"#utility.yul\":8468:8486   */\n      tag_425\n      tag_278\n      jump\t// in\n    tag_425:\n        /* \"#utility.yul\":8432:8488   */\n    tag_424:\n        /* \"#utility.yul\":8506:8535   */\n      tag_426\n        /* \"#utility.yul\":8528:8534   */\n      dup3\n        /* \"#utility.yul\":8506:8535   */\n      tag_270\n      jump\t// in\n    tag_426:\n        /* \"#utility.yul\":8498:8535   */\n      swap1\n      pop\n        /* \"#utility.yul\":8590:8594   */\n      0x20\n        /* \"#utility.yul\":8584:8588   */\n      dup2\n        /* \"#utility.yul\":8580:8595   */\n      add\n        /* \"#utility.yul\":8572:8595   */\n      swap1\n      pop\n        /* \"#utility.yul\":8294:8602   */\n      swap2\n      swap1\n      pop\n      jump\t// out\n        /* \"#utility.yul\":8608:8754   */\n    tag_282:\n        /* \"#utility.yul\":8705:8711   */\n      dup3\n        /* \"#utility.yul\":8700:8703   */\n      dup2\n        /* \"#utility.yul\":8695:8698   */\n      dup4\n        /* \"#utility.yul\":8682:8712   */\n      calldatacopy\n        /* \"#utility.yul\":8746:8747   */\n      0x00\n        /* \"#utility.yul\":8737:8743   */\n      dup4\n        /* \"#utility.yul\":8732:8735   */\n      dup4\n        /* \"#utility.yul\":8728:8744   */\n      add\n        /* \"#utility.yul\":8721:8748   */\n      mstore\n        /* \"#utility.yul\":8608:8754   */\n      pop\n      pop\n      pop\n      jump\t// out\n        /* \"#utility.yul\":8760:9185   */\n    tag_283:\n        /* \"#utility.yul\":8838:8843   */\n      0x00\n        /* \"#utility.yul\":8863:8929   */\n      tag_429\n        /* \"#utility.yul\":8879:8928   */\n      tag_430\n        /* \"#utility.yul\":8921:8927   */\n      dup5\n        /* \"#utility.yul\":8879:8928   */\n      tag_281\n      jump\t// in\n    tag_430:\n        /* \"#utility.yul\":8863:8929   */\n      tag_280\n      jump\t// in\n    tag_429:\n        /* \"#utility.yul\":8854:8929   */\n      swap1\n      pop\n        /* \"#utility.yul\":8952:8958   */\n      dup3\n        /* \"#utility.yul\":8945:8950   */\n      dup2\n        /* \"#utility.yul\":8938:8959   */\n      mstore\n        /* \"#utility.yul\":8990:8994   */\n      0x20\n        /* \"#utility.yul\":8983:8988   */\n      dup2\n        /* \"#utility.yul\":8979:8995   */\n      add\n        /* \"#utility.yul\":9028:9031   */\n      dup5\n        /* \"#utility.yul\":9019:9025   */\n      dup5\n        /* \"#utility.yul\":9014:9017   */\n      dup5\n        /* \"#utility.yul\":9010:9026   */\n      add\n        /* \"#utility.yul\":9007:9032   */\n      gt\n        /* \"#utility.yul\":9004:9116   */\n      iszero\n      tag_431\n      jumpi\n        /* \"#utility.yul\":9035:9114   */\n      tag_432\n      tag_277\n      jump\t// in\n    tag_432:\n        /* \"#utility.yul\":9004:9116   */\n    tag_431:\n        /* \"#utility.yul\":9125:9179   */\n      tag_433\n        /* \"#utility.yul\":9172:9178   */\n      dup5\n        /* \"#utility.yul\":9167:9170   */\n      dup3\n        /* \"#utility.yul\":9162:9165   */\n      dup6\n        /* \"#utility.yul\":9125:9179   */\n      tag_282\n      jump\t// in\n    tag_433:\n        /* \"#utility.yul\":8844:9185   */\n      pop\n        /* \"#utility.yul\":8760:9185   */\n      swap4\n      swap3\n      pop\n      pop\n      pop\n      jump\t// out\n        /* \"#utility.yul\":9205:9545   */\n    tag_284:\n        /* \"#utility.yul\":9261:9266   */\n      0x00\n        /* \"#utility.yul\":9310:9313   */\n      dup3\n        /* \"#utility.yul\":9303:9307   */\n      0x1f\n        /* \"#utility.yul\":9295:9301   */\n      dup4\n        /* \"#utility.yul\":9291:9308   */\n      add\n        /* \"#utility.yul\":9287:9314   */\n      slt\n        /* \"#utility.yul\":9277:9399   */\n      tag_435\n      jumpi\n        /* \"#utility.yul\":9318:9397   */\n      tag_436\n      tag_276\n      jump\t// in\n    tag_436:\n        /* \"#utility.yul\":9277:9399   */\n    tag_435:\n        /* \"#utility.yul\":9435:9441   */\n      dup2\n        /* \"#utility.yul\":9422:9442   */\n      calldataload\n        /* \"#utility.yul\":9460:9539   */\n      tag_437\n        /* \"#utility.yul\":9535:9538   */\n      dup5\n        /* \"#utility.yul\":9527:9533   */\n      dup3\n        /* \"#utility.yul\":9520:9524   */\n      0x20\n        /* \"#utility.yul\":9512:9518   */\n      dup7\n        /* \"#utility.yul\":9508:9525   */\n      add\n        /* \"#utility.yul\":9460:9539   */\n      tag_283\n      jump\t// in\n    tag_437:\n        /* \"#utility.yul\":9451:9539   */\n      swap2\n      pop\n        /* \"#utility.yul\":9267:9545   */\n      pop\n        /* \"#utility.yul\":9205:9545   */\n      swap3\n      swap2\n      pop\n      pop\n      jump\t// out\n        /* \"#utility.yul\":9551:11474   */\n    tag_50:\n        /* \"#utility.yul\":9704:9710   */\n      0x00\n        /* \"#utility.yul\":9712:9718   */\n      dup1\n        /* \"#utility.yul\":9720:9726   */\n      0x00\n        /* \"#utility.yul\":9728:9734   */\n      dup1\n        /* \"#utility.yul\":9736:9742   */\n      0x00\n        /* \"#utility.yul\":9744:9750   */\n      dup1\n        /* \"#utility.yul\":9752:9758   */\n      0x00\n        /* \"#utility.yul\":9801:9804   */\n      0xe0\n        /* \"#utility.yul\":9789:9798   */\n      dup9\n        /* \"#utility.yul\":9780:9787   */\n      dup11\n        /* \"#utility.yul\":9776:9799   */\n      sub\n        /* \"#utility.yul\":9772:9805   */\n      slt\n        /* \"#utility.yul\":9769:9889   */\n      iszero\n      tag_439\n      jumpi\n        /* \"#utility.yul\":9808:9887   */\n      tag_440\n      tag_258\n      jump\t// in\n    tag_440:\n        /* \"#utility.yul\":9769:9889   */\n    tag_439:\n        /* \"#utility.yul\":9956:9957   */\n      0x00\n        /* \"#utility.yul\":9945:9954   */\n      dup9\n        /* \"#utility.yul\":9941:9958   */\n      add\n        /* \"#utility.yul\":9928:9959   */\n      calldataload\n        /* \"#utility.yul\":9986:10004   */\n      0xffffffffffffffff\n        /* \"#utility.yul\":9978:9984   */\n      dup2\n        /* \"#utility.yul\":9975:10005   */\n      gt\n        /* \"#utility.yul\":9972:10089   */\n      iszero\n      tag_441\n      jumpi\n        /* \"#utility.yul\":10008:10087   */\n      tag_442\n      tag_259\n      jump\t// in\n    tag_442:\n        /* \"#utility.yul\":9972:10089   */\n    tag_441:\n        /* \"#utility.yul\":10113:10176   */\n      tag_443\n        /* \"#utility.yul\":10168:10175   */\n      dup11\n        /* \"#utility.yul\":10159:10165   */\n      dup3\n        /* \"#utility.yul\":10148:10157   */\n      dup12\n        /* \"#utility.yul\":10144:10166   */\n      add\n        /* \"#utility.yul\":10113:10176   */\n      tag_284\n      jump\t// in\n    tag_443:\n        /* \"#utility.yul\":10103:10176   */\n      swap8\n      pop\n        /* \"#utility.yul\":9899:10186   */\n      pop\n        /* \"#utility.yul\":10253:10255   */\n      0x20\n        /* \"#utility.yul\":10242:10251   */\n      dup9\n        /* \"#utility.yul\":10238:10256   */\n      add\n        /* \"#utility.yul\":10225:10257   */\n      calldataload\n        /* \"#utility.yul\":10284:10302   */\n      0xffffffffffffffff\n        /* \"#utility.yul\":10276:10282   */\n      dup2\n        /* \"#utility.yul\":10273:10303   */\n      gt\n        /* \"#utility.yul\":10270:10387   */\n      iszero\n      tag_444\n      jumpi\n        /* \"#utility.yul\":10306:10385   */\n      tag_445\n      tag_259\n      jump\t// in\n    tag_445:\n        /* \"#utility.yul\":10270:10387   */\n    tag_444:\n        /* \"#utility.yul\":10411:10474   */\n      tag_446\n        /* \"#utility.yul\":10466:10473   */\n      dup11\n        /* \"#utility.yul\":10457:10463   */\n      dup3\n        /* \"#utility.yul\":10446:10455   */\n      dup12\n        /* \"#utility.yul\":10442:10464   */\n      add\n        /* \"#utility.yul\":10411:10474   */\n      tag_284\n      jump\t// in\n    tag_446:\n        /* \"#utility.yul\":10401:10474   */\n      swap7\n      pop\n        /* \"#utility.yul\":10196:10484   */\n      pop\n        /* \"#utility.yul\":10551:10553   */\n      0x40\n        /* \"#utility.yul\":10540:10549   */\n      dup9\n        /* \"#utility.yul\":10536:10554   */\n      add\n        /* \"#utility.yul\":10523:10555   */\n      calldataload\n        /* \"#utility.yul\":10582:10600   */\n      0xffffffffffffffff\n        /* \"#utility.yul\":10574:10580   */\n      dup2\n        /* \"#utility.yul\":10571:10601   */\n      gt\n        /* \"#utility.yul\":10568:10685   */\n      iszero\n      tag_447\n      jumpi\n        /* \"#utility.yul\":10604:10683   */\n      tag_448\n      tag_259\n      jump\t// in\n    tag_448:\n        /* \"#utility.yul\":10568:10685   */\n    tag_447:\n        /* \"#utility.yul\":10709:10772   */\n      tag_449\n        /* \"#utility.yul\":10764:10771   */\n      dup11\n        /* \"#utility.yul\":10755:10761   */\n      dup3\n        /* \"#utility.yul\":10744:10753   */\n      dup12\n        /* \"#utility.yul\":10740:10762   */\n      add\n        /* \"#utility.yul\":10709:10772   */\n      tag_284\n      jump\t// in\n    tag_449:\n        /* \"#utility.yul\":10699:10772   */\n      swap6\n      pop\n        /* \"#utility.yul\":10494:10782   */\n      pop\n        /* \"#utility.yul\":10849:10851   */\n      0x60\n        /* \"#utility.yul\":10838:10847   */\n      dup9\n        /* \"#utility.yul\":10834:10852   */\n      add\n        /* \"#utility.yul\":10821:10853   */\n      calldataload\n        /* \"#utility.yul\":10880:10898   */\n      0xffffffffffffffff\n        /* \"#utility.yul\":10872:10878   */\n      dup2\n        /* \"#utility.yul\":10869:10899   */\n      gt\n        /* \"#utility.yul\":10866:10983   */\n      iszero\n      tag_450\n      jumpi\n        /* \"#utility.yul\":10902:10981   */\n      tag_451\n      tag_259\n      jump\t// in\n    tag_451:\n        /* \"#utility.yul\":10866:10983   */\n    tag_450:\n        /* \"#utility.yul\":11007:11070   */\n      tag_452\n        /* \"#utility.yul\":11062:11069   */\n      dup11\n        /* \"#utility.yul\":11053:11059   */\n      dup3\n        /* \"#utility.yul\":11042:11051   */\n      dup12\n        /* \"#utility.yul\":11038:11060   */\n      add\n        /* \"#utility.yul\":11007:11070   */\n      tag_284\n      jump\t// in\n    tag_452:\n        /* \"#utility.yul\":10997:11070   */\n      swap5\n      pop\n        /* \"#utility.yul\":10792:11080   */\n      pop\n        /* \"#utility.yul\":11119:11122   */\n      0x80\n        /* \"#utility.yul\":11146:11199   */\n      tag_453\n        /* \"#utility.yul\":11191:11198   */\n      dup11\n        /* \"#utility.yul\":11182:11188   */\n      dup3\n        /* \"#utility.yul\":11171:11180   */\n      dup12\n        /* \"#utility.yul\":11167:11189   */\n      add\n        /* \"#utility.yul\":11146:11199   */\n      tag_265\n      jump\t// in\n    tag_453:\n        /* \"#utility.yul\":11136:11199   */\n      swap4\n      pop\n        /* \"#utility.yul\":11090:11209   */\n      pop\n        /* \"#utility.yul\":11248:11251   */\n      0xa0\n        /* \"#utility.yul\":11275:11328   */\n      tag_454\n        /* \"#utility.yul\":11320:11327   */\n      dup11\n        /* \"#utility.yul\":11311:11317   */\n      dup3\n        /* \"#utility.yul\":11300:11309   */\n      dup12\n        /* \"#utility.yul\":11296:11318   */\n      add\n        /* \"#utility.yul\":11275:11328   */\n      tag_265\n      jump\t// in\n    tag_454:\n        /* \"#utility.yul\":11265:11328   */\n      swap3\n      pop\n        /* \"#utility.yul\":11219:11338   */\n      pop\n        /* \"#utility.yul\":11377:11380   */\n      0xc0\n        /* \"#utility.yul\":11404:11457   */\n      tag_455\n        /* \"#utility.yul\":11449:11456   */\n      dup11\n        /* \"#utility.yul\":11440:11446   */\n      dup3\n        /* \"#utility.yul\":11429:11438   */\n      dup12\n        /* \"#utility.yul\":11425:11447   */\n      add\n        /* \"#utility.yul\":11404:11457   */\n      tag_265\n      jump\t// in\n    tag_455:\n        /* \"#utility.yul\":11394:11457   */\n      swap2\n      pop\n        /* \"#utility.yul\":11348:11467   */\n      pop\n        /* \"#utility.yul\":9551:11474   */\n      swap3\n      swap6\n      swap9\n      swap2\n      swap5\n      swap8\n      pop\n      swap3\n      swap6\n      pop\n      jump\t// out\n        /* \"#utility.yul\":11480:11910   */\n    tag_53:\n        /* \"#utility.yul\":11623:11627   */\n      0x00\n        /* \"#utility.yul\":11661:11663   */\n      0x60\n        /* \"#utility.yul\":11650:11659   */\n      dup3\n        /* \"#utility.yul\":11646:11664   */\n      add\n        /* \"#utility.yul\":11638:11664   */\n      swap1\n      pop\n        /* \"#utility.yul\":11674:11745   */\n      tag_457\n        /* \"#utility.yul\":11742:11743   */\n      0x00\n        /* \"#utility.yul\":11731:11740   */\n      dup4\n        /* \"#utility.yul\":11727:11744   */\n      add\n        /* \"#utility.yul\":11718:11724   */\n      dup7\n        /* \"#utility.yul\":11674:11745   */\n      tag_256\n      jump\t// in\n    tag_457:\n        /* \"#utility.yul\":11755:11821   */\n      tag_458\n        /* \"#utility.yul\":11817:11819   */\n      0x20\n        /* \"#utility.yul\":11806:11815   */\n      dup4\n        /* \"#utility.yul\":11802:11820   */\n      add\n        /* \"#utility.yul\":11793:11799   */\n      dup6\n        /* \"#utility.yul\":11755:11821   */\n      tag_273\n      jump\t// in\n    tag_458:\n        /* \"#utility.yul\":11831:11903   */\n      tag_459\n        /* \"#utility.yul\":11899:11901   */\n      0x40\n        /* \"#utility.yul\":11888:11897   */\n      dup4\n        /* \"#utility.yul\":11884:11902   */\n      add\n        /* \"#utility.yul\":11875:11881   */\n      dup5\n        /* \"#utility.yul\":11831:11903   */\n      tag_256\n      jump\t// in\n    tag_459:\n        /* \"#utility.yul\":11480:11910   */\n      swap5\n      swap4\n      pop\n      pop\n      pop\n      pop\n      jump\t// out\n        /* \"#utility.yul\":11916:12138   */\n    tag_61:\n        /* \"#utility.yul\":12009:12013   */\n      0x00\n        /* \"#utility.yul\":12047:12049   */\n      0x20\n        /* \"#utility.yul\":12036:12045   */\n      dup3\n        /* \"#utility.yul\":12032:12050   */\n      add\n        /* \"#utility.yul\":12024:12050   */\n      swap1\n      pop\n        /* \"#utility.yul\":12060:12131   */\n      tag_461\n        /* \"#utility.yul\":12128:12129   */\n      0x00\n        /* \"#utility.yul\":12117:12126   */\n      dup4\n        /* \"#utility.yul\":12113:12130   */\n      add\n        /* \"#utility.yul\":12104:12110   */\n      dup5\n        /* \"#utility.yul\":12060:12131   */\n      tag_266\n      jump\t// in\n    tag_461:\n        /* \"#utility.yul\":11916:12138   */\n      swap3\n      swap2\n      pop\n      pop\n      jump\t// out\n        /* \"#utility.yul\":12144:12252   */\n    tag_285:\n        /* \"#utility.yul\":12221:12245   */\n      tag_463\n        /* \"#utility.yul\":12239:12244   */\n      dup2\n        /* \"#utility.yul\":12221:12245   */\n      tag_261\n      jump\t// in\n    tag_463:\n        /* \"#utility.yul\":12216:12219   */\n      dup3\n        /* \"#utility.yul\":12209:12246   */\n      mstore\n        /* \"#utility.yul\":12144:12252   */\n      pop\n      pop\n      jump\t// out\n        /* \"#utility.yul\":12258:12417   */\n    tag_286:\n        /* \"#utility.yul\":12332:12343   */\n      0x00\n        /* \"#utility.yul\":12366:12372   */\n      dup3\n        /* \"#utility.yul\":12361:12364   */\n      dup3\n        /* \"#utility.yul\":12354:12373   */\n      mstore\n        /* \"#utility.yul\":12406:12410   */\n      0x20\n        /* \"#utility.yul\":12401:12404   */\n      dup3\n        /* \"#utility.yul\":12397:12411   */\n      add\n        /* \"#utility.yul\":12382:12411   */\n      swap1\n      pop\n        /* \"#utility.yul\":12258:12417   */\n      swap3\n      swap2\n      pop\n      pop\n      jump\t// out\n        /* \"#utility.yul\":12423:12780   */\n    tag_287:\n        /* \"#utility.yul\":12501:12504   */\n      0x00\n        /* \"#utility.yul\":12529:12568   */\n      tag_466\n        /* \"#utility.yul\":12562:12567   */\n      dup3\n        /* \"#utility.yul\":12529:12568   */\n      tag_267\n      jump\t// in\n    tag_466:\n        /* \"#utility.yul\":12584:12645   */\n      tag_467\n        /* \"#utility.yul\":12638:12644   */\n      dup2\n        /* \"#utility.yul\":12633:12636   */\n      dup6\n        /* \"#utility.yul\":12584:12645   */\n      tag_286\n      jump\t// in\n    tag_467:\n        /* \"#utility.yul\":12577:12645   */\n      swap4\n      pop\n        /* \"#utility.yul\":12654:12719   */\n      tag_468\n        /* \"#utility.yul\":12712:12718   */\n      dup2\n        /* \"#utility.yul\":12707:12710   */\n      dup6\n        /* \"#utility.yul\":12700:12704   */\n      0x20\n        /* \"#utility.yul\":12693:12698   */\n      dup7\n        /* \"#utility.yul\":12689:12705   */\n      add\n        /* \"#utility.yul\":12654:12719   */\n      tag_269\n      jump\t// in\n    tag_468:\n        /* \"#utility.yul\":12744:12773   */\n      tag_469\n        /* \"#utility.yul\":12766:12772   */\n      dup2\n        /* \"#utility.yul\":12744:12773   */\n      tag_270\n      jump\t// in\n    tag_469:\n        /* \"#utility.yul\":12739:12742   */\n      dup5\n        /* \"#utility.yul\":12735:12774   */\n      add\n        /* \"#utility.yul\":12728:12774   */\n      swap2\n      pop\n        /* \"#utility.yul\":12505:12780   */\n      pop\n        /* \"#utility.yul\":12423:12780   */\n      swap3\n      swap2\n      pop\n      pop\n      jump\t// out\n        /* \"#utility.yul\":12786:12885   */\n    tag_288:\n        /* \"#utility.yul\":12857:12878   */\n      tag_471\n        /* \"#utility.yul\":12872:12877   */\n      dup2\n        /* \"#utility.yul\":12857:12878   */\n      tag_272\n      jump\t// in\n    tag_471:\n        /* \"#utility.yul\":12852:12855   */\n      dup3\n        /* \"#utility.yul\":12845:12879   */\n      mstore\n        /* \"#utility.yul\":12786:12885   */\n      pop\n      pop\n      jump\t// out\n        /* \"#utility.yul\":12977:15237   */\n    tag_289:\n        /* \"#utility.yul\":13102:13105   */\n      0x00\n        /* \"#utility.yul\":13138:13144   */\n      0x0140\n        /* \"#utility.yul\":13133:13136   */\n      dup4\n        /* \"#utility.yul\":13129:13145   */\n      add\n        /* \"#utility.yul\":13229:13233   */\n      0x00\n        /* \"#utility.yul\":13222:13227   */\n      dup4\n        /* \"#utility.yul\":13218:13234   */\n      add\n        /* \"#utility.yul\":13212:13235   */\n      mload\n        /* \"#utility.yul\":13248:13311   */\n      tag_473\n        /* \"#utility.yul\":13305:13309   */\n      0x00\n        /* \"#utility.yul\":13300:13303   */\n      dup7\n        /* \"#utility.yul\":13296:13310   */\n      add\n        /* \"#utility.yul\":13282:13294   */\n      dup3\n        /* \"#utility.yul\":13248:13311   */\n      tag_285\n      jump\t// in\n    tag_473:\n        /* \"#utility.yul\":13155:13321   */\n      pop\n        /* \"#utility.yul\":13404:13408   */\n      0x20\n        /* \"#utility.yul\":13397:13402   */\n      dup4\n        /* \"#utility.yul\":13393:13409   */\n      add\n        /* \"#utility.yul\":13387:13410   */\n      mload\n        /* \"#utility.yul\":13457:13460   */\n      dup5\n        /* \"#utility.yul\":13451:13455   */\n      dup3\n        /* \"#utility.yul\":13447:13461   */\n      sub\n        /* \"#utility.yul\":13440:13444   */\n      0x20\n        /* \"#utility.yul\":13435:13438   */\n      dup7\n        /* \"#utility.yul\":13431:13445   */\n      add\n        /* \"#utility.yul\":13424:13462   */\n      mstore\n        /* \"#utility.yul\":13483:13556   */\n      tag_474\n        /* \"#utility.yul\":13551:13555   */\n      dup3\n        /* \"#utility.yul\":13537:13549   */\n      dup3\n        /* \"#utility.yul\":13483:13556   */\n      tag_287\n      jump\t// in\n    tag_474:\n        /* \"#utility.yul\":13475:13556   */\n      swap2\n      pop\n        /* \"#utility.yul\":13331:13567   */\n      pop\n        /* \"#utility.yul\":13650:13654   */\n      0x40\n        /* \"#utility.yul\":13643:13648   */\n      dup4\n        /* \"#utility.yul\":13639:13655   */\n      add\n        /* \"#utility.yul\":13633:13656   */\n      mload\n        /* \"#utility.yul\":13703:13706   */\n      dup5\n        /* \"#utility.yul\":13697:13701   */\n      dup3\n        /* \"#utility.yul\":13693:13707   */\n      sub\n        /* \"#utility.yul\":13686:13690   */\n      0x40\n        /* \"#utility.yul\":13681:13684   */\n      dup7\n        /* \"#utility.yul\":13677:13691   */\n      add\n        /* \"#utility.yul\":13670:13708   */\n      mstore\n        /* \"#utility.yul\":13729:13802   */\n      tag_475\n        /* \"#utility.yul\":13797:13801   */\n      dup3\n        /* \"#utility.yul\":13783:13795   */\n      dup3\n        /* \"#utility.yul\":13729:13802   */\n      tag_287\n      jump\t// in\n    tag_475:\n        /* \"#utility.yul\":13721:13802   */\n      swap2\n      pop\n        /* \"#utility.yul\":13577:13813   */\n      pop\n        /* \"#utility.yul\":13906:13910   */\n      0x60\n        /* \"#utility.yul\":13899:13904   */\n      dup4\n        /* \"#utility.yul\":13895:13911   */\n      add\n        /* \"#utility.yul\":13889:13912   */\n      mload\n        /* \"#utility.yul\":13959:13962   */\n      dup5\n        /* \"#utility.yul\":13953:13957   */\n      dup3\n        /* \"#utility.yul\":13949:13963   */\n      sub\n        /* \"#utility.yul\":13942:13946   */\n      0x60\n        /* \"#utility.yul\":13937:13940   */\n      dup7\n        /* \"#utility.yul\":13933:13947   */\n      add\n        /* \"#utility.yul\":13926:13964   */\n      mstore\n        /* \"#utility.yul\":13985:14058   */\n      tag_476\n        /* \"#utility.yul\":14053:14057   */\n      dup3\n        /* \"#utility.yul\":14039:14051   */\n      dup3\n        /* \"#utility.yul\":13985:14058   */\n      tag_287\n      jump\t// in\n    tag_476:\n        /* \"#utility.yul\":13977:14058   */\n      swap2\n      pop\n        /* \"#utility.yul\":13823:14069   */\n      pop\n        /* \"#utility.yul\":14159:14163   */\n      0x80\n        /* \"#utility.yul\":14152:14157   */\n      dup4\n        /* \"#utility.yul\":14148:14164   */\n      add\n        /* \"#utility.yul\":14142:14165   */\n      mload\n        /* \"#utility.yul\":14212:14215   */\n      dup5\n        /* \"#utility.yul\":14206:14210   */\n      dup3\n        /* \"#utility.yul\":14202:14216   */\n      sub\n        /* \"#utility.yul\":14195:14199   */\n      0x80\n        /* \"#utility.yul\":14190:14193   */\n      dup7\n        /* \"#utility.yul\":14186:14200   */\n      add\n        /* \"#utility.yul\":14179:14217   */\n      mstore\n        /* \"#utility.yul\":14238:14311   */\n      tag_477\n        /* \"#utility.yul\":14306:14310   */\n      dup3\n        /* \"#utility.yul\":14292:14304   */\n      dup3\n        /* \"#utility.yul\":14238:14311   */\n      tag_287\n      jump\t// in\n    tag_477:\n        /* \"#utility.yul\":14230:14311   */\n      swap2\n      pop\n        /* \"#utility.yul\":14079:14322   */\n      pop\n        /* \"#utility.yul\":14410:14414   */\n      0xa0\n        /* \"#utility.yul\":14403:14408   */\n      dup4\n        /* \"#utility.yul\":14399:14415   */\n      add\n        /* \"#utility.yul\":14393:14416   */\n      mload\n        /* \"#utility.yul\":14429:14486   */\n      tag_478\n        /* \"#utility.yul\":14480:14484   */\n      0xa0\n        /* \"#utility.yul\":14475:14478   */\n      dup7\n        /* \"#utility.yul\":14471:14485   */\n      add\n        /* \"#utility.yul\":14457:14469   */\n      dup3\n        /* \"#utility.yul\":14429:14486   */\n      tag_288\n      jump\t// in\n    tag_478:\n        /* \"#utility.yul\":14332:14496   */\n      pop\n        /* \"#utility.yul\":14579:14583   */\n      0xc0\n        /* \"#utility.yul\":14572:14577   */\n      dup4\n        /* \"#utility.yul\":14568:14584   */\n      add\n        /* \"#utility.yul\":14562:14585   */\n      mload\n        /* \"#utility.yul\":14598:14661   */\n      tag_479\n        /* \"#utility.yul\":14655:14659   */\n      0xc0\n        /* \"#utility.yul\":14650:14653   */\n      dup7\n        /* \"#utility.yul\":14646:14660   */\n      add\n        /* \"#utility.yul\":14632:14644   */\n      dup3\n        /* \"#utility.yul\":14598:14661   */\n      tag_274\n      jump\t// in\n    tag_479:\n        /* \"#utility.yul\":14506:14671   */\n      pop\n        /* \"#utility.yul\":14755:14759   */\n      0xe0\n        /* \"#utility.yul\":14748:14753   */\n      dup4\n        /* \"#utility.yul\":14744:14760   */\n      add\n        /* \"#utility.yul\":14738:14761   */\n      mload\n        /* \"#utility.yul\":14774:14837   */\n      tag_480\n        /* \"#utility.yul\":14831:14835   */\n      0xe0\n        /* \"#utility.yul\":14826:14829   */\n      dup7\n        /* \"#utility.yul\":14822:14836   */\n      add\n        /* \"#utility.yul\":14808:14820   */\n      dup3\n        /* \"#utility.yul\":14774:14837   */\n      tag_274\n      jump\t// in\n    tag_480:\n        /* \"#utility.yul\":14681:14847   */\n      pop\n        /* \"#utility.yul\":14931:14937   */\n      0x0100\n        /* \"#utility.yul\":14924:14929   */\n      dup4\n        /* \"#utility.yul\":14920:14938   */\n      add\n        /* \"#utility.yul\":14914:14939   */\n      mload\n        /* \"#utility.yul\":14952:15017   */\n      tag_481\n        /* \"#utility.yul\":15009:15015   */\n      0x0100\n        /* \"#utility.yul\":15004:15007   */\n      dup7\n        /* \"#utility.yul\":15000:15016   */\n      add\n        /* \"#utility.yul\":14986:14998   */\n      dup3\n        /* \"#utility.yul\":14952:15017   */\n      tag_274\n      jump\t// in\n    tag_481:\n        /* \"#utility.yul\":14857:15027   */\n      pop\n        /* \"#utility.yul\":15114:15120   */\n      0x0120\n        /* \"#utility.yul\":15107:15112   */\n      dup4\n        /* \"#utility.yul\":15103:15121   */\n      add\n        /* \"#utility.yul\":15097:15122   */\n      mload\n        /* \"#utility.yul\":15135:15200   */\n      tag_482\n        /* \"#utility.yul\":15192:15198   */\n      0x0120\n        /* \"#utility.yul\":15187:15190   */\n      dup7\n        /* \"#utility.yul\":15183:15199   */\n      add\n        /* \"#utility.yul\":15169:15181   */\n      dup3\n        /* \"#utility.yul\":15135:15200   */\n      tag_274\n      jump\t// in\n    tag_482:\n        /* \"#utility.yul\":15037:15210   */\n      pop\n        /* \"#utility.yul\":15227:15231   */\n      dup1\n        /* \"#utility.yul\":15220:15231   */\n      swap2\n      pop\n        /* \"#utility.yul\":13107:15237   */\n      pop\n        /* \"#utility.yul\":12977:15237   */\n      swap3\n      swap2\n      pop\n      pop\n      jump\t// out\n        /* \"#utility.yul\":15243:15628   */\n    tag_69:\n        /* \"#utility.yul\":15392:15396   */\n      0x00\n        /* \"#utility.yul\":15430:15432   */\n      0x20\n        /* \"#utility.yul\":15419:15428   */\n      dup3\n        /* \"#utility.yul\":15415:15433   */\n      add\n        /* \"#utility.yul\":15407:15433   */\n      swap1\n      pop\n        /* \"#utility.yul\":15479:15488   */\n      dup2\n        /* \"#utility.yul\":15473:15477   */\n      dup2\n        /* \"#utility.yul\":15469:15489   */\n      sub\n        /* \"#utility.yul\":15465:15466   */\n      0x00\n        /* \"#utility.yul\":15454:15463   */\n      dup4\n        /* \"#utility.yul\":15450:15467   */\n      add\n        /* \"#utility.yul\":15443:15490   */\n      mstore\n        /* \"#utility.yul\":15507:15621   */\n      tag_484\n        /* \"#utility.yul\":15616:15620   */\n      dup2\n        /* \"#utility.yul\":15607:15613   */\n      dup5\n        /* \"#utility.yul\":15507:15621   */\n      tag_289\n      jump\t// in\n    tag_484:\n        /* \"#utility.yul\":15499:15621   */\n      swap1\n      pop\n        /* \"#utility.yul\":15243:15628   */\n      swap3\n      swap2\n      pop\n      pop\n      jump\t// out\n        /* \"#utility.yul\":15634:15748   */\n    tag_290:\n        /* \"#utility.yul\":15701:15707   */\n      0x00\n        /* \"#utility.yul\":15735:15740   */\n      dup2\n        /* \"#utility.yul\":15729:15741   */\n      mload\n        /* \"#utility.yul\":15719:15741   */\n      swap1\n      pop\n        /* \"#utility.yul\":15634:15748   */\n      swap2\n      swap1\n      pop\n      jump\t// out\n        /* \"#utility.yul\":15754:15938   */\n    tag_291:\n        /* \"#utility.yul\":15853:15864   */\n      0x00\n        /* \"#utility.yul\":15887:15893   */\n      dup3\n        /* \"#utility.yul\":15882:15885   */\n      dup3\n        /* \"#utility.yul\":15875:15894   */\n      mstore\n        /* \"#utility.yul\":15927:15931   */\n      0x20\n        /* \"#utility.yul\":15922:15925   */\n      dup3\n        /* \"#utility.yul\":15918:15932   */\n      add\n        /* \"#utility.yul\":15903:15932   */\n      swap1\n      pop\n        /* \"#utility.yul\":15754:15938   */\n      swap3\n      swap2\n      pop\n      pop\n      jump\t// out\n        /* \"#utility.yul\":15944:16076   */\n    tag_292:\n        /* \"#utility.yul\":16011:16015   */\n      0x00\n        /* \"#utility.yul\":16034:16037   */\n      dup2\n        /* \"#utility.yul\":16026:16037   */\n      swap1\n      pop\n        /* \"#utility.yul\":16064:16068   */\n      0x20\n        /* \"#utility.yul\":16059:16062   */\n      dup3\n        /* \"#utility.yul\":16055:16069   */\n      add\n        /* \"#utility.yul\":16047:16069   */\n      swap1\n      pop\n        /* \"#utility.yul\":15944:16076   */\n      swap2\n      swap1\n      pop\n      jump\t// out\n        /* \"#utility.yul\":16082:16261   */\n    tag_293:\n        /* \"#utility.yul\":16151:16161   */\n      0x00\n        /* \"#utility.yul\":16172:16218   */\n      tag_489\n        /* \"#utility.yul\":16214:16217   */\n      dup4\n        /* \"#utility.yul\":16206:16212   */\n      dup4\n        /* \"#utility.yul\":16172:16218   */\n      tag_274\n      jump\t// in\n    tag_489:\n        /* \"#utility.yul\":16250:16254   */\n      0x20\n        /* \"#utility.yul\":16245:16248   */\n      dup4\n        /* \"#utility.yul\":16241:16255   */\n      add\n        /* \"#utility.yul\":16227:16255   */\n      swap1\n      pop\n        /* \"#utility.yul\":16082:16261   */\n      swap3\n      swap2\n      pop\n      pop\n      jump\t// out\n        /* \"#utility.yul\":16267:16380   */\n    tag_294:\n        /* \"#utility.yul\":16337:16341   */\n      0x00\n        /* \"#utility.yul\":16369:16373   */\n      0x20\n        /* \"#utility.yul\":16364:16367   */\n      dup3\n        /* \"#utility.yul\":16360:16374   */\n      add\n        /* \"#utility.yul\":16352:16374   */\n      swap1\n      pop\n        /* \"#utility.yul\":16267:16380   */\n      swap2\n      swap1\n      pop\n      jump\t// out\n        /* \"#utility.yul\":16416:17148   */\n    tag_295:\n        /* \"#utility.yul\":16535:16538   */\n      0x00\n        /* \"#utility.yul\":16564:16618   */\n      tag_492\n        /* \"#utility.yul\":16612:16617   */\n      dup3\n        /* \"#utility.yul\":16564:16618   */\n      tag_290\n      jump\t// in\n    tag_492:\n        /* \"#utility.yul\":16634:16720   */\n      tag_493\n        /* \"#utility.yul\":16713:16719   */\n      dup2\n        /* \"#utility.yul\":16708:16711   */\n      dup6\n        /* \"#utility.yul\":16634:16720   */\n      tag_291\n      jump\t// in\n    tag_493:\n        /* \"#utility.yul\":16627:16720   */\n      swap4\n      pop\n        /* \"#utility.yul\":16744:16800   */\n      tag_494\n        /* \"#utility.yul\":16794:16799   */\n      dup4\n        /* \"#utility.yul\":16744:16800   */\n      tag_292\n      jump\t// in\n    tag_494:\n        /* \"#utility.yul\":16823:16830   */\n      dup1\n        /* \"#utility.yul\":16854:16855   */\n      0x00\n        /* \"#utility.yul\":16839:17123   */\n    tag_495:\n        /* \"#utility.yul\":16864:16870   */\n      dup4\n        /* \"#utility.yul\":16861:16862   */\n      dup2\n        /* \"#utility.yul\":16858:16871   */\n      lt\n        /* \"#utility.yul\":16839:17123   */\n      iszero\n      tag_497\n      jumpi\n        /* \"#utility.yul\":16940:16946   */\n      dup2\n        /* \"#utility.yul\":16934:16947   */\n      mload\n        /* \"#utility.yul\":16967:17030   */\n      tag_498\n        /* \"#utility.yul\":17026:17029   */\n      dup9\n        /* \"#utility.yul\":17011:17024   */\n      dup3\n        /* \"#utility.yul\":16967:17030   */\n      tag_293\n      jump\t// in\n    tag_498:\n        /* \"#utility.yul\":16960:17030   */\n      swap8\n      pop\n        /* \"#utility.yul\":17053:17113   */\n      tag_499\n        /* \"#utility.yul\":17106:17112   */\n      dup4\n        /* \"#utility.yul\":17053:17113   */\n      tag_294\n      jump\t// in\n    tag_499:\n        /* \"#utility.yul\":17043:17113   */\n      swap3\n      pop\n        /* \"#utility.yul\":16899:17123   */\n      pop\n        /* \"#utility.yul\":16886:16887   */\n      0x01\n        /* \"#utility.yul\":16883:16884   */\n      dup2\n        /* \"#utility.yul\":16879:16888   */\n      add\n        /* \"#utility.yul\":16874:16888   */\n      swap1\n      pop\n        /* \"#utility.yul\":16839:17123   */\n      jump(tag_495)\n    tag_497:\n        /* \"#utility.yul\":16843:16857   */\n      pop\n        /* \"#utility.yul\":17139:17142   */\n      dup6\n        /* \"#utility.yul\":17132:17142   */\n      swap4\n      pop\n        /* \"#utility.yul\":16540:17148   */\n      pop\n      pop\n      pop\n        /* \"#utility.yul\":16416:17148   */\n      swap3\n      swap2\n      pop\n      pop\n      jump\t// out\n        /* \"#utility.yul\":17154:17527   */\n    tag_74:\n        /* \"#utility.yul\":17297:17301   */\n      0x00\n        /* \"#utility.yul\":17335:17337   */\n      0x20\n        /* \"#utility.yul\":17324:17333   */\n      dup3\n        /* \"#utility.yul\":17320:17338   */\n      add\n        /* \"#utility.yul\":17312:17338   */\n      swap1\n      pop\n        /* \"#utility.yul\":17384:17393   */\n      dup2\n        /* \"#utility.yul\":17378:17382   */\n      dup2\n        /* \"#utility.yul\":17374:17394   */\n      sub\n        /* \"#utility.yul\":17370:17371   */\n      0x00\n        /* \"#utility.yul\":17359:17368   */\n      dup4\n        /* \"#utility.yul\":17355:17372   */\n      add\n        /* \"#utility.yul\":17348:17395   */\n      mstore\n        /* \"#utility.yul\":17412:17520   */\n      tag_501\n        /* \"#utility.yul\":17515:17519   */\n      dup2\n        /* \"#utility.yul\":17506:17512   */\n      dup5\n        /* \"#utility.yul\":17412:17520   */\n      tag_295\n      jump\t// in\n    tag_501:\n        /* \"#utility.yul\":17404:17520   */\n      swap1\n      pop\n        /* \"#utility.yul\":17154:17527   */\n      swap3\n      swap2\n      pop\n      pop\n      jump\t// out\n        /* \"#utility.yul\":17533:18308   */\n    tag_79:\n        /* \"#utility.yul\":17766:17770   */\n      0x00\n        /* \"#utility.yul\":17804:17807   */\n      0xc0\n        /* \"#utility.yul\":17793:17802   */\n      dup3\n        /* \"#utility.yul\":17789:17808   */\n      add\n        /* \"#utility.yul\":17781:17808   */\n      swap1\n      pop\n        /* \"#utility.yul\":17818:17889   */\n      tag_503\n        /* \"#utility.yul\":17886:17887   */\n      0x00\n        /* \"#utility.yul\":17875:17884   */\n      dup4\n        /* \"#utility.yul\":17871:17888   */\n      add\n        /* \"#utility.yul\":17862:17868   */\n      dup10\n        /* \"#utility.yul\":17818:17889   */\n      tag_256\n      jump\t// in\n    tag_503:\n        /* \"#utility.yul\":17899:17971   */\n      tag_504\n        /* \"#utility.yul\":17967:17969   */\n      0x20\n        /* \"#utility.yul\":17956:17965   */\n      dup4\n        /* \"#utility.yul\":17952:17970   */\n      add\n        /* \"#utility.yul\":17943:17949   */\n      dup9\n        /* \"#utility.yul\":17899:17971   */\n      tag_256\n      jump\t// in\n    tag_504:\n        /* \"#utility.yul\":17981:18053   */\n      tag_505\n        /* \"#utility.yul\":18049:18051   */\n      0x40\n        /* \"#utility.yul\":18038:18047   */\n      dup4\n        /* \"#utility.yul\":18034:18052   */\n      add\n        /* \"#utility.yul\":18025:18031   */\n      dup8\n        /* \"#utility.yul\":17981:18053   */\n      tag_256\n      jump\t// in\n    tag_505:\n        /* \"#utility.yul\":18063:18135   */\n      tag_506\n        /* \"#utility.yul\":18131:18133   */\n      0x60\n        /* \"#utility.yul\":18120:18129   */\n      dup4\n        /* \"#utility.yul\":18116:18134   */\n      add\n        /* \"#utility.yul\":18107:18113   */\n      dup7\n        /* \"#utility.yul\":18063:18135   */\n      tag_256\n      jump\t// in\n    tag_506:\n        /* \"#utility.yul\":18145:18218   */\n      tag_507\n        /* \"#utility.yul\":18213:18216   */\n      0x80\n        /* \"#utility.yul\":18202:18211   */\n      dup4\n        /* \"#utility.yul\":18198:18217   */\n      add\n        /* \"#utility.yul\":18189:18195   */\n      dup6\n        /* \"#utility.yul\":18145:18218   */\n      tag_256\n      jump\t// in\n    tag_507:\n        /* \"#utility.yul\":18228:18301   */\n      tag_508\n        /* \"#utility.yul\":18296:18299   */\n      0xa0\n        /* \"#utility.yul\":18285:18294   */\n      dup4\n        /* \"#utility.yul\":18281:18300   */\n      add\n        /* \"#utility.yul\":18272:18278   */\n      dup5\n        /* \"#utility.yul\":18228:18301   */\n      tag_256\n      jump\t// in\n    tag_508:\n        /* \"#utility.yul\":17533:18308   */\n      swap8\n      swap7\n      pop\n      pop\n      pop\n      pop\n      pop\n      pop\n      pop\n      jump\t// out\n        /* \"#utility.yul\":18314:18788   */\n    tag_87:\n        /* \"#utility.yul\":18382:18388   */\n      0x00\n        /* \"#utility.yul\":18390:18396   */\n      dup1\n        /* \"#utility.yul\":18439:18441   */\n      0x40\n        /* \"#utility.yul\":18427:18436   */\n      dup4\n        /* \"#utility.yul\":18418:18425   */\n      dup6\n        /* \"#utility.yul\":18414:18437   */\n      sub\n        /* \"#utility.yul\":18410:18442   */\n      slt\n        /* \"#utility.yul\":18407:18526   */\n      iszero\n      tag_510\n      jumpi\n        /* \"#utility.yul\":18445:18524   */\n      tag_511\n      tag_258\n      jump\t// in\n    tag_511:\n        /* \"#utility.yul\":18407:18526   */\n    tag_510:\n        /* \"#utility.yul\":18565:18566   */\n      0x00\n        /* \"#utility.yul\":18590:18643   */\n      tag_512\n        /* \"#utility.yul\":18635:18642   */\n      dup6\n        /* \"#utility.yul\":18626:18632   */\n      dup3\n        /* \"#utility.yul\":18615:18624   */\n      dup7\n        /* \"#utility.yul\":18611:18633   */\n      add\n        /* \"#utility.yul\":18590:18643   */\n      tag_265\n      jump\t// in\n    tag_512:\n        /* \"#utility.yul\":18580:18643   */\n      swap3\n      pop\n        /* \"#utility.yul\":18536:18653   */\n      pop\n        /* \"#utility.yul\":18692:18694   */\n      0x20\n        /* \"#utility.yul\":18718:18771   */\n      tag_513\n        /* \"#utility.yul\":18763:18770   */\n      dup6\n        /* \"#utility.yul\":18754:18760   */\n      dup3\n        /* \"#utility.yul\":18743:18752   */\n      dup7\n        /* \"#utility.yul\":18739:18761   */\n      add\n        /* \"#utility.yul\":18718:18771   */\n      tag_263\n      jump\t// in\n    tag_513:\n        /* \"#utility.yul\":18708:18771   */\n      swap2\n      pop\n        /* \"#utility.yul\":18663:18781   */\n      pop\n        /* \"#utility.yul\":18314:18788   */\n      swap3\n      pop\n      swap3\n      swap1\n      pop\n      jump\t// out\n        /* \"#utility.yul\":18794:19004   */\n    tag_90:\n        /* \"#utility.yul\":18881:18885   */\n      0x00\n        /* \"#utility.yul\":18919:18921   */\n      0x20\n        /* \"#utility.yul\":18908:18917   */\n      dup3\n        /* \"#utility.yul\":18904:18922   */\n      add\n        /* \"#utility.yul\":18896:18922   */\n      swap1\n      pop\n        /* \"#utility.yul\":18932:18997   */\n      tag_515\n        /* \"#utility.yul\":18994:18995   */\n      0x00\n        /* \"#utility.yul\":18983:18992   */\n      dup4\n        /* \"#utility.yul\":18979:18996   */\n      add\n        /* \"#utility.yul\":18970:18976   */\n      dup5\n        /* \"#utility.yul\":18932:18997   */\n      tag_273\n      jump\t// in\n    tag_515:\n        /* \"#utility.yul\":18794:19004   */\n      swap3\n      swap2\n      pop\n      pop\n      jump\t// out\n        /* \"#utility.yul\":19010:19190   */\n    tag_296:\n        /* \"#utility.yul\":19058:19135   */\n      0x4e487b7100000000000000000000000000000000000000000000000000000000\n        /* \"#utility.yul\":19055:19056   */\n      0x00\n        /* \"#utility.yul\":19048:19136   */\n      mstore\n        /* \"#utility.yul\":19155:19159   */\n      0x22\n        /* \"#utility.yul\":19152:19153   */\n      0x04\n        /* \"#utility.yul\":19145:19160   */\n      mstore\n        /* \"#utility.yul\":19179:19183   */\n      0x24\n        /* \"#utility.yul\":19176:19177   */\n      0x00\n        /* \"#utility.yul\":19169:19184   */\n      revert\n        /* \"#utility.yul\":19196:19516   */\n    tag_101:\n        /* \"#utility.yul\":19240:19246   */\n      0x00\n        /* \"#utility.yul\":19277:19278   */\n      0x02\n        /* \"#utility.yul\":19271:19275   */\n      dup3\n        /* \"#utility.yul\":19267:19279   */\n      div\n        /* \"#utility.yul\":19257:19279   */\n      swap1\n      pop\n        /* \"#utility.yul\":19324:19325   */\n      0x01\n        /* \"#utility.yul\":19318:19322   */\n      dup3\n        /* \"#utility.yul\":19314:19326   */\n      and\n        /* \"#utility.yul\":19345:19363   */\n      dup1\n        /* \"#utility.yul\":19335:19416   */\n      tag_518\n      jumpi\n        /* \"#utility.yul\":19401:19405   */\n      0x7f\n        /* \"#utility.yul\":19393:19399   */\n      dup3\n        /* \"#utility.yul\":19389:19406   */\n      and\n        /* \"#utility.yul\":19379:19406   */\n      swap2\n      pop\n        /* \"#utility.yul\":19335:19416   */\n    tag_518:\n        /* \"#utility.yul\":19463:19465   */\n      0x20\n        /* \"#utility.yul\":19455:19461   */\n      dup3\n        /* \"#utility.yul\":19452:19466   */\n      lt\n        /* \"#utility.yul\":19432:19450   */\n      dup2\n        /* \"#utility.yul\":19429:19467   */\n      sub\n        /* \"#utility.yul\":19426:19510   */\n      tag_519\n      jumpi\n        /* \"#utility.yul\":19482:19500   */\n      tag_520\n      tag_296\n      jump\t// in\n    tag_520:\n        /* \"#utility.yul\":19426:19510   */\n    tag_519:\n        /* \"#utility.yul\":19247:19516   */\n      pop\n        /* \"#utility.yul\":19196:19516   */\n      swap2\n      swap1\n      pop\n      jump\t// out\n        /* \"#utility.yul\":19522:19685   */\n    tag_297:\n        /* \"#utility.yul\":19662:19677   */\n      0x4e6f207265656e7472616e637900000000000000000000000000000000000000\n        /* \"#utility.yul\":19658:19659   */\n      0x00\n        /* \"#utility.yul\":19650:19656   */\n      dup3\n        /* \"#utility.yul\":19646:19660   */\n      add\n        /* \"#utility.yul\":19639:19678   */\n      mstore\n        /* \"#utility.yul\":19522:19685   */\n      pop\n      jump\t// out\n        /* \"#utility.yul\":19691:20057   */\n    tag_298:\n        /* \"#utility.yul\":19833:19836   */\n      0x00\n        /* \"#utility.yul\":19854:19921   */\n      tag_523\n        /* \"#utility.yul\":19918:19920   */\n      0x0d\n        /* \"#utility.yul\":19913:19916   */\n      dup4\n        /* \"#utility.yul\":19854:19921   */\n      tag_268\n      jump\t// in\n    tag_523:\n        /* \"#utility.yul\":19847:19921   */\n      swap2\n      pop\n        /* \"#utility.yul\":19930:20023   */\n      tag_524\n        /* \"#utility.yul\":20019:20022   */\n      dup3\n        /* \"#utility.yul\":19930:20023   */\n      tag_297\n      jump\t// in\n    tag_524:\n        /* \"#utility.yul\":20048:20050   */\n      0x20\n        /* \"#utility.yul\":20043:20046   */\n      dup3\n        /* \"#utility.yul\":20039:20051   */\n      add\n        /* \"#utility.yul\":20032:20051   */\n      swap1\n      pop\n        /* \"#utility.yul\":19691:20057   */\n      swap2\n      swap1\n      pop\n      jump\t// out\n        /* \"#utility.yul\":20063:20482   */\n    tag_127:\n        /* \"#utility.yul\":20229:20233   */\n      0x00\n        /* \"#utility.yul\":20267:20269   */\n      0x20\n        /* \"#utility.yul\":20256:20265   */\n      dup3\n        /* \"#utility.yul\":20252:20270   */\n      add\n        /* \"#utility.yul\":20244:20270   */\n      swap1\n      pop\n        /* \"#utility.yul\":20316:20325   */\n      dup2\n        /* \"#utility.yul\":20310:20314   */\n      dup2\n        /* \"#utility.yul\":20306:20326   */\n      sub\n        /* \"#utility.yul\":20302:20303   */\n      0x00\n        /* \"#utility.yul\":20291:20300   */\n      dup4\n        /* \"#utility.yul\":20287:20304   */\n      add\n        /* \"#utility.yul\":20280:20327   */\n      mstore\n        /* \"#utility.yul\":20344:20475   */\n      tag_526\n        /* \"#utility.yul\":20470:20474   */\n      dup2\n        /* \"#utility.yul\":20344:20475   */\n      tag_298\n      jump\t// in\n    tag_526:\n        /* \"#utility.yul\":20336:20475   */\n      swap1\n      pop\n        /* \"#utility.yul\":20063:20482   */\n      swap2\n      swap1\n      pop\n      jump\t// out\n        /* \"#utility.yul\":20488:20659   */\n    tag_299:\n        /* \"#utility.yul\":20628:20651   */\n      0x636f696e412063616e6e6f7420626520656d7074790000000000000000000000\n        /* \"#utility.yul\":20624:20625   */\n      0x00\n        /* \"#utility.yul\":20616:20622   */\n      dup3\n        /* \"#utility.yul\":20612:20626   */\n      add\n        /* \"#utility.yul\":20605:20652   */\n      mstore\n        /* \"#utility.yul\":20488:20659   */\n      pop\n      jump\t// out\n        /* \"#utility.yul\":20665:21031   */\n    tag_300:\n        /* \"#utility.yul\":20807:20810   */\n      0x00\n        /* \"#utility.yul\":20828:20895   */\n      tag_529\n        /* \"#utility.yul\":20892:20894   */\n      0x15\n        /* \"#utility.yul\":20887:20890   */\n      dup4\n        /* \"#utility.yul\":20828:20895   */\n      tag_268\n      jump\t// in\n    tag_529:\n        /* \"#utility.yul\":20821:20895   */\n      swap2\n      pop\n        /* \"#utility.yul\":20904:20997   */\n      tag_530\n        /* \"#utility.yul\":20993:20996   */\n      dup3\n        /* \"#utility.yul\":20904:20997   */\n      tag_299\n      jump\t// in\n    tag_530:\n        /* \"#utility.yul\":21022:21024   */\n      0x20\n        /* \"#utility.yul\":21017:21020   */\n      dup3\n        /* \"#utility.yul\":21013:21025   */\n      add\n        /* \"#utility.yul\":21006:21025   */\n      swap1\n      pop\n        /* \"#utility.yul\":20665:21031   */\n      swap2\n      swap1\n      pop\n      jump\t// out\n        /* \"#utility.yul\":21037:21456   */\n    tag_131:\n        /* \"#utility.yul\":21203:21207   */\n      0x00\n        /* \"#utility.yul\":21241:21243   */\n      0x20\n        /* \"#utility.yul\":21230:21239   */\n      dup3\n        /* \"#utility.yul\":21226:21244   */\n      add\n        /* \"#utility.yul\":21218:21244   */\n      swap1\n      pop\n        /* \"#utility.yul\":21290:21299   */\n      dup2\n        /* \"#utility.yul\":21284:21288   */\n      dup2\n        /* \"#utility.yul\":21280:21300   */\n      sub\n        /* \"#utility.yul\":21276:21277   */\n      0x00\n        /* \"#utility.yul\":21265:21274   */\n      dup4\n        /* \"#utility.yul\":21261:21278   */\n      add\n        /* \"#utility.yul\":21254:21301   */\n      mstore\n        /* \"#utility.yul\":21318:21449   */\n      tag_532\n        /* \"#utility.yul\":21444:21448   */\n      dup2\n        /* \"#utility.yul\":21318:21449   */\n      tag_300\n      jump\t// in\n    tag_532:\n        /* \"#utility.yul\":21310:21449   */\n      swap1\n      pop\n        /* \"#utility.yul\":21037:21456   */\n      swap2\n      swap1\n      pop\n      jump\t// out\n        /* \"#utility.yul\":21462:21633   */\n    tag_301:\n        /* \"#utility.yul\":21602:21625   */\n      0x636f696e422063616e6e6f7420626520656d7074790000000000000000000000\n        /* \"#utility.yul\":21598:21599   */\n      0x00\n        /* \"#utility.yul\":21590:21596   */\n      dup3\n        /* \"#utility.yul\":21586:21600   */\n      add\n        /* \"#utility.yul\":21579:21626   */\n      mstore\n        /* \"#utility.yul\":21462:21633   */\n      pop\n      jump\t// out\n        /* \"#utility.yul\":21639:22005   */\n    tag_302:\n        /* \"#utility.yul\":21781:21784   */\n      0x00\n        /* \"#utility.yul\":21802:21869   */\n      tag_535\n        /* \"#utility.yul\":21866:21868   */\n      0x15\n        /* \"#utility.yul\":21861:21864   */\n      dup4\n        /* \"#utility.yul\":21802:21869   */\n      tag_268\n      jump\t// in\n    tag_535:\n        /* \"#utility.yul\":21795:21869   */\n      swap2\n      pop\n        /* \"#utility.yul\":21878:21971   */\n      tag_536\n        /* \"#utility.yul\":21967:21970   */\n      dup3\n        /* \"#utility.yul\":21878:21971   */\n      tag_301\n      jump\t// in\n    tag_536:\n        /* \"#utility.yul\":21996:21998   */\n      0x20\n        /* \"#utility.yul\":21991:21994   */\n      dup3\n        /* \"#utility.yul\":21987:21999   */\n      add\n        /* \"#utility.yul\":21980:21999   */\n      swap1\n      pop\n        /* \"#utility.yul\":21639:22005   */\n      swap2\n      swap1\n      pop\n      jump\t// out\n        /* \"#utility.yul\":22011:22430   */\n    tag_134:\n        /* \"#utility.yul\":22177:22181   */\n      0x00\n        /* \"#utility.yul\":22215:22217   */\n      0x20\n        /* \"#utility.yul\":22204:22213   */\n      dup3\n        /* \"#utility.yul\":22200:22218   */\n      add\n        /* \"#utility.yul\":22192:22218   */\n      swap1\n      pop\n        /* \"#utility.yul\":22264:22273   */\n      dup2\n        /* \"#utility.yul\":22258:22262   */\n      dup2\n        /* \"#utility.yul\":22254:22274   */\n      sub\n        /* \"#utility.yul\":22250:22251   */\n      0x00\n        /* \"#utility.yul\":22239:22248   */\n      dup4\n        /* \"#utility.yul\":22235:22252   */\n      add\n        /* \"#utility.yul\":22228:22275   */\n      mstore\n        /* \"#utility.yul\":22292:22423   */\n      tag_538\n        /* \"#utility.yul\":22418:22422   */\n      dup2\n        /* \"#utility.yul\":22292:22423   */\n      tag_302\n      jump\t// in\n    tag_538:\n        /* \"#utility.yul\":22284:22423   */\n      swap1\n      pop\n        /* \"#utility.yul\":22011:22430   */\n      swap2\n      swap1\n      pop\n      jump\t// out\n        /* \"#utility.yul\":22436:22617   */\n    tag_303:\n        /* \"#utility.yul\":22576:22609   */\n      0x70726564696374656457696e6e65722063616e6e6f7420626520656d70747900\n        /* \"#utility.yul\":22572:22573   */\n      0x00\n        /* \"#utility.yul\":22564:22570   */\n      dup3\n        /* \"#utility.yul\":22560:22574   */\n      add\n        /* \"#utility.yul\":22553:22610   */\n      mstore\n        /* \"#utility.yul\":22436:22617   */\n      pop\n      jump\t// out\n        /* \"#utility.yul\":22623:22989   */\n    tag_304:\n        /* \"#utility.yul\":22765:22768   */\n      0x00\n        /* \"#utility.yul\":22786:22853   */\n      tag_541\n        /* \"#utility.yul\":22850:22852   */\n      0x1f\n        /* \"#utility.yul\":22845:22848   */\n      dup4\n        /* \"#utility.yul\":22786:22853   */\n      tag_268\n      jump\t// in\n    tag_541:\n        /* \"#utility.yul\":22779:22853   */\n      swap2\n      pop\n        /* \"#utility.yul\":22862:22955   */\n      tag_542\n        /* \"#utility.yul\":22951:22954   */\n      dup3\n        /* \"#utility.yul\":22862:22955   */\n      tag_303\n      jump\t// in\n    tag_542:\n        /* \"#utility.yul\":22980:22982   */\n      0x20\n        /* \"#utility.yul\":22975:22978   */\n      dup3\n        /* \"#utility.yul\":22971:22983   */\n      add\n        /* \"#utility.yul\":22964:22983   */\n      swap1\n      pop\n        /* \"#utility.yul\":22623:22989   */\n      swap2\n      swap1\n      pop\n      jump\t// out\n        /* \"#utility.yul\":22995:23414   */\n    tag_137:\n        /* \"#utility.yul\":23161:23165   */\n      0x00\n        /* \"#utility.yul\":23199:23201   */\n      0x20\n        /* \"#utility.yul\":23188:23197   */\n      dup3\n        /* \"#utility.yul\":23184:23202   */\n      add\n        /* \"#utility.yul\":23176:23202   */\n      swap1\n      pop\n        /* \"#utility.yul\":23248:23257   */\n      dup2\n        /* \"#utility.yul\":23242:23246   */\n      dup2\n        /* \"#utility.yul\":23238:23258   */\n      sub\n        /* \"#utility.yul\":23234:23235   */\n      0x00\n        /* \"#utility.yul\":23223:23232   */\n      dup4\n        /* \"#utility.yul\":23219:23236   */\n      add\n        /* \"#utility.yul\":23212:23259   */\n      mstore\n        /* \"#utility.yul\":23276:23407   */\n      tag_544\n        /* \"#utility.yul\":23402:23406   */\n      dup2\n        /* \"#utility.yul\":23276:23407   */\n      tag_304\n      jump\t// in\n    tag_544:\n        /* \"#utility.yul\":23268:23407   */\n      swap1\n      pop\n        /* \"#utility.yul\":22995:23414   */\n      swap2\n      swap1\n      pop\n      jump\t// out\n        /* \"#utility.yul\":23420:23598   */\n    tag_305:\n        /* \"#utility.yul\":23560:23590   */\n      0x61637475616c57696e6e65722063616e6e6f7420626520656d70747900000000\n        /* \"#utility.yul\":23556:23557   */\n      0x00\n        /* \"#utility.yul\":23548:23554   */\n      dup3\n        /* \"#utility.yul\":23544:23558   */\n      add\n        /* \"#utility.yul\":23537:23591   */\n      mstore\n        /* \"#utility.yul\":23420:23598   */\n      pop\n      jump\t// out\n        /* \"#utility.yul\":23604:23970   */\n    tag_306:\n        /* \"#utility.yul\":23746:23749   */\n      0x00\n        /* \"#utility.yul\":23767:23834   */\n      tag_547\n        /* \"#utility.yul\":23831:23833   */\n      0x1c\n        /* \"#utility.yul\":23826:23829   */\n      dup4\n        /* \"#utility.yul\":23767:23834   */\n      tag_268\n      jump\t// in\n    tag_547:\n        /* \"#utility.yul\":23760:23834   */\n      swap2\n      pop\n        /* \"#utility.yul\":23843:23936   */\n      tag_548\n        /* \"#utility.yul\":23932:23935   */\n      dup3\n        /* \"#utility.yul\":23843:23936   */\n      tag_305\n      jump\t// in\n    tag_548:\n        /* \"#utility.yul\":23961:23963   */\n      0x20\n        /* \"#utility.yul\":23956:23959   */\n      dup3\n        /* \"#utility.yul\":23952:23964   */\n      add\n        /* \"#utility.yul\":23945:23964   */\n      swap1\n      pop\n        /* \"#utility.yul\":23604:23970   */\n      swap2\n      swap1\n      pop\n      jump\t// out\n        /* \"#utility.yul\":23976:24395   */\n    tag_140:\n        /* \"#utility.yul\":24142:24146   */\n      0x00\n        /* \"#utility.yul\":24180:24182   */\n      0x20\n        /* \"#utility.yul\":24169:24178   */\n      dup3\n        /* \"#utility.yul\":24165:24183   */\n      add\n        /* \"#utility.yul\":24157:24183   */\n      swap1\n      pop\n        /* \"#utility.yul\":24229:24238   */\n      dup2\n        /* \"#utility.yul\":24223:24227   */\n      dup2\n        /* \"#utility.yul\":24219:24239   */\n      sub\n        /* \"#utility.yul\":24215:24216   */\n      0x00\n        /* \"#utility.yul\":24204:24213   */\n      dup4\n        /* \"#utility.yul\":24200:24217   */\n      add\n        /* \"#utility.yul\":24193:24240   */\n      mstore\n        /* \"#utility.yul\":24257:24388   */\n      tag_550\n        /* \"#utility.yul\":24383:24387   */\n      dup2\n        /* \"#utility.yul\":24257:24388   */\n      tag_306\n      jump\t// in\n    tag_550:\n        /* \"#utility.yul\":24249:24388   */\n      swap1\n      pop\n        /* \"#utility.yul\":23976:24395   */\n      swap2\n      swap1\n      pop\n      jump\t// out\n        /* \"#utility.yul\":24401:24581   */\n    tag_307:\n        /* \"#utility.yul\":24449:24526   */\n      0x4e487b7100000000000000000000000000000000000000000000000000000000\n        /* \"#utility.yul\":24446:24447   */\n      0x00\n        /* \"#utility.yul\":24439:24527   */\n      mstore\n        /* \"#utility.yul\":24546:24550   */\n      0x11\n        /* \"#utility.yul\":24543:24544   */\n      0x04\n        /* \"#utility.yul\":24536:24551   */\n      mstore\n        /* \"#utility.yul\":24570:24574   */\n      0x24\n        /* \"#utility.yul\":24567:24568   */\n      0x00\n        /* \"#utility.yul\":24560:24575   */\n      revert\n        /* \"#utility.yul\":24587:24820   */\n    tag_146:\n        /* \"#utility.yul\":24626:24629   */\n      0x00\n        /* \"#utility.yul\":24649:24673   */\n      tag_553\n        /* \"#utility.yul\":24667:24672   */\n      dup3\n        /* \"#utility.yul\":24649:24673   */\n      tag_255\n      jump\t// in\n    tag_553:\n        /* \"#utility.yul\":24640:24673   */\n      swap2\n      pop\n        /* \"#utility.yul\":24695:24761   */\n      0xffffffffffffffffffffffffffffffffffffffffffffffffffffffffffffffff\n        /* \"#utility.yul\":24688:24693   */\n      dup3\n        /* \"#utility.yul\":24685:24762   */\n      sub\n        /* \"#utility.yul\":24682:24785   */\n      tag_554\n      jumpi\n        /* \"#utility.yul\":24765:24783   */\n      tag_555\n      tag_307\n      jump\t// in\n    tag_555:\n        /* \"#utility.yul\":24682:24785   */\n    tag_554:\n        /* \"#utility.yul\":24812:24813   */\n      0x01\n        /* \"#utility.yul\":24805:24810   */\n      dup3\n        /* \"#utility.yul\":24801:24814   */\n      add\n        /* \"#utility.yul\":24794:24814   */\n      swap1\n      pop\n        /* \"#utility.yul\":24587:24820   */\n      swap2\n      swap1\n      pop\n      jump\t// out\n        /* \"#utility.yul\":24826:24967   */\n    tag_308:\n        /* \"#utility.yul\":24875:24879   */\n      0x00\n        /* \"#utility.yul\":24898:24901   */\n      dup2\n        /* \"#utility.yul\":24890:24901   */\n      swap1\n      pop\n        /* \"#utility.yul\":24921:24924   */\n      dup2\n        /* \"#utility.yul\":24918:24919   */\n      0x00\n        /* \"#utility.yul\":24911:24925   */\n      mstore\n        /* \"#utility.yul\":24955:24959   */\n      0x20\n        /* \"#utility.yul\":24952:24953   */\n      0x00\n        /* \"#utility.yul\":24942:24960   */\n      keccak256\n        /* \"#utility.yul\":24934:24960   */\n      swap1\n      pop\n        /* \"#utility.yul\":24826:24967   */\n      swap2\n      swap1\n      pop\n      jump\t// out\n        /* \"#utility.yul\":24973:25066   */\n    tag_309:\n        /* \"#utility.yul\":25010:25016   */\n      0x00\n        /* \"#utility.yul\":25057:25059   */\n      0x20\n        /* \"#utility.yul\":25052:25054   */\n      0x1f\n        /* \"#utility.yul\":25045:25050   */\n      dup4\n        /* \"#utility.yul\":25041:25055   */\n      add\n        /* \"#utility.yul\":25037:25060   */\n      div\n        /* \"#utility.yul\":25027:25060   */\n      swap1\n      pop\n        /* \"#utility.yul\":24973:25066   */\n      swap2\n      swap1\n      pop\n      jump\t// out\n        /* \"#utility.yul\":25072:25179   */\n    tag_310:\n        /* \"#utility.yul\":25116:25124   */\n      0x00\n        /* \"#utility.yul\":25166:25171   */\n      dup3\n        /* \"#utility.yul\":25160:25164   */\n      dup3\n        /* \"#utility.yul\":25156:25172   */\n      shl\n        /* \"#utility.yul\":25135:25172   */\n      swap1\n      pop\n        /* \"#utility.yul\":25072:25179   */\n      swap3\n      swap2\n      pop\n      pop\n      jump\t// out\n        /* \"#utility.yul\":25185:25578   */\n    tag_311:\n        /* \"#utility.yul\":25254:25260   */\n      0x00\n        /* \"#utility.yul\":25304:25305   */\n      0x08\n        /* \"#utility.yul\":25292:25302   */\n      dup4\n        /* \"#utility.yul\":25288:25306   */\n      mul\n        /* \"#utility.yul\":25327:25424   */\n      tag_560\n        /* \"#utility.yul\":25357:25423   */\n      0xffffffffffffffffffffffffffffffffffffffffffffffffffffffffffffffff\n        /* \"#utility.yul\":25346:25355   */\n      dup3\n        /* \"#utility.yul\":25327:25424   */\n      tag_310\n      jump\t// in\n    tag_560:\n        /* \"#utility.yul\":25445:25484   */\n      tag_561\n        /* \"#utility.yul\":25475:25483   */\n      dup7\n        /* \"#utility.yul\":25464:25473   */\n      dup4\n        /* \"#utility.yul\":25445:25484   */\n      tag_310\n      jump\t// in\n    tag_561:\n        /* \"#utility.yul\":25433:25484   */\n      swap6\n      pop\n        /* \"#utility.yul\":25517:25521   */\n      dup1\n        /* \"#utility.yul\":25513:25522   */\n      not\n        /* \"#utility.yul\":25506:25511   */\n      dup5\n        /* \"#utility.yul\":25502:25523   */\n      and\n        /* \"#utility.yul\":25493:25523   */\n      swap4\n      pop\n        /* \"#utility.yul\":25566:25570   */\n      dup1\n        /* \"#utility.yul\":25556:25564   */\n      dup7\n        /* \"#utility.yul\":25552:25571   */\n      and\n        /* \"#utility.yul\":25545:25550   */\n      dup5\n        /* \"#utility.yul\":25542:25572   */\n      or\n        /* \"#utility.yul\":25532:25572   */\n      swap3\n      pop\n        /* \"#utility.yul\":25261:25578   */\n      pop\n      pop\n        /* \"#utility.yul\":25185:25578   */\n      swap4\n      swap3\n      pop\n      pop\n      pop\n      jump\t// out\n        /* \"#utility.yul\":25584:25644   */\n    tag_312:\n        /* \"#utility.yul\":25612:25615   */\n      0x00\n        /* \"#utility.yul\":25633:25638   */\n      dup2\n        /* \"#utility.yul\":25626:25638   */\n      swap1\n      pop\n        /* \"#utility.yul\":25584:25644   */\n      swap2\n      swap1\n      pop\n      jump\t// out\n        /* \"#utility.yul\":25650:25792   */\n    tag_313:\n        /* \"#utility.yul\":25700:25709   */\n      0x00\n        /* \"#utility.yul\":25733:25786   */\n      tag_564\n        /* \"#utility.yul\":25751:25785   */\n      tag_565\n        /* \"#utility.yul\":25760:25784   */\n      tag_566\n        /* \"#utility.yul\":25778:25783   */\n      dup5\n        /* \"#utility.yul\":25760:25784   */\n      tag_255\n      jump\t// in\n    tag_566:\n        /* \"#utility.yul\":25751:25785   */\n      tag_312\n      jump\t// in\n    tag_565:\n        /* \"#utility.yul\":25733:25786   */\n      tag_255\n      jump\t// in\n    tag_564:\n        /* \"#utility.yul\":25720:25786   */\n      swap1\n      pop\n        /* \"#utility.yul\":25650:25792   */\n      swap2\n      swap1\n      pop\n      jump\t// out\n        /* \"#utility.yul\":25798:25873   */\n    tag_314:\n        /* \"#utility.yul\":25841:25844   */\n      0x00\n        /* \"#utility.yul\":25862:25867   */\n      dup2\n        /* \"#utility.yul\":25855:25867   */\n      swap1\n      pop\n        /* \"#utility.yul\":25798:25873   */\n      swap2\n      swap1\n      pop\n      jump\t// out\n        /* \"#utility.yul\":25879:26148   */\n    tag_315:\n        /* \"#utility.yul\":25989:26028   */\n      tag_569\n        /* \"#utility.yul\":26020:26027   */\n      dup4\n        /* \"#utility.yul\":25989:26028   */\n      tag_313\n      jump\t// in\n    tag_569:\n        /* \"#utility.yul\":26050:26141   */\n      tag_570\n        /* \"#utility.yul\":26099:26140   */\n      tag_571\n        /* \"#utility.yul\":26123:26139   */\n      dup3\n        /* \"#utility.yul\":26099:26140   */\n      tag_314\n      jump\t// in\n    tag_571:\n        /* \"#utility.yul\":26091:26097   */\n      dup5\n        /* \"#utility.yul\":26084:26088   */\n      dup5\n        /* \"#utility.yul\":26078:26089   */\n      sload\n        /* \"#utility.yul\":26050:26141   */\n      tag_311\n      jump\t// in\n    tag_570:\n        /* \"#utility.yul\":26044:26048   */\n      dup3\n        /* \"#utility.yul\":26037:26142   */\n      sstore\n        /* \"#utility.yul\":25955:26148   */\n      pop\n        /* \"#utility.yul\":25879:26148   */\n      pop\n      pop\n      pop\n      jump\t// out\n        /* \"#utility.yul\":26154:26227   */\n    tag_316:\n        /* \"#utility.yul\":26199:26202   */\n      0x00\n        /* \"#utility.yul\":26154:26227   */\n      swap1\n      jump\t// out\n        /* \"#utility.yul\":26233:26422   */\n    tag_317:\n        /* \"#utility.yul\":26310:26342   */\n      tag_574\n      tag_316\n      jump\t// in\n    tag_574:\n        /* \"#utility.yul\":26351:26416   */\n      tag_575\n        /* \"#utility.yul\":26409:26415   */\n      dup2\n        /* \"#utility.yul\":26401:26407   */\n      dup5\n        /* \"#utility.yul\":26395:26399   */\n      dup5\n        /* \"#utility.yul\":26351:26416   */\n      tag_315\n      jump\t// in\n    tag_575:\n        /* \"#utility.yul\":26286:26422   */\n      pop\n        /* \"#utility.yul\":26233:26422   */\n      pop\n      pop\n      jump\t// out\n        /* \"#utility.yul\":26428:26614   */\n    tag_318:\n        /* \"#utility.yul\":26488:26608   */\n    tag_577:\n        /* \"#utility.yul\":26505:26508   */\n      dup2\n        /* \"#utility.yul\":26498:26503   */\n      dup2\n        /* \"#utility.yul\":26495:26509   */\n      lt\n        /* \"#utility.yul\":26488:26608   */\n      iszero\n      tag_579\n      jumpi\n        /* \"#utility.yul\":26559:26598   */\n      tag_580\n        /* \"#utility.yul\":26596:26597   */\n      0x00\n        /* \"#utility.yul\":26589:26594   */\n      dup3\n        /* \"#utility.yul\":26559:26598   */\n      tag_317\n      jump\t// in\n    tag_580:\n        /* \"#utility.yul\":26532:26533   */\n      0x01\n        /* \"#utility.yul\":26525:26530   */\n      dup2\n        /* \"#utility.yul\":26521:26534   */\n      add\n        /* \"#utility.yul\":26512:26534   */\n      swap1\n      pop\n        /* \"#utility.yul\":26488:26608   */\n      jump(tag_577)\n    tag_579:\n        /* \"#utility.yul\":26428:26614   */\n      pop\n      pop\n      jump\t// out\n        /* \"#utility.yul\":26620:27163   */\n    tag_319:\n        /* \"#utility.yul\":26721:26723   */\n      0x1f\n        /* \"#utility.yul\":26716:26719   */\n      dup3\n        /* \"#utility.yul\":26713:26724   */\n      gt\n        /* \"#utility.yul\":26710:27156   */\n      iszero\n      tag_582\n      jumpi\n        /* \"#utility.yul\":26755:26793   */\n      tag_583\n        /* \"#utility.yul\":26787:26792   */\n      dup2\n        /* \"#utility.yul\":26755:26793   */\n      tag_308\n      jump\t// in\n    tag_583:\n        /* \"#utility.yul\":26839:26868   */\n      tag_584\n        /* \"#utility.yul\":26857:26867   */\n      dup5\n        /* \"#utility.yul\":26839:26868   */\n      tag_309\n      jump\t// in\n    tag_584:\n        /* \"#utility.yul\":26829:26837   */\n      dup2\n        /* \"#utility.yul\":26825:26869   */\n      add\n        /* \"#utility.yul\":27022:27024   */\n      0x20\n        /* \"#utility.yul\":27010:27020   */\n      dup6\n        /* \"#utility.yul\":27007:27025   */\n      lt\n        /* \"#utility.yul\":27004:27053   */\n      iszero\n      tag_585\n      jumpi\n        /* \"#utility.yul\":27043:27051   */\n      dup2\n        /* \"#utility.yul\":27028:27051   */\n      swap1\n      pop\n        /* \"#utility.yul\":27004:27053   */\n    tag_585:\n        /* \"#utility.yul\":27066:27146   */\n      tag_586\n        /* \"#utility.yul\":27122:27144   */\n      tag_587\n        /* \"#utility.yul\":27140:27143   */\n      dup6\n        /* \"#utility.yul\":27122:27144   */\n      tag_309\n      jump\t// in\n    tag_587:\n        /* \"#utility.yul\":27112:27120   */\n      dup4\n        /* \"#utility.yul\":27108:27145   */\n      add\n        /* \"#utility.yul\":27095:27106   */\n      dup3\n        /* \"#utility.yul\":27066:27146   */\n      tag_318\n      jump\t// in\n    tag_586:\n        /* \"#utility.yul\":26725:27156   */\n      pop\n      pop\n        /* \"#utility.yul\":26710:27156   */\n    tag_582:\n        /* \"#utility.yul\":26620:27163   */\n      pop\n      pop\n      pop\n      jump\t// out\n        /* \"#utility.yul\":27169:27286   */\n    tag_320:\n        /* \"#utility.yul\":27223:27231   */\n      0x00\n        /* \"#utility.yul\":27273:27278   */\n      dup3\n        /* \"#utility.yul\":27267:27271   */\n      dup3\n        /* \"#utility.yul\":27263:27279   */\n      shr\n        /* \"#utility.yul\":27242:27279   */\n      swap1\n      pop\n        /* \"#utility.yul\":27169:27286   */\n      swap3\n      swap2\n      pop\n      pop\n      jump\t// out\n        /* \"#utility.yul\":27292:27461   */\n    tag_321:\n        /* \"#utility.yul\":27336:27342   */\n      0x00\n        /* \"#utility.yul\":27369:27420   */\n      tag_590\n        /* \"#utility.yul\":27417:27418   */\n      0x00\n        /* \"#utility.yul\":27413:27419   */\n      not\n        /* \"#utility.yul\":27405:27410   */\n      dup5\n        /* \"#utility.yul\":27402:27403   */\n      0x08\n        /* \"#utility.yul\":27398:27411   */\n      mul\n        /* \"#utility.yul\":27369:27420   */\n      tag_320\n      jump\t// in\n    tag_590:\n        /* \"#utility.yul\":27365:27421   */\n      not\n        /* \"#utility.yul\":27450:27454   */\n      dup1\n        /* \"#utility.yul\":27444:27448   */\n      dup4\n        /* \"#utility.yul\":27440:27455   */\n      and\n        /* \"#utility.yul\":27430:27455   */\n      swap2\n      pop\n        /* \"#utility.yul\":27343:27461   */\n      pop\n        /* \"#utility.yul\":27292:27461   */\n      swap3\n      swap2\n      pop\n      pop\n      jump\t// out\n        /* \"#utility.yul\":27466:27761   */\n    tag_322:\n        /* \"#utility.yul\":27542:27546   */\n      0x00\n        /* \"#utility.yul\":27688:27717   */\n      tag_592\n        /* \"#utility.yul\":27713:27716   */\n      dup4\n        /* \"#utility.yul\":27707:27711   */\n      dup4\n        /* \"#utility.yul\":27688:27717   */\n      tag_321\n      jump\t// in\n    tag_592:\n        /* \"#utility.yul\":27680:27717   */\n      swap2\n      pop\n        /* \"#utility.yul\":27750:27753   */\n      dup3\n        /* \"#utility.yul\":27747:27748   */\n      0x02\n        /* \"#utility.yul\":27743:27754   */\n      mul\n        /* \"#utility.yul\":27737:27741   */\n      dup3\n        /* \"#utility.yul\":27734:27755   */\n      or\n        /* \"#utility.yul\":27726:27755   */\n      swap1\n      pop\n        /* \"#utility.yul\":27466:27761   */\n      swap3\n      swap2\n      pop\n      pop\n      jump\t// out\n        /* \"#utility.yul\":27766:29161   */\n    tag_151:\n        /* \"#utility.yul\":27883:27920   */\n      tag_594\n        /* \"#utility.yul\":27916:27919   */\n      dup3\n        /* \"#utility.yul\":27883:27920   */\n      tag_267\n      jump\t// in\n    tag_594:\n        /* \"#utility.yul\":27985:28003   */\n      0xffffffffffffffff\n        /* \"#utility.yul\":27977:27983   */\n      dup2\n        /* \"#utility.yul\":27974:28004   */\n      gt\n        /* \"#utility.yul\":27971:28027   */\n      iszero\n      tag_595\n      jumpi\n        /* \"#utility.yul\":28007:28025   */\n      tag_596\n      tag_278\n      jump\t// in\n    tag_596:\n        /* \"#utility.yul\":27971:28027   */\n    tag_595:\n        /* \"#utility.yul\":28051:28089   */\n      tag_597\n        /* \"#utility.yul\":28083:28087   */\n      dup3\n        /* \"#utility.yul\":28077:28088   */\n      sload\n        /* \"#utility.yul\":28051:28089   */\n      tag_101\n      jump\t// in\n    tag_597:\n        /* \"#utility.yul\":28136:28203   */\n      tag_598\n        /* \"#utility.yul\":28196:28202   */\n      dup3\n        /* \"#utility.yul\":28188:28194   */\n      dup3\n        /* \"#utility.yul\":28182:28186   */\n      dup6\n        /* \"#utility.yul\":28136:28203   */\n      tag_319\n      jump\t// in\n    tag_598:\n        /* \"#utility.yul\":28230:28231   */\n      0x00\n        /* \"#utility.yul\":28254:28258   */\n      0x20\n        /* \"#utility.yul\":28241:28258   */\n      swap1\n      pop\n        /* \"#utility.yul\":28286:28288   */\n      0x1f\n        /* \"#utility.yul\":28278:28284   */\n      dup4\n        /* \"#utility.yul\":28275:28289   */\n      gt\n        /* \"#utility.yul\":28303:28304   */\n      0x01\n        /* \"#utility.yul\":28298:28916   */\n      dup2\n      eq\n      tag_600\n      jumpi\n        /* \"#utility.yul\":28960:28961   */\n      0x00\n        /* \"#utility.yul\":28977:28983   */\n      dup5\n        /* \"#utility.yul\":28974:29051   */\n      iszero\n      tag_601\n      jumpi\n        /* \"#utility.yul\":29026:29035   */\n      dup3\n        /* \"#utility.yul\":29021:29024   */\n      dup8\n        /* \"#utility.yul\":29017:29036   */\n      add\n        /* \"#utility.yul\":29011:29037   */\n      mload\n        /* \"#utility.yul\":29002:29037   */\n      swap1\n      pop\n        /* \"#utility.yul\":28974:29051   */\n    tag_601:\n        /* \"#utility.yul\":29077:29144   */\n      tag_602\n        /* \"#utility.yul\":29137:29143   */\n      dup6\n        /* \"#utility.yul\":29130:29135   */\n      dup3\n        /* \"#utility.yul\":29077:29144   */\n      tag_322\n      jump\t// in\n    tag_602:\n        /* \"#utility.yul\":29071:29075   */\n      dup7\n        /* \"#utility.yul\":29064:29145   */\n      sstore\n        /* \"#utility.yul\":28933:29155   */\n      pop\n        /* \"#utility.yul\":28268:29155   */\n      jump(tag_599)\n        /* \"#utility.yul\":28298:28916   */\n    tag_600:\n        /* \"#utility.yul\":28350:28354   */\n      0x1f\n        /* \"#utility.yul\":28346:28355   */\n      not\n        /* \"#utility.yul\":28338:28344   */\n      dup5\n        /* \"#utility.yul\":28334:28356   */\n      and\n        /* \"#utility.yul\":28384:28421   */\n      tag_603\n        /* \"#utility.yul\":28416:28420   */\n      dup7\n        /* \"#utility.yul\":28384:28421   */\n      tag_308\n      jump\t// in\n    tag_603:\n        /* \"#utility.yul\":28443:28444   */\n      0x00\n        /* \"#utility.yul\":28457:28665   */\n    tag_604:\n        /* \"#utility.yul\":28471:28478   */\n      dup3\n        /* \"#utility.yul\":28468:28469   */\n      dup2\n        /* \"#utility.yul\":28465:28479   */\n      lt\n        /* \"#utility.yul\":28457:28665   */\n      iszero\n      tag_606\n      jumpi\n        /* \"#utility.yul\":28550:28559   */\n      dup5\n        /* \"#utility.yul\":28545:28548   */\n      dup10\n        /* \"#utility.yul\":28541:28560   */\n      add\n        /* \"#utility.yul\":28535:28561   */\n      mload\n        /* \"#utility.yul\":28527:28533   */\n      dup3\n        /* \"#utility.yul\":28520:28562   */\n      sstore\n        /* \"#utility.yul\":28601:28602   */\n      0x01\n        /* \"#utility.yul\":28593:28599   */\n      dup3\n        /* \"#utility.yul\":28589:28603   */\n      add\n        /* \"#utility.yul\":28579:28603   */\n      swap2\n      pop\n        /* \"#utility.yul\":28648:28650   */\n      0x20\n        /* \"#utility.yul\":28637:28646   */\n      dup6\n        /* \"#utility.yul\":28633:28651   */\n      add\n        /* \"#utility.yul\":28620:28651   */\n      swap5\n      pop\n        /* \"#utility.yul\":28494:28498   */\n      0x20\n        /* \"#utility.yul\":28491:28492   */\n      dup2\n        /* \"#utility.yul\":28487:28499   */\n      add\n        /* \"#utility.yul\":28482:28499   */\n      swap1\n      pop\n        /* \"#utility.yul\":28457:28665   */\n      jump(tag_604)\n    tag_606:\n        /* \"#utility.yul\":28693:28699   */\n      dup7\n        /* \"#utility.yul\":28684:28691   */\n      dup4\n        /* \"#utility.yul\":28681:28700   */\n      lt\n        /* \"#utility.yul\":28678:28857   */\n      iszero\n      tag_607\n      jumpi\n        /* \"#utility.yul\":28751:28760   */\n      dup5\n        /* \"#utility.yul\":28746:28749   */\n      dup10\n        /* \"#utility.yul\":28742:28761   */\n      add\n        /* \"#utility.yul\":28736:28762   */\n      mload\n        /* \"#utility.yul\":28794:28842   */\n      tag_608\n        /* \"#utility.yul\":28836:28840   */\n      0x1f\n        /* \"#utility.yul\":28828:28834   */\n      dup10\n        /* \"#utility.yul\":28824:28841   */\n      and\n        /* \"#utility.yul\":28813:28822   */\n      dup3\n        /* \"#utility.yul\":28794:28842   */\n      tag_321\n      jump\t// in\n    tag_608:\n        /* \"#utility.yul\":28786:28792   */\n      dup4\n        /* \"#utility.yul\":28779:28843   */\n      sstore\n        /* \"#utility.yul\":28701:28857   */\n      pop\n        /* \"#utility.yul\":28678:28857   */\n    tag_607:\n        /* \"#utility.yul\":28903:28904   */\n      0x01\n        /* \"#utility.yul\":28899:28900   */\n      0x02\n        /* \"#utility.yul\":28891:28897   */\n      dup9\n        /* \"#utility.yul\":28887:28901   */\n      mul\n        /* \"#utility.yul\":28883:28905   */\n      add\n        /* \"#utility.yul\":28877:28881   */\n      dup9\n        /* \"#utility.yul\":28870:28906   */\n      sstore\n        /* \"#utility.yul\":28305:28916   */\n      pop\n      pop\n      pop\n        /* \"#utility.yul\":28268:29155   */\n    tag_599:\n      pop\n        /* \"#utility.yul\":27858:29161   */\n      pop\n      pop\n      pop\n        /* \"#utility.yul\":27766:29161   */\n      pop\n      pop\n      jump\t// out\n        /* \"#utility.yul\":29167:29597   */\n    tag_156:\n        /* \"#utility.yul\":29310:29314   */\n      0x00\n        /* \"#utility.yul\":29348:29350   */\n      0x60\n        /* \"#utility.yul\":29337:29346   */\n      dup3\n        /* \"#utility.yul\":29333:29351   */\n      add\n        /* \"#utility.yul\":29325:29351   */\n      swap1\n      pop\n        /* \"#utility.yul\":29361:29426   */\n      tag_610\n        /* \"#utility.yul\":29423:29424   */\n      0x00\n        /* \"#utility.yul\":29412:29421   */\n      dup4\n        /* \"#utility.yul\":29408:29425   */\n      add\n        /* \"#utility.yul\":29399:29405   */\n      dup7\n        /* \"#utility.yul\":29361:29426   */\n      tag_273\n      jump\t// in\n    tag_610:\n        /* \"#utility.yul\":29436:29508   */\n      tag_611\n        /* \"#utility.yul\":29504:29506   */\n      0x20\n        /* \"#utility.yul\":29493:29502   */\n      dup4\n        /* \"#utility.yul\":29489:29507   */\n      add\n        /* \"#utility.yul\":29480:29486   */\n      dup6\n        /* \"#utility.yul\":29436:29508   */\n      tag_256\n      jump\t// in\n    tag_611:\n        /* \"#utility.yul\":29518:29590   */\n      tag_612\n        /* \"#utility.yul\":29586:29588   */\n      0x40\n        /* \"#utility.yul\":29575:29584   */\n      dup4\n        /* \"#utility.yul\":29571:29589   */\n      add\n        /* \"#utility.yul\":29562:29568   */\n      dup5\n        /* \"#utility.yul\":29518:29590   */\n      tag_256\n      jump\t// in\n    tag_612:\n        /* \"#utility.yul\":29167:29597   */\n      swap5\n      swap4\n      pop\n      pop\n      pop\n      pop\n      jump\t// out\n        /* \"#utility.yul\":29603:29935   */\n    tag_159:\n        /* \"#utility.yul\":29724:29728   */\n      0x00\n        /* \"#utility.yul\":29762:29764   */\n      0x40\n        /* \"#utility.yul\":29751:29760   */\n      dup3\n        /* \"#utility.yul\":29747:29765   */\n      add\n        /* \"#utility.yul\":29739:29765   */\n      swap1\n      pop\n        /* \"#utility.yul\":29775:29846   */\n      tag_614\n        /* \"#utility.yul\":29843:29844   */\n      0x00\n        /* \"#utility.yul\":29832:29841   */\n      dup4\n        /* \"#utility.yul\":29828:29845   */\n      add\n        /* \"#utility.yul\":29819:29825   */\n      dup6\n        /* \"#utility.yul\":29775:29846   */\n      tag_256\n      jump\t// in\n    tag_614:\n        /* \"#utility.yul\":29856:29928   */\n      tag_615\n        /* \"#utility.yul\":29924:29926   */\n      0x20\n        /* \"#utility.yul\":29913:29922   */\n      dup4\n        /* \"#utility.yul\":29909:29927   */\n      add\n        /* \"#utility.yul\":29900:29906   */\n      dup5\n        /* \"#utility.yul\":29856:29928   */\n      tag_256\n      jump\t// in\n    tag_615:\n        /* \"#utility.yul\":29603:29935   */\n      swap4\n      swap3\n      pop\n      pop\n      pop\n      jump\t// out\n        /* \"#utility.yul\":29941:30351   */\n    tag_163:\n        /* \"#utility.yul\":29981:29988   */\n      0x00\n        /* \"#utility.yul\":30004:30024   */\n      tag_617\n        /* \"#utility.yul\":30022:30023   */\n      dup3\n        /* \"#utility.yul\":30004:30024   */\n      tag_255\n      jump\t// in\n    tag_617:\n        /* \"#utility.yul\":29999:30024   */\n      swap2\n      pop\n        /* \"#utility.yul\":30038:30058   */\n      tag_618\n        /* \"#utility.yul\":30056:30057   */\n      dup4\n        /* \"#utility.yul\":30038:30058   */\n      tag_255\n      jump\t// in\n    tag_618:\n        /* \"#utility.yul\":30033:30058   */\n      swap3\n      pop\n        /* \"#utility.yul\":30093:30094   */\n      dup3\n        /* \"#utility.yul\":30090:30091   */\n      dup3\n        /* \"#utility.yul\":30086:30095   */\n      mul\n        /* \"#utility.yul\":30115:30145   */\n      tag_619\n        /* \"#utility.yul\":30133:30144   */\n      dup2\n        /* \"#utility.yul\":30115:30145   */\n      tag_255\n      jump\t// in\n    tag_619:\n        /* \"#utility.yul\":30104:30145   */\n      swap2\n      pop\n        /* \"#utility.yul\":30294:30295   */\n      dup3\n        /* \"#utility.yul\":30285:30292   */\n      dup3\n        /* \"#utility.yul\":30281:30296   */\n      div\n        /* \"#utility.yul\":30278:30279   */\n      dup5\n        /* \"#utility.yul\":30275:30297   */\n      eq\n        /* \"#utility.yul\":30255:30256   */\n      dup4\n        /* \"#utility.yul\":30248:30257   */\n      iszero\n        /* \"#utility.yul\":30228:30311   */\n      or\n        /* \"#utility.yul\":30205:30344   */\n      tag_620\n      jumpi\n        /* \"#utility.yul\":30324:30342   */\n      tag_621\n      tag_307\n      jump\t// in\n    tag_621:\n        /* \"#utility.yul\":30205:30344   */\n    tag_620:\n        /* \"#utility.yul\":29989:30351   */\n      pop\n        /* \"#utility.yul\":29941:30351   */\n      swap3\n      swap2\n      pop\n      pop\n      jump\t// out\n        /* \"#utility.yul\":30357:30537   */\n    tag_323:\n        /* \"#utility.yul\":30405:30482   */\n      0x4e487b7100000000000000000000000000000000000000000000000000000000\n        /* \"#utility.yul\":30402:30403   */\n      0x00\n        /* \"#utility.yul\":30395:30483   */\n      mstore\n        /* \"#utility.yul\":30502:30506   */\n      0x12\n        /* \"#utility.yul\":30499:30500   */\n      0x04\n        /* \"#utility.yul\":30492:30507   */\n      mstore\n        /* \"#utility.yul\":30526:30530   */\n      0x24\n        /* \"#utility.yul\":30523:30524   */\n      0x00\n        /* \"#utility.yul\":30516:30531   */\n      revert\n        /* \"#utility.yul\":30543:30728   */\n    tag_165:\n        /* \"#utility.yul\":30583:30584   */\n      0x00\n        /* \"#utility.yul\":30600:30620   */\n      tag_624\n        /* \"#utility.yul\":30618:30619   */\n      dup3\n        /* \"#utility.yul\":30600:30620   */\n      tag_255\n      jump\t// in\n    tag_624:\n        /* \"#utility.yul\":30595:30620   */\n      swap2\n      pop\n        /* \"#utility.yul\":30634:30654   */\n      tag_625\n        /* \"#utility.yul\":30652:30653   */\n      dup4\n        /* \"#utility.yul\":30634:30654   */\n      tag_255\n      jump\t// in\n    tag_625:\n        /* \"#utility.yul\":30629:30654   */\n      swap3\n      pop\n        /* \"#utility.yul\":30673:30674   */\n      dup3\n        /* \"#utility.yul\":30663:30698   */\n      tag_626\n      jumpi\n        /* \"#utility.yul\":30678:30696   */\n      tag_627\n      tag_323\n      jump\t// in\n    tag_627:\n        /* \"#utility.yul\":30663:30698   */\n    tag_626:\n        /* \"#utility.yul\":30720:30721   */\n      dup3\n        /* \"#utility.yul\":30717:30718   */\n      dup3\n        /* \"#utility.yul\":30713:30722   */\n      div\n        /* \"#utility.yul\":30708:30722   */\n      swap1\n      pop\n        /* \"#utility.yul\":30543:30728   */\n      swap3\n      swap2\n      pop\n      pop\n      jump\t// out\n        /* \"#utility.yul\":30734:30908   */\n    tag_324:\n        /* \"#utility.yul\":30874:30900   */\n      0x426174746c6520494420646f6573206e6f742065786973740000000000000000\n        /* \"#utility.yul\":30870:30871   */\n      0x00\n        /* \"#utility.yul\":30862:30868   */\n      dup3\n        /* \"#utility.yul\":30858:30872   */\n      add\n        /* \"#utility.yul\":30851:30901   */\n      mstore\n        /* \"#utility.yul\":30734:30908   */\n      pop\n      jump\t// out\n        /* \"#utility.yul\":30914:31280   */\n    tag_325:\n        /* \"#utility.yul\":31056:31059   */\n      0x00\n        /* \"#utility.yul\":31077:31144   */\n      tag_630\n        /* \"#utility.yul\":31141:31143   */\n      0x18\n        /* \"#utility.yul\":31136:31139   */\n      dup4\n        /* \"#utility.yul\":31077:31144   */\n      tag_268\n      jump\t// in\n    tag_630:\n        /* \"#utility.yul\":31070:31144   */\n      swap2\n      pop\n        /* \"#utility.yul\":31153:31246   */\n      tag_631\n        /* \"#utility.yul\":31242:31245   */\n      dup3\n        /* \"#utility.yul\":31153:31246   */\n      tag_324\n      jump\t// in\n    tag_631:\n        /* \"#utility.yul\":31271:31273   */\n      0x20\n        /* \"#utility.yul\":31266:31269   */\n      dup3\n        /* \"#utility.yul\":31262:31274   */\n      add\n        /* \"#utility.yul\":31255:31274   */\n      swap1\n      pop\n        /* \"#utility.yul\":30914:31280   */\n      swap2\n      swap1\n      pop\n      jump\t// out\n        /* \"#utility.yul\":31286:31705   */\n    tag_171:\n        /* \"#utility.yul\":31452:31456   */\n      0x00\n        /* \"#utility.yul\":31490:31492   */\n      0x20\n        /* \"#utility.yul\":31479:31488   */\n      dup3\n        /* \"#utility.yul\":31475:31493   */\n      add\n        /* \"#utility.yul\":31467:31493   */\n      swap1\n      pop\n        /* \"#utility.yul\":31539:31548   */\n      dup2\n        /* \"#utility.yul\":31533:31537   */\n      dup2\n        /* \"#utility.yul\":31529:31549   */\n      sub\n        /* \"#utility.yul\":31525:31526   */\n      0x00\n        /* \"#utility.yul\":31514:31523   */\n      dup4\n        /* \"#utility.yul\":31510:31527   */\n      add\n        /* \"#utility.yul\":31503:31550   */\n      mstore\n        /* \"#utility.yul\":31567:31698   */\n      tag_633\n        /* \"#utility.yul\":31693:31697   */\n      dup2\n        /* \"#utility.yul\":31567:31698   */\n      tag_325\n      jump\t// in\n    tag_633:\n        /* \"#utility.yul\":31559:31698   */\n      swap1\n      pop\n        /* \"#utility.yul\":31286:31705   */\n      swap2\n      swap1\n      pop\n      jump\t// out\n        /* \"#utility.yul\":31711:31885   */\n    tag_326:\n        /* \"#utility.yul\":31851:31877   */\n      0x4f6e6c79206f776e65722063616e2063616c6c20746869730000000000000000\n        /* \"#utility.yul\":31847:31848   */\n      0x00\n        /* \"#utility.yul\":31839:31845   */\n      dup3\n        /* \"#utility.yul\":31835:31849   */\n      add\n        /* \"#utility.yul\":31828:31878   */\n      mstore\n        /* \"#utility.yul\":31711:31885   */\n      pop\n      jump\t// out\n        /* \"#utility.yul\":31891:32257   */\n    tag_327:\n        /* \"#utility.yul\":32033:32036   */\n      0x00\n        /* \"#utility.yul\":32054:32121   */\n      tag_636\n        /* \"#utility.yul\":32118:32120   */\n      0x18\n        /* \"#utility.yul\":32113:32116   */\n      dup4\n        /* \"#utility.yul\":32054:32121   */\n      tag_268\n      jump\t// in\n    tag_636:\n        /* \"#utility.yul\":32047:32121   */\n      swap2\n      pop\n        /* \"#utility.yul\":32130:32223   */\n      tag_637\n        /* \"#utility.yul\":32219:32222   */\n      dup3\n        /* \"#utility.yul\":32130:32223   */\n      tag_326\n      jump\t// in\n    tag_637:\n        /* \"#utility.yul\":32248:32250   */\n      0x20\n        /* \"#utility.yul\":32243:32246   */\n      dup3\n        /* \"#utility.yul\":32239:32251   */\n      add\n        /* \"#utility.yul\":32232:32251   */\n      swap1\n      pop\n        /* \"#utility.yul\":31891:32257   */\n      swap2\n      swap1\n      pop\n      jump\t// out\n        /* \"#utility.yul\":32263:32682   */\n    tag_198:\n        /* \"#utility.yul\":32429:32433   */\n      0x00\n        /* \"#utility.yul\":32467:32469   */\n      0x20\n        /* \"#utility.yul\":32456:32465   */\n      dup3\n        /* \"#utility.yul\":32452:32470   */\n      add\n        /* \"#utility.yul\":32444:32470   */\n      swap1\n      pop\n        /* \"#utility.yul\":32516:32525   */\n      dup2\n        /* \"#utility.yul\":32510:32514   */\n      dup2\n        /* \"#utility.yul\":32506:32526   */\n      sub\n        /* \"#utility.yul\":32502:32503   */\n      0x00\n        /* \"#utility.yul\":32491:32500   */\n      dup4\n        /* \"#utility.yul\":32487:32504   */\n      add\n        /* \"#utility.yul\":32480:32527   */\n      mstore\n        /* \"#utility.yul\":32544:32675   */\n      tag_639\n        /* \"#utility.yul\":32670:32674   */\n      dup2\n        /* \"#utility.yul\":32544:32675   */\n      tag_327\n      jump\t// in\n    tag_639:\n        /* \"#utility.yul\":32536:32675   */\n      swap1\n      pop\n        /* \"#utility.yul\":32263:32682   */\n      swap2\n      swap1\n      pop\n      jump\t// out\n        /* \"#utility.yul\":32688:32858   */\n    tag_328:\n        /* \"#utility.yul\":32828:32850   */\n      0x4e6f2066756e647320746f207769746864726177000000000000000000000000\n        /* \"#utility.yul\":32824:32825   */\n      0x00\n        /* \"#utility.yul\":32816:32822   */\n      dup3\n        /* \"#utility.yul\":32812:32826   */\n      add\n        /* \"#utility.yul\":32805:32851   */\n      mstore\n        /* \"#utility.yul\":32688:32858   */\n      pop\n      jump\t// out\n        /* \"#utility.yul\":32864:33230   */\n    tag_329:\n        /* \"#utility.yul\":33006:33009   */\n      0x00\n        /* \"#utility.yul\":33027:33094   */\n      tag_642\n        /* \"#utility.yul\":33091:33093   */\n      0x14\n        /* \"#utility.yul\":33086:33089   */\n      dup4\n        /* \"#utility.yul\":33027:33094   */\n      tag_268\n      jump\t// in\n    tag_642:\n        /* \"#utility.yul\":33020:33094   */\n      swap2\n      pop\n        /* \"#utility.yul\":33103:33196   */\n      tag_643\n        /* \"#utility.yul\":33192:33195   */\n      dup3\n        /* \"#utility.yul\":33103:33196   */\n      tag_328\n      jump\t// in\n    tag_643:\n        /* \"#utility.yul\":33221:33223   */\n      0x20\n        /* \"#utility.yul\":33216:33219   */\n      dup3\n        /* \"#utility.yul\":33212:33224   */\n      add\n        /* \"#utility.yul\":33205:33224   */\n      swap1\n      pop\n        /* \"#utility.yul\":32864:33230   */\n      swap2\n      swap1\n      pop\n      jump\t// out\n        /* \"#utility.yul\":33236:33655   */\n    tag_202:\n        /* \"#utility.yul\":33402:33406   */\n      0x00\n        /* \"#utility.yul\":33440:33442   */\n      0x20\n        /* \"#utility.yul\":33429:33438   */\n      dup3\n        /* \"#utility.yul\":33425:33443   */\n      add\n        /* \"#utility.yul\":33417:33443   */\n      swap1\n      pop\n        /* \"#utility.yul\":33489:33498   */\n      dup2\n        /* \"#utility.yul\":33483:33487   */\n      dup2\n        /* \"#utility.yul\":33479:33499   */\n      sub\n        /* \"#utility.yul\":33475:33476   */\n      0x00\n        /* \"#utility.yul\":33464:33473   */\n      dup4\n        /* \"#utility.yul\":33460:33477   */\n      add\n        /* \"#utility.yul\":33453:33500   */\n      mstore\n        /* \"#utility.yul\":33517:33648   */\n      tag_645\n        /* \"#utility.yul\":33643:33647   */\n      dup2\n        /* \"#utility.yul\":33517:33648   */\n      tag_329\n      jump\t// in\n    tag_645:\n        /* \"#utility.yul\":33509:33648   */\n      swap1\n      pop\n        /* \"#utility.yul\":33236:33655   */\n      swap2\n      swap1\n      pop\n      jump\t// out\n        /* \"#utility.yul\":33661:33808   */\n    tag_330:\n        /* \"#utility.yul\":33762:33773   */\n      0x00\n        /* \"#utility.yul\":33799:33802   */\n      dup2\n        /* \"#utility.yul\":33784:33802   */\n      swap1\n      pop\n        /* \"#utility.yul\":33661:33808   */\n      swap3\n      swap2\n      pop\n      pop\n      jump\t// out\n        /* \"#utility.yul\":33814:33928   */\n    tag_331:\n      pop\n      jump\t// out\n        /* \"#utility.yul\":33934:34332   */\n    tag_332:\n        /* \"#utility.yul\":34093:34096   */\n      0x00\n        /* \"#utility.yul\":34114:34197   */\n      tag_649\n        /* \"#utility.yul\":34195:34196   */\n      0x00\n        /* \"#utility.yul\":34190:34193   */\n      dup4\n        /* \"#utility.yul\":34114:34197   */\n      tag_330\n      jump\t// in\n    tag_649:\n        /* \"#utility.yul\":34107:34197   */\n      swap2\n      pop\n        /* \"#utility.yul\":34206:34299   */\n      tag_650\n        /* \"#utility.yul\":34295:34298   */\n      dup3\n        /* \"#utility.yul\":34206:34299   */\n      tag_331\n      jump\t// in\n    tag_650:\n        /* \"#utility.yul\":34324:34325   */\n      0x00\n        /* \"#utility.yul\":34319:34322   */\n      dup3\n        /* \"#utility.yul\":34315:34326   */\n      add\n        /* \"#utility.yul\":34308:34326   */\n      swap1\n      pop\n        /* \"#utility.yul\":33934:34332   */\n      swap2\n      swap1\n      pop\n      jump\t// out\n        /* \"#utility.yul\":34338:34717   */\n    tag_204:\n        /* \"#utility.yul\":34522:34525   */\n      0x00\n        /* \"#utility.yul\":34544:34691   */\n      tag_652\n        /* \"#utility.yul\":34687:34690   */\n      dup3\n        /* \"#utility.yul\":34544:34691   */\n      tag_332\n      jump\t// in\n    tag_652:\n        /* \"#utility.yul\":34537:34691   */\n      swap2\n      pop\n        /* \"#utility.yul\":34708:34711   */\n      dup2\n        /* \"#utility.yul\":34701:34711   */\n      swap1\n      pop\n        /* \"#utility.yul\":34338:34717   */\n      swap2\n      swap1\n      pop\n      jump\t// out\n        /* \"#utility.yul\":34723:34890   */\n    tag_333:\n        /* \"#utility.yul\":34863:34882   */\n      0x5769746864726177616c206661696c6564000000000000000000000000000000\n        /* \"#utility.yul\":34859:34860   */\n      0x00\n        /* \"#utility.yul\":34851:34857   */\n      dup3\n        /* \"#utility.yul\":34847:34861   */\n      add\n        /* \"#utility.yul\":34840:34883   */\n      mstore\n        /* \"#utility.yul\":34723:34890   */\n      pop\n      jump\t// out\n        /* \"#utility.yul\":34896:35262   */\n    tag_334:\n        /* \"#utility.yul\":35038:35041   */\n      0x00\n        /* \"#utility.yul\":35059:35126   */\n      tag_655\n        /* \"#utility.yul\":35123:35125   */\n      0x11\n        /* \"#utility.yul\":35118:35121   */\n      dup4\n        /* \"#utility.yul\":35059:35126   */\n      tag_268\n      jump\t// in\n    tag_655:\n        /* \"#utility.yul\":35052:35126   */\n      swap2\n      pop\n        /* \"#utility.yul\":35135:35228   */\n      tag_656\n        /* \"#utility.yul\":35224:35227   */\n      dup3\n        /* \"#utility.yul\":35135:35228   */\n      tag_333\n      jump\t// in\n    tag_656:\n        /* \"#utility.yul\":35253:35255   */\n      0x20\n        /* \"#utility.yul\":35248:35251   */\n      dup3\n        /* \"#utility.yul\":35244:35256   */\n      add\n        /* \"#utility.yul\":35237:35256   */\n      swap1\n      pop\n        /* \"#utility.yul\":34896:35262   */\n      swap2\n      swap1\n      pop\n      jump\t// out\n        /* \"#utility.yul\":35268:35687   */\n    tag_210:\n        /* \"#utility.yul\":35434:35438   */\n      0x00\n        /* \"#utility.yul\":35472:35474   */\n      0x20\n        /* \"#utility.yul\":35461:35470   */\n      dup3\n        /* \"#utility.yul\":35457:35475   */\n      add\n        /* \"#utility.yul\":35449:35475   */\n      swap1\n      pop\n        /* \"#utility.yul\":35521:35530   */\n      dup2\n        /* \"#utility.yul\":35515:35519   */\n      dup2\n        /* \"#utility.yul\":35511:35531   */\n      sub\n        /* \"#utility.yul\":35507:35508   */\n      0x00\n        /* \"#utility.yul\":35496:35505   */\n      dup4\n        /* \"#utility.yul\":35492:35509   */\n      add\n        /* \"#utility.yul\":35485:35532   */\n      mstore\n        /* \"#utility.yul\":35549:35680   */\n      tag_658\n        /* \"#utility.yul\":35675:35679   */\n      dup2\n        /* \"#utility.yul\":35549:35680   */\n      tag_334\n      jump\t// in\n    tag_658:\n        /* \"#utility.yul\":35541:35680   */\n      swap1\n      pop\n        /* \"#utility.yul\":35268:35687   */\n      swap2\n      swap1\n      pop\n      jump\t// out\n        /* \"#utility.yul\":35693:35921   */\n    tag_335:\n        /* \"#utility.yul\":35833:35867   */\n      0x506c6179657220646964206e6f7420706172746963697061746520696e207468\n        /* \"#utility.yul\":35829:35830   */\n      0x00\n        /* \"#utility.yul\":35821:35827   */\n      dup3\n        /* \"#utility.yul\":35817:35831   */\n      add\n        /* \"#utility.yul\":35810:35868   */\n      mstore\n        /* \"#utility.yul\":35902:35913   */\n      0x697320626174746c650000000000000000000000000000000000000000000000\n        /* \"#utility.yul\":35897:35899   */\n      0x20\n        /* \"#utility.yul\":35889:35895   */\n      dup3\n        /* \"#utility.yul\":35885:35900   */\n      add\n        /* \"#utility.yul\":35878:35914   */\n      mstore\n        /* \"#utility.yul\":35693:35921   */\n      pop\n      jump\t// out\n        /* \"#utility.yul\":35927:36293   */\n    tag_336:\n        /* \"#utility.yul\":36069:36072   */\n      0x00\n        /* \"#utility.yul\":36090:36157   */\n      tag_661\n        /* \"#utility.yul\":36154:36156   */\n      0x29\n        /* \"#utility.yul\":36149:36152   */\n      dup4\n        /* \"#utility.yul\":36090:36157   */\n      tag_268\n      jump\t// in\n    tag_661:\n        /* \"#utility.yul\":36083:36157   */\n      swap2\n      pop\n        /* \"#utility.yul\":36166:36259   */\n      tag_662\n        /* \"#utility.yul\":36255:36258   */\n      dup3\n        /* \"#utility.yul\":36166:36259   */\n      tag_335\n      jump\t// in\n    tag_662:\n        /* \"#utility.yul\":36284:36286   */\n      0x40\n        /* \"#utility.yul\":36279:36282   */\n      dup3\n        /* \"#utility.yul\":36275:36287   */\n      add\n        /* \"#utility.yul\":36268:36287   */\n      swap1\n      pop\n        /* \"#utility.yul\":35927:36293   */\n      swap2\n      swap1\n      pop\n      jump\t// out\n        /* \"#utility.yul\":36299:36718   */\n    tag_236:\n        /* \"#utility.yul\":36465:36469   */\n      0x00\n        /* \"#utility.yul\":36503:36505   */\n      0x20\n        /* \"#utility.yul\":36492:36501   */\n      dup3\n        /* \"#utility.yul\":36488:36506   */\n      add\n        /* \"#utility.yul\":36480:36506   */\n      swap1\n      pop\n        /* \"#utility.yul\":36552:36561   */\n      dup2\n        /* \"#utility.yul\":36546:36550   */\n      dup2\n        /* \"#utility.yul\":36542:36562   */\n      sub\n        /* \"#utility.yul\":36538:36539   */\n      0x00\n        /* \"#utility.yul\":36527:36536   */\n      dup4\n        /* \"#utility.yul\":36523:36540   */\n      add\n        /* \"#utility.yul\":36516:36563   */\n      mstore\n        /* \"#utility.yul\":36580:36711   */\n      tag_664\n        /* \"#utility.yul\":36706:36710   */\n      dup2\n        /* \"#utility.yul\":36580:36711   */\n      tag_336\n      jump\t// in\n    tag_664:\n        /* \"#utility.yul\":36572:36711   */\n      swap1\n      pop\n        /* \"#utility.yul\":36299:36718   */\n      swap2\n      swap1\n      pop\n      jump\t// out\n        /* \"#utility.yul\":36724:36872   */\n    tag_337:\n        /* \"#utility.yul\":36826:36837   */\n      0x00\n        /* \"#utility.yul\":36863:36866   */\n      dup2\n        /* \"#utility.yul\":36848:36866   */\n      swap1\n      pop\n        /* \"#utility.yul\":36724:36872   */\n      swap3\n      swap2\n      pop\n      pop\n      jump\t// out\n        /* \"#utility.yul\":36878:37268   */\n    tag_338:\n        /* \"#utility.yul\":36984:36987   */\n      0x00\n        /* \"#utility.yul\":37012:37051   */\n      tag_667\n        /* \"#utility.yul\":37045:37050   */\n      dup3\n        /* \"#utility.yul\":37012:37051   */\n      tag_267\n      jump\t// in\n    tag_667:\n        /* \"#utility.yul\":37067:37156   */\n      tag_668\n        /* \"#utility.yul\":37149:37155   */\n      dup2\n        /* \"#utility.yul\":37144:37147   */\n      dup6\n        /* \"#utility.yul\":37067:37156   */\n      tag_337\n      jump\t// in\n    tag_668:\n        /* \"#utility.yul\":37060:37156   */\n      swap4\n      pop\n        /* \"#utility.yul\":37165:37230   */\n      tag_669\n        /* \"#utility.yul\":37223:37229   */\n      dup2\n        /* \"#utility.yul\":37218:37221   */\n      dup6\n        /* \"#utility.yul\":37211:37215   */\n      0x20\n        /* \"#utility.yul\":37204:37209   */\n      dup7\n        /* \"#utility.yul\":37200:37216   */\n      add\n        /* \"#utility.yul\":37165:37230   */\n      tag_269\n      jump\t// in\n    tag_669:\n        /* \"#utility.yul\":37255:37261   */\n      dup1\n        /* \"#utility.yul\":37250:37253   */\n      dup5\n        /* \"#utility.yul\":37246:37262   */\n      add\n        /* \"#utility.yul\":37239:37262   */\n      swap2\n      pop\n        /* \"#utility.yul\":36988:37268   */\n      pop\n        /* \"#utility.yul\":36878:37268   */\n      swap3\n      swap2\n      pop\n      pop\n      jump\t// out\n        /* \"#utility.yul\":37274:37549   */\n    tag_240:\n        /* \"#utility.yul\":37406:37409   */\n      0x00\n        /* \"#utility.yul\":37428:37523   */\n      tag_671\n        /* \"#utility.yul\":37519:37522   */\n      dup3\n        /* \"#utility.yul\":37510:37516   */\n      dup5\n        /* \"#utility.yul\":37428:37523   */\n      tag_338\n      jump\t// in\n    tag_671:\n        /* \"#utility.yul\":37421:37523   */\n      swap2\n      pop\n        /* \"#utility.yul\":37540:37543   */\n      dup2\n        /* \"#utility.yul\":37533:37543   */\n      swap1\n      pop\n        /* \"#utility.yul\":37274:37549   */\n      swap3\n      swap2\n      pop\n      pop\n      jump\t// out\n        /* \"#utility.yul\":37555:37746   */\n    tag_246:\n        /* \"#utility.yul\":37595:37598   */\n      0x00\n        /* \"#utility.yul\":37614:37634   */\n      tag_673\n        /* \"#utility.yul\":37632:37633   */\n      dup3\n        /* \"#utility.yul\":37614:37634   */\n      tag_255\n      jump\t// in\n    tag_673:\n        /* \"#utility.yul\":37609:37634   */\n      swap2\n      pop\n        /* \"#utility.yul\":37648:37668   */\n      tag_674\n        /* \"#utility.yul\":37666:37667   */\n      dup4\n        /* \"#utility.yul\":37648:37668   */\n      tag_255\n      jump\t// in\n    tag_674:\n        /* \"#utility.yul\":37643:37668   */\n      swap3\n      pop\n        /* \"#utility.yul\":37691:37692   */\n      dup3\n        /* \"#utility.yul\":37688:37689   */\n      dup3\n        /* \"#utility.yul\":37684:37693   */\n      add\n        /* \"#utility.yul\":37677:37693   */\n      swap1\n      pop\n        /* \"#utility.yul\":37712:37715   */\n      dup1\n        /* \"#utility.yul\":37709:37710   */\n      dup3\n        /* \"#utility.yul\":37706:37716   */\n      gt\n        /* \"#utility.yul\":37703:37739   */\n      iszero\n      tag_675\n      jumpi\n        /* \"#utility.yul\":37719:37737   */\n      tag_676\n      tag_307\n      jump\t// in\n    tag_676:\n        /* \"#utility.yul\":37703:37739   */\n    tag_675:\n        /* \"#utility.yul\":37555:37746   */\n      swap3\n      swap2\n      pop\n      pop\n      jump\t// out\n\n    auxdata: 0xa2646970667358221220057de24a090f113f81cf8e39085ea6a43c15be7f5b50f5fbd0e20bdba4304d7864736f6c63430008140033\n}\n",
				"bytecode": {
					"linkReferences": {},
					"object": "60806040525f600455348015610013575f80fd5b50335f806101000a81548173ffffffffffffffffffffffffffffffffffffffff021916908373ffffffffffffffffffffffffffffffffffffffff1602179055505f8060146101000a81548160ff021916908315150217905550612a90806100795f395ff3fe608060405234801561000f575f80fd5b5060043610610109575f3560e01c806396b15bff116100a0578063db2e21bc1161006f578063db2e21bc14610327578063e00b636314610331578063e82bec0b1461034f578063ec5426431461037f578063f470d5ec1461039d57610109565b806396b15bff146102745780639d79030114610292578063abef5f3f146102c2578063cdafbbb6146102f257610109565b80634e43603a116100dc5780634e43603a146101c4578063551ecd5b146101f4578063783df30a146102265780638da5cb5b1461025657610109565b806312cdfd1f1461010d578063178bf3bc1461012b578063439c444d1461015b5780634ccc616d1461018b575b5f80fd5b6101156103bb565b6040516101229190611866565b60405180910390f35b610145600480360381019061014091906118ea565b6103c1565b6040516101529190611866565b60405180910390f35b6101756004803603810190610170919061193f565b61040a565b6040516101829190611866565b60405180910390f35b6101a560048036038101906101a0919061197d565b610435565b6040516101bb9a99989796959493929190611a5b565b60405180910390f35b6101de60048036038101906101d991906118ea565b6106c8565b6040516101eb9190611b99565b60405180910390f35b61020e60048036038101906102099190611cde565b61075a565b60405161021d93929190611deb565b60405180910390f35b610240600480360381019061023b91906118ea565b610beb565b60405161024d9190611866565b60405180910390f35b61025e610cad565b60405161026b9190611e20565b60405180910390f35b61027c610cd0565b6040516102899190611866565b60405180910390f35b6102ac60048036038101906102a7919061197d565b610cd5565b6040516102b99190611f8b565b60405180910390f35b6102dc60048036038101906102d791906118ea565b61101b565b6040516102e99190612053565b60405180910390f35b61030c600480360381019061030791906118ea565b6110ae565b60405161031e96959493929190612073565b60405180910390f35b61032f6110e6565b005b610339611285565b6040516103469190611866565b60405180910390f35b610369600480360381019061036491906120d2565b61128b565b6040516103769190612110565b60405180910390f35b610387611645565b6040516103949190611866565b60405180910390f35b6103a561164a565b6040516103b29190611866565b60405180910390f35b6101f481565b5f60035f8373ffffffffffffffffffffffffffffffffffffffff1673ffffffffffffffffffffffffffffffffffffffff1681526020019081526020015f20805490509050919050565b6003602052815f5260405f208181548110610423575f80fd5b905f5260205f20015f91509150505481565b6002602052805f5260405f205f91509050805f015f9054906101000a900473ffffffffffffffffffffffffffffffffffffffff169080600101805461047990612156565b80601f01602080910402602001604051908101604052809291908181526020018280546104a590612156565b80156104f05780601f106104c7576101008083540402835291602001916104f0565b820191905f5260205f20905b8154815290600101906020018083116104d357829003601f168201915b50505050509080600201805461050590612156565b80601f016020809104026020016040519081016040528092919081815260200182805461053190612156565b801561057c5780601f106105535761010080835404028352916020019161057c565b820191905f5260205f20905b81548152906001019060200180831161055f57829003601f168201915b50505050509080600301805461059190612156565b80601f01602080910402602001604051908101604052809291908181526020018280546105bd90612156565b80156106085780601f106105df57610100808354040283529160200191610608565b820191905f5260205f20905b8154815290600101906020018083116105eb57829003601f168201915b50505050509080600401805461061d90612156565b80601f016020809104026020016040519081016040528092919081815260200182805461064990612156565b80156106945780601f1061066b57610100808354040283529160200191610694565b820191905f5260205f20905b81548152906001019060200180831161067757829003601f168201915b505050505090806005015f9054906101000a900460ff1690806006015490806007015490806008015490806009015490508a565b6106d06117b9565b60015f8373ffffffffffffffffffffffffffffffffffffffff1673ffffffffffffffffffffffffffffffffffffffff1681526020019081526020015f206040518060c00160405290815f8201548152602001600182015481526020016002820154815260200160038201548152602001600482015481526020016005820154815250509050919050565b5f805f8060149054906101000a900460ff16156107ac576040517f08c379a00000000000000000000000000000000000000000000000000000000081526004016107a3906121d0565b60405180910390fd5b60015f60146101000a81548160ff0219169083151502179055505f8a5111610809576040517f08c379a000000000000000000000000000000000000000000000000000000000815260040161080090612238565b60405180910390fd5b5f89511161084c576040517f08c379a0000000000000000000000000000000000000000000000000000000008152600401610843906122a0565b60405180910390fd5b5f88511161088f576040517f08c379a000000000000000000000000000000000000000000000000000000000815260040161088690612308565b60405180910390fd5b5f8751116108d2576040517f08c379a00000000000000000000000000000000000000000000000000000000081526004016108c990612370565b60405180910390fd5b5f6108dd8989611653565b90505f6108ea82896116ab565b90505f60045f8154809291906108ff906123bb565b9190505590505f3390506109158185858d6116e3565b60035f8273ffffffffffffffffffffffffffffffffffffffff1673ffffffffffffffffffffffffffffffffffffffff1681526020019081526020015f2082908060018154018082558091505060019003905f5260205f20015f90919091909150556040518061014001604052808273ffffffffffffffffffffffffffffffffffffffff1681526020018f81526020018e81526020018d81526020018c815260200185151581526020018b81526020018a81526020018981526020014281525060025f8481526020019081526020015f205f820151815f015f6101000a81548173ffffffffffffffffffffffffffffffffffffffff021916908373ffffffffffffffffffffffffffffffffffffffff1602179055506020820151816001019081610a3e919061259f565b506040820151816002019081610a54919061259f565b506060820151816003019081610a6a919061259f565b506080820151816004019081610a80919061259f565b5060a0820151816005015f6101000a81548160ff02191690831515021790555060c0820151816006015560e08201518160070155610100820151816008015561012082015181600901559050508073ffffffffffffffffffffffffffffffffffffffff16827f269fdaad5d16437265c62dfb37cee849e609d046c5233e51b57b5a80354de654868642604051610b189392919061266e565b60405180910390a38073ffffffffffffffffffffffffffffffffffffffff167f5c874adf9d1c93ab636130bb7e727993f1d6a3d33d1ffd925556815d0eec230860015f8473ffffffffffffffffffffffffffffffffffffffff1673ffffffffffffffffffffffffffffffffffffffff1681526020019081526020015f2060030154610ba284610beb565b604051610bb09291906126a3565b60405180910390a2818484965096509650505050505f8060146101000a81548160ff0219169083151502179055509750975097945050505050565b5f8060015f8473ffffffffffffffffffffffffffffffffffffffff1673ffffffffffffffffffffffffffffffffffffffff1681526020019081526020015f206040518060c00160405290815f82015481526020016001820154815260200160028201548152602001600382015481526020016004820154815260200160058201548152505090505f815f015103610c85575f915050610ca8565b805f015160648260200151610c9a91906126ca565b610ca49190612738565b9150505b919050565b5f8054906101000a900473ffffffffffffffffffffffffffffffffffffffff1681565b600a81565b610cdd6117e9565b6004548210610d21576040517f08c379a0000000000000000000000000000000000000000000000000000000008152600401610d18906127b2565b60405180910390fd5b60025f8381526020019081526020015f20604051806101400160405290815f82015f9054906101000a900473ffffffffffffffffffffffffffffffffffffffff1673ffffffffffffffffffffffffffffffffffffffff1673ffffffffffffffffffffffffffffffffffffffff168152602001600182018054610da290612156565b80601f0160208091040260200160405190810160405280929190818152602001828054610dce90612156565b8015610e195780601f10610df057610100808354040283529160200191610e19565b820191905f5260205f20905b815481529060010190602001808311610dfc57829003601f168201915b50505050508152602001600282018054610e3290612156565b80601f0160208091040260200160405190810160405280929190818152602001828054610e5e90612156565b8015610ea95780601f10610e8057610100808354040283529160200191610ea9565b820191905f5260205f20905b815481529060010190602001808311610e8c57829003601f168201915b50505050508152602001600382018054610ec290612156565b80601f0160208091040260200160405190810160405280929190818152602001828054610eee90612156565b8015610f395780601f10610f1057610100808354040283529160200191610f39565b820191905f5260205f20905b815481529060010190602001808311610f1c57829003601f168201915b50505050508152602001600482018054610f5290612156565b80601f0160208091040260200160405190810160405280929190818152602001828054610f7e90612156565b8015610fc95780601f10610fa057610100808354040283529160200191610fc9565b820191905f5260205f20905b815481529060010190602001808311610fac57829003601f168201915b50505050508152602001600582015f9054906101000a900460ff161515151581526020016006820154815260200160078201548152602001600882015481526020016009820154815250509050919050565b606060035f8373ffffffffffffffffffffffffffffffffffffffff1673ffffffffffffffffffffffffffffffffffffffff1681526020019081526020015f208054806020026020016040519081016040528092919081815260200182805480156110a257602002820191905f5260205f20905b81548152602001906001019080831161108e575b50505050509050919050565b6001602052805f5260405f205f91509050805f0154908060010154908060020154908060030154908060040154908060050154905086565b5f8054906101000a900473ffffffffffffffffffffffffffffffffffffffff1673ffffffffffffffffffffffffffffffffffffffff163373ffffffffffffffffffffffffffffffffffffffff1614611173576040517f08c379a000000000000000000000000000000000000000000000000000000000815260040161116a9061281a565b60405180910390fd5b5f4790505f81116111b9576040517f08c379a00000000000000000000000000000000000000000000000000000000081526004016111b090612882565b60405180910390fd5b5f805f9054906101000a900473ffffffffffffffffffffffffffffffffffffffff1673ffffffffffffffffffffffffffffffffffffffff16826040516111fe906128cd565b5f6040518083038185875af1925050503d805f8114611238576040519150601f19603f3d011682016040523d82523d5f602084013e61123d565b606091505b5050905080611281576040517f08c379a00000000000000000000000000000000000000000000000000000000081526004016112789061292b565b60405180910390fd5b5050565b60045481565b5f60045483106112d0576040517f08c379a00000000000000000000000000000000000000000000000000000000081526004016112c7906127b2565b60405180910390fd5b5f60025f8581526020019081526020015f20604051806101400160405290815f82015f9054906101000a900473ffffffffffffffffffffffffffffffffffffffff1673ffffffffffffffffffffffffffffffffffffffff1673ffffffffffffffffffffffffffffffffffffffff16815260200160018201805461135290612156565b80601f016020809104026020016040519081016040528092919081815260200182805461137e90612156565b80156113c95780601f106113a0576101008083540402835291602001916113c9565b820191905f5260205f20905b8154815290600101906020018083116113ac57829003601f168201915b505050505081526020016002820180546113e290612156565b80601f016020809104026020016040519081016040528092919081815260200182805461140e90612156565b80156114595780601f1061143057610100808354040283529160200191611459565b820191905f5260205f20905b81548152906001019060200180831161143c57829003601f168201915b5050505050815260200160038201805461147290612156565b80601f016020809104026020016040519081016040528092919081815260200182805461149e90612156565b80156114e95780601f106114c0576101008083540402835291602001916114e9565b820191905f5260205f20905b8154815290600101906020018083116114cc57829003601f168201915b5050505050815260200160048201805461150290612156565b80601f016020809104026020016040519081016040528092919081815260200182805461152e90612156565b80156115795780601f1061155057610100808354040283529160200191611579565b820191905f5260205f20905b81548152906001019060200180831161155c57829003601f168201915b50505050508152602001600582015f9054906101000a900460ff1615151515815260200160068201548152602001600782015481526020016008820154815260200160098201548152505090508273ffffffffffffffffffffffffffffffffffffffff16815f015173ffffffffffffffffffffffffffffffffffffffff1614611637576040517f08c379a000000000000000000000000000000000000000000000000000000000815260040161162e906129b9565b60405180910390fd5b8060a0015191505092915050565b600581565b5f600454905090565b5f816040516020016116659190612a11565b604051602081830303815290604052805190602001208360405160200161168c9190612a11565b6040516020818303038152906040528051906020012014905092915050565b5f826116b9575f90506116dd565b5f600a90506101f48311156116d8576005816116d59190612a27565b90505b809150505b92915050565b5f60015f8673ffffffffffffffffffffffffffffffffffffffff1673ffffffffffffffffffffffffffffffffffffffff1681526020019081526020015f209050805f015f815480929190611736906123bb565b9190505550831561177557806001015f815480929190611755906123bb565b91905055508060040154821115611770578181600401819055505b61178f565b806002015f815480929190611789906123bb565b91905055505b82816003015f8282546117a29190612a27565b925050819055504281600501819055505050505050565b6040518060c001604052805f81526020015f81526020015f81526020015f81526020015f81526020015f81525090565b6040518061014001604052805f73ffffffffffffffffffffffffffffffffffffffff168152602001606081526020016060815260200160608152602001606081526020015f151581526020015f81526020015f81526020015f81526020015f81525090565b5f819050919050565b6118608161184e565b82525050565b5f6020820190506118795f830184611857565b92915050565b5f604051905090565b5f80fd5b5f80fd5b5f73ffffffffffffffffffffffffffffffffffffffff82169050919050565b5f6118b982611890565b9050919050565b6118c9816118af565b81146118d3575f80fd5b50565b5f813590506118e4816118c0565b92915050565b5f602082840312156118ff576118fe611888565b5b5f61190c848285016118d6565b91505092915050565b61191e8161184e565b8114611928575f80fd5b50565b5f8135905061193981611915565b92915050565b5f806040838503121561195557611954611888565b5b5f611962858286016118d6565b92505060206119738582860161192b565b9150509250929050565b5f6020828403121561199257611991611888565b5b5f61199f8482850161192b565b91505092915050565b6119b1816118af565b82525050565b5f81519050919050565b5f82825260208201905092915050565b5f5b838110156119ee5780820151818401526020810190506119d3565b5f8484015250505050565b5f601f19601f8301169050919050565b5f611a13826119b7565b611a1d81856119c1565b9350611a2d8185602086016119d1565b611a36816119f9565b840191505092915050565b5f8115159050919050565b611a5581611a41565b82525050565b5f61014082019050611a6f5f83018d6119a8565b8181036020830152611a81818c611a09565b90508181036040830152611a95818b611a09565b90508181036060830152611aa9818a611a09565b90508181036080830152611abd8189611a09565b9050611acc60a0830188611a4c565b611ad960c0830187611857565b611ae660e0830186611857565b611af4610100830185611857565b611b02610120830184611857565b9b9a5050505050505050505050565b611b1a8161184e565b82525050565b60c082015f820151611b345f850182611b11565b506020820151611b476020850182611b11565b506040820151611b5a6040850182611b11565b506060820151611b6d6060850182611b11565b506080820151611b806080850182611b11565b5060a0820151611b9360a0850182611b11565b50505050565b5f60c082019050611bac5f830184611b20565b92915050565b5f80fd5b5f80fd5b7f4e487b71000000000000000000000000000000000000000000000000000000005f52604160045260245ffd5b611bf0826119f9565b810181811067ffffffffffffffff82111715611c0f57611c0e611bba565b5b80604052505050565b5f611c2161187f565b9050611c2d8282611be7565b919050565b5f67ffffffffffffffff821115611c4c57611c4b611bba565b5b611c55826119f9565b9050602081019050919050565b828183375f83830152505050565b5f611c82611c7d84611c32565b611c18565b905082815260208101848484011115611c9e57611c9d611bb6565b5b611ca9848285611c62565b509392505050565b5f82601f830112611cc557611cc4611bb2565b5b8135611cd5848260208601611c70565b91505092915050565b5f805f805f805f60e0888a031215611cf957611cf8611888565b5b5f88013567ffffffffffffffff811115611d1657611d1561188c565b5b611d228a828b01611cb1565b975050602088013567ffffffffffffffff811115611d4357611d4261188c565b5b611d4f8a828b01611cb1565b965050604088013567ffffffffffffffff811115611d7057611d6f61188c565b5b611d7c8a828b01611cb1565b955050606088013567ffffffffffffffff811115611d9d57611d9c61188c565b5b611da98a828b01611cb1565b9450506080611dba8a828b0161192b565b93505060a0611dcb8a828b0161192b565b92505060c0611ddc8a828b0161192b565b91505092959891949750929550565b5f606082019050611dfe5f830186611857565b611e0b6020830185611a4c565b611e186040830184611857565b949350505050565b5f602082019050611e335f8301846119a8565b92915050565b611e42816118af565b82525050565b5f82825260208201905092915050565b5f611e62826119b7565b611e6c8185611e48565b9350611e7c8185602086016119d1565b611e85816119f9565b840191505092915050565b611e9981611a41565b82525050565b5f61014083015f830151611eb55f860182611e39565b5060208301518482036020860152611ecd8282611e58565b91505060408301518482036040860152611ee78282611e58565b91505060608301518482036060860152611f018282611e58565b91505060808301518482036080860152611f1b8282611e58565b91505060a0830151611f3060a0860182611e90565b5060c0830151611f4360c0860182611b11565b5060e0830151611f5660e0860182611b11565b50610100830151611f6b610100860182611b11565b50610120830151611f80610120860182611b11565b508091505092915050565b5f6020820190508181035f830152611fa38184611e9f565b905092915050565b5f81519050919050565b5f82825260208201905092915050565b5f819050602082019050919050565b5f611fdf8383611b11565b60208301905092915050565b5f602082019050919050565b5f61200182611fab565b61200b8185611fb5565b935061201683611fc5565b805f5b8381101561204657815161202d8882611fd4565b975061203883611feb565b925050600181019050612019565b5085935050505092915050565b5f6020820190508181035f83015261206b8184611ff7565b905092915050565b5f60c0820190506120865f830189611857565b6120936020830188611857565b6120a06040830187611857565b6120ad6060830186611857565b6120ba6080830185611857565b6120c760a0830184611857565b979650505050505050565b5f80604083850312156120e8576120e7611888565b5b5f6120f58582860161192b565b9250506020612106858286016118d6565b9150509250929050565b5f6020820190506121235f830184611a4c565b92915050565b7f4e487b71000000000000000000000000000000000000000000000000000000005f52602260045260245ffd5b5f600282049050600182168061216d57607f821691505b6020821081036121805761217f612129565b5b50919050565b7f4e6f207265656e7472616e6379000000000000000000000000000000000000005f82015250565b5f6121ba600d836119c1565b91506121c582612186565b602082019050919050565b5f6020820190508181035f8301526121e7816121ae565b9050919050565b7f636f696e412063616e6e6f7420626520656d70747900000000000000000000005f82015250565b5f6122226015836119c1565b915061222d826121ee565b602082019050919050565b5f6020820190508181035f83015261224f81612216565b9050919050565b7f636f696e422063616e6e6f7420626520656d70747900000000000000000000005f82015250565b5f61228a6015836119c1565b915061229582612256565b602082019050919050565b5f6020820190508181035f8301526122b78161227e565b9050919050565b7f70726564696374656457696e6e65722063616e6e6f7420626520656d707479005f82015250565b5f6122f2601f836119c1565b91506122fd826122be565b602082019050919050565b5f6020820190508181035f83015261231f816122e6565b9050919050565b7f61637475616c57696e6e65722063616e6e6f7420626520656d707479000000005f82015250565b5f61235a601c836119c1565b915061236582612326565b602082019050919050565b5f6020820190508181035f8301526123878161234e565b9050919050565b7f4e487b71000000000000000000000000000000000000000000000000000000005f52601160045260245ffd5b5f6123c58261184e565b91507fffffffffffffffffffffffffffffffffffffffffffffffffffffffffffffffff82036123f7576123f661238e565b5b600182019050919050565b5f819050815f5260205f209050919050565b5f6020601f8301049050919050565b5f82821b905092915050565b5f6008830261245e7fffffffffffffffffffffffffffffffffffffffffffffffffffffffffffffffff82612423565b6124688683612423565b95508019841693508086168417925050509392505050565b5f819050919050565b5f6124a361249e6124998461184e565b612480565b61184e565b9050919050565b5f819050919050565b6124bc83612489565b6124d06124c8826124aa565b84845461242f565b825550505050565b5f90565b6124e46124d8565b6124ef8184846124b3565b505050565b5b81811015612512576125075f826124dc565b6001810190506124f5565b5050565b601f8211156125575761252881612402565b61253184612414565b81016020851015612540578190505b61255461254c85612414565b8301826124f4565b50505b505050565b5f82821c905092915050565b5f6125775f198460080261255c565b1980831691505092915050565b5f61258f8383612568565b9150826002028217905092915050565b6125a8826119b7565b67ffffffffffffffff8111156125c1576125c0611bba565b5b6125cb8254612156565b6125d6828285612516565b5f60209050601f831160018114612607575f84156125f5578287015190505b6125ff8582612584565b865550612666565b601f19841661261586612402565b5f5b8281101561263c57848901518255600182019150602085019450602081019050612617565b868310156126595784890151612655601f891682612568565b8355505b6001600288020188555050505b505050505050565b5f6060820190506126815f830186611a4c565b61268e6020830185611857565b61269b6040830184611857565b949350505050565b5f6040820190506126b65f830185611857565b6126c36020830184611857565b9392505050565b5f6126d48261184e565b91506126df8361184e565b92508282026126ed8161184e565b915082820484148315176127045761270361238e565b5b5092915050565b7f4e487b71000000000000000000000000000000000000000000000000000000005f52601260045260245ffd5b5f6127428261184e565b915061274d8361184e565b92508261275d5761275c61270b565b5b828204905092915050565b7f426174746c6520494420646f6573206e6f7420657869737400000000000000005f82015250565b5f61279c6018836119c1565b91506127a782612768565b602082019050919050565b5f6020820190508181035f8301526127c981612790565b9050919050565b7f4f6e6c79206f776e65722063616e2063616c6c207468697300000000000000005f82015250565b5f6128046018836119c1565b915061280f826127d0565b602082019050919050565b5f6020820190508181035f830152612831816127f8565b9050919050565b7f4e6f2066756e647320746f2077697468647261770000000000000000000000005f82015250565b5f61286c6014836119c1565b915061287782612838565b602082019050919050565b5f6020820190508181035f83015261289981612860565b9050919050565b5f81905092915050565b50565b5f6128b85f836128a0565b91506128c3826128aa565b5f82019050919050565b5f6128d7826128ad565b9150819050919050565b7f5769746864726177616c206661696c65640000000000000000000000000000005f82015250565b5f6129156011836119c1565b9150612920826128e1565b602082019050919050565b5f6020820190508181035f83015261294281612909565b9050919050565b7f506c6179657220646964206e6f7420706172746963697061746520696e2074685f8201527f697320626174746c650000000000000000000000000000000000000000000000602082015250565b5f6129a36029836119c1565b91506129ae82612949565b604082019050919050565b5f6020820190508181035f8301526129d081612997565b9050919050565b5f81905092915050565b5f6129eb826119b7565b6129f581856129d7565b9350612a058185602086016119d1565b80840191505092915050565b5f612a1c82846129e1565b915081905092915050565b5f612a318261184e565b9150612a3c8361184e565b9250828201905080821115612a5457612a5361238e565b5b9291505056fea2646970667358221220057de24a090f113f81cf8e39085ea6a43c15be7f5b50f5fbd0e20bdba4304d7864736f6c63430008140033",
					"opcodes": "PUSH1 0x80 PUSH1 0x40 MSTORE PUSH0 PUSH1 0x4 SSTORE CALLVALUE DUP1 ISZERO PUSH2 0x13 JUMPI PUSH0 DUP1 REVERT JUMPDEST POP CALLER PUSH0 DUP1 PUSH2 0x100 EXP DUP2 SLOAD DUP2 PUSH20 0xFFFFFFFFFFFFFFFFFFFFFFFFFFFFFFFFFFFFFFFF MUL NOT AND SWAP1 DUP4 PUSH20 0xFFFFFFFFFFFFFFFFFFFFFFFFFFFFFFFFFFFFFFFF AND MUL OR SWAP1 SSTORE POP PUSH0 DUP1 PUSH1 0x14 PUSH2 0x100 EXP DUP2 SLOAD DUP2 PUSH1 0xFF MUL NOT AND SWAP1 DUP4 ISZERO ISZERO MUL OR SWAP1 SSTORE POP PUSH2 0x2A90 DUP1 PUSH2 0x79 PUSH0 CODECOPY PUSH0 RETURN INVALID PUSH1 0x80 PUSH1 0x40 MSTORE CALLVALUE DUP1 ISZERO PUSH2 0xF JUMPI PUSH0 DUP1 REVERT JUMPDEST POP PUSH1 0x4 CALLDATASIZE LT PUSH2 0x109 JUMPI PUSH0 CALLDATALOAD PUSH1 0xE0 SHR DUP1 PUSH4 0x96B15BFF GT PUSH2 0xA0 JUMPI DUP1 PUSH4 0xDB2E21BC GT PUSH2 0x6F JUMPI DUP1 PUSH4 0xDB2E21BC EQ PUSH2 0x327 JUMPI DUP1 PUSH4 0xE00B6363 EQ PUSH2 0x331 JUMPI DUP1 PUSH4 0xE82BEC0B EQ PUSH2 0x34F JUMPI DUP1 PUSH4 0xEC542643 EQ PUSH2 0x37F JUMPI DUP1 PUSH4 0xF470D5EC EQ PUSH2 0x39D JUMPI PUSH2 0x109 JUMP JUMPDEST DUP1 PUSH4 0x96B15BFF EQ PUSH2 0x274 JUMPI DUP1 PUSH4 0x9D790301 EQ PUSH2 0x292 JUMPI DUP1 PUSH4 0xABEF5F3F EQ PUSH2 0x2C2 JUMPI DUP1 PUSH4 0xCDAFBBB6 EQ PUSH2 0x2F2 JUMPI PUSH2 0x109 JUMP JUMPDEST DUP1 PUSH4 0x4E43603A GT PUSH2 0xDC JUMPI DUP1 PUSH4 0x4E43603A EQ PUSH2 0x1C4 JUMPI DUP1 PUSH4 0x551ECD5B EQ PUSH2 0x1F4 JUMPI DUP1 PUSH4 0x783DF30A EQ PUSH2 0x226 JUMPI DUP1 PUSH4 0x8DA5CB5B EQ PUSH2 0x256 JUMPI PUSH2 0x109 JUMP JUMPDEST DUP1 PUSH4 0x12CDFD1F EQ PUSH2 0x10D JUMPI DUP1 PUSH4 0x178BF3BC EQ PUSH2 0x12B JUMPI DUP1 PUSH4 0x439C444D EQ PUSH2 0x15B JUMPI DUP1 PUSH4 0x4CCC616D EQ PUSH2 0x18B JUMPI JUMPDEST PUSH0 DUP1 REVERT JUMPDEST PUSH2 0x115 PUSH2 0x3BB JUMP JUMPDEST PUSH1 0x40 MLOAD PUSH2 0x122 SWAP2 SWAP1 PUSH2 0x1866 JUMP JUMPDEST PUSH1 0x40 MLOAD DUP1 SWAP2 SUB SWAP1 RETURN JUMPDEST PUSH2 0x145 PUSH1 0x4 DUP1 CALLDATASIZE SUB DUP2 ADD SWAP1 PUSH2 0x140 SWAP2 SWAP1 PUSH2 0x18EA JUMP JUMPDEST PUSH2 0x3C1 JUMP JUMPDEST PUSH1 0x40 MLOAD PUSH2 0x152 SWAP2 SWAP1 PUSH2 0x1866 JUMP JUMPDEST PUSH1 0x40 MLOAD DUP1 SWAP2 SUB SWAP1 RETURN JUMPDEST PUSH2 0x175 PUSH1 0x4 DUP1 CALLDATASIZE SUB DUP2 ADD SWAP1 PUSH2 0x170 SWAP2 SWAP1 PUSH2 0x193F JUMP JUMPDEST PUSH2 0x40A JUMP JUMPDEST PUSH1 0x40 MLOAD PUSH2 0x182 SWAP2 SWAP1 PUSH2 0x1866 JUMP JUMPDEST PUSH1 0x40 MLOAD DUP1 SWAP2 SUB SWAP1 RETURN JUMPDEST PUSH2 0x1A5 PUSH1 0x4 DUP1 CALLDATASIZE SUB DUP2 ADD SWAP1 PUSH2 0x1A0 SWAP2 SWAP1 PUSH2 0x197D JUMP JUMPDEST PUSH2 0x435 JUMP JUMPDEST PUSH1 0x40 MLOAD PUSH2 0x1BB SWAP11 SWAP10 SWAP9 SWAP8 SWAP7 SWAP6 SWAP5 SWAP4 SWAP3 SWAP2 SWAP1 PUSH2 0x1A5B JUMP JUMPDEST PUSH1 0x40 MLOAD DUP1 SWAP2 SUB SWAP1 RETURN JUMPDEST PUSH2 0x1DE PUSH1 0x4 DUP1 CALLDATASIZE SUB DUP2 ADD SWAP1 PUSH2 0x1D9 SWAP2 SWAP1 PUSH2 0x18EA JUMP JUMPDEST PUSH2 0x6C8 JUMP JUMPDEST PUSH1 0x40 MLOAD PUSH2 0x1EB SWAP2 SWAP1 PUSH2 0x1B99 JUMP JUMPDEST PUSH1 0x40 MLOAD DUP1 SWAP2 SUB SWAP1 RETURN JUMPDEST PUSH2 0x20E PUSH1 0x4 DUP1 CALLDATASIZE SUB DUP2 ADD SWAP1 PUSH2 0x209 SWAP2 SWAP1 PUSH2 0x1CDE JUMP JUMPDEST PUSH2 0x75A JUMP JUMPDEST PUSH1 0x40 MLOAD PUSH2 0x21D SWAP4 SWAP3 SWAP2 SWAP1 PUSH2 0x1DEB JUMP JUMPDEST PUSH1 0x40 MLOAD DUP1 SWAP2 SUB SWAP1 RETURN JUMPDEST PUSH2 0x240 PUSH1 0x4 DUP1 CALLDATASIZE SUB DUP2 ADD SWAP1 PUSH2 0x23B SWAP2 SWAP1 PUSH2 0x18EA JUMP JUMPDEST PUSH2 0xBEB JUMP JUMPDEST PUSH1 0x40 MLOAD PUSH2 0x24D SWAP2 SWAP1 PUSH2 0x1866 JUMP JUMPDEST PUSH1 0x40 MLOAD DUP1 SWAP2 SUB SWAP1 RETURN JUMPDEST PUSH2 0x25E PUSH2 0xCAD JUMP JUMPDEST PUSH1 0x40 MLOAD PUSH2 0x26B SWAP2 SWAP1 PUSH2 0x1E20 JUMP JUMPDEST PUSH1 0x40 MLOAD DUP1 SWAP2 SUB SWAP1 RETURN JUMPDEST PUSH2 0x27C PUSH2 0xCD0 JUMP JUMPDEST PUSH1 0x40 MLOAD PUSH2 0x289 SWAP2 SWAP1 PUSH2 0x1866 JUMP JUMPDEST PUSH1 0x40 MLOAD DUP1 SWAP2 SUB SWAP1 RETURN JUMPDEST PUSH2 0x2AC PUSH1 0x4 DUP1 CALLDATASIZE SUB DUP2 ADD SWAP1 PUSH2 0x2A7 SWAP2 SWAP1 PUSH2 0x197D JUMP JUMPDEST PUSH2 0xCD5 JUMP JUMPDEST PUSH1 0x40 MLOAD PUSH2 0x2B9 SWAP2 SWAP1 PUSH2 0x1F8B JUMP JUMPDEST PUSH1 0x40 MLOAD DUP1 SWAP2 SUB SWAP1 RETURN JUMPDEST PUSH2 0x2DC PUSH1 0x4 DUP1 CALLDATASIZE SUB DUP2 ADD SWAP1 PUSH2 0x2D7 SWAP2 SWAP1 PUSH2 0x18EA JUMP JUMPDEST PUSH2 0x101B JUMP JUMPDEST PUSH1 0x40 MLOAD PUSH2 0x2E9 SWAP2 SWAP1 PUSH2 0x2053 JUMP JUMPDEST PUSH1 0x40 MLOAD DUP1 SWAP2 SUB SWAP1 RETURN JUMPDEST PUSH2 0x30C PUSH1 0x4 DUP1 CALLDATASIZE SUB DUP2 ADD SWAP1 PUSH2 0x307 SWAP2 SWAP1 PUSH2 0x18EA JUMP JUMPDEST PUSH2 0x10AE JUMP JUMPDEST PUSH1 0x40 MLOAD PUSH2 0x31E SWAP7 SWAP6 SWAP5 SWAP4 SWAP3 SWAP2 SWAP1 PUSH2 0x2073 JUMP JUMPDEST PUSH1 0x40 MLOAD DUP1 SWAP2 SUB SWAP1 RETURN JUMPDEST PUSH2 0x32F PUSH2 0x10E6 JUMP JUMPDEST STOP JUMPDEST PUSH2 0x339 PUSH2 0x1285 JUMP JUMPDEST PUSH1 0x40 MLOAD PUSH2 0x346 SWAP2 SWAP1 PUSH2 0x1866 JUMP JUMPDEST PUSH1 0x40 MLOAD DUP1 SWAP2 SUB SWAP1 RETURN JUMPDEST PUSH2 0x369 PUSH1 0x4 DUP1 CALLDATASIZE SUB DUP2 ADD SWAP1 PUSH2 0x364 SWAP2 SWAP1 PUSH2 0x20D2 JUMP JUMPDEST PUSH2 0x128B JUMP JUMPDEST PUSH1 0x40 MLOAD PUSH2 0x376 SWAP2 SWAP1 PUSH2 0x2110 JUMP JUMPDEST PUSH1 0x40 MLOAD DUP1 SWAP2 SUB SWAP1 RETURN JUMPDEST PUSH2 0x387 PUSH2 0x1645 JUMP JUMPDEST PUSH1 0x40 MLOAD PUSH2 0x394 SWAP2 SWAP1 PUSH2 0x1866 JUMP JUMPDEST PUSH1 0x40 MLOAD DUP1 SWAP2 SUB SWAP1 RETURN JUMPDEST PUSH2 0x3A5 PUSH2 0x164A JUMP JUMPDEST PUSH1 0x40 MLOAD PUSH2 0x3B2 SWAP2 SWAP1 PUSH2 0x1866 JUMP JUMPDEST PUSH1 0x40 MLOAD DUP1 SWAP2 SUB SWAP1 RETURN JUMPDEST PUSH2 0x1F4 DUP2 JUMP JUMPDEST PUSH0 PUSH1 0x3 PUSH0 DUP4 PUSH20 0xFFFFFFFFFFFFFFFFFFFFFFFFFFFFFFFFFFFFFFFF AND PUSH20 0xFFFFFFFFFFFFFFFFFFFFFFFFFFFFFFFFFFFFFFFF AND DUP2 MSTORE PUSH1 0x20 ADD SWAP1 DUP2 MSTORE PUSH1 0x20 ADD PUSH0 KECCAK256 DUP1 SLOAD SWAP1 POP SWAP1 POP SWAP2 SWAP1 POP JUMP JUMPDEST PUSH1 0x3 PUSH1 0x20 MSTORE DUP2 PUSH0 MSTORE PUSH1 0x40 PUSH0 KECCAK256 DUP2 DUP2 SLOAD DUP2 LT PUSH2 0x423 JUMPI PUSH0 DUP1 REVERT JUMPDEST SWAP1 PUSH0 MSTORE PUSH1 0x20 PUSH0 KECCAK256 ADD PUSH0 SWAP2 POP SWAP2 POP POP SLOAD DUP2 JUMP JUMPDEST PUSH1 0x2 PUSH1 0x20 MSTORE DUP1 PUSH0 MSTORE PUSH1 0x40 PUSH0 KECCAK256 PUSH0 SWAP2 POP SWAP1 POP DUP1 PUSH0 ADD PUSH0 SWAP1 SLOAD SWAP1 PUSH2 0x100 EXP SWAP1 DIV PUSH20 0xFFFFFFFFFFFFFFFFFFFFFFFFFFFFFFFFFFFFFFFF AND SWAP1 DUP1 PUSH1 0x1 ADD DUP1 SLOAD PUSH2 0x479 SWAP1 PUSH2 0x2156 JUMP JUMPDEST DUP1 PUSH1 0x1F ADD PUSH1 0x20 DUP1 SWAP2 DIV MUL PUSH1 0x20 ADD PUSH1 0x40 MLOAD SWAP1 DUP2 ADD PUSH1 0x40 MSTORE DUP1 SWAP3 SWAP2 SWAP1 DUP2 DUP2 MSTORE PUSH1 0x20 ADD DUP3 DUP1 SLOAD PUSH2 0x4A5 SWAP1 PUSH2 0x2156 JUMP JUMPDEST DUP1 ISZERO PUSH2 0x4F0 JUMPI DUP1 PUSH1 0x1F LT PUSH2 0x4C7 JUMPI PUSH2 0x100 DUP1 DUP4 SLOAD DIV MUL DUP4 MSTORE SWAP2 PUSH1 0x20 ADD SWAP2 PUSH2 0x4F0 JUMP JUMPDEST DUP3 ADD SWAP2 SWAP1 PUSH0 MSTORE PUSH1 0x20 PUSH0 KECCAK256 SWAP1 JUMPDEST DUP2 SLOAD DUP2 MSTORE SWAP1 PUSH1 0x1 ADD SWAP1 PUSH1 0x20 ADD DUP1 DUP4 GT PUSH2 0x4D3 JUMPI DUP3 SWAP1 SUB PUSH1 0x1F AND DUP3 ADD SWAP2 JUMPDEST POP POP POP POP POP SWAP1 DUP1 PUSH1 0x2 ADD DUP1 SLOAD PUSH2 0x505 SWAP1 PUSH2 0x2156 JUMP JUMPDEST DUP1 PUSH1 0x1F ADD PUSH1 0x20 DUP1 SWAP2 DIV MUL PUSH1 0x20 ADD PUSH1 0x40 MLOAD SWAP1 DUP2 ADD PUSH1 0x40 MSTORE DUP1 SWAP3 SWAP2 SWAP1 DUP2 DUP2 MSTORE PUSH1 0x20 ADD DUP3 DUP1 SLOAD PUSH2 0x531 SWAP1 PUSH2 0x2156 JUMP JUMPDEST DUP1 ISZERO PUSH2 0x57C JUMPI DUP1 PUSH1 0x1F LT PUSH2 0x553 JUMPI PUSH2 0x100 DUP1 DUP4 SLOAD DIV MUL DUP4 MSTORE SWAP2 PUSH1 0x20 ADD SWAP2 PUSH2 0x57C JUMP JUMPDEST DUP3 ADD SWAP2 SWAP1 PUSH0 MSTORE PUSH1 0x20 PUSH0 KECCAK256 SWAP1 JUMPDEST DUP2 SLOAD DUP2 MSTORE SWAP1 PUSH1 0x1 ADD SWAP1 PUSH1 0x20 ADD DUP1 DUP4 GT PUSH2 0x55F JUMPI DUP3 SWAP1 SUB PUSH1 0x1F AND DUP3 ADD SWAP2 JUMPDEST POP POP POP POP POP SWAP1 DUP1 PUSH1 0x3 ADD DUP1 SLOAD PUSH2 0x591 SWAP1 PUSH2 0x2156 JUMP JUMPDEST DUP1 PUSH1 0x1F ADD PUSH1 0x20 DUP1 SWAP2 DIV MUL PUSH1 0x20 ADD PUSH1 0x40 MLOAD SWAP1 DUP2 ADD PUSH1 0x40 MSTORE DUP1 SWAP3 SWAP2 SWAP1 DUP2 DUP2 MSTORE PUSH1 0x20 ADD DUP3 DUP1 SLOAD PUSH2 0x5BD SWAP1 PUSH2 0x2156 JUMP JUMPDEST DUP1 ISZERO PUSH2 0x608 JUMPI DUP1 PUSH1 0x1F LT PUSH2 0x5DF JUMPI PUSH2 0x100 DUP1 DUP4 SLOAD DIV MUL DUP4 MSTORE SWAP2 PUSH1 0x20 ADD SWAP2 PUSH2 0x608 JUMP JUMPDEST DUP3 ADD SWAP2 SWAP1 PUSH0 MSTORE PUSH1 0x20 PUSH0 KECCAK256 SWAP1 JUMPDEST DUP2 SLOAD DUP2 MSTORE SWAP1 PUSH1 0x1 ADD SWAP1 PUSH1 0x20 ADD DUP1 DUP4 GT PUSH2 0x5EB JUMPI DUP3 SWAP1 SUB PUSH1 0x1F AND DUP3 ADD SWAP2 JUMPDEST POP POP POP POP POP SWAP1 DUP1 PUSH1 0x4 ADD DUP1 SLOAD PUSH2 0x61D SWAP1 PUSH2 0x2156 JUMP JUMPDEST DUP1 PUSH1 0x1F ADD PUSH1 0x20 DUP1 SWAP2 DIV MUL PUSH1 0x20 ADD PUSH1 0x40 MLOAD SWAP1 DUP2 ADD PUSH1 0x40 MSTORE DUP1 SWAP3 SWAP2 SWAP1 DUP2 DUP2 MSTORE PUSH1 0x20 ADD DUP3 DUP1 SLOAD PUSH2 0x649 SWAP1 PUSH2 0x2156 JUMP JUMPDEST DUP1 ISZERO PUSH2 0x694 JUMPI DUP1 PUSH1 0x1F LT PUSH2 0x66B JUMPI PUSH2 0x100 DUP1 DUP4 SLOAD DIV MUL DUP4 MSTORE SWAP2 PUSH1 0x20 ADD SWAP2 PUSH2 0x694 JUMP JUMPDEST DUP3 ADD SWAP2 SWAP1 PUSH0 MSTORE PUSH1 0x20 PUSH0 KECCAK256 SWAP1 JUMPDEST DUP2 SLOAD DUP2 MSTORE SWAP1 PUSH1 0x1 ADD SWAP1 PUSH1 0x20 ADD DUP1 DUP4 GT PUSH2 0x677 JUMPI DUP3 SWAP1 SUB PUSH1 0x1F AND DUP3 ADD SWAP2 JUMPDEST POP POP POP POP POP SWAP1 DUP1 PUSH1 0x5 ADD PUSH0 SWAP1 SLOAD SWAP1 PUSH2 0x100 EXP SWAP1 DIV PUSH1 0xFF AND SWAP1 DUP1 PUSH1 0x6 ADD SLOAD SWAP1 DUP1 PUSH1 0x7 ADD SLOAD SWAP1 DUP1 PUSH1 0x8 ADD SLOAD SWAP1 DUP1 PUSH1 0x9 ADD SLOAD SWAP1 POP DUP11 JUMP JUMPDEST PUSH2 0x6D0 PUSH2 0x17B9 JUMP JUMPDEST PUSH1 0x1 PUSH0 DUP4 PUSH20 0xFFFFFFFFFFFFFFFFFFFFFFFFFFFFFFFFFFFFFFFF AND PUSH20 0xFFFFFFFFFFFFFFFFFFFFFFFFFFFFFFFFFFFFFFFF AND DUP2 MSTORE PUSH1 0x20 ADD SWAP1 DUP2 MSTORE PUSH1 0x20 ADD PUSH0 KECCAK256 PUSH1 0x40 MLOAD DUP1 PUSH1 0xC0 ADD PUSH1 0x40 MSTORE SWAP1 DUP2 PUSH0 DUP3 ADD SLOAD DUP2 MSTORE PUSH1 0x20 ADD PUSH1 0x1 DUP3 ADD SLOAD DUP2 MSTORE PUSH1 0x20 ADD PUSH1 0x2 DUP3 ADD SLOAD DUP2 MSTORE PUSH1 0x20 ADD PUSH1 0x3 DUP3 ADD SLOAD DUP2 MSTORE PUSH1 0x20 ADD PUSH1 0x4 DUP3 ADD SLOAD DUP2 MSTORE PUSH1 0x20 ADD PUSH1 0x5 DUP3 ADD SLOAD DUP2 MSTORE POP POP SWAP1 POP SWAP2 SWAP1 POP JUMP JUMPDEST PUSH0 DUP1 PUSH0 DUP1 PUSH1 0x14 SWAP1 SLOAD SWAP1 PUSH2 0x100 EXP SWAP1 DIV PUSH1 0xFF AND ISZERO PUSH2 0x7AC JUMPI PUSH1 0x40 MLOAD PUSH32 0x8C379A000000000000000000000000000000000000000000000000000000000 DUP2 MSTORE PUSH1 0x4 ADD PUSH2 0x7A3 SWAP1 PUSH2 0x21D0 JUMP JUMPDEST PUSH1 0x40 MLOAD DUP1 SWAP2 SUB SWAP1 REVERT JUMPDEST PUSH1 0x1 PUSH0 PUSH1 0x14 PUSH2 0x100 EXP DUP2 SLOAD DUP2 PUSH1 0xFF MUL NOT AND SWAP1 DUP4 ISZERO ISZERO MUL OR SWAP1 SSTORE POP PUSH0 DUP11 MLOAD GT PUSH2 0x809 JUMPI PUSH1 0x40 MLOAD PUSH32 0x8C379A000000000000000000000000000000000000000000000000000000000 DUP2 MSTORE PUSH1 0x4 ADD PUSH2 0x800 SWAP1 PUSH2 0x2238 JUMP JUMPDEST PUSH1 0x40 MLOAD DUP1 SWAP2 SUB SWAP1 REVERT JUMPDEST PUSH0 DUP10 MLOAD GT PUSH2 0x84C JUMPI PUSH1 0x40 MLOAD PUSH32 0x8C379A000000000000000000000000000000000000000000000000000000000 DUP2 MSTORE PUSH1 0x4 ADD PUSH2 0x843 SWAP1 PUSH2 0x22A0 JUMP JUMPDEST PUSH1 0x40 MLOAD DUP1 SWAP2 SUB SWAP1 REVERT JUMPDEST PUSH0 DUP9 MLOAD GT PUSH2 0x88F JUMPI PUSH1 0x40 MLOAD PUSH32 0x8C379A000000000000000000000000000000000000000000000000000000000 DUP2 MSTORE PUSH1 0x4 ADD PUSH2 0x886 SWAP1 PUSH2 0x2308 JUMP JUMPDEST PUSH1 0x40 MLOAD DUP1 SWAP2 SUB SWAP1 REVERT JUMPDEST PUSH0 DUP8 MLOAD GT PUSH2 0x8D2 JUMPI PUSH1 0x40 MLOAD PUSH32 0x8C379A000000000000000000000000000000000000000000000000000000000 DUP2 MSTORE PUSH1 0x4 ADD PUSH2 0x8C9 SWAP1 PUSH2 0x2370 JUMP JUMPDEST PUSH1 0x40 MLOAD DUP1 SWAP2 SUB SWAP1 REVERT JUMPDEST PUSH0 PUSH2 0x8DD DUP10 DUP10 PUSH2 0x1653 JUMP JUMPDEST SWAP1 POP PUSH0 PUSH2 0x8EA DUP3 DUP10 PUSH2 0x16AB JUMP JUMPDEST SWAP1 POP PUSH0 PUSH1 0x4 PUSH0 DUP2 SLOAD DUP1 SWAP3 SWAP2 SWAP1 PUSH2 0x8FF SWAP1 PUSH2 0x23BB JUMP JUMPDEST SWAP2 SWAP1 POP SSTORE SWAP1 POP PUSH0 CALLER SWAP1 POP PUSH2 0x915 DUP2 DUP6 DUP6 DUP14 PUSH2 0x16E3 JUMP JUMPDEST PUSH1 0x3 PUSH0 DUP3 PUSH20 0xFFFFFFFFFFFFFFFFFFFFFFFFFFFFFFFFFFFFFFFF AND PUSH20 0xFFFFFFFFFFFFFFFFFFFFFFFFFFFFFFFFFFFFFFFF AND DUP2 MSTORE PUSH1 0x20 ADD SWAP1 DUP2 MSTORE PUSH1 0x20 ADD PUSH0 KECCAK256 DUP3 SWAP1 DUP1 PUSH1 0x1 DUP2 SLOAD ADD DUP1 DUP3 SSTORE DUP1 SWAP2 POP POP PUSH1 0x1 SWAP1 SUB SWAP1 PUSH0 MSTORE PUSH1 0x20 PUSH0 KECCAK256 ADD PUSH0 SWAP1 SWAP2 SWAP1 SWAP2 SWAP1 SWAP2 POP SSTORE PUSH1 0x40 MLOAD DUP1 PUSH2 0x140 ADD PUSH1 0x40 MSTORE DUP1 DUP3 PUSH20 0xFFFFFFFFFFFFFFFFFFFFFFFFFFFFFFFFFFFFFFFF AND DUP2 MSTORE PUSH1 0x20 ADD DUP16 DUP2 MSTORE PUSH1 0x20 ADD DUP15 DUP2 MSTORE PUSH1 0x20 ADD DUP14 DUP2 MSTORE PUSH1 0x20 ADD DUP13 DUP2 MSTORE PUSH1 0x20 ADD DUP6 ISZERO ISZERO DUP2 MSTORE PUSH1 0x20 ADD DUP12 DUP2 MSTORE PUSH1 0x20 ADD DUP11 DUP2 MSTORE PUSH1 0x20 ADD DUP10 DUP2 MSTORE PUSH1 0x20 ADD TIMESTAMP DUP2 MSTORE POP PUSH1 0x2 PUSH0 DUP5 DUP2 MSTORE PUSH1 0x20 ADD SWAP1 DUP2 MSTORE PUSH1 0x20 ADD PUSH0 KECCAK256 PUSH0 DUP3 ADD MLOAD DUP2 PUSH0 ADD PUSH0 PUSH2 0x100 EXP DUP2 SLOAD DUP2 PUSH20 0xFFFFFFFFFFFFFFFFFFFFFFFFFFFFFFFFFFFFFFFF MUL NOT AND SWAP1 DUP4 PUSH20 0xFFFFFFFFFFFFFFFFFFFFFFFFFFFFFFFFFFFFFFFF AND MUL OR SWAP1 SSTORE POP PUSH1 0x20 DUP3 ADD MLOAD DUP2 PUSH1 0x1 ADD SWAP1 DUP2 PUSH2 0xA3E SWAP2 SWAP1 PUSH2 0x259F JUMP JUMPDEST POP PUSH1 0x40 DUP3 ADD MLOAD DUP2 PUSH1 0x2 ADD SWAP1 DUP2 PUSH2 0xA54 SWAP2 SWAP1 PUSH2 0x259F JUMP JUMPDEST POP PUSH1 0x60 DUP3 ADD MLOAD DUP2 PUSH1 0x3 ADD SWAP1 DUP2 PUSH2 0xA6A SWAP2 SWAP1 PUSH2 0x259F JUMP JUMPDEST POP PUSH1 0x80 DUP3 ADD MLOAD DUP2 PUSH1 0x4 ADD SWAP1 DUP2 PUSH2 0xA80 SWAP2 SWAP1 PUSH2 0x259F JUMP JUMPDEST POP PUSH1 0xA0 DUP3 ADD MLOAD DUP2 PUSH1 0x5 ADD PUSH0 PUSH2 0x100 EXP DUP2 SLOAD DUP2 PUSH1 0xFF MUL NOT AND SWAP1 DUP4 ISZERO ISZERO MUL OR SWAP1 SSTORE POP PUSH1 0xC0 DUP3 ADD MLOAD DUP2 PUSH1 0x6 ADD SSTORE PUSH1 0xE0 DUP3 ADD MLOAD DUP2 PUSH1 0x7 ADD SSTORE PUSH2 0x100 DUP3 ADD MLOAD DUP2 PUSH1 0x8 ADD SSTORE PUSH2 0x120 DUP3 ADD MLOAD DUP2 PUSH1 0x9 ADD SSTORE SWAP1 POP POP DUP1 PUSH20 0xFFFFFFFFFFFFFFFFFFFFFFFFFFFFFFFFFFFFFFFF AND DUP3 PUSH32 0x269FDAAD5D16437265C62DFB37CEE849E609D046C5233E51B57B5A80354DE654 DUP7 DUP7 TIMESTAMP PUSH1 0x40 MLOAD PUSH2 0xB18 SWAP4 SWAP3 SWAP2 SWAP1 PUSH2 0x266E JUMP JUMPDEST PUSH1 0x40 MLOAD DUP1 SWAP2 SUB SWAP1 LOG3 DUP1 PUSH20 0xFFFFFFFFFFFFFFFFFFFFFFFFFFFFFFFFFFFFFFFF AND PUSH32 0x5C874ADF9D1C93AB636130BB7E727993F1D6A3D33D1FFD925556815D0EEC2308 PUSH1 0x1 PUSH0 DUP5 PUSH20 0xFFFFFFFFFFFFFFFFFFFFFFFFFFFFFFFFFFFFFFFF AND PUSH20 0xFFFFFFFFFFFFFFFFFFFFFFFFFFFFFFFFFFFFFFFF AND DUP2 MSTORE PUSH1 0x20 ADD SWAP1 DUP2 MSTORE PUSH1 0x20 ADD PUSH0 KECCAK256 PUSH1 0x3 ADD SLOAD PUSH2 0xBA2 DUP5 PUSH2 0xBEB JUMP JUMPDEST PUSH1 0x40 MLOAD PUSH2 0xBB0 SWAP3 SWAP2 SWAP1 PUSH2 0x26A3 JUMP JUMPDEST PUSH1 0x40 MLOAD DUP1 SWAP2 SUB SWAP1 LOG2 DUP2 DUP5 DUP5 SWAP7 POP SWAP7 POP SWAP7 POP POP POP POP POP PUSH0 DUP1 PUSH1 0x14 PUSH2 0x100 EXP DUP2 SLOAD DUP2 PUSH1 0xFF MUL NOT AND SWAP1 DUP4 ISZERO ISZERO MUL OR SWAP1 SSTORE POP SWAP8 POP SWAP8 POP SWAP8 SWAP5 POP POP POP POP POP JUMP JUMPDEST PUSH0 DUP1 PUSH1 0x1 PUSH0 DUP5 PUSH20 0xFFFFFFFFFFFFFFFFFFFFFFFFFFFFFFFFFFFFFFFF AND PUSH20 0xFFFFFFFFFFFFFFFFFFFFFFFFFFFFFFFFFFFFFFFF AND DUP2 MSTORE PUSH1 0x20 ADD SWAP1 DUP2 MSTORE PUSH1 0x20 ADD PUSH0 KECCAK256 PUSH1 0x40 MLOAD DUP1 PUSH1 0xC0 ADD PUSH1 0x40 MSTORE SWAP1 DUP2 PUSH0 DUP3 ADD SLOAD DUP2 MSTORE PUSH1 0x20 ADD PUSH1 0x1 DUP3 ADD SLOAD DUP2 MSTORE PUSH1 0x20 ADD PUSH1 0x2 DUP3 ADD SLOAD DUP2 MSTORE PUSH1 0x20 ADD PUSH1 0x3 DUP3 ADD SLOAD DUP2 MSTORE PUSH1 0x20 ADD PUSH1 0x4 DUP3 ADD SLOAD DUP2 MSTORE PUSH1 0x20 ADD PUSH1 0x5 DUP3 ADD SLOAD DUP2 MSTORE POP POP SWAP1 POP PUSH0 DUP2 PUSH0 ADD MLOAD SUB PUSH2 0xC85 JUMPI PUSH0 SWAP2 POP POP PUSH2 0xCA8 JUMP JUMPDEST DUP1 PUSH0 ADD MLOAD PUSH1 0x64 DUP3 PUSH1 0x20 ADD MLOAD PUSH2 0xC9A SWAP2 SWAP1 PUSH2 0x26CA JUMP JUMPDEST PUSH2 0xCA4 SWAP2 SWAP1 PUSH2 0x2738 JUMP JUMPDEST SWAP2 POP POP JUMPDEST SWAP2 SWAP1 POP JUMP JUMPDEST PUSH0 DUP1 SLOAD SWAP1 PUSH2 0x100 EXP SWAP1 DIV PUSH20 0xFFFFFFFFFFFFFFFFFFFFFFFFFFFFFFFFFFFFFFFF AND DUP2 JUMP JUMPDEST PUSH1 0xA DUP2 JUMP JUMPDEST PUSH2 0xCDD PUSH2 0x17E9 JUMP JUMPDEST PUSH1 0x4 SLOAD DUP3 LT PUSH2 0xD21 JUMPI PUSH1 0x40 MLOAD PUSH32 0x8C379A000000000000000000000000000000000000000000000000000000000 DUP2 MSTORE PUSH1 0x4 ADD PUSH2 0xD18 SWAP1 PUSH2 0x27B2 JUMP JUMPDEST PUSH1 0x40 MLOAD DUP1 SWAP2 SUB SWAP1 REVERT JUMPDEST PUSH1 0x2 PUSH0 DUP4 DUP2 MSTORE PUSH1 0x20 ADD SWAP1 DUP2 MSTORE PUSH1 0x20 ADD PUSH0 KECCAK256 PUSH1 0x40 MLOAD DUP1 PUSH2 0x140 ADD PUSH1 0x40 MSTORE SWAP1 DUP2 PUSH0 DUP3 ADD PUSH0 SWAP1 SLOAD SWAP1 PUSH2 0x100 EXP SWAP1 DIV PUSH20 0xFFFFFFFFFFFFFFFFFFFFFFFFFFFFFFFFFFFFFFFF AND PUSH20 0xFFFFFFFFFFFFFFFFFFFFFFFFFFFFFFFFFFFFFFFF AND PUSH20 0xFFFFFFFFFFFFFFFFFFFFFFFFFFFFFFFFFFFFFFFF AND DUP2 MSTORE PUSH1 0x20 ADD PUSH1 0x1 DUP3 ADD DUP1 SLOAD PUSH2 0xDA2 SWAP1 PUSH2 0x2156 JUMP JUMPDEST DUP1 PUSH1 0x1F ADD PUSH1 0x20 DUP1 SWAP2 DIV MUL PUSH1 0x20 ADD PUSH1 0x40 MLOAD SWAP1 DUP2 ADD PUSH1 0x40 MSTORE DUP1 SWAP3 SWAP2 SWAP1 DUP2 DUP2 MSTORE PUSH1 0x20 ADD DUP3 DUP1 SLOAD PUSH2 0xDCE SWAP1 PUSH2 0x2156 JUMP JUMPDEST DUP1 ISZERO PUSH2 0xE19 JUMPI DUP1 PUSH1 0x1F LT PUSH2 0xDF0 JUMPI PUSH2 0x100 DUP1 DUP4 SLOAD DIV MUL DUP4 MSTORE SWAP2 PUSH1 0x20 ADD SWAP2 PUSH2 0xE19 JUMP JUMPDEST DUP3 ADD SWAP2 SWAP1 PUSH0 MSTORE PUSH1 0x20 PUSH0 KECCAK256 SWAP1 JUMPDEST DUP2 SLOAD DUP2 MSTORE SWAP1 PUSH1 0x1 ADD SWAP1 PUSH1 0x20 ADD DUP1 DUP4 GT PUSH2 0xDFC JUMPI DUP3 SWAP1 SUB PUSH1 0x1F AND DUP3 ADD SWAP2 JUMPDEST POP POP POP POP POP DUP2 MSTORE PUSH1 0x20 ADD PUSH1 0x2 DUP3 ADD DUP1 SLOAD PUSH2 0xE32 SWAP1 PUSH2 0x2156 JUMP JUMPDEST DUP1 PUSH1 0x1F ADD PUSH1 0x20 DUP1 SWAP2 DIV MUL PUSH1 0x20 ADD PUSH1 0x40 MLOAD SWAP1 DUP2 ADD PUSH1 0x40 MSTORE DUP1 SWAP3 SWAP2 SWAP1 DUP2 DUP2 MSTORE PUSH1 0x20 ADD DUP3 DUP1 SLOAD PUSH2 0xE5E SWAP1 PUSH2 0x2156 JUMP JUMPDEST DUP1 ISZERO PUSH2 0xEA9 JUMPI DUP1 PUSH1 0x1F LT PUSH2 0xE80 JUMPI PUSH2 0x100 DUP1 DUP4 SLOAD DIV MUL DUP4 MSTORE SWAP2 PUSH1 0x20 ADD SWAP2 PUSH2 0xEA9 JUMP JUMPDEST DUP3 ADD SWAP2 SWAP1 PUSH0 MSTORE PUSH1 0x20 PUSH0 KECCAK256 SWAP1 JUMPDEST DUP2 SLOAD DUP2 MSTORE SWAP1 PUSH1 0x1 ADD SWAP1 PUSH1 0x20 ADD DUP1 DUP4 GT PUSH2 0xE8C JUMPI DUP3 SWAP1 SUB PUSH1 0x1F AND DUP3 ADD SWAP2 JUMPDEST POP POP POP POP POP DUP2 MSTORE PUSH1 0x20 ADD PUSH1 0x3 DUP3 ADD DUP1 SLOAD PUSH2 0xEC2 SWAP1 PUSH2 0x2156 JUMP JUMPDEST DUP1 PUSH1 0x1F ADD PUSH1 0x20 DUP1 SWAP2 DIV MUL PUSH1 0x20 ADD PUSH1 0x40 MLOAD SWAP1 DUP2 ADD PUSH1 0x40 MSTORE DUP1 SWAP3 SWAP2 SWAP1 DUP2 DUP2 MSTORE PUSH1 0x20 ADD DUP3 DUP1 SLOAD PUSH2 0xEEE SWAP1 PUSH2 0x2156 JUMP JUMPDEST DUP1 ISZERO PUSH2 0xF39 JUMPI DUP1 PUSH1 0x1F LT PUSH2 0xF10 JUMPI PUSH2 0x100 DUP1 DUP4 SLOAD DIV MUL DUP4 MSTORE SWAP2 PUSH1 0x20 ADD SWAP2 PUSH2 0xF39 JUMP JUMPDEST DUP3 ADD SWAP2 SWAP1 PUSH0 MSTORE PUSH1 0x20 PUSH0 KECCAK256 SWAP1 JUMPDEST DUP2 SLOAD DUP2 MSTORE SWAP1 PUSH1 0x1 ADD SWAP1 PUSH1 0x20 ADD DUP1 DUP4 GT PUSH2 0xF1C JUMPI DUP3 SWAP1 SUB PUSH1 0x1F AND DUP3 ADD SWAP2 JUMPDEST POP POP POP POP POP DUP2 MSTORE PUSH1 0x20 ADD PUSH1 0x4 DUP3 ADD DUP1 SLOAD PUSH2 0xF52 SWAP1 PUSH2 0x2156 JUMP JUMPDEST DUP1 PUSH1 0x1F ADD PUSH1 0x20 DUP1 SWAP2 DIV MUL PUSH1 0x20 ADD PUSH1 0x40 MLOAD SWAP1 DUP2 ADD PUSH1 0x40 MSTORE DUP1 SWAP3 SWAP2 SWAP1 DUP2 DUP2 MSTORE PUSH1 0x20 ADD DUP3 DUP1 SLOAD PUSH2 0xF7E SWAP1 PUSH2 0x2156 JUMP JUMPDEST DUP1 ISZERO PUSH2 0xFC9 JUMPI DUP1 PUSH1 0x1F LT PUSH2 0xFA0 JUMPI PUSH2 0x100 DUP1 DUP4 SLOAD DIV MUL DUP4 MSTORE SWAP2 PUSH1 0x20 ADD SWAP2 PUSH2 0xFC9 JUMP JUMPDEST DUP3 ADD SWAP2 SWAP1 PUSH0 MSTORE PUSH1 0x20 PUSH0 KECCAK256 SWAP1 JUMPDEST DUP2 SLOAD DUP2 MSTORE SWAP1 PUSH1 0x1 ADD SWAP1 PUSH1 0x20 ADD DUP1 DUP4 GT PUSH2 0xFAC JUMPI DUP3 SWAP1 SUB PUSH1 0x1F AND DUP3 ADD SWAP2 JUMPDEST POP POP POP POP POP DUP2 MSTORE PUSH1 0x20 ADD PUSH1 0x5 DUP3 ADD PUSH0 SWAP1 SLOAD SWAP1 PUSH2 0x100 EXP SWAP1 DIV PUSH1 0xFF AND ISZERO ISZERO ISZERO ISZERO DUP2 MSTORE PUSH1 0x20 ADD PUSH1 0x6 DUP3 ADD SLOAD DUP2 MSTORE PUSH1 0x20 ADD PUSH1 0x7 DUP3 ADD SLOAD DUP2 MSTORE PUSH1 0x20 ADD PUSH1 0x8 DUP3 ADD SLOAD DUP2 MSTORE PUSH1 0x20 ADD PUSH1 0x9 DUP3 ADD SLOAD DUP2 MSTORE POP POP SWAP1 POP SWAP2 SWAP1 POP JUMP JUMPDEST PUSH1 0x60 PUSH1 0x3 PUSH0 DUP4 PUSH20 0xFFFFFFFFFFFFFFFFFFFFFFFFFFFFFFFFFFFFFFFF AND PUSH20 0xFFFFFFFFFFFFFFFFFFFFFFFFFFFFFFFFFFFFFFFF AND DUP2 MSTORE PUSH1 0x20 ADD SWAP1 DUP2 MSTORE PUSH1 0x20 ADD PUSH0 KECCAK256 DUP1 SLOAD DUP1 PUSH1 0x20 MUL PUSH1 0x20 ADD PUSH1 0x40 MLOAD SWAP1 DUP2 ADD PUSH1 0x40 MSTORE DUP1 SWAP3 SWAP2 SWAP1 DUP2 DUP2 MSTORE PUSH1 0x20 ADD DUP3 DUP1 SLOAD DUP1 ISZERO PUSH2 0x10A2 JUMPI PUSH1 0x20 MUL DUP3 ADD SWAP2 SWAP1 PUSH0 MSTORE PUSH1 0x20 PUSH0 KECCAK256 SWAP1 JUMPDEST DUP2 SLOAD DUP2 MSTORE PUSH1 0x20 ADD SWAP1 PUSH1 0x1 ADD SWAP1 DUP1 DUP4 GT PUSH2 0x108E JUMPI JUMPDEST POP POP POP POP POP SWAP1 POP SWAP2 SWAP1 POP JUMP JUMPDEST PUSH1 0x1 PUSH1 0x20 MSTORE DUP1 PUSH0 MSTORE PUSH1 0x40 PUSH0 KECCAK256 PUSH0 SWAP2 POP SWAP1 POP DUP1 PUSH0 ADD SLOAD SWAP1 DUP1 PUSH1 0x1 ADD SLOAD SWAP1 DUP1 PUSH1 0x2 ADD SLOAD SWAP1 DUP1 PUSH1 0x3 ADD SLOAD SWAP1 DUP1 PUSH1 0x4 ADD SLOAD SWAP1 DUP1 PUSH1 0x5 ADD SLOAD SWAP1 POP DUP7 JUMP JUMPDEST PUSH0 DUP1 SLOAD SWAP1 PUSH2 0x100 EXP SWAP1 DIV PUSH20 0xFFFFFFFFFFFFFFFFFFFFFFFFFFFFFFFFFFFFFFFF AND PUSH20 0xFFFFFFFFFFFFFFFFFFFFFFFFFFFFFFFFFFFFFFFF AND CALLER PUSH20 0xFFFFFFFFFFFFFFFFFFFFFFFFFFFFFFFFFFFFFFFF AND EQ PUSH2 0x1173 JUMPI PUSH1 0x40 MLOAD PUSH32 0x8C379A000000000000000000000000000000000000000000000000000000000 DUP2 MSTORE PUSH1 0x4 ADD PUSH2 0x116A SWAP1 PUSH2 0x281A JUMP JUMPDEST PUSH1 0x40 MLOAD DUP1 SWAP2 SUB SWAP1 REVERT JUMPDEST PUSH0 SELFBALANCE SWAP1 POP PUSH0 DUP2 GT PUSH2 0x11B9 JUMPI PUSH1 0x40 MLOAD PUSH32 0x8C379A000000000000000000000000000000000000000000000000000000000 DUP2 MSTORE PUSH1 0x4 ADD PUSH2 0x11B0 SWAP1 PUSH2 0x2882 JUMP JUMPDEST PUSH1 0x40 MLOAD DUP1 SWAP2 SUB SWAP1 REVERT JUMPDEST PUSH0 DUP1 PUSH0 SWAP1 SLOAD SWAP1 PUSH2 0x100 EXP SWAP1 DIV PUSH20 0xFFFFFFFFFFFFFFFFFFFFFFFFFFFFFFFFFFFFFFFF AND PUSH20 0xFFFFFFFFFFFFFFFFFFFFFFFFFFFFFFFFFFFFFFFF AND DUP3 PUSH1 0x40 MLOAD PUSH2 0x11FE SWAP1 PUSH2 0x28CD JUMP JUMPDEST PUSH0 PUSH1 0x40 MLOAD DUP1 DUP4 SUB DUP2 DUP6 DUP8 GAS CALL SWAP3 POP POP POP RETURNDATASIZE DUP1 PUSH0 DUP2 EQ PUSH2 0x1238 JUMPI PUSH1 0x40 MLOAD SWAP2 POP PUSH1 0x1F NOT PUSH1 0x3F RETURNDATASIZE ADD AND DUP3 ADD PUSH1 0x40 MSTORE RETURNDATASIZE DUP3 MSTORE RETURNDATASIZE PUSH0 PUSH1 0x20 DUP5 ADD RETURNDATACOPY PUSH2 0x123D JUMP JUMPDEST PUSH1 0x60 SWAP2 POP JUMPDEST POP POP SWAP1 POP DUP1 PUSH2 0x1281 JUMPI PUSH1 0x40 MLOAD PUSH32 0x8C379A000000000000000000000000000000000000000000000000000000000 DUP2 MSTORE PUSH1 0x4 ADD PUSH2 0x1278 SWAP1 PUSH2 0x292B JUMP JUMPDEST PUSH1 0x40 MLOAD DUP1 SWAP2 SUB SWAP1 REVERT JUMPDEST POP POP JUMP JUMPDEST PUSH1 0x4 SLOAD DUP2 JUMP JUMPDEST PUSH0 PUSH1 0x4 SLOAD DUP4 LT PUSH2 0x12D0 JUMPI PUSH1 0x40 MLOAD PUSH32 0x8C379A000000000000000000000000000000000000000000000000000000000 DUP2 MSTORE PUSH1 0x4 ADD PUSH2 0x12C7 SWAP1 PUSH2 0x27B2 JUMP JUMPDEST PUSH1 0x40 MLOAD DUP1 SWAP2 SUB SWAP1 REVERT JUMPDEST PUSH0 PUSH1 0x2 PUSH0 DUP6 DUP2 MSTORE PUSH1 0x20 ADD SWAP1 DUP2 MSTORE PUSH1 0x20 ADD PUSH0 KECCAK256 PUSH1 0x40 MLOAD DUP1 PUSH2 0x140 ADD PUSH1 0x40 MSTORE SWAP1 DUP2 PUSH0 DUP3 ADD PUSH0 SWAP1 SLOAD SWAP1 PUSH2 0x100 EXP SWAP1 DIV PUSH20 0xFFFFFFFFFFFFFFFFFFFFFFFFFFFFFFFFFFFFFFFF AND PUSH20 0xFFFFFFFFFFFFFFFFFFFFFFFFFFFFFFFFFFFFFFFF AND PUSH20 0xFFFFFFFFFFFFFFFFFFFFFFFFFFFFFFFFFFFFFFFF AND DUP2 MSTORE PUSH1 0x20 ADD PUSH1 0x1 DUP3 ADD DUP1 SLOAD PUSH2 0x1352 SWAP1 PUSH2 0x2156 JUMP JUMPDEST DUP1 PUSH1 0x1F ADD PUSH1 0x20 DUP1 SWAP2 DIV MUL PUSH1 0x20 ADD PUSH1 0x40 MLOAD SWAP1 DUP2 ADD PUSH1 0x40 MSTORE DUP1 SWAP3 SWAP2 SWAP1 DUP2 DUP2 MSTORE PUSH1 0x20 ADD DUP3 DUP1 SLOAD PUSH2 0x137E SWAP1 PUSH2 0x2156 JUMP JUMPDEST DUP1 ISZERO PUSH2 0x13C9 JUMPI DUP1 PUSH1 0x1F LT PUSH2 0x13A0 JUMPI PUSH2 0x100 DUP1 DUP4 SLOAD DIV MUL DUP4 MSTORE SWAP2 PUSH1 0x20 ADD SWAP2 PUSH2 0x13C9 JUMP JUMPDEST DUP3 ADD SWAP2 SWAP1 PUSH0 MSTORE PUSH1 0x20 PUSH0 KECCAK256 SWAP1 JUMPDEST DUP2 SLOAD DUP2 MSTORE SWAP1 PUSH1 0x1 ADD SWAP1 PUSH1 0x20 ADD DUP1 DUP4 GT PUSH2 0x13AC JUMPI DUP3 SWAP1 SUB PUSH1 0x1F AND DUP3 ADD SWAP2 JUMPDEST POP POP POP POP POP DUP2 MSTORE PUSH1 0x20 ADD PUSH1 0x2 DUP3 ADD DUP1 SLOAD PUSH2 0x13E2 SWAP1 PUSH2 0x2156 JUMP JUMPDEST DUP1 PUSH1 0x1F ADD PUSH1 0x20 DUP1 SWAP2 DIV MUL PUSH1 0x20 ADD PUSH1 0x40 MLOAD SWAP1 DUP2 ADD PUSH1 0x40 MSTORE DUP1 SWAP3 SWAP2 SWAP1 DUP2 DUP2 MSTORE PUSH1 0x20 ADD DUP3 DUP1 SLOAD PUSH2 0x140E SWAP1 PUSH2 0x2156 JUMP JUMPDEST DUP1 ISZERO PUSH2 0x1459 JUMPI DUP1 PUSH1 0x1F LT PUSH2 0x1430 JUMPI PUSH2 0x100 DUP1 DUP4 SLOAD DIV MUL DUP4 MSTORE SWAP2 PUSH1 0x20 ADD SWAP2 PUSH2 0x1459 JUMP JUMPDEST DUP3 ADD SWAP2 SWAP1 PUSH0 MSTORE PUSH1 0x20 PUSH0 KECCAK256 SWAP1 JUMPDEST DUP2 SLOAD DUP2 MSTORE SWAP1 PUSH1 0x1 ADD SWAP1 PUSH1 0x20 ADD DUP1 DUP4 GT PUSH2 0x143C JUMPI DUP3 SWAP1 SUB PUSH1 0x1F AND DUP3 ADD SWAP2 JUMPDEST POP POP POP POP POP DUP2 MSTORE PUSH1 0x20 ADD PUSH1 0x3 DUP3 ADD DUP1 SLOAD PUSH2 0x1472 SWAP1 PUSH2 0x2156 JUMP JUMPDEST DUP1 PUSH1 0x1F ADD PUSH1 0x20 DUP1 SWAP2 DIV MUL PUSH1 0x20 ADD PUSH1 0x40 MLOAD SWAP1 DUP2 ADD PUSH1 0x40 MSTORE DUP1 SWAP3 SWAP2 SWAP1 DUP2 DUP2 MSTORE PUSH1 0x20 ADD DUP3 DUP1 SLOAD PUSH2 0x149E SWAP1 PUSH2 0x2156 JUMP JUMPDEST DUP1 ISZERO PUSH2 0x14E9 JUMPI DUP1 PUSH1 0x1F LT PUSH2 0x14C0 JUMPI PUSH2 0x100 DUP1 DUP4 SLOAD DIV MUL DUP4 MSTORE SWAP2 PUSH1 0x20 ADD SWAP2 PUSH2 0x14E9 JUMP JUMPDEST DUP3 ADD SWAP2 SWAP1 PUSH0 MSTORE PUSH1 0x20 PUSH0 KECCAK256 SWAP1 JUMPDEST DUP2 SLOAD DUP2 MSTORE SWAP1 PUSH1 0x1 ADD SWAP1 PUSH1 0x20 ADD DUP1 DUP4 GT PUSH2 0x14CC JUMPI DUP3 SWAP1 SUB PUSH1 0x1F AND DUP3 ADD SWAP2 JUMPDEST POP POP POP POP POP DUP2 MSTORE PUSH1 0x20 ADD PUSH1 0x4 DUP3 ADD DUP1 SLOAD PUSH2 0x1502 SWAP1 PUSH2 0x2156 JUMP JUMPDEST DUP1 PUSH1 0x1F ADD PUSH1 0x20 DUP1 SWAP2 DIV MUL PUSH1 0x20 ADD PUSH1 0x40 MLOAD SWAP1 DUP2 ADD PUSH1 0x40 MSTORE DUP1 SWAP3 SWAP2 SWAP1 DUP2 DUP2 MSTORE PUSH1 0x20 ADD DUP3 DUP1 SLOAD PUSH2 0x152E SWAP1 PUSH2 0x2156 JUMP JUMPDEST DUP1 ISZERO PUSH2 0x1579 JUMPI DUP1 PUSH1 0x1F LT PUSH2 0x1550 JUMPI PUSH2 0x100 DUP1 DUP4 SLOAD DIV MUL DUP4 MSTORE SWAP2 PUSH1 0x20 ADD SWAP2 PUSH2 0x1579 JUMP JUMPDEST DUP3 ADD SWAP2 SWAP1 PUSH0 MSTORE PUSH1 0x20 PUSH0 KECCAK256 SWAP1 JUMPDEST DUP2 SLOAD DUP2 MSTORE SWAP1 PUSH1 0x1 ADD SWAP1 PUSH1 0x20 ADD DUP1 DUP4 GT PUSH2 0x155C JUMPI DUP3 SWAP1 SUB PUSH1 0x1F AND DUP3 ADD SWAP2 JUMPDEST POP POP POP POP POP DUP2 MSTORE PUSH1 0x20 ADD PUSH1 0x5 DUP3 ADD PUSH0 SWAP1 SLOAD SWAP1 PUSH2 0x100 EXP SWAP1 DIV PUSH1 0xFF AND ISZERO ISZERO ISZERO ISZERO DUP2 MSTORE PUSH1 0x20 ADD PUSH1 0x6 DUP3 ADD SLOAD DUP2 MSTORE PUSH1 0x20 ADD PUSH1 0x7 DUP3 ADD SLOAD DUP2 MSTORE PUSH1 0x20 ADD PUSH1 0x8 DUP3 ADD SLOAD DUP2 MSTORE PUSH1 0x20 ADD PUSH1 0x9 DUP3 ADD SLOAD DUP2 MSTORE POP POP SWAP1 POP DUP3 PUSH20 0xFFFFFFFFFFFFFFFFFFFFFFFFFFFFFFFFFFFFFFFF AND DUP2 PUSH0 ADD MLOAD PUSH20 0xFFFFFFFFFFFFFFFFFFFFFFFFFFFFFFFFFFFFFFFF AND EQ PUSH2 0x1637 JUMPI PUSH1 0x40 MLOAD PUSH32 0x8C379A000000000000000000000000000000000000000000000000000000000 DUP2 MSTORE PUSH1 0x4 ADD PUSH2 0x162E SWAP1 PUSH2 0x29B9 JUMP JUMPDEST PUSH1 0x40 MLOAD DUP1 SWAP2 SUB SWAP1 REVERT JUMPDEST DUP1 PUSH1 0xA0 ADD MLOAD SWAP2 POP POP SWAP3 SWAP2 POP POP JUMP JUMPDEST PUSH1 0x5 DUP2 JUMP JUMPDEST PUSH0 PUSH1 0x4 SLOAD SWAP1 POP SWAP1 JUMP JUMPDEST PUSH0 DUP2 PUSH1 0x40 MLOAD PUSH1 0x20 ADD PUSH2 0x1665 SWAP2 SWAP1 PUSH2 0x2A11 JUMP JUMPDEST PUSH1 0x40 MLOAD PUSH1 0x20 DUP2 DUP4 SUB SUB DUP2 MSTORE SWAP1 PUSH1 0x40 MSTORE DUP1 MLOAD SWAP1 PUSH1 0x20 ADD KECCAK256 DUP4 PUSH1 0x40 MLOAD PUSH1 0x20 ADD PUSH2 0x168C SWAP2 SWAP1 PUSH2 0x2A11 JUMP JUMPDEST PUSH1 0x40 MLOAD PUSH1 0x20 DUP2 DUP4 SUB SUB DUP2 MSTORE SWAP1 PUSH1 0x40 MSTORE DUP1 MLOAD SWAP1 PUSH1 0x20 ADD KECCAK256 EQ SWAP1 POP SWAP3 SWAP2 POP POP JUMP JUMPDEST PUSH0 DUP3 PUSH2 0x16B9 JUMPI PUSH0 SWAP1 POP PUSH2 0x16DD JUMP JUMPDEST PUSH0 PUSH1 0xA SWAP1 POP PUSH2 0x1F4 DUP4 GT ISZERO PUSH2 0x16D8 JUMPI PUSH1 0x5 DUP2 PUSH2 0x16D5 SWAP2 SWAP1 PUSH2 0x2A27 JUMP JUMPDEST SWAP1 POP JUMPDEST DUP1 SWAP2 POP POP JUMPDEST SWAP3 SWAP2 POP POP JUMP JUMPDEST PUSH0 PUSH1 0x1 PUSH0 DUP7 PUSH20 0xFFFFFFFFFFFFFFFFFFFFFFFFFFFFFFFFFFFFFFFF AND PUSH20 0xFFFFFFFFFFFFFFFFFFFFFFFFFFFFFFFFFFFFFFFF AND DUP2 MSTORE PUSH1 0x20 ADD SWAP1 DUP2 MSTORE PUSH1 0x20 ADD PUSH0 KECCAK256 SWAP1 POP DUP1 PUSH0 ADD PUSH0 DUP2 SLOAD DUP1 SWAP3 SWAP2 SWAP1 PUSH2 0x1736 SWAP1 PUSH2 0x23BB JUMP JUMPDEST SWAP2 SWAP1 POP SSTORE POP DUP4 ISZERO PUSH2 0x1775 JUMPI DUP1 PUSH1 0x1 ADD PUSH0 DUP2 SLOAD DUP1 SWAP3 SWAP2 SWAP1 PUSH2 0x1755 SWAP1 PUSH2 0x23BB JUMP JUMPDEST SWAP2 SWAP1 POP SSTORE POP DUP1 PUSH1 0x4 ADD SLOAD DUP3 GT ISZERO PUSH2 0x1770 JUMPI DUP2 DUP2 PUSH1 0x4 ADD DUP2 SWAP1 SSTORE POP JUMPDEST PUSH2 0x178F JUMP JUMPDEST DUP1 PUSH1 0x2 ADD PUSH0 DUP2 SLOAD DUP1 SWAP3 SWAP2 SWAP1 PUSH2 0x1789 SWAP1 PUSH2 0x23BB JUMP JUMPDEST SWAP2 SWAP1 POP SSTORE POP JUMPDEST DUP3 DUP2 PUSH1 0x3 ADD PUSH0 DUP3 DUP3 SLOAD PUSH2 0x17A2 SWAP2 SWAP1 PUSH2 0x2A27 JUMP JUMPDEST SWAP3 POP POP DUP2 SWAP1 SSTORE POP TIMESTAMP DUP2 PUSH1 0x5 ADD DUP2 SWAP1 SSTORE POP POP POP POP POP POP JUMP JUMPDEST PUSH1 0x40 MLOAD DUP1 PUSH1 0xC0 ADD PUSH1 0x40 MSTORE DUP1 PUSH0 DUP2 MSTORE PUSH1 0x20 ADD PUSH0 DUP2 MSTORE PUSH1 0x20 ADD PUSH0 DUP2 MSTORE PUSH1 0x20 ADD PUSH0 DUP2 MSTORE PUSH1 0x20 ADD PUSH0 DUP2 MSTORE PUSH1 0x20 ADD PUSH0 DUP2 MSTORE POP SWAP1 JUMP JUMPDEST PUSH1 0x40 MLOAD DUP1 PUSH2 0x140 ADD PUSH1 0x40 MSTORE DUP1 PUSH0 PUSH20 0xFFFFFFFFFFFFFFFFFFFFFFFFFFFFFFFFFFFFFFFF AND DUP2 MSTORE PUSH1 0x20 ADD PUSH1 0x60 DUP2 MSTORE PUSH1 0x20 ADD PUSH1 0x60 DUP2 MSTORE PUSH1 0x20 ADD PUSH1 0x60 DUP2 MSTORE PUSH1 0x20 ADD PUSH1 0x60 DUP2 MSTORE PUSH1 0x20 ADD PUSH0 ISZERO ISZERO DUP2 MSTORE PUSH1 0x20 ADD PUSH0 DUP2 MSTORE PUSH1 0x20 ADD PUSH0 DUP2 MSTORE PUSH1 0x20 ADD PUSH0 DUP2 MSTORE PUSH1 0x20 ADD PUSH0 DUP2 MSTORE POP SWAP1 JUMP JUMPDEST PUSH0 DUP2 SWAP1 POP SWAP2 SWAP1 POP JUMP JUMPDEST PUSH2 0x1860 DUP2 PUSH2 0x184E JUMP JUMPDEST DUP3 MSTORE POP POP JUMP JUMPDEST PUSH0 PUSH1 0x20 DUP3 ADD SWAP1 POP PUSH2 0x1879 PUSH0 DUP4 ADD DUP5 PUSH2 0x1857 JUMP JUMPDEST SWAP3 SWAP2 POP POP JUMP JUMPDEST PUSH0 PUSH1 0x40 MLOAD SWAP1 POP SWAP1 JUMP JUMPDEST PUSH0 DUP1 REVERT JUMPDEST PUSH0 DUP1 REVERT JUMPDEST PUSH0 PUSH20 0xFFFFFFFFFFFFFFFFFFFFFFFFFFFFFFFFFFFFFFFF DUP3 AND SWAP1 POP SWAP2 SWAP1 POP JUMP JUMPDEST PUSH0 PUSH2 0x18B9 DUP3 PUSH2 0x1890 JUMP JUMPDEST SWAP1 POP SWAP2 SWAP1 POP JUMP JUMPDEST PUSH2 0x18C9 DUP2 PUSH2 0x18AF JUMP JUMPDEST DUP2 EQ PUSH2 0x18D3 JUMPI PUSH0 DUP1 REVERT JUMPDEST POP JUMP JUMPDEST PUSH0 DUP2 CALLDATALOAD SWAP1 POP PUSH2 0x18E4 DUP2 PUSH2 0x18C0 JUMP JUMPDEST SWAP3 SWAP2 POP POP JUMP JUMPDEST PUSH0 PUSH1 0x20 DUP3 DUP5 SUB SLT ISZERO PUSH2 0x18FF JUMPI PUSH2 0x18FE PUSH2 0x1888 JUMP JUMPDEST JUMPDEST PUSH0 PUSH2 0x190C DUP5 DUP3 DUP6 ADD PUSH2 0x18D6 JUMP JUMPDEST SWAP2 POP POP SWAP3 SWAP2 POP POP JUMP JUMPDEST PUSH2 0x191E DUP2 PUSH2 0x184E JUMP JUMPDEST DUP2 EQ PUSH2 0x1928 JUMPI PUSH0 DUP1 REVERT JUMPDEST POP JUMP JUMPDEST PUSH0 DUP2 CALLDATALOAD SWAP1 POP PUSH2 0x1939 DUP2 PUSH2 0x1915 JUMP JUMPDEST SWAP3 SWAP2 POP POP JUMP JUMPDEST PUSH0 DUP1 PUSH1 0x40 DUP4 DUP6 SUB SLT ISZERO PUSH2 0x1955 JUMPI PUSH2 0x1954 PUSH2 0x1888 JUMP JUMPDEST JUMPDEST PUSH0 PUSH2 0x1962 DUP6 DUP3 DUP7 ADD PUSH2 0x18D6 JUMP JUMPDEST SWAP3 POP POP PUSH1 0x20 PUSH2 0x1973 DUP6 DUP3 DUP7 ADD PUSH2 0x192B JUMP JUMPDEST SWAP2 POP POP SWAP3 POP SWAP3 SWAP1 POP JUMP JUMPDEST PUSH0 PUSH1 0x20 DUP3 DUP5 SUB SLT ISZERO PUSH2 0x1992 JUMPI PUSH2 0x1991 PUSH2 0x1888 JUMP JUMPDEST JUMPDEST PUSH0 PUSH2 0x199F DUP5 DUP3 DUP6 ADD PUSH2 0x192B JUMP JUMPDEST SWAP2 POP POP SWAP3 SWAP2 POP POP JUMP JUMPDEST PUSH2 0x19B1 DUP2 PUSH2 0x18AF JUMP JUMPDEST DUP3 MSTORE POP POP JUMP JUMPDEST PUSH0 DUP2 MLOAD SWAP1 POP SWAP2 SWAP1 POP JUMP JUMPDEST PUSH0 DUP3 DUP3 MSTORE PUSH1 0x20 DUP3 ADD SWAP1 POP SWAP3 SWAP2 POP POP JUMP JUMPDEST PUSH0 JUMPDEST DUP4 DUP2 LT ISZERO PUSH2 0x19EE JUMPI DUP1 DUP3 ADD MLOAD DUP2 DUP5 ADD MSTORE PUSH1 0x20 DUP2 ADD SWAP1 POP PUSH2 0x19D3 JUMP JUMPDEST PUSH0 DUP5 DUP5 ADD MSTORE POP POP POP POP JUMP JUMPDEST PUSH0 PUSH1 0x1F NOT PUSH1 0x1F DUP4 ADD AND SWAP1 POP SWAP2 SWAP1 POP JUMP JUMPDEST PUSH0 PUSH2 0x1A13 DUP3 PUSH2 0x19B7 JUMP JUMPDEST PUSH2 0x1A1D DUP2 DUP6 PUSH2 0x19C1 JUMP JUMPDEST SWAP4 POP PUSH2 0x1A2D DUP2 DUP6 PUSH1 0x20 DUP7 ADD PUSH2 0x19D1 JUMP JUMPDEST PUSH2 0x1A36 DUP2 PUSH2 0x19F9 JUMP JUMPDEST DUP5 ADD SWAP2 POP POP SWAP3 SWAP2 POP POP JUMP JUMPDEST PUSH0 DUP2 ISZERO ISZERO SWAP1 POP SWAP2 SWAP1 POP JUMP JUMPDEST PUSH2 0x1A55 DUP2 PUSH2 0x1A41 JUMP JUMPDEST DUP3 MSTORE POP POP JUMP JUMPDEST PUSH0 PUSH2 0x140 DUP3 ADD SWAP1 POP PUSH2 0x1A6F PUSH0 DUP4 ADD DUP14 PUSH2 0x19A8 JUMP JUMPDEST DUP2 DUP2 SUB PUSH1 0x20 DUP4 ADD MSTORE PUSH2 0x1A81 DUP2 DUP13 PUSH2 0x1A09 JUMP JUMPDEST SWAP1 POP DUP2 DUP2 SUB PUSH1 0x40 DUP4 ADD MSTORE PUSH2 0x1A95 DUP2 DUP12 PUSH2 0x1A09 JUMP JUMPDEST SWAP1 POP DUP2 DUP2 SUB PUSH1 0x60 DUP4 ADD MSTORE PUSH2 0x1AA9 DUP2 DUP11 PUSH2 0x1A09 JUMP JUMPDEST SWAP1 POP DUP2 DUP2 SUB PUSH1 0x80 DUP4 ADD MSTORE PUSH2 0x1ABD DUP2 DUP10 PUSH2 0x1A09 JUMP JUMPDEST SWAP1 POP PUSH2 0x1ACC PUSH1 0xA0 DUP4 ADD DUP9 PUSH2 0x1A4C JUMP JUMPDEST PUSH2 0x1AD9 PUSH1 0xC0 DUP4 ADD DUP8 PUSH2 0x1857 JUMP JUMPDEST PUSH2 0x1AE6 PUSH1 0xE0 DUP4 ADD DUP7 PUSH2 0x1857 JUMP JUMPDEST PUSH2 0x1AF4 PUSH2 0x100 DUP4 ADD DUP6 PUSH2 0x1857 JUMP JUMPDEST PUSH2 0x1B02 PUSH2 0x120 DUP4 ADD DUP5 PUSH2 0x1857 JUMP JUMPDEST SWAP12 SWAP11 POP POP POP POP POP POP POP POP POP POP POP JUMP JUMPDEST PUSH2 0x1B1A DUP2 PUSH2 0x184E JUMP JUMPDEST DUP3 MSTORE POP POP JUMP JUMPDEST PUSH1 0xC0 DUP3 ADD PUSH0 DUP3 ADD MLOAD PUSH2 0x1B34 PUSH0 DUP6 ADD DUP3 PUSH2 0x1B11 JUMP JUMPDEST POP PUSH1 0x20 DUP3 ADD MLOAD PUSH2 0x1B47 PUSH1 0x20 DUP6 ADD DUP3 PUSH2 0x1B11 JUMP JUMPDEST POP PUSH1 0x40 DUP3 ADD MLOAD PUSH2 0x1B5A PUSH1 0x40 DUP6 ADD DUP3 PUSH2 0x1B11 JUMP JUMPDEST POP PUSH1 0x60 DUP3 ADD MLOAD PUSH2 0x1B6D PUSH1 0x60 DUP6 ADD DUP3 PUSH2 0x1B11 JUMP JUMPDEST POP PUSH1 0x80 DUP3 ADD MLOAD PUSH2 0x1B80 PUSH1 0x80 DUP6 ADD DUP3 PUSH2 0x1B11 JUMP JUMPDEST POP PUSH1 0xA0 DUP3 ADD MLOAD PUSH2 0x1B93 PUSH1 0xA0 DUP6 ADD DUP3 PUSH2 0x1B11 JUMP JUMPDEST POP POP POP POP JUMP JUMPDEST PUSH0 PUSH1 0xC0 DUP3 ADD SWAP1 POP PUSH2 0x1BAC PUSH0 DUP4 ADD DUP5 PUSH2 0x1B20 JUMP JUMPDEST SWAP3 SWAP2 POP POP JUMP JUMPDEST PUSH0 DUP1 REVERT JUMPDEST PUSH0 DUP1 REVERT JUMPDEST PUSH32 0x4E487B7100000000000000000000000000000000000000000000000000000000 PUSH0 MSTORE PUSH1 0x41 PUSH1 0x4 MSTORE PUSH1 0x24 PUSH0 REVERT JUMPDEST PUSH2 0x1BF0 DUP3 PUSH2 0x19F9 JUMP JUMPDEST DUP2 ADD DUP2 DUP2 LT PUSH8 0xFFFFFFFFFFFFFFFF DUP3 GT OR ISZERO PUSH2 0x1C0F JUMPI PUSH2 0x1C0E PUSH2 0x1BBA JUMP JUMPDEST JUMPDEST DUP1 PUSH1 0x40 MSTORE POP POP POP JUMP JUMPDEST PUSH0 PUSH2 0x1C21 PUSH2 0x187F JUMP JUMPDEST SWAP1 POP PUSH2 0x1C2D DUP3 DUP3 PUSH2 0x1BE7 JUMP JUMPDEST SWAP2 SWAP1 POP JUMP JUMPDEST PUSH0 PUSH8 0xFFFFFFFFFFFFFFFF DUP3 GT ISZERO PUSH2 0x1C4C JUMPI PUSH2 0x1C4B PUSH2 0x1BBA JUMP JUMPDEST JUMPDEST PUSH2 0x1C55 DUP3 PUSH2 0x19F9 JUMP JUMPDEST SWAP1 POP PUSH1 0x20 DUP2 ADD SWAP1 POP SWAP2 SWAP1 POP JUMP JUMPDEST DUP3 DUP2 DUP4 CALLDATACOPY PUSH0 DUP4 DUP4 ADD MSTORE POP POP POP JUMP JUMPDEST PUSH0 PUSH2 0x1C82 PUSH2 0x1C7D DUP5 PUSH2 0x1C32 JUMP JUMPDEST PUSH2 0x1C18 JUMP JUMPDEST SWAP1 POP DUP3 DUP2 MSTORE PUSH1 0x20 DUP2 ADD DUP5 DUP5 DUP5 ADD GT ISZERO PUSH2 0x1C9E JUMPI PUSH2 0x1C9D PUSH2 0x1BB6 JUMP JUMPDEST JUMPDEST PUSH2 0x1CA9 DUP5 DUP3 DUP6 PUSH2 0x1C62 JUMP JUMPDEST POP SWAP4 SWAP3 POP POP POP JUMP JUMPDEST PUSH0 DUP3 PUSH1 0x1F DUP4 ADD SLT PUSH2 0x1CC5 JUMPI PUSH2 0x1CC4 PUSH2 0x1BB2 JUMP JUMPDEST JUMPDEST DUP2 CALLDATALOAD PUSH2 0x1CD5 DUP5 DUP3 PUSH1 0x20 DUP7 ADD PUSH2 0x1C70 JUMP JUMPDEST SWAP2 POP POP SWAP3 SWAP2 POP POP JUMP JUMPDEST PUSH0 DUP1 PUSH0 DUP1 PUSH0 DUP1 PUSH0 PUSH1 0xE0 DUP9 DUP11 SUB SLT ISZERO PUSH2 0x1CF9 JUMPI PUSH2 0x1CF8 PUSH2 0x1888 JUMP JUMPDEST JUMPDEST PUSH0 DUP9 ADD CALLDATALOAD PUSH8 0xFFFFFFFFFFFFFFFF DUP2 GT ISZERO PUSH2 0x1D16 JUMPI PUSH2 0x1D15 PUSH2 0x188C JUMP JUMPDEST JUMPDEST PUSH2 0x1D22 DUP11 DUP3 DUP12 ADD PUSH2 0x1CB1 JUMP JUMPDEST SWAP8 POP POP PUSH1 0x20 DUP9 ADD CALLDATALOAD PUSH8 0xFFFFFFFFFFFFFFFF DUP2 GT ISZERO PUSH2 0x1D43 JUMPI PUSH2 0x1D42 PUSH2 0x188C JUMP JUMPDEST JUMPDEST PUSH2 0x1D4F DUP11 DUP3 DUP12 ADD PUSH2 0x1CB1 JUMP JUMPDEST SWAP7 POP POP PUSH1 0x40 DUP9 ADD CALLDATALOAD PUSH8 0xFFFFFFFFFFFFFFFF DUP2 GT ISZERO PUSH2 0x1D70 JUMPI PUSH2 0x1D6F PUSH2 0x188C JUMP JUMPDEST JUMPDEST PUSH2 0x1D7C DUP11 DUP3 DUP12 ADD PUSH2 0x1CB1 JUMP JUMPDEST SWAP6 POP POP PUSH1 0x60 DUP9 ADD CALLDATALOAD PUSH8 0xFFFFFFFFFFFFFFFF DUP2 GT ISZERO PUSH2 0x1D9D JUMPI PUSH2 0x1D9C PUSH2 0x188C JUMP JUMPDEST JUMPDEST PUSH2 0x1DA9 DUP11 DUP3 DUP12 ADD PUSH2 0x1CB1 JUMP JUMPDEST SWAP5 POP POP PUSH1 0x80 PUSH2 0x1DBA DUP11 DUP3 DUP12 ADD PUSH2 0x192B JUMP JUMPDEST SWAP4 POP POP PUSH1 0xA0 PUSH2 0x1DCB DUP11 DUP3 DUP12 ADD PUSH2 0x192B JUMP JUMPDEST SWAP3 POP POP PUSH1 0xC0 PUSH2 0x1DDC DUP11 DUP3 DUP12 ADD PUSH2 0x192B JUMP JUMPDEST SWAP2 POP POP SWAP3 SWAP6 SWAP9 SWAP2 SWAP5 SWAP8 POP SWAP3 SWAP6 POP JUMP JUMPDEST PUSH0 PUSH1 0x60 DUP3 ADD SWAP1 POP PUSH2 0x1DFE PUSH0 DUP4 ADD DUP7 PUSH2 0x1857 JUMP JUMPDEST PUSH2 0x1E0B PUSH1 0x20 DUP4 ADD DUP6 PUSH2 0x1A4C JUMP JUMPDEST PUSH2 0x1E18 PUSH1 0x40 DUP4 ADD DUP5 PUSH2 0x1857 JUMP JUMPDEST SWAP5 SWAP4 POP POP POP POP JUMP JUMPDEST PUSH0 PUSH1 0x20 DUP3 ADD SWAP1 POP PUSH2 0x1E33 PUSH0 DUP4 ADD DUP5 PUSH2 0x19A8 JUMP JUMPDEST SWAP3 SWAP2 POP POP JUMP JUMPDEST PUSH2 0x1E42 DUP2 PUSH2 0x18AF JUMP JUMPDEST DUP3 MSTORE POP POP JUMP JUMPDEST PUSH0 DUP3 DUP3 MSTORE PUSH1 0x20 DUP3 ADD SWAP1 POP SWAP3 SWAP2 POP POP JUMP JUMPDEST PUSH0 PUSH2 0x1E62 DUP3 PUSH2 0x19B7 JUMP JUMPDEST PUSH2 0x1E6C DUP2 DUP6 PUSH2 0x1E48 JUMP JUMPDEST SWAP4 POP PUSH2 0x1E7C DUP2 DUP6 PUSH1 0x20 DUP7 ADD PUSH2 0x19D1 JUMP JUMPDEST PUSH2 0x1E85 DUP2 PUSH2 0x19F9 JUMP JUMPDEST DUP5 ADD SWAP2 POP POP SWAP3 SWAP2 POP POP JUMP JUMPDEST PUSH2 0x1E99 DUP2 PUSH2 0x1A41 JUMP JUMPDEST DUP3 MSTORE POP POP JUMP JUMPDEST PUSH0 PUSH2 0x140 DUP4 ADD PUSH0 DUP4 ADD MLOAD PUSH2 0x1EB5 PUSH0 DUP7 ADD DUP3 PUSH2 0x1E39 JUMP JUMPDEST POP PUSH1 0x20 DUP4 ADD MLOAD DUP5 DUP3 SUB PUSH1 0x20 DUP7 ADD MSTORE PUSH2 0x1ECD DUP3 DUP3 PUSH2 0x1E58 JUMP JUMPDEST SWAP2 POP POP PUSH1 0x40 DUP4 ADD MLOAD DUP5 DUP3 SUB PUSH1 0x40 DUP7 ADD MSTORE PUSH2 0x1EE7 DUP3 DUP3 PUSH2 0x1E58 JUMP JUMPDEST SWAP2 POP POP PUSH1 0x60 DUP4 ADD MLOAD DUP5 DUP3 SUB PUSH1 0x60 DUP7 ADD MSTORE PUSH2 0x1F01 DUP3 DUP3 PUSH2 0x1E58 JUMP JUMPDEST SWAP2 POP POP PUSH1 0x80 DUP4 ADD MLOAD DUP5 DUP3 SUB PUSH1 0x80 DUP7 ADD MSTORE PUSH2 0x1F1B DUP3 DUP3 PUSH2 0x1E58 JUMP JUMPDEST SWAP2 POP POP PUSH1 0xA0 DUP4 ADD MLOAD PUSH2 0x1F30 PUSH1 0xA0 DUP7 ADD DUP3 PUSH2 0x1E90 JUMP JUMPDEST POP PUSH1 0xC0 DUP4 ADD MLOAD PUSH2 0x1F43 PUSH1 0xC0 DUP7 ADD DUP3 PUSH2 0x1B11 JUMP JUMPDEST POP PUSH1 0xE0 DUP4 ADD MLOAD PUSH2 0x1F56 PUSH1 0xE0 DUP7 ADD DUP3 PUSH2 0x1B11 JUMP JUMPDEST POP PUSH2 0x100 DUP4 ADD MLOAD PUSH2 0x1F6B PUSH2 0x100 DUP7 ADD DUP3 PUSH2 0x1B11 JUMP JUMPDEST POP PUSH2 0x120 DUP4 ADD MLOAD PUSH2 0x1F80 PUSH2 0x120 DUP7 ADD DUP3 PUSH2 0x1B11 JUMP JUMPDEST POP DUP1 SWAP2 POP POP SWAP3 SWAP2 POP POP JUMP JUMPDEST PUSH0 PUSH1 0x20 DUP3 ADD SWAP1 POP DUP2 DUP2 SUB PUSH0 DUP4 ADD MSTORE PUSH2 0x1FA3 DUP2 DUP5 PUSH2 0x1E9F JUMP JUMPDEST SWAP1 POP SWAP3 SWAP2 POP POP JUMP JUMPDEST PUSH0 DUP2 MLOAD SWAP1 POP SWAP2 SWAP1 POP JUMP JUMPDEST PUSH0 DUP3 DUP3 MSTORE PUSH1 0x20 DUP3 ADD SWAP1 POP SWAP3 SWAP2 POP POP JUMP JUMPDEST PUSH0 DUP2 SWAP1 POP PUSH1 0x20 DUP3 ADD SWAP1 POP SWAP2 SWAP1 POP JUMP JUMPDEST PUSH0 PUSH2 0x1FDF DUP4 DUP4 PUSH2 0x1B11 JUMP JUMPDEST PUSH1 0x20 DUP4 ADD SWAP1 POP SWAP3 SWAP2 POP POP JUMP JUMPDEST PUSH0 PUSH1 0x20 DUP3 ADD SWAP1 POP SWAP2 SWAP1 POP JUMP JUMPDEST PUSH0 PUSH2 0x2001 DUP3 PUSH2 0x1FAB JUMP JUMPDEST PUSH2 0x200B DUP2 DUP6 PUSH2 0x1FB5 JUMP JUMPDEST SWAP4 POP PUSH2 0x2016 DUP4 PUSH2 0x1FC5 JUMP JUMPDEST DUP1 PUSH0 JUMPDEST DUP4 DUP2 LT ISZERO PUSH2 0x2046 JUMPI DUP2 MLOAD PUSH2 0x202D DUP9 DUP3 PUSH2 0x1FD4 JUMP JUMPDEST SWAP8 POP PUSH2 0x2038 DUP4 PUSH2 0x1FEB JUMP JUMPDEST SWAP3 POP POP PUSH1 0x1 DUP2 ADD SWAP1 POP PUSH2 0x2019 JUMP JUMPDEST POP DUP6 SWAP4 POP POP POP POP SWAP3 SWAP2 POP POP JUMP JUMPDEST PUSH0 PUSH1 0x20 DUP3 ADD SWAP1 POP DUP2 DUP2 SUB PUSH0 DUP4 ADD MSTORE PUSH2 0x206B DUP2 DUP5 PUSH2 0x1FF7 JUMP JUMPDEST SWAP1 POP SWAP3 SWAP2 POP POP JUMP JUMPDEST PUSH0 PUSH1 0xC0 DUP3 ADD SWAP1 POP PUSH2 0x2086 PUSH0 DUP4 ADD DUP10 PUSH2 0x1857 JUMP JUMPDEST PUSH2 0x2093 PUSH1 0x20 DUP4 ADD DUP9 PUSH2 0x1857 JUMP JUMPDEST PUSH2 0x20A0 PUSH1 0x40 DUP4 ADD DUP8 PUSH2 0x1857 JUMP JUMPDEST PUSH2 0x20AD PUSH1 0x60 DUP4 ADD DUP7 PUSH2 0x1857 JUMP JUMPDEST PUSH2 0x20BA PUSH1 0x80 DUP4 ADD DUP6 PUSH2 0x1857 JUMP JUMPDEST PUSH2 0x20C7 PUSH1 0xA0 DUP4 ADD DUP5 PUSH2 0x1857 JUMP JUMPDEST SWAP8 SWAP7 POP POP POP POP POP POP POP JUMP JUMPDEST PUSH0 DUP1 PUSH1 0x40 DUP4 DUP6 SUB SLT ISZERO PUSH2 0x20E8 JUMPI PUSH2 0x20E7 PUSH2 0x1888 JUMP JUMPDEST JUMPDEST PUSH0 PUSH2 0x20F5 DUP6 DUP3 DUP7 ADD PUSH2 0x192B JUMP JUMPDEST SWAP3 POP POP PUSH1 0x20 PUSH2 0x2106 DUP6 DUP3 DUP7 ADD PUSH2 0x18D6 JUMP JUMPDEST SWAP2 POP POP SWAP3 POP SWAP3 SWAP1 POP JUMP JUMPDEST PUSH0 PUSH1 0x20 DUP3 ADD SWAP1 POP PUSH2 0x2123 PUSH0 DUP4 ADD DUP5 PUSH2 0x1A4C JUMP JUMPDEST SWAP3 SWAP2 POP POP JUMP JUMPDEST PUSH32 0x4E487B7100000000000000000000000000000000000000000000000000000000 PUSH0 MSTORE PUSH1 0x22 PUSH1 0x4 MSTORE PUSH1 0x24 PUSH0 REVERT JUMPDEST PUSH0 PUSH1 0x2 DUP3 DIV SWAP1 POP PUSH1 0x1 DUP3 AND DUP1 PUSH2 0x216D JUMPI PUSH1 0x7F DUP3 AND SWAP2 POP JUMPDEST PUSH1 0x20 DUP3 LT DUP2 SUB PUSH2 0x2180 JUMPI PUSH2 0x217F PUSH2 0x2129 JUMP JUMPDEST JUMPDEST POP SWAP2 SWAP1 POP JUMP JUMPDEST PUSH32 0x4E6F207265656E7472616E637900000000000000000000000000000000000000 PUSH0 DUP3 ADD MSTORE POP JUMP JUMPDEST PUSH0 PUSH2 0x21BA PUSH1 0xD DUP4 PUSH2 0x19C1 JUMP JUMPDEST SWAP2 POP PUSH2 0x21C5 DUP3 PUSH2 0x2186 JUMP JUMPDEST PUSH1 0x20 DUP3 ADD SWAP1 POP SWAP2 SWAP1 POP JUMP JUMPDEST PUSH0 PUSH1 0x20 DUP3 ADD SWAP1 POP DUP2 DUP2 SUB PUSH0 DUP4 ADD MSTORE PUSH2 0x21E7 DUP2 PUSH2 0x21AE JUMP JUMPDEST SWAP1 POP SWAP2 SWAP1 POP JUMP JUMPDEST PUSH32 0x636F696E412063616E6E6F7420626520656D7074790000000000000000000000 PUSH0 DUP3 ADD MSTORE POP JUMP JUMPDEST PUSH0 PUSH2 0x2222 PUSH1 0x15 DUP4 PUSH2 0x19C1 JUMP JUMPDEST SWAP2 POP PUSH2 0x222D DUP3 PUSH2 0x21EE JUMP JUMPDEST PUSH1 0x20 DUP3 ADD SWAP1 POP SWAP2 SWAP1 POP JUMP JUMPDEST PUSH0 PUSH1 0x20 DUP3 ADD SWAP1 POP DUP2 DUP2 SUB PUSH0 DUP4 ADD MSTORE PUSH2 0x224F DUP2 PUSH2 0x2216 JUMP JUMPDEST SWAP1 POP SWAP2 SWAP1 POP JUMP JUMPDEST PUSH32 0x636F696E422063616E6E6F7420626520656D7074790000000000000000000000 PUSH0 DUP3 ADD MSTORE POP JUMP JUMPDEST PUSH0 PUSH2 0x228A PUSH1 0x15 DUP4 PUSH2 0x19C1 JUMP JUMPDEST SWAP2 POP PUSH2 0x2295 DUP3 PUSH2 0x2256 JUMP JUMPDEST PUSH1 0x20 DUP3 ADD SWAP1 POP SWAP2 SWAP1 POP JUMP JUMPDEST PUSH0 PUSH1 0x20 DUP3 ADD SWAP1 POP DUP2 DUP2 SUB PUSH0 DUP4 ADD MSTORE PUSH2 0x22B7 DUP2 PUSH2 0x227E JUMP JUMPDEST SWAP1 POP SWAP2 SWAP1 POP JUMP JUMPDEST PUSH32 0x70726564696374656457696E6E65722063616E6E6F7420626520656D70747900 PUSH0 DUP3 ADD MSTORE POP JUMP JUMPDEST PUSH0 PUSH2 0x22F2 PUSH1 0x1F DUP4 PUSH2 0x19C1 JUMP JUMPDEST SWAP2 POP PUSH2 0x22FD DUP3 PUSH2 0x22BE JUMP JUMPDEST PUSH1 0x20 DUP3 ADD SWAP1 POP SWAP2 SWAP1 POP JUMP JUMPDEST PUSH0 PUSH1 0x20 DUP3 ADD SWAP1 POP DUP2 DUP2 SUB PUSH0 DUP4 ADD MSTORE PUSH2 0x231F DUP2 PUSH2 0x22E6 JUMP JUMPDEST SWAP1 POP SWAP2 SWAP1 POP JUMP JUMPDEST PUSH32 0x61637475616C57696E6E65722063616E6E6F7420626520656D70747900000000 PUSH0 DUP3 ADD MSTORE POP JUMP JUMPDEST PUSH0 PUSH2 0x235A PUSH1 0x1C DUP4 PUSH2 0x19C1 JUMP JUMPDEST SWAP2 POP PUSH2 0x2365 DUP3 PUSH2 0x2326 JUMP JUMPDEST PUSH1 0x20 DUP3 ADD SWAP1 POP SWAP2 SWAP1 POP JUMP JUMPDEST PUSH0 PUSH1 0x20 DUP3 ADD SWAP1 POP DUP2 DUP2 SUB PUSH0 DUP4 ADD MSTORE PUSH2 0x2387 DUP2 PUSH2 0x234E JUMP JUMPDEST SWAP1 POP SWAP2 SWAP1 POP JUMP JUMPDEST PUSH32 0x4E487B7100000000000000000000000000000000000000000000000000000000 PUSH0 MSTORE PUSH1 0x11 PUSH1 0x4 MSTORE PUSH1 0x24 PUSH0 REVERT JUMPDEST PUSH0 PUSH2 0x23C5 DUP3 PUSH2 0x184E JUMP JUMPDEST SWAP2 POP PUSH32 0xFFFFFFFFFFFFFFFFFFFFFFFFFFFFFFFFFFFFFFFFFFFFFFFFFFFFFFFFFFFFFFFF DUP3 SUB PUSH2 0x23F7 JUMPI PUSH2 0x23F6 PUSH2 0x238E JUMP JUMPDEST JUMPDEST PUSH1 0x1 DUP3 ADD SWAP1 POP SWAP2 SWAP1 POP JUMP JUMPDEST PUSH0 DUP2 SWAP1 POP DUP2 PUSH0 MSTORE PUSH1 0x20 PUSH0 KECCAK256 SWAP1 POP SWAP2 SWAP1 POP JUMP JUMPDEST PUSH0 PUSH1 0x20 PUSH1 0x1F DUP4 ADD DIV SWAP1 POP SWAP2 SWAP1 POP JUMP JUMPDEST PUSH0 DUP3 DUP3 SHL SWAP1 POP SWAP3 SWAP2 POP POP JUMP JUMPDEST PUSH0 PUSH1 0x8 DUP4 MUL PUSH2 0x245E PUSH32 0xFFFFFFFFFFFFFFFFFFFFFFFFFFFFFFFFFFFFFFFFFFFFFFFFFFFFFFFFFFFFFFFF DUP3 PUSH2 0x2423 JUMP JUMPDEST PUSH2 0x2468 DUP7 DUP4 PUSH2 0x2423 JUMP JUMPDEST SWAP6 POP DUP1 NOT DUP5 AND SWAP4 POP DUP1 DUP7 AND DUP5 OR SWAP3 POP POP POP SWAP4 SWAP3 POP POP POP JUMP JUMPDEST PUSH0 DUP2 SWAP1 POP SWAP2 SWAP1 POP JUMP JUMPDEST PUSH0 PUSH2 0x24A3 PUSH2 0x249E PUSH2 0x2499 DUP5 PUSH2 0x184E JUMP JUMPDEST PUSH2 0x2480 JUMP JUMPDEST PUSH2 0x184E JUMP JUMPDEST SWAP1 POP SWAP2 SWAP1 POP JUMP JUMPDEST PUSH0 DUP2 SWAP1 POP SWAP2 SWAP1 POP JUMP JUMPDEST PUSH2 0x24BC DUP4 PUSH2 0x2489 JUMP JUMPDEST PUSH2 0x24D0 PUSH2 0x24C8 DUP3 PUSH2 0x24AA JUMP JUMPDEST DUP5 DUP5 SLOAD PUSH2 0x242F JUMP JUMPDEST DUP3 SSTORE POP POP POP POP JUMP JUMPDEST PUSH0 SWAP1 JUMP JUMPDEST PUSH2 0x24E4 PUSH2 0x24D8 JUMP JUMPDEST PUSH2 0x24EF DUP2 DUP5 DUP5 PUSH2 0x24B3 JUMP JUMPDEST POP POP POP JUMP JUMPDEST JUMPDEST DUP2 DUP2 LT ISZERO PUSH2 0x2512 JUMPI PUSH2 0x2507 PUSH0 DUP3 PUSH2 0x24DC JUMP JUMPDEST PUSH1 0x1 DUP2 ADD SWAP1 POP PUSH2 0x24F5 JUMP JUMPDEST POP POP JUMP JUMPDEST PUSH1 0x1F DUP3 GT ISZERO PUSH2 0x2557 JUMPI PUSH2 0x2528 DUP2 PUSH2 0x2402 JUMP JUMPDEST PUSH2 0x2531 DUP5 PUSH2 0x2414 JUMP JUMPDEST DUP2 ADD PUSH1 0x20 DUP6 LT ISZERO PUSH2 0x2540 JUMPI DUP2 SWAP1 POP JUMPDEST PUSH2 0x2554 PUSH2 0x254C DUP6 PUSH2 0x2414 JUMP JUMPDEST DUP4 ADD DUP3 PUSH2 0x24F4 JUMP JUMPDEST POP POP JUMPDEST POP POP POP JUMP JUMPDEST PUSH0 DUP3 DUP3 SHR SWAP1 POP SWAP3 SWAP2 POP POP JUMP JUMPDEST PUSH0 PUSH2 0x2577 PUSH0 NOT DUP5 PUSH1 0x8 MUL PUSH2 0x255C JUMP JUMPDEST NOT DUP1 DUP4 AND SWAP2 POP POP SWAP3 SWAP2 POP POP JUMP JUMPDEST PUSH0 PUSH2 0x258F DUP4 DUP4 PUSH2 0x2568 JUMP JUMPDEST SWAP2 POP DUP3 PUSH1 0x2 MUL DUP3 OR SWAP1 POP SWAP3 SWAP2 POP POP JUMP JUMPDEST PUSH2 0x25A8 DUP3 PUSH2 0x19B7 JUMP JUMPDEST PUSH8 0xFFFFFFFFFFFFFFFF DUP2 GT ISZERO PUSH2 0x25C1 JUMPI PUSH2 0x25C0 PUSH2 0x1BBA JUMP JUMPDEST JUMPDEST PUSH2 0x25CB DUP3 SLOAD PUSH2 0x2156 JUMP JUMPDEST PUSH2 0x25D6 DUP3 DUP3 DUP6 PUSH2 0x2516 JUMP JUMPDEST PUSH0 PUSH1 0x20 SWAP1 POP PUSH1 0x1F DUP4 GT PUSH1 0x1 DUP2 EQ PUSH2 0x2607 JUMPI PUSH0 DUP5 ISZERO PUSH2 0x25F5 JUMPI DUP3 DUP8 ADD MLOAD SWAP1 POP JUMPDEST PUSH2 0x25FF DUP6 DUP3 PUSH2 0x2584 JUMP JUMPDEST DUP7 SSTORE POP PUSH2 0x2666 JUMP JUMPDEST PUSH1 0x1F NOT DUP5 AND PUSH2 0x2615 DUP7 PUSH2 0x2402 JUMP JUMPDEST PUSH0 JUMPDEST DUP3 DUP2 LT ISZERO PUSH2 0x263C JUMPI DUP5 DUP10 ADD MLOAD DUP3 SSTORE PUSH1 0x1 DUP3 ADD SWAP2 POP PUSH1 0x20 DUP6 ADD SWAP5 POP PUSH1 0x20 DUP2 ADD SWAP1 POP PUSH2 0x2617 JUMP JUMPDEST DUP7 DUP4 LT ISZERO PUSH2 0x2659 JUMPI DUP5 DUP10 ADD MLOAD PUSH2 0x2655 PUSH1 0x1F DUP10 AND DUP3 PUSH2 0x2568 JUMP JUMPDEST DUP4 SSTORE POP JUMPDEST PUSH1 0x1 PUSH1 0x2 DUP9 MUL ADD DUP9 SSTORE POP POP POP JUMPDEST POP POP POP POP POP POP JUMP JUMPDEST PUSH0 PUSH1 0x60 DUP3 ADD SWAP1 POP PUSH2 0x2681 PUSH0 DUP4 ADD DUP7 PUSH2 0x1A4C JUMP JUMPDEST PUSH2 0x268E PUSH1 0x20 DUP4 ADD DUP6 PUSH2 0x1857 JUMP JUMPDEST PUSH2 0x269B PUSH1 0x40 DUP4 ADD DUP5 PUSH2 0x1857 JUMP JUMPDEST SWAP5 SWAP4 POP POP POP POP JUMP JUMPDEST PUSH0 PUSH1 0x40 DUP3 ADD SWAP1 POP PUSH2 0x26B6 PUSH0 DUP4 ADD DUP6 PUSH2 0x1857 JUMP JUMPDEST PUSH2 0x26C3 PUSH1 0x20 DUP4 ADD DUP5 PUSH2 0x1857 JUMP JUMPDEST SWAP4 SWAP3 POP POP POP JUMP JUMPDEST PUSH0 PUSH2 0x26D4 DUP3 PUSH2 0x184E JUMP JUMPDEST SWAP2 POP PUSH2 0x26DF DUP4 PUSH2 0x184E JUMP JUMPDEST SWAP3 POP DUP3 DUP3 MUL PUSH2 0x26ED DUP2 PUSH2 0x184E JUMP JUMPDEST SWAP2 POP DUP3 DUP3 DIV DUP5 EQ DUP4 ISZERO OR PUSH2 0x2704 JUMPI PUSH2 0x2703 PUSH2 0x238E JUMP JUMPDEST JUMPDEST POP SWAP3 SWAP2 POP POP JUMP JUMPDEST PUSH32 0x4E487B7100000000000000000000000000000000000000000000000000000000 PUSH0 MSTORE PUSH1 0x12 PUSH1 0x4 MSTORE PUSH1 0x24 PUSH0 REVERT JUMPDEST PUSH0 PUSH2 0x2742 DUP3 PUSH2 0x184E JUMP JUMPDEST SWAP2 POP PUSH2 0x274D DUP4 PUSH2 0x184E JUMP JUMPDEST SWAP3 POP DUP3 PUSH2 0x275D JUMPI PUSH2 0x275C PUSH2 0x270B JUMP JUMPDEST JUMPDEST DUP3 DUP3 DIV SWAP1 POP SWAP3 SWAP2 POP POP JUMP JUMPDEST PUSH32 0x426174746C6520494420646F6573206E6F742065786973740000000000000000 PUSH0 DUP3 ADD MSTORE POP JUMP JUMPDEST PUSH0 PUSH2 0x279C PUSH1 0x18 DUP4 PUSH2 0x19C1 JUMP JUMPDEST SWAP2 POP PUSH2 0x27A7 DUP3 PUSH2 0x2768 JUMP JUMPDEST PUSH1 0x20 DUP3 ADD SWAP1 POP SWAP2 SWAP1 POP JUMP JUMPDEST PUSH0 PUSH1 0x20 DUP3 ADD SWAP1 POP DUP2 DUP2 SUB PUSH0 DUP4 ADD MSTORE PUSH2 0x27C9 DUP2 PUSH2 0x2790 JUMP JUMPDEST SWAP1 POP SWAP2 SWAP1 POP JUMP JUMPDEST PUSH32 0x4F6E6C79206F776E65722063616E2063616C6C20746869730000000000000000 PUSH0 DUP3 ADD MSTORE POP JUMP JUMPDEST PUSH0 PUSH2 0x2804 PUSH1 0x18 DUP4 PUSH2 0x19C1 JUMP JUMPDEST SWAP2 POP PUSH2 0x280F DUP3 PUSH2 0x27D0 JUMP JUMPDEST PUSH1 0x20 DUP3 ADD SWAP1 POP SWAP2 SWAP1 POP JUMP JUMPDEST PUSH0 PUSH1 0x20 DUP3 ADD SWAP1 POP DUP2 DUP2 SUB PUSH0 DUP4 ADD MSTORE PUSH2 0x2831 DUP2 PUSH2 0x27F8 JUMP JUMPDEST SWAP1 POP SWAP2 SWAP1 POP JUMP JUMPDEST PUSH32 0x4E6F2066756E647320746F207769746864726177000000000000000000000000 PUSH0 DUP3 ADD MSTORE POP JUMP JUMPDEST PUSH0 PUSH2 0x286C PUSH1 0x14 DUP4 PUSH2 0x19C1 JUMP JUMPDEST SWAP2 POP PUSH2 0x2877 DUP3 PUSH2 0x2838 JUMP JUMPDEST PUSH1 0x20 DUP3 ADD SWAP1 POP SWAP2 SWAP1 POP JUMP JUMPDEST PUSH0 PUSH1 0x20 DUP3 ADD SWAP1 POP DUP2 DUP2 SUB PUSH0 DUP4 ADD MSTORE PUSH2 0x2899 DUP2 PUSH2 0x2860 JUMP JUMPDEST SWAP1 POP SWAP2 SWAP1 POP JUMP JUMPDEST PUSH0 DUP2 SWAP1 POP SWAP3 SWAP2 POP POP JUMP JUMPDEST POP JUMP JUMPDEST PUSH0 PUSH2 0x28B8 PUSH0 DUP4 PUSH2 0x28A0 JUMP JUMPDEST SWAP2 POP PUSH2 0x28C3 DUP3 PUSH2 0x28AA JUMP JUMPDEST PUSH0 DUP3 ADD SWAP1 POP SWAP2 SWAP1 POP JUMP JUMPDEST PUSH0 PUSH2 0x28D7 DUP3 PUSH2 0x28AD JUMP JUMPDEST SWAP2 POP DUP2 SWAP1 POP SWAP2 SWAP1 POP JUMP JUMPDEST PUSH32 0x5769746864726177616C206661696C6564000000000000000000000000000000 PUSH0 DUP3 ADD MSTORE POP JUMP JUMPDEST PUSH0 PUSH2 0x2915 PUSH1 0x11 DUP4 PUSH2 0x19C1 JUMP JUMPDEST SWAP2 POP PUSH2 0x2920 DUP3 PUSH2 0x28E1 JUMP JUMPDEST PUSH1 0x20 DUP3 ADD SWAP1 POP SWAP2 SWAP1 POP JUMP JUMPDEST PUSH0 PUSH1 0x20 DUP3 ADD SWAP1 POP DUP2 DUP2 SUB PUSH0 DUP4 ADD MSTORE PUSH2 0x2942 DUP2 PUSH2 0x2909 JUMP JUMPDEST SWAP1 POP SWAP2 SWAP1 POP JUMP JUMPDEST PUSH32 0x506C6179657220646964206E6F7420706172746963697061746520696E207468 PUSH0 DUP3 ADD MSTORE PUSH32 0x697320626174746C650000000000000000000000000000000000000000000000 PUSH1 0x20 DUP3 ADD MSTORE POP JUMP JUMPDEST PUSH0 PUSH2 0x29A3 PUSH1 0x29 DUP4 PUSH2 0x19C1 JUMP JUMPDEST SWAP2 POP PUSH2 0x29AE DUP3 PUSH2 0x2949 JUMP JUMPDEST PUSH1 0x40 DUP3 ADD SWAP1 POP SWAP2 SWAP1 POP JUMP JUMPDEST PUSH0 PUSH1 0x20 DUP3 ADD SWAP1 POP DUP2 DUP2 SUB PUSH0 DUP4 ADD MSTORE PUSH2 0x29D0 DUP2 PUSH2 0x2997 JUMP JUMPDEST SWAP1 POP SWAP2 SWAP1 POP JUMP JUMPDEST PUSH0 DUP2 SWAP1 POP SWAP3 SWAP2 POP POP JUMP JUMPDEST PUSH0 PUSH2 0x29EB DUP3 PUSH2 0x19B7 JUMP JUMPDEST PUSH2 0x29F5 DUP2 DUP6 PUSH2 0x29D7 JUMP JUMPDEST SWAP4 POP PUSH2 0x2A05 DUP2 DUP6 PUSH1 0x20 DUP7 ADD PUSH2 0x19D1 JUMP JUMPDEST DUP1 DUP5 ADD SWAP2 POP POP SWAP3 SWAP2 POP POP JUMP JUMPDEST PUSH0 PUSH2 0x2A1C DUP3 DUP5 PUSH2 0x29E1 JUMP JUMPDEST SWAP2 POP DUP2 SWAP1 POP SWAP3 SWAP2 POP POP JUMP JUMPDEST PUSH0 PUSH2 0x2A31 DUP3 PUSH2 0x184E JUMP JUMPDEST SWAP2 POP PUSH2 0x2A3C DUP4 PUSH2 0x184E JUMP JUMPDEST SWAP3 POP DUP3 DUP3 ADD SWAP1 POP DUP1 DUP3 GT ISZERO PUSH2 0x2A54 JUMPI PUSH2 0x2A53 PUSH2 0x238E JUMP JUMPDEST JUMPDEST SWAP3 SWAP2 POP POP JUMP INVALID LOG2 PUSH5 0x6970667358 0x22 SLT KECCAK256 SDIV PUSH30 0xE24A090F113F81CF8E39085EA6A43C15BE7F5B50F5FBD0E20BDBA4304D78 PUSH5 0x736F6C6343 STOP ADDMOD EQ STOP CALLER "
				},
				"gasEstimates": {
					"creation": {
						"codeDepositCost": "2179200",
						"executionCost": "55908",
						"totalCost": "2235108"
					},
					"external": {
						"BONUS_POINTS_HIGH_DELTA()": "413",
						"DELTA_THRESHOLD()": "349",
						"POINTS_PER_CORRECT_PREDICTION()": "348",
						"battleCount()": "2469",
						"battleHistory(uint256)": "infinite",
						"emergencyWithdraw()": "infinite",
						"getAccuracy(address)": "infinite",
						"getBattleById(uint256)": "infinite",
						"getBattleCount()": "2542",
						"getPlayerBattleCount(address)": "2883",
						"getPlayerBattleIds(address)": "infinite",
						"getUserStats(address)": "infinite",
						"owner()": "2594",
						"playerBattleIds(address,uint256)": "infinite",
						"playerStats(address)": "infinite",
						"submitBattle(string,string,string,string,uint256,uint256,uint256)": "infinite",
						"wasPredictionCorrect(uint256,address)": "infinite"
					},
					"internal": {
						"_calculatePoints(bool,uint256)": "infinite",
						"_updatePlayerStats(address,bool,uint256,uint256)": "infinite",
						"compareStrings(string memory,string memory)": "infinite"
					}
				},
				"methodIdentifiers": {
					"BONUS_POINTS_HIGH_DELTA()": "ec542643",
					"DELTA_THRESHOLD()": "12cdfd1f",
					"POINTS_PER_CORRECT_PREDICTION()": "96b15bff",
					"battleCount()": "e00b6363",
					"battleHistory(uint256)": "4ccc616d",
					"emergencyWithdraw()": "db2e21bc",
					"getAccuracy(address)": "783df30a",
					"getBattleById(uint256)": "9d790301",
					"getBattleCount()": "f470d5ec",
					"getPlayerBattleCount(address)": "178bf3bc",
					"getPlayerBattleIds(address)": "abef5f3f",
					"getUserStats(address)": "4e43603a",
					"owner()": "8da5cb5b",
					"playerBattleIds(address,uint256)": "439c444d",
					"playerStats(address)": "cdafbbb6",
					"submitBattle(string,string,string,string,uint256,uint256,uint256)": "551ecd5b",
					"wasPredictionCorrect(uint256,address)": "e82bec0b"
				}
			},
			"storageLayout": {
				"storage": [
					{
						"astId": 13,
						"contract": "src/BattleLeaderboard.sol:BattleLeaderboard",
						"label": "owner",
						"offset": 0,
						"slot": "0",
						"type": "t_address"
					},
					{
						"astId": 15,
						"contract": "src/BattleLeaderboard.sol:BattleLeaderboard",
						"label": "locked",
						"offset": 20,
						"slot": "0",
						"type": "t_bool"
					},
					{
						"astId": 54,
						"contract": "src/BattleLeaderboard.sol:BattleLeaderboard",
						"label": "playerStats",
						"offset": 0,
						"slot": "1",
						"type": "t_mapping(t_address,t_struct(PlayerStats)28_storage)"
					},
					{
						"astId": 59,
						"contract": "src/BattleLeaderboard.sol:BattleLeaderboard",
						"label": "battleHistory",
						"offset": 0,
						"slot": "2",
						"type": "t_mapping(t_uint256,t_struct(BattleRecord)49_storage)"
					},
					{
						"astId": 64,
						"contract": "src/BattleLeaderboard.sol:BattleLeaderboard",
						"label": "playerBattleIds",
						"offset": 0,
						"slot": "3",
						"type": "t_mapping(t_address,t_array(t_uint256)dyn_storage)"
					},
					{
						"astId": 67,
						"contract": "src/BattleLeaderboard.sol:BattleLeaderboard",
						"label": "battleCount",
						"offset": 0,
						"slot": "4",
						"type": "t_uint256"
					}
				],
				"types": {
					"t_address": {
						"encoding": "inplace",
						"label": "address",
						"numberOfBytes": "20"
					},
					"t_array(t_uint256)dyn_storage": {
						"base": "t_uint256",
						"encoding": "dynamic_array",
						"label": "uint256[]",
						"numberOfBytes": "32"
					},
					"t_bool": {
						"encoding": "inplace",
						"label": "bool",
						"numberOfBytes": "1"
					},
					"t_mapping(t_address,t_array(t_uint256)dyn_storage)": {
						"encoding": "mapping",
						"key": "t_address",
						"label": "mapping(address => uint256[])",
						"numberOfBytes": "32",
						"value": "t_array(t_uint256)dyn_storage"
					},
					"t_mapping(t_address,t_struct(PlayerStats)28_storage)": {
						"encoding": "mapping",
						"key": "t_address",
						"label": "mapping(address => struct BattleLeaderboard.PlayerStats)",
						"numberOfBytes": "32",
						"value": "t_struct(PlayerStats)28_storage"
					},
					"t_mapping(t_uint256,t_struct(BattleRecord)49_storage)": {
						"encoding": "mapping",
						"key": "t_uint256",
						"label": "mapping(uint256 => struct BattleLeaderboard.BattleRecord)",
						"numberOfBytes": "32",
						"value": "t_struct(BattleRecord)49_storage"
					},
					"t_string_storage": {
						"encoding": "bytes",
						"label": "string",
						"numberOfBytes": "32"
					},
					"t_struct(BattleRecord)49_storage": {
						"encoding": "inplace",
						"label": "struct BattleLeaderboard.BattleRecord",
						"members": [
							{
								"astId": 30,
								"contract": "src/BattleLeaderboard.sol:BattleLeaderboard",
								"label": "player",
								"offset": 0,
								"slot": "0",
								"type": "t_address"
							},
							{
								"astId": 32,
								"contract": "src/BattleLeaderboard.sol:BattleLeaderboard",
								"label": "coinA",
								"offset": 0,
								"slot": "1",
								"type": "t_string_storage"
							},
							{
								"astId": 34,
								"contract": "src/BattleLeaderboard.sol:BattleLeaderboard",
								"label": "coinB",
								"offset": 0,
								"slot": "2",
								"type": "t_string_storage"
							},
							{
								"astId": 36,
								"contract": "src/BattleLeaderboard.sol:BattleLeaderboard",
								"label": "predictedWinner",
								"offset": 0,
								"slot": "3",
								"type": "t_string_storage"
							},
							{
								"astId": 38,
								"contract": "src/BattleLeaderboard.sol:BattleLeaderboard",
								"label": "actualWinner",
								"offset": 0,
								"slot": "4",
								"type": "t_string_storage"
							},
							{
								"astId": 40,
								"contract": "src/BattleLeaderboard.sol:BattleLeaderboard",
								"label": "wasCorrect",
								"offset": 0,
								"slot": "5",
								"type": "t_bool"
							},
							{
								"astId": 42,
								"contract": "src/BattleLeaderboard.sol:BattleLeaderboard",
								"label": "delta",
								"offset": 0,
								"slot": "6",
								"type": "t_uint256"
							},
							{
								"astId": 44,
								"contract": "src/BattleLeaderboard.sol:BattleLeaderboard",
								"label": "scoreA",
								"offset": 0,
								"slot": "7",
								"type": "t_uint256"
							},
							{
								"astId": 46,
								"contract": "src/BattleLeaderboard.sol:BattleLeaderboard",
								"label": "scoreB",
								"offset": 0,
								"slot": "8",
								"type": "t_uint256"
							},
							{
								"astId": 48,
								"contract": "src/BattleLeaderboard.sol:BattleLeaderboard",
								"label": "timestamp",
								"offset": 0,
								"slot": "9",
								"type": "t_uint256"
							}
						],
						"numberOfBytes": "320"
					},
					"t_struct(PlayerStats)28_storage": {
						"encoding": "inplace",
						"label": "struct BattleLeaderboard.PlayerStats",
						"members": [
							{
								"astId": 17,
								"contract": "src/BattleLeaderboard.sol:BattleLeaderboard",
								"label": "totalPredictions",
								"offset": 0,
								"slot": "0",
								"type": "t_uint256"
							},
							{
								"astId": 19,
								"contract": "src/BattleLeaderboard.sol:BattleLeaderboard",
								"label": "correctPredictions",
								"offset": 0,
								"slot": "1",
								"type": "t_uint256"
							},
							{
								"astId": 21,
								"contract": "src/BattleLeaderboard.sol:BattleLeaderboard",
								"label": "wrongPredictions",
								"offset": 0,
								"slot": "2",
								"type": "t_uint256"
							},
							{
								"astId": 23,
								"contract": "src/BattleLeaderboard.sol:BattleLeaderboard",
								"label": "points",
								"offset": 0,
								"slot": "3",
								"type": "t_uint256"
							},
							{
								"astId": 25,
								"contract": "src/BattleLeaderboard.sol:BattleLeaderboard",
								"label": "highestDelta",
								"offset": 0,
								"slot": "4",
								"type": "t_uint256"
							},
							{
								"astId": 27,
								"contract": "src/BattleLeaderboard.sol:BattleLeaderboard",
								"label": "lastBattleTime",
								"offset": 0,
								"slot": "5",
								"type": "t_uint256"
							}
						],
						"numberOfBytes": "192"
					},
					"t_uint256": {
						"encoding": "inplace",
						"label": "uint256",
						"numberOfBytes": "32"
					}
				}
			},
			"userdoc": {
				"kind": "user",
				"methods": {},
				"notice": "This contract tracks player performance in Pong battles with a point system",
				"version": 1
			}
		}
	}
}